:100000000C940D010C94FB210C9422220C94492297
:100010000C9470220C9435010C9435010C949722A9
:100020000C9435010C944F100C94F12A0C948329F4
:100030000C9435010C9435010C9435010C94350168
:100040000C9435010C9435010C9435010C94350158
:100050000C9435010C9435010C9435010C94BE229E
:100060000C9435010C9435010C9435010C94350138
:100070000C9435010C9435010C9435010C94350128
:100080000C9435010C9435010C9435010C94350118
:100090000C94D5040C9435010C9435010C94350165
:1000A0000C9435010C94E90E0C943501DF23E22306
:1000B000D123D523DB23032403240324E623EA23CB
:1000C000EE23F423F8230324FE23084AD73B3BCE38
:1000D000016E84BCBFFDC12F3D6C74319ABD568347
:1000E0003DDA3D00C77F11BED9E4BB4C3E916BAAFF
:1000F000AABE000000803F05A84CCDB2D44EB9384E
:1001000036A9020C50B9918688083CA6AAAA2ABE34
:10011000000000803F000000000200090F00000303
:100120000401000C000000000000000000000000BE
:100130000000000000040802011040804010204030
:1001400080408008020401804020100201108010CD
:1001500020404020040404040403040502020202B7
:100160000403020202020606060606060404020250
:1001700002040400000000250028002B002E00319E
:1001800000080B0002020201000904000001020243
:1001900000000524001001052401010104240206C9
:1001A0000524060001070581031000400904010031
:1001B000020A000000070502024000000705830252
:1001C00040000012010002EF020140FB1F0023006B
:1001D00001010203011201000200000040FB1F00A8
:1001E00023000101020301506F6C6F6C7520436F97
:1001F00072706F726174696F6E00506F6C6F6C75A6
:1002000020412D53746172203332553400040309A8
:1002100004006502EB033F21422511241FBECFEFEE
:10022000DAE0DEBFCDBF12E0A0E0B1E0EEE3F0E641
:1002300002C005900D92A232B107D9F726E0A2E2E2
:10024000B2E001C01D92A339B207E1F712E0CAE1A2
:10025000D2E004C02297FE010E94FA2FC231D107DA
:10026000C9F70E9460250C941D300C940000AF92D9
:10027000BF92CF92DF92EF92FF920F931F9340EDC8
:1002800057E060E070E087E594E00E94740620E0AB
:1002900032EC41E050E06BE276E087E594E00E94CA
:1002A0002D0687E594E00E942A0669E371E08091BB
:1002B0008804909189040E9489256AE070E080E0BA
:1002C00090E00E94372341E060E087E594E00E94DF
:1002D000E60640E052EC61E070E08BE296E00E94BE
:1002E0002D2588E292E00E94921961E083E793E075
:1002F0000E944B1161E083E793E00E944E11A12C14
:10030000B12CC12CD12C76019701860140E050E040
:1003100060EB71E488E292E00E94021CAA24A3949C
:10032000B12C9BEDC92E9FE0D92E99E4E92E90E4E3
:10033000F92E00E010E020EB31EC40E050E060EB03
:1003400071E488E292E00E94021C22E0A22EB12C0D
:1003500000E010E020EB31EC40E050E0BA0188E230
:1003600092E00E94021C3BEDC32E3FE0D32E39ECFD
:10037000E32E3FE3F32E00E010E09801B901A8015D
:1003800088E292E00E94021C1F910F91FF90EF9073
:10039000DF90CF90BF90AF900895AF92BF92CF9271
:1003A000DF92EF92FF920F931F93CF93DF93CDB71E
:1003B000DEB7A4970FB6F894DEBF0FBECDBF64E6DC
:1003C00070E080E090E00E943723A0902602B09079
:1003D00027028CE0ECE8F2E0DE01599601900D92E4
:1003E0008A95E1F7C98CDA8CEB8CFC8C0D8D1E8D17
:1003F0002F8D38A149A15AA16BA17CA188E292E07E
:100400000E94B81E64E670E080E090E00E9437230E
:1004100060E070E083E793E00E94FF1060E070E02E
:1004200083E793E00E942511A0902402B09025025A
:100430008CE0E8E9F2E0DE011D9601900D928A95CC
:10044000E1F7CD84DE84EF84F88809891A892B8945
:100450003C894D895E896F89788D88E292E00E949F
:10046000B81E64E670E080E090E00E943723A09020
:100470002202B09023028CE0E4EAF2E0DE01119661
:1004800001900D928A95E1F7C980DA80EB80FC80BB
:100490000D811E812F81388549855A856B857C8524
:1004A00088E292E00E94B81EA4960FB6F894DEBFD0
:1004B0000FBECDBFDF91CF911F910F91FF90EF90B5
:1004C000DF90CF90BF90AF90089589EC96E7A6E5B6
:1004D000B0E48093280290932902A0932A02B0935B
:1004E0002B0280E695EEA0E3BFE380932C0290936D
:1004F0002D02A0932E02B0932F0284E19EE6A3E684
:10050000B4E48093300290933102A0933202B0930E
:1005100033028DE09FEEAAE8B0E48093340290931A
:100520003502A0933602B093370280E090E0A0E855
:10053000BFE38093380290933902A0933A02B093BC
:100540003B0288E393E00E94010785E493E00E9468
:1005500089082998219A2D98259A2A98229A2E98C6
:10056000269A80EA8093800081E18093810080E96F
:1005700091E09093870080938600109289001092FA
:10058000880010928B0010928A0008958091C70312
:1005900090E02091C803821B910908952091C8031F
:1005A0008091C703281750F4E22FF0E0E753FC4F87
:1005B000808190E02F5F2093C80308958FEF9FEF15
:1005C0000895E091C8038091C703E81730F4F0E084
:1005D000E753FC4F808190E008958FEF9FEF0895DF
:1005E0000895CF92DF92EF92FF920F931F93CF93D4
:1005F000DF937C01CB018A012091A303222389F0A0
:10060000EB016B01C40ED51ECC15DD0569F06991B7
:10061000D701ED91FC910190F081E02DC701099582
:10062000F3CF642F0E94AC04C801DF91CF911F91DA
:100630000F91FF90EF90DF90CF900895CF93DF93CD
:100640001F92CDB7DEB769832091A3032223D1F097
:100650002091A403203240F021E030E0FC013383FC
:10066000228380E090E015C08091A503E82FF0E0A0
:10067000EA55FC4F998190838F5F8093A503809307
:10068000A40305C061E0CE0101960E94AC0481E0A4
:1006900090E00F90DF91CF910895FC0113821282B8
:1006A00048EE53E060E070E04483558366837783CF
:1006B0008FE491E09183808308951092C803109293
:1006C000C7031092A5031092A4030C94EF0381E0DA
:1006D0008093A3036093C6031092A5031092A40312
:1006E00008950F93062F21E04091A40366EA73E07A
:1006F0008091C6030E9455041092A5031092A40392
:100700001092A3030F9108958F929F92AF92BF9280
:10071000CF92DF92EF92FF920F931F93CF93DF93CD
:10072000EC01F62ED42E48015901EE2019F10E9459
:1007300067031E2D143008F013E01150B8F0E88163
:10074000F98128E0129FB0011124A501940104C091
:1007500056954795379527956A95D2F7CA01B901FD
:100760000190F081E02DCE010995E7CF60E0CE0148
:100770000E9471034D2D413208F040E22C2D69ECAE
:1007800073E08F2D0E940D041092C8038093C7035D
:10079000DF91CF911F910F91FF90EF90DF90CF905D
:1007A000BF90AF909F908F900895CF92EF920F934C
:1007B0001F93C22EE12C00E010E098010E948403F8
:1007C0001F910F91EF90CF90089521E00C94D503E5
:1007D00061E00C94710387E993E00C944D0310924F
:1007E000560481E0809354041092530461E082E047
:1007F0000E94042461E083E00E940424E9EBF0E01D
:1008000080818E7F808380818D7F808388E4809348
:10081000B80085E48093BC000895413208F043C0DD
:10082000909156049111FCCF91E09093560420933F
:1008300054042FEF2093E90310922E04240F2093E9
:100840002D049093550490915504880F892B809323
:10085000550480915304813061F4109253048091C7
:1008600055048093BB008091BC0083FDF8CF85ECDC
:1008700001C085EE8093BC00809156048130E1F385
:1008800080912E04841710F440912E042FE234E05E
:10089000FB01D9018A2F821B841718F48D91819353
:1008A000F9CF842F089580E008950F93413208F026
:1008B0004AC0909156049111FCCF92E09093560457
:1008C000009354049FEF9093E90310922E044093F9
:1008D0002D04FB016FE274E0DB019A2F961B941745
:1008E00018F491919D93F9CF10925504909155046D
:1008F000880F892B8093550480915304813061F4D3
:1009000010925304809155048093BB008091BC00E9
:1009100083FDF8CF85EC01C085EE8093BC002223D7
:1009200021F0809156048230E1F38091E9038F3FFA
:1009300061F08091E903803251F08091E9038033C6
:1009400041F483E007C081E005C080E003C082E09D
:1009500001C084E00F910895613298F4209156040B
:10096000243089F460930B04FC018DE094E0DC01F9
:100970002A2F281B261718F421912D93F9CF80E0F8
:10098000089581E0089582E0089585ED8093BC008C
:100990008091BC0084FDFCCF10925604089585EC34
:1009A0008093BC001092560408951F920F920FB6C8
:1009B0000F9211242F933F934F935F936F937F93E5
:1009C0008F939F93AF93BF93EF93FF938091B90061
:1009D000887F803609F49EC078F5883209F45DC0BE
:1009E00090F4803109F456C038F4882309F4F5C036
:1009F000883009F44FC0F5C0883109F44EC0803208
:100A000009F45FC0EEC0803409F46AC058F4803342
:100A100009F457C0883309F0E4C08093E9030E94C9
:100A2000CF04DFC0803509F44FC0883509F45DC0BC
:100A3000883409F0D6C0D3C0883909F4C4C0A8F4FA
:100A4000883709F467C038F4883609F463C0803702
:100A500009F460C0C6C0883809F4B5C0803909F40B
:100A60005FC0803809F0BDC05BC0803B09F483C023
:100A700038F4803A09F466C0883A09F47CC0B1C001
:100A8000803C09F4A4C0883C09F4A1C0883B09F467
:100A900087C0A7C08091550410C090912E0480910A
:100AA0002D04981770F5E0912E0481E08E0F80934D
:100AB0002E04F0E0E15DFB4F80818093BB0085EC6C
:100AC00083C08093E9038BC0E0912E0481E08E0FF8
:100AD00080932E048091BB00F0E0E15DFB4F8083AA
:100AE00090912E0480912D046BC0E0912E0481E042
:100AF0008E0F80932E048091BB00F0E0E15DFB4FF0
:100B000080838091540481116AC081E080935304F2
:100B100084EA5EC083E0809356041092EA03CFCF4C
:100B20008091EA03803208F04EC0E091EA0381E050
:100B30008E0F8093EA038091BB00F0E0E551FC4FFB
:100B40008083BDCF0E94CF048091EA03803230F4CD
:100B5000E091EA03F0E0E551FC4F10826091EA0376
:100B600070E0E0914F04F09150048BEE93E0099512
:100B70001092EA0336C084E08093560410920C046D
:100B800010920B04E0915104F09152040995809168
:100B90000B04811105C081E080930B0410920D04B9
:100BA000E0910C0481E08E0F80930C04F0E0E35F91
:100BB000FB4F80818093BB0090910C0480910B04CB
:100BC000981708F47CCF85E88093BC000AC085ECB8
:100BD0008093BC001092560404C01092E9030E9456
:100BE000C504FF91EF91BF91AF919F918F917F913C
:100BF0006F915F914F913F912F910F900FBE0F908A
:100C00001F9018950F931F93CF93DF93EC016623EA
:100C100059F00E94082369837A838B839C83DF9138
:100C2000CF911F910F9108950E94082309811A8185
:100C30002B813C81601B710B820B930B623371051E
:100C40008105910530F763E070E080E090E00E945C
:100C50003723EACF60E00C940206CF92DF92EF9246
:100C6000FF920F931F93CF93DF9300D000D0CDB7A7
:100C7000DEB78C017B01FC0172AB61AB8BE1C82E4E
:100C8000D12CC70129833A834B835C830E9433258F
:100C900029813A814B815C81811113C0F1E0CF1A27
:100CA000D10879F064E670E080E090E029833A832F
:100CB0004B835C830E9437235C814B813A8129817D
:100CC000E0CFBA01A901F80181A992A90F900F9074
:100CD0000F900F90DF91CF911F910F91FF90EF90A8
:100CE000DF90CF900C942D25FC0113AA14AA15AA0D
:100CF00016AA1182128213821482411551056105D0
:100D0000710521F0CB01BA010C94372308951F938C
:100D1000CF93DF93EC01162F6BE571E089A99AA9B7
:100D20000E9489254AE050E0612F89A99AA90E9472
:100D30003C2662E671E089A99AA90E94892562E3AE
:100D400070E080E090E0DF91CF911F910C94372309
:100D50001F93CF93DF93EC01162F8D81882389F1A8
:100D600089A99AA9DC01ED91FC910480F581E02D1F
:100D70000995892BA9F307C02637310519F12835C4
:100D8000310509F41D8289A99AA9DC01ED91FC9134
:100D90000480F581E02D09951816190694F489A9A7
:100DA0009AA9DC01ED91FC910680F781E02D09956F
:100DB0009C01332723363105F9F6612FCE010E94BD
:100DC000870683E6DF91CF911F9108950F931F93BC
:100DD000CF93DF931F92CDB7DEB78C01662349F026
:100DE00081E0F801858360E0C80149830E94A8067C
:100DF0004981F80145830F90DF91CF911F910F91A9
:100E00000895FC0183E090E0908787831386128623
:100E100014860895EF92FF921F93CF93DF931F9252
:100E2000CDB7DEB77C01162FFC01618587E993E021
:100E300049830E946703612F87E993E00E941E03A4
:100E40004981642F87E993E00E941E0387E993E0BC
:100E50000E94E803F70186830F90DF91CF911F91E5
:100E6000FF90EF900895CF93DF93EC018F819885E9
:100E7000029729F440E069E3CE010E940A0740E0AE
:100E800063E2CE010E940A074FE660E2CE01DF91E5
:100E9000CF910C940A079F92AF92BF92CF92DF92AC
:100EA000EF92FF920F931F93CF93DF93EC0169852D
:100EB00087E993E00E946703E0919703F09198031C
:100EC0000190F081E02D68EA87E993E0099587E9D0
:100ED00093E00E94E80346E0698587E993E00E9479
:100EE000E5030E9408237B0187E993E00E94C60284
:100EF000069784F48A859B85892BB1F30E94082389
:100F00006E197F098A859B858617970768F781E0A8
:100F10008C872CC087E993E00E94CE02A82E87E937
:100F200093E00E94CE02982E87E993E00E94CE02C1
:100F3000E82E87E993E00E94CE02B82E87E993E07D
:100F40000E94CE02F82E87E993E00E94CE02D92CAF
:100F5000C12CCA28D982C8821B2D00E00E291B8310
:100F60000A83982F88278F299D838C83DF91CF91C7
:100F70001F910F91FF90EF90DF90CF90BF90AF90B7
:100F80009F9008951F93CF93DF931F92CDB7DEB745
:100F9000162F87E993E049830E9467034981642FF4
:100FA00087E993E00E941E0387E993E00E94E8032B
:100FB000811114C041E0612F87E993E00E94E503AD
:100FC00087E993E00E94C602892B41F087E993E00C
:100FD0000F90DF91CF911F910C94CE028FEF9FEF76
:100FE0000F90DF91CF911F910895EF92FF920F9391
:100FF0001F93CF93DF937C01EB018A01633071056E
:1010000021F04230510509F051C0CE0101970397FC
:1010100058F50115110581F04FE050E06BE6C7016E
:101020000E94C2078F3F2FEF920719F001E010E0F6
:1010300013C00130110551F04FE050E06AE6C701DE
:101040000E94C2078F3FEFEF9E0721F4C330D10506
:1010500069F027C000E010E0C330D10529F4873DD6
:101060009105F1F5C2E0D0E02097D9F40115110502
:1010700061F04FE050E069E6C7010E94C207833D7E
:10108000910589F10130110549F04FE050E068E623
:10109000C7010E94C207833D910541F1C330D105CC
:1010A00019F00230110511F480E025C0F701D08756
:1010B000C783209759F0D7FD11C023977CF40130E6
:1010C000110511F48BE608C08AE606C0013011054F
:1010D00011F489E601C088E6F701818781E00BC041
:1010E000C1E0D0E0C1CF01E010E002C000E010E0BC
:1010F000C0E0D0E0D6CFDF91CF911F910F91FF904C
:10110000EF900895DC01ED91FC910190F081E02DCC
:101110000994CF93DF93EC0186E0EDE2F1E0DE018C
:10112000529601900D928A95E1F786E0E3E3F1E0B3
:10113000DE011C9601900D928A95E1F784E090E023
:101140009A8F898F1CA61BA61DA6DF91CF910895AB
:10115000EF92FF921F93CF93DF931F92CDB7DEB72D
:101160007C01162FFC01638D87E993E049830E947F
:101170006703612F87E993E00E941E034981642F72
:1011800087E993E00E941E0387E993E00E94E80349
:10119000F701808F0F90DF91CF911F91FF90EF901B
:1011A0000895EF92FF921F93CF93DF931F92CDB7D5
:1011B000DEB77C01162FFC01648D87E993E049833B
:1011C0000E946703612F87E993E00E941E03498113
:1011D000642F87E993E00E941E0387E993E00E9451
:1011E000E803F701808F0F90DF91CF911F91FF905F
:1011F000EF900895FC01218D328D2330310511F0DF
:10120000603210F40C94D1080C94A808CF93DF93AB
:10121000EC01898D9A8D83309105D9F440E061E22B
:10122000CE010E94FA0847E560E2CE010E94FA086A
:1012300044E664E2CE010E94FA0840E265E2CE0193
:101240000E94FA0840E066E2CE01DF91CF910C9453
:10125000FA08029739F448E063E2CE010E94A80838
:1012600047E406C040E063E2CE010E94A80847E2DE
:1012700060E2CE010E94A8084CE060E0CE010E942E
:10128000D10840E261E0CE010E94D10840E062E076
:10129000CE01DF91CF910C94D1089F92AF92BF9273
:1012A000CF92DF92EF92FF920F931F93CF93DF9332
:1012B000EC016B8D87E993E00E94670368EA70E0B8
:1012C00087E993E00E94820887E993E00E94E8039F
:1012D000888F46E06B8D87E993E00E94E5030E94CA
:1012E00008236B0187E993E00E94C602069784F405
:1012F0008BA59CA5892BB1F30E9408236C197D094D
:101300008BA59CA58617970768F781E08DA72CC051
:1013100087E993E00E94CE02A82E87E993E00E941D
:10132000CE02982E87E993E00E94CE02C82E87E96C
:1013300093E00E94CE02B82E87E993E00E94CE028D
:10134000D82E87E993E00E94CE02F92CE12CEA28FE
:10135000F982E8821B2D00E00C291B830A83982F59
:1013600088278D299D838C83DF91CF911F910F91C9
:10137000FF90EF90DF90CF90BF90AF909F90089537
:10138000CF92DF92EF92FF920F931F93CF93DF9351
:10139000EC016C8D87E993E00E946703898D9A8D3B
:1013A000039721F469A17AA1606802C06F8D78A1CA
:1013B00087E993E00E94820887E993E00E94E803AE
:1013C000888F46E06C8D87E993E00E94E5030E94D8
:1013D00008238B0187E993E00E94C602069784F4F4
:1013E0008BA59CA5892BB1F30E940823601B710B70
:1013F0008BA59CA58617970768F781E08DA767C026
:10140000898D9A8D0397F9F487E993E00E94CE02C3
:10141000C82E87E993E00E94CE02D82E87E993E098
:101420000E94CE02E82E87E993E00E94CE02182F98
:1014300087E993E00E94CE02F82E87E993E00E94AC
:10144000CE02082F35C087E993E00E94CE02D82E45
:1014500087E993E00E94CE02C82E298D3A8D87E954
:1014600093E0232B99F40E94CE02182F87E993E092
:101470000E94CE02E82E87E993E00E94CE02082F58
:1014800087E993E00E94CE02F82E12C00E94CE029D
:10149000082F87E993E00E94CE02F82E87E993E0B7
:1014A0000E94CE02182F87E993E00E94CE02E82E18
:1014B0006C2D70E07D297F836E834E2D50E0512B83
:1014C000598748872F2D30E0302B3B872A87DF91C3
:1014D000CF911F910F91FF90EF90DF90CF900895E3
:1014E000CF93DF93EC010E944D09CE01DF91CF91A4
:1014F0000C94C0091F93CF93DF931F92CDB7DEB733
:10150000162F87E993E049830E9467034981642F7E
:1015100087E993E00E941E0387E993E00E94E803B5
:10152000811114C041E0612F87E993E00E94E50337
:1015300087E993E00E94C602892B41F087E993E096
:101540000F90DF91CF911F910C94CE028FEF9FEF00
:101550000F90DF91CF911F910895EF92FF920F931B
:101560001F93CF93DF93EC018B017A0164307105F7
:1015700021F04230510509F055C0C8010397029788
:1015800008F0CDC0E114F10471F04FE050E06DE1DE
:10159000CE010E947A0A8934910509F4B8C081E02D
:1015A000E816F10451F04FE050E06EE1CE010E94E8
:1015B0007A0A8934910509F4AEC00430110509F0A6
:1015C000D0C0E114F10469F040E250E069E1CE01DD
:1015D0000E947A0A019679F421E0E216F10409F4F6
:1015E000A3C040E250E068E1CE010E947A0A019671
:1015F00009F0A4C099C00430110509F09BC04FE068
:1016000050E06EE1CE010E947A0AEE24E394F12CC0
:10161000CC9709F0A9C002E010E082E0E816F104DE
:1016200009F486C01A8F098F0130110569F124F47D
:10163000012B09F449C069C00230110541F10330A2
:10164000110509F062C0EA94EF2811F48DE101C0A0
:101650008EE18C8F8B8F88E090E09AA389A389E03C
:1016600090E098A38F8F8AE090E09EA38DA38BE0FB
:1016700090E09CA38BA38CE090E09AA789A78DE0D3
:1016800090E098A78FA341C0EA94EF2811F489E174
:1016900001C088E18B8F8EE18C8F83E090E098A36E
:1016A0008F8F84E090E09AA389A387E090E09CA3C9
:1016B0008BA388E090E09EA38DA385E090E098A79F
:1016C0008FA386E090E01FC0EA94EF2811F489E12F
:1016D00001C088E18B8F8EE18C8F83E090E098A32E
:1016E0008F8F84E090E09AA389A385E090E09CA38B
:1016F0008BA386E090E09EA38DA387E090E098A75F
:101700008FA388E090E09AA789A781E030C0EE24FB
:10171000E394F12C02C0E12CF12C03E010E0033043
:10172000110508F44ECF79CF0430110509F075CFBB
:1017300080E01DC0EE24E394F12C6FCF043011053E
:1017400069F44FE050E06EE1CE010E947A0A31E088
:1017500020E0CC9709F030E0032F122FE12CF12C80
:101760005CCF03E010E059CF00E010E056CFDF91EE
:10177000CF911F910F91FF90EF9008959091900459
:10178000E0919404F0919504992311F0849101C0A3
:1017900080812FEB280F2A3110F4805E089580326B
:1017A00049F49F012F5F3F4F309395042093940499
:1017B000EF2B31F708951F93CF93DF930E94BE0B59
:1017C000C0E0D0E01AE090ED980F9A30B8F49E0196
:1017D000129FE001139FD00D1124C80FD11D87FD6A
:1017E000DA95E097809194049091950401969093F6
:1017F0009504809394040E94BE0BE5CFCE01DF9147
:10180000CF911F910895109272001092C00084E051
:101810008093C10089E08093C20081E08093C3007F
:10182000EFEBF0E083E0808388EE8093D1001082BC
:101830001092D200579A789408952F923F924F9227
:101840005F926F927F928F929F92AF92BF92CF9250
:10185000DF92EF92FF920F931F93CF93DF93CDB759
:10186000DEB727970FB6F894DEBF0FBECDBF7C0161
:101870001B014D8380919604811105C081E0809306
:1018800096040E94030C10920F01F7FE04C0E89426
:10189000F7F81AE001C011E088E2189F802D1124AA
:1018A000282F30E03F832E832E153F0510F4FF8252
:1018B000EE82113049F44E815F814131574220F070
:1018C000E0E1F7E2FF83EE83812E912CA12CB12C75
:1018D0008E819F81969587959C0140E050E02983F9
:1018E0003A834B835C834E815F812A01612C712C8A
:1018F000A501940160E072E18AE790E00E94872FE1
:1019000029813A814B815C81620F731F841F951F6F
:10191000A30192010E94D92F69017A01EE24FF24CC
:1019200000E00F5FC11434E0D306E104F10408F1D4
:1019300020E032E14AE750E0002E04C0559547957B
:10194000379527950A94D2F7C501B4010E94872FD5
:1019500029813A814B815C81620F731F841F951F1F
:10196000A30192010E94D92F69017A01EE24FF247C
:10197000D8CF1A3049F48E819F8105966AE070E0D5
:101980000E94A32F7F836E834E815F81483E83E058
:10199000580759F09101DA010E94FE2F28EE33E03A
:1019A00040E050E00E94D92F1901109272008091FE
:1019B000C100807F802B8093C100BB27AF2D9E2D5F
:1019C0008D2D8093BF00C092D1002D81203108F071
:1019D0002FE080E190E0821B910904C0F694E79427
:1019E000D794C7948A95D2F78D2D99278093BF00FD
:1019F000C092D200309293042092920489B38FEF68
:101A000089BB84E08093720027960FB6F894DEBFFE
:101A10000FBECDBFDF91CF911F910F91FF90EF903F
:101A2000DF90CF90BF90AF909F908F907F906F90FE
:101A30005F904F903F902F900895CF93DF93EB01ED
:101A40008F3F11F0411105C040E0BE0188EE93E0E8
:101A500043C0813130F050EF580F503618F05FE539
:101A600001C050E0852F6CE00E94972F682F74EF23
:101A7000760390011124250F311D2C30310540F4DF
:101A8000F901EE0FFF1FED54FE4F2081318102C09E
:101A900020E030E0873081F0082E02C0220F331F93
:101AA0000A94E2F7823028F0C90105966AE070E0F6
:101AB0000CC0C90190580CC0C90136E0880F991FAD
:101AC0003A95E1F7029665E070E00E94A32FCB0102
:101AD000403108F04FE0BE01DF91CF910C941D0C16
:101AE0004F925F926F927F928F929F92AF92BF922E
:101AF000CF92DF92EF92FF920F931F93CF93DF93DA
:101B000000D0CDB7DEB790900E0180918F0488236E
:101B100021F060918E04611117C077247394B0ECAA
:101B2000AB2EBDE5BB2E1AE0612E04E0802E80EDC9
:101B3000C82E87E0D82E94E0E92EF12C04EF11E0B6
:101B40002FE0422E512C15C070E040E088EE93E06B
:101B50000E941D0C10928E0429C18636D4F5813660
:101B600009F4A9C07CF58C3309F460C08E3381F48C
:101B700093940E94BE0B20919404309195042F5FA2
:101B80003F4F3093950420939404853631F752C02B
:101B9000813209F08BC080920E01D0920D01C0926B
:101BA0000C01F0920B01E0920A01109309010093DD
:101BB0000801509207014092060110928F04A4E0A0
:101BC0009A2ED7CF8336A1F10CF478C010E082E0D2
:101BD00077C08D36C1F194F4873691F174F18C366B
:101BE00009F064C00E94DB0BBC0190930B01809351
:101BF0000A0180910C0190910D0151C08237C9F109
:101C00004CF48F3609F052C00E94DB0B982E809363
:101C10000E01AFCF843781F1863709F047C00E94AB
:101C2000DB0B9093070180930601A3CF9A94A1CF79
:101C300010E020C010E084E043C010E085E040C028
:101C400010E087E03DC00E94BE0B8C3619F4109264
:101C50008F0404C070928F0410928E04209194041B
:101C6000309195042F5F3F4F309395042093940457
:101C700080CF11E080E024C00E94DB0BBC01C501D5
:101C80000E94A32F669EC001679E900D1124909321
:101C90000D0180930C0160910A0170910B010E946B
:101CA000A32F709309016093080163CF10929504EC
:101CB000109294047BC010E089E002C010E08BE039
:101CC000082F9CE0999E000D11240E94BE0B982FB6
:101CD000977F933261F420919404309195042F5FA3
:101CE0003F4F30939504209394040F5FEECF8D32D5
:101CF00071F420919404309195042F5F3F4F3093FD
:101D000095042093940401500E94BE0BF0CF609183
:101D10000801709109018153883050F4E0900C0162
:101D2000F0900D010E94DB0BBC01C7010E94A32FA4
:101D30007B01F694E79469837A830E94BE0B6981E4
:101D40007A818E3269F420919404309195042F5F4A
:101D50003F4F30939504209394046E0D7F1DE9CF7F
:101D600080918F04882339F09B0136952795209325
:101D70008E04621B710940910601112311F08FEF4F
:101D800001C0802F0F900F90DF91CF911F910F9185
:101D9000FF90EF90DF90CF90BF90AF909F908F908B
:101DA0007F906F905F904F900C941D0D0F900F904F
:101DB000DF91CF911F910F91FF90EF90DF90CF9027
:101DC000BF90AF909F908F907F906F905F904F905B
:101DD00008951F920F920FB60F9211242F933F93E5
:101DE0004F935F936F937F938F939F93AF93BF9323
:101DF000EF93FF9380919204909193049C01215062
:101E000031093093930420939204892B11F5109299
:101E1000720078948091C100807F84608093C100BB
:101E200083E08093BF0088EE8093D1001092BF00C2
:101E30001092D20081E080930F01809194049091E0
:101E40009504892B31F080919104811102C00E9488
:101E5000700DFF91EF91BF91AF919F918F917F9105
:101E60006F915F914F913F912F910F900FBE0F9007
:101E70001F901895FC01138212828FEC91E09183E0
:101E80008083148208951F93CF93DF93EC01162F64
:101E900064600E94BD0F1E83DF91CF911F91089552
:101EA000CF93DF93EC01E881F9810480F581E02D87
:101EB000099563E0CE010E94B90F8FE991E4019783
:101EC000F1F700C0000063E0CE010E94B90F87E582
:101ED00092E00197F1F700C0000063E0CE010E949C
:101EE000B90F62E0CE010E94B90F68E2CE010E94F4
:101EF000BD0F60E0CE010E94EF0FCE010E94C10F26
:101F000062E0CE010E94430F64E0CE01DF91CF91E9
:101F10000C94EF0F0F931F93CF93DF9300D01F927A
:101F2000CDB7DEB78C01DC0114968C91149781112A
:101F30000CC081E014968C93C8012B834A8369837B
:101F40000E94500F69814A812B81D801ED91FC914B
:101F50000680F781E02DC8010995B5ECBA95F1F737
:101F600000000F900F900F90DF91CF911F910F9174
:101F7000089521E040E00C948A0F20E040E00C94AA
:101F80008A0F61E00E94BD0F8FE39FE10197F1F797
:101F900000C000000895CF93DF9300D000D0CDB7EC
:101FA000DEB720E8298320EC2A8324E92B8324ED63
:101FB0002C83443008F043E0FE01E40FF11D218141
:101FC000260F622F0E94BD0F85EC8A95F1F7000065
:101FD0000F900F900F900F90DF91CF9108951F9366
:101FE000CF93DF93EC01162F68600E94BD0F1D8315
:101FF000DF91CF911F91089520E041E00C948A0F6A
:102000000E94FC0F81E090E00895CF92DF92EF9262
:10201000FF920F931F93CF93DF937C018A01EB0113
:102020006B01C40ED51ECC15DD0529F06991C701E1
:102030000E94FC0FF8CFC801DF91CF911F910F9143
:10204000FF90EF90DF90CF9008954FB141705CB159
:1020500056FB552750F9542780919E0460919F04A8
:102060002091980430919904852790E06427861B7D
:102070009109820F931F90939904809398049091F3
:102080009F0480919E04591729F0481719F081E0A8
:1020900080939D0450939F0440939E0408951F9243
:1020A0000F920FB60F9211242F933F934F935F938C
:1020B0006F938F939F932CB130E03595279535958D
:1020C0002795422F417083B190E054E09595879514
:1020D0005A95E1F782279327582F51708091A004D9
:1020E0006091A10420919A0430919B04852790E08F
:1020F0006427861B9109820F931F90939B04809302
:102100009A049091A1048091A004591729F04817CE
:1021100019F081E080939D045093A1044093A004A2
:102120009F918F916F915F914F913F912F910F9060
:102130000FBE0F901F90189524982C9A6A98729A47
:102140006E98769A8098889A81E08093680090E1F2
:1021500090936B008BBB41E050E065E270E184E05E
:102160000E94AB218CB182FB882780F9817080931B
:10217000A00493B18091A0049295917089278093D7
:10218000A10410929B0410929A0410929D048FB1A6
:10219000817080939E049CB180919E0496FB992748
:1021A00090F9892780939F041092990410929804C3
:1021B00010929C04089580919704811105C081E0DC
:1021C000809397040C949C1008950E94DB10F8945F
:1021D00080919A0490919B0410929B0410929A040F
:1021E000789408950E94DB10F8948091980490915F
:1021F00099041092990410929804789408959B0180
:1022000020573E4F2132334040F060377E4F1CF064
:1022100060E971E002C060E77EEFFC01718F608FC2
:1022200077FF05C071956195710981E001C080E07B
:1022300070938B0060938A009091A304891711F02A
:102240002A9A01C02A98229A08959B0120573E4F4E
:102250002132334040F060377E4F1CF060E971E07E
:1022600002C060E77EEFFC01738F628F77FF05C0CD
:1022700071956195710981E001C080E070938900DA
:10228000609388009091A204891711F0299A01C0E7
:102290002998219A08956093A30408956093A20455
:1022A00008955B98539A0895CF93DF93EC01C55B33
:1022B000DE4F60E070E0CE010E94FF1060E070E051
:1022C000CE01DF91CF910C94251160FF02C02B9AB3
:1022D00001C02B98239A61FF02C0289A01C0289858
:1022E000209A62FF02C0479A01C047983F9A63FF55
:1022F00002C05D9A01C05D98559A5B9A539A85E039
:102300008A95F1F700005B98539A85E08A95F1F77A
:1023100000000895CF92DF92EF92FF920F931F93E8
:10232000CF93DF9300D000D01F92CDB7DEB76C0102
:10233000162F0091E2001092E200F090E900109256
:10234000E900E090F0001092F00030E05A9931601E
:1023500052993260398330E02B9931602399326091
:102360003A8330E028993160209932603B8330E035
:10237000479931603F9932603C8330E05D9931602C
:10238000559932603D83442311F05A9A01C05A98FE
:10239000529A21110AC0612F70E084E0759567950B
:1023A0008A95E1F7C6010E946511612F6F70C60121
:1023B0000E9465112D8121FB0EF0559820FB0EF037
:1023C0005D980EF45D9A21FB0EF4559A3C8131FB29
:1023D0000EF03F9830FB0EF047980EF4479A31FB11
:1023E0000EF43F9A2B8121FB0EF0209820FB0EF07B
:1023F00028980EF4289A21FB0EF4209A3A8131FB9A
:102400000EF0239830FB0EF02B980EF42B9A31FB34
:102410000EF4239A298121FB0EF0529820FB0EF036
:102420005A980EF45A9A21FB0EF4529A1092E9002F
:10243000E092F000F092E9000093E2000F900F901C
:102440000F900F900F90DF91CF911F910F91FF9000
:10245000EF90DF90CF9008954F925F926F927F92AE
:102460008F929F92AF92BF92CF92DF92EF92FF92A4
:10247000CF93DF93EC010E94E5109DA78CA70E94EB
:10248000F2107C019FA78EA76CA57DA5882777FDFC
:102490008095982F0E94962D9B01AC010E945D2F84
:1024A000882311F01DA61CA6B701882777FD80950B
:1024B000982F0E94962D9B01AC010E945D2F8823CE
:1024C00011F01FA61EA64C845D846E847F848884D0
:1024D0009984AA84BB846CA57DA5882777FD809507
:1024E000982F0E94962DA30192010E94AF2EA50164
:1024F00094010E94FB2C6B017C016CAB7DAB8EAB1D
:102500009FAB6EA57FA5882777FD8095982F0E94A9
:10251000962DA30192010E94AF2EA50194010E9465
:10252000FB2C68AF79AF8AAF9BAFA70196010E94E1
:102530002E2C20E030E040E05FE30E94AF2E6CAF35
:102540007DAF8EAF9FAFDF91CF91FF90EF90DF9087
:10255000CF90BF90AF909F908F907F906F905F9043
:102560004F900895CF92DF92EF92FF920F931F93B7
:10257000CF93DF93EC01CB01BA019B01AC010E9428
:102580002E2C9B01AC01688179818A819B810E94FC
:10259000FB2C6B017C018E010C5A1F4F9B01AC017F
:1025A00060E070E080E89FE30E942D2C20E030E0A6
:1025B00040E251E40E94AF2EF80160837183828370
:1025C0009383C05BDF4F20E030E040E85FE3C7016A
:1025D000B6010E942E2C20E030E040E251E40E943F
:1025E000AF2E688379838A839B83DF91CF911F917C
:1025F0000F91FF90EF90DF90CF900895EF92FF92B0
:102600000F931F93CF93DF93EC017A018901FB01B4
:102610002081318142815381688D798D8A8D9B8D96
:102620000E942E2C688F798F8A8F9B8FF7012081D3
:102630003181428153816C8D7D8D8E8D9F8D0E9465
:102640002E2C6C8F7D8F8E8F9F8FF8012081318192
:10265000428153816C897D898E899F890E942E2CAD
:102660006C8B7D8B8E8B9F8BDF91CF911F910F9108
:10267000FF90EF9008952F923F924F925F926F924A
:102680007F928F929F92AF92BF92CF92DF92EF9202
:10269000FF920F931F93CF93DF9300D000D0CDB75D
:1026A000DEB78B019C0128513F4F3C832B83D9011E
:1026B0004D905D906D907C90FC01EC50FF4F4082FE
:1026C0005182628273821C01BCEE2B0E311CF1011F
:1026D00080809180A280B3803C9680829182A28289
:1026E000B3823496285F3F4F3A832983D9014D91B5
:1026F0005D916D917C914083518362837383B49724
:10270000C080D180E280F380C701B6010E94F82C1E
:10271000F80120813181428153810E94AF2E9B01BB
:10272000AC01C301B2010E942E2CAB81BC816D9320
:102730007D938D939C931397C701B6010E94122F2E
:10274000F80120813181428153810E94AF2E9B018B
:10275000AC01C501B4010E942E2CD1016D937D9373
:102760008D939C931397E981FA81C082D182E28292
:10277000F3820F900F900F900F90DF91CF911F91E8
:102780000F91FF90EF90DF90CF90BF90AF909F9010
:102790008F907F906F905F904F903F902F90089513
:1027A0000F931F93CF93DF93EC018C0108571F4FBA
:1027B00029E732E240E259E3F801608171818281C8
:1027C00093810E94AF2EF80160837183828393838B
:1027D0000C5F1F4F29E732E240E259E3F8016081C4
:1027E0007181828193810E94AF2EF8016083718391
:1027F00082839383C057DF4F29E732E240E259E3F7
:10280000688179818A819B810E94AF2E6883798358
:102810008A839B83DF91CF911F910F9108950F932E
:102820001F93CF93DF93EC018C0104551F4F21E4DC
:102830003AED4FE758E3F80160817181828193811D
:102840000E94AF2EF80160837183828393830C5FB3
:102850001F4F21E43AED4FE758E3F80160817181A1
:10286000828193810E94AF2EF801608371838283FD
:102870009383CC54DF4F21E43AED4FE758E368816E
:1028800079818A819B810E94AF2E688379838A83B4
:102890009B83DF91CF911F910F9108952F923F92CB
:1028A0004F925F926F927F928F929F92AF92BF9260
:1028B000CF92DF92EF92FF920F931F93CF93DF930C
:1028C00000D000D0CDB7DEB79C838B837C0120EF96
:1028D000E21A2EEFF20AC7010E944B07EB81FC813E
:1028E000EC5EFE4F60817181882777FD8095982F7F
:1028F0000E94962D4B015C01EB81FC81E05CFF4F57
:102900004080518062807380A30192010E94A42EB6
:102910000B811C8100571F4F87FF0AC0A301920142
:102920005058C501B4010E94F42C18160CF45CC078
:10293000CB80DC8038E8C30ED11CF7016081718147
:10294000882777FD8095982F0E94962DEB81FC813A
:10295000E056FF4F20813181428153810E942D2C0E
:10296000F6016083718382839383EB80FC80FCE8B3
:10297000EF0EF11CEB81FC81EE5EFE4F60817181F8
:10298000882777FD8095982F0E94962DEB81FC81FA
:10299000EC55FF4F20813181428153810E942D2CC3
:1029A000F7016083718382839383F8018081918131
:1029B000A281B381EB81FC81E456FF4F8083918338
:1029C000A283B383EB81FC81E855FF4F20813181E5
:1029D00042815381C501B4010E942D2CF80160830E
:1029E00071838283938305C0F80110821182128261
:1029F00013820B811C81035E1E4FC8010E94700A66
:102A0000F80160817181882777FD8095982F0E9459
:102A1000962D6B017C012B803C80F4E42F0E311C41
:102A2000F1014080518062807380E89477F8A301BF
:102A30009201C301B2010E942E2C9B01AC01C7017F
:102A4000B6010E94A42E2B813C8124553F4F590191
:102A500087FF10C020E030E040E050ECC301B2013D
:102A60000E94AF2E9B01AC01C701B6010E94F42C5D
:102A7000181694F0EB81FC81EC53FF4F20813181DB
:102A800042815381C701B6010E942D2CF50160835C
:102A900071838283938305C0F501108211821282B3
:102AA0001382EB81FC81E15EFE4F6081718188279A
:102AB00077FD8095982F0E94962D6B017C018B806D
:102AC0009C80F8E48F0E911CF4014080518062805C
:102AD0007380E89477F8A3019201C301B2010E94C8
:102AE0002E2C9B01AC01C701B6010E94A42E0B81C4
:102AF0001C8100551F4F87FF10C020E030E040E0F0
:102B000050ECC301B2010E94AF2E9B01AC01C70182
:102B1000B6010E94F42C181694F0EB81FC81E85366
:102B2000FF4F2081318142815381C701B6010E944C
:102B30002D2CF801608371838283938305C0F80193
:102B40001082118212821382EB81FC81EF5DFE4FB5
:102B500060817181882777FD8095982F0E94962D3E
:102B60006B017C01EB81FC81E45BFF4F4080518075
:102B700062807380A30192010E94A42E2B813C816C
:102B80002C543F4F3A83298387FF09C0A301920148
:102B90005058C701B6010E94F42C181694F0EB812E
:102BA000FC81E453FF4F2081318142815381C70171
:102BB000B6010E942D2CE981FA81608371838283A2
:102BC00093838B819C810E940F148B819C810E9436
:102BD000D01387E594E00E942A0667ED71E08091AA
:102BE0008804909189040E9489256FED71E080919D
:102BF0008804909189040E948925F50140815181C2
:102C00006281738122E030E0809188049091890490
:102C10000E942E276FED71E08091880490918904C5
:102C20000E948925F801408151816281738122E0EF
:102C300030E080918804909189040E942E276FEDE6
:102C400071E080918804909189040E948925E9812E
:102C5000FA81408151816281738122E030E080916C
:102C60008804909189040E942E276FED71E0809175
:102C70008804909189040E948925F1014081518145
:102C80006281738122E030E0809188049091890410
:102C90000E942E276FED71E0809188049091890445
:102CA0000E948925F401408151816281738122E073
:102CB00030E080918804909189040E942E2761EE73
:102CC00071E080918804909189040E94892565E0D3
:102CD00070E080E090E00F900F900F900F90DF91E8
:102CE000CF911F910F91FF90EF90DF90CF90BF9009
:102CF000AF909F908F907F906F905F904F903F909C
:102D00002F900C9437232F923F924F925F926F92A5
:102D10007F928F929F92AF92BF92CF92DF92EF926B
:102D2000FF920F931F93CF93DF93CDB7DEB72C970E
:102D30000FB6F894DEBF0FBECDBF8C01FC01E05C86
:102D4000FF4F108211821282138224EF31E03C8700
:102D50002B87805F9E4F9E838D83180198E8290EF4
:102D6000311CE45BFF4FFA83E98398012E5E3E4FEE
:102D700038872F83C80180579F4F9C838B83E857E8
:102D8000FF4FFA87E9878D819E810E944B07ED8175
:102D9000FE8160817181882777FD8095982F0E9440
:102DA000962DF10120813181428153810E942E2C88
:102DB0002B013C01F1016083718382839383EF8156
:102DC000F88580819181BC01882777FD8095982FB7
:102DD0000E94962DE981FA812081318142815381BF
:102DE0000E942E2C4B015C01E981FA816083718382
:102DF00082839383E985FA8580819181BC0188274C
:102E000077FD8095982F0E94962DEB81FC81208183
:102E10003181428153810E942E2C6B017C01EB8118
:102E2000FC8160837183828393832B853C85215051
:102E300031093C872B87232B09F0A5CF180130EAF5
:102E4000230E311C20E030E04AEF53E4C301B2010D
:102E50000E94FB2CF101608371838283938338018C
:102E6000F4EA6F0E711C20E030E04AEF53E4C50134
:102E7000B4010E94FB2CF3016083718382839383EE
:102E80005801F8EAAF0EB11C20E030E04AEF53E4FD
:102E9000C701B6010E94FB2CF50160837183828318
:102EA000938394EF292E3324339498012C5E3E4F64
:102EB0003C832B83B886AF82C801805C9F4F9A8782
:102EC00089878D819E810E944B07EB81FC81019057
:102ED000F081E02DFA83E983EF81F885808091808D
:102EE000A280B38029813A81B901882777FD809536
:102EF000982F0E94962DA50194010E942D2C6B0104
:102F00007C01E985FA854080518062807380A3014D
:102F100092010E94A42E18163CF4E985FA85C0821D
:102F2000D182E282F3821EC0A30192015058C701F0
:102F3000B6010E94F42C87FF15C069817A817195D2
:102F400061957109882777FD8095982F0E94962DAD
:102F5000A50194010E942D2CE985FA856083718377
:102F600082839383F1E02F1A310809F0AACF20E081
:102F700030E04AEF53E4E985FA856081718182810E
:102F800093810E94FB2CE985FA856083718382839B
:102F90009383F801E857FF4F108211821282138247
:102FA000349610821182128213823496108211821A
:102FB000128213822C960FB6F894DEBF0FBECDBFDF
:102FC000DF91CF911F910F91FF90EF90DF90CF9005
:102FD000BF90AF909F908F907F906F905F904F9039
:102FE0003F902F9008952F923F924F925F926F9251
:102FF0007F928F929F92AF92BF92CF92DF92EF9289
:10300000FF920F931F93CF93DF93CDB7DEB72C972B
:103010000FB6F894DEBF0FBECDBF1C0124EF31E028
:103020003C872B87835E9E4F9C838B838101045555
:103030001F4FF101E055FF4FFA83E9839101215EB3
:103040003E4F38872F83895691099E838D83EF5891
:10305000FF4FFA87E9878B819C810E94700AEB8180
:10306000FC8160817181882777FD8095982F0E946F
:10307000962DF80120813181428153810E942E2CAE
:103080002B013C01F8016083718382839383EF817C
:10309000F88580819181BC01882777FD8095982FE4
:1030A0000E94962DE981FA812081318142815381EC
:1030B0000E942E2C4B015C01E981FA8160837183AF
:1030C00082839383E985FA8580819181BC01882779
:1030D00077FD8095982F0E94962DED81FE812081AD
:1030E0003181428153810E942E2C6B017C01ED8144
:1030F000FE8160837183828393832B853C8521507D
:1031000031093C872B87232B09F0A5CFC1018C53B4
:103110009F4F98878F8320E030E04AEF53E4C3014C
:10312000B2010E94FB2CEF81F8856083718382835A
:103130009383810108531F4F20E030E04AEF53E4AE
:10314000C501B4010E94FB2CF80160837183828366
:1031500093830C5F1F4F20E030E04AEF53E4C70138
:10316000B6010E94FB2CF8016083718382839383F4
:1031700004EF11E09101205F3E4F3E832D83C1019A
:103180008C5B9F4F9A8789878D819E810E944B0718
:10319000EB81FC810190F081E02DFA83E983EF81DE
:1031A000F88580809180A280B38029813A81B9011D
:1031B000882777FD8095982F0E94962DA501940170
:1031C0000E942D2C6B017C01E985FA85408051809D
:1031D00062807380A30192010E94A42E18163CF411
:1031E000E985FA85C082D182E282F3821EC0A30102
:1031F00092015058C701B6010E94F42C87FF15C0F8
:1032000069817A81719561957109882777FD80952B
:10321000982F0E94962DA50194010E942D2CE985DE
:10322000FA8560837183828393830150110909F0C9
:10323000ABCF04EF11E09101215E3E4F3C832B8325
:10324000C10188539F4F9A838983F101E85BFF4F47
:10325000F887EF838D819E810E944B07EB81FC8173
:1032600020803180E981FA8180809180A280B380C2
:10327000B101882777FD8095982F0E94962DA50192
:1032800094010E942D2C6B017C01EF81F885408018
:10329000518062807380A30192010E94A42E1816AF
:1032A0003CF4EF81F885C082D182E282F3821DC0B6
:1032B000A30192015058C701B6010E94F42C87FF68
:1032C00014C06627772762197309882777FD8095D0
:1032D000982F0E94962DA50194010E942D2CEF811C
:1032E000F88560837183828393830150110909F00B
:1032F000B1CF2C960FB6F894DEBF0FBECDBFDF91D5
:10330000CF911F910F91FF90EF90DF90CF90BF90E2
:10331000AF909F908F907F906F905F904F903F9075
:103320002F9008950F931F93CF93DF93EC01FC012F
:10333000E559FE4F10821182128213823497108257
:103340001182128213821DA61CA61FA61EA61CA2F5
:103350001DA21EA21FA218A619A61AA61BA61C8E85
:103360001D8E1E8E1F8E188E198E1A8E1B8E1C8A15
:103370001D8A1E8A1F8AE759F10910821182128262
:103380001382349610821182128213823496108234
:103390001182128213823496108211821282138259
:1033A0003496108211821282138234961082118216
:1033B0001282138234961082118212821382349602
:1033C000108211821282138234961082118212822C
:1033D00013823496108211821282138234961082E4
:1033E0001182128213823496108211821282138209
:1033F000E457F109108211821282138234961082EE
:1034000011821282138234961082118212821382E8
:1034100034961082118212821382349610821182A5
:103420001282138234961082118212821382709655
:1034300010821182128213823496108211821282BB
:103440001382349610821182128213823496108273
:103450001182128213823496108211821282138298
:103460003496108211821282138219AA18AA1BAAFA
:103470001AAA87E993E00E945D0380911F068111DB
:1034800007C081E080931F068BE196E00E94500FF9
:1034900080919704811105C081E0809397040E9478
:1034A0009C108E01005F1E4F42E050E063E070E030
:1034B000C8010E94F507C8010E943307035F1F4F30
:1034C00042E050E064E070E0C8010E94AD0AC8012B
:1034D0000E940609CE010E948316CE010E94F317B6
:1034E0000E94E510DF91CF911F910F910C94F21083
:1034F0004F925F926F927F928F929F92AF92BF9204
:10350000CF92DF92EF92FF920F931F93CF93DF93AF
:1035100000D000D0CDB7DEB73C0109831A832B83DE
:103520003C83FC01E055FF4F80809180A280B380F6
:10353000C501B4019F772FE832EC45EF5CE30E94B0
:10354000A42E18161CF0812C912C5401F301E45583
:10355000FF4F4080518062807380C301B2019F772A
:103560002FE832EC45EF5CE30E94A42E18161CF005
:10357000412C512C3201A3019201C501B4010E94DA
:10358000A12C2B013C0128E431EE4AE75FE369817D
:103590007A818B819C810E94AF2E4B015C0120E0DF
:1035A00037ED43EA5CE3C301B2010E94AF2E9B01F9
:1035B000AC01C501B4010E942E2C2DEC3CEC4CEC6E
:1035C0005DE30E94AF2E4B015C0126E636E646E63F
:1035D0005FE3C701B6010E94AF2E9B01AC01C5019C
:1035E000B4010E942E2C0F900F900F900F90DF913E
:1035F000CF911F910F91FF90EF90DF90CF90BF90F0
:10360000AF909F908F907F906F905F904F900895B4
:103610002F923F924F925F926F927F928F929F92E2
:10362000AF92BF92CF92DF92EF92FF920F931F93D0
:10363000CF93DF93CDB7DEB72A970FB6F894DEBFEE
:103640000FBECDBF9A8789877E836D83F901F88687
:10365000EF8280539F4F9A838983DC014D905D9068
:103660006D907C90A985BA85A452BF4F4D925D9212
:103670006D927C92139729853A8520523F4F898518
:103680009A858C529F4F9C838B83DC01CD90DD907B
:10369000ED90FC90D901CD92DD92ED92FC921397C2
:1036A00029843A84B8ED2B0E311CD1018D909D9068
:1036B000AD90BC90A985BA85AC51BF4F8D929D92BB
:1036C000AD92BC921397DA012D913D914D915C9191
:1036D00060817181828193810E942D2CE985FA8518
:1036E00020813181428153810E94FB2C6B017C013E
:1036F000D8012D913D914D915C910E942E2C20E09E
:1037000030E040E05FE30E94AF2E609313067093B9
:1037100014068093150690931606ED81FE81208194
:10372000318142815381C301B2010E942E2CA981B3
:10373000BA816D937D938D939C931397EB81FC815C
:103740001082118212821382D8010D911D912D9148
:103750003C91EF81F8854081518162817381898537
:103760009A850E94781A9B01AC01C501B4010E94A0
:103770002E2C6B017C012BED3FE049EC50E40E94C4
:10378000A42E18164CF42BED3FE049EC50E4C70191
:10379000B6010E942D2C17C020E030E0A901C7011E
:1037A000B6010E94F42C87FD06C0F101C082D182CF
:1037B000E282F3820EC02BED3FE049EC50E4C701FA
:1037C000B6010E942E2CD1016D937D938D939C9315
:1037D00013972A960FB6F894DEBF0FBECDBFDF91C8
:1037E000CF911F910F91FF90EF90DF90CF90BF90FE
:1037F000AF909F908F907F906F905F904F903F9091
:103800002F900895AF92BF92CF92DF92EF92FF92E6
:103810000F931F93A114B10439F0AA94AB28A9F413
:10382000FC01EC59FF4F03C0FC01E85AFF4F4083F5
:10383000518362837383349600831183228333839D
:103840003496C082D182E282F3821F910F91FF9061
:10385000EF90DF90CF90BF90AF9008954F925F921E
:103860006F927F928F929F92AF92BF92CF92DF9290
:10387000EF92FF920F931F93CF93DF93EC018B0195
:103880007A01F90160817181828193810E94942D76
:103890004B015C0120E030E04AE754E4F70160812D
:1038A0007181828193810E94AF2EA50194010E94B3
:1038B000FB2C6B017C01FE01EC5FFE4F608371838A
:1038C0008283938320E030E04AE754E4F80160818A
:1038D0007181828193810E94AF2EA50194010E9483
:1038E000FB2C4B015C01FE01F395608371838283A5
:1038F00093838E01085F1E4F9B01AC01C701B60187
:103900000E942E2C20E030E040E05FE30E94AF2ECA
:10391000F80160837183828393830C5F1F4F28813A
:1039200039814A815B8160E070E080E89FE30E941A
:10393000FB2C2B013C01A5019401C701B6010E949B
:103940002D2C9B01AC01C301B2010E94AF2EF801E6
:103950006083718382839383DF91CF911F910F9155
:10396000FF90EF90DF90CF90BF90AF909F908F909F
:103970007F906F905F904F9008952F923F924F925B
:103980005F926F927F928F929F92AF92BF92CF92EF
:10399000DF92EF92FF920F931F93CF93DF93EC018F
:1039A0000E9408237E0129E9E21A2EEFF20A1E0185
:1039B000E5E92E1AEEEF3E0AF10180809180A280A7
:1039C000B380681979098A099B09F70160837183BB
:1039D0008283938361E070E080E090E00E9437236F
:1039E000CE010E942C125E01F8E3AF0EB11C6E01F5
:1039F00024E3C20ED11C9701A501B601CE010E949D
:103A00002E1C4E018CE3880E911C9401A501B60179
:103A1000CE010E94FE12CE010E944E14FE01E45619
:103A2000FF4FDE01A057BF4F2D913D914D915C910D
:103A300060817181828193810E942E2C2B013C0137
:103A4000F70160817181828193810E94942D9B0195
:103A5000AC01C301B2010E94AF2E20E030E04AEF7A
:103A600054E40E94FB2C6093170670931806809311
:103A7000190690931A0607E116E09501A601B40114
:103A8000CE010E94081B9501A601B401CE010E943F
:103A90003B1340E060E08BE196E00E94CB0F6AEEC2
:103AA00071E08BE196E00E94892540E062E08BE1C5
:103AB00096E00E94CB0FFE01E851FF4F40815181FB
:103AC0006281738122E030E08BE196E00E942E2734
:103AD00041E060E08BE196E00E94CB0F6DEE71E07B
:103AE0008BE196E00E94892541E062E08BE196E05F
:103AF0000E94CB0FC451DF4F488159816A817B817D
:103B000022E030E08BE196E00E942E270E940823FD
:103B1000F1016083718382839383DF91CF911F9141
:103B20000F91FF90EF90DF90CF90BF90AF909F905C
:103B30008F907F906F905F904F903F902F9008955F
:103B40002F923F924F925F926F927F928F929F92AD
:103B5000AF92BF92CF92DF92EF92FF920F931F939B
:103B6000CF93DF93EC014A015B018BE196E00E9469
:103B7000C10F8E0100511F4FF801408051806280BB
:103B8000738020E030E0A901C501B4010E94A42E99
:103B90001816B4F464E670E07E01F5EBEF1AFEEF60
:103BA000FF0AC7010E9425116CE97FEFC7010E943F
:103BB000FF10E894B7F81E018CEF280E311C8FC05F
:103BC00020E030E0A901C501B4010E94F42C87FF78
:103BD000F0CF6CE97FEF7E01E5EBEE1AEEEFFE0A27
:103BE000C7010E94251164E670E0E0CF61E070E05B
:103BF000CE010E94BD1CA3019201F8016081718178
:103C0000828193810E942D2C6B017C0120E030E0A9
:103C1000A9010E94A42E181624F0F7FAF094F7F8E0
:103C2000F09422E030E0B701A6018BE296E00E941A
:103C3000302787E594E00E942A0660EF71E08091CA
:103C40008804909189040E9489256FED71E080912C
:103C50008804909189040E948925F801408151814E
:103C60006281738122E030E0809188049091890420
:103C70000E942E276FED71E0809188049091890455
:103C80000E948925F101408151816281738122E086
:103C900030E080918804909189040E942E276FED76
:103CA00071E080918804909189040E94892522E026
:103CB00030E0B701A60180918804909189040E94A8
:103CC0002E2761EE71E080918804909189040E9412
:103CD000892565E070E080E090E00E943723A30131
:103CE0009201F80160817181828193810E942D2C63
:103CF0006B017C01E894F7F82DEC3CEC4CE45DE3BF
:103D0000C501B4010E942D2C9B01AC01C701B60175
:103D10000E94F42C87FD6ACF2DEC3CEC4CE45DE373
:103D2000C501B4010E942E2C9B01AC01C701B60154
:103D30000E94A42E18160CF459CFCE010E945411E3
:103D400060E47BE48CE490E0DF91CF911F910F91D0
:103D5000FF90EF90DF90CF90BF90AF909F908F90AB
:103D60007F906F905F904F903F902F900C943723EF
:103D70002F923F924F925F926F927F928F929F927B
:103D8000AF92BF92CF92DF92EF92FF920F931F9369
:103D9000CF93DF93CDB7DEB76A970FB6F894DEBF47
:103DA0000FBECDBF4C01C982DA82EB82FC820D834B
:103DB0001E832F83388789819A81AB81BC81898B4F
:103DC0009A8BAB8BBC8B8D819E81AF81B8858D8B9F
:103DD0009E8BAF8BB88FA114B10409F0A7C18401E9
:103DE000055B1E4F6BE470E0C8010E94FF106BE49E
:103DF00070E0C8010E94251161E070E0C4010E94DA
:103E0000BD1C540198EEA90EB11CD5012D913D9118
:103E10004D915C9169897A898B899C890E942D2CAE
:103E20006D877E878F87988B1401BCEE2B0E311C1B
:103E3000F10120813181428153816D897E898F8991
:103E4000988D0E942D2C2B013C012D853E854F85A0
:103E50005889CA01B9010E94AF2E9B01AC0160E0F4
:103E600070E0CB010E942E2C6B017C01A30192011A
:103E7000C301B2010E94AF2E9B01AC01C701B60184
:103E80000E942E2C0E941C2F6B017C012D853E85EB
:103E90004F855889C301B2010E94A12CAB01BC011E
:103EA000C4010E94A01D80E090E0A6E9B2E4F40104
:103EB00080A791A7A2A7B3A784A395A3A6A3B7A3FE
:103EC000C40180579F4F9A8F898F20E030E040E2F5
:103ED00050E4C701B6010E94A42E87FD0CC1D40195
:103EE00098966D917D918D919C919B970E94632DE9
:103EF000C8010E94FF10F40160A571A582A593A5D9
:103F00000E94632DC8010E94251161E070E0C40188
:103F10000E94BD1CD4019C962D913C919D979E962C
:103F20008D919C919F97281739071CF520E030E070
:103F300040E85FE398966D917D918D919C919B9760
:103F40000E942E2CF40160A771A782A793A720E0FE
:103F500030E040E85FE364A175A186A197A10E94CB
:103F60002D2CD40194966D937D938D939C9397976C
:103F700026C0821793071CF520E030E040E85FE39D
:103F8000F40164A175A186A197A10E942E2CD401F1
:103F900094966D937D938D939C93979720E030E05A
:103FA00040E85FE398966D917D918D919C919B97F0
:103FB0000E942D2CF40160A771A782A793A7D501B9
:103FC0002D913D914D915C9169897A898B899C896C
:103FD0000E942D2C6D877E878F87988BF101208121
:103FE0003181428153816D897E898F89988D0E94AC
:103FF0002D2C2B013C012D853E854F855889CA010A
:10400000B9010E94AF2E9B01AC01C701B6010E940D
:104010002E2C6B017C01A3019201C301B2010E940D
:10402000AF2E9B01AC01C701B6010E942E2C0E944D
:104030001C2F6B017C01A98DBA8D4D905D906D9008
:104040007C9020E030E0A901C301B2010E94A42EBF
:10405000181624F520E030E040E85FE3F40160A5A5
:1040600071A582A593A50E942E2CD40198966D93DC
:104070007D938D939C939B9720E030E040E85FE335
:1040800094966D917D918D919C9197970E942D2C86
:10409000F40164A375A386A397A317CF20E030E0B3
:1040A000A901C301B2010E94F42C87FF0ECF20E0CA
:1040B00030E040E85FE3D40198966D917D918D9159
:1040C0009C919B970E942D2CF40160A771A782A759
:1040D00093A720E030E040E85FE364A175A186A1EA
:1040E00097A10E942E2CD40194966D937D938D936D
:1040F0009C939797EACEC4016A960FB6F894DEBFF8
:104100000FBECDBFDF91CF911F910F91FF90EF9028
:10411000DF90CF90BF90AF909F908F907F906F90E7
:104120005F904F903F902F900C945411AA94AB281D
:1041300009F08CC08BE196E00E94C10F40E050E096
:1041400060E371E4C4010E94B212F401EC5AFF4F23
:1041500020813181428153813497608171818281D4
:1041600093810E94FB2C00E010E026E932E4F40188
:1041700004A315A326A337A3A90198010E94AF2E7B
:10418000D40198966D937D938D939C939B978BE12F
:1041900096E00E94C10F840100511F4F5401B5EBFE
:1041A000AB1ABEEFBB0AD801CD90DD90ED90FC902C
:1041B00021E436E74FE450E4C701B6010E94A42E83
:1041C00087FD39C026E636E646EA5FE3F40160A5DE
:1041D00071A582A593A50E94AF2E0E94632DC501F3
:1041E0000E94FF1026E636E646E65FE3D401949689
:1041F0006D917D918D919C9197970E94AF2E0E9419
:10420000632DC5010E94251161E070E0C4010E9488
:10421000BD1C40E060E08BE196E00E94CB0FF8010E
:10422000408151816281738122E030E08BE196E030
:104230000E942E27B8CF2BED3FE049E450E4C701A0
:10424000B6010E94F42C18160CF0BCCF6A960FB67B
:10425000F894DEBF0FBECDBFDF91CF911F910F91BC
:10426000FF90EF90DF90CF90BF90AF909F908F9096
:104270007F906F905F904F903F902F9008958BE1CB
:1042800096E00E943A0F8CEF91E090931C06809389
:104290001B0689EC96E7A6E5B0E48093A40490930E
:1042A000A504A093A604B093A70480E695EEA0E32E
:1042B000BFE38093A8049093A904A093AA04B093A9
:1042C000AB0484E19EE6A3E6B4E48093AC0490934F
:1042D000AD04A093AE04B093AF048DE09FEEAAE8C6
:1042E000B0E48093B0049093B104A093B204B0936F
:1042F000B30480E090E0A0E8BFE38093B40490931F
:10430000B504A093B604B093B70484EB95E00E9483
:10431000010781EC95E00E9489082998219A2D983F
:10432000259A2A98229A2E98269A80EA80938000CD
:1043300081E18093810080E991E0909387008093F0
:104340008600109289001092880010928B001092C3
:104350008A0008950895853008F04CC0E82FF0E0F9
:10436000EE0FFF1FE05FFE4F718360838230E1F04C
:1043700018F4813069F004C0833019F1843071F190
:10438000809169008C7F842B80936900E89A08955E
:1043900080916900440F551F440F551F837F842B64
:1043A00080936900E99A08958091690034E0440F90
:1043B000551F3A95E1F78F7C842B80936900EA9A28
:1043C00008958091690026E0440F551F2A95E1F772
:1043D0008F73842B80936900EB9A089580916A0013
:1043E00094E0440F551F9A95E1F78F7C842B8093BE
:1043F0006A00EE9A08951F920F920FB60F92112441
:104400002F933F934F935F936F937F938F939F93DC
:10441000AF93BF93EF93FF93E0911001F0911101DF
:104420000995FF91EF91BF91AF919F918F917F91EE
:104430006F915F914F913F912F910F900FBE0F9011
:104440001F9018951F920F920FB60F9211242F9361
:104450003F934F935F936F937F938F939F93AF930C
:10446000BF93EF93FF93E0911201F091130109952F
:10447000FF91EF91BF91AF919F918F917F916F913C
:104480005F914F913F912F910F900FBE0F901F9012
:1044900018951F920F920FB60F9211242F933F93EE
:1044A0004F935F936F937F938F939F93AF93BF933C
:1044B000EF93FF93E0911401F09115010995FF919D
:1044C000EF91BF91AF919F918F917F916F915F918C
:1044D0004F913F912F910F900FBE0F901F90189505
:1044E0001F920F920FB60F9211242F933F934F9369
:1044F0005F936F937F938F939F93AF93BF93EF934C
:10450000FF93E0911601F09117010995FF91EF914A
:10451000BF91AF919F918F917F916F915F914F91DB
:104520003F912F910F900FBE0F901F9018951F92E3
:104530000F920FB60F9211242F933F934F935F93D7
:104540006F937F938F939F93AF93BF93EF93FF935B
:10455000E0911801F09119010995FF91EF91BF9138
:10456000AF919F918F917F916F915F914F913F910B
:104570002F910F900FBE0F901F9018951F920F92C2
:104580000FB60F9211242F933F938F939F93AF9366
:10459000BF938091230690912406A0912506B091A7
:1045A00026063091220623E0230F2D3720F40196B2
:1045B000A11DB11D05C026E8230F0296A11DB11D46
:1045C000209322068093230690932406A093250629
:1045D000B09326068091270690912806A09129067F
:1045E000B0912A060196A11DB11D809327069093D4
:1045F0002806A0932906B0932A06BF91AF919F91F8
:104600008F913F912F910F900FBE0F901F90189593
:104610002FB7F894609123067091240680912506A7
:10462000909126062FBF08953FB7F89480912706F2
:1046300090912806A0912906B0912A0626B5A89B3C
:1046400005C02F3F19F00196A11DB11D3FBF662780
:10465000782F892F9A2F620F711D811D911D42E0C5
:10466000660F771F881F991F4A95D1F708958F927B
:104670009F92AF92BF92CF92DF92EF92FF926B0127
:104680007C010E9414234B015C01C114D104E1049C
:10469000F104F1F00E94912B0E941423681979090A
:1046A0008A099B09683E73408105910570F321E0FA
:1046B000C21AD108E108F10888EE880E83E0981E3E
:1046C000A11CB11CC114D104E104F10429F7DDCF10
:1046D000FF90EF90DF90CF90BF90AF909F908F9022
:1046E0000895789484B5826084BD84B5816084BD6A
:1046F00085B5826085BD85B5816085BDEEE6F0E05B
:10470000808181608083E1E8F0E0108280818260B6
:104710008083808181608083E0E8F0E08081816037
:104720008083E1E9F0E08081826080838081816024
:104730008083E0E9F0E0808181608083E1ECF0E05B
:1047400080818460808380818260808380818160B9
:104750008083E3ECF0E0808181608083E0ECF0E036
:10476000808182608083E2ECF0E0808181608083E0
:10477000EAE7F0E0808184608083808182608083CA
:10478000808181608083808180688083089590E04B
:10479000FC013197EF30F105B0F5EA5AFF4F0C9468
:1047A000F82F809180008F7703C0809180008F7DEB
:1047B00080938000089580918000877FF9CF84B531
:1047C0008F7702C084B58F7D84BD0895809190005D
:1047D0008F7707C0809190008F7D03C080919000FB
:1047E000877F8093900008958091C0008F7703C0E9
:1047F0008091C0008F7D8093C00008958091C20099
:10480000877F8093C20008950F931F93CF93DF9308
:104810001F92CDB7DEB7282F30E0F901EA5EFE4FD8
:104820008491F901EB5CFE4F1491F901EC5AFE4FB3
:1048300004910023C9F0882321F069830E94C723D3
:104840006981E02FF0E0EE0FFF1FED58FE4FA591BC
:10485000B4919FB7F8948C91611103C01095812396
:1048600001C0812B8C939FBF0F90DF91CF911F913F
:104870000F9108950E941830CF93DF931F92CDB708
:10488000DEB76983DC01ED91FC910280F381E02DBC
:1048900041E050E0BE016F5F7F4F09950F90DF91BF
:1048A000CF910895CF93DF93EC018C859D8597FF81
:1048B00005C082E00E9453289D878C878C859D854A
:1048C000DF91CF91089583E00C94E72AFC01848561
:1048D000958597FD06C082E00E94FB2790E0019637
:1048E000089582E00E94FB2790E00895FC018485F2
:1048F000958597FD05C02FEF3FEF358724870895F5
:1049000082E00C945328CF93DF93EC018091250132
:10491000882331F083E00E9484281816190634F0A9
:1049200081E090E09B838A8380E090E0DF91CF91EB
:104930000895FC0120812E5F208342E450E061E86D
:1049400071E080E80C941F29FC0121818081813A6B
:1049500059F4213209F04BC047E050E06EE171E0BC
:1049600080E00E941F295EC0813209F040C02332DE
:1049700089F4838190E0982F88273281832BA0E0EF
:10498000B0E080931A0190931B01A0931C01B09397
:104990001D010FC0203239F467E070E08EE191E034
:1049A0000E94502909C0223221F48281809325017E
:1049B00003C02D7F2032B1F580917B06811103C0A9
:1049C000E0E0F8E002C0EEEFFAE080911E01909185
:1049D0001F01A0912001B0912101803B9440A105CD
:1049E000B10511F58091250180FF03C01DC080E055
:1049F0000895EE3F2AE0F20731F080819181909393
:104A0000FF0A8093FE0A87E797E7918380832BE074
:104A100088E190E00FB6F894A895809360000FBEEF
:104A20002093600081E0089588E10FB6F8948093A8
:104A30006000109260000FBEA895EE3F8AE0F80774
:104A400039F08091FE0A9091FF0A91838083EACF2A
:104A50001092FF0A1092FE0AE5CF2FEF3FEFFC0104
:104A6000358724870895CF93C09125016AE070E0CF
:104A700080E090E00E94372381E0C11101C080E016
:104A8000CF91089510922E0610922D0688EE93E095
:104A9000A0E0B0E080932F0690933006A0933106FB
:104AA000B093320688E092E090932C0680932B0618
:104AB0008FEF9FEF909338068093370608950895FF
:104AC0000E9471230E945F258CE796E00E94742B60
:104AD0000E943701C0E0D0E00E94CD012097E1F3B1
:104AE0000E940000F9CF6115710581F0DB010D9086
:104AF0000020E9F7AD0141505109461B570BDC017D
:104B0000ED91FC910280F381E02D099480E090E02A
:104B100008950C947325DC01ED91FC910190F081D6
:104B2000E02D099468E671E00C9473258F929F92B2
:104B3000AF92BF92DF92EF92FF920F931F93CF93AA
:104B4000DF93CDB7DEB7A1970FB6F894DEBF0FBEE7
:104B5000CDBF7C01F42FD52ECB0119A2223008F451
:104B60002AE08E010F5D1F4F822E912CA12CB12CBB
:104B70006F2F7D2DA50194010E94B72FF22FD32E08
:104B8000CA01015011096A3014F4E0E301C0E7E3FF
:104B9000E60FD801EC93232B242B252B49F7B801E2
:104BA000C7010E947325A1960FB6F894DEBF0FBE11
:104BB000CDBFDF91CF911F910F91FF90EF90DF90CC
:104BC000BF90AF909F908F900895CF92DF92EF9219
:104BD000FF920F931F93CF93DF93EC016A017B0148
:104BE0002115310579F4E881F9810190F081E02DFA
:104BF000642FDF91CF911F910F91FF90EF90DF9085
:104C0000CF9009942A303105E9F477FF1AC06DE29C
:104C10000E948B258C0144275527BA014C195D0948
:104C20006E097F092AE0CE010E949625800F911F10
:104C3000DF91CF911F910F91FF90EF90DF90CF9078
:104C400008952AE0B701A601CE01DF91CF911F910F
:104C50000F91FF90EF90DF90CF900C949625211547
:104C6000310541F4DC01ED91FC910190F081E02DE2
:104C7000642F09940C9496259A01462F50E060E029
:104C800070E00C942F264F925F926F927F928F92DA
:104C90009F92AF92BF92CF92DF92EF92FF920F93CB
:104CA0001F93CF93DF93EC016A017B01B22E9A012F
:104CB000AB01C701B6010E945D2F882319F064E1A2
:104CC00072E027C026013701E89477F82FEF3FEF15
:104CD0004FE75FE7C301B2010E945D2F81110DC054
:104CE0002FEF3FEF4FE75FE7C301B2010E94F42CC3
:104CF00018161CF468E172E00CC02FEF3FEF4FE78D
:104D00005FE4C701B6010E94A42E1816ACF46CE152
:104D100072E0CE01DF91CF911F910F91FF90EF9044
:104D2000DF90CF90BF90AF909F908F907F906F90CB
:104D30005F904F900C9473252FEF3FEF4FE75FECA0
:104D4000C701B6010E94F42C87FDE1CF20E030E0DE
:104D5000A901C701B6010E94F42C87FF0AC06DE2C9
:104D6000CE010E948B258C01F7FAF094F7F8F094AD
:104D700002C000E010E0A12C60E070E080E09FE362
:104D8000AB1441F020E030E040E251E40E94FB2C03
:104D9000A394F6CF9B01AC01C701B6010E942E2C53
:104DA0006B017C010E94682D2B013C010E94942D17
:104DB0009B01AC01C701B6010E942D2C6B017C0147
:104DC0002AE0B301A201CE010E949625080F191F07
:104DD000BB2039F060E272E0CE010E947325080F1B
:104DE000191F7B2C772041F120E030E040E251E4B4
:104DF000C701B6010E94AF2E6B017C010E94632D9A
:104E00004B01AA2497FCA094BA2C2AE030E0B5010B
:104E1000A401CE010E94E525080F191FC501B401A8
:104E20000E94962D9B01AC01C701B6010E942D2C5A
:104E30006B017C017A94D6CFC801DF91CF911F918D
:104E40000F91FF90EF90DF90CF90BF90AF909F9029
:104E50008F907F906F905F904F9008950C944326B1
:104E60000F931F93CF93DF93EC010E9443268C0195
:104E7000CE010E949225800F911FDF91CF911F914B
:104E80000F910895615030F02091F100FC012083D2
:104E90000196F8CF289884E680938506089540917E
:104EA00080065091810620917E0630917F06421740
:104EB0005307B4F49091E8009570E1F39091E80005
:104EC00092FD19C08093F100809180069091810637
:104ED00001968F739927892B19F48EEF8093E80040
:104EE000809180069091810601969093810680932F
:104EF000800681E0089580E00895CF92DF92EF92DE
:104F0000FF920F931F93CF93DF931F92CDB7DEB71E
:104F1000082F162FF42E862F880F8E5F99830E94FC
:104F20004F2783E00E944F27E02EC02E9981D92E73
:104F30008C2D8E19811798F4F601F7FE02C084912A
:104F400001C080810E944F27082F80E00E944F27D8
:104F50008023FFEFCF1ADF0A8111EACF01C081E081
:104F60000F90DF91CF911F910F91FF90EF90DF9005
:104F7000CF9008958091D70081608093D70080EA18
:104F80008093D80089B5806189BD89B5826089BD6B
:104F900009B400FEFDCF61E070E080E090E00E9487
:104FA00037238091D8008F7C80618093D8008091D6
:104FB000E000807F8093E0000895CF93DF931F92FD
:104FC000CDB7DEB71982CE0101960E9499240E94C6
:104FD000192CBE016F5F7F4F0E94922B89810F9029
:104FE000DF91CF9108952FB7FC012083F89467706B
:104FF0006093E9000895CF93DF931F92CDB7DEB79A
:10500000682FCE0101960E94F3278091F2009981CA
:105010009FBF0F90DF91CF910895FF920F931F9341
:10502000CF93DF9300D0CDB7DEB7F62E8A019091F3
:105030008406992311F057FF03C08FEF9FEF2BC019
:10504000682FCE0101967A830E94F3278091F200A7
:1050500090E0A8017A81801791070CF4AC01EF2D44
:10506000F72FF40E84E6FE1639F028988093850613
:105070009091F1009193F7CF4115510521F0809166
:10508000F200882321F089818FBFCA0104C08BE61A
:105090008093E800F8CF0F900F90DF91CF911F9190
:1050A0000F91FF900895CF93DF931F92CDB7DEB796
:1050B00041E050E0BE016F5F7F4F0E940D280197D5
:1050C00019F4898190E002C08FEF9FEF0F90DF917C
:1050D000CF910895CF93DF931F92CDB7DEB7682F9E
:1050E000CE0101960E94F3279091E800892F8072EB
:1050F00095FF04C09091F20080E4891B99819FBFC5
:105100000F90DF91CF9108956F927F928F929F922F
:10511000AF92BF92CF92DF92EF92FF920F931F93C5
:10512000CF93DF931F92CDB7DEB7782E7B01C42ECD
:10513000B52E80918406882369F0042F152F8AEFFD
:10514000D82E872D8072982E9AE3A92E872D8074F1
:10515000882E11C08FEF9FEF57C0872D0E946A28BD
:10516000682E81110CC0DA94A9F361E070E080E050
:1051700090E00E9437230115110579F73BC0282FD5
:1051800030E0021713070CF4602E672DCE01019654
:105190000E94F3278091E80085FF29C0262D30E08A
:1051A000021B130B992039F06A948FEF6816B1F047
:1051B0001092F100F9CFF701862D77FE07C08150DC
:1051C00058F094919093F1003196F9CF815020F0EE
:1051D00091919093F100FACFE20EF31E8091E800D6
:1051E00085FF0FC00115110511F481100AC08981D6
:1051F0008FBFC1CF5D9884E6809386068C2D9B2D52
:1052000003C0A092E800F3CF0F90DF91CF911F91E0
:105210000F91FF90EF90DF90CF90BF90AF909F9055
:105220008F907F906F9008951092E9001092810600
:105230001092800690937F0680937E060895CF9209
:10524000DF92FF920F931F93CF93DF9300D0CDB7E0
:10525000DEB7F82E8A016B0101151105B1F0F601D8
:10526000F7FE02C0849101C0808149835A830E9465
:105270004F2701501109FFEFCF1ADF0A49815A81E8
:105280008111EACF8FEF9FEF01C0CA010F900F90FD
:10529000DF91CF911F910F91FF90DF90CF900895F4
:1052A000BF92CF92DF92EF92FF920F931F93CF9313
:1052B000DF936C018B01EB013BEFB32E2097C1F024
:1052C0007E01C134D1051CF020E4E22EF12C809146
:1052D000E80082FFFCCFC8018C1B9D0B6E2D8C0D4E
:1052E0009D1D0E944227B092E800CE19DF09E6CF4B
:1052F000C801DF91CF911F910F91FF90EF90DF9048
:10530000CF90BF9008951F920F920FB60F92112465
:10531000DF92EF92FF920F931F932F933F934F9340
:105320005F936F937F938F939F93AF93BF93EF930D
:10533000FF93CF93DF93CDB7DEB76C97DEBFCDBFC2
:105340001092E9008091E80083FF23C168E0CE015C
:1053500045960E94422782EF8093E8003D8937FFFF
:1053600005C08091E80080FFFCCF03C08EEF8093E2
:10537000E800832F807609F0F0C02E894F89D88C01
:1053800021110CC0303829F4809183068093F100FC
:1053900002C01092F1001092F100F4C0842F90E04E
:1053A0009D29213049F43111EDC0019709F0EAC07F
:1053B000809183068D7F0AC0233059F43111E2C0F9
:1053C000019709F0DFC08091830682608093830695
:1053D000D9C0253041F48091E80080FFFCCF4068BF
:1053E0004093E300CFC0263009F08DC0EB8CFC8CDD
:1053F00022E0D2122CC080E090E00E9414290E948A
:10540000DD2799E08E010F5F1F4FF801292F1192C0
:105410002A95E9F79983DA8291E09E8390EA98874A
:105420009AEF99872091800630918106275F3F4F40
:105430003C832B838D83C7010E94142949E050E0EF
:10544000B80180E00E941F290E94DD279BC0C70190
:105450000E9414290E94192CBE016B5E7F4F0E948E
:10546000BB2B009719F00CF08DC090C081E0D812D2
:105470000EC08B8D9C8D089719F481E080937D067A
:1054800080917D0681112FC065ED71E031C0E3E0B0
:10549000DE127CC08F89882349F1823029F440E8EC
:1054A00062E18AEF91E01CC0813029F440E862E1BA
:1054B00087EE91E015C0833009F068C00E94192C76
:1054C0008E010F5F1F4FB8010E94DA2BF801019087
:1054D0000020E9F73197E01BF10B40E06E2FC80187
:1054E0000E947D274DC063EC71E002C06DE072E068
:1054F0006115710509F44AC0FB01449150E080E850
:105500000E941F293FC0273009F440C0283021F4F1
:1055100081E08093F10036C02930A1F53370B1F5F8
:10552000E7E2F1E081E021E036E39081992361F048
:105530008093E9002093EB0091919093EC003093DD
:10554000ED008F5F873089F78EE78093EA00109235
:10555000EA008F898093840615C08B8D9C8D0E94F4
:105560001429898D811105C0CE0145960E94A4247D
:1055700007C00E94192CBE016B5E7F4F0E94F92B61
:10558000882321F08EEF8093E80003C081E28093AE
:10559000EB006C960FB6F894DEBF0FBECDBFDF9167
:1055A000CF91FF91EF91BF91AF919F918F917F919B
:1055B0006F915F914F913F912F911F910F91FF90AC
:1055C000EF90DF900F900FBE0F901F901895809373
:1055D000E9008091F200882319F08AE38093E800C3
:1055E00008951F920F920FB60F9211242F933F939D
:1055F0004F935F936F937F938F939F93AF93BF93DB
:10560000CF93EF93FF93C091E1008091E100837FFE
:105610008093E1008093E100C3FF0FC01092E90086
:1056200081E08093EB001092EC0082E38093ED0028
:105630001092840688E08093F000C2FF19C083E0D6
:105640000E94E72A80918606882339F08091860699
:10565000815080938606882389F18091850688236E
:1056600039F080918506815080938506882341F129
:10567000C4FF10C08091E2008E7E81608093E200C2
:105680008091E1008F7E8093E100809182068E7E82
:10569000806111C0C0FF16C08091E2008E7E8061E3
:1056A0008093E2008091E1008E7E8093E100809102
:1056B00082068E7E81608093820604C05D9ACDCF83
:1056C000289AD6CFFF91EF91CF91BF91AF919F9143
:1056D0008F917F916F915F914F913F912F910F909B
:1056E0000FBE0F901F90189510928406109283069B
:1056F000109282060E94BA278091E1008E7E8093EC
:10570000E1008DE08093E200559A209AEEEFFFE7EA
:10571000859194918B3F9C4D19F481E080937B0699
:1057200008950895EF92FF920F931F93CF93DF9305
:105730007B01FC01C281D38100E010E0209781F061
:10574000E881F9810280F381E02DB701CE0109954E
:1057500097FD08C0080F191F0884D985C02DEECF0A
:10576000C80102C08FEF9FEFDF91CF911F910F9182
:10577000FF90EF9008950F931F93CF93DF938B01CA
:10578000FC01C281D381209771F0E881F981048006
:10579000F581E02DB801CE010995009731F4088418
:1057A000D985C02DF0CF80E090E0DF91CF911F919F
:1057B0000F9108950F931F93CF93DF938B01FC01FB
:1057C000C281D381209771F0E881F9810680F78149
:1057D000E02DB801CE010995080F111D0884D98567
:1057E000C02DF0CFF8011082DF91CF911F910F9162
:1057F00008950F931F93CF93DF938B01FC01C28118
:10580000D381209771F0E881F9810190F081E02D3A
:10581000B801CE010995811106C00884D985C02D33
:10582000F0CF80E001C081E0DF91CF911F910F9117
:10583000089580918B0681110DC082E080938706C8
:1058400084E08093880610928A061092890681E08F
:1058500080938B0687E896E008955058BB27AA27C7
:105860000ED027C2F0D130F0F5D120F031F49F3FB7
:1058700011F41EF4C0C10EF4E095E7FBB6C1E92FA8
:105880003AD280F3BA17620773078407950718F0B6
:1058900071F49EF552C20EF4E0950B2EBA2FA02D96
:1058A0000B01B90190010C01CA01A0011124FF27CD
:1058B000591B99F0593F50F4503E68F11A16F040C8
:1058C000A22F232F342F4427585FF3CF46953795C7
:1058D0002795A795F0405395C9F77EF41F16BA0B8C
:1058E000620B730B840BBAF09150A1F0FF0FBB1F3A
:1058F000661F771F881FC2F70EC0BA0F621F731F83
:10590000841F48F4879577956795B795F7959E3FDF
:1059100008F0B3CF9395880F08F09927EE0F97956D
:105920008795089590D158F080E891E009F49EEFB2
:1059300091D128F040E851E059F45EEF09C05BC115
:10594000FCC1E92FE078D7D168F3092E052AC1F30D
:10595000261737074807590738F00E2E07F8E025B5
:1059600069F0E025E0640AC0EF6307F8009407FAE5
:10597000DB01B9019D01DC01CA01AD01EF934AD001
:1059800098D10AD05F91552331F02BED3FE049E4E7
:1059900050FD49EC63CF0895DF93DD27B92FBF7722
:1059A00040E85FE31616170648075B0710F4D92F87
:1059B000CFD19F938F937F936F937CD2EAECF0E0EB
:1059C0001DD177D12F913F914F915F91D4D1DD239C
:1059D00049F09058A2EA2AED3FE049EC5FE3D07825
:1059E0005D274DDFDF9165C1DCD008F481E00895CB
:1059F00039D1E3956FC10CD05CC12CD140F023D1DB
:105A000030F021F45F3F19F0F0C0511197C1F3C09D
:105A100072D198F39923C9F35523B1F3951B550B14
:105A2000BB27AA2762177307840738F09F5F5F4F71
:105A3000220F331F441FAA1FA9F333D00E2E3AF0B2
:105A4000E0E830D091505040E695001CCAF729D0CC
:105A5000FE2F27D0660F771F881FBB1F261737071B
:105A60004807AB07B0E809F0BB0B802DBF01FF274B
:105A700093585F4F2AF09E3F510568F0B6C05EC153
:105A80005F3FECF3983EDCF3869577956795B79585
:105A9000F7959F5FC9F7880F911D9695879597F9A0
:105AA0000895E1E0660F771F881FBB1F6217730719
:105AB0008407BA0720F0621B730B840BBA0BEE1F2E
:105AC00088F7E095089504D06894B11137C108951E
:105AD0001AD188F09F5790F0B92F9927B751A0F0AD
