:100000000C9413010C94E21B0C94091C0C94301CEE
:100010000C94571C0C943B010C943B010C947E1CDB
:100020000C943B010C94B90F0C94F3240C9485238D
:100030000C943B010C943B010C943B010C943B0150
:100040000C943B010C943B010C943B010C943B0140
:100050000C943B010C943B010C943B010C94A51CAB
:100060000C943B010C943B010C943B010C943B0120
:100070000C943B010C943B010C943B010C943B0110
:100080000C943B010C943B010C943B010C943B0100
:100090000C9463040C943B010C943B010C943B01C5
:1000A0000C943B010C94770E0C943B01F71DFA1D48
:1000B000E91DED1DF31D1B1E1B1E1B1EFE1D021E3A
:1000C000061E0C1E101E1B1E161E084AD73B3BCEDA
:1000D000016E84BCBFFDC12F3D6C74319ABD568347
:1000E0003DDA3D00C77F11BED9E4BB4C3E916BAAFF
:1000F000AABE000000803F05A84CCDB2D44EB9384E
:1001000036A9020C50B9918688083CA6AAAA2ABE34
:10011000000000803F00070605040100080A0B0CE0
:100120000D090000000200090F0000030401000C8B
:1001300000000000000000000000000000000000BF
:1001400000040802011040804010204080408008D8
:100150000204018040201002011080102040402045
:10016000040404040403040502020202040302025C
:100170000202060606060606040402020204040041
:10018000000000250028002B002E003100080B0085
:10019000020202010009040000010202000005241D
:1001A00000100105240101010424020605240600B3
:1001B000010705810310004009040100020A000044
:1001C00000070502024000000705830240000012FC
:1001D000010002EF020140FB1F00230001010203A6
:1001E000011201000200000040FB1F00230001017A
:1001F000020301506F6C6F6C7520436F72706F72E9
:100200006174696F6E00506F6C6F6C7520412D5377
:100210007461722033325534000403090400F30181
:100220007903261B5A1F11241FBECFEFDAE0DEBF71
:10023000CDBF12E0A0E0B1E0E0EBF3E502C0059035
:100240000D92AE33B107D9F726E0AEE3B2E001C0BC
:100250001D92A139B207E1F712E0C6E2D2E004C074
:100260002297FE010E94B329CE31D107C9F70E941F
:10027000781F0C94D6290C940000AF92BF92CF92B5
:10028000DF92EF92FF920F931F9340ED57E060E0F3
:1002900070E081E694E00E94020620E835E240E04A
:1002A00050E069E276E081E694E00E94BB0581E6D9
:1002B00094E00E94B8056AE371E080919204909105
:1002C00093040E94A11F6AE070E080E090E00E9429
:1002D0001E1D41E060E081E694E00E94740640E863
:1002E00055E260E070E089E296E00E94451F61E01F
:1002F0008DE793E00E94B81061E08DE793E00E94E3
:10030000B5108EE392E00E94CC17A12CB12CC12C29
:10031000D12C76019701860140E050E060EB71E45A
:100320008EE392E00E941519AA24A394B12C9BEDB0
:10033000C92E9FE0D92E99E4E92E90E4F92E00E031
:1003400010E020EB31EC40E050E060EB71E48EE334
:1003500092E00E94151922E0A22EB12C00E010E0DC
:1003600020EB31EC40E050E0BA018EE392E00E94D5
:1003700015193BEDC32E3FE0D32E39ECE32E3FE3BE
:10038000F32E00E010E09801B901A8018EE392E09D
:100390000E9415191F910F91FF90EF90DF90CF9061
:1003A000BF90AF900895CF93C8E083E10E94AE1D47
:1003B000C150D9F760E070E08DE793E00E946910CA
:1003C00060E070E08DE793E00E948F1061E070E0E4
:1003D0008EE392E00E94D11966E970E080E090E03F
:1003E000CF910C941E1D89EC96E7A6E5B0E48093AE
:1003F0003E0290933F02A0934002B093410280E6F8
:1004000095EEA0E3BFE38093420290934302A09352
:100410004402B093450284E19EE6A3E6B4E48093EF
:10042000460290934702A0934802B09349028DE0A0
:100430009FEEAAE8B0E480934A0290934B02A09307
:100440004C02B0934D0280E090E0A0E8BFE38093BF
:100450004E0290934F02A0935002B093510282E457
:1004600093E00E948F068FE493E00E94170829987A
:10047000219A2D98259A2A98229A2E98269A80EACF
:100480008093800081E18093810080E991E09093E6
:100490008700809386001092890010928800109245
:1004A0008B0010928A0008958091D10390E02091F2
:1004B000D203821B910908952091D2038091D10328
:1004C000281750F4E22FF0E0ED52FC4F808190E0CD
:1004D0002F5F2093D20308958FEF9FEF0895E0914F
:1004E000D2038091D103E81730F4F0E0ED52FC4FD5
:1004F000808190E008958FEF9FEF08950895CF9247
:10050000DF92EF92FF920F931F93CF93DF937C01C3
:10051000CB018A012091AD03222389F0EB016B010D
:10052000C40ED51ECC15DD0569F06991D701ED919A
:10053000FC910190F081E02DC7010995F3CF642F64
:100540000E943A04C801DF91CF911F910F91FF9053
:10055000EF90DF90CF900895CF93DF931F92CDB7A8
:10056000DEB769832091AD032223D1F02091AE0341
:10057000203240F021E030E0FC013383228380E030
:1005800090E015C08091AF03E82FF0E0E055FC4FFC
:10059000998190838F5F8093AF038093AE0305C0F2
:1005A00061E0CE0101960E943A0481E090E00F9054
:1005B000DF91CF910895FC011382128248EE53E03F
:1005C00060E070E0448355836683778380E591E043
:1005D0009183808308951092D2031092D1031092D8
:1005E000AF031092AE030C947D0381E08093AD03C2
:1005F0006093D0031092AF031092AE0308950F934F
:10060000062F21E04091AE0360EB73E08091D003B0
:100610000E94E3031092AF031092AE031092AD0359
:100620000F9108958F929F92AF92BF92CF92DF92D7
:10063000EF92FF920F931F93CF93DF93EC01F62E6F
:10064000D42E48015901EE2019F10E94F5021E2D09
:10065000143008F013E01150B8F0E881F98128E077
:10066000129FB0011124A501940104C0569547952D
:10067000379527956A95D2F7CA01B9010190F081A3
:10068000E02DCE010995E7CF60E0CE010E94FF0288
:100690004D2D413208F040E22C2D63ED73E08F2D9B
:1006A0000E949B031092D2038093D103DF91CF91DC
:1006B0001F910F91FF90EF90DF90CF90BF90AF9080
:1006C0009F908F900895CF92EF920F931F93C22E19
:1006D000E12C00E010E098010E9412031F910F919D
:1006E000EF90CF90089521E00C94630361E00C94A7
:1006F000FF0281EA93E00C94DB021092600481E037
:1007000080935E0410925D0461E082E00E941C1EF2
:1007100061E083E00E941C1EE9EBF0E080818E7FA7
:10072000808380818D7F808388E48093B80085E416
:100730008093BC000895413208F043C0909160045A
:100740009111FCCF91E09093600420935E042FEF11
:100750002093F30310923804240F209337049093CE
:100760005F0490915F04880F892B80935F048091D0
:100770005D04813061F410925D0480915F04809388
:10078000BB008091BC0083FDF8CF85EC01C085EEF5
:100790008093BC00809160048130E1F38091380443
:1007A000841710F44091380429E334E0FB01D901A7
:1007B0008A2F821B841718F48D918193F9CF842F8F
:1007C000089580E008950F93413208F04AC0909157
:1007D00060049111FCCF92E09093600400935E045A
:1007E0009FEF9093F3031092380440933704FB017A
:1007F00069E374E0DB019A2F961B941718F491912A
:100800009D93F9CF10925F0490915F04880F892B1C
:1008100080935F0480915D04813061F410925D04E7
:1008200080915F048093BB008091BC0083FDF8CF72
:1008300085EC01C085EE8093BC00222321F08091DD
:1008400060048230E1F38091F3038F3F61F0809187
:10085000F303803251F08091F303803341F483E05D
:1008600007C081E005C080E003C082E001C084E0F1
:100870000F910895613298F420916004243089F436
:1008800060931504FC0187E194E0DC012A2F281B0A
:10089000261718F421912D93F9CF80E0089581E077
:1008A000089582E0089585ED8093BC008091BC009E
:1008B00084FDFCCF10926004089585EC8093BC0009
:1008C0001092600408951F920F920FB60F92112498
:1008D0002F933F934F935F936F937F938F939F9348
:1008E000AF93BF93EF93FF938091B900887F8036D9
:1008F00009F49EC078F5883209F45DC090F4803127
:1009000009F456C038F4882309F4F5C0883009F496
:100910004FC0F5C0883109F44EC0803209F45FC081
:10092000EEC0803409F46AC058F4803309F457C02B
:10093000883309F0E4C08093F3030E945D04DFC0B4
:10094000803509F44FC0883509F45DC0883409F05A
:10095000D6C0D3C0883909F4C4C0A8F4883709F4D4
:1009600067C038F4883609F463C0803709F460C082
:10097000C6C0883809F4B5C0803909F45FC0803832
:1009800009F0BDC05BC0803B09F483C038F4803AF5
:1009900009F466C0883A09F47CC0B1C0803C09F40F
:1009A000A4C0883C09F4A1C0883B09F487C0A7C053
:1009B00080915F0410C0909138048091370498179B
:1009C00070F5E091380481E08E0F80933804F0E0F8
:1009D000E75CFB4F80818093BB0085EC83C08093F4
:1009E000F3038BC0E091380481E08E0F80933804CC
:1009F0008091BB00F0E0E75CFB4F8083909138046E
:100A0000809137046BC0E091380481E08E0F8093B1
:100A100038048091BB00F0E0E75CFB4F808380915D
:100A20005E0481116AC081E080935D0484EA5EC047
:100A300083E0809360041092F403CFCF8091F4039D
:100A4000803208F04EC0E091F40381E08E0F809375
:100A5000F4038091BB00F0E0EB50FC4F8083BDCFEE
:100A60000E945D048091F403803230F4E091F4033D
:100A7000F0E0EB50FC4F10826091F40370E0E091E5
:100A80005904F0915A0485EF93E009951092F4030C
:100A900036C084E08093600410921604109215040E
:100AA000E0915B04F0915C0409958091150481113B
:100AB00005C081E08093150410921704E09116049C
:100AC00081E08E0F80931604F0E0E95EFB4F808199
:100AD0008093BB009091160480911504981708F438
:100AE0007CCF85E88093BC000AC085EC8093BC0075
:100AF0001092600404C01092F3030E945304FF910B
:100B0000EF91BF91AF919F918F917F916F915F9185
:100B10004F913F912F910F900FBE0F901F901895FE
:100B20000F931F93CF93DF93EC01662359F00E943C
:100B3000EF1C69837A838B839C83DF91CF911F9114
:100B40000F9108950E94EF1C09811A812B813C812D
:100B5000601B710B820B930B61327105810591054E
:100B600030F763E070E080E090E00E941E1DEACF65
:100B700060E00C949005CF92DF92EF92FF920F937A
:100B80001F93CF93DF9300D000D0CDB7DEB78C0199
:100B90007B01FC0172AB61AB8BE1C82ED12CC7018C
:100BA00029833A834B835C830E944B1F29813A81BE
:100BB0004B815C81811113C0F1E0CF1AD10879F02B
:100BC00064E670E080E090E029833A834B835C83A5
:100BD0000E941E1D5C814B813A812981E0CFBA01C0
:100BE000A901F80181A992A90F900F900F900F9081
:100BF000DF91CF911F910F91FF90EF90DF90CF90F9
:100C00000C94451FFC0113AA14AA15AA16AA118256
:100C1000128213821482411551056105710521F07C
:100C2000CB01BA010C941E1D08951F93CF93DF933F
:100C3000EC01162F6CE571E089A99AA90E94A11F09
:100C40004AE050E0612F89A99AA90E94502063E6EA
:100C500071E089A99AA90E94A11F62E370E080E077
:100C600090E0DF91CF911F910C941E1D1F93CF93A5
:100C7000DF93EC01162F8D81882389F189A99AA928
:100C8000DC01ED91FC910480F581E02D0995892B23
:100C9000A9F307C02637310519F12835310509F4C4
:100CA0001D8289A99AA9DC01ED91FC910480F5814E
:100CB000E02D09951816190694F489A99AA9DC0162
:100CC000ED91FC910680F781E02D09959C01332779
:100CD00023363105F9F6612FCE010E94150683E611
:100CE000DF91CF911F9108950F931F93CF93DF93BF
:100CF0001F92CDB7DEB78C01662349F081E0F80181
:100D0000858360E0C80149830E9436064981F80165
:100D100045830F90DF91CF911F910F910895FC01B2
:100D200083E090E090878783138612861486089567
:100D3000EF92FF921F93CF93DF931F92CDB7DEB751
:100D40007C01162FFC01618581EA93E049830E94B2
:100D5000F502612F81EA93E00E94AC024981642F81
:100D600081EA93E00E94AC0281EA93E00E9476035C
:100D7000F70186830F90DF91CF911F91FF90EF9045
:100D80000895CF93DF93EC018F819885029729F422
:100D900040E069E3CE010E94980640E063E2CE01A4
:100DA0000E9498064FE660E2CE01DF91CF910C944D
:100DB00098069F92AF92BF92CF92DF92EF92FF92EE
:100DC0000F931F93CF93DF93EC01698581EA93E042
:100DD0000E94F502E091A103F091A2030190F0813D
:100DE000E02D68EA81EA93E0099581EA93E00E94A8
:100DF000760346E0698581EA93E00E9473030E94CE
:100E0000EF1C7B0181EA93E00E945402069784F470
:100E10008A859B85892BB1F30E94EF1C6E197F098F
:100E20008A859B858617970768F781E08C872CC099
:100E300081EA93E00E945C02A82E81EA93E00E947E
:100E40005C02982E81EA93E00E945C02E82E81EA1F
:100E500093E00E945C02B82E81EA93E00E945C025B
:100E6000F82E81EA93E00E945C02D92CC12CCA289A
:100E7000D982C8821B2D00E00E291B830A83982F7C
:100E800088278F299D838C83DF91CF911F910F91AC
:100E9000FF90EF90DF90CF90BF90AF909F9008951C
:100EA0001F93CF93DF931F92CDB7DEB7162F81EA42
:100EB00093E049830E94F5024981642F81EA93E01F
:100EC0000E94AC0281EA93E00E947603811114C073
:100ED00041E0612F81EA93E00E94730381EA93E08D
:100EE0000E945402892B41F081EA93E00F90DF9138
:100EF000CF911F910C945C028FEF9FEF0F90DF91C9
:100F0000CF911F910895EF92FF920F931F93CF936C
:100F1000DF937C01EB018A016330710521F04230DF
:100F2000510509F051C0CE010197039758F50115FD
:100F3000110581F04FE050E06BE6C7010E945007B9
:100F40008F3F2FEF920719F001E010E013C001303E
:100F5000110551F04FE050E06AE6C7010E945007CA
:100F60008F3FEFEF9E0721F4C330D10569F027C012
:100F700000E010E0C330D10529F4873D9105F1F57B
:100F8000C2E0D0E02097D9F40115110561F04FE0DF
:100F900050E069E6C7010E945007833D910589F141
:100FA0000130110549F04FE050E068E6C7010E94AA
:100FB0005007833D910541F1C330D10519F002304E
:100FC000110511F480E025C0F701D087C783209771
:100FD00059F0D7FD11C023977CF40130110511F4AD
:100FE0008BE608C08AE606C00130110511F489E6D7
:100FF00001C088E6F701818781E00BC0C1E0D0E045
:10100000C1CF01E010E002C000E010E0C0E0D0E09D
:10101000D6CFDF91CF911F910F91FF90EF90089560
:10102000DC01ED91FC910190F081E02D0994CF93CA
:10103000DF93EC0186E0EEE2F1E0DE0152960190F2
:101040000D928A95E1F786E0E4E3F1E0DE011C967B
:1010500001900D928A95E1F784E090E09A8F898F54
:101060001CA61BA61DA6DF91CF910895EF92FF92BB
:101070001F93CF93DF931F92CDB7DEB77C01162F5E
:10108000FC01638D81EA93E049830E94F502612FA0
:1010900081EA93E00E94AC024981642F81EA93E0E7
:1010A0000E94AC0281EA93E00E947603F701808FF0
:1010B0000F90DF91CF911F91FF90EF900895EF92E5
:1010C000FF921F93CF93DF931F92CDB7DEB77C01C2
:1010D000162FFC01648D81EA93E049830E94F5029A
:1010E000612F81EA93E00E94AC024981642F81EA7A
:1010F00093E00E94AC0281EA93E00E947603F7013C
:10110000808F0F90DF91CF911F91FF90EF90089506
:10111000FC01218D328D2330310511F0603210F445
:101120000C945F080C943608CF93DF93EC01898D03
:101130009A8D83309105D9F440E061E2CE010E949E
:10114000880847E560E2CE010E94880844E664E230
:10115000CE010E94880840E265E2CE010E94880824
:1011600040E066E2CE01DF91CF910C9488080297AF
:1011700039F448E063E2CE010E94360847E406C035
:1011800040E063E2CE010E94360847E260E2CE0111
:101190000E9436084CE060E0CE010E945F0840E209
:1011A00061E0CE010E945F0840E062E0CE01DF9185
:1011B000CF910C945F089F92AF92BF92CF92DF9233
:1011C000EF92FF920F931F93CF93DF93EC016B8D00
:1011D00081EA93E00E94F50268EA70E081EA93E018
:1011E0000E94100881EA93E00E947603888F46E00F
:1011F0006B8D81EA93E00E9473030E94EF1C6B01E8
:1012000081EA93E00E945402069784F48BA59CA582
:10121000892BB1F30E94EF1C6C197D098BA59CA54D
:101220008617970768F781E08DA72CC081EA93E0C5
:101230000E945C02A82E81EA93E00E945C02982E34
:1012400081EA93E00E945C02C82E81EA93E00E944A
:101250005C02B82E81EA93E00E945C02D82E81EAFB
:1012600093E00E945C02F92CE12CEA28F982E882E2
:101270001B2D00E00C291B830A83982F88278D29BA
:101280009D838C83DF91CF911F910F91FF90EF9001
:10129000DF90CF90BF90AF909F900895CF92DF9254
:1012A000EF92FF920F931F93CF93DF93EC016C8D1E
:1012B00081EA93E00E94F502898D9A8D039721F4CB
:1012C00069A17AA1606802C06F8D78A181EA93E07C
:1012D0000E94100881EA93E00E947603888F46E01E
:1012E0006C8D81EA93E00E9473030E94EF1C8B01D6
:1012F00081EA93E00E945402069784F48BA59CA592
:10130000892BB1F30E94EF1C601B710B8BA59CA570
:101310008617970768F781E08DA767C0898D9A8D3A
:101320000397F9F481EA93E00E945C02C82E81EAF7
:1013300093E00E945C02D82E81EA93E00E945C0256
:10134000E82E81EA93E00E945C02182F81EA93E084
:101350000E945C02F82E81EA93E00E945C02082F52
:1013600035C081EA93E00E945C02D82E81EA93E0C6
:101370000E945C02C82E298D3A8D81EA93E0232BCE
:1013800099F40E945C02182F81EA93E00E945C02AB
:10139000E82E81EA93E00E945C02082F81EA93E044
:1013A0000E945C02F82E12C00E945C02082F81EAA3
:1013B00093E00E945C02F82E81EA93E00E945C02B6
:1013C000182F81EA93E00E945C02E82E6C2D70E0F9
:1013D0007D297F836E834E2D50E0512B598748879E
:1013E0002F2D30E0302B3B872A87DF91CF911F9143
:1013F0000F91FF90EF90DF90CF900895CF93DF9300
:10140000EC010E94DB08CE01DF91CF910C944E09D4
:101410001F93CF93DF931F92CDB7DEB7162F81EACC
:1014200093E049830E94F5024981642F81EA93E0A9
:101430000E94AC0281EA93E00E947603811114C0FD
:1014400041E0612F81EA93E00E94730381EA93E017
:101450000E945402892B41F081EA93E00F90DF91C2
:10146000CF911F910C945C028FEF9FEF0F90DF9153
:10147000CF911F910895EF92FF920F931F93CF93F7
:10148000DF93EC018B017A016430710521F0423069
:10149000510509F055C0C8010397029708F0CDC067
:1014A000E114F10471F04FE050E06DE1CE010E94D3
:1014B000080A8934910509F4B8C081E0E816F104FE
:1014C00051F04FE050E06EE1CE010E94080A8934ED
:1014D000910509F4AEC00430110509F0D0C0E11443
:1014E000F10469F040E250E069E1CE010E94080A8F
:1014F000019679F421E0E216F10409F4A3C040E278
:1015000050E068E1CE010E94080A019609F0A4C0EB
:1015100099C00430110509F09BC04FE050E06EE126
:10152000CE010E94080AEE24E394F12CCC9709F036
:10153000A9C002E010E082E0E816F10409F486C0D8
:101540001A8F098F0130110569F124F4012B09F478
:1015500049C069C00230110541F10330110509F09D
:1015600062C0EA94EF2811F48DE101C08EE18C8F06
:101570008B8F88E090E09AA389A389E090E098A3FC
:101580008F8F8AE090E09EA38DA38BE090E09CA3D8
:101590008BA38CE090E09AA789A78DE090E098A7B4
:1015A0008FA341C0EA94EF2811F489E101C088E1DA
:1015B0008B8F8EE18C8F83E090E098A38F8F84E0F7
:1015C00090E09AA389A387E090E09CA38BA388E096
:1015D00090E09EA38DA385E090E098A78FA386E07E
:1015E00090E01FC0EA94EF2811F489E101C088E17E
:1015F0008B8F8EE18C8F83E090E098A38F8F84E0B7
:1016000090E09AA389A385E090E09CA38BA386E059
:1016100090E09EA38DA387E090E098A78FA388E039
:1016200090E09AA789A781E030C0EE24E394F12CE2
:1016300002C0E12CF12C03E010E00330110508F4A6
:101640004ECF79CF0430110509F075CF80E01DC071
:10165000EE24E394F12C6FCF0430110569F44FE0D0
:1016600050E06EE1CE010E94080A31E020E0CC9704
:1016700009F030E0032F122FE12CF12C5CCF03E0B6
:1016800010E059CF00E010E056CFDF91CF911F91CD
:101690000F91FF90EF90089590919A04E0919E042D
:1016A000F0919F04992311F0849101C080812FEB68
:1016B000280F2A3110F4805E0895803249F49F018A
:1016C0002F5F3F4F30939F0420939E04EF2B31F701
:1016D00008951F93CF93DF930E944C0BC0E0D0E09E
:1016E0001AE090ED980F9A30B8F49E01129FE00135
:1016F000139FD00D1124C80FD11D87FDDA95E097F7
:1017000080919E0490919F04019690939F048093F2
:101710009E040E944C0BE5CFCE01DF91CF911F912B
:101720000895109272001092C00084E08093C1006E
:1017300089E08093C20081E08093C300EFEBF0E08A
:1017400083E0808388EE8093D10010821092D200D3
:10175000579A789408952F923F924F925F926F928A
:101760007F928F929F92AF92BF92CF92DF92EF9231
:10177000FF920F931F93CF93DF93CDB7DEB72797D9
:101780000FB6F894DEBF0FBECDBF7C011B014D83A9
:101790008091A004811105C081E08093A0040E9483
:1017A000910B10920F01F7FE04C0E894F7F81AE0CD
:1017B00001C011E088E2189F802D1124282F30E00D
:1017C0003F832E832E153F0510F4FF82EE821130E9
:1017D00049F44E815F814131574220F0E0E1F7E268
:1017E000FF83EE83812E912CA12CB12C8E819F81C1
:1017F000969587959C0140E050E029833A834B837E
:101800005C834E815F812A01612C712CA5019401BA
:1018100060E072E18AE790E00E94402929813A81E4
:101820004B815C81620F731F841F951FA30192017E
:101830000E94922969017A01EE24FF2400E00F5FE3
:10184000C11434E0D306E104F10408F120E032E1F0
:101850004AE750E0002E04C05595479537952795E7
:101860000A94D2F7C501B4010E94402929813A8126
:101870004B815C81620F731F841F951FA30192012E
:101880000E94922969017A01EE24FF24D8CF1A30F0
:1018900049F48E819F8105966AE070E00E945C2980
:1018A0007F836E834E815F81483E83E0580759F005
:1018B0009101DA010E94B72928EE33E040E050E0C0
:1018C0000E9492291901109272008091C100807FBC
:1018D000802B8093C100BB27AF2D9E2D8D2D809333
:1018E000BF00C092D1002D81203108F02FE080E1AF
:1018F00090E0821B910904C0F694E794D794C794B2
:101900008A95D2F78D2D99278093BF00C092D2007F
:1019100030929D0420929C0489B38FEF89BB84E0B0
:101920008093720027960FB6F894DEBF0FBECDBF2E
:10193000DF91CF911F910F91FF90EF90DF90CF90AB
:10194000BF90AF909F908F907F906F905F904F90DF
:101950003F902F900895CF93DF93EB018F3F11F0CD
:10196000411105C040E0BE0188EE93E043C08131E3
:1019700030F050EF580F503618F05FE501C050E0DE
:10198000852F6CE00E945029682F74EF7603900138
:101990001124250F311D2C30310540F4F901EE0FD3
:1019A000FF1FEC54FE4F2081318102C020E030E067
:1019B000873081F0082E02C0220F331F0A94E2F70D
:1019C000823028F0C90105966AE070E00CC0C901B8
:1019D00090580CC0C90136E0880F991F3A95E1F77D
:1019E000029665E070E00E945C29CB01403108F06E
:1019F0004FE0BE01DF91CF910C94AB0B4F925F9201
:101A00006F927F928F929F92AF92BF92CF92DF920E
:101A1000EF92FF920F931F93CF93DF9300D0CDB738
:101A2000DEB790900E0180919904882321F0609197
:101A30009804611117C077247394B0ECAB2EBDE508
:101A4000BB2E1AE0612E04E0802E80EDC82E87E0C8
:101A5000D82E94E0E92EF12C04EF11E02FE0422E75
:101A6000512C15C070E040E088EE93E00E94AB0B73
:101A70001092980429C18636D4F5813609F4A9C09C
:101A80007CF58C3309F460C08E3381F493940E940A
:101A90004C0B20919E0430919F042F5F3F4F309359
:101AA0009F0420939E04853631F752C0813209F09D
:101AB0008BC080920E01D0920D01C0920C01F09269
:101AC0000B01E0920A011093090100930801509262
:101AD00007014092060110929904A4E09A2ED7CFF4
:101AE0008336A1F10CF478C010E082E077C08D3627
:101AF000C1F194F4873691F174F18C3609F064C029
:101B00000E94690BBC0190930B0180930A018091A4
:101B10000C0190910D0151C08237C9F14CF48F3600
:101B200009F052C00E94690B982E80930E01AFCF2E
:101B3000843781F1863709F047C00E94690B909382
:101B4000070180930601A3CF9A94A1CF10E020C093
:101B500010E084E043C010E085E040C010E087E082
:101B60003DC00E944C0B8C3619F41092990404C0AD
:101B7000709299041092980420919E0430919F04D1
:101B80002F5F3F4F30939F0420939E0480CF11E03E
:101B900080E024C00E94690BBC01C5010E945C2941
:101BA000669EC001679E900D112490930D01809355
:101BB0000C0160910A0170910B010E945C297093E5
:101BC00009016093080163CF10929F0410929E0454
:101BD0007BC010E089E002C010E08BE0082F9CE0A1
:101BE000999E000D11240E944C0B982F977F9332E1
:101BF00061F420919E0430919F042F5F3F4F3093FA
:101C00009F0420939E040F5FEECF8D3271F42091DC
:101C10009E0430919F042F5F3F4F30939F04209389
:101C20009E0401500E944C0BF0CF6091080170910E
:101C300009018153883050F4E0900C01F0900D01BF
:101C40000E94690BBC01C7010E945C297B01F694CC
:101C5000E79469837A830E944C0B69817A818E3282
:101C600069F420919E0430919F042F5F3F4F309381
:101C70009F0420939E046E0D7F1DE9CF80919904EF
:101C8000882339F09B013695279520939804621B91
:101C9000710940910601112311F08FEF01C0802FCF
:101CA0000F900F90DF91CF911F910F91FF90EF90C8
:101CB000DF90CF90BF90AF909F908F907F906F906C
:101CC0005F904F900C94AB0C0F900F90DF91CF91E1
:101CD0001F910F91FF90EF90DF90CF90BF90AF904A
:101CE0009F908F907F906F905F904F9008951F927C
:101CF0000F920FB60F9211242F933F934F935F9340
:101D00006F937F938F939F93AF93BF93EF93FF93C3
:101D100080919C0490919D049C0121503109309345
:101D20009D0420939C04892B11F5109272007894E5
:101D30008091C100807F84608093C10083E08093A4
:101D4000BF0088EE8093D1001092BF001092D200A5
:101D500081E080930F0180919E0490919F04892BD4
:101D600031F080919B04811102C00E94FE0CFF9112
:101D7000EF91BF91AF919F918F917F916F915F9103
:101D80004F913F912F910F900FBE0F901F9018957C
:101D9000FC011382128280ED91E091838083148292
:101DA00008951F93CF93DF93EC01162F64600E9478
:101DB0004B0F1E83DF91CF911F910895CF93DF9337
:101DC000EC01E881F9810480F581E02D099563E05B
:101DD000CE010E94470F8FE991E40197F1F700C00F
:101DE000000063E0CE010E94470F87E592E0019773
:101DF000F1F700C0000063E0CE010E94470F62E0EF
:101E0000CE010E94470F68E2CE010E944B0F60E0B6
:101E1000CE010E94590FCE010E944F0F62E0CE0109
:101E20000E94D10E64E0CE01DF91CF910C94590F46
:101E30000F931F93CF93DF9300D01F92CDB7DEB7E0
:101E40008C01DC0114968C91149781110CC081E0F7
:101E500014968C93C8012B834A8369830E94DE0EFB
:101E600069814A812B81D801ED91FC910680F7812F
:101E7000E02DC8010995B5ECBA95F1F700000F9077
:101E80000F900F90DF91CF911F910F91089521E056
:101E900040E00C94180F20E040E00C94180F61E033
:101EA0000E944B0F8FE39FE10197F1F700C0000004
:101EB00008951F93CF93DF93EC01162F68600E9463
:101EC0004B0F1D83DF91CF911F91089520E041E0DA
:101ED0000C94180F0E94660F81E090E00895CF9255
:101EE000DF92EF92FF920F931F93CF93DF937C01CA
:101EF0008A01EB016B01C40ED51ECC15DD0529F05E
:101F00006991C7010E94660FF8CFC801DF91CF9198
:101F10001F910F91FF90EF90DF90CF9008954FB1F8
:101F200041705CB156FB552750F954278091A804A5
:101F30006091A9042091A2043091A304852790E028
:101F40006427861B9109820F931F9093A3048093AB
:101F5000A2049091A9048091A804591729F0481768
:101F600019F081E08093A7045093A9044093A8043A
:101F700008951F920F920FB60F9211242F933F9343
:101F80004F935F936F938F939F932CB130E0359570
:101F9000279535952795422F417083B190E054E005
:101FA000959587955A95E1F782279327582F517079
:101FB0008091AA046091AB042091A4043091A504FF
:101FC000852790E06427861B9109820F931F9093C9
:101FD000A5048093A4049091AB048091AA0459179E
:101FE00029F0481719F081E08093A7045093AB04BF
:101FF0004093AA049F918F916F915F914F913F9170
:102000002F910F900FBE0F901F90189524982C9A27
:102010006A98729A6E98769A8098889A81E08093EE
:10202000680090E190936B008BBB41E050E06FE85B
:102030007FE084E00E94921B8CB182FB882780F9AC
:1020400081708093AA0493B18091AA0492959170B3
:1020500089278093AB041092A5041092A4041092D7
:10206000A7048FB181708093A8049CB18091A804CB
:1020700096FB992790F989278093A9041092A304CD
:102080001092A2041092A60408958091A1048111D7
:1020900005C081E08093A1040C94061008950E946D
:1020A0004510F8948091A4049091A5041092A50481
:1020B0001092A404789408950E944510F894809199
:1020C000A2049091A3041092A3041092A204789405
:1020D00008959B0120573E4F2132334040F0603736
:1020E0007E4F1CF060E971E002C060E77EEFFC010A
:1020F000718F608F77FF05C071956195710981E0DF
:1021000001C080E070938B0060938A009091AD04D1
:10211000891711F02A9A01C02A98229A08959B01E2
:1021200020573E4F2132334040F060377E4F1CF045
:1021300060E971E002C060E77EEFFC01738F628F9F
:1021400077FF05C071956195710981E001C080E05C
:1021500070938900609388009091AC04891711F006
:10216000299A01C02998219A08956093AD04089591
:102170006093AC0408955B98539A089560FF02C081
:102180002B9A01C02B98239A61FF02C0289A01C0A4
:102190002898209A62FF02C0479A01C047983F9A48
:1021A00063FF02C05D9A01C05D98559A5B9A539A8D
:1021B00085E08A95F1F700005B98539A85E08A954F
:1021C000F1F700000895CF92DF92EF92FF920F9304
:1021D0001F93CF93DF9300D000D01F92CDB7DEB70F
:1021E0006C01162F0091E2001092E200F090E900DD
:1021F0001092E900E090F0001092F00030E05A995F
:10220000316052993260398330E02B9931602399E3
:1022100032603A8330E028993160209932603B8304
:1022200030E0479931603F9932603C8330E05D99FE
:102230003160559932603D83442311F05A9A01C0B0
:102240005A98529A21110AC0612F70E084E0759566
:1022500067958A95E1F7C6010E94BE10612F6F70E5
:10226000C6010E94BE102D8121FB0EF0559820FB67
:102270000EF05D980EF45D9A21FB0EF4559A3C81A8
:1022800031FB0EF03F9830FB0EF047980EF4479A62
:1022900031FB0EF43F9A2B8121FB0EF0209820FB9E
:1022A0000EF028980EF4289A21FB0EF4209A3A8119
:1022B00031FB0EF0239830FB0EF02B980EF42B9A86
:1022C00031FB0EF4239A298121FB0EF0529820FB5A
:1022D0000EF05A980EF45A9A21FB0EF4529A10926C
:1022E000E900E092F000F092E9000093E2000F9024
:1022F0000F900F900F900F90DF91CF911F910F9142
:10230000FF90EF90DF90CF9008954F925F926F9281
:102310007F928F929F92AF92BF92CF92DF92EF9275
:10232000FF92CF93DF93EC010E944F109DA78CA7E3
:102330000E945C107C019FA78EA76CA57DA58827B5
:1023400077FD8095982F0E9498279B01AC010E94F1
:102350001D29882311F01DA61CA6B701882777FD2B
:102360008095982F0E9498279B01AC010E941D29FF
:10237000882311F01FA61EA64C845D846E847F8482
:1023800088849984AA84BB846CA57DA5882777FD61
:102390008095982F0E949827A30192010E94B1284E
:1023A000A50194010E94FD266B017C016CAB7DAB05
:1023B0008EAB9FAB6EA57FA5882777FD8095982F64
:1023C0000E949827A30192010E94B128A5019401BF
:1023D0000E94FD2668AF79AF8AAF9BAFA701960137
:1023E0000E94302620E030E040E05FE30E94B12808
:1023F0006CAF7DAF8EAF9FAFDF91CF91FF90EF902D
:10240000DF90CF90BF90AF909F908F907F906F9014
:102410005F904F900895EF92FF920F931F93CF9389
:10242000DF93EC017A018901FB0120813181428136
:102430005381688D798D8A8D9B8D0E943026688F9F
:10244000798F8A8F9B8FF70120813181428153815F
:102450006C8D7D8D8E8D9F8D0E9430266C8F7D8F33
:102460008E8F9F8FF80120813181428153816C8949
:102470007D898E899F890E9430266C8B7D8B8E8B07
:102480009F8BDF91CF911F910F91FF90EF90089557
:102490002F923F924F925F926F927F928F929F9274
:1024A000AF92BF92CF92DF92EF92FF920F931F9362
:1024B000CF93DF93EC017B01F901DA012D913D917E
:1024C0004D915C9160817181828193810E942F2660
:1024D000288139814A815B810E94FD26F801208193
:1024E0003181428153810E94302620E030E040E07B
:1024F0005FE30E94B12860931106709312068093E7
:102500001306909314065E01F4ECAF0EB11C6E013D
:1025100020EDC20ED11CD7012D913D914D915C91C2
:10252000F60160817181828193810E943026D501FC
:102530006D937D938D939C9313974E01B8EC8B0E06
:10254000911CF40110821182128213821E01F8ED97
:102550002F0E311CD8012D913D914D915C91F101CF
:1025600060817181828193810E9430262B013C0120
:102570002BED3FE049EC50E40E94A6289E01245335
:102580003F4F790118164CF42BED3FE049EC50E435
:10259000C301B2010E942F2617C020E030E0A9013C
:1025A000C301B2010E94F62687FD06C0F7014082F2
:1025B0005182628273820EC02BED3FE049EC50E401
:1025C000C301B2010E943026D7016D937D938D9394
:1025D0009C93139781E694E00E94B80568ED71E042
:1025E00080919204909193040E94A11F60EE71E08B
:1025F00080919204909193040E94A11FF701408161
:1026000051816281738122E030E080919204909147
:1026100093040E94422160EE71E0809192049091B7
:1026200093040E94A11FD8014D915D916D917C9101
:1026300022E030E080919204909193040E94422124
:1026400062EE71E080919204909193040E94A11F28
:1026500062E070E080E090E00E941E1DF501808144
:102660009181A281B381F60180839183A283B38398
:10267000CC52DF4FF40180819181A281B3818883A4
:102680009983AA83BB83F70180819181A281B38161
:10269000F10180839183A283B383DF91CF911F9156
:1026A0000F91FF90EF90DF90CF90BF90AF909F90F1
:1026B0008F907F906F905F904F903F902F900895F4
:1026C0004F925F926F927F928F929F92AF92BF9242
:1026D000CF92DF92EF92FF920F931F93CF93DF93EE
:1026E000EC015B01FC01E453FF4FC080D180E2802C
:1026F000F380C701B6010E94FA268E0108511F4FD0
:10270000F50120813181428153810E94B128F80175
:1027100020813181428153810E9430262B013C016E
:10272000FE01E452FF4F6083718382839383C7016C
:10273000B6010E9414294E01FCEE8F0E911CF5018A
:1027400020813181428153810E94B128F40120818E
:102750003181428153810E943026FE01E052FF4FB9
:1027600060837183828393833496C082D182E282B4
:10277000F382F8014082518262827382F4016083A5
:10278000718382839383C051DF4FC882D982EA82EA
:10279000FB82DF91CF911F910F91FF90EF90DF901F
:1027A000CF90BF90AF909F908F907F906F905F90F1
:1027B0004F9008950F931F93CF93DF93EC018C01FB
:1027C00004581F4F29E23CE54FE05CE3F8016081CB
:1027D0007181828193810E94B128F80160837183A5
:1027E000828393830C5F1F4F29E23CE54FE05CE35B
:1027F000F80160817181828193810E94B128F80182
:102800006083718382839383CC57DF4F29E23CE559
:102810004FE05CE3688179818A819B810E94B128C5
:10282000688379838A839B83DF91CF911F910F9176
:1028300008950F931F93CF93DF93EC018C01005603
:102840001F4F21E43AED4FE758E3F80160817181B1
:10285000828193810E94B128F80160837183828311
:1028600093830C5F1F4F21E43AED4FE758E3F801E3
:1028700060817181828193810E94B128F801608317
:10288000718382839383C855DF4F21E43AED4FE78C
:1028900058E3688179818A819B810E94B12868838D
:1028A00079838A839B83DF91CF911F910F91089544
:1028B0006F927F928F929F92AF92BF92CF92DF9250
:1028C000EF92FF920F931F93CF93DF93EC016C0174
:1028D0002CEFC21A2EEFD20AC6010E94D90681E659
:1028E00094E00E94B80502E914E06BEE71E0F80193
:1028F000808191810E94A11F60EE71E0F8018081CA
:1029000091810E94A11FFE01E05CFF4F4081518137
:102910006281738122E030E0F801808191810E9420
:10292000422162EE71E0F801808191810E94A11F35
:1029300062E070E080E090E00E941E1D7E01FCE7F6
:10294000EF0EF11CF60160817181882777FD80957B
:10295000982F0E949827FE01EC56FF4F208131816D
:10296000428153810E942F26F70160837183828305
:1029700093837E01F0E8EF0EF11CE657FF4F608174
:102980007181882777FD8095982F0E949827FE01F6
:10299000E856FF4F20813181428153810E942F26CA
:1029A000F70160837183828393837E01F4E8EF0EE5
:1029B000F11CE857FF4F60817181882777FD809572
:1029C000982F0E949827FE01E456FF4F2081318105
:1029D000428153810E942F26F70160837183828395
:1029E00093837E01FFEEEF1AFEEFFF0AC7010E94FC
:1029F000FE095E0120EAA20EB11CF701608171811F
:102A0000882777FD8095982F0E9498274E01F8EB34
:102A10008F0E911CF40120813181428153810E94EB
:102A20002F26F50160837183828393836E01F4EA1C
:102A3000CF0ED11CED58FF4F60817181882777FD43
:102A40008095982F0E9498273E012CEB620E711CF6
:102A5000F30120813181428153810E942F26F601AA
:102A600060837183828393837E01F8EAEF0EF11C09
:102A7000EF58FF4F60817181882777FD8095982FEF
:102A80000E949827F701608371838283938381E694
:102A900094E00E94B80563EF71E0F80180819181B4
:102AA0000E94A11F60EE71E0F801808191810E9477
:102AB000A11FF501408151816281738122E030E0E4
:102AC000F801808191810E94422160EE71E0F8015D
:102AD000808191810E94A11FF60140815181628114
:102AE000738122E030E0F801808191810E944221CF
:102AF00060EE71E0F801808191810E94A11FF701D1
:102B0000408151816281738122E030E0F80180814F
:102B100091810E94422160EE71E0F80180819181F3
:102B20000E94A11FF401408151816281738122E0E2
:102B300030E0F801808191810E94422160EE71E0D5
:102B4000F801808191810E94A11FF3014081518190
:102B50006281738122E030E0F801808191810E94DE
:102B6000422160EE71E0F801808191810E94A11FF5
:102B7000FE01E054FF4F408151816281738122E068
:102B800030E0F801808191810E94422162EE71E083
:102B9000F801808191810E94A11F62E070E080E0D5
:102BA00090E00E941E1DCE010E941914CE01DF91FB
:102BB000CF911F910F91FF90EF90DF90CF90BF903A
:102BC000AF909F908F907F906F900C94DA132F921C
:102BD0003F924F925F926F927F928F929F92AF92AD
:102BE000BF92CF92DF92EF92FF920F931F93CF93FA
:102BF000DF93CDB7DEB72E970FB6F894DEBF0FBECA
:102C0000CDBF8C011C0180E4280E311CF101108223
:102C100011821282138284EF91E09E878D87EC539C
:102C2000FF4FF887EF83C80184589F4F9A838983A9
:102C3000E458F109FC83EB8386579F4F9A87898775
:102C40003496FE83ED8302969C878B878F819885CF
:102C50000E94D906EF81F88560817181882777FD10
:102C60008095982F0E949827E981FA8120813181EF
:102C7000428153810E9430262B013C01E981FA8177
:102C80006083718382839383E985FA858081918152
:102C9000BC01882777FD8095982F0E949827EB81AB
:102CA000FC8120813181428153810E9430264B0179
:102CB0005C01EB81FC816083718382839383EB856C
:102CC000FC8580819181BC01882777FD8095982FB4
:102CD0000E949827ED81FE812081318142815381BC
:102CE0000E9430266B017C01ED81FE81608371833F
:102CF000828393838D859E8501979E878D87892BFF
:102D000009F0A4CFF801EC56FF4FF887EF8320E0DD
:102D100030E04AEF53E4C301B2010E94FD26EF8187
:102D2000F88560837183828393833801F8E96F0E9D
:102D3000711C20E030E04AEF53E4C501B4010E9469
:102D4000FD26F301608371838283938304561F4FB2
:102D500020E030E04AEF53E4C701B6010E94FD26AF
:102D6000F801608371838283938320E030E04AEF2F
:102D700053E4F10160817181828193810E94FD267B
:102D8000F1016083718382839383E981FA811082E8
:102D9000118212821382EB81FC81108211821282D5
:102DA0001382ED81FE8110821182128213822E968F
:102DB0000FB6F894DEBF0FBECDBFDF91CF911F914C
:102DC0000F91FF90EF90DF90CF90BF90AF909F90CA
:102DD0008F907F906F905F904F903F902F900895CD
:102DE0002F923F924F925F926F927F928F929F921B
:102DF000AF92BF92CF92DF92EF92FF920F931F9309
:102E0000CF93DF93CDB7DEB72C970FB6F894DEBF24
:102E10000FBECDBF8C0184EF91E09C878B8718019A
:102E20009FEE291A9EEF390AF801E056FF4FFA8308
:102E3000E983C8018C559F4F9C838B83ED58FF4FCE
:102E4000F887EF8304969E838D833296FA87E9870D
:102E5000C1010E94FE09F10160817181882777FD1F
:102E60008095982F0E949827E981FA8120813181ED
:102E7000428153810E9430262B013C01E981FA8175
:102E80006083718382839383EF81F8858081918150
:102E9000BC01882777FD8095982F0E949827EB81A9
:102EA000FC8120813181428153810E9430264B0177
:102EB0005C01EB81FC816083718382839383E9856C
:102EC000FA8580819181BC01882777FD8095982FB4
:102ED0000E949827ED81FE812081318142815381BA
:102EE0000E9430266B017C01ED81FE81608371833D
:102EF000828393838B859C8501979C878B87892B05
:102F000009F0A6CF180198EB290E311C20E030E023
:102F10004AEF53E4C301B2010E94FD26F101608330
:102F20007183828393833801FCEB6F0E711C20E068
:102F300030E04AEF53E4C501B4010E94FD26F301DD
:102F4000608371838283938300541F4F20E030E0BD
:102F50004AEF53E4C701B6010E94FD26F8016083E1
:102F60007183828393832C960FB6F894DEBF0FBED5
:102F7000CDBFDF91CF911F910F91FF90EF90DF9028
:102F8000CF90BF90AF909F908F907F906F905F9009
:102F90004F903F902F9008950F931F93CF93DF93FF
:102FA000EC01FC01E15AFE4F108211821282138261
:102FB000349710821182128213821DA61CA61FA6AE
:102FC0001EA61CA21DA21EA21FA218A619A61AA602
:102FD0001BA61C8E1D8E1E8E1F8E188E198E1A8E8D
:102FE0001B8E1C8A1D8A1E8A1F8AE759F1091082CE
:102FF00011821282138234961082118212821382FD
:1030000034961082118212821382349610821182B9
:1030100012821382349610821182128213823496A5
:1030200010821182128213823496108211821282CF
:103030001382349610821182128213823496108287
:1030400011821282138234961082118212821382AC
:103050003496108211821282138234961082118269
:1030600012821382E457F1091082118212821382B4
:103070003496108211821282138234961082118249
:103080001282138234961082118212821382349635
:10309000108211821282138234961082118212825F
:1030A00013827096108211821282138234961082DB
:1030B000118212821382349610821182128213823C
:1030C00034961082118212821382349610821182F9
:1030D000128213823496108211821282138219AAEC
:1030E00018AA1BAA1AAA81EA93E00E94EB02809117
:1030F0001D06811107C081E080931D0689E196E0DD
:103100000E94DE0E8091A104811105C081E08093B0
:10311000A1040E9406108E010C5F1E4F42E050E099
:1031200063E070E0C8010E948307C8010E94C106E5
:10313000035F1F4F42E050E064E070E0C8010E946E
:103140003B0AC8010E949408CE010E94E715CE01F7
:103150000E94F0160E944F10DF91CF911F910F91A6
:103160000C945C104F925F926F927F928F929F921D
:10317000AF92BF92CF92DF92EF92FF92CF93DF9305
:103180007C012A013B01FC01E056FF4F2081318187
:1031900042815381349660817181828193810E9442
:1031A000A3264B015C01E701C453DF4F84E8E80E1E
:1031B000F11CC301B2010E94962720E030E04AE7EB
:1031C00054E40E94FD26F701208131814281538120
:1031D0000E94B128288139814A815B810E94302672
:1031E00028E431EE4AE75FE30E94B1286B017C01DD
:1031F00020E037ED43EA5CE3C501B4010E94B12849
:103200009B01AC01C701B6010E943026DF91CF912E
:10321000FF90EF90DF90CF90BF90AF909F908F90F6
:103220007F906F905F904F900895AF92BF92CF9232
:10323000DF92EF92FF920F931F93A114B10439F024
:10324000AA94AB28A9F4FC01E85AFF4F03C0FC0183
:10325000E45BFF4F40835183628373833496008322
:103260001183228333833496C082D182E282F38237
:103270001F910F91FF90EF90DF90CF90BF90AF9094
:1032800008954F925F926F927F928F929F92AF922A
:10329000BF92CF92DF92EF92FF920F931F93CF9343
:1032A000DF93EC018B017A01F901608171818281E8
:1032B00093810E9496274B015C0120E030E04AE7B1
:1032C00054E4F70160817181828193810E94B12869
:1032D000A50194010E94FD266B017C01FE01E850CE
:1032E000FF4F608371838283938320E030E04AE75D
:1032F00054E4F80160817181828193810E94B12838
:10330000A50194010E94FD264B015C01FE01EC50D9
:10331000FF4F60837183828393838E0104501F4F1C
:103320009B01AC01C701B6010E94302620E030E0CD
:1033300040E05FE30E94B128F801608371838283DB
:1033400093830C5F1F4F288139814A815B8160E044
:1033500070E080E89FE30E94FD262B013C01A5015F
:103360009401C701B6010E942F269B01AC01C30145
:10337000B2010E94B128F801608371838283938334
:10338000DF91CF911F910F91FF90EF90DF90CF9041
:10339000BF90AF909F908F907F906F905F904F9075
:1033A00008952F923F924F925F926F927F928F92E9
:1033B0009F92AF92BF92CF92DF92EF92FF920F93C4
:1033C0001F93CF93DF93EC010E94EF1C5E0125EA6F
:1033D000A21A2EEFB20A1E01E1EA2E1AEEEF3E0A01
:1033E000F1010081118122813381601B710B820BFD
:1033F000930BF5016083718382839383CE010E94D6
:1034000085116E01F8E3CF0ED11C7E0124E3E20E9C
:10341000F11C9501A601B701CE010E94411981E678
:1034200094E00E94B80502E914E06BEF71E0F80146
:10343000808191810E94A11F60EE71E0F80180817E
:1034400091810E94A11FFE01E850FF4F40815181F0
:103450006281738122E030E0F801808191810E94D5
:10346000422160EE71E0F801808191810E94A11FEC
:10347000FE01EC50FF4F408151816281738122E057
:1034800030E0F801808191810E94422160EE71E07C
:10349000F801808191810E94A11F48AD59AD6AADAC
:1034A0007BAD22E030E0F801808191810E944221D1
:1034B00060EE71E0F801808191810E94A11F4CA90A
:1034C0005DA96EA97FA922E030E0F8018081918199
:1034D0000E94422160EE71E0F801808191810E949A
:1034E000A11FFE01F395408151816281738122E029
:1034F00030E0F801808191810E94422160EE71E00C
:10350000F801808191810E94A11FFE01E450FF4FCC
:10351000408151816281738122E030E0F801808135
:1035200091810E94422162EE71E0F80180819181D7
:103530000E94A11F62E070E080E090E00E941E1DEA
:103540004E01FCE38F0E911C9401A601B701CE0140
:103550000E940B12CE010E945814F5014080518048
:10356000628073805E01F4E8AF0EB11CC301B2014A
:103570000E949627F50120813181428153810E946A
:10358000B12820E030E04AE754E40E94FD26609331
:103590001506709316068093170690931806B301CC
:1035A000A201CE010E94B2182B013C0181E694E0F9
:1035B0000E94B80563E072E0F801808191810E9469
:1035C000A11F60EE71E0F801808191810E94A11F2E
:1035D00022E030E0B301A201F801808191810E94D4
:1035E000422162EE71E0F801808191810E94A11F69
:1035F00062E070E080E090E00E941E1D05E116E0B0
:103600009601A701B401CE010E9448129601A701BC
:10361000B401CE010E9460130E94EF1CF10160838F
:10362000718382839383DF91CF911F910F91FF90DC
:10363000EF90DF90CF90BF90AF909F908F907F9052
:103640006F905F904F903F902F90089589E196E0A2
:103650000E94C80E87E192E090931A0680931906A3
:1036600089EC96E7A6E5B0E48093AE049093AF04AE
:10367000A093B004B093B10480E695EEA0E3BFE35D
:103680008093B2049093B304A093B404B093B504B0
:1036900084E19EE6A3E6B4E48093B6049093B70475
:1036A000A093B804B093B9048DE09FEEAAE8B0E40B
:1036B0008093BA049093BB04A093BC04B093BD0460
:1036C00080E090E0A0E8BFE38093BE049093BF0445
:1036D000A093C004B093C10482EB95E00E948F06D2
:1036E0008FEB95E00E9417082998219A2D98259A2A
:1036F0002A98229A2E98269A80EA8093800081E167
:103700008093810080E991E0909387008093860008
:10371000109289001092880010928B0010928A00FB
:1037200008950895853008F04CC0E82FF0E0EE0FC2
:10373000FF1FE05FFE4F718360838230E1F018F479
:10374000813069F004C0833019F1843071F18091C7
:1037500069008C7F842B80936900E89A089580919A
:103760006900440F551F440F551F837F842B80939E
:103770006900E99A08958091690034E0440F551F6B
:103780003A95E1F78F7C842B80936900EA9A08953B
:103790008091690026E0440F551F2A95E1F78F7349
:1037A000842B80936900EB9A089580916A0094E0DD
:1037B000440F551F9A95E1F78F7C842B80936A0004
:1037C000EE9A08951F920F920FB60F9211242F9325
:1037D0003F934F935F936F937F938F939F93AF9399
:1037E000BF93EF93FF93E0911001F09111010995C0
:1037F000FF91EF91BF91AF919F918F917F916F91C9
:103800005F914F913F912F910F900FBE0F901F909E
:1038100018951F920F920FB60F9211242F933F937A
:103820004F935F936F937F938F939F93AF93BF93C8
:10383000EF93FF93E0911201F09113010995FF912D
:10384000EF91BF91AF919F918F917F916F915F9118
:103850004F913F912F910F900FBE0F901F90189591
:103860001F920F920FB60F9211242F933F934F93F5
:103870005F936F937F938F939F93AF93BF93EF93D8
:10388000FF93E0911401F09115010995FF91EF91DB
:10389000BF91AF919F918F917F916F915F914F9168
:1038A0003F912F910F900FBE0F901F9018951F9270
:1038B0000F920FB60F9211242F933F934F935F9364
:1038C0006F937F938F939F93AF93BF93EF93FF93E8
:1038D000E0911601F09117010995FF91EF91BF91C9
:1038E000AF919F918F917F916F915F914F913F9198
:1038F0002F910F900FBE0F901F9018951F920F924F
:103900000FB60F9211242F933F934F935F936F93B2
:103910007F938F939F93AF93BF93EF93FF93E09128
:103920001801F09119010995FF91EF91BF91AF91A5
:103930009F918F917F916F915F914F913F912F91C7
:103940000F900FBE0F901F9018951F920F920FB6F9
:103950000F9211242F933F938F939F93AF93BF9315
:103960008091210690912206A0912306B091240611
:103970003091200623E0230F2D3720F40196A11D5E
:10398000B11D05C026E8230F0296A11DB11D20938D
:1039900020068093210690932206A0932306B093DD
:1039A00024068091250690912606A0912706B091C5
:1039B00028060196A11DB11D809325069093260629
:1039C000A0932706B0932806BF91AF919F918F9146
:1039D0003F912F910F900FBE0F901F9018952FB70A
:1039E000F8946091210670912206809123069091AF
:1039F00024062FBF08953FB7F89480912506909133
:103A00002606A0912706B091280626B5A89B05C0DA
:103A10002F3F19F00196A11DB11D3FBF6627782FDA
:103A2000892F9A2F620F711D811D911D42E0660F33
:103A3000771F881F991F4A95D1F708958F929F92FB
:103A4000AF92BF92CF92DF92EF92FF926B017C0117
:103A50000E94FB1C4B015C01C114D104E104F10480
:103A6000F1F00E9493250E94FB1C681979098A09CC
:103A70009B09683E73408105910570F321E0C21AED
:103A8000D108E108F10888EE880E83E0981EA11C99
:103A9000B11CC114D104E104F10429F7DDCFFF907A
:103AA000EF90DF90CF90BF90AF909F908F90089550
:103AB000789484B5826084BD84B5816084BD85B509
:103AC000826085BD85B5816085BDEEE6F0E08081D0
:103AD00081608083E1E8F0E01082808182608083F1
:103AE000808181608083E0E8F0E080818160808374
:103AF000E1E9F0E080818260808380818160808361
:103B0000E0E9F0E0808181608083E1ECF0E0808199
:103B100084608083808182608083808181608083F3
:103B2000E3ECF0E0808181608083E0ECF0E0808174
:103B300082608083E2ECF0E0808181608083EAE74C
:103B4000F0E08081846080838081826080838081D6
:103B5000816080838081806880830895823108F04D
:103B60008251E82FF0E0EA5EFE4FE49180917B0005
:103B7000E3FB222720F930E095E0220F331F9A95CE
:103B8000E1F78F7D822B80937B00E77080911A0193
:103B900020E4829FC0011124E82BE0937C008091F7
:103BA0007A00806480937A0080917A0086FDFCCF51
:103BB000809178002091790090E0922B089590E018
:103BC000FC013197EF30F105B0F5EA5AFF4F0C9444
:103BD000B129809180008F7703C0809180008F7D14
:103BE00080938000089580918000877FF9CF84B50D
:103BF0008F7702C084B58F7D84BD08958091900039
:103C00008F7707C0809190008F7D03C080919000D6
:103C1000877F8093900008958091C0008F7703C0C4
:103C20008091C0008F7D8093C00008958091C20074
:103C3000877F8093C20008950F931F93CF93DF93E4
:103C40001F92CDB7DEB7282F30E0F901EE5DFE4FB1
:103C50008491F901EF5BFE4F1491F901E05AFE4F98
:103C600004910023C9F0882321F069830E94DF1D9D
:103C70006981E02FF0E0EE0FFF1FE158FE4FA591A4
:103C8000B4919FB7F8948C91611103C01095812372
:103C900001C0812B8C939FBF0F90DF91CF911F911B
:103CA0000F9108950E94D129CF93DF931F92CDB732
:103CB000DEB76983DC01ED91FC910280F381E02D98
:103CC00041E050E0BE016F5F7F4F09950F90DF919B
:103CD000CF910895CF93DF93EC018C859D8597FF5D
:103CE00005C082E00E9455229D878C878C859D852A
:103CF000DF91CF91089583E00C94E924FC01848541
:103D0000958597FD06C082E00E94FD2190E0019616
:103D1000089582E00E94FD2190E00895FC018485D1
:103D2000958597FD05C02FEF3FEF358724870895D0
:103D300082E00C945522CF93DF93EC018091260111
:103D4000882331F083E00E9486221816190634F089
:103D500081E090E09B838A8380E090E0DF91CF91C7
:103D60000895FC0120812E5F208342E450E06DE83D
:103D700071E080E80C942123FC0121818081813A4B
:103D800059F4213209F04BC047E050E06FE171E097
:103D900080E00E9421235EC0813209F040C02332BE
:103DA00089F4838190E0982F88273281832BA0E0CB
:103DB000B0E080931B0190931C01A0931D01B09370
:103DC0001E010FC0203239F467E070E08FE191E00E
:103DD0000E94522309C0223221F48281809326015D
:103DE00003C02D7F2032B1F580917906811103C087
:103DF000E0E0F8E002C0EEEFFAE080911F01909160
:103E00002001A0912101B0912201803B9440A105A5
:103E1000B10511F58091260180FF03C01DC080E02F
:103E20000895EE3F2AE0F20731F08081918190936E
:103E3000FF0A8093FE0A87E797E7918380832BE050
:103E400088E190E00FB6F894A895809360000FBECB
:103E50002093600081E0089588E10FB6F894809384
:103E60006000109260000FBEA895EE3F8AE0F80750
:103E700039F08091FE0A9091FF0A91838083EACF06
:103E80001092FF0A1092FE0AE5CF2FEF3FEFFC01E0
:103E9000358724870895CF93C09126016AE070E0AA
:103EA00080E090E00E941E1D81E0C11101C080E011
:103EB000CF91089510922C0610922B0688EE93E075
:103EC000A0E0B0E080932D0690932E06A0932F06DD
:103ED000B093300683E292E090932A0680932906FD
:103EE0008FEF9FEF909336068093350608950895DF
:103EF0000E94581D0E94771F8AE796E00E9476254F
:103F00000E943D01C0E0D0E00E94D3012097E1F380
:103F10000E940000F9CF6115710581F0DB010D9061
:103F20000020E9F7AD0141505109461B570BDC0158
:103F3000ED91FC910280F381E02D099480E090E006
:103F400008950C948B1FDC01ED91FC910190F081A0
:103F5000E02D09948F929F92AF92BF92DF92EF92E1
:103F6000FF920F931F93CF93DF93CDB7DEB7A19747
:103F70000FB6F894DEBF0FBECDBF7C01F42FD52E57
:103F8000CB0119A2223008F42AE08E010F5D1F4FE9
:103F9000822E912CA12CB12C6F2F7D2DA501940187
:103FA0000E947029F22FD32ECA01015011096A30E4
:103FB00014F4E0E301C0E7E3E60FD801EC93232B10
:103FC000242B252B49F7B801C7010E948B1FA1960E
:103FD0000FB6F894DEBF0FBECDBFDF91CF911F911A
:103FE0000F91FF90EF90DF90BF90AF909F908F90D8
:103FF0000895CF92DF92EF92FF920F931F93CF938A
:10400000DF93EC016A017B012115310579F4E88128
:10401000F9810190F081E02D642FDF91CF911F9104
:104020000F91FF90EF90DF90CF9009942A303105E7
:10403000E9F477FF1AC06DE20E94A31F8C014427A8
:104040005527BA014C195D096E097F092AE0CE0196
:104050000E94AA1F800F911FDF91CF911F910F9196
:10406000FF90EF90DF90CF9008952AE0B701A6016E
:10407000CE01DF91CF911F910F91FF90EF90DF90D4
:10408000CF900C94AA1F2115310541F4DC01ED916C
:10409000FC910190F081E02D642F09940C94AA1FEB
:1040A0009A01462F50E060E070E00C9443204F925C
:1040B0005F926F927F928F929F92AF92BF92CF92B8
:1040C000DF92EF92FF920F931F93CF93DF93EC0158
:1040D0006A017B01B22E9A01AB01C701B6010E94B1
:1040E0001D29882319F06FE272E027C026013701ED
:1040F000E89477F82FEF3FEF4FE75FE7C301B20196
:104100000E941D2981110DC02FEF3FEF4FE75FE7A0
:10411000C301B2010E94F62618161CF463E372E094
:104120000CC02FEF3FEF4FE75FE4C701B6010E94DD
:10413000A6281816ACF467E372E0CE01DF91CF91A8
:104140001F910F91FF90EF90DF90CF90BF90AF90B5
:104150009F908F907F906F905F904F900C948B1FEB
:104160002FEF3FEF4FE75FECC701B6010E94F62645
:1041700087FDE1CF20E030E0A901C701B6010E9430
:10418000F62687FF0AC06DE2CE010E94A31F8C01B4
:10419000F7FAF094F7F8F09402C000E010E0A12CD8
:1041A00060E070E080E09FE3AB1441F020E030E09D
:1041B00040E251E40E94FD26A394F6CF9B01AC019E
:1041C000C701B6010E9430266B017C010E946A275C
:1041D0002B013C010E9496279B01AC01C701B6014F
:1041E0000E942F266B017C012AE0B301A201CE01BF
:1041F0000E94AA1F080F191FBB2039F06BE372E061
:10420000CE010E948B1F080F191F7B2C772041F1D4
:1042100020E030E040E251E4C701B6010E94B1283D
:104220006B017C010E9465274B01AA2497FCA09496
:10423000BA2C2AE030E0B501A401CE010E94F91F9A
:10424000080F191FC501B4010E9498279B01AC01FA
:10425000C701B6010E942F266B017C017A94D6CF4C
:10426000C801DF91CF911F910F91FF90EF90DF90E8
:10427000CF90BF90AF909F908F907F906F905F9006
:104280004F9008950C945720615030F02091F10028
:10429000FC0120830196F8CF289884E6809383065A
:1042A000089540917E0650917F0620917C063091C2
:1042B0007D0642175307B4F49091E8009570E1F33E
:1042C0009091E80092FD19C08093F10080917E06E4
:1042D00090917F0601968F739927892B19F48EEFA1
:1042E0008093E80080917E0690917F0601969093DE
:1042F0007F0680937E0681E0089580E00895CF9246
:10430000DF92EF92FF920F931F93CF93DF931F9251
:10431000CDB7DEB7082F162FF42E862F880F8E5FAD
:1043200099830E94512183E00E945121E02EC02EEA
:104330009981D92E8C2D8E19811798F4F601F7FEEC
:1043400002C0849101C080810E945121082F80E029
:104350000E9451218023FFEFCF1ADF0A8111EACF9B
:1043600001C081E00F90DF91CF911F910F91FF90DD
:10437000EF90DF90CF9008958091D7008160809377
:10438000D70080EA8093D80089B5806189BD89B55E
:10439000826089BD09B400FEFDCF61E070E080E07D
:1043A00090E00E941E1D8091D8008F7C80618093D8
:1043B000D8008091E000807F8093E0000895CF9343
:1043C000DF931F92CDB7DEB71982CE0101960E940E
:1043D000B11E0E941B26BE016F5F7F4F0E94942575
:1043E00089810F90DF91CF9108952FB7FC01208331
:1043F000F89467706093E9000895CF93DF931F925C
:10440000CDB7DEB7682FCE0101960E94F5218091CD
:10441000F20099819FBF0F90DF91CF910895FF9295
:104420000F931F93CF93DF9300D0CDB7DEB7F62E57
:104430008A0190918206992311F057FF03C08FEFF4
:104440009FEF2BC0682FCE0101967A830E94F52141
:104450008091F20090E0A8017A81801791070CF416
:10446000AC01EF2DF72FF40E84E6FE1639F02898F4
:10447000809383069091F1009193F7CF41155105F8
:1044800021F08091F200882321F089818FBFCA0139
:1044900004C08BE68093E800F8CF0F900F90DF9177
:1044A000CF911F910F91FF900895CF93DF931F92AB
:1044B000CDB7DEB741E050E0BE016F5F7F4F0E9495
:1044C0000F22019719F4898190E002C08FEF9FEFCE
:1044D0000F90DF91CF910895CF93DF931F92CDB7C7
:1044E000DEB7682FCE0101960E94F5219091E80079
:1044F000892F807295FF04C09091F20080E4891B9F
:1045000099819FBF0F90DF91CF9108956F927F9215
:104510008F929F92AF92BF92CF92DF92EF92FF92D3
:104520000F931F93CF93DF931F92CDB7DEB7782EF3
:104530007B01C42EB52E80918206882369F0042F5A
:10454000152F8AEFD82E872D8072982E9AE3A92EE8
:10455000872D8074882E11C08FEF9FEF57C0872D55
:104560000E946C22682E81110CC0DA94A9F361E0DC
:1045700070E080E090E00E941E1D0115110579F7A2
:104580003BC0282F30E0021713070CF4602E672D74
:10459000CE0101960E94F5218091E80085FF29C097
:1045A000262D30E0021B130B992039F06A948FEF0F
:1045B0006816B1F01092F100F9CFF701862D77FE61
:1045C00007C0815058F094919093F1003196F9CF43
:1045D000815020F091919093F100FACFE20EF31EFA
:1045E0008091E80085FF0FC00115110511F48110BD
:1045F0000AC089818FBFC1CF5D9884E6809384060D
:104600008C2D9B2D03C0A092E800F3CF0F90DF917B
:10461000CF911F910F91FF90EF90DF90CF90BF90BF
:10462000AF909F908F907F906F9008951092E900C7
:1046300010927F0610927E0690937D0680937C06F2
:104640000895CF92DF92FF920F931F93CF93DF9342
:1046500000D0CDB7DEB7F82E8A016B010115110528
:10466000B1F0F601F7FE02C0849101C08081498358
:104670005A830E94512101501109FFEFCF1ADF0A1E
:1046800049815A818111EACF8FEF9FEF01C0CA01A2
:104690000F900F90DF91CF911F910F91FF90DF90BE
:1046A000CF900895BF92CF92DF92EF92FF920F9337
:1046B0001F93CF93DF936C018B01EB013BEFB32E84
:1046C0002097C1F07E01C134D1051CF020E4E22E18
:1046D000F12C8091E80082FFFCCFC8018C1B9D0B60
:1046E0006E2D8C0D9D1D0E944421B092E800CE19C4
:1046F000DF09E6CFC801DF91CF911F910F91FF90A5
:10470000EF90DF90CF90BF9008951F920F920FB659
:104710000F921124DF92EF92FF920F931F932F932A
:104720003F934F935F936F937F938F939F93AF9339
:10473000BF93EF93FF93CF93DF93CDB7DEB76C9723
:10474000DEBFCDBF1092E9008091E80083FF23C156
:1047500068E0CE0145960E94442182EF8093E800F4
:104760003D8937FF05C08091E80080FFFCCF03C082
:104770008EEF8093E800832F807609F0F0C02E89B9
:104780004F89D88C21110CC0303829F480918106D2
:104790008093F10002C01092F1001092F100F4C079
:1047A000842F90E09D29213049F43111EDC001970B
:1047B00009F0EAC0809181068D7F0AC0233059F448
:1047C0003111E2C0019709F0DFC08091810682605B
:1047D00080938106D9C0253041F48091E80080FFA4
:1047E000FCCF40684093E300CFC0263009F08DC075
:1047F000EB8CFC8C22E0D2122CC080E090E00E9476
:1048000016230E94DF2199E08E010F5F1F4FF801F0
:10481000292F11922A95E9F79983DA8291E09E83F4
:1048200090EA98879AEF998720917E0630917F06CB
:10483000275F3F4F3C832B838D83C7010E94162344
:1048400049E050E0B80180E00E9421230E94DF216E
:104850009BC0C7010E9416230E941B26BE016B5EEF
:104860007F4F0E94BD25009719F00CF08DC090C0BD
:1048700081E0D8120EC08B8D9C8D089719F481E0D1
:1048800080937B0680917B0681112FC061EE71E0E1
:1048900031C0E3E0DE127CC08F89882349F1823089
:1048A00029F440E862E186E092E01CC0813029F4FE
:1048B00040E862E183EF91E015C0833009F068C001
:1048C0000E941B268E010F5F1F4FB8010E94DC253E
:1048D000F80101900020E9F73197E01BF10B40E06F
:1048E0006E2FC8010E947F214DC06FEC71E002C0A5
:1048F00069E172E06115710509F44AC0FB01449158
:1049000050E080E80E9421233FC0273009F440C0D6
:10491000283021F481E08093F10036C02930A1F5E0
:104920003370B1F5E8E2F1E081E021E036E3908117
:10493000992361F08093E9002093EB00919190938B
:10494000EC003093ED008F5F873089F78EE780931E
:10495000EA001092EA008F898093820615C08B8D41
:104960009C8D0E941623898D811105C0CE0145962C
:104970000E94BC1E07C00E941B26BE016B5E7F4FBB
:104980000E94FB25882321F08EEF8093E80003C06E
:1049900081E28093EB006C960FB6F894DEBF0FBEF9
:1049A000CDBFDF91CF91FF91EF91BF91AF919F91DB
:1049B0008F917F916F915F914F913F912F911F91B7
:1049C0000F91FF90EF90DF900F900FBE0F901F9010
:1049D00018958093E9008091F200882319F08AE30A
:1049E0008093E80008951F920F920FB60F92112442
:1049F0002F933F934F935F936F937F938F939F93E7
:104A0000AF93BF93CF93EF93FF93C091E100809159
:104A1000E100837F8093E1008093E100C3FF0FC03A
:104A20001092E90081E08093EB001092EC0082E3A9
:104A30008093ED001092820688E08093F000C2FF20
:104A400019C083E00E94E92480918406882339F00C
:104A500080918406815080938406882389F1809117
:104A60008306882339F080918306815080938306E2
:104A7000882341F1C4FF10C08091E2008E7E8160E6
:104A80008093E2008091E1008F7E8093E10080912D
:104A900080068E7E806111C0C0FF16C08091E2004A
:104AA0008E7E80618093E2008091E1008E7E809313
:104AB000E100809180068E7E81608093800604C034
:104AC0005D9ACDCF289AD6CFFF91EF91CF91BF912C
:104AD000AF919F918F917F916F915F914F913F9196
:104AE0002F910F900FBE0F901F9018951092820675
:104AF00010928106109280060E94BC218091E100F4
:104B00008E7E8093E1008DE08093E200559A209A9A
:104B1000EEEFFFE7859194918B3F9C4D19F481E076
:104B20008093790608950895EF92FF920F931F9353
:104B3000CF93DF937B01FC01C281D38100E010E0C1
:104B4000209781F0E881F9810280F381E02DB7019F
:104B5000CE01099597FD08C0080F191F0884D98553
:104B6000C02DEECFC80102C08FEF9FEFDF91CF9134
:104B70001F910F91FF90EF9008950F931F93CF9384
:104B8000DF938B01FC01C281D381209771F0E88112
:104B9000F9810480F581E02DB801CE0109950097D7
:104BA00031F40884D985C02DF0CF80E090E0DF910A
:104BB000CF911F910F9108950F931F93CF93DF9380
:104BC0008B01FC01C281D381209771F0E881F981CA
:104BD0000680F781E02DB801CE010995080F111D5F
:104BE0000884D985C02DF0CFF8011082DF91CF91D4
:104BF0001F910F9108950F931F93CF93DF938B0114
:104C0000FC01C281D381209771F0E881F981019084
:104C1000F081E02DB801CE010995811106C008840C
:104C2000D985C02DF0CF80E001C081E0DF91CF9128
:104C30001F910F9108958091890681110DC082E026
:104C40008093850684E080938606109288061092F1
:104C5000870681E08093890685E896E0089550589C
:104C6000BB27AA270ED027C2F0D130F0F5D120F013
:104C700031F49F3F11F41EF4C0C10EF4E095E7FB40
:104C8000B6C1E92F3AD280F3BA17620773078407D7
:104C9000950718F071F49EF552C20EF4E0950B2EB4
:104CA000BA2FA02D0B01B90190010C01CA01A0017E
:104CB0001124FF27591B99F0593F50F4503E68F1D9
:104CC0001A16F040A22F232F342F4427585FF3CF1A
:104CD000469537952795A795F0405395C9F77EF4EB
:104CE0001F16BA0B620B730B840BBAF09150A1F034
:104CF000FF0FBB1F661F771F881FC2F70EC0BA0FBA
:104D0000621F731F841F48F4879577956795B79541
:104D1000F7959E3F08F0B3CF9395880F08F0992739
:104D2000EE0F97958795089590D158F080E891E01F
:104D300009F49EEF91D128F040E851E059F45EEF7C
:104D400009C05BC1FCC1E92FE078D7D168F3092E17
:104D5000052AC1F3261737074807590738F00E2EE2
:104D600007F8E02569F0E025E0640AC0EF6307F882
:104D7000009407FADB01B9019D01DC01CA01AD0114
:104D8000EF934AD098D10AD05F91552331F02BEDA3
:104D90003FE049E450FD49EC63CF0895DF93DD2700
:104DA000B92FBF7740E85FE31616170648075B0781
:104DB00010F4D92FCFD19F938F937F936F933AD2D3
:104DC000EAECF0E01DD177D12F913F914F915F91A7
:104DD000D4D1DD2349F09058A2EA2AED3FE049EC16
:104DE0005FE3D0785D274DDFDF9165C1DCD008F44B
:104DF00081E0089539D1E3956FC10CD05CC12CD10D
:104E000040F023D130F021F45F3F19F0F0C0511190
:104E100097C1F3C072D198F39923C9F35523B1F325
:104E2000951B550BBB27AA2762177307840738F019
:104E30009F5F5F4F220F331F441FAA1FA9F333D078
:104E40000E2E3AF0E0E830D091505040E695001C2C
:104E5000CAF729D0FE2F27D0660F771F881FBB1FE8
:104E6000261737074807AB07B0E809F0BB0B802DC2
:104E7000BF01FF2793585F4F2AF09E3F510568F00E
:104E8000B6C05EC15F3FECF3983EDCF38695779544
:104E90006795B795F7959F5FC9F7880F911D969510
:104EA000879597F90895E1E0660F771F881FBB1F6C
:104EB000621773078407BA0720F0621B730B840B19
:104EC000BA0BEE1F88F7E095089504D06894B111ED
:104ED00037C108951AD188F09F5790F0B92F9927BC
:104EE000B751A0F0D1F0660F771F881F991F1AF0F5
:104EF000BA95C9F712C0B13081F021D1B1E008955F
:104F00001EC1672F782F8827B85F39F0B93FCCF3DF
:104F1000869577956795B395D9F73EF490958095EA
:104F2000709561957F4F8F4F9F4F0895E89409C00A
:104F300097FB3EF490958095709561957F4F8F4FCC
:104F40009F4F9923A9F0F92F96E9BB279395F695E2
:104F5000879577956795B795F111F8CFFAF4BB0F60
:104F600011F460FF1BC06F5F7F4F8F4F9F4F16C0C4
:104F7000882311F096E911C0772321F09EE8872F4E
:104F8000762F05C0662371F096E8862F70E060E00A
:104F90002AF09A95660F771F881FDAF7880F969583
:104FA000879597F90895990F0008550FAA0BE0E827
:104FB000FEEF16161706E807F907C0F012161306DB
:104FC000E407F50798F0621B730B840B950B39F41B
:104FD0000A2661F0232B242B252B21F408950A2681
:104FE00009F4A140A6958FEF811D811D089597F9C1
:104FF0009F6780E870E060E008959FEF80EC08957F
:10500000DF93CF931F930F93FF92EF92DF927B0179
:105010008C01689405C0DA2EEF01AFD0FE01E89450
:10502000A5912591359145915591AEF3EF0129DE7A
:10503000FE019701A801DA9479F7DF90EF90FF90D5
:105040000F911F91CF91DF91089500240A941616B5
:10505000170618060906089500240A941216130666
:10506000140605060895C9CF50D0E8F3E894E0E0AF
:10507000BB279F57F0F02AED3FE049EC06C0EE0F4A
:10508000BB0F661F771F881F28F0B23A62077307AD
:10509000840728F0B25A620B730B840BE3959A9540
:1050A00072F7803830F49A95BB0F661F771F881F00
:1050B000D2F79048C8C0092E0394000C11F488233D
:1050C00052F0BB0F40F4BF2B11F460FF04C06F5FC0
:1050D0007F4F8F4F9F4F0895EF93E0FF06C0A2EAE6
:1050E0002AED3FE049EC5FEBCCDDE5DF0F90039468
:1050F00001FC9058E7EFF0E0B2C057FD9058440F24
:10510000551F59F05F3F71F04795880F97FB991F26
:1051100061F09F3F79F087950895121613061406E3
:10512000551FF2CF4695F1DF08C016161706180670
:10513000991FF1CF86957105610508940895E8944B
:10514000BB2766277727CB0197F908952CDF08F452
:105150008FEF08959B01AC0160E070E080E89FE371
:105160004CCE0BD0A8CF71DF28F076DF18F0952356
:1051700009F03DCF42CF1124E3CFBFDFA0F3959FCD
:10518000D1F3950F50E0551F629FF001729FBB272E
:10519000F00DB11D639FAA27F00DB11DAA1F649FDA
:1051A0006627B00DA11D661F829F2227B00DA11D8D
:1051B000621F739FB00DA11D621F839FA00D611D13
:1051C000221F749F3327A00D611D231F849F600D34
:1051D000211D822F762F6A2F11249F5750408AF06D
:1051E000E1F088234AF0EE0FFF1FBB1F661F771FF9
:1051F000881F91505040A9F79E3F510570F0F7CE9F
:105200009FCF5F3FECF3983EDCF3869577956795EB
:10521000B795F795E7959F5FC1F7FE2B880F911D16
:105220009695879597F908959F931EDF0F9007FC39
:10523000EE5F52CF9B01AC0194CFB5DE880B990B8A
:1052400008959F3F31F0915020F4879577956795A9
:10525000B795880F911D9695879597F908959F9317
:105260008F937F936F93FF93EF939B01AC0179DF53
:10527000EF91FF91C5DE2F913F914F915F9171CFDB
:10528000DB018F939F930E94C629BF91AF91A29F8C
:10529000800D911DA39F900DB29F900D1124089534
:1052A000991B79E004C0991F961708F0961B881F78
:1052B0007A95C9F780950895AA1BBB1B51E107C0D9
:1052C000AA1FBB1FA617B70710F0A61BB70B881F96
:1052D000991F5A95A9F780959095BC01CD01089525
:1052E000A1E21A2EAA1BBB1BFD010DC0AA1FBB1FEA
:1052F000EE1FFF1FA217B307E407F50720F0A21B5C
:10530000B30BE40BF50B661F771F881F991F1A94C8
:1053100069F760957095809590959B01AC01BD01F2
:10532000CF010895052E97FB1EF400940E94A92931
:1053300057FD07D00E94702907FC03D04EF40C944F
:10534000A92950954095309521953F4F4F4F5F4F7C
:10535000089590958095709561957F4F8F4F9F4FE1
:105360000895EE0FFF1F0590F491E02D0994A29F80
:10537000B001B39FC001A39F700D811D1124911D29
:10538000B29F700D811D1124911D08950E94B729AF
:10539000A59F900DB49F900DA49F800D911D112489
:1053A000089581E090E0F8940C94D629F894FFCF0A
:1053B0000000910680000F00F4010400D0070401F2
:1053C000911B911B911B911B911B01FFFFFFFF0084
:1053D000E100000000000000C180810000000180A9
:1053E00001800180FF7FFF7FFF7F564D4450565F55
:1053F000317C315F564D4450560D0A0000000000CC
:10540000AC027F0254025C026F027E02564D445091
:10541000435F005F564D4450430D0A004572726F62
:10542000723A20417474656D707420746F207365D6
:1054300074206120726561642D6F6E6C79207661D5
:10544000726961626C65206F72206461746120749E
:10545000797065206E6F7420737570706F727465EB
:10546000640D0A009C01B501CF01EA010702260282
:10547000470269028E02B502DE020A030000000044
:105480006A0F6F0F521E521E564D4450455F350035
:105490007C005F564D4450450D0A00564D44504522
:1054A0005F3600564D4450455F3300564D445045DD
:1054B0005F3100564D4450455F3400564D445045D1
:1054C0005F3200000000006A0F6F0FBB10E3100096
:1054D000000000541E9B1E7E1E8E1E6A1E7B1E6ECA
:0E54E000616E00696E66006F7666002E000039
:00000001FF
