:100000000C940D010C94C71E0C94EE1E0C94151F3D
:100010000C943C1F0C9435010C9435010C94631F17
:100020000C9435010C94BF0F0C94BD270C944F26F3
:100030000C9435010C9435010C9435010C94350168
:100040000C9435010C9435010C9435010C94350158
:100050000C9435010C9435010C9435010C948A1FD5
:100060000C9435010C9435010C9435010C94350138
:100070000C9435010C9435010C9435010C94350128
:100080000C9435010C9435010C9435010C94350118
:100090000C9445040C9435010C9435010C943501F5
:1000A0000C9435010C94590E0C943501AB20AE2004
:1000B0009D20A120A720CF20CF20CF20B220B62086
:1000C000BA20C020C420CF20CA20084AD73B3BCE4C
:1000D000016E84BCBFFDC12F3D6C74319ABD568347
:1000E0003DDA3D00C77F11BED9E4BB4C3E916BAAFF
:1000F000AABE000000803F05A84CCDB2D44EB9384E
:1001000036A9020C50B9918688083CA6AAAA2ABE34
:10011000000000803F000000000200090F00000303
:100120000401000C000000000000000000000000BE
:100130000000000000040802011040804010204030
:1001400080408008020401804020100201108010CD
:1001500020404020040404040403040502020202B7
:100160000403020202020606060606060404020250
:1001700002040400000000250028002B002E00319E
:1001800000080B0002020201000904000001020243
:1001900000000524001001052401010104240206C9
:1001A0000524060001070581031000400904010031
:1001B000020A000000070502024000000705830252
:1001C00040000012010002EF020140FB1F0023006B
:1001D00001010203011201000200000040FB1F00A8
:1001E00023000101020301506F6C6F6C7520436F97
:1001F00072706F726174696F6E00506F6C6F6C75A6
:1002000020412D53746172203332553400040309A8
:100210000400D5015B030B1E0E2211241FBECFEF7D
:10022000DAE0DEBFCDBF12E0A0E0B1E0E4E4F9E542
:1002300002C005900D92AA32B107D9F726E0AAE2D2
:10024000B2E001C01D92A539B207E1F712E0CAE1A0
:10025000D2E004C02297FE010E947D2CC231D1075A
:10026000C9F70E942C220C94A02C0C940000AF9291
:10027000BF92CF92DF92EF92FF920F931F9340EDC8
:1002800057E060E070E089E594E00E94E40520E03A
:1002900032EC41E050E06DE276E089E594E00E94C6
:1002A0009D0589E594E00E949A0569E371E08091DB
:1002B0008A0490918B040E9455226AE070E080E0ED
:1002C00090E00E94032041E060E089E594E00E9414
:1002D000560640E052EC61E070E08DE296E00E944C
:1002E000F9218AE292E00E94B61861E085E793E086
:1002F0000E94BB1061E085E793E00E94BE10A12C34
:10030000B12CC12CD12C76019701860140E050E040
:1003100060EB71E48AE292E00E94551BAA24A39448
:10032000B12C9BEDC92E9FE0D92E99E4E92E90E4E3
:10033000F92E00E010E020EB31EC40E050E060EB03
:1003400071E48AE292E00E94551B22E0A22EB12CB9
:1003500000E010E020EB31EC40E050E0BA018AE22E
:1003600092E00E94551B3BEDC32E3FE0D32E39ECAB
:10037000E32E3FE3F32E00E010E09801B901A8015D
:100380008AE292E00E94551B1F910F91FF90EF901F
:10039000DF90CF90BF90AF9008954BED5FE069EC98
:1003A0007FE38AE292E00C94F31C89EC96E7A6E5E1
:1003B000B0E480932A0290932B02A0932C02B09376
:1003C0002D0280E695EEA0E3BFE380932E0290938A
:1003D0002F02A0933002B093310284E19EE6A3E69F
:1003E000B4E48093320290933302A0933402B0932A
:1003F00035028DE09FEEAAE8B0E480933602909338
:100400003702A0933802B093390280E090E0A0E870
:10041000BFE380933A0290933B02A0933C02B093D7
:100420003D028AE393E00E94710687E493E00E9414
:10043000F9072998219A2D98259A2A98229A2E9878
:10044000269A80EA8093800081E18093810080E990
:1004500091E090938700809386001092890010921B
:10046000880010928B0010928A0008958091C90331
:1004700090E02091CA03821B910908952091CA033C
:100480008091C903281750F4E22FF0E0E553FC4FA8
:10049000808190E02F5F2093CA0308958FEF9FEF34
:1004A0000895E091CA038091C903E81730F4F0E0A1
:1004B000E553FC4F808190E008958FEF9FEF089502
:1004C0000895CF92DF92EF92FF920F931F93CF93F5
:1004D000DF937C01CB018A012091A503222389F0BF
:1004E000EB016B01C40ED51ECC15DD0569F06991D9
:1004F000D701ED91FC910190F081E02DC7010995A4
:10050000F3CF642F0E941C04C801DF91CF911F918B
:100510000F91FF90EF90DF90CF900895CF93DF93EE
:100520001F92CDB7DEB769832091A5032223D1F0B6
:100530002091A603203240F021E030E0FC0133831B
:10054000228380E090E015C08091A703E82FF0E0BF
:10055000E855FC4F998190838F5F8093A703809328
:10056000A60305C061E0CE0101960E941C0481E053
:1005700090E00F90DF91CF910895FC0113821282D9
:1005800048EE53E060E070E04483558366837783F0
:100590008FE491E09183808308951092CA031092B2
:1005A000C9031092A7031092A6030C945F0381E085
:1005B0008093A5036093C8031092A7031092A6032B
:1005C00008950F93062F21E04091A60368EA73E097
:1005D0008091C8030E94C5031092A7031092A6033E
:1005E0001092A5030F9108958F929F92AF92BF92A0
:1005F000CF92DF92EF92FF920F931F93CF93DF93EF
:10060000EC01F62ED42E48015901EE2019F10E947A
:10061000D7021E2D143008F013E01150B8F0E88115
:10062000F98128E0129FB0011124A501940104C0B2
:1006300056954795379527956A95D2F7CA01B9011E
:100640000190F081E02DCE010995E7CF60E0CE0169
:100650000E94E1024D2D413208F040E22C2D6BEC5E
:1006600073E08F2D0E947D031092CA038093C9030B
:10067000DF91CF911F910F91FF90EF90DF90CF907E
:10068000BF90AF909F908F900895CF92EF920F936D
:100690001F93C22EE12C00E010E098010E94F402AA
:1006A0001F910F91EF90CF90089521E00C94450396
:1006B00061E00C94E10289E993E00C94BD02109290
:1006C000580481E0809356041092550461E082E062
:1006D0000E94D02061E083E00E94D020E9EBF0E0AE
:1006E00080818E7F808380818D7F808388E480936A
:1006F000B80085E48093BC000895413208F043C0FF
:10070000909158049111FCCF91E09093580420935C
:1007100056042FEF2093EB0310923004240F209304
:100720002F049093570490915704880F892B80933E
:10073000570480915504813061F4109255048091E2
:1007400057048093BB008091BC0083FDF8CF85ECFB
:1007500001C085EE8093BC00809158048130E1F3A4
:1007600080913004841710F44091300421E334E088
:10077000FB01D9018A2F821B841718F48D91819374
:10078000F9CF842F089580E008950F93413208F047
:100790004AC0909158049111FCCF92E09093580474
:1007A000009356049FEF9093EB0310923004409314
:1007B0002F04FB0161E374E0DB019A2F961B941771
:1007C00018F491919D93F9CF10925704909157048A
:1007D000880F892B8093570480915504813061F4F0
:1007E00010925504809157048093BB008091BC0007
:1007F00083FDF8CF85EC01C085EE8093BC002223F9
:1008000021F0809158048230E1F38091EB038F3F17
:1008100061F08091EB03803251F08091EB038033E3
:1008200041F483E007C081E005C080E003C082E0BE
:1008300001C084E00F910895613298F4209158042A
:10084000243089F460930D04FC018FE094E0DC0116
:100850002A2F281B261718F421912D93F9CF80E019
:10086000089581E0089582E0089585ED8093BC00AD
:100870008091BC0084FDFCCF10925804089585EC53
:100880008093BC001092580408951F920F920FB6E7
:100890000F9211242F933F934F935F936F937F9306
:1008A0008F939F93AF93BF93EF93FF938091B90082
:1008B000887F803609F49EC078F5883209F45DC0DF
:1008C00090F4803109F456C038F4882309F4F5C057
:1008D000883009F44FC0F5C0883109F44EC0803229
:1008E00009F45FC0EEC0803409F46AC058F4803364
:1008F00009F457C0883309F0E4C08093EB030E94E9
:100900003F04DFC0803509F44FC0883509F45DC06D
:10091000883409F0D6C0D3C0883909F4C4C0A8F41B
:10092000883709F467C038F4883609F463C0803723
:1009300009F460C0C6C0883809F4B5C0803909F42C
:100940005FC0803809F0BDC05BC0803B09F483C044
:1009500038F4803A09F466C0883A09F47CC0B1C022
:10096000803C09F4A4C0883C09F4A1C0883B09F488
:1009700087C0A7C08091570410C090913004809127
:100980002F04981770F5E091300481E08E0F80936A
:100990003004F0E0EF5CFB4F80818093BB0085EC7E
:1009A00083C08093EB038BC0E091300481E08E0F15
:1009B000809330048091BB00F0E0EF5CFB4F8083BC
:1009C0009091300480912F046BC0E091300481E05D
:1009D0008E0F809330048091BB00F0E0EF5CFB4F02
:1009E00080838091560481116AC081E08093550410
:1009F00084EA5EC083E0809358041092EC03CFCF6A
:100A00008091EC03803208F04EC0E091EC0381E06D
:100A10008E0F8093EC038091BB00F0E0E351FC4F1C
:100A20008083BDCF0E943F048091EC03803230F47C
:100A3000E091EC03F0E0E351FC4F10826091EC0395
:100A400070E0E0915104F09152048DEE93E009952D
:100A50001092EC0336C084E08093580410920E0488
:100A600010920D04E0915304F09154040995809183
:100A70000D04811105C081E080930D0410920F04D4
:100A8000E0910E0481E08E0F80930E04F0E0E15FB0
:100A9000FB4F80818093BB0090910E0480910D04E8
:100AA000981708F47CCF85E88093BC000AC085ECD9
:100AB0008093BC001092580404C01092EB030E9473
:100AC0003504FF91EF91BF91AF919F918F917F91ED
:100AD0006F915F914F913F912F910F900FBE0F90AB
:100AE0001F9018950F931F93CF93DF93EC0166230C
:100AF00059F00E94D41F69837A838B839C83DF9192
:100B0000CF911F910F9108950E94D41F09811A81DE
:100B10002B813C81601B710B820B930B6132710541
:100B20008105910530F763E070E080E090E00E947D
:100B30000320EACF60E00C947205CF92DF92EF922F
:100B4000FF920F931F93CF93DF9300D000D0CDB7C8
:100B5000DEB78C017B01FC0172AB61AB8BE1C82E6F
:100B6000D12CC70129833A834B835C830E94FF21E8
:100B700029813A814B815C81811113C0F1E0CF1A48
:100B8000D10879F064E670E080E090E029833A8350
:100B90004B835C830E9403205C814B813A812981D5
:100BA000E0CFBA01A901F80181A992A90F900F9095
:100BB0000F900F90DF91CF911F910F91FF90EF90C9
:100BC000DF90CF900C94F921FC0113AA14AA15AA66
:100BD00016AA1182128213821482411551056105F1
:100BE000710521F0CB01BA010C94032008951F93E5
:100BF000CF93DF93EC01162F6BE571E089A99AA9D9
:100C00000E9455224AE050E0612F89A99AA90E94CA
:100C1000082362E671E089A99AA90E94552262E33D
:100C200070E080E090E0DF91CF911F910C94032061
:100C30001F93CF93DF93EC01162F8D81882389F1C9
:100C400089A99AA9DC01ED91FC910480F581E02D40
:100C50000995892BA9F307C02637310519F12835E5
:100C6000310509F41D8289A99AA9DC01ED91FC9155
:100C70000480F581E02D09951816190694F489A9C8
:100C80009AA9DC01ED91FC910680F781E02D099590
:100C90009C01332723363105F9F6612FCE010E94DE
:100CA000F70583E6DF91CF911F9108950F931F936E
:100CB000CF93DF931F92CDB7DEB78C01662349F047
:100CC00081E0F801858360E0C80149830E9418062D
:100CD0004981F80145830F90DF91CF911F910F91CA
:100CE0000895FC0183E090E0908787831386128645
:100CF00014860895EF92FF921F93CF93DF931F9274
:100D0000CDB7DEB77C01162FFC01618589E993E040
:100D100049830E94D702612F89E993E00E948E02E5
:100D20004981642F89E993E00E948E0289E993E06A
:100D30000E945803F70186830F90DF91CF911F9196
:100D4000FF90EF900895CF93DF93EC018F8198850A
:100D5000029729F440E069E3CE010E947A0640E060
:100D600063E2CE010E947A064FE660E2CE01DF9197
:100D7000CF910C947A069F92AF92BF92CF92DF925E
:100D8000EF92FF920F931F93CF93DF93EC0169854E
:100D900089E993E00E94D702E0919903F0919A03C8
:100DA0000190F081E02D68EA89E993E0099589E9ED
:100DB00093E00E94580346E0698589E993E00E9428
:100DC00055030E94D41F7B0189E993E00E943602FB
:100DD000069784F48A859B85892BB1F30E94D41FE2
:100DE0006E197F098A859B858617970768F781E0CA
:100DF0008C872CC089E993E00E943E02A82E89E9E5
:100E000093E00E943E02982E89E993E00E943E0200
:100E1000E82E89E993E00E943E02B82E89E993E02A
:100E20000E943E02F82E89E993E00E943E02D92CEE
:100E3000C12CCA28D982C8821B2D00E00E291B8331
:100E40000A83982F88278F299D838C83DF91CF91E8
:100E50001F910F91FF90EF90DF90CF90BF90AF90D8
:100E60009F9008951F93CF93DF931F92CDB7DEB766
:100E7000162F89E993E049830E94D7024981642FA4
:100E800089E993E00E948E0289E993E00E94580369
:100E9000811114C041E0612F89E993E00E9455035C
:100EA00089E993E00E943602892B41F089E993E0B9
:100EB0000F90DF91CF911F910C943E028FEF9FEF27
:100EC0000F90DF91CF911F910895EF92FF920F93B2
:100ED0001F93CF93DF937C01EB018A01633071058F
:100EE00021F04230510509F051C0CE01019703971E
:100EF00058F50115110581F04FE050E06BE6C70190
:100F00000E9432078F3F2FEF920719F001E010E0A7
:100F100013C00130110551F04FE050E06AE6C701FF
:100F20000E9432078F3FEFEF9E0721F4C330D105B7
:100F300069F027C000E010E0C330D10529F4873DF7
:100F40009105F1F5C2E0D0E02097D9F40115110523
:100F500061F04FE050E069E6C7010E943207833D2F
:100F6000910589F10130110549F04FE050E068E644
:100F7000C7010E943207833D910541F1C330D1057D
:100F800019F00230110511F480E025C0F701D08777
:100F9000C783209759F0D7FD11C023977CF4013007
:100FA000110511F48BE608C08AE606C00130110570
:100FB00011F489E601C088E6F701818781E00BC062
:100FC000C1E0D0E0C1CF01E010E002C000E010E0DD
:100FD000C0E0D0E0D6CFDF91CF911F910F91FF906D
:100FE000EF900895DC01ED91FC910190F081E02DEE
:100FF0000994CF93DF93EC0186E0EDE2F1E0DE01AE
:10100000529601900D928A95E1F786E0E3E3F1E0D4
:10101000DE011C9601900D928A95E1F784E090E044
:101020009A8F898F1CA61BA61DA6DF91CF910895CC
:10103000EF92FF921F93CF93DF931F92CDB7DEB74E
:101040007C01162FFC01638D89E993E049830E949E
:10105000D702612F89E993E00E948E024981642FB3
:1010600089E993E00E948E0289E993E00E94580387
:10107000F701808F0F90DF91CF911F91FF90EF903C
:101080000895EF92FF921F93CF93DF931F92CDB7F6
:10109000DEB77C01162FFC01648D89E993E049835A
:1010A0000E94D702612F89E993E00E948E02498154
:1010B000642F89E993E00E948E0289E993E00E94FF
:1010C0005803F701808F0F90DF91CF911F91FF9010
:1010D000EF900895FC01218D328D2330310511F000
:1010E000603210F40C9441080C941808CF93DF93ED
:1010F000EC01898D9A8D83309105D9F440E061E24D
:10110000CE010E946A0847E560E2CE010E946A08AB
:1011100044E664E2CE010E946A0840E265E2CE0144
:101120000E946A0840E066E2CE01DF91CF910C9404
:101130006A08029739F448E063E2CE010E94180879
:1011400047E406C040E063E2CE010E94180847E28F
:1011500060E2CE010E9418084CE060E0CE010E94DF
:10116000410840E261E0CE010E94410840E062E0B7
:10117000CE01DF91CF910C9441089F92AF92BF9224
:10118000CF92DF92EF92FF920F931F93CF93DF9353
:10119000EC016B8D89E993E00E94D70268EA70E068
:1011A00089E993E00E94F20789E993E00E945803DD
:1011B000888F46E06B8D89E993E00E9455030E9479
:1011C000D41F6B0189E993E00E943602069784F4EC
:1011D0008BA59CA5892BB1F30E94D41F6C197D09A6
:1011E0008BA59CA58617970768F781E08DA72CC073
:1011F00089E993E00E943E02A82E89E993E00E94CB
:101200003E02982E89E993E00E943E02C82E89E9A9
:1012100093E00E943E02B82E89E993E00E943E02CC
:10122000D82E89E993E00E943E02F92CE12CEA28AD
:10123000F982E8821B2D00E00C291B830A83982F7A
:1012400088278D299D838C83DF91CF911F910F91EA
:10125000FF90EF90DF90CF90BF90AF909F90089558
:10126000CF92DF92EF92FF920F931F93CF93DF9372
:10127000EC016C8D89E993E00E94D702898D9A8DEB
:10128000039721F469A17AA1606802C06F8D78A1EB
:1012900089E993E00E94F20789E993E00E945803EC
:1012A000888F46E06C8D89E993E00E9455030E9487
:1012B000D41F8B0189E993E00E943602069784F4DB
:1012C0008BA59CA5892BB1F30E94D41F601B710BC9
:1012D0008BA59CA58617970768F781E08DA767C047
:1012E000898D9A8D0397F9F489E993E00E943E0273
:1012F000C82E89E993E00E943E02D82E89E993E046
:101300000E943E02E82E89E993E00E943E02182FD7
:1013100089E993E00E943E02F82E89E993E00E9459
:101320003E02082F35C089E993E00E943E02D82E84
:1013300089E993E00E943E02C82E298D3A8D89E901
:1013400093E0232B99F40E943E02182F89E993E041
:101350000E943E02E82E89E993E00E943E02082F97
:1013600089E993E00E943E02F82E12C00E943E02DC
:10137000082F89E993E00E943E02F82E89E993E064
:101380000E943E02182F89E993E00E943E02E82E57
:101390006C2D70E07D297F836E834E2D50E0512BA4
:1013A000598748872F2D30E0302B3B872A87DF91E4
:1013B000CF911F910F91FF90EF90DF90CF90089504
:1013C000CF93DF93EC010E94BD08CE01DF91CF9156
:1013D0000C9430091F93CF93DF931F92CDB7DEB7E4
:1013E000162F89E993E049830E94D7024981642F2F
:1013F00089E993E00E948E0289E993E00E945803F4
:10140000811114C041E0612F89E993E00E945503E6
:1014100089E993E00E943602892B41F089E993E043
:101420000F90DF91CF911F910C943E028FEF9FEFB1
:101430000F90DF91CF911F910895EF92FF920F933C
:101440001F93CF93DF93EC018B017A016430710518
:1014500021F04230510509F055C0C80103970297A9
:1014600008F0CDC0E114F10471F04FE050E06DE1FF
:10147000CE010E94EA098934910509F4B8C081E0DF
:10148000E816F10451F04FE050E06EE1CE010E9409
:10149000EA098934910509F4AEC00430110509F058
:1014A000D0C0E114F10469F040E250E069E1CE01FE
:1014B0000E94EA09019679F421E0E216F10409F4A8
:1014C000A3C040E250E068E1CE010E94EA09019623
:1014D00009F0A4C099C00430110509F09BC04FE089
:1014E00050E06EE1CE010E94EA09EE24E394F12C73
:1014F000CC9709F0A9C002E010E082E0E816F10400
:1015000009F486C01A8F098F0130110569F124F49E
:10151000012B09F449C069C00230110541F10330C3
:10152000110509F062C0EA94EF2811F48DE101C0C1
:101530008EE18C8F8B8F88E090E09AA389A389E05D
:1015400090E098A38F8F8AE090E09EA38DA38BE01C
:1015500090E09CA38BA38CE090E09AA789A78DE0F4
:1015600090E098A78FA341C0EA94EF2811F489E195
:1015700001C088E18B8F8EE18C8F83E090E098A38F
:101580008F8F84E090E09AA389A387E090E09CA3EA
:101590008BA388E090E09EA38DA385E090E098A7C0
:1015A0008FA386E090E01FC0EA94EF2811F489E150
:1015B00001C088E18B8F8EE18C8F83E090E098A34F
:1015C0008F8F84E090E09AA389A385E090E09CA3AC
:1015D0008BA386E090E09EA38DA387E090E098A780
:1015E0008FA388E090E09AA789A781E030C0EE241D
:1015F000E394F12C02C0E12CF12C03E010E0033065
:10160000110508F44ECF79CF0430110509F075CFDC
:1016100080E01DC0EE24E394F12C6FCF043011055F
:1016200069F44FE050E06EE1CE010E94EA0931E03A
:1016300020E0CC9709F030E0032F122FE12CF12CA1
:101640005CCF03E010E059CF00E010E056CFDF910F
:10165000CF911F910F91FF90EF9008959091920478
:10166000E0919604F0919704992311F0849101C0C0
:1016700080812FEB280F2A3110F4805E089580328C
:1016800049F49F012F5F3F4F3093970420939604B6
:10169000EF2B31F708951F93CF93DF930E942E0B0A
:1016A000C0E0D0E01AE090ED980F9A30B8F49E01B7
:1016B000129FE001139FD00D1124C80FD11D87FD8B
:1016C000DA95E09780919604909197040196909313
:1016D0009704809396040E942E0BE5CFCE01DF91F4
:1016E000CF911F910895109272001092C00084E073
:1016F0008093C10089E08093C20081E08093C300A1
:10170000EFEBF0E083E0808388EE8093D1001082DD
:101710001092D200579A789408952F923F924F9248
:101720005F926F927F928F929F92AF92BF92CF9271
:10173000DF92EF92FF920F931F93CF93DF93CDB77A
:10174000DEB727970FB6F894DEBF0FBECDBF7C0182
:101750001B014D8380919804811105C081E0809325
:1017600098040E94730B10920F01F7FE04C0E894D6
:10177000F7F81AE001C011E088E2189F802D1124CB
:10178000282F30E03F832E832E153F0510F4FF8273
:10179000EE82113049F44E815F814131574220F091
:1017A000E0E1F7E2FF83EE83812E912CA12CB12C96
:1017B0008E819F81969587959C0140E050E029831A
:1017C0003A834B835C834E815F812A01612C712CAB
:1017D000A501940160E072E18AE790E00E940A2C82
:1017E00029813A814B815C81620F731F841F951F91
:1017F000A30192010E945C2C69017A01EE24FF246E
:1018000000E00F5FC11434E0D306E104F10408F1F5
:1018100020E032E14AE750E0002E04C0559547959C
:10182000379527950A94D2F7C501B4010E940A2C76
:1018300029813A814B815C81620F731F841F951F40
:10184000A30192010E945C2C69017A01EE24FF241D
:10185000D8CF1A3049F48E819F8105966AE070E0F6
:101860000E94262C7F836E834E815F81483E83E0F9
:10187000580759F09101DA010E94812C28EE33E0DB
:1018800040E050E00E945C2C19011092720080919F
:10189000C100807F802B8093C100BB27AF2D9E2D80
:1018A0008D2D8093BF00C092D1002D81203108F092
:1018B0002FE080E190E0821B910904C0F694E79448
:1018C000D794C7948A95D2F78D2D99278093BF001E
:1018D000C092D200309295042092940489B38FEF85
:1018E00089BB84E08093720027960FB6F894DEBF20
:1018F0000FBECDBFDF91CF911F910F91FF90EF9061
:10190000DF90CF90BF90AF909F908F907F906F901F
:101910005F904F903F902F900895CF93DF93EB010E
:101920008F3F11F0411105C040E0BE0188EE93E009
:1019300043C0813130F050EF580F503618F05FE55A
:1019400001C050E0852F6CE00E941A2C682F74EFC4
:10195000760390011124250F311D2C30310540F400
:10196000F901EE0FFF1FED54FE4F2081318102C0BF
:1019700020E030E0873081F0082E02C0220F331FB4
:101980000A94E2F7823028F0C90105966AE070E017
:101990000CC0C90190580CC0C90136E0880F991FCE
:1019A0003A95E1F7029665E070E00E94262CCB01A3
:1019B000403108F04FE0BE01DF91CF910C948D0BC8
:1019C0004F925F926F927F928F929F92AF92BF924F
:1019D000CF92DF92EF92FF920F931F93CF93DF93FB
:1019E00000D0CDB7DEB790900E018091910488238E
:1019F00021F060919004611117C077247394B0ECCA
:101A0000AB2EBDE5BB2E1AE0612E04E0802E80EDEA
:101A1000C82E87E0D82E94E0E92EF12C04EF11E0D7
:101A20002FE0422E512C15C070E040E088EE93E08C
:101A30000E948D0B1092900429C18636D4F5813610
:101A400009F4A9C07CF58C3309F460C08E3381F4AD
:101A500093940E942E0B20919604309197042F5F4F
:101A60003F4F3093970420939604853631F752C048
:101A7000813209F08BC080920E01D0920D01C0928C
:101A80000C01F0920B01E0920A01109309010093FE
:101A90000801509207014092060110929104A4E0BF
:101AA0009A2ED7CF8336A1F10CF478C010E082E0F3
:101AB00077C08D36C1F194F4873691F174F18C368C
:101AC00009F064C00E944B0BBC0190930B01809302
:101AD0000A0180910C0190910D0151C08237C9F12A
:101AE0004CF48F3609F052C00E944B0B982E809315
:101AF0000E01AFCF843781F1863709F047C00E94CD
:101B00004B0B9093070180930601A3CF9A94A1CF2A
:101B100010E020C010E084E043C010E085E040C049
:101B200010E087E03DC00E942E0B8C3619F4109215
:101B3000910404C070929104109290042091960434
:101B4000309197042F5F3F4F309397042093960472
:101B500080CF11E080E024C00E944B0BBC01C50186
:101B60000E94262C669EC001679E900D11249093C2
:101B70000D0180930C0160910A0170910B010E948C
:101B8000262C709309016093080163CF109297048B
:101B9000109296047BC010E089E002C010E08BE058
:101BA000082F9CE0999E000D11240E942E0B982F67
:101BB000977F933261F420919604309197042F5FC0
:101BC0003F4F30939704209396040F5FEECF8D32F2
:101BD00071F420919604309197042F5F3F4F30931A
:101BE00097042093960401500E942E0BF0CF609131
:101BF0000801709109018153883050F4E0900C0184
:101C0000F0900D010E944B0BBC01C7010E94262CD5
:101C10007B01F694E79469837A830E942E0B698195
:101C20007A818E3269F420919604309197042F5F67
:101C30003F4F30939704209396046E0D7F1DE9CF9C
:101C400080919104882339F09B0136952795209344
:101C50009004621B710940910601112311F08FEF6E
:101C600001C0802F0F900F90DF91CF911F910F91A6
:101C7000FF90EF90DF90CF90BF90AF909F908F90AC
:101C80007F906F905F904F900C948D0C0F900F9001
:101C9000DF91CF911F910F91FF90EF90DF90CF9048
:101CA000BF90AF909F908F907F906F905F904F907C
:101CB00008951F920F920FB60F9211242F933F9306
:101CC0004F935F936F937F938F939F93AF93BF9344
:101CD000EF93FF9380919404909195049C0121507F
:101CE00031093093950420939404892B11F51092B7
:101CF000720078948091C100807F84608093C100DD
:101D000083E08093BF0088EE8093D1001092BF00E3
:101D10001092D20081E080930F01809196049091FF
:101D20009704892B31F080919304811102C00E94A5
:101D3000E00CFF91EF91BF91AF919F918F917F91B7
:101D40006F915F914F913F912F910F900FBE0F9028
:101D50001F901895FC01138212828FEC91E0918301
:101D60008083148208951F93CF93DF93EC01162F85
:101D700064600E942D0F1E83DF91CF911F91089503
:101D8000CF93DF93EC01E881F9810480F581E02DA8
:101D9000099563E0CE010E94290F8FE991E4019734
:101DA000F1F700C0000063E0CE010E94290F87E533
:101DB00092E00197F1F700C0000063E0CE010E94BD
:101DC000290F62E0CE010E94290F68E2CE010E9435
:101DD0002D0F60E0CE010E945F0FCE010E94310FF7
:101DE00062E0CE010E94B30E64E0CE01DF91CF919C
:101DF0000C945F0F0F931F93CF93DF9300D01F922C
:101E0000CDB7DEB78C01DC0114968C91149781114B
:101E10000CC081E014968C93C8012B834A8369839C
:101E20000E94C00E69814A812B81D801ED91FC91FD
:101E30000680F781E02DC8010995B5ECBA95F1F758
:101E400000000F900F900F90DF91CF911F910F9195
:101E5000089521E040E00C94FA0E20E040E00C945C
:101E6000FA0E61E00E942D0F8FE39FE10197F1F7D9
:101E700000C000000895CF93DF9300D000D0CDB70D
:101E8000DEB720E8298320EC2A8324E92B8324ED84
:101E90002C83443008F043E0FE01E40FF11D218162
:101EA000260F622F0E942D0F85EC8A95F1F7000016
:101EB0000F900F900F900F90DF91CF9108951F9387
:101EC000CF93DF93EC01162F68600E942D0F1D83C6
:101ED000DF91CF911F91089520E041E00C94FA0E1C
:101EE0000E946C0F81E090E00895CF92DF92EF9214
:101EF000FF920F931F93CF93DF937C018A01EB0135
:101F00006B01C40ED51ECC15DD0529F06991C70102
:101F10000E946C0FF8CFC801DF91CF911F910F91F4
:101F2000FF90EF90DF90CF9008954FB141705CB17A
:101F300056FB552750F954278091A0046091A104C5
:101F400020919A0430919B04852790E06427861B9A
:101F50009109820F931F90939B0480939A04909110
:101F6000A1048091A004591729F0481719F081E0C5
:101F700080939F045093A1044093A00408951F925E
:101F80000F920FB60F9211242F933F934F935F93AD
:101F90006F938F939F932CB130E0359527953595AE
:101FA0002795422F417083B190E054E09595879535
:101FB0005A95E1F782279327582F51708091A204F8
:101FC0006091A30420919C0430919D04852790E0AA
:101FD0006427861B9109820F931F90939D04809321
:101FE0009C049091A3048091A204591729F04817EA
:101FF00019F081E080939F045093A3044093A204BE
:102000009F918F916F915F914F913F912F910F9081
:102010000FBE0F901F90189524982C9A6A98729A68
:102020006E98769A8098889A81E08093680090E113
:1020300090936B008BBB41E050E065E97FE084E06A
:102040000E94771E8CB182FB882780F98170809373
:10205000A20493B18091A2049295917089278093F4
:10206000A30410929D0410929C0410929F048FB1BF
:1020700081708093A0049CB18091A00496FB992765
:1020800090F989278093A10410929B0410929A04DE
:1020900010929E04089580919904811105C081E0F9
:1020A000809399040C940C1008950E944B10F8949E
:1020B00080919C0490919D0410929D0410929C0428
:1020C000789408950E944B10F89480919A0490910E
:1020D0009B0410929B0410929A04789408959B019B
:1020E00020573E4F2132334040F060377E4F1CF086
:1020F00060E971E002C060E77EEFFC01718F608FE4
:1021000077FF05C071956195710981E001C080E09C
:1021100070938B0060938A009091A504891711F049
:102120002A9A01C02A98229A08959B0120573E4F6F
:102130002132334040F060377E4F1CF060E971E09F
:1021400002C060E77EEFFC01738F628F77FF05C0EE
:1021500071956195710981E001C080E070938900FB
:10216000609388009091A404891711F0299A01C006
:102170002998219A08956093A50408956093A40472
:1021800008955B98539A0895CF93DF93EC01C55B54
:10219000DE4F60E070E0CE010E946F1060E070E002
:1021A000CE01DF91CF910C94951060FF02C02B9A65
:1021B00001C02B98239A61FF02C0289A01C0289879
:1021C000209A62FF02C0479A01C047983F9A63FF76
:1021D00002C05D9A01C05D98559A5B9A539A85E05A
:1021E0008A95F1F700005B98539A85E08A95F1F79C
:1021F00000000895CF92DF92EF92FF920F931F930A
:10220000CF93DF9300D000D01F92CDB7DEB76C0123
:10221000162F0091E2001092E200F090E900109277
:10222000E900E090F0001092F00030E05A9931603F
:1022300052993260398330E02B99316023993260B2
:102240003A8330E028993160209932603B8330E056
:10225000479931603F9932603C8330E05D9931604D
:10226000559932603D83442311F05A9A01C05A981F
:10227000529A21110AC0612F70E084E0759567952C
:102280008A95E1F7C6010E94D510612F6F70C601D3
:102290000E94D5102D8121FB0EF0559820FB0EF0E9
:1022A0005D980EF45D9A21FB0EF4559A3C8131FB4A
:1022B0000EF03F9830FB0EF047980EF4479A31FB32
:1022C0000EF43F9A2B8121FB0EF0209820FB0EF09C
:1022D00028980EF4289A21FB0EF4209A3A8131FBBB
:1022E0000EF0239830FB0EF02B980EF42B9A31FB56
:1022F0000EF4239A298121FB0EF0529820FB0EF058
:102300005A980EF45A9A21FB0EF4529A1092E90050
:10231000E092F000F092E9000093E2000F900F903D
:102320000F900F900F90DF91CF911F910F91FF9021
:10233000EF90DF90CF9008954F925F926F927F92CF
:102340008F929F92AF92BF92CF92DF92EF92FF92C5
:10235000CF93DF93EC010E9455109DA78CA70E949C
:1023600062107C019FA78EA76CA57DA5882777FDAD
:102370008095982F0E94622A9B01AC010E94E72B56
:10238000882311F01DA61CA6B701882777FD80952C
:10239000982F0E94622A9B01AC010E94E72B8823A0
:1023A00011F01FA61EA64C845D846E847F848884F1
:1023B0009984AA84BB846CA57DA5882777FD809528
:1023C000982F0E94622AA30192010E947B2BA501F3
:1023D00094010E94C7296B017C016CAB7DAB8EAB75
:1023E0009FAB6EA57FA5882777FD8095982F0E94CB
:1023F000622AA30192010E947B2BA50194010E94F5
:10240000C72968AF79AF8AAF9BAFA70196010E9439
:10241000FA2820E030E040E05FE30E947B2B6CAFC5
:102420007DAF8EAF9FAFDF91CF91FF90EF90DF90A8
:10243000CF90BF90AF909F908F907F906F905F9064
:102440004F900895EF92FF920F931F93CF93DF93D6
:10245000EC017A018901FB012081318142815381A4
:10246000688D798D8A8D9B8D0E94FA28688F798F6F
:102470008A8F9B8FF70120813181428153816C8D3E
:102480007D8D8E8D9F8D0E94FA286C8F7D8F8E8F13
:102490009F8FF80120813181428153816C897D8930
:1024A0008E899F890E94FA286C8B7D8B8E8B9F8BE7
:1024B000DF91CF911F910F91FF90EF9008952F9290
:1024C0003F924F925F926F927F928F929F92AF92C4
:1024D000BF92CF92DF92EF92FF920F931F93CF9311
:1024E000DF9300D000D0CDB7DEB78B019C0128511F
:1024F0003F4F3C832B83D9014D905D906D907C9034
:10250000FC01EC50FF4F40825182628273821C01B9
:10251000BCEE2B0E311CF10180809180A280B38033
:102520003C9680829182A282B3823496285F3F4F8C
:102530003A832983D9014D915D916D917C914083BE
:10254000518362837383B497C080D180E280F3802B
:10255000C701B6010E94C429F8012081318142815E
:1025600053810E947B2B9B01AC01C301B2010E94ED
:10257000FA28AB81BC816D937D938D939C931397C7
:10258000C701B6010E94DE2BF80120813181428112
:1025900053810E947B2B9B01AC01C501B4010E94B9
:1025A000FA28D1016D937D938D939C931397E981C4
:1025B000FA81C082D182E282F3820F900F900F9055
:1025C0000F90DF91CF911F910F91FF90EF90DF90CF
:1025D000CF90BF90AF909F908F907F906F905F90C3
:1025E0004F903F902F9008950F931F93CF93DF93B9
:1025F000EC018C0108571F4F29E732E240E259E312
:10260000F80160817181828193810E947B2BF801A6
:1026100060837183828393830C5F1F4F29E732E2CB
:1026200040E259E3F80160817181828193810E94C7
:102630007B2BF8016083718382839383C057DF4FC4
:1026400029E732E240E259E3688179818A819B81FE
:102650000E947B2B688379838A839B83DF91CF9150
:102660001F910F9108950F931F93CF93DF93EC0168
:102670008C0104551F4F21E43AED4FE758E3F80170
:1026800060817181828193810E947B2BF80160833C
:102690007183828393830C5F1F4F21E43AED4FE7F0
:1026A00058E3F80160817181828193810E947B2BC4
:1026B000F8016083718382839383CC54DF4F21E4DC
:1026C0003AED4FE758E3688179818A819B810E94C6
:1026D0007B2B688379838A839B83DF91CF911F91C2
:1026E0000F9108952F923F924F925F926F927F9237
:1026F0008F929F92AF92BF92CF92DF92EF92FF9212
:102700000F931F93CF93DF9300D000D0CDB7DEB7E8
:102710009C838B837C0120EFE21A2EEFF20AC70123
:102720000E94BB06EB81FC81EC5EFE4F60817181F3
:10273000882777FD8095982F0E94622A4B015C01C3
:10274000EB81FC81E05CFF4F4080518062807380B0
:10275000A30192010E94702B0B811C8100571F4F17
:1027600087FF0AC0A30192015058C501B4010E941D
:10277000C02918160CF45CC0CB80DC8038E8C30E8E
:10278000D11CF70160817181882777FD8095982F92
:102790000E94622AEB81FC81E056FF4F208131814B
:1027A000428153810E94F928F601608371838283FC
:1027B0009383EB80FC80FCE8EF0EF11CEB81FC8145
:1027C000EE5EFE4F60817181882777FD8095982F9E
:1027D0000E94622AEB81FC81EC55FF4F2081318100
:1027E000428153810E94F928F701608371838283BB
:1027F0009383F80180819181A281B381EB81FC8177
:10280000E456FF4F80839183A283B383EB81FC81E5
:10281000E855FF4F2081318142815381C501B401C8
:102820000E94F928F801608371838283938305C035
:10283000F80110821182128213820B811C81035EC7
:102840001E4FC8010E94E009F8016081718188274C
:1028500077FD8095982F0E94622A6B017C012B8066
:102860003C80F4E42F0E311CF101408051806280E5
:102870007380E89477F8A3019201C301B2010E942A
:10288000FA289B01AC01C701B6010E94702B2B8175
:102890003C8124553F4F590187FF10C020E030E0B4
:1028A00040E050ECC301B2010E947B2B9B01AC01C4
:1028B000C701B6010E94C029181694F0EB81FC8173
:1028C000EC53FF4F2081318142815381C701B60112
:1028D0000E94F928F501608371838283938305C088
:1028E000F5011082118212821382EB81FC81E15E7C
:1028F000FE4F60817181882777FD8095982F0E9417
:10290000622A6B017C018B809C80F8E48F0E911C05
:10291000F4014080518062807380E89477F8A301CD
:102920009201C301B2010E94FA289B01AC01C701C8
:10293000B6010E94702B0B811C8100551F4F87FF31
:1029400010C020E030E040E050ECC301B2010E9432
:102950007B2B9B01AC01C701B6010E94C029181650
:1029600094F0EB81FC81E853FF4F2081318142815B
:102970005381C701B6010E94F928F8016083718371
:102980008283938305C0F801108211821282138220
:10299000EB81FC81EF5DFE4F60817181882777FDBF
:1029A0008095982F0E94622A6B017C01EB81FC814B
:1029B000E45BFF4F4080518062807380A3019201ED
:1029C0000E94702B2B813C812C543F4F3A832983EA
:1029D00087FF09C0A30192015058C701B6010E94A8
:1029E000C029181694F0EB81FC81E453FF4F20813D
:1029F000318142815381C701B6010E94F928E981E2
:102A0000FA8160837183828393838B819C810E948E
:102A100033138B819C810E94F41289E594E00E941B
:102A20009A0567ED71E080918A0490918B040E9471
:102A300055226FED71E080918A0490918B040E9481
:102A40005522F501408151816281738122E030E09D
:102A500080918A0490918B040E94FA236FED71E0BB
:102A600080918A0490918B040E945522F801408144
:102A700051816281738122E030E080918A049091DB
:102A80008B040E94FA236FED71E080918A0490918B
:102A90008B040E945522E981FA8140815181628133
:102AA000738122E030E080918A0490918B040E942F
:102AB000FA236FED71E080918A0490918B040E945B
:102AC0005522F101408151816281738122E030E021
:102AD00080918A0490918B040E94FA236FED71E03B
:102AE00080918A0490918B040E945522F4014081C8
:102AF00051816281738122E030E080918A0490915B
:102B00008B040E94FA2361EE71E080918A04909117
:102B10008B040E94552262E070E080E090E00F900C
:102B20000F900F900F90DF91CF911F910F91FF9019
:102B3000EF90DF90CF90BF90AF909F908F907F905D
:102B40006F905F904F903F902F900C9403202F92A6
:102B50003F924F925F926F927F928F929F92AF922D
:102B6000BF92CF92DF92EF92FF920F931F93CF937A
:102B7000DF93CDB7DEB72C970FB6F894DEBF0FBE4C
:102B8000CDBF8C01FC01E05CFF4F108211821282EC
:102B9000138224EF31E03C872B87805F9E4F9E831A
:102BA0008D83180198E8290E311CE45BFF4FFA83EE
:102BB000E98398012E5E3E4F38872F83C8018057E6
:102BC0009F4F9C838B83E857FF4FFA87E9878D815E
:102BD0009E810E94BB06ED81FE8160817181882704
:102BE00077FD8095982F0E94622AF1012081318122
:102BF000428153810E94FA282B013C01F10160833C
:102C0000718382839383EF81F88580819181BC01F8
:102C1000882777FD8095982F0E94622AE981FA81A2
:102C200020813181428153810E94FA284B015C014D
:102C3000E981FA816083718382839383E985FA85D0
:102C400080819181BC01882777FD8095982F0E9413
:102C5000622AEB81FC8120813181428153810E9473
:102C6000FA286B017C01EB81FC8160837183828394
:102C700093832B853C85215031093C872B87232B5F
:102C800009F0A5CF180130EA230E311C20E030E016
:102C90004AEF53E4C301B2010E94C729F1016083E6
:102CA0007183828393833801F4EA6F0E711C20E0F4
:102CB00030E04AEF53E4C501B4010E94C729F30193
:102CC00060837183828393835801F8EAAF0EB11C4D
:102CD00020E030E04AEF53E4C701B6010E94C72963
:102CE000F501608371838283938394EF292E3324CB
:102CF000339498012C5E3E4F3C832B83B886AF8281
:102D0000C801805C9F4F9A8789878D819E810E9430
:102D1000BB06EB81FC810190F081E02DFA83E98311
:102D2000EF81F88580809180A280B38029813A81EB
:102D3000B901882777FD8095982F0E94622AA50106
:102D400094010E94F9286B017C01E985FA85408095
:102D5000518062807380A30192010E94702B18162B
:102D60003CF4E985FA85C082D182E282F3821EC0FA
:102D7000A30192015058C701B6010E94C02987FFE4
:102D800015C069817A81719561957109882777FDF0
:102D90008095982F0E94622AA50194010E94F9282B
:102DA000E985FA856083718382839383F1E02F1A2A
:102DB000310809F0AACF20E030E04AEF53E4E9857A
:102DC000FA8560817181828193810E94C729E9859A
:102DD000FA856083718382839383F801E857FF4FFC
:102DE0001082118212821382349610821182128212
:102DF0001382349610821182128213822C960FB69F
:102E0000F894DEBF0FBECDBFDF91CF911F910F9120
:102E1000FF90EF90DF90CF90BF90AF909F908F90FA
:102E20007F906F905F904F903F902F9008952F92DA
:102E30003F924F925F926F927F928F929F92AF924A
:102E4000BF92CF92DF92EF92FF920F931F93CF9397
:102E5000DF93CDB7DEB72C970FB6F894DEBF0FBE69
:102E6000CDBF1C0124EF31E03C872B87835E9E4F52
:102E70009C838B83810104551F4FF101E055FF4F67
:102E8000FA83E9839101215E3E4F38872F8389566B
:102E900091099E838D83EF58FF4FFA87E9878B81D5
:102EA0009C810E94E009EB81FC816081718188270F
:102EB00077FD8095982F0E94622AF8012081318148
:102EC000428153810E94FA282B013C01F801608362
:102ED000718382839383EF81F88580819181BC0126
:102EE000882777FD8095982F0E94622AE981FA81D0
:102EF00020813181428153810E94FA284B015C017B
:102F0000E981FA816083718382839383E985FA85FD
:102F100080819181BC01882777FD8095982F0E9440
:102F2000622AED81FE8120813181428153810E949C
:102F3000FA286B017C01ED81FE81608371838283BD
:102F400093832B853C85215031093C872B87232B8C
:102F500009F0A5CFC1018C539F4F98878F8320E044
:102F600030E04AEF53E4C301B2010E94C729EF8168
:102F7000F8856083718382839383810108531F4F97
:102F800020E030E04AEF53E4C501B4010E94C729B4
:102F9000F80160837183828393830C5F1F4F20E06D
:102FA00030E04AEF53E4C701B6010E94C729F80197
:102FB000608371838283938304EF11E09101205F2A
:102FC0003E4F3E832D83C1018C5B9F4F9A8789873B
:102FD0008D819E810E94BB06EB81FC810190F08176
:102FE000E02DFA83E983EF81F88580809180A280CB
:102FF000B38029813A81B901882777FD8095982F80
:103000000E94622AA50194010E94F9286B017C01AB
:10301000E985FA854080518062807380A301920126
:103020000E94702B18163CF4E985FA85C082D18283
:10303000E282F3821EC0A30192015058C701B6017B
:103040000E94C02987FF15C069817A8171956195B9
:103050007109882777FD8095982F0E94622AA50123
:1030600094010E94F928E985FA856083718382833F
:1030700093830150110909F0ABCF04EF11E09101E6
:10308000215E3E4F3C832B83C10188539F4F9A831F
:103090008983F101E85BFF4FF887EF838D819E8183
:1030A0000E94BB06EB81FC8120803180E981FA819E
:1030B00080809180A280B380B101882777FD8095C0
:1030C000982F0E94622AA50194010E94F9286B01A1
:1030D0007C01EF81F8854080518062807380A3017C
:1030E00092010E94702B18163CF4EF81F885C08283
:1030F000D182E282F3821DC0A30192015058C70120
:10310000B6010E94C02987FF14C06627772762197D
:103110007309882777FD8095982F0E94622AA50160
:1031200094010E94F928EF81F8856083718382837E
:1031300093830150110909F0B1CF2C960FB6F89482
:10314000DEBF0FBECDBFDF91CF911F910F91FF90DA
:10315000EF90DF90CF90BF90AF909F908F907F9037
:103160006F905F904F903F902F9008950F931F9313
:10317000CF93DF93EC01FC01E559FE4F10821182E1
:1031800012821382349710821182128213821DA63A
:103190001CA61FA61EA61CA21DA21EA21FA218A628
:1031A00019A61AA61BA61C8E1D8E1E8E1F8E188E8B
:1031B000198E1A8E1B8E1C8A1D8A1E8A1F8AE75939
:1031C000F1091082118212821382349610821182C8
:1031D00012821382349610821182128213823496E4
:1031E000108211821282138234961082118212820E
:1031F00013823496108211821282138234961082C6
:1032000011821282138234961082118212821382EA
:1032100034961082118212821382349610821182A7
:103220001282138234961082118212821382349693
:103230001082118212821382E457F10910821182E6
:103240001282138234961082118212821382349673
:10325000108211821282138234961082118212829D
:103260001382349610821182128213823496108255
:10327000118212821382709610821182128213823E
:103280003496108211821282138234961082118237
:103290001282138234961082118212821382349623
:1032A000108211821282138234961082118212824D
:1032B000138219AA18AA1BAA1AAA89E993E00E94E4
:1032C000CD0280912106811107C081E08093210603
:1032D0008DE196E00E94C00E80919904811105C095
:1032E00081E0809399040E940C108E01005F1E4FB4
:1032F00042E050E063E070E0C8010E946507C80149
:103300000E94A306035F1F4F42E050E064E070E0BC
:10331000C8010E941D0AC8010E947608CE010E94C1
:10332000A715CE010E9417170E945510DF91CF916B
:103330001F910F910C9462104F925F926F927F9247
:103340008F929F92AF92BF92CF92DF92EF92FF92B5
:103350000F931F93CF93DF93EC0128013901FC01F8
:10336000E055FF4F80809180A280B3802DEC3CEC33
:103370004CE45DE3C501B4010E94702BC455DF4FDE
:10338000181664F02DEC3CEC4CE45DE36881798127
:103390008A819B810E94702B18165CF428813981E8
:1033A0004A815B81C501B4010E946D294B015C011A
:1033B00003C0812C912C540128E431EE4AE75FE3ED
:1033C000C301B2010E947B2B2B013C0120E037EDB1
:1033D00043EA5CE3C501B4010E947B2B9B01AC0175
:1033E000C301B2010E94FA282B013C0189E594E057
:1033F0000E949A056AEE71E080918A0490918B0494
:103400000E9455226FED71E080918A0490918B04A7
:103410000E94552222E030E0B301A20180918A048B
:1034200090918B040E94FA236FED71E080918A04E1
:1034300090918B040E94552222E030E0B501A40156
:1034400080918A0490918B040E94FA2361EE71E0CE
:1034500080918A0490918B040E94552262E070E072
:1034600080E090E00E9403202DEC3CEC4CEC5DE30E
:10347000C301B2010E947B2B4B015C0126E636E6BC
:1034800046E65FE3C701B6010E947B2B9B01AC01BE
:10349000C501B4010E94FA28DF91CF911F910F91CD
:1034A000FF90EF90DF90CF90BF90AF909F908F9064
:1034B0007F906F905F904F9008952F923F924F9220
:1034C0005F926F927F928F929F92AF92BF92CF92B4
:1034D000DF92EF92FF920F931F93CF93DF9300D071
:1034E00000D000D0CDB7DEB79E838D837A83698309
:1034F000F901FC82EB825C0188EDA80EB11CD501BC
:103500004D905D906D907C90AD81BE81AC51BF4F70
:103510004D925D926D927C921397DA012D913D91BF
:103520004D915C9160817181828193810E94F92823
:10353000ED81FE8120813181428153810E94C72922
:103540006B017C01D8012D913D914D915C910E94C0
:10355000FA2820E030E040E05FE30E947B2B60939C
:1035600015067093160680931706909318068D80A3
:103570009E80B0ED8B0E911C2D803E80ECED2E0ECA
:10358000311CA981BA812D913D914D915C91F10140
:1035900060817181828193810E94FA28D4016D93A8
:1035A0007D938D939C931397ED81FE81EC52FF4F99
:1035B000FA83E9831082118212821382F80100815A
:1035C000118122813381AB81BC814D915D916D91DF
:1035D0007C918D819E810E949C199B01AC01C3014D
:1035E000B2010E94FA286B017C012BED3FE049EC0F
:1035F00050E40E94702B18164CF42BED3FE049EC80
:1036000050E4C701B6010E94F92818C020E030E05C
:10361000A901C701B6010E94C02987FD07C0D501D5
:10362000CD92DD92ED92FC9213970DC02BED3FE011
:1036300049EC50E4C701B6010E94FA28F501608305
:10364000718382839383F40180819181A281B3810C
:10365000F10180839183A283B3832D813E81205227
:103660003F4FE981FA8180819181A281B381F90183
:1036700080839183A283B38326960FB6F894DEBF2E
:103680000FBECDBFDF91CF911F910F91FF90EF90B3
:10369000DF90CF90BF90AF909F908F907F906F9072
:1036A0005F904F903F902F900895AF92BF92CF922E
:1036B000DF92EF92FF920F931F93A114B10439F0A0
:1036C000AA94AB28A9F4FC01EC59FF4F03C0FC01FC
:1036D000E85AFF4F4083518362837383349600839B
:1036E0001183228333833496C082D182E282F382B3
:1036F0001F910F91FF90EF90DF90CF90BF90AF9010
:1037000008954F925F926F927F928F929F92AF92A5
:10371000BF92CF92DF92EF92FF920F931F93CF93BE
:10372000DF93EC018B017A01F90160817181828163
:1037300093810E94602A4B015C0120E030E04AE75F
:1037400054E4F70160817181828193810E947B2B17
:10375000A50194010E94C7296B017C01FE01EC5F69
:10376000FE4F608371838283938320E030E04AE7D9
:1037700054E4F80160817181828193810E947B2BE6
:10378000A50194010E94C7294B015C01FE01F3953C
:1037900060837183828393838E01085F1E4F9B0138
:1037A000AC01C701B6010E94FA2820E030E040E0F9
:1037B0005FE30E947B2BF801608371838283938394
:1037C0000C5F1F4F288139814A815B8160E070E086
:1037D00080E89FE30E94C7292B013C01A5019401C9
:1037E000C701B6010E94F9289B01AC01C301B201D7
:1037F0000E947B2BF8016083718382839383DF9126
:10380000CF911F910F91FF90EF90DF90CF90BF90DD
:10381000AF909F908F907F906F905F904F900895A2
:103820002F923F924F925F926F927F928F929F92D0
:10383000AF92BF92CF92DF92EF92FF920F931F93BE
:10384000CF93DF93EC010E94D41F7E0129E9E21A95
:103850002EEFF20A1E01E5E92E1AEEEF3E0AF10103
:1038600080809180A280B380681979098A099B09B8
:10387000F701608371838283938361E070E080E06D
:1038800090E00E940320CE010E949C115E01F8E3AB
:10389000AF0EB11C6E0124E3C20ED11C9701A5012D
:1038A000B601CE010E94811B4E018CE3880E911C53
:1038B0009401A501B601CE010E942212CE010E9400
:1038C0007213FE01E456FF4FDE01A057BF4F2D914A
:1038D0003D914D915C9160817181828193810E94C3
:1038E000FA282B013C01F70160817181828193816B
:1038F0000E94602A9B01AC01C301B2010E947B2B94
:1039000020E030E04AEF54E40E94C7296093190692
:1039100070931A0680931B0690931C0609E116E02B
:103920009501A601B401CE010E945D1A9501A60180
:10393000B401CE010E945F1240E060E08DE196E0AC
:103940000E943B0F62EF71E08DE196E00E945522EC
:1039500040E062E08DE196E00E943B0FFE01E851FD
:10396000FF4F408151816281738122E030E08DE11F
:1039700096E00E94FA2341E060E08DE196E00E942B
:103980003B0F65EF71E08DE196E00E94552241E02A
:1039900062E08DE196E00E943B0FC451DF4F488109
:1039A00059816A817B8122E030E08DE196E00E94BE
:1039B000FA230E94D41FF101608371838283938371
:1039C000DF91CF911F910F91FF90EF90DF90CF90FB
:1039D000BF90AF909F908F907F906F905F904F902F
:1039E0003F902F9008952F923F924F925F926F9247
:1039F0007F928F929F92AF92BF92CF92DF92EF927F
:103A0000FF920F931F93CF93DF93EC014A015B0169
:103A10008DE196E00E94310F8E0100511F4FF80199
:103A2000408051806280738020E030E0A901C501B0
:103A3000B4010E94702B1816B4F464E670E07E01A5
:103A4000F5EBEF1AFEEFFF0AC7010E9495106CE933
:103A50007FEFC7010E946F10E894B7F81E018CEF4A
:103A6000280E311C8FC020E030E0A901C501B4014F
:103A70000E94C02987FFF0CF6CE97FEF7E01E5EB64
:103A8000EE1AEEEFFE0AC7010E94951064E670E0A0
:103A9000E0CF61E070E0CE010E94101CA301920112
:103AA000F80160817181828193810E94F9286B0104
:103AB0007C0120E030E0A9010E94702B181624F050
:103AC000F7FAF094F7F8F09422E030E0B701A6019D
:103AD0008DE296E00E94FC2389E594E00E949A051D
:103AE00068EF71E080918A0490918B040E945522C6
:103AF0006FED71E080918A0490918B040E945522B1
:103B0000F801408151816281738122E030E080912F
:103B10008A0490918B040E94FA236FED71E08091EA
:103B20008A0490918B040E945522F10140815181B9
:103B30006281738122E030E080918A0490918B044D
:103B40000E94FA236FED71E080918A0490918B04BA
:103B50000E94552222E030E0B701A60180918A043C
:103B600090918B040E94FA2361EE71E080918A04A7
:103B700090918B040E94552262E070E080E090E01A
:103B80000E940320A3019201F8016081718182816A
:103B900093810E94F9286B017C01E894F7F82DECE1
:103BA0003CEC4CE45DE3C501B4010E94F9289B01A3
:103BB000AC01C701B6010E94C02987FD6ACF2DEC78
:103BC0003CEC4CE45DE3C501B4010E94FA289B0182
:103BD000AC01C701B6010E94702B18160CF459CF26
:103BE000CE010E94C41060E47BE48CE490E0DF919D
:103BF000CF911F910F91FF90EF90DF90CF90BF90EA
:103C0000AF909F908F907F906F905F904F903F907C
:103C10002F900C9403208DE196E00E94AA0E84E080
:103C200092E090931E0680931D0689EC96E7A6E528
:103C3000B0E48093A6049093A704A093A804B09343
:103C4000A90480E695EEA0E3BFE38093AA049093D5
:103C5000AB04A093AC04B093AD0484E19EE6A3E66C
:103C6000B4E48093AE049093AF04A093B004B093F7
:103C7000B1048DE09FEEAAE8B0E48093B204909383
:103C8000B304A093B404B093B50480E090E0A0E83E
:103C9000BFE38093B6049093B704A093B804B093A5
:103CA000B90486EB95E00E94710683EC95E00E94D2
:103CB000F9072998219A2D98259A2A98229A2E98C0
:103CC000269A80EA8093800081E18093810080E9D8
:103CD00091E0909387008093860010928900109263
:103CE000880010928B0010928A0008950895853004
:103CF00008F04CC0E82FF0E0EE0FFF1FE05FFE4F32
:103D0000718360838230E1F018F4813069F004C07F
:103D1000833019F1843071F1809169008C7F842B9C
:103D200080936900E89A089580916900440F551FB7
:103D3000440F551F837F842B80936900E99A08956F
:103D40008091690034E0440F551F3A95E1F78F7C6C
:103D5000842B80936900EA9A08958091690026E097
:103D6000440F551F2A95E1F78F73842B80936900C8
:103D7000EB9A089580916A0094E0440F551F9A953C
:103D8000E1F78F7C842B80936A00EE9A08951F924E
:103D90000F920FB60F9211242F933F934F935F937F
:103DA0006F937F938F939F93AF93BF93EF93FF9303
:103DB000E0911001F09111010995FF91EF91BF91F0
:103DC000AF919F918F917F916F915F914F913F91B3
:103DD0002F910F900FBE0F901F9018951F920F926A
:103DE0000FB60F9211242F933F934F935F936F93CE
:103DF0007F938F939F93AF93BF93EF93FF93E09144
:103E00001201F09113010995FF91EF91BF91AF91CC
:103E10009F918F917F916F915F914F913F912F91E2
:103E20000F900FBE0F901F9018951F920F920FB614
:103E30000F9211242F933F934F935F936F937F9330
:103E40008F939F93AF93BF93EF93FF93E0911401F0
:103E5000F09115010995FF91EF91BF91AF919F915D
:103E60008F917F916F915F914F913F912F910F9023
:103E70000FBE0F901F9018951F920F920FB60F92C2
:103E800011242F933F934F935F936F937F938F935F
:103E90009F93AF93BF93EF93FF93E0911601F0913F
:103EA00017010995FF91EF91BF91AF919F918F916C
:103EB0007F916F915F914F913F912F910F900FBE26
:103EC0000F901F9018951F920F920FB60F9211240A
:103ED0002F933F934F935F936F937F938F939F9312
:103EE000AF93BF93EF93FF93E0911801F091190105
:103EF0000995FF91EF91BF91AF919F918F917F9124
:103F00006F915F914F913F912F910F900FBE0F9046
:103F10001F9018951F920F920FB60F9211242F9396
:103F20003F938F939F93AF93BF938091250690917A
:103F30002606A0912706B09128063091240623E09A
:103F4000230F2D3720F40196A11DB11D05C026E8D1
:103F5000230F0296A11DB11D2093240680932506F0
:103F600090932606A0932706B093280680912906F1
:103F700090912A06A0912B06B0912C060196A11DC6
:103F8000B11D8093290690932A06A0932B06B09327
:103F90002C06BF91AF919F918F913F912F910F90E0
:103FA0000FBE0F901F9018952FB7F89460912506BB
:103FB0007091260680912706909128062FBF0895BC
:103FC0003FB7F8948091290690912A06A0912B067C
:103FD000B0912C0626B5A89B05C02F3F19F001967D
:103FE000A11DB11D3FBF6627782F892F9A2F620F21
:103FF000711D811D911D42E0660F771F881F991F5B
:104000004A95D1F708958F929F92AF92BF92CF9227
:10401000DF92EF92FF926B017C010E94E01F4B0147
:104020005C01C114D104E104F104F1F00E945D28A7
:104030000E94E01F681979098A099B09683E73404C
:104040008105910570F321E0C21AD108E108F10859
:1040500088EE880E83E0981EA11CB11CC114D10407
:10406000E104F10429F7DDCFFF90EF90DF90CF90CE
:10407000BF90AF909F908F900895789484B58260A0
:1040800084BD84B5816084BD85B5826085BD85B5FC
:10409000816085BDEEE6F0E0808181608083E1E8AB
:1040A000F0E01082808182608083808181608083E3
:1040B000E0E8F0E0808181608083E1E9F0E08081E8
:1040C00082608083808181608083E0E9F0E080818C
:1040D00081608083E1ECF0E0808184608083808176
:1040E00082608083808181608083E3ECF0E0808166
:1040F00081608083E0ECF0E0808182608083E2EC8C
:10410000F0E0808181608083EAE7F0E08081846074
:1041100080838081826080838081816080838081D0
:1041200080688083089590E0FC013197EF30F105BD
:10413000B0F5EA5AFF4F0C947B2C809180008F776A
:1041400003C0809180008F7D8093800008958091CE
:104150008000877FF9CF84B58F7702C084B58F7DCB
:1041600084BD0895809190008F7707C08091900062
:104170008F7D03C080919000877F80939000089589
:104180008091C0008F7703C08091C0008F7D8093A5
:10419000C00008958091C200877F8093C200089577
:1041A0000F931F93CF93DF931F92CDB7DEB7282FC6
:1041B00030E0F901EA5EFE4F8491F901EB5CFE4FBD
:1041C0001491F901EC5AFE4F04910023C9F08823A1
:1041D00021F069830E9493206981E02FF0E0EE0FC7
:1041E000FF1FED58FE4FA591B4919FB7F8948C91A5
:1041F000611103C01095812301C0812B8C939FBF57
:104200000F90DF91CF911F910F9108950E949B2CE9
:10421000CF93DF931F92CDB7DEB76983DC01ED91B9
:10422000FC910280F381E02D41E050E0BE016F5F20
:104230007F4F09950F90DF91CF910895CF93DF9332
:10424000EC018C859D8597FF05C082E00E941F25AB
:104250009D878C878C859D85DF91CF91089583E024
:104260000C94B327FC018485958597FD06C082E0F8
:104270000E94C72490E00196089582E00E94C7241E
:1042800090E00895FC018485958597FD05C02FEF8A
:104290003FEF35872487089582E00C941F25CF9344
:1042A000DF93EC0180912501882331F083E00E94A7
:1042B00050251816190634F081E090E09B838A831C
:1042C00080E090E0DF91CF910895FC0120812E5F86
:1042D000208342E450E061E871E080E80C94EB2533
:1042E000FC0121818081813A59F4213209F04BC0CF
:1042F00047E050E06EE171E080E00E94EB255EC097
:10430000813209F040C0233289F4838190E0982FF4
:1043100088273281832BA0E0B0E080931A0190932C
:104320001B01A0931C01B0931D010FC0203239F472
:1043300067E070E08EE191E00E941C2609C0223205
:1043400021F482818093250103C02D7F2032B1F5B5
:1043500080917D06811103C0E0E0F8E002C0EEEF3D
:10436000FAE080911E0190911F01A0912001B0916F
:104370002101803B9440A105B10511F580912501F3
:1043800080FF03C01DC080E00895EE3F2AE0F207E1
:1043900031F0808191819093FF0A8093FE0A87E734
:1043A00097E7918380832BE088E190E00FB6F89443
:1043B000A895809360000FBE2093600081E008956F
:1043C00088E10FB6F89480936000109260000FBEF1
:1043D000A895EE3F8AE0F80739F08091FE0A9091A7
:1043E000FF0A91838083EACF1092FF0A1092FE0A9F
:1043F000E5CF2FEF3FEFFC01358724870895CF935A
:10440000C09125016AE070E080E090E00E94032006
:1044100081E0C11101C080E0CF9108951092300673
:1044200010922F0688EE93E0A0E0B0E08093310672
:1044300090933206A0933306B093340680E192E065
:1044400090932E0680932D068FEF9FEF90933A0660
:1044500080933906089508950E943D200E942B22E2
:104460008EE796E00E9440280E943701C0E0D0E02D
:104470000E94CD012097E1F30E940000F9CF611561
:10448000710581F0DB010D900020E9F7AD0141508D
:104490005109461B570BDC01ED91FC910280F38121
:1044A000E02D099480E090E008950C943F22DC0117
:1044B000ED91FC910190F081E02D099468E671E0A6
:1044C0000C943F228F929F92AF92BF92DF92EF9215
:1044D000FF920F931F93CF93DF93CDB7DEB7A197D2
:1044E0000FB6F894DEBF0FBECDBF7C01F42FD52EE2
:1044F000CB0119A2223008F42AE08E010F5D1F4F74
:10450000822E912CA12CB12C6F2F7D2DA501940111
:104510000E943A2CF22FD32ECA01015011096A30A1
:1045200014F4E0E301C0E7E3E60FD801EC93232B9A
:10453000242B252B49F7B801C7010E943F22A196E1
:104540000FB6F894DEBF0FBECDBFDF91CF911F91A4
:104550000F91FF90EF90DF90BF90AF909F908F9062
:104560000895CF92DF92EF92FF920F931F93CF9314
:10457000DF93EC016A017B012115310579F4E881B3
:10458000F9810190F081E02D642FDF91CF911F918F
:104590000F91FF90EF90DF90CF9009942A30310572
:1045A000E9F477FF1AC06DE20E9457228C0144277C
:1045B0005527BA014C195D096E097F092AE0CE0121
:1045C0000E946222800F911FDF91CF911F910F9166
:1045D000FF90EF90DF90CF9008952AE0B701A601F9
:1045E000CE01DF91CF911F910F91FF90EF90DF905F
:1045F000CF900C9462222115310541F4DC01ED913C
:10460000FC910190F081E02D642F09940C946222BA
:104610009A01462F50E060E070E00C94FB224F922C
:104620005F926F927F928F929F92AF92BF92CF9242
:10463000DF92EF92FF920F931F93CF93DF93EC01E2
:104640006A017B01B22E9A01AB01C701B6010E943B
:10465000E72B882319F06CE172E027C026013701AF
:10466000E89477F82FEF3FEF4FE75FE7C301B20120
:104670000E94E72B81110DC02FEF3FEF4FE75FE75F
:10468000C301B2010E94C02918161CF460E272E056
:104690000CC02FEF3FEF4FE75FE4C701B6010E9468
:1046A000702B1816ACF464E272E0CE01DF91CF916A
:1046B0001F910F91FF90EF90DF90CF90BF90AF9040
:1046C0009F908F907F906F905F904F900C943F22BF
:1046D0002FEF3FEF4FE75FECC701B6010E94C02903
:1046E00087FDE1CF20E030E0A901C701B6010E94BB
:1046F000C02987FF0AC06DE2CE010E9457228C01BB
:10470000F7FAF094F7F8F09402C000E010E0A12C62
:1047100060E070E080E09FE3AB1441F020E030E027
:1047200040E251E40E94C729A394F6CF9B01AC015B
:10473000C701B6010E94FA286B017C010E94342A4D
:104740002B013C010E94602A9B01AC01C701B6010C
:104750000E94F9286B017C012AE0B301A201CE017D
:104760000E946222080F191FBB2039F068E272E034
:10477000CE010E943F22080F191F7B2C772041F1A8
:1047800020E030E040E251E4C701B6010E947B2BFB
:104790006B017C010E942F2A4B01AA2497FCA09454
:1047A000BA2C2AE030E0B501A401CE010E94B1226A
:1047B000080F191FC501B4010E94622A9B01AC01B8
:1047C000C701B6010E94F9286B017C017A94D6CF0B
:1047D000C801DF91CF911F910F91FF90EF90DF9073
:1047E000CF90BF90AF909F908F907F906F905F9091
:1047F0004F9008950C940F230F931F93CF93DF9343
:10480000EC010E940F238C01CE010E945E22800FDA
:10481000911FDF91CF911F910F910895615030F05A
:104820002091F100FC0120830196F8CF289884E6BE
:1048300080938706089540918206509183062091C7
:1048400080063091810642175307B4F49091E80036
:104850009570E1F39091E80092FD19C08093F1000A
:10486000809182069091830601968F739927892BF8
:1048700019F48EEF8093E800809182069091830670
:104880000196909383068093820681E0089580E0EC
:104890000895CF92DF92EF92FF920F931F93CF93E1
:1048A000DF931F92CDB7DEB7082F162FF42E862F79
:1048B000880F8E5F99830E941B2483E00E941B2433
:1048C000E02EC02E9981D92E8C2D8E19811798F447
:1048D000F601F7FE02C0849101C080810E941B2472
:1048E000082F80E00E941B248023FFEFCF1ADF0AED
:1048F0008111EACF01C081E00F90DF91CF911F912C
:104900000F91FF90EF90DF90CF9008958091D700A6
:1049100081608093D70080EA8093D80089B5806158
:1049200089BD89B5826089BD09B400FEFDCF61E013
:1049300070E080E090E00E9403208091D8008F7C9E
:1049400080618093D8008091E000807F8093E000B8
:104950000895CF93DF931F92CDB7DEB71982CE01B2
:1049600001960E9465210E94E528BE016F5F7F4F7E
:104970000E945E2889810F90DF91CF9108952FB713
:10498000FC012083F89467706093E9000895CF9349
:10499000DF931F92CDB7DEB7682FCE0101960E943C
:1049A000BF248091F20099819FBF0F90DF91CF913A
:1049B0000895FF920F931F93CF93DF9300D0CDB74D
:1049C000DEB7F62E8A0190918606992311F057FFE3
:1049D00003C08FEF9FEF2BC0682FCE0101967A8323
:1049E0000E94BF248091F20090E0A8017A81801794
:1049F00091070CF4AC01EF2DF72FF40E84E6FE16B0
:104A000039F02898809387069091F1009193F7CF21
:104A10004115510521F08091F200882321F0898110
:104A20008FBFCA0104C08BE68093E800F8CF0F90D7
:104A30000F90DF91CF911F910F91FF900895CF9329
:104A4000DF931F92CDB7DEB741E050E0BE016F5F4C
:104A50007F4F0E94D924019719F4898190E002C008
:104A60008FEF9FEF0F90DF91CF910895CF93DF935A
:104A70001F92CDB7DEB7682FCE0101960E94BF24EA
:104A80009091E800892F807295FF04C09091F20008
:104A900080E4891B99819FBF0F90DF91CF9108958A
:104AA0006F927F928F929F92AF92BF92CF92DF923E
:104AB000EF92FF920F931F93CF93DF931F92CDB787
:104AC000DEB7782E7B01C42EB52E80918606882312
:104AD00069F0042F152F8AEFD82E872D8072982E1B
:104AE0009AE3A92E872D8074882E11C08FEF9FEF37
:104AF00057C0872D0E943625682E81110CC0DA948C
:104B0000A9F361E070E080E090E00E9403200115CD
:104B1000110579F73BC0282F30E0021713070CF47A
:104B2000602E672DCE0101960E94BF248091E8007F
:104B300085FF29C0262D30E0021B130B992039F088
:104B40006A948FEF6816B1F01092F100F9CFF70177
:104B5000862D77FE07C0815058F094919093F10014
:104B60003196F9CF815020F091919093F100FACFD6
:104B7000E20EF31E8091E80085FF0FC001151105BC
:104B800011F481100AC089818FBFC1CF5D9884E67E
:104B9000809388068C2D9B2D03C0A092E800F3CF54
:104BA0000F90DF91CF911F910F91FF90EF90DF90C9
:104BB000CF90BF90AF909F908F907F906F9008950F
:104BC0001092E9001092830610928206909381065B
:104BD000809380060895CF92DF92FF920F931F93E8
:104BE000CF93DF9300D0CDB7DEB7F82E8A016B01EB
:104BF00001151105B1F0F601F7FE02C0849101C064
:104C0000808149835A830E941B2401501109FFEFC0
:104C1000CF1ADF0A49815A818111EACF8FEF9FEFC6
:104C200001C0CA010F900F90DF91CF911F910F919A
:104C3000FF90DF90CF900895BF92CF92DF92EF92D6
:104C4000FF920F931F93CF93DF936C018B01EB01C6
:104C50003BEFB32E2097C1F07E01C134D1051CF08B
:104C600020E4E22EF12C8091E80082FFFCCFC80105
:104C70008C1B9D0B6E2D8C0D9D1D0E940E24B092E1
:104C8000E800CE19DF09E6CFC801DF91CF911F916F
:104C90000F91FF90EF90DF90CF90BF9008951F92FB
:104CA0000F920FB60F921124DF92EF92FF920F93A3
:104CB0001F932F933F934F935F936F937F938F93A4
:104CC0009F93AF93BF93EF93FF93CF93DF93CDB7B2
:104CD000DEB76C97DEBFCDBF1092E9008091E8008F
:104CE00083FF23C168E0CE0145960E940E2482EF27
:104CF0008093E8003D8937FF05C08091E80080FF80
:104D0000FCCF03C08EEF8093E800832F807609F0FC
:104D1000F0C02E894F89D88C21110CC0303829F46D
:104D2000809185068093F10002C01092F1001092EC
:104D3000F100F4C0842F90E09D29213049F4311115
:104D4000EDC0019709F0EAC0809185068D7F0AC009
:104D5000233059F43111E2C0019709F0DFC080918E
:104D60008506826080938506D9C0253041F4809104
:104D7000E80080FFFCCF40684093E300CFC02630BE
:104D800009F08DC0EB8CFC8C22E0D2122CC080E0AC
:104D900090E00E94E0250E94A92499E08E010F5F17
:104DA0001F4FF801292F11922A95E9F79983DA828A
:104DB00091E09E8390EA98879AEF998720918206E6
:104DC00030918306275F3F4F3C832B838D83C70140
:104DD0000E94E02549E050E0B80180E00E94EB2508
:104DE0000E94A9249BC0C7010E94E0250E94E528DB
:104DF000BE016B5E7F4F0E948728009719F00CF070
:104E00008DC090C081E0D8120EC08B8D9C8D08970C
:104E100019F481E080937F0680917F0681112FC075
:104E200065ED71E031C0E3E0DE127CC08F8988233C
:104E300049F1823029F440E862E18AEF91E01CC038
:104E4000813029F440E862E187EE91E015C08330BB
:104E500009F068C00E94E5288E010F5F1F4FB8015E
:104E60000E94A628F80101900020E9F73197E01B85
:104E7000F10B40E06E2FC8010E9449244DC063EC45
:104E800071E002C06DE072E06115710509F44AC07D
:104E9000FB01449150E080E80E94EB253FC02730A1
:104EA00009F440C0283021F481E08093F10036C03D
:104EB0002930A1F53370B1F5E7E2F1E081E021E0BE
:104EC00036E39081992361F08093E9002093EB0011
:104ED00091919093EC003093ED008F5F873089F7CC
:104EE0008EE78093EA001092EA008F89809386060D
:104EF00015C08B8D9C8D0E94E025898D811105C088
:104F0000CE0145960E94702107C00E94E528BE018F
:104F10006B5E7F4F0E94C528882321F08EEF80931F
:104F2000E80003C081E28093EB006C960FB6F89422
:104F3000DEBF0FBECDBFDF91CF91FF91EF91BF914B
:104F4000AF919F918F917F916F915F914F913F9121
:104F50002F911F910F91FF90EF90DF900F900FBE58
:104F60000F901F9018958093E9008091F20088239C
:104F700019F08AE38093E80008951F920F920FB60C
:104F80000F9211242F933F934F935F936F937F93CF
:104F90008F939F93AF93BF93CF93EF93FF93C09162
:104FA000E1008091E100837F8093E1008093E10044
:104FB000C3FF0FC01092E90081E08093EB001092D4
:104FC000EC0082E38093ED001092860688E08093E7
:104FD000F000C2FF19C083E00E94B32780918806C9
:104FE000882339F080918806815080938806882331
:104FF00089F180918706882339F080918706815056
:1050000080938706882341F1C4FF10C08091E2009D
:105010008E7E81608093E2008091E1008F7E80939C
:10502000E100809184068E7E806111C0C0FF16C0B1
:105030008091E2008E7E80618093E2008091E100A9
:105040008E7E8093E100809184068E7E81608093C5
:10505000840604C05D9ACDCF289AD6CFFF91EF91F8
:10506000CF91BF91AF919F918F917F916F915F9100
:105070004F913F912F910F900FBE0F901F90189559
:105080001092860610928506109284060E9486244D
:105090008091E1008E7E8093E1008DE08093E200BC
:1050A000559A209AEEEFFFE7859194918B3F9C4DA6
:1050B00019F481E080937D0608950895EF92FF92A0
:1050C0000F931F93CF93DF937B01FC01C281D381A8
:1050D00000E010E0209781F0E881F9810280F381FF
:1050E000E02DB701CE01099597FD08C0080F191FE3
:1050F0000884D985C02DEECFC80102C08FEF9FEF85
:10510000DF91CF911F910F91FF90EF9008950F9332
:105110001F93CF93DF938B01FC01C281D381209732
:1051200071F0E881F9810480F581E02DB801CE01AC
:105130000995009731F40884D985C02DF0CF80E01F
:1051400090E0DF91CF911F910F9108950F931F93DE
:10515000CF93DF938B01FC01C281D381209771F043
:10516000E881F9810680F781E02DB801CE0109952B
:10517000080F111D0884D985C02DF0CFF8011082C9
:10518000DF91CF911F910F9108950F931F93CF93AC
:10519000DF938B01FC01C281D381209771F0E881FC
:1051A000F9810190F081E02DB801CE0109958111BE
:1051B00006C00884D985C02DF0CF80E001C081E011
:1051C000DF91CF911F910F91089580918D068111EC
:1051D0000DC082E08093890684E080938A06109255
:1051E0008C0610928B0681E080938D0689E896E00C
:1051F00008955058BB27AA270ED027C2F0D130F00F
:10520000F5D120F031F49F3F11F41EF4C0C10EF42B
:10521000E095E7FBB6C1E92F3AD280F3BA176207EF
:1052200073078407950718F071F49EF552C20EF4C7
:10523000E0950B2EBA2FA02D0B01B90190010C01A6
:10524000CA01A0011124FF27591B99F0593F50F4BE
:10525000503E68F11A16F040A22F232F342F442716
:10526000585FF3CF469537952795A795F04053950E
:10527000C9F77EF41F16BA0B620B730B840BBAF0DE
:105280009150A1F0FF0FBB1F661F771F881FC2F749
:105290000EC0BA0F621F731F841F48F4879577955D
:1052A0006795B795F7959E3F08F0B3CF9395880F14
:1052B00008F09927EE0F97958795089590D158F0AB
:1052C00080E891E009F49EEF91D128F040E851E0A8
:1052D00059F45EEF09C05BC1FCC1E92FE078D7D17A
:1052E00068F3092E052AC1F326173707480759071F
:1052F00038F00E2E07F8E02569F0E025E0640AC0DA
:10530000EF6307F8009407FADB01B9019D01DC01A6
:10531000CA01AD01EF934AD098D10AD05F915523CD
:1053200031F02BED3FE049E450FD49EC63CF0895A7
:10533000DF93DD27B92FBF7740E85FE31616170626
:1053400048075B0710F4D92FCFD19F938F937F939A
:105350006F933AD2EAECF0E01DD177D12F913F91D3
:105360004F915F91D4D1DD2349F09058A2EA2AED04
:105370003FE049EC5FE3D0785D274DDFDF9165C109
:10538000DCD008F481E0089539D1E3956FC10CD0E9
:105390005CC12CD140F023D130F021F45F3F19F0F3
:1053A000F0C0511197C1F3C072D198F39923C9F39A
:1053B0005523B1F3951B550BBB27AA27621773071B
:1053C000840738F09F5F5F4F220F331F441FAA1FCF
:1053D000A9F333D00E2E3AF0E0E830D0915050408F
:1053E000E695001CCAF729D0FE2F27D0660F771F3D
:1053F000881FBB1F261737074807AB07B0E809F01F
:10540000BB0B802DBF01FF2793585F4F2AF09E3FB3
:10541000510568F0B6C05EC15F3FECF3983EDCF327
:10542000869577956795B795F7959F5FC9F7880F2C
:10543000911D9695879597F90895E1E0660F771F7E
:10544000881FBB1F621773078407BA0720F0621B0F
:10545000730B840BBA0BEE1F88F7E095089504D008
:105460006894B11137C108951AD188F09F5790F010
:10547000B92F9927B751A0F0D1F0660F771F881F79
:10548000991F1AF0BA95C9F712C0B13081F021D135
:10549000B1E008951EC1672F782F8827B85F39F0D3
:1054A000B93FCCF3869577956795B395D9F73EF4D8
:1054B00090958095709561957F4F8F4F9F4F089580
:1054C000E89409C097FB3EF490958095709561959E
:1054D0007F4F8F4F9F4F9923A9F0F92F96E9BB2754
:1054E0009395F695879577956795B795F111F8CFD0
:1054F000FAF4BB0F11F460FF1BC06F5F7F4F8F4F3B
:105500009F4F16C0882311F096E911C0772321F030
:105510009EE8872F762F05C0662371F096E8862FC8
:1055200070E060E02AF09A95660F771F881FDAF71F
:10553000880F9695879597F90895990F0008550F4C
:10554000AA0BE0E8FEEF16161706E807F907C0F009
:1055500012161306E407F50798F0621B730B840B11
:10556000950B39F40A2661F0232B242B252B21F4EB
:1055700008950A2609F4A140A6958FEF811D811D8B
:10558000089597F99F6780E870E060E008959FEFC5
:1055900080EC0895DF93CF931F930F93FF92EF92C8
:1055A000DF927B018C01689405C0DA2EEF01AFD049
:1055B000FE01E894A5912591359145915591AEF361
:1055C000EF0129DEFE019701A801DA9479F7DF9057
:1055D000EF90FF900F911F91CF91DF9108950024DC
:1055E0000A941616170618060906089500240A9448
:1055F00012161306140605060895C9CF50D0E8F315
:10560000E894E0E0BB279F57F0F02AED3FE049EC3B
:1056100006C0EE0FBB0F661F771F881F28F0B23A37
:1056200062077307840728F0B25A620B730B840B6E
:10563000E3959A9572F7803830F49A95BB0F661F00
:10564000771F881FD2F79048C8C0092E0394000C1A
:1056500011F4882352F0BB0F40F4BF2B11F460FF0C
:1056600004C06F5F7F4F8F4F9F4F0895EF93E0FF10
:1056700006C0A2EA2AED3FE049EC5FEBCCDDE5DFB6
:105680000F90039401FC9058E7EFF0E0B2C057FD93
:105690009058440F551F59F05F3F71F04795880FA0
:1056A00097FB991F61F09F3F79F087950895121637
:1056B00013061406551FF2CF4695F1DF08C01616E3
:1056C00017061806991FF1CF869571056105089494
:1056D0000895E894BB2766277727CB0197F90895AB
:1056E0002CDF08F48FEF08959B01AC0160E070E0BF
:1056F00080E89FE34CCE0BD0A8CF71DF28F076DF97
:1057000018F0952309F03DCF42CF1124E3CFBFDF3E
:10571000A0F3959FD1F3950F50E0551F629FF001C4
:10572000729FBB27F00DB11D639FAA27F00DB11D1D
:10573000AA1F649F6627B00DA11D661F829F2227A6
:10574000B00DA11D621F739FB00DA11D621F839F2D
:10575000A00D611D221F749F3327A00D611D231F03
:10576000849F600D211D822F762F6A2F11249F5751
:1057700050408AF0E1F088234AF0EE0FFF1FBB1F74
:10578000661F771F881F91505040A9F79E3F510513
:1057900070F0F7CE9FCF5F3FECF3983EDCF3869539
:1057A00077956795B795F795E7959F5FC1F7FE2BBE
:1057B000880F911D9695879597F908959F931EDF01
:1057C0000F9007FCEE5F52CF9B01AC0194CFB5DE8A
:1057D000880B990B08959F3F31F0915020F48795E5
:1057E00077956795B795880F911D9695879597F949
:1057F00008959F938F937F936F93FF93EF939B01F4
:10580000AC0179DFEF91FF91C5DE2F913F914F9170
:105810005F9171CFDB018F939F930E94902CBF917A
:10582000AF91A29F800D911DA39F900DB29F900DEF
:1058300011240895991B79E004C0991F961708F068
:10584000961B881F7A95C9F780950895AA1BBB1BE4
:1058500051E107C0AA1FBB1FA617B70710F0A61B70
:10586000B70B881F991F5A95A9F780959095BC0191
:10587000CD010895A1E21A2EAA1BBB1BFD010DC08C
:10588000AA1FBB1FEE1FFF1FA217B307E407F507F0
:1058900020F0A21BB30BE40BF50B661F771F881FCC
:1058A000991F1A9469F760957095809590959B0162
:1058B000AC01BD01CF010895052E97FB1EF40094A5
:1058C0000E94732C57FD07D00E943A2C07FC03D08E
:1058D0004EF40C94732C50954095309521953F4F84
:1058E0004F4F5F4F089590958095709561957F4FCC
:1058F0008F4F9F4F0895EE0FFF1F0590F491E02DFD
:105900000994A29FB001B39FC001A39F700D811D98
:105910001124911DB29F700D811D1124911D0895B8
:105920000E94812CA59F900DB49F900DA49F800D87
:10593000911D1124089581E090E0F8940C94A02C1E
:04594000F894FFCF09
:105944000000950680000F00F4010400D007040154
:10595400761E761E761E761E761EFFFFFFFF00E182
:1059640000000000000000C18081000000018001EF
:10597400800180FF7FFF7FFF7F564D4450565F318B
:105984007C315F564D4450560D0A00000000008ED5
:1059940002610236023E0251026002564D445043F7
:1059A4005F005F564D4450430D0A004572726F729A
:1059B4003A20417474656D707420746F207365743B
:1059C400206120726561642D6F6E6C79207661723E
:1059D4006961626C65206F722064617461207479FE
:1059E4007065206E6F7420737570706F7274656467
:1059F4000D0A009C01B501CF01EA01070226024706
:105A04000269028E02B502DE020A03000000007081
:105A14000F750F06210621564D4450455F32007C18
:105A2400005F564D4450450D0A00564D4450455FA5
:105A34003100583A00593A00564D4450455F3300FE
:105A440000000000700F750FC110FA100000000074
:105A540008214F21322142211E212F216E616E0027
:0A5A6400696E66006F7666002E0082
:00000001FF
