:100000000C94F6000C947D1C0C94A41C0C94CB1C3A
:100010000C94F21C0C941E010C941E010C94191DDE
:100020000C941E010C9431100C9465250C94F7234C
:100030000C941E010C941E010C941E010C941E01C4
:100040000C941E010C941E010C941E010C941E01B4
:100050000C941E010C941E010C941E010C94401D66
:100060000C941E010C941E010C941E010C941E0194
:100070000C941E010C941E010C941E010C941E0184
:100080000C941E010C941E010C941E010C941E0174
:100090000C94B7040C941E010C941E010C941E01C8
:1000A0000C941E010C94CB0E0C941E01611E641E58
:1000B000531E571E5D1E851E851E851E681E6C1EE6
:1000C000701E761E7A1E851E801E05A84CCDB2D4E9
:1000D0004EB93836A9020C50B9918688083CA6AAB8
:1000E000AA2ABE000000803F0000000200090F00A5
:1000F00000030401000C00000000000000000000EC
:1001000000000000000000040802011040804010C0
:10011000204080408008020401804020100201102D
:10012000801020404020040404040403040502025B
:100130000202040302020202060606060606040480
:10014000020202040400000000250028002B002EFB
:10015000003100080B000202020100090400000146
:1001600002020000052400100105240101010424FD
:10017000020605240600010705810310004009045A
:100180000100020A00000007050202400000070506
:10019000830240000012010002EF020140FB1F0039
:1001A000230001010203011201000200000040FBD4
:1001B0001F0023000101020301506F6C6F6C75205A
:1001C000436F72706F726174696F6E00506F6C6F05
:1001D0006C7520412D537461722033325534000404
:1001E000030904004702CD03C11BC41F11241FBE15
:1001F000CFEFDAE0DEBFCDBF12E0A0E0B1E0EEE489
:10020000F4E502C005900D92AE33B107D9F726E0B0
:10021000AEE3B2E001C01D92A532B207E1F711E0F2
:10022000CCEED1E004C02297FE010E94022AC43E17
:10023000D107C9F70E94E21F0C94252A0C940000F4
:10024000AF92BF92CF92DF92EF92FF920F931F93E4
:1002500040ED57E060E070E08DE294E00E945606C9
:1002600020E835E240E050E06DEB75E08DE294E08F
:100270000E940F068DE294E00E940C066BE371E091
:1002800080915E0490915F040E940B206AE070E010
:1002900080E090E00E94B91D41E060E08DE294E0D2
:1002A0000E94C80640E855E260E070E08DEB95E002
:1002B0000E94AF1F61E089E493E00E94301161E089
:1002C00089E493E00E942D1182E492E00E94FD11E6
:1002D000A12CB12CC12CD12C76019701860140E0D4
:1002E00050E060EB71E482E492E00E94911BAA244A
:1002F000A394B12C9BEDC92E9FE0D92E99E4E92E51
:1003000090E4F92E00E010E020EB31EC40E050E00A
:1003100060EB71E482E492E00E94911B22E0A22E45
:10032000B12C00E010E020EB31EC40E050E0BA01ED
:1003300082E492E00E94911B3BEDC32E3FE0D32E5E
:1003400039ECE32E3FE3F32E00E010E09801B90111
:10035000A80182E492E00E94911B1F910F91FF90EF
:10036000EF90DF90CF90BF90AF900895AF92BF9283
:10037000CF92DF92EF92FF920F931F93CF93DF9371
:10038000CDB7DEB7A4970FB6F894DEBF0FBECDBFD2
:10039000A0904002B09041028CE0EEE7F2E0DE0176
:1003A000599601900D928A95E1F7C98CDA8CEB8C05
:1003B000FC8C0D8D1E8D2F8D38A149A15AA16BA1EA
:1003C0007CA182E492E00E94DC1664E670E080E0AA
:1003D00090E00E94B91DA0900601B09007018CE04A
:1003E000EAE8F2E0DE011D9601900D928A95E1F7B0
:1003F000CD84DE84EF84F88809891A892B893C89A9
:100400004D895E896F89788D82E492E00E94DC16C6
:1004100064E670E080E090E00E94B91DA0903E028A
:10042000B0903F028CE0E6E9F2E0DE011196019027
:100430000D928A95E1F7C980DA80EB80FC800D810E
:100440001E812F81388549855A856B857C8582E49C
:1004500092E00E94DC1664E670E080E090E00E948A
:10046000B91D66E970E080E090E0A4960FB6F894BC
:10047000DEBF0FBECDBFDF91CF911F910F91FF90D7
:10048000EF90DF90CF90BF90AF900C94B91D89ECA6
:1004900096E7A6E5B0E48093420290934302A093CE
:1004A0004402B093450280E695EEA0E3BFE380935B
:1004B000460290934702A0934802B093490284E118
:1004C0009EE6A3E6B4E480934A0290934B02A09385
:1004D0004C02B0934D028DE09FEEAAE8B0E4809309
:1004E0004E0290934F02A0935002B093510280E0CD
:1004F00090E0A0E8BFE38093520290935302A09350
:100500005402B09355028EE093E00E94E3068BE123
:1005100093E00E946B082998219A2D98259A2A9891
:10052000229A2E98269A80EA8093800081E1809317
:10053000810080E991E0909387008093860010927B
:1005400089001092880010928B0010928A00089502
:1005500080919D0390E020919E03821B9109089554
:1005600020919E0380919D03281750F4E22FF0E024
:10057000E156FC4F808190E02F5F20939E03089509
:100580008FEF9FEF0895E0919E0380919D03E81700
:1005900030F4F0E0E156FC4F808190E008958FEF59
:1005A0009FEF08950895CF92DF92EF92FF920F93FD
:1005B0001F93CF93DF937C01CB018A0120917903B4
:1005C000222389F0EB016B01C40ED51ECC15DD058D
:1005D00069F06991D701ED91FC910190F081E02DD6
:1005E000C7010995F3CF642F0E948E04C801DF91E3
:1005F000CF911F910F91FF90EF90DF90CF900895D2
:10060000CF93DF931F92CDB7DEB769832091790333
:100610002223D1F020917A03203240F021E030E013
:10062000FC013383228380E090E015C080917B033E
:10063000E82FF0E0E458FC4F998190838F5F80931E
:100640007B0380937A0305C061E0CE0101960E948E
:100650008E0481E090E00F90DF91CF910895FC012E
:100660001382128248EE53E060E070E044835583C9
:100670006683778381E591E091838083089510926A
:100680009E0310929D0310927B0310927A030C94A8
:10069000D10381E08093790360939C0310927B03E4
:1006A00010927A0308950F93062F21E040917A0368
:1006B0006CE773E080919C030E94370410927B03E7
:1006C00010927A03109279030F9108958F929F925E
:1006D000AF92BF92CF92DF92EF92FF920F931F9350
:1006E000CF93DF93EC01F62ED42E48015901EE2072
:1006F00019F10E9449031E2D143008F013E0115027
:10070000B8F0E881F98128E0129FB0011124A50119
:10071000940104C056954795379527956A95D2F769
:10072000CA01B9010190F081E02DCE010995E7CF12
:1007300060E0CE010E9453034D2D413208F040E2AB
:100740002C2D6FE973E08F2D0E94EF0310929E0312
:1007500080939D03DF91CF911F910F91FF90EF90B8
:10076000DF90CF90BF90AF909F908F900895CF92E1
:10077000EF920F931F93C22EE12C00E010E098013E
:100780000E9466031F910F91EF90CF90089521E092
:100790000C94B70361E00C9453038DE693E00C9442
:1007A0002F0310922C0481E080932A0410922904D4
:1007B00061E082E00E94861E61E083E00E94861E66
:1007C000E9EBF0E080818E7F808380818D7F808364
:1007D00088E48093B80085E48093BC00089541329A
:1007E00008F043C090912C049111FCCF91E09093BC
:1007F0002C0420932A042FEF2093BF0310920404AB
:10080000240F2093030490932B0490912B04880FC2
:10081000892B80932B0480912904813061F41092FC
:10082000290480912B048093BB008091BC0083FD40
:10083000F8CF85EC01C085EE8093BC0080912C043C
:100840008130E1F380910404841710F44091040492
:1008500025E034E0FB01D9018A2F821B841718F4AC
:100860008D918193F9CF842F089580E008950F939F
:10087000413208F04AC090912C049111FCCF92E0D3
:1008800090932C0400932A049FEF9093BF0310923F
:10089000040440930304FB0165E074E0DB019A2F3C
:1008A000961B941718F491919D93F9CF10922B04F5
:1008B00090912B04880F892B80932B04809129041D
:1008C000813061F41092290480912B048093BB0045
:1008D0008091BC0083FDF8CF85EC01C085EE80934C
:1008E000BC00222321F080912C048230E1F380911E
:1008F000BF038F3F61F08091BF03803251F0809140
:10090000BF03803341F483E007C081E005C080E08D
:1009100003C082E001C084E00F910895613298F431
:1009200020912C04243089F46093E103FC0183EED0
:1009300093E0DC012A2F281B261718F421912D9310
:10094000F9CF80E0089581E0089582E0089585ED73
:100950008093BC008091BC0084FDFCCF10922C04DD
:10096000089585EC8093BC0010922C0408951F928A
:100970000F920FB60F9211242F933F934F935F93D3
:100980006F937F938F939F93AF93BF93EF93FF9357
:100990008091B900887F803609F49EC078F588324E
:1009A00009F45DC090F4803109F456C038F488230E
:1009B00009F4F5C0883009F44FC0F5C0883109F456
:1009C0004EC0803209F45FC0EEC0803409F46AC0C2
:1009D00058F4803309F457C0883309F0E4C0809399
:1009E000BF030E94B104DFC0803509F44FC08835D1
:1009F00009F45DC0883409F0D6C0D3C0883909F441
:100A0000C4C0A8F4883709F467C038F4883609F4FC
:100A100063C0803709F460C0C6C0883809F4B5C027
:100A2000803909F45FC0803809F0BDC05BC0803BED
:100A300009F483C038F4803A09F466C0883A09F4AE
:100A40007CC0B1C0803C09F4A4C0883C09F4A1C0BA
:100A5000883B09F487C0A7C080912B0410C09091F7
:100A6000040480910304981770F5E091040481E078
:100A70008E0F80930404F0E0EB5FFB4F8081809346
:100A8000BB0085EC83C08093BF038BC0E09104045E
:100A900081E08E0F809304048091BB00F0E0EB5F57
:100AA000FB4F808390910404809103046BC0E0911C
:100AB000040481E08E0F809304048091BB00F0E079
:100AC000EB5FFB4F808380912A0481116AC081E033
:100AD0008093290484EA5EC083E080932C04109202
:100AE000C003CFCF8091C003803208F04EC0E091A8
:100AF000C00381E08E0F8093C0038091BB00F0E0C3
:100B0000EF53FC4F8083BDCF0E94B1048091C0039E
:100B1000803230F4E091C003F0E0EF53FC4F1082DC
:100B20006091C00370E0E0912504F091260481EC0F
:100B300093E009951092C00336C084E080932C04A2
:100B40001092E2031092E103E0912704F09128044F
:100B500009958091E103811105C081E08093E10353
:100B60001092E303E091E20381E08E0F8093E203B1
:100B7000F0E0ED51FC4F80818093BB009091E20347
:100B80008091E103981708F47CCF85E88093BC003E
:100B90000AC085EC8093BC0010922C0404C0109213
:100BA000BF030E94A704FF91EF91BF91AF919F9166
:100BB0008F917F916F915F914F913F912F910F9006
:100BC0000FBE0F901F9018950F931F93CF93DF9335
:100BD000EC01662359F00E948A1D69837A838B8316
:100BE0009C83DF91CF911F910F9108950E948A1DE0
:100BF00009811A812B813C81601B710B820B930B45
:100C0000623371058105910530F763E070E080E0A3
:100C100090E00E94B91DEACF60E00C94E405CF9209
:100C2000DF92EF92FF920F931F93CF93DF9300D049
:100C300000D0CDB7DEB78C017B01FC0172AB61AB9C
:100C40008BE1C82ED12CC70129833A834B835C8367
:100C50000E94B51F29813A814B815C81811113C0AB
:100C6000F1E0CF1AD10879F064E670E080E090E01E
:100C700029833A834B835C830E94B91D5C814B813D
:100C80003A812981E0CFBA01A901F80181A992A98D
:100C90000F900F900F900F90DF91CF911F910F91B8
:100CA000FF90EF90DF90CF900C94AF1FFC0113AA40
:100CB00014AA15AA16AA118212821382148241154F
:100CC00051056105710521F0CB01BA010C94B91DE4
:100CD00008951F93CF93DF93EC01162F6DE571E01C
:100CE00089A99AA90E940B204AE050E0612F89A9A6
:100CF0009AA90E94C22064E671E089A99AA90E947B
:100D00000B2062E370E080E090E0DF91CF911F91D3
:100D10000C94B91D1F93CF93DF93EC01162F8D8197
:100D2000882389F189A99AA9DC01ED91FC910480BD
:100D3000F581E02D0995892BA9F307C026373105E8
:100D400019F12835310509F41D8289A99AA9DC0118
:100D5000ED91FC910480F581E02D09951816190696
:100D600094F489A99AA9DC01ED91FC910680F781A0
:100D7000E02D09959C01332723363105F9F6612FC3
:100D8000CE010E94690683E6DF91CF911F910895FD
:100D90000F931F93CF93DF931F92CDB7DEB78C01D4
:100DA000662349F081E0F801858360E0C80149834A
:100DB0000E948A064981F80145830F90DF91CF9107
:100DC0001F910F910895FC0183E090E09087878345
:100DD0001386128614860895EF92FF921F93CF9385
:100DE000DF931F92CDB7DEB77C01162FFC01618522
:100DF0008DE693E049830E944903612F8DE693E0DD
:100E00000E9400034981642F8DE693E00E94000355
:100E10008DE693E00E94CA03F70186830F90DF916D
:100E2000CF911F91FF90EF900895CF93DF93EC0146
:100E30008F819885029729F440E069E3CE010E94F2
:100E4000EC0640E063E2CE010E94EC064FE660E271
:100E5000CE01DF91CF910C94EC069F92AF92BF929E
:100E6000CF92DF92EF92FF920F931F93CF93DF9376
:100E7000EC0169858DE693E00E944903E0916D03E2
:100E8000F0916E030190F081E02D68EA8DE693E029
:100E900009958DE693E00E94CA0346E069858DE6D8
:100EA00093E00E94C7030E948A1D7B018DE693E0B8
:100EB0000E94A802069784F48A859B85892BB1F34A
:100EC0000E948A1D6E197F098A859B858617970760
:100ED00068F781E08C872CC08DE693E00E94B00219
:100EE000A82E8DE693E00E94B002982E8DE693E046
:100EF0000E94B002E82E8DE693E00E94B002B82E68
:100F00008DE693E00E94B002F82E8DE693E00E94F9
:100F1000B002D92CC12CCA28D982C8821B2D00E06E
:100F20000E291B830A83982F88278F299D838C8302
:100F3000DF91CF911F910F91FF90EF90DF90CF90B5
:100F4000BF90AF909F9008951F93CF93DF931F9210
:100F5000CDB7DEB7162F8DE693E049830E94490393
:100F60004981642F8DE693E00E9400038DE693E0B3
:100F70000E94CA03811114C041E0612F8DE693E005
:100F80000E94C7038DE693E00E94A802892B41F0DE
:100F90008DE693E00F90DF91CF911F910C94B002FA
:100FA0008FEF9FEF0F90DF91CF911F910895EF92F8
:100FB000FF920F931F93CF93DF937C01EB018A0184
:100FC0006330710521F04230510509F051C0CE0166
:100FD0000197039758F50115110581F04FE050E096
:100FE0006BE6C7010E94A4078F3F2FEF920719F00D
:100FF00001E010E013C00130110551F04FE050E066
:101000006AE6C7010E94A4078F3FEFEF9E0721F415
:10101000C330D10569F027C000E010E0C330D1052E
:1010200029F4873D9105F1F5C2E0D0E02097D9F48D
:101030000115110561F04FE050E069E6C7010E941B
:10104000A407833D910589F10130110549F04FE076
:1010500050E068E6C7010E94A407833D910541F175
:10106000C330D10519F00230110511F480E025C01C
:10107000F701D087C783209759F0D7FD11C0239778
:101080007CF40130110511F48BE608C08AE606C035
:101090000130110511F489E601C088E6F701818766
:1010A00081E00BC0C1E0D0E0C1CF01E010E002C0A0
:1010B00000E010E0C0E0D0E0D6CFDF91CF911F91EB
:1010C0000F91FF90EF900895DC01ED91FC9101905C
:1010D000F081E02D0994CF93DF93EC0186E0EFE2FD
:1010E000F1E0DE01529601900D928A95E1F786E0DB
:1010F000E5E3F1E0DE011C9601900D928A95E1F79F
:1011000084E090E09A8F898F1CA61BA61DA6DF9114
:10111000CF910895EF92FF921F93CF93DF931F9289
:10112000CDB7DEB77C01162FFC01638D8DE693E011
:1011300049830E944903612F8DE693E00E940003DA
:101140004981642F8DE693E00E9400038DE693E0D1
:101150000E94CA03F701808F0F90DF91CF911F91FA
:10116000FF90EF900895EF92FF921F93CF93DF933C
:101170001F92CDB7DEB77C01162FFC01648D8DE682
:1011800093E049830E944903612F8DE693E00E941A
:1011900000034981642F8DE693E00E9400038DE6F1
:1011A00093E00E94CA03F701808F0F90DF91CF91E7
:1011B0001F91FF90EF900895FC01218D328D233017
:1011C000310511F0603210F40C94B3080C948A08C5
:1011D000CF93DF93EC01898D9A8D83309105D9F4FB
:1011E00040E061E2CE010E94DC0847E560E2CE010A
:1011F0000E94DC0844E664E2CE010E94DC0840E282
:1012000065E2CE010E94DC0840E066E2CE01DF919B
:10121000CF910C94DC08029739F448E063E2CE01E8
:101220000E948A0847E406C040E063E2CE010E94C3
:101230008A0847E260E2CE010E948A084CE060E042
:10124000CE010E94B30840E261E0CE010E94B308E3
:1012500040E062E0CE01DF91CF910C94B3089F9201
:10126000AF92BF92CF92DF92EF92FF920F931F93B4
:10127000CF93DF93EC016B8D8DE693E00E944903E1
:1012800068EA70E08DE693E00E9464088DE693E0E2
:101290000E94CA03888F46E06B8D8DE693E00E9422
:1012A000C7030E948A1D6B018DE693E00E94A8028D
:1012B000069784F48BA59CA5892BB1F30E948A1D07
:1012C0006C197D098BA59CA58617970768F781E0A7
:1012D0008DA72CC08DE693E00E94B002A82E8DE66B
:1012E00093E00E94B002982E8DE693E00E94B00237
:1012F000C82E8DE693E00E94B002B82E8DE693E0F2
:101300000E94B002D82E8DE693E00E94B002F92C24
:10131000E12CEA28F982E8821B2D00E00C291B83CE
:101320000A83982F88278D299D838C83DF91CF9105
:101330001F910F91FF90EF90DF90CF90BF90AF90F3
:101340009F900895CF92DF92EF92FF920F931F9399
:10135000CF93DF93EC016C8D8DE693E00E944903FF
:10136000898D9A8D039721F469A17AA1606802C0E2
:101370006F8D78A18DE693E00E9464088DE693E07E
:101380000E94CA03888F46E06C8D8DE693E00E9430
:10139000C7030E948A1D8B018DE693E00E94A8027C
:1013A000069784F48BA59CA5892BB1F30E948A1D16
:1013B000601B710B8BA59CA58617970768F781E0CA
:1013C0008DA767C0898D9A8D0397F9F48DE693E018
:1013D0000E94B002C82E8DE693E00E94B002D82E83
:1013E0008DE693E00E94B002E82E8DE693E00E9425
:1013F000B002182F8DE693E00E94B002F82E8DE621
:1014000093E00E94B002082F35C08DE693E00E9461
:10141000B002D82E8DE693E00E94B002C82E298D2E
:101420003A8D8DE693E0232B99F40E94B002182F99
:101430008DE693E00E94B002E82E8DE693E00E94D4
:10144000B002082F8DE693E00E94B002F82E12C081
:101450000E94B002082F8DE693E00E94B002F82EA1
:101460008DE693E00E94B002182F8DE693E00E9473
:10147000B002E82E6C2D70E07D297F836E834E2DA7
:1014800050E0512B598748872F2D30E0302B3B8778
:101490002A87DF91CF911F910F91FF90EF90DF90FE
:1014A000CF900895CF93DF93EC010E942F09CE01D6
:1014B000DF91CF910C94A2091F93CF93DF931F92DA
:1014C000CDB7DEB7162F8DE693E049830E9449031E
:1014D0004981642F8DE693E00E9400038DE693E03E
:1014E0000E94CA03811114C041E0612F8DE693E090
:1014F0000E94C7038DE693E00E94A802892B41F069
:101500008DE693E00F90DF91CF911F910C94B00284
:101510008FEF9FEF0F90DF91CF911F910895EF9282
:10152000FF920F931F93CF93DF93EC018B017A010E
:101530006430710521F04230510509F055C0C801F1
:101540000397029708F0CDC0E114F10471F04FE069
:1015500050E06DE1CE010E945C0A8934910509F4E6
:10156000B8C081E0E816F10451F04FE050E06EE1C0
:10157000CE010E945C0A8934910509F4AEC00430A2
:10158000110509F0D0C0E114F10469F040E250E027
:1015900069E1CE010E945C0A019679F421E0E2162D
:1015A000F10409F4A3C040E250E068E1CE010E94DA
:1015B0005C0A019609F0A4C099C00430110509F035
:1015C0009BC04FE050E06EE1CE010E945C0AEE2429
:1015D000E394F12CCC9709F0A9C002E010E082E07E
:1015E000E816F10409F486C01A8F098F013011053D
:1015F00069F124F4012B09F449C069C002301105D6
:1016000041F10330110509F062C0EA94EF2811F4AA
:101610008DE101C08EE18C8F8B8F88E090E09AA3E2
:1016200089A389E090E098A38F8F8AE090E09EA341
:101630008DA38BE090E09CA38BA38CE090E09AA715
:1016400089A78DE090E098A78FA341C0EA94EF2886
:1016500011F489E101C088E18B8F8EE18C8F83E0EA
:1016600090E098A38F8F84E090E09AA389A387E00D
:1016700090E09CA38BA388E090E09EA38DA385E0DF
:1016800090E098A78FA386E090E01FC0EA94EF282F
:1016900011F489E101C088E18B8F8EE18C8F83E0AA
:1016A00090E098A38F8F84E090E09AA389A385E0CF
:1016B00090E09CA38BA386E090E09EA38DA387E09F
:1016C00090E098A78FA388E090E09AA789A781E08F
:1016D00030C0EE24E394F12C02C0E12CF12C03E0A5
:1016E00010E00330110508F44ECF79CF0430110516
:1016F00009F075CF80E01DC0EE24E394F12C6FCF8C
:101700000430110569F44FE050E06EE1CE010E9413
:101710005C0A31E020E0CC9709F030E0032F122F73
:10172000E12CF12C5CCF03E010E059CF00E010E099
:1017300056CFDF91CF911F910F91FF90EF900895B9
:1017400090916604E0916A04F0916B04992311F082
:10175000849101C080812FEB280F2A3110F4805E24
:101760000895803249F49F012F5F3F4F30936B04FF
:1017700020936A04EF2B31F708951F93CF93DF93E3
:101780000E94A00BC0E0D0E01AE090ED980F9A30D4
:10179000B8F49E01129FE001139FD00D1124C80FD1
:1017A000D11D87FDDA95E09780916A0490916B04D2
:1017B000019690936B0480936A040E94A00BE5CF7E
:1017C000CE01DF91CF911F91089510927200109277
:1017D000C00084E08093C10089E08093C20081E072
:1017E0008093C300EFEBF0E083E0808388EE80938A
:1017F000D10010821092D200579A789408952F92B7
:101800003F924F925F926F927F928F929F92AF9290
:10181000BF92CF92DF92EF92FF920F931F93CF93DD
:10182000DF93CDB7DEB727970FB6F894DEBF0FBEB4
:10183000CDBF7C011B014D8380916C04811105C0DB
:1018400081E080936C040E94E50B10921101F7FE79
:1018500004C0E894F7F81AE001C011E088E2189F8C
:10186000802D1124282F30E03F832E832E153F0535
:1018700010F4FF82EE82113049F44E815F814131D4
:10188000574220F0E0E1F7E2FF83EE83812E912CB6
:10189000A12CB12C8E819F81969587959C0140E06B
:1018A00050E029833A834B835C834E815F812A0118
:1018B000612C712CA501940160E072E18AE790E04F
:1018C0000E948F2929813A814B815C81620F731FAD
:1018D000841F951FA30192010E94E12969017A01E9
:1018E000EE24FF2400E00F5FC11434E0D306E104CE
:1018F000F10408F120E032E14AE750E0002E04C094
:1019000055954795379527950A94D2F7C501B401A7
:101910000E948F2929813A814B815C81620F731F5C
:10192000841F951FA30192010E94E12969017A0198
:10193000EE24FF24D8CF1A3049F48E819F8105967A
:101940006AE070E00E94AB297F836E834E815F81E5
:10195000483E83E0580759F09101DA010E94062AB7
:1019600028EE33E040E050E00E94E1291901109296
:1019700072008091C100807F802B8093C100BB27C3
:10198000AF2D9E2D8D2D8093BF00C092D1002D8153
:10199000203108F02FE080E190E0821B910904C023
:1019A000F694E794D794C7948A95D2F78D2D99270A
:1019B0008093BF00C092D2003092690420926804E4
:1019C00089B38FEF89BB84E08093720027960FB6AE
:1019D000F894DEBF0FBECDBFDF91CF911F910F9165
:1019E000FF90EF90DF90CF90BF90AF909F908F903F
:1019F0007F906F905F904F903F902F900895CF937E
:101A0000DF93EB018F3F11F0411105C040E0BE01B3
:101A100088EE93E043C0813130F050EF580F5036DC
:101A200018F05FE501C050E0852F6CE00E949F290F
:101A3000682F74EF760390011124250F311D2C308F
:101A4000310540F4F901EE0FFF1FEB54FE4F2081EA
:101A5000318102C020E030E0873081F0082E02C0E2
:101A6000220F331F0A94E2F7823028F0C90105964D
:101A70006AE070E00CC0C90190580CC0C90136E0A2
:101A8000880F991F3A95E1F7029665E070E00E9491
:101A9000AB29CB01403108F04FE0BE01DF91CF917F
:101AA0000C94FF0B4F925F926F927F928F929F9256
:101AB000AF92BF92CF92DF92EF92FF920F931F935C
:101AC000CF93DF9300D0CDB7DEB790901001809117
:101AD0006504882321F060916404611117C07724A4
:101AE0007394B0ECAB2EBDE5BB2E1AE0612E04E082
:101AF000802E80EDC82E87E0D82E94E0E92EF12CC0
:101B000004EF11E02FE0422E512C15C070E040E0B0
:101B100088EE93E00E94FF0B1092640429C1863680
:101B2000D4F5813609F4A9C07CF58C3309F460C082
:101B30008E3381F493940E94A00B20916A0430911B
:101B40006B042F5F3F4F30936B0420936A048536FC
:101B500031F752C0813209F08BC080921001D092CF
:101B60000F01C0920E01F0920D01E0920C01109352
:101B70000B0100930A015092090140920801109252
:101B80006504A4E09A2ED7CF8336A1F10CF478C077
:101B900010E082E077C08D36C1F194F4873691F180
:101BA00074F18C3609F064C00E94BD0BBC019093A7
:101BB0000D0180930C0180910E0190910F0151C095
:101BC0008237C9F14CF48F3609F052C00E94BD0B28
:101BD000982E80931001AFCF843781F1863709F0BA
:101BE00047C00E94BD0B9093090180930801A3CFC9
:101BF0009A94A1CF10E020C010E084E043C010E030
:101C000085E040C010E087E03DC00E94A00B8C360C
:101C100019F41092650404C0709265041092640473
:101C200020916A0430916B042F5F3F4F30936B0417
:101C300020936A0480CF11E080E024C00E94BD0B95
:101C4000BC01C5010E94AB29669EC001679E900D34
:101C5000112490930F0180930E0160910C017091FB
:101C60000D010E94AB2970930B0160930A0163CFB1
:101C700010926B0410926A047BC010E089E002C0ED
:101C800010E08BE0082F9CE0999E000D11240E942B
:101C9000A00B982F977F933261F420916A043091C2
:101CA0006B042F5F3F4F30936B0420936A040F5FE8
:101CB000EECF8D3271F420916A0430916B042F5F66
:101CC0003F4F30936B0420936A0401500E94A00B95
:101CD000F0CF60910A0170910B018153883050F46C
:101CE000E0900E01F0900F010E94BD0BBC01C701F6
:101CF0000E94AB297B01F694E79469837A830E9462
:101D0000A00B69817A818E3269F420916A04309146
:101D10006B042F5F3F4F30936B0420936A046E0D6A
:101D20007F1DE9CF80916504882339F09B013695AA
:101D3000279520936404621B7109409108011123C7
:101D400011F08FEF01C0802F0F900F90DF91CF9196
:101D50001F910F91FF90EF90DF90CF90BF90AF90C9
:101D60009F908F907F906F905F904F900C94FF0C9E
:101D70000F900F90DF91CF911F910F91FF90EF90F7
:101D8000DF90CF90BF90AF909F908F907F906F909B
:101D90005F904F9008951F920F920FB60F921124EB
:101DA0002F933F934F935F936F937F938F939F9363
:101DB000AF93BF93EF93FF93809168049091690470
:101DC0009C01215031093093690420936804892BC8
:101DD00011F51092720078948091C100807F846028
:101DE0008093C10083E08093BF0088EE8093D10090
:101DF0001092BF001092D20081E080931101809177
:101E00006A0490916B04892B31F0809167048111F1
:101E100002C00E94520DFF91EF91BF91AF919F912F
:101E20008F917F916F915F914F913F912F910F9083
:101E30000FBE0F901F901895FC011382128281ED46
:101E400091E091838083148208951F93CF93DF9351
:101E5000EC01162F64600E949F0F1E83DF91CF91CB
:101E60001F910895CF93DF93EC01E881F9810480FD
:101E7000F581E02D099563E0CE010E949B0F8FE96B
:101E800091E40197F1F700C0000063E0CE010E94E9
:101E90009B0F87E592E00197F1F700C0000063E037
:101EA000CE010E949B0F62E0CE010E949B0F68E270
:101EB000CE010E949F0F60E0CE010E94D10FCE01A3
:101EC0000E94A30F62E0CE010E94250F64E0CE01C4
:101ED000DF91CF910C94D10F0F931F93CF93DF938A
:101EE00000D01F92CDB7DEB78C01DC0114968C9127
:101EF000149781110CC081E014968C93C8012B8338
:101F00004A8369830E94320F69814A812B81D801FB
:101F1000ED91FC910680F781E02DC8010995B5ECA3
:101F2000BA95F1F700000F900F900F90DF91CF91CD
:101F30001F910F91089521E040E00C946C0F20E078
:101F400040E00C946C0F61E00E949F0F8FE39FE1D3
:101F50000197F1F700C000000895CF93DF9300D000
:101F600000D0CDB7DEB720E8298320EC2A8324E90E
:101F70002B8324ED2C83443008F043E0FE01E40F72
:101F8000F11D2181260F622F0E949F0F85EC8A95FB
:101F9000F1F700000F900F900F900F90DF91CF910D
:101FA00008951F93CF93DF93EC01162F68600E9472
:101FB0009F0F1D83DF91CF911F91089520E041E095
:101FC0000C946C0F0E94DE0F81E090E00895CF9298
:101FD000DF92EF92FF920F931F93CF93DF937C01D9
:101FE0008A01EB016B01C40ED51ECC15DD0529F06D
:101FF0006991C7010E94DE0FF8CFC801DF91CF9130
:102000001F910F91FF90EF90DF90CF9008954FB107
:1020100041705CB156FB552750F9542780917404E8
:102020006091750420916E0430916F04852790E0D3
:102030006427861B9109820F931F90936F048093EE
:102040006E049091750480917404591729F0481713
:1020500019F081E0809373045093750440937404E5
:1020600008951F920F920FB60F9211242F933F9352
:102070004F935F936F938F939F932CB130E035957F
:10208000279535952795422F417083B190E054E014
:10209000959587955A95E1F782279327582F517088
:1020A00080917604609177042091700430917104DE
:1020B000852790E06427861B9109820F931F9093D8
:1020C000710480937004909177048091760459177D
:1020D00029F0481719F081E0809373045093770436
:1020E000409376049F918F916F915F914F913F91B3
:1020F0002F910F900FBE0F901F90189524982C9A37
:102100006A98729A6E98769A8098889A81E08093FD
:10211000680090E190936B008BBB41E050E067E07A
:1021200070E184E00E942D1C8CB182FB882780F92D
:1021300081708093760493B180917604929591702A
:102140008927809377041092710410927004109282
:1021500073048FB18170809374049CB18091740476
:1021600096FB992790F989278093750410926F0444
:1021700010926E0410927204089580916D04811182
:1021800005C081E080936D040C947E1008950E9438
:10219000BD10F894809170049091710410927104B4
:1021A00010927004789408950E94BD10F894809164
:1021B0006E0490916F0410926F0410926E047894E4
:1021C00008959B0120573E4F2132334040F0603745
:1021D0007E4F1CF060E971E002C060E77EEFFC0119
:1021E000718F608F77FF05C071956195710981E0EE
:1021F00001C080E070938B0060938A009091790415
:10220000891711F02A9A01C02A98229A08959B01F1
:1022100020573E4F2132334040F060377E4F1CF054
:1022200060E971E002C060E77EEFFC01738F628FAE
:1022300077FF05C071956195710981E001C080E06B
:10224000709389006093880090917804891711F049
:10225000299A01C02998219A0895609379040895D4
:102260006093780408955B98539A089560FF02C0C4
:102270002B9A01C02B98239A61FF02C0289A01C0B3
:102280002898209A62FF02C0479A01C047983F9A57
:1022900063FF02C05D9A01C05D98559A5B9A539A9C
:1022A00085E08A95F1F700005B98539A85E08A955E
:1022B000F1F700000895CF92DF92EF92FF920F9313
:1022C0001F93CF93DF9300D000D01F92CDB7DEB71E
:1022D0006C01162F0091E2001092E200F090E900EC
:1022E0001092E900E090F0001092F00030E05A996E
:1022F000316052993260398330E02B9931602399F3
:1023000032603A8330E028993160209932603B8313
:1023100030E0479931603F9932603C8330E05D990D
:102320003160559932603D83442311F05A9A01C0BF
:102330005A98529A21110AC0612F70E084E0759575
:1023400067958A95E1F7C6010E943611612F6F707B
:10235000C6010E9436112D8121FB0EF0559820FBFD
:102360000EF05D980EF45D9A21FB0EF4559A3C81B7
:1023700031FB0EF03F9830FB0EF047980EF4479A71
:1023800031FB0EF43F9A2B8121FB0EF0209820FBAD
:102390000EF028980EF4289A21FB0EF4209A3A8128
:1023A00031FB0EF0239830FB0EF02B980EF42B9A95
:1023B00031FB0EF4239A298121FB0EF0529820FB69
:1023C0000EF05A980EF45A9A21FB0EF4529A10927B
:1023D000E900E092F000F092E9000093E2000F9033
:1023E0000F900F900F900F90DF91CF911F910F9151
:1023F000FF90EF90DF90CF9008950F931F93CF93AE
:10240000DF93EC01FC01E95DFE4F10821182128224
:102410001382349710821182128213821DA61CA689
:102420001FA61EA61CA21DA21EA21FA218A619A6A8
:102430001AA61BA61C8E1D8E1E8E1F8E188E198E20
:102440001A8E1B8E1C8A1D8A1E8A1F8AE758F10964
:1024500010821182128213823496108211821282AB
:102460001382349610821182128213823496108263
:102470001182128213823496108211821282138288
:102480003496108211821282138234961082118245
:102490001282138234961082118212821382349631
:1024A000108211821282138234961082118212825B
:1024B0001382349610821182128213823496108213
:1024C000118212821382EC55F1091082118212825C
:1024D00013823496108211821282138234961082F3
:1024E0001182128213823496108211821282138218
:1024F00034961082118212821382349610821182D5
:1025000012821382349610821182128213823496C0
:1025100010821182128213823496108211821282EA
:1025200013823496108211821282138234961082A2
:1025300011821282138234961082118212821382C7
:1025400019AA18AA1BAA1AAA8DE693E00E943F03B3
:102550008091B105811107C081E08093B1058DEABA
:1025600095E00E94320F80916D04811105C081E0D9
:1025700080936D040E947E108E0104531F4F42E031
:1025800050E063E070E0C8010E94D707C8010E94D4
:102590001507C752DF4F42E050E064E070E0CE0123
:1025A0000E948F0ACE010E94E8080E94C710DF91A6
:1025B000CF911F910F910C94D410CF92DF92EF9294
:1025C000FF92CF93DF93EC01CB01BA019B01AC01E9
:1025D0000E94A2269B01AC01688179818A819B813E
:1025E0000E940D276B017C019B01AC0160E070E053
:1025F00080E89FE30E94A12620E030E040E251E421
:102600000E94BA2868AF79AF8AAF9BAF20E030E074
:1026100040E85FE3C701B6010E94A22620E030E057
:1026200040E251E40E94BA286CAB7DAB8EAB9FAB0D
:10263000DF91CF91FF90EF90DF90CF900895EF92D0
:10264000FF920F931F93CF93DF93EC017A018901DF
:10265000FB012081318142815381688D798D8A8D82
:102660009B8D0E94A226688F798F8A8F9B8FF7019E
:1026700020813181428153816C8D7D8D8E8D9F8D26
:102680000E94A2266C8F7D8F8E8F9F8FF8012081F4
:102690003181428153816C897D898E899F890E9415
:1026A000A2266C8B7D8B8E8B9F8BDF91CF911F91A0
:1026B0000F91FF90EF9008954F925F926F927F92EB
:1026C0008F929F92AF92BF92CF92DF92EF92FF9242
:1026D0000F931F93CF93DF93EC014B01F901DA01C4
:1026E0002D913D914D915C916081718182819381A9
:1026F0000E94A126288139814A815B810E940D2791
:10270000F80120813181428153810E94A22620E07C
:1027100030E040E05FE30E94BA286B017C016093E7
:10272000A5057093A6058093A7059093A8055E0163
:10273000F8EAAF0EB11CD4012D913D914D915C9101
:10274000F50160817181828193810E94A2262B0113
:102750003C01FE01E456FF4F6083718382839383C3
:10276000349610821182128213824E01F0EB8F0E8A
:10277000911CD4012D913D914D915C91C701B60101
:102780000E94A2266B017C012BED3FE049EC50E456
:102790000E94B6288E010C551F4F18164CF42BEDD5
:1027A0003FE049EC50E4C701B6010E94A12618C0E1
:1027B00020E030E0A901C701B6010E94062787FD8D
:1027C00007C0D801CD92DD92ED92FC9213970DC017
:1027D0002BED3FE049EC50E4C701B6010E94A22670
:1027E000F8016083718382839383D5014D925D925A
:1027F0006D927C921397C455DF4F188219821A820A
:102800001B82F80180819181A281B381F4018083D0
:102810009183A283B383DF91CF911F910F91FF909A
:10282000EF90DF90CF90BF90AF909F908F907F9070
:102830006F905F904F9008954F925F926F927F924A
:102840008F929F92AF92BF92CF92DF92EF92FF92C0
:102850000F931F93CF93DF93EC015B01FC01EC55C9
:10286000FF4FC080D180E280F380C701B6010E9493
:102870000A278E0100541F4FF501208131814281CA
:1028800053810E94BA28F80120813181428153810D
:102890000E94A2262B013C01FE01EC54FF4F6083F5
:1028A000718382839383C701B6010E941D294E0163
:1028B000F4EC8F0E911CF50120813181428153810E
:1028C0000E94BA28F40120813181428153810E9403
:1028D000A226FE01E854FF4F6083718382839383B5
:1028E0003496C082D182E282F382F8014082518222
:1028F00062827382F4016083718382839383C853FD
:10290000DF4FC882D982EA82FB82DF91CF911F918B
:102910000F91FF90EF90DF90CF90BF90AF909F907E
:102920008F907F906F905F904F9008950F931F93BB
:10293000CF93DF93EC018C0104591F4F29E732E25A
:1029400040E259E3F80160817181828193810E94A4
:10295000BA28F80160837183828393830C5F1F4FD1
:1029600029E732E240E259E3F80160817181828116
:1029700093810E94BA28F8016083718382839383D4
:10298000CC58DF4F29E732E240E259E36881798190
:102990008A819B810E94BA28688379838A839B837A
:1029A000DF91CF911F910F9108950F931F93CF93B4
:1029B000DF93EC018C010C571F4F21E43AED4FE7F8
:1029C00058E3F80160817181828193810E94BA2865
:1029D000F80160837183828393830C5F1F4F21E42E
:1029E0003AED4FE758E3F80160817181828193816C
:1029F0000E94BA28F8016083718382839383C4574D
:102A0000DF4F21E43AED4FE758E3688179818A810D
:102A10009B810E94BA28688379838A839B83DF9194
:102A2000CF911F910F910895CF92DF92EF92FF9275
:102A30000F931F93CF93DF93EC016C018CECC80EC6
:102A4000D11CC6010E942D077E01E9EDEE0EF11C9E
:102A5000C7010E94520A8E0104591F4FF60160817E
:102A60007181882777FD8095982F0E94A827F8010B
:102A700060837183828393830C5F1F4FEE59FF4FF6
:102A800060817181882777FD8095982F0E94A82703
:102A9000F80160837183828393830C5F1F4FE05A38
:102AA000FF4F60817181882777FD8095982F0E9464
:102AB000A827F8016083718382839383005F1F4F8F
:102AC000F70160817181882777FD8095982F0E949A
:102AD000A827F80160837183828393830C5F1F4F63
:102AE000E95AFF4F60817181882777FD8095982F83
:102AF0000E94A827F80160837183828393830C5F0F
:102B00001F4FEB5AFF4F60817181882777FD8095B9
:102B1000982F0E94A827F801608371838283938392
:102B2000CE010E94D514CE01DF91CF911F910F915C
:102B3000FF90EF90DF90CF900C9496144F925F929D
:102B40006F927F928F929F92AF92BF92CF92DF92BD
:102B5000EF92FF920F931F93CF93DF93CDB7DEB722
:102B600060970FB6F894DEBF0FBECDBF5C010E9428
:102B70008A1D85010D5D1E4F450129ED821A2EEF3C
:102B8000920AD401CD90DD90ED90FC906C197D09F6
:102B90008E099F09F80160837183828393838DE29C
:102BA00094E00E940C0669ED71E080915E049091C2
:102BB0005F040E940B2061EE71E080915E049091B1
:102BC0005F040E940B20D5019C966D917C919D978E
:102BD0004AE050E080915E0490915F040E94AD2035
:102BE00063EE71E080915E0490915F040E940B207F
:102BF00065E070E080E090E00E94B91DF50164A5F9
:102C000075A5882777FD8095982F0E94A8279B019E
:102C1000AC010E946529882329F0D5019D961C925C
:102C20001E929C97F50166A577A5882777FD80956C
:102C3000982F0E94A8279B01AC010E946529882338
:102C400029F0D5019F961C921E929E97D5011C9645
:102C50008D919D910D90BC91A02D8D879E87AF8702
:102C6000B88BF501408451846284738464A575A592
:102C7000882777FD8095982F0E94A8272D853E856F
:102C80004F8558890E94BA28A30192010E940D27FE
:102C90006B017C0169877A878B879C87D5019E961B
:102CA0006D917C919F97882777FD8095982F0E9442
:102CB000A8272D853E854F8558890E94BA28A301F3
:102CC00092010E940D276D837E838F839887A701D1
:102CD00096010E94A22620E030E040E05FE30E94DF
:102CE000BA2869837A838B839C839E012F5F3F4F31
:102CF000AE014B5F5F4FBE01675F7F4FC5010E9412
:102D00001F13C5010E9414157501B4E7EB0EF11CE9
:102D1000F80160817181828193810E94A627D70189
:102D20002D913D914D915C910E94BA2820E030E0B8
:102D30004AE754E40E940D276093A9057093AA0501
:102D40008093AB059093AC0509EA15E09E012B5FDB
:102D50003F4FAE01475F5F4FBE016F5F7F4FC501C1
:102D60000E945C139E012B5F3F4FAE01475F5F4F98
:102D7000BE016F5F7F4FC5010E941C140E948A1D17
:102D8000F401608371838283938360960FB6F89415
:102D9000DEBF0FBECDBFDF91CF911F910F91FF908E
:102DA000EF90DF90CF90BF90AF909F908F907F90EB
:102DB0006F905F904F9008952F923F924F925F9245
:102DC0006F927F928F929F92AF92BF92CF92DF923B
:102DD000EF92FF920F931F93CF93DF93CDB7DEB7A0
:102DE0006A970FB6F894DEBF0FBECDBF1C01C98233
:102DF000DA82EB82FC820D831E832F83388749871A
:102E00005A876B877C8789859A85AB85BC85898B3A
:102E10009A8BAB8BBC8BA114B10409F063C28BE419
:102E200090E0D10193969C938E93929791969C9368
:102E30008E939097C12CD12C30E2E32E31E4F32E07
:102E40008101095F1E4FF101EC54FF4FFE8BED8BAA
:102E5000C10188549F4F988F8F8BA454BF4FBA8F56
:102E6000A98F20E030E0A901C701B6010E94B62871
:102E7000181664F420E030E040E850E4C701B601E1
:102E80000E94B62818160CF4FEC107C220E030E0FC
:102E900040E850ECC701B6010E94062787FFFDC13C
:102EA00020E030E040EC51ECC701B6010E94B628AA
:102EB00018160CF0F2C18DE294E00E940C066CEE44
:102EC00071E080915E0490915F040E940B2061EE9E
:102ED00071E080915E0490915F040E940B2020E0DD
:102EE00030E0A901C701B6010E94B628B701A601CA
:102EF00018160CF0705822E030E080915E0490913A
:102F00005F040E94B42163EE71E080915E049091B1
:102F10005F040E940B2065E070E080E090E00E947A
:102F2000B91DF10162A173A1C8010E94E110D10194
:102F300090966D917C919197C8010E9407110E9413
:102F4000C710F10195A784A70E94D410D1019F96C4
:102F50009C938E939E9761E070E0C1010E949E1544
:102F600064E170E080E090E00E94B91D8DE294E0A1
:102F70000E940C0664EF71E080915E0490915F0402
:102F80000E940B2061EE71E080915E0490915F04DD
:102F90000E940B20ED89FE894081518162817381FD
:102FA00022E030E080915E0490915F040E94B421A1
:102FB00061EE71E080915E0490915F040E940B20AD
:102FC000AF89B88D4D915D916D917C9122E030E09B
:102FD00080915E0490915F040E94B42161EE71E0E3
:102FE00080915E0490915F040E940B20E98DFA8D20
:102FF000408151816281738122E030E080915E04E2
:1030000090915F040E94B42163EE71E080915E04B0
:1030100090915F040E940B2065E070E080E090E0FA
:103020000E94B91DD1019E966D917C919F979C96AF
:103030008D919C919D97681B790B882777FD8095D2
:10304000982F0E94A8276D877E878F87988B29816C
:103050003A814B815C81ED89FE8960817181828139
:1030600093810E94A1264B015C012D813E814F81FD
:103070005885AF89B88D6D917D918D919C910E94FD
:10308000A1262B013C018DE294E00E940C066CEF1E
:1030900071E080915E0490915F040E940B2061EECC
:1030A00071E080915E0490915F040E940B2022E009
:1030B00030E040E050E0BA0180915E0490915F04FE
:1030C0000E94B42161EE71E080915E0490915F04F2
:1030D0000E940B2022E030E0B701A60180915E043F
:1030E00090915F040E94B42161EE71E080915E04D2
:1030F00090915F040E940B2022E030E0B501A40112
:1031000080915E0490915F040E94B42161EE71E0B1
:1031100080915E0490915F040E940B2022E030E0D9
:10312000B301A20180915E0490915F040E94B421DA
:1031300063EE71E080915E0490915F040E940B2029
:1031400065E070E080E090E00E94B91DA501940167
:10315000C501B4010E94BA289B01AC01C701B601A8
:103160000E94A2266B017C01A3019201C301B2015E
:103170000E94BA289B01AC01C701B6010E94A22699
:103180000E9427296B017C01E98DFA8D8080918056
:10319000A280B3802DEC3CEC4CE45EE369897A8933
:1031A0008B899C890E94A2269B01AC01C501B401B8
:1031B0000E94B6281816A4F4D10192968D919C9184
:1031C0009397029693969C938E93929790968D9157
:1031D0009C919197029791969C938E9390971DC086
:1031E0002DEC3CEC4CE45EE369897A898B899C89FF
:1031F0000E94A1269B01AC01C501B4010E940627D3
:1032000087FF0BC0F10182A193A1029793A382A330
:1032100080A191A1029691A380A320E030E0A901B2
:103220006D857E858F8598890E94B6281816A4F42E
:10323000D10192968D919C919397029693969C932F
:103240008E93929790968D919C91919702979196DB
:103250009C938E93909705CE20E030E0A9016D8578
:103260007E858F8598890E94062787FFFACDF10118
:1032700082A193A1029793A382A380A191A1029618
:1032800091A380A3EECD20E030E040EC51E4C701F3
:10329000B6010E94062787FD0ECE8101095F1E4FF1
:1032A00060E070E0C8010E94E11060E070E0C801D9
:1032B0006A960FB6F894DEBF0FBECDBFDF91CF91F7
:1032C0001F910F91FF90EF90DF90CF90BF90AF9044
:1032D0009F908F907F906F905F904F903F902F9036
:1032E0000C940711AA94AB2809F002C240E050E008
:1032F00060E371E4C1010E94DD122AE939E949E97C
:103300005FE3D101D4966D917D918D919C91D7977A
:103310000E94BA280E947527F10173A362A326E6D2
:1033200036E646E65FE360AD71AD82AD93AD0E94D7
:10333000BA280E947527D10191967C936E9390973D
:103340005101BCEBAB0EB11C8101095F1E4FF101B5
:10335000EC54FF4FFE87ED874101F8EB8F0E911C77
:10336000D501CD90DD90ED90FC9021E436E74FE45F
:1033700050E4C701B6010E94B62887FD8CC10E94A7
:10338000C710D1019D969C938E939C970E94D41058
:10339000F10197A786A762A173A193E0660F771F3B
:1033A0009A95E1F7C8010E94E110D10190966D91C4
:1033B0007C91919723E0660F771F2A95E1F7C8016A
:1033C0000E94071161E070E0C1010E949E1540E07B
:1033D00060E08DEA95E00E94AD0FF50140815181DA
:1033E0006281738122E030E08DEA95E00E94B42191
:1033F0008DE294E00E940C0664E072E080915E042D
:1034000090915F040E940B2061EE71E080915E0458
:1034100090915F040E940B20AD85BE854D915D911A
:103420006D917C9122E030E080915E0490915F0488
:103430000E94B42161EE71E080915E0490915F047E
:103440000E940B20F401408151816281738122E04E
:1034500030E080915E0490915F040E94B42161EE9F
:1034600071E080915E0490915F040E940B20D50171
:103470004D915D916D917C9122E030E080915E04F0
:1034800090915F040E94B42163EE71E080915E042C
:1034900090915F040E940B2065E070E080E090E076
:1034A0000E94B91D20E030E040E05FE3F101648557
:1034B0007585868597850E94BA28D10118962D9129
:1034C0003D914D915C911B970E940D276B017C01F2
:1034D000F10164A575A586A597A5680F791F8827B2
:1034E00077FD8095982F0E94A8279B01AC01C7010A
:1034F000B6010E94BA282B013C012091A50530910C
:10350000A6054091A7055091A8050E940D276B01C3
:103510007C01E894F7F841E060E08DEA95E00E94D4
:10352000AD0F8DE294E00E940C066CE072E0809199
:103530005E0490915F040E940B2061EE71E0809127
:103540005E0490915F040E940B2022E030E0B701FE
:10355000A60180915E0490915F040E94B42161EE07
:1035600071E080915E0490915F040E940B2022E044
:1035700030E0B301A20180915E0490915F040E944B
:10358000B42161EE71E080915E0490915F040E942D
:103590000B204091A5055091A6056091A70570915B
:1035A000A80522E030E080915E0490915F040E94C3
:1035B000B42161EE71E080915E0490915F040E94FD
:1035C0000B20D1019C966D917C919D974AE050E033
:1035D00080915E0490915F040E94AD2061EE71E0E5
:1035E00080915E0490915F040E940B20F10166A51A
:1035F00077A54AE050E080915E0490915F040E94BC
:10360000AD2063EE71E080915E0490915F040E94B2
:103610000B2065E070E080E090E00E94B91D22E0A0
:1036200030E0B701A6018DEA95E00E94B42120E0C8
:1036300030E040E351E4C701B6010E94B6281816F5
:10364000A4F4D10192968D919C91939701969396B3
:103650009C938E93929790968D919C9191970197C0
:1036600091969C938E9390977BCE20E030E040E340
:1036700051E4C701B6010E94062787FF71CEF10110
:1036800082A193A1019793A382A380A191A1019606
:1036900091A380A365CE25E739EA42E450E4C7014F
:1036A000B6010E94062718160CF069CE60E070E0A3
:1036B000C8010E94071160E070E0C8016A960FB669
:1036C000F894DEBF0FBECDBFDF91CF911F910F9158
:1036D000FF90EF90DF90CF90BF90AF909F908F9032
:1036E0007F906F905F904F903F902F900C94E110DF
:1036F0006A960FB6F894DEBF0FBECDBFDF91CF91B3
:103700001F910F91FF90EF90DF90CF90BF90AF90FF
:103710009F908F907F906F905F904F903F902F90F1
:103720000895AF92BF92CF92DF92EF92FF920F93E4
:103730001F93A114B10461F0AA94AB28C9F4FC0151
:10374000E85BFF4F4083518362837383349607C0E5
:10375000FC0144AF55AF66AF77AFE05CFF4F00832D
:103760001183228333833496C082D182E282F38232
:103770001F910F91FF90EF90DF90CF90BF90AF908F
:1037800008958DEA95E00E941C0F88E192E09093E5
:10379000AE058093AD0589EC96E7A6E5B0E480938D
:1037A0007A0490937B04A0937C04B0937D0480E61C
:1037B00095EEA0E3BFE380937E0490937F04A093F3
:1037C0008004B093810484E19EE6A3E6B4E4809390
:1037D000820490938304A0938404B09385048DE0C5
:1037E0009FEEAAE8B0E48093860490938704A093A8
:1037F0008804B093890480E090E0A0E8BFE3809360
:103800008A0490938B04A0938C04B0938D0486E477
:1038100095E00E94E30683E595E00E946B082998F5
:10382000219A2D98259A2A98229A2E98269A80EAEB
:103830008093800081E18093810080E991E0909302
:103840008700809386001092890010928800109261
:103850008B0010928A0008950895853008F04CC0BE
:10386000E82FF0E0EE0FFF1FEE5EFE4F71836083E6
:103870008230E1F018F4813069F004C0833019F12E
:10388000843071F1809169008C7F842B8093690072
:10389000E89A089580916900440F551F440F551F01
:1038A000837F842B80936900E99A08958091690051
:1038B00034E0440F551F3A95E1F78F7C842B8093B9
:1038C0006900EA9A08958091690026E0440F551F27
:1038D0002A95E1F78F73842B80936900EB9A089502
:1038E00080916A0094E0440F551F9A95E1F78F7C10
:1038F000842B80936A00EE9A08951F920F920FB660
:103900000F9211242F933F934F935F936F937F9365
:103910008F939F93AF93BF93EF93FF93E091120127
:10392000F09113010995FF91EF91BF91AF919F9194
:103930008F917F916F915F914F913F912F910F9058
:103940000FBE0F901F9018951F920F920FB60F92F7
:1039500011242F933F934F935F936F937F938F9394
:103960009F93AF93BF93EF93FF93E0911401F09176
:1039700015010995FF91EF91BF91AF919F918F91A3
:103980007F916F915F914F913F912F910F900FBE5B
:103990000F901F9018951F920F920FB60F9211243F
:1039A0002F933F934F935F936F937F938F939F9347
:1039B000AF93BF93EF93FF93E0911601F09117013E
:1039C0000995FF91EF91BF91AF919F918F917F9159
:1039D0006F915F914F913F912F910F900FBE0F907C
:1039E0001F9018951F920F920FB60F9211242F93CC
:1039F0003F934F935F936F937F938F939F93AF9377
:103A0000BF93EF93FF93E0911801F091190109958D
:103A1000FF91EF91BF91AF919F918F917F916F91A6
:103A20005F914F913F912F910F900FBE0F901F907C
:103A300018951F920F920FB60F9211242F933F9358
:103A40004F935F936F937F938F939F93AF93BF93A6
:103A5000EF93FF93E0911A01F0911B010995FF91FB
:103A6000EF91BF91AF919F918F917F916F915F91F6
:103A70004F913F912F910F900FBE0F901F9018956F
:103A80001F920F920FB60F9211242F933F938F9393
:103A90009F93AF93BF938091B5059091B605A09188
:103AA000B705B091B8053091B40523E0230F2D3749
:103AB00020F40196A11DB11D05C026E8230F029632
:103AC000A11DB11D2093B4058093B5059093B60553
:103AD000A093B705B093B8058091B9059091BA0548
:103AE000A091BB05B091BC050196A11DB11D8093AD
:103AF000B9059093BA05A093BB05B093BC05BF91DF
:103B0000AF919F918F913F912F910F900FBE0F908A
:103B10001F9018952FB7F8946091B5057091B60570
:103B20008091B7059091B8052FBF08953FB7F894DD
:103B30008091B9059091BA05A091BB05B091BC05E3
:103B400026B5A89B05C02F3F19F00196A11DB11DF8
:103B50003FBF6627782F892F9A2F620F711D811D15
:103B6000911D42E0660F771F881F991F4A95D1F774
:103B700008958F929F92AF92BF92CF92DF92EF9271
:103B8000FF926B017C010E94961D4B015C01C114E8
:103B9000D104E104F104F1F00E9405260E94961D73
:103BA000681979098A099B09683E73408105910566
:103BB00070F321E0C21AD108E108F10888EE880EFE
:103BC00083E0981EA11CB11CC114D104E104F104CE
:103BD00029F7DDCFFF90EF90DF90CF90BF90AF90AF
:103BE0009F908F900895789484B5826084BD84B549
:103BF000816084BD85B5826085BD85B5816085BDE8
:103C0000EEE6F0E0808181608083E1E8F0E0108200
:103C1000808182608083808181608083E0E8F0E041
:103C2000808181608083E1E9F0E08081826080832F
:103C3000808181608083E0E9F0E080818160808321
:103C4000E1ECF0E080818460808380818260808309
:103C5000808181608083E3ECF0E0808181608083FB
:103C6000E0ECF0E0808182608083E2ECF0E0808133
:103C700081608083EAE7F0E08081846080838081D6
:103C8000826080838081816080838081806880837E
:103C9000089590E0FC013197EF30F105B0F5EA5A54
:103CA000FF4F0C94002A809180008F7703C0809191
:103CB00080008F7D80938000089580918000877FB1
:103CC000F9CF84B58F7702C084B58F7D84BD089508
:103CD000809190008F7707C0809190008F7D03C006
:103CE00080919000877F8093900008958091C0001C
:103CF0008F7703C08091C0008F7D8093C0000895AE
:103D00008091C200877F8093C20008950F931F9314
:103D1000CF93DF931F92CDB7DEB7282F30E0F901A4
:103D2000E851FF4F8491F901E95FFE4F1491F901C9
:103D3000EA5DFE4F04910023C9F0882321F06983D6
:103D40000E94491E6981E02FF0E0EE0FFF1FEB5B40
:103D5000FE4FA591B4919FB7F8948C91611103C067
:103D60001095812301C0812B8C939FBF0F90DF9111
:103D7000CF911F910F9108950E94202ACF93DF9336
:103D80001F92CDB7DEB76983DC01ED91FC91028013
:103D9000F381E02D41E050E0BE016F5F7F4F099558
:103DA0000F90DF91CF910895CF93DF93EC018C8535
:103DB0009D8597FF05C082E00E94C7229D878C8762
:103DC0008C859D85DF91CF91089583E00C945B25D0
:103DD000FC018485958597FD06C082E00E946F22D4
:103DE00090E00196089582E00E946F2290E008958D
:103DF000FC018485958597FD05C02FEF3FEF358742
:103E00002487089582E00C94C722CF93DF93EC01BE
:103E100080912701882331F083E00E94F822181650
:103E2000190634F081E090E09B838A8380E090E083
:103E3000DF91CF910895FC0120812E5F208342E421
:103E400050E063E571E080E80C949323FC0121814C
:103E50008081813A59F4213209F04BC047E050E0AB
:103E600060E271E080E00E9493235EC0813209F03D
:103E700040C0233289F4838190E0982F88273281D3
:103E8000832BA0E0B0E080931C0190931D01A093D0
:103E90001E01B0931F010FC0203239F467E070E0BB
:103EA00080E291E00E94C42309C0223221F4828181
:103EB0008093270103C02D7F2032B1F580910D063C
:103EC000811103C0E0E0F8E002C0EEEFFAE080917B
:103ED000200190912101A0912201B0912301803B0A
:103EE0009440A105B10511F58091270180FF03C021
:103EF0001DC080E00895EE3F2AE0F20731F0808196
:103F000091819093FF0A8093FE0A87E797E7918358
:103F100080832BE088E190E00FB6F894A895809319
:103F200060000FBE2093600081E0089588E10FB625
:103F3000F89480936000109260000FBEA895EE3F49
:103F40008AE0F80739F08091FE0A9091FF0A918388
:103F50008083EACF1092FF0A1092FE0AE5CF2FEF7E
:103F60003FEFFC01358724870895CF93C091270147
:103F70006AE070E080E090E00E94B91D81E0C1112C
:103F800001C080E0CF9108951092C0051092BF0546
:103F900088EE93E0A0E0B0E08093C1059093C20565
:103FA000A093C305B093C40584E292E09093BE054C
:103FB0008093BD058FEF9FEF9093CA058093C9054D
:103FC000089508950E94F31D0E94E11F8EE096E07F
:103FD0000E94E8250E942001C0E0D0E00E94B601C6
:103FE0002097E1F30E940000F9CF6115710581F07F
:103FF000DB010D900020E9F7AD0141505109461B4E
:10400000570BDC01ED91FC910280F381E02D0994C6
:1040100080E090E008950C94F51FDC01ED91FC9197
:104020000190F081E02D09948F929F92AF92BF9200
:10403000DF92EF92FF920F931F93CF93DF93CDB751
:10404000DEB7A1970FB6F894DEBF0FBECDBF7C01DF
:10405000F42FD52ECB0119A2223008F42AE08E01CC
:104060000F5D1F4F822E912CA12CB12C6F2F7D2D17
:10407000A50194010E94BF29F22FD32ECA0101503D
:1040800011096A3014F4E0E301C0E7E3E60FD80158
:10409000EC93232B242B252B49F7B801C7010E9451
:1040A000F51FA1960FB6F894DEBF0FBECDBFDF910E
:1040B000CF911F910F91FF90EF90DF90BF90AF9045
:1040C0009F908F900895CF92DF92EF92FF920F937F
:1040D0001F93CF93DF93EC016A017B01211531051A
:1040E00079F4E881F9810190F081E02D642FDF916E
:1040F000CF911F910F91FF90EF90DF90CF90099497
:104100002A303105E9F477FF1AC06DE20E940D20D4
:104110008C0144275527BA014C195D096E097F09A6
:104120002AE0CE010E941420800F911FDF91CF91D1
:104130001F910F91FF90EF90DF90CF9008952AE0AC
:10414000B701A601CE01DF91CF911F910F91FF9092
:10415000EF90DF90CF900C9414209A01AB0166276A
:1041600057FD6095762F0C9463202115310541F49D
:10417000DC01ED91FC910190F081E02D642F099418
:104180000C9414209A01462F50E060E070E00C94EB
:10419000B5204F925F926F927F928F929F92AF92D3
:1041A000BF92CF92DF92EF92FF920F931F93CF9324
:1041B000DF93EC016A017B01B22E9A01AB01C701CA
:1041C000B6010E946529882319F060E372E027C0D8
:1041D00026013701E89477F82FEF3FEF4FE75FE7CD
:1041E000C301B2010E94652981110DC02FEF3FEF7D
:1041F0004FE75FE7C301B2010E94062718161CF4BF
:1042000064E372E00CC02FEF3FEF4FE75FE4C701BC
:10421000B6010E94B6281816ACF468E372E0CE012D
:10422000DF91CF911F910F91FF90EF90DF90CF9092
:10423000BF90AF909F908F907F906F905F904F90C6
:104240000C94F51F2FEF3FEF4FE75FECC701B6016E
:104250000E94062787FDE1CF20E030E0A901C701D9
:10426000B6010E94062787FF0AC06DE2CE010E94B8
:104270000D208C01F7FAF094F7F8F09402C000E0FA
:1042800010E0A12C60E070E080E09FE3AB1441F00F
:1042900020E030E040E251E40E940D27A394F6CFE5
:1042A0009B01AC01C701B6010E94A2266B017C01F3
:1042B0000E947A272B013C010E94A6279B01AC019A
:1042C000C701B6010E94A1266B017C012AE0B3015F
:1042D000A201CE010E941420080F191FBB2039F043
:1042E0006CE372E0CE010E94F51F080F191F7B2CB2
:1042F000772041F120E030E040E251E4C701B6010F
:104300000E94BA286B017C010E9475274B01AA24E8
:1043100097FCA094BA2C2AE030E0B501A401CE01AC
:104320000E946320080F191FC501B4010E94A8272D
:104330009B01AC01C701B6010E94A1266B017C0163
:104340007A94D6CFC801DF91CF911F910F91FF9042
:10435000EF90DF90CF90BF90AF909F908F907F9025
:104360006F905F904F9008950C94C920615030F089
:104370002091F100FC0120830196F8CF289884E673
:1043800080931706089540911206509113062091CC
:1043900010063091110642175307B4F49091E800CB
:1043A0009570E1F39091E80092FD19C08093F100BF
:1043B000809112069091130601968F739927892B8D
:1043C00019F48EEF8093E800809112069091130605
:1043D0000196909313068093120681E0089580E081
:1043E0000895CF92DF92EF92FF920F931F93CF9396
:1043F000DF931F92CDB7DEB7082F162FF42E862F2E
:10440000880F8E5F99830E94C32183E00E94C3219D
:10441000E02EC02E9981D92E8C2D8E19811798F4FB
:10442000F601F7FE02C0849101C080810E94C32181
:10443000082F80E00E94C3218023FFEFCF1ADF0AFC
:104440008111EACF01C081E00F90DF91CF911F91E0
:104450000F91FF90EF90DF90CF9008958091D7005B
:1044600081608093D70080EA8093D80089B580610D
:1044700089BD89B5826089BD09B400FEFDCF61E0C8
:1044800070E080E090E00E94B91D8091D8008F7CA0
:1044900080618093D8008091E000807F8093E0006D
:1044A0000895CF93DF931F92CDB7DEB71982CE0167
:1044B00001960E941B1F0E948D26BE016F5F7F4FD9
:1044C0000E94062689810F90DF91CF9108952FB722
:1044D000FC012083F89467706093E9000895CF93FE
:1044E000DF931F92CDB7DEB7682FCE0101960E94F1
:1044F00067228091F20099819FBF0F90DF91CF9149
:104500000895FF920F931F93CF93DF9300D0CDB701
:10451000DEB7F62E8A0190911606992311F057FF07
:1045200003C08FEF9FEF2BC0682FCE0101967A83D7
:104530000E9467228091F20090E0A8017A818017A2
:1045400091070CF4AC01EF2DF72FF40E84E6FE1664
:1045500039F02898809317069091F1009193F7CF46
:104560004115510521F08091F200882321F08981C5
:104570008FBFCA0104C08BE68093E800F8CF0F908C
:104580000F90DF91CF911F910F91FF900895CF93DE
:10459000DF931F92CDB7DEB741E050E0BE016F5F01
:1045A0007F4F0E948122019719F4898190E002C017
:1045B0008FEF9FEF0F90DF91CF910895CF93DF930F
:1045C0001F92CDB7DEB7682FCE0101960E946722F9
:1045D0009091E800892F807295FF04C09091F200BD
:1045E00080E4891B99819FBF0F90DF91CF9108953F
:1045F0006F927F928F929F92AF92BF92CF92DF92F3
:10460000EF92FF920F931F93CF93DF931F92CDB73B
:10461000DEB7782E7B01C42EB52E80911606882336
:1046200069F0042F152F8AEFD82E872D8072982ECF
:104630009AE3A92E872D8074882E11C08FEF9FEFEB
:1046400057C0872D0E94DE22682E81110CC0DA949B
:10465000A9F361E070E080E090E00E94B91D0115CF
:10466000110579F73BC0282F30E0021713070CF42F
:10467000602E672DCE0101960E9467228091E8008E
:1046800085FF29C0262D30E0021B130B992039F03D
:104690006A948FEF6816B1F01092F100F9CFF7012C
:1046A000862D77FE07C0815058F094919093F100C9
:1046B0003196F9CF815020F091919093F100FACF8B
:1046C000E20EF31E8091E80085FF0FC00115110571
:1046D00011F481100AC089818FBFC1CF5D9884E633
:1046E000809318068C2D9B2D03C0A092E800F3CF79
:1046F0000F90DF91CF911F910F91FF90EF90DF907E
:10470000CF90BF90AF909F908F907F906F900895C3
:104710001092E9001092130610921206909311065F
:10472000809310060895CF92DF92FF920F931F930C
:10473000CF93DF9300D0CDB7DEB7F82E8A016B019F
:1047400001151105B1F0F601F7FE02C0849101C018
:10475000808149835A830E94C32101501109FFEFD0
:10476000CF1ADF0A49815A818111EACF8FEF9FEF7B
:1047700001C0CA010F900F90DF91CF911F910F914F
:10478000FF90DF90CF900895BF92CF92DF92EF928B
:10479000FF920F931F93CF93DF936C018B01EB017B
:1047A0003BEFB32E2097C1F07E01C134D1051CF040
:1047B00020E4E22EF12C8091E80082FFFCCFC801BA
:1047C0008C1B9D0B6E2D8C0D9D1D0E94B621B092F1
:1047D000E800CE19DF09E6CFC801DF91CF911F9124
:1047E0000F91FF90EF90DF90CF90BF9008951F92B0
:1047F0000F920FB60F921124DF92EF92FF920F9358
:104800001F932F933F934F935F936F937F938F9358
:104810009F93AF93BF93EF93FF93CF93DF93CDB766
:10482000DEB76C97DEBFCDBF1092E9008091E80043
:1048300083FF23C168E0CE0145960E94B62182EF36
:104840008093E8003D8937FF05C08091E80080FF34
:10485000FCCF03C08EEF8093E800832F807609F0B1
:10486000F0C02E894F89D88C21110CC0303829F422
:10487000809115068093F10002C01092F100109211
:10488000F100F4C0842F90E09D29213049F43111CA
:10489000EDC0019709F0EAC0809115068D7F0AC02E
:1048A000233059F43111E2C0019709F0DFC0809143
:1048B0001506826080931506D9C0253041F4809199
:1048C000E80080FFFCCF40684093E300CFC0263073
:1048D00009F08DC0EB8CFC8C22E0D2122CC080E061
:1048E00090E00E9488230E94512299E08E010F5F80
:1048F0001F4FF801292F11922A95E9F79983DA823F
:1049000091E09E8390EA98879AEF9987209112060A
:1049100030911306275F3F4F3C832B838D83C70164
:104920000E94882349E050E0B80180E00E94932370
:104930000E9451229BC0C7010E9488230E948D269D
:10494000BE016B5E7F4F0E942F26009719F00CF07E
:104950008DC090C081E0D8120EC08B8D9C8D0897C1
:1049600019F481E080930F0680910F0681112FC00A
:1049700067EA71E031C0E3E0DE127CC08F898823F2
:1049800049F1823029F440E862E18CEC91E01CC0EE
:10499000813029F440E862E189EB91E015C0833071
:1049A00009F068C00E948D268E010F5F1F4FB8016D
:1049B0000E944E26F80101900020E9F73197E01B94
:1049C000F10B40E06E2FC8010E94F1214DC065E956
:1049D00071E002C06FED71E06115710509F44AC024
:1049E000FB01449150E080E80E9493233FC02730B0
:1049F00009F440C0283021F481E08093F10036C0F2
:104A00002930A1F53370B1F5E9E2F1E081E021E070
:104A100036E39081992361F08093E9002093EB00C5
:104A200091919093EC003093ED008F5F873089F780
:104A30008EE78093EA001092EA008F898093160631
:104A400015C08B8D9C8D0E948823898D811105C096
:104A5000CE0145960E94261F07C00E948D26BE01EA
:104A60006B5E7F4F0E946D26882321F08EEF80932E
:104A7000E80003C081E28093EB006C960FB6F894D7
:104A8000DEBF0FBECDBFDF91CF91FF91EF91BF9100
:104A9000AF919F918F917F916F915F914F913F91D6
:104AA0002F911F910F91FF90EF90DF900F900FBE0D
:104AB0000F901F9018958093E9008091F200882351
:104AC00019F08AE38093E80008951F920F920FB6C1
:104AD0000F9211242F933F934F935F936F937F9384
:104AE0008F939F93AF93BF93CF93EF93FF93C09117
:104AF000E1008091E100837F8093E1008093E100F9
:104B0000C3FF0FC01092E90081E08093EB00109288
:104B1000EC0082E38093ED001092160688E080930B
:104B2000F000C2FF19C083E00E945B258091180647
:104B3000882339F0809118068150809318068823C5
:104B400089F180911706882339F0809117068150EA
:104B500080931706882341F1C4FF10C08091E200C2
:104B60008E7E81608093E2008091E1008F7E809351
:104B7000E100809114068E7E806111C0C0FF16C0D6
:104B80008091E2008E7E80618093E2008091E1005E
:104B90008E7E8093E100809114068E7E81608093EA
:104BA000140604C05D9ACDCF289AD6CFFF91EF911D
:104BB000CF91BF91AF919F918F917F916F915F91B5
:104BC0004F913F912F910F900FBE0F901F9018950E
:104BD0001092160610921506109214060E942E22AC
:104BE0008091E1008E7E8093E1008DE08093E20071
:104BF000559A209AEEEFFFE7859194918B3F9C4D5B
:104C000019F481E080930D0608950895EF92FF92C4
:104C10000F931F93CF93DF937B01FC01C281D3815C
:104C200000E010E0209781F0E881F9810280F381B3
:104C3000E02DB701CE01099597FD08C0080F191F97
:104C40000884D985C02DEECFC80102C08FEF9FEF39
:104C5000DF91CF911F910F91FF90EF9008950F93E7
:104C60001F93CF93DF938B01FC01C281D3812097E7
:104C700071F0E881F9810480F581E02DB801CE0161
:104C80000995009731F40884D985C02DF0CF80E0D4
:104C900090E0DF91CF911F910F9108950F931F9393
:104CA000CF93DF938B01FC01C281D381209771F0F8
:104CB000E881F9810680F781E02DB801CE010995E0
:104CC000080F111D0884D985C02DF0CFF80110827E
:104CD000DF91CF911F910F9108950F931F93CF9361
:104CE000DF938B01FC01C281D381209771F0E881B1
:104CF000F9810190F081E02DB801CE010995811173
:104D000006C00884D985C02DF0CF80E001C081E0C5
:104D1000DF91CF911F910F91089580911D06811110
:104D20000DC082E08093190684E080931A061092E9
:104D30001C0610921B0681E080931D0689E196E017
:104D400008955058BB27AA270ED0C5C18ED130F088
:104D500093D120F031F49F3F11F41EF45EC10EF4A4
:104D6000E095E7FB54C1E92FD8D180F3BA17620769
:104D700073078407950718F071F49EF5F0C10EF4DF
:104D8000E0950B2EBA2FA02D0B01B90190010C015B
:104D9000CA01A0011124FF27591B99F0593F50F473
:104DA000503E68F11A16F040A22F232F342F4427CB
:104DB000585FF3CF469537952795A795F0405395C3
:104DC000C9F77EF41F16BA0B620B730B840BBAF093
:104DD0009150A1F0FF0FBB1F661F771F881FC2F7FE
:104DE0000EC0BA0F621F731F841F48F48795779512
:104DF0006795B795F7959E3F08F0B3CF9395880FC9
:104E000008F09927EE0F979587950895DCD008F460
:104E100081E0089539D1E3956FC10CD05CC12CD1EC
:104E200040F023D130F021F45F3F19F0F0C0511170
:104E300097C1F3C072D198F39923C9F35523B1F305
:104E4000951B550BBB27AA2762177307840738F0F9
:104E50009F5F5F4F220F331F441FAA1FA9F333D058
:104E60000E2E3AF0E0E830D091505040E695001C0C
:104E7000CAF729D0FE2F27D0660F771F881FBB1FC8
:104E8000261737074807AB07B0E809F0BB0B802DA2
:104E9000BF01FF2793585F4F2AF09E3F510568F0EE
:104EA000B6C05EC15F3FECF3983EDCF38695779524
:104EB0006795B795F7959F5FC9F7880F911D9695F0
:104EC000879597F90895E1E0660F771F881FBB1F4C
:104ED000621773078407BA0720F0621B730B840BF9
:104EE000BA0BEE1F88F7E095089504D06894B111CD
:104EF00037C108951AD188F09F5790F0B92F99279C
:104F0000B751A0F0D1F0660F771F881F991F1AF0D4
:104F1000BA95C9F712C0B13081F021D1B1E008953E
:104F20001EC1672F782F8827B85F39F0B93FCCF3BF
:104F3000869577956795B395D9F73EF490958095CA
:104F4000709561957F4F8F4F9F4F0895E89409C0EA
:104F500097FB3EF490958095709561957F4F8F4FAC
:104F60009F4F9923A9F0F92F96E9BB279395F695C2
:104F7000879577956795B795F111F8CFFAF4BB0F40
:104F800011F460FF1BC06F5F7F4F8F4F9F4F16C0A4
:104F9000882311F096E911C0772321F09EE8872F2E
:104FA000762F05C0662371F096E8862F70E060E0EA
:104FB0002AF09A95660F771F881FDAF7880F969563
:104FC000879597F90895990F0008550FAA0BE0E807
:104FD000FEEF16161706E807F907C0F012161306BB
:104FE000E407F50798F0621B730B840B950B39F4FB
:104FF0000A2661F0232B242B252B21F408950A2661
:1050000009F4A140A6958FEF811D811D089597F9A0
:105010009F6780E870E060E008959FEF80EC08955E
:10502000DF93CF931F930F93FF92EF92DF927B0159
:105030008C01689405C0DA2EEF01A8D0FE01E89437
:10504000A5912591359145915591AEF3EF018BDEF8
:10505000FE019701A801DA9479F7DF90EF90FF90B5
:105060000F911F91CF91DF91089500240A94161695
:10507000170618060906089500240A941216130646
:10508000140605060895C9CF50D0E8F3E894E0E08F
:10509000BB279F57F0F02AED3FE049EC06C0EE0F2A
:1050A000BB0F661F771F881F28F0B23A620773078D
:1050B000840728F0B25A620B730B840BE3959A9520
:1050C00072F7803830F49A95BB0F661F771F881FE0
:1050D000D2F7904800C1092E0394000C11F48823E4
:1050E00052F0BB0F40F4BF2B11F460FF04C06F5FA0
:1050F0007F4F8F4F9F4F0895EF93E0FF06C0A2EAC6
:105100002AED3FE049EC5FEB2EDEE5DF0F900394E4
:1051100001FC9058EAECF0E0F1C057FD9058440FC4
:10512000551F59F05F3F71F04795880F97FB991F06
:1051300061F09F3F79F087950895121613061406C3
:10514000551FF2CF4695F1DF08C016161706180650
:10515000991FF1CF86957105610508940895E8942B
:10516000BB2766277727CB0197F908952CDF08F432
:105170008FEF08950BD0AFCF78DF28F07DDF18F0E8
:10518000952309F044CF49CF1124EACFC6DFA0F31D
:10519000959FD1F3950F50E0551F629FF001729FCC
:1051A000BB27F00DB11D639FAA27F00DB11DAA1FEB
:1051B000649F6627B00DA11D661F829F2227B00D38
:1051C000A11D621F739FB00DA11D621F839FA00DC3
:1051D000611D221F749F3327A00D611D231F849F13
:1051E000600D211D822F762F6A2F11249F5750406A
:1051F0008AF0E1F088234AF0EE0FFF1FBB1F661F05
:10520000771F881F91505040A9F79E3F510570F0BD
:10521000FECEA6CF5F3FECF3983EDCF38695779504
:105220006795B795F795E7959F5FC1F7FE2B880FB8
:10523000911D9695879597F908959F9325DF0F9077
:1052400007FCEE5F59CF11F40EF4E7CE42C06DDFDC
:10525000D0F39923D9F3CEF39F57550B87FF47D04F
:105260000024A0E640EA900180585695979528F4CE
:10527000805C660F771F881F20F0261737074807C6
:1052800030F4621B730B840B202931294A2BA6951D
:1052900017940794202531254A2758F7660F771F62
:1052A000881F20F026173707480730F4620B730B6E
:1052B000840B200D311D411DA09581F7B901842F6C
:1052C0009158880F9695879508957DDE880B990BE8
:1052D00008959F3F31F0915020F487957795679519
:1052E000B795880F911D9695879597F908959150D8
:1052F0005040660F771F881FD2F708959F938F93B2
:105300007F936F93FF93EF939B01AC0133DFEF919A
:10531000FF9186DE2F913F914F915F912BCFDB0163
:105320008F939F930E94152ABF91AF91A29F800DEA
:10533000911DA39F900DB29F900D11240895991B6C
:1053400079E004C0991F961708F0961B881F7A957C
:10535000C9F780950895AA1BBB1B51E107C0AA1F7E
:10536000BB1FA617B70710F0A61BB70B881F991F06
:105370005A95A9F780959095BC01CD010895A1E2B9
:105380001A2EAA1BBB1BFD010DC0AA1FBB1FEE1FBF
:10539000FF1FA217B307E407F50720F0A21BB30B0A
:1053A000E40BF50B661F771F881F991F1A9469F786
:1053B00060957095809590959B01AC01BD01CF01E2
:1053C0000895052E97FB1EF400940E94F82957FDBE
:1053D00007D00E94BF2907FC03D04EF40C94F82993
:1053E00050954095309521953F4F4F4F5F4F089511
:1053F00090958095709561957F4F8F4F9F4F089541
:10540000EE0FFF1F0590F491E02D0994A29FB001CB
:10541000B39FC001A39F700D811D1124911DB29FE8
:10542000700D811D1124911D08950E94062AA59FCB
:10543000900DB49F900DA49F800D911D112408958F
:0E54400081E090E0F8940C94252AF894FFCFB8
:10544E0000002506800001000F00F4010400D007C3
:10545E0004012C1C2C1C2C1C2C1C2C1CFFFFFFFFD5
:10546E0000E100000000000000C18081000000018A
:10547E008001800180FF7FFF7FFF7F564D44505695
:10548E005F317C315F564D4450560D0A00000000CE
:10549E00000003D302A802B002C302D202564D444A
:1054AE0050435F005F564D4450430D0A00457272E3
:1054BE006F723A20417474656D707420746F20732E
:1054CE006574206120726561642D6F6E6C79207633
:1054DE0061726961626C65206F7220646174612013
:1054EE0074797065206E6F7420737570706F72743E
:1054FE0065640D0A009C01B501CF01EA0107022681
:10550E0002470269028E02B502DE020A03000000A3
:10551E0000E20FE70FBC1EBC1E564D4450455F31D6
:10552E00007C005F564D4450450D0A00564D4450C8
:10553E00455F3600564D4450455F3200564D44503F
:10554E00455F3500564D4450455F3300564D44502F
:10555E00455F340000000000E20FE70F33115B11CE
:10556E0000000000BE1E051FE81EF81ED41EE51E1C
:0E557E006E616E00696E66006F7666002E002C
:00000001FF
