:100000000C940D010C94D4160C94FB160C9422172E
:100010000C9449170C9435010C9435010C9470170D
:100020000C9435010C94A00E0C94B21F0C94441E39
:100030000C9435010C9435010C9435010C94350168
:100040000C9435010C9435010C9435010C94350158
:100050000C9435010C9435010C9435010C949717D0
:100060000C9435010C9435010C9435010C94350138
:100070000C9435010C9435010C9435010C94350128
:100080000C9435010C9435010C9435010C94350118
:100090000C9411040C9435010C9435010C94350129
:1000A0000C9435010C94250E0C943501B818BB182E
:1000B000AA18AE18B418DC18DC18DC18BF18C3185E
:1000C000C718CD18D118DC18D718084AD73B3BCE33
:1000D000016E84BCBFFDC12F3D6C74319ABD568347
:1000E0003DDA3D00C77F11BED9E4BB4C3E916BAAFF
:1000F000AABE000000803F05A84CCDB2D44EB9384E
:1001000036A9020C50B9918688083CA6AAAA2ABE34
:10011000000000803F000000000200090F00000303
:100120000401000C000000000000000000000000BE
:100130000000000000040802011040804010204030
:1001400080408008020401804020100201108010CD
:1001500020404020040404040403040502020202B7
:100160000403020202020606060606060404020250
:1001700002040400000000250028002B002E00319E
:1001800000080B0002020201000904000001020243
:1001900000000524001001052401010104240206C9
:1001A0000524060001070581031000400904010031
:1001B000020A000000070502024000000705830252
:1001C00040000012010002EF020140FB1F0023006B
:1001D00001010203011201000200000040FB1F00A8
:1001E00023000101020301506F6C6F6C7520436F97
:1001F00072706F726174696F6E00506F6C6F6C75A6
:1002000020412D53746172203332553400040309A8
:100210000400AE0127034B16191A11241FBECFEF9D
:10022000DAE0DEBFCDBF12E0A0E0B1E0E4E2F9E445
:1002300002C005900D92A632B107D9F725E0A6E2DB
:10024000B2E001C01D92A635B207E1F712E0CAE1A3
:10025000D2E004C02297FE010E947224C231D1076D
:10026000C9F70E94371A0C9490240C94000040EDBA
:1002700057E060E070E08DEC93E00E94B00520E86C
:1002800035E240E050E06EEE74E08DEC93E00E94C9
:1002900069058DEC93E00E9466056BE371E0809147
:1002A000FE039091FF030E94601A6AE070E080E014
:1002B00090E00E94101841E060E08DEC93E00E9415
:1002C000220640E855E260E070E08EEE94E00E9485
:1002D000041A61E081EF92E00E949F0F61E081EFDC
:1002E00092E00E949C0F86E292E00C94A20F20E024
:1002F00030E040EB51E4609196027091970280915A
:100300009802909199020E94B5211816ACF062E310
:1003100070E081EF92E00E94760F62E370E081EF7F
:1003200092E00E94500F609106017091070186E2F1
:1003300092E00E940515DBCF60E070E081EF92E073
:100340000E94760F60E070E081EF92E00E94500F13
:1003500066E970E080E090E00C9410182998219AEA
:100360002D98259A2A98229A2E98269A80EA809388
:10037000800081E18093810080E991E09093870083
:1003800080938600109289001092880010928B0052
:1003900010928A0089EC96E7A6E5B0E480932602E5
:1003A00090932702A0932802B093290280E695EE4D
:1003B000A0E3BFE380932A0290932B02A0932C0228
:1003C000B0932D0284E19EE6A3E6B4E480932E026E
:1003D00090932F02A0933002B09331028DE09FEEF4
:1003E000AAE8B0E48093320290933302A0933402DF
:1003F000B09335028EEA92E00E943D068BEB92E0CC
:100400000C94C50780913D0390E020913E03821B30
:100410009109089520913E0380913D03281750F4DF
:10042000E22FF0E0E15CFC4F808190E02F5F2093B1
:100430003E0308958FEF9FEF0895E0913E03809172
:100440003D03E81730F4F0E0E15CFC4F808190E080
:1004500008958FEF9FEF08950895CF92DF92EF9266
:10046000FF920F931F93CF93DF937C01CB018A01FF
:1004700020911903222389F0EB016B01C40ED51ED4
:10048000CC15DD0569F06991D701ED91FC910190E2
:10049000F081E02DC7010995F3CF642F0E94E80396
:1004A000C801DF91CF911F910F91FF90EF90DF90E6
:1004B000CF900895CF93DF931F92CDB7DEB76983B6
:1004C000209119032223D1F020911A03203240F009
:1004D00021E030E0FC013383228380E090E015C00E
:1004E00080911B03E82FF0E0E45EFC4F998190833C
:1004F0008F5F80931B0380931A0305C061E0CE01D8
:1005000001960E94E80381E090E00F90DF91CF9187
:100510000895FC011382128248EE53E060E070E01F
:10052000448355836683778381E591E0918380835B
:10053000089510923E0310923D0310921B031092F7
:100540001A030C942B0381E08093190360933C03FE
:1005500010921B0310921A0308950F93062F21E0A7
:1005600040911A036CE173E080913C030E94910377
:1005700010921B0310921A03109219030F91089501
:100580008F929F92AF92BF92CF92DF92EF92FF92A3
:100590000F931F93CF93DF93EC01F62ED42E4801D7
:1005A0005901EE2019F10E94A3021E2D143008F00B
:1005B00013E01150B8F0E881F98128E0129FB001F2
:1005C0001124A501940104C05695479537952795A8
:1005D0006A95D2F7CA01B9010190F081E02DCE01F0
:1005E0000995E7CF60E0CE010E94AD024D2D41326A
:1005F00008F040E22C2D6FE373E08F2D0E94490339
:1006000010923E0380933D03DF91CF911F910F9194
:10061000FF90EF90DF90CF90BF90AF909F908F9022
:100620000895CF92EF920F931F93C22EE12C00E01A
:1006300010E098010E94C0021F910F91EF90CF909F
:10064000089521E00C94110361E00C94AD028DE05B
:1006500093E00C9489021092CC0381E08093CA034A
:100660001092C90361E082E00E94DD1861E083E03E
:100670000E94DD18E9EBF0E080818E7F808380812D
:100680008D7F808388E48093B80085E48093BC00EC
:100690000895413208F043C09091CC039111FCCFF2
:1006A00091E09093CC032093CA032FEF20935F0334
:1006B0001092A403240F2093A3039093CB03909153
:1006C000CB03880F892B8093CB038091C9038130A2
:1006D00061F41092C9038091CB038093BB00809199
:1006E000BC0083FDF8CF85EC01C085EE8093BC0093
:1006F0008091CC038130E1F38091A403841710F43E
:100700004091A40325EA33E0FB01D9018A2F821B23
:10071000841718F48D918193F9CF842F089580E088
:1007200008950F93413208F04AC09091CC03911183
:10073000FCCF92E09093CC030093CA039FEF909379
:100740005F031092A4034093A303FB0165EA73E0E7
:10075000DB019A2F961B941718F491919D93F9CF72
:100760001092CB039091CB03880F892B8093CB03FE
:100770008091C903813061F41092C9038091CB0349
:100780008093BB008091BC0083FDF8CF85EC01C055
:1007900085EE8093BC00222321F08091CC0382302F
:1007A000E1F380915F038F3F61F080915F038032BE
:1007B00051F080915F03803341F483E007C081E012
:1007C00005C080E003C082E001C084E00F9108957D
:1007D000613298F42091CC03243089F46093810332
:1007E000FC0183E893E0DC012A2F281B261718F46C
:1007F00021912D93F9CF80E0089581E0089582E062
:10080000089585ED8093BC008091BC0084FDFCCFF1
:100810001092CC03089585EC8093BC001092CC0319
:1008200008951F920F920FB60F9211242F933F93AA
:100830004F935F936F937F938F939F93AF93BF93E8
:10084000EF93FF938091B900887F803609F49EC0B2
:1008500078F5883209F45DC090F4803109F456C00F
:1008600038F4882309F4F5C0883009F44FC0F5C086
:10087000883109F44EC0803209F45FC0EEC0803484
:1008800009F46AC058F4803309F457C0883309F07A
:10089000E4C080935F030E940B04DFC0803509F43D
:1008A0004FC0883509F45DC0883409F0D6C0D3C084
:1008B000883909F4C4C0A8F4883709F467C038F44B
:1008C000883609F463C0803709F460C0C6C0883830
:1008D00009F4B5C0803909F45FC0803809F0BDC0A3
:1008E0005BC0803B09F483C038F4803A09F466C0E9
:1008F000883A09F47CC0B1C0803C09F4A4C0883CAB
:1009000009F4A1C0883B09F487C0A7C08091CB033C
:1009100010C09091A4038091A303981770F5E09103
:10092000A40381E08E0F8093A403F0E0EB55FC4F0D
:1009300080818093BB0085EC83C080935F038BC074
:10094000E091A40381E08E0F8093A4038091BB000B
:10095000F0E0EB55FC4F80839091A4038091A303BA
:100960006BC0E091A40381E08E0F8093A40380917B
:10097000BB00F0E0EB55FC4F80838091CA038111EE
:100980006AC081E08093C90384EA5EC083E08093FB
:10099000CC0310926003CFCF80916003803208F0C7
:1009A0004EC0E091600381E08E0F809360038091E0
:1009B000BB00F0E0EF59FC4F8083BDCF0E940B04D9
:1009C00080916003803230F4E0916003F0E0EF59F1
:1009D000FC4F10826091600370E0E091C503F091DC
:1009E000C60381E693E009951092600336C084E067
:1009F0008093CC031092820310928103E091C7038D
:100A0000F091C803099580918103811105C081E0AF
:100A10008093810310928303E091820381E08E0F23
:100A200080938203F0E0ED57FC4F80818093BB0000
:100A30009091820380918103981708F47CCF85E818
:100A40008093BC000AC085EC8093BC001092CC035C
:100A500004C010925F030E940104FF91EF91BF91C7
:100A6000AF919F918F917F916F915F914F913F9146
:100A70002F910F900FBE0F901F9018950F931F93FB
:100A8000CF93DF93EC01662359F00E94E11769834D
:100A90007A838B839C83DF91CF911F910F9108956F
:100AA0000E94E11709811A812B813C81601B710B27
:100AB000820B930B623371058105910530F763E07A
:100AC00070E080E090E00E941018EACF60E00C94A3
:100AD0003E05CF92DF92EF92FF920F931F93CF9339
:100AE000DF9300D000D0CDB7DEB78C017B01FC01D5
:100AF00072AB61AB8BE1C82ED12CC70129833A833D
:100B00004B835C830E940A1A29813A814B815C8164
:100B1000811113C0F1E0CF1AD10879F064E670E0DA
:100B200080E090E029833A834B835C830E94101815
:100B30005C814B813A812981E0CFBA01A901F8019A
:100B400081A992A90F900F900F900F90DF91CF91F4
:100B50001F910F91FF90EF90DF90CF900C94041AAB
:100B6000FC0113AA14AA15AA16AA118212821382D2
:100B70001482411551056105710521F0CB01BA01BF
:100B80000C94101808951F93CF93DF93EC01162F48
:100B90006DE571E089A99AA90E94601A4AE050E0C7
:100BA000612F89A99AA90E940F1B64E671E089A9A7
:100BB0009AA90E94601A62E370E080E090E0DF9101
:100BC000CF911F910C9410181F93CF93DF93EC01DA
:100BD000162F8D81882389F189A99AA9DC01ED91CD
:100BE000FC910480F581E02D0995892BA9F307C0BC
:100BF0002637310519F12835310509F41D8289A9F7
:100C00009AA9DC01ED91FC910480F581E02D099514
:100C10001816190694F489A99AA9DC01ED91FC91A2
:100C20000680F781E02D09959C0133272336310595
:100C3000F9F6612FCE010E94C30583E6DF91CF91C3
:100C40001F9108950F931F93CF93DF931F92CDB7FA
:100C5000DEB78C01662349F081E0F801858360E00E
:100C6000C80149830E94E4054981F80145830F903A
:100C7000DF91CF911F910F910895FC0183E090E0E7
:100C8000908787831386128614860895EF92FF92C9
:100C90001F93CF93DF931F92CDB7DEB77C01162F42
:100CA000FC0161858DE093E049830E94A302612FDE
:100CB0008DE093E00E945A024981642F8DE093E019
:100CC0000E945A028DE093E00E942403F70186837C
:100CD0000F90DF91CF911F91FF90EF900895CF93E8
:100CE000DF93EC018F819885029729F440E069E356
:100CF000CE010E94460640E063E2CE010E94460615
:100D00004FE660E2CE01DF91CF910C9446069F92B0
:100D1000AF92BF92CF92DF92EF92FF920F931F9309
:100D2000CF93DF93EC0169858DE093E00E94A302ED
:100D3000E0910D03F0910E030190F081E02D68EA3F
:100D40008DE093E009958DE093E00E94240346E056
:100D500069858DE093E00E9421030E94E1177B01E9
:100D60008DE093E00E940202069784F48A859B85B9
:100D7000892BB1F30E94E1176E197F098A859B8543
:100D80008617970768F781E08C872CC08DE093E089
:100D90000E940A02A82E8DE093E00E940A02982E7B
:100DA0008DE093E00E940A02E82E8DE093E00E941D
:100DB0000A02B82E8DE093E00E940A02F82E8DE020
:100DC00093E00E940A02D92CC12CCA28D982C88279
:100DD0001B2D00E00E291B830A83982F88278F295B
:100DE0009D838C83DF91CF911F910F91FF90EF90A6
:100DF000DF90CF90BF90AF909F9008951F93CF93B7
:100E0000DF931F92CDB7DEB7162F8DE093E04983B5
:100E10000E94A3024981642F8DE093E00E945A0250
:100E20008DE093E00E942403811114C041E0612F02
:100E30008DE093E00E9421038DE093E00E94020286
:100E4000892B41F08DE093E00F90DF91CF911F91BE
:100E50000C940A028FEF9FEF0F90DF91CF911F91BB
:100E60000895EF92FF920F931F93CF93DF937C012E
:100E7000EB018A016330710521F04230510509F020
:100E800051C0CE010197039758F50115110581F066
:100E90004FE050E06BE6C7010E94FE068F3F2FEF48
:100EA000920719F001E010E013C00130110551F074
:100EB0004FE050E06AE6C7010E94FE068F3FEFEF69
:100EC0009E0721F4C330D10569F027C000E010E08F
:100ED000C330D10529F4873D9105F1F5C2E0D0E09A
:100EE0002097D9F40115110561F04FE050E069E653
:100EF000C7010E94FE06833D910589F1013011056D
:100F000049F04FE050E068E6C7010E94FE06833DCD
:100F1000910541F1C330D10519F00230110511F4EA
:100F200080E025C0F701D087C783209759F0D7FD0F
:100F300011C023977CF40130110511F48BE608C031
:100F40008AE606C00130110511F489E601C088E681
:100F5000F701818781E00BC0C1E0D0E0C1CF01E0A3
:100F600010E002C000E010E0C0E0D0E0D6CFDF919A
:100F7000CF911F910F91FF90EF900895DC01ED91BB
:100F8000FC910190F081E02D0994CF93DF93EC0167
:100F900086E0EFE2F1E0DE01529601900D928A9533
:100FA000E1F786E0E5E3F1E0DE011C9601900D92A9
:100FB0008A95E1F784E090E09A8F898F1CA61BA6A2
:100FC0001DA6DF91CF910895EF92FF921F93CF93CB
:100FD000DF931F92CDB7DEB77C01162FFC01638D26
:100FE0008DE093E049830E94A302612F8DE093E09E
:100FF0000E945A024981642F8DE093E00E945A02B8
:101000008DE093E00E942403F701808F0F90DF9121
:10101000CF911F91FF90EF900895EF92FF921F9351
:10102000CF93DF931F92CDB7DEB77C01162FFC0163
:10103000648D8DE093E049830E94A302612F8DE0CF
:1010400093E00E945A024981642F8DE093E00E9450
:101050005A028DE093E00E942403F701808F0F90E5
:10106000DF91CF911F91FF90EF900895FC01218DAA
:10107000328D2330310511F0603210F40C940D08DC
:101080000C94E407CF93DF93EC01898D9A8D833024
:101090009105D9F440E061E2CE010E94360847E5AF
:1010A00060E2CE010E94360844E664E2CE010E946E
:1010B000360840E265E2CE010E94360840E066E272
:1010C000CE01DF91CF910C943608029739F448E0B5
:1010D00063E2CE010E94E40747E406C040E063E219
:1010E000CE010E94E40747E260E2CE010E94E407DD
:1010F0004CE060E0CE010E940D0840E261E0CE01CC
:101100000E940D0840E062E0CE01DF91CF910C9487
:101110000D089F92AF92BF92CF92DF92EF92FF9213
:101120000F931F93CF93DF93EC016B8D8DE093E0D2
:101130000E94A30268EA70E08DE093E00E94BE077F
:101140008DE093E00E942403888F46E06B8D8DE054
:1011500093E00E9421030E94E1176B018DE093E070
:101160000E940202069784F48BA59CA5892BB1F3FB
:101170000E94E1176C197D098BA59CA5861797071E
:1011800068F781E08DA72CC08DE093E00E940A02F1
:10119000A82E8DE093E00E940A02982E8DE093E045
:1011A0000E940A02C82E8DE093E00E940A02B82E27
:1011B0008DE093E00E940A02D82E8DE093E00E9419
:1011C0000A02F92CE12CEA28F982E8821B2D00E0C2
:1011D0000C291B830A83982F88278D299D838C8354
:1011E000DF91CF911F910F91FF90EF90DF90CF9003
:1011F000BF90AF909F900895CF92DF92EF92FF92B1
:101200000F931F93CF93DF93EC016C8D8DE093E0F0
:101210000E94A302898D9A8D039721F469A17AA176
:10122000606802C06F8D78A18DE093E00E94BE07D8
:101230008DE093E00E942403888F46E06C8D8DE062
:1012400093E00E9421030E94E1178B018DE093E05F
:101250000E940202069784F48BA59CA5892BB1F30A
:101260000E94E117601B710B8BA59CA58617970741
:1012700068F781E08DA767C0898D9A8D0397F9F48F
:101280008DE093E00E940A02C82E8DE093E00E9458
:101290000A02D82E8DE093E00E940A02E82E8DE02B
:1012A00093E00E940A02182F8DE093E00E940A0248
:1012B000F82E8DE093E00E940A02082F35C08DE0E1
:1012C00093E00E940A02D82E8DE093E00E940A0269
:1012D000C82E298D3A8D8DE093E0232B99F40E943E
:1012E0000A02182F8DE093E00E940A02E82E8DE09A
:1012F00093E00E940A02082F8DE093E00E940A0208
:10130000F82E12C00E940A02082F8DE093E00E947E
:101310000A02F82E8DE093E00E940A02182F8DE059
:1013200093E00E940A02E82E6C2D70E07D297F83F5
:101330006E834E2D50E0512B598748872F2D30E07A
:10134000302B3B872A87DF91CF911F910F91FF9020
:10135000EF90DF90CF900895CF93DF93EC010E9440
:101360008908CE01DF91CF910C94FC081F93CF9395
:10137000DF931F92CDB7DEB7162F8DE093E0498340
:101380000E94A3024981642F8DE093E00E945A02DB
:101390008DE093E00E942403811114C041E0612F8D
:1013A0008DE093E00E9421038DE093E00E94020211
:1013B000892B41F08DE093E00F90DF91CF911F9149
:1013C0000C940A028FEF9FEF0F90DF91CF911F9146
:1013D0000895EF92FF920F931F93CF93DF93EC0149
:1013E0008B017A016430710521F04230510509F01A
:1013F00055C0C8010397029708F0CDC0E114F1046D
:1014000071F04FE050E06DE1CE010E94B6098934E1
:10141000910509F4B8C081E0E816F10451F04FE0FD
:1014200050E06EE1CE010E94B6098934910509F4BD
:10143000AEC00430110509F0D0C0E114F10469F028
:1014400040E250E069E1CE010E94B609019679F4CC
:1014500021E0E216F10409F4A3C040E250E068E1A3
:10146000CE010E94B609019609F0A4C099C00430CB
:10147000110509F09BC04FE050E06EE1CE010E94E3
:10148000B609EE24E394F12CCC9709F0A9C002E050
:1014900010E082E0E816F10409F486C01A8F098F83
:1014A0000130110569F124F4012B09F449C069C028
:1014B0000230110541F10330110509F062C0EA94D0
:1014C000EF2811F48DE101C08EE18C8F8B8F88E0C5
:1014D00090E09AA389A389E090E098A38F8F8AE097
:1014E00090E09EA38DA38BE090E09CA38BA38CE067
:1014F00090E09AA789A78DE090E098A78FA341C0BC
:10150000EA94EF2811F489E101C088E18B8F8EE124
:101510008C8F83E090E098A38F8F84E090E09AA373
:1015200089A387E090E09CA38BA388E090E09EA332
:101530008DA385E090E098A78FA386E090E01FC080
:10154000EA94EF2811F489E101C088E18B8F8EE1E4
:101550008C8F83E090E098A38F8F84E090E09AA333
:1015600089A385E090E09CA38BA386E090E09EA3F6
:101570008DA387E090E098A78FA388E090E09AA7DA
:1015800089A781E030C0EE24E394F12C02C0E12C65
:10159000F12C03E010E00330110508F44ECF79CFB1
:1015A0000430110509F075CF80E01DC0EE24E394EE
:1015B000F12C6FCF0430110569F44FE050E06EE17B
:1015C000CE010E94B60931E020E0CC9709F030E06E
:1015D000032F122FE12CF12C5CCF03E010E059CF48
:1015E00000E010E056CFDF91CF911F910F91FF9057
:1015F000EF90089590910604E0910A04F0910B0495
:10160000992311F0849101C080812FEB280F2A319A
:1016100010F4805E0895803249F49F012F5F3F4FA0
:1016200030930B0420930A04EF2B31F708951F9396
:10163000CF93DF930E94FA0AC0E0D0E01AE090ED69
:10164000980F9A30B8F49E01129FE001139FD00DBD
:101650001124C80FD11D87FDDA95E09780910A0407
:1016600090910B04019690930B0480930A040E94BE
:10167000FA0AE5CFCE01DF91CF911F910895109224
:1016800072001092C00084E08093C10089E08093D2
:10169000C20081E08093C300EFEBF0E083E0808341
:1016A00088EE8093D10010821092D200579A7894DD
:1016B00008952F923F924F925F926F927F928F92F6
:1016C0009F92AF92BF92CF92DF92EF92FF920F93D1
:1016D0001F93CF93DF93CDB7DEB727970FB6F8945C
:1016E000DEBF0FBECDBF7C011B014D8380910C047A
:1016F000811105C081E080930C040E943F0B109281
:101700001101F7FE04C0E894F7F81AE001C011E0F7
:1017100088E2189F802D1124282F30E03F832E83EC
:101720002E153F0510F4FF82EE82113049F44E81F0
:101730005F814131574220F0E0E1F7E2FF83EE8321
:10174000812E912CA12CB12C8E819F81969587950D
:101750009C0140E050E029833A834B835C834E81B7
:101760005F812A01612C712CA501940160E072E176
:101770008AE790E00E94FF2329813A814B815C81B6
:10178000620F731F841F951FA30192010E945124B1
:1017900069017A01EE24FF2400E00F5FC11434E0F8
:1017A000D306E104F10408F120E032E14AE750E019
:1017B000002E04C055954795379527950A94D2F782
:1017C000C501B4010E94FF2329813A814B815C81CC
:1017D000620F731F841F951FA30192010E94512461
:1017E00069017A01EE24FF24D8CF1A3049F48E81A2
:1017F0009F8105966AE070E00E941B247F836E83C0
:101800004E815F81483E83E0580759F09101DA012B
:101810000E94762428EE33E040E050E00E945124FC
:101820001901109272008091C100807F802B8093FB
:10183000C100BB27AF2D9E2D8D2D8093BF00C09280
:10184000D1002D81203108F02FE080E190E0821B53
:10185000910904C0F694E794D794C7948A95D2F777
:101860008D2D99278093BF00C092D2003092090439
:101870002092080489B38FEF89BB84E080937200C3
:1018800027960FB6F894DEBF0FBECDBFDF91CF9184
:101890001F910F91FF90EF90DF90CF90BF90AF908E
:1018A0009F908F907F906F905F904F903F902F9080
:1018B0000895CF93DF93EB018F3F11F0411105C0E5
:1018C00040E0BE0188EE93E043C0813130F050EF3C
:1018D000580F503618F05FE501C050E0852F6CE0DE
:1018E0000E940F24682F74EF760390011124250FB6
:1018F000311D2C30310540F4F901EE0FFF1FEB5480
:10190000FE4F2081318102C020E030E0873081F03D
:10191000082E02C0220F331F0A94E2F7823028F00B
:10192000C90105966AE070E00CC0C90190580CC06E
:10193000C90136E0880F991F3A95E1F7029665E0F4
:1019400070E00E941B24CB01403108F04FE0BE0143
:10195000DF91CF910C94590B4F925F926F927F92CF
:101960008F929F92AF92BF92CF92DF92EF92FF92AF
:101970000F931F93CF93DF9300D0CDB7DEB7909036
:10198000100180910504882321F060910404611105
:1019900017C077247394B0ECAB2EBDE5BB2E1AE0D4
:1019A000612E04E0802E80EDC82E87E0D82E94E0D2
:1019B000E92EF12C04EF11E02FE0422E512C15C03E
:1019C00070E040E088EE93E00E94590B109204040E
:1019D00029C18636D4F5813609F4A9C07CF58C334B
:1019E00009F460C08E3381F493940E94FA0A209126
:1019F0000A0430910B042F5F3F4F30930B04209368
:101A00000A04853631F752C0813209F08BC08092CA
:101A10001001D0920F01C0920E01F0920D01E092E0
:101A20000C0110930B0100930A015092090140929E
:101A3000080110920504A4E09A2ED7CF8336A1F1B5
:101A40000CF478C010E082E077C08D36C1F194F4D8
:101A5000873691F174F18C3609F064C00E94170B3F
:101A6000BC0190930D0180930C0180910E01909127
:101A70000F0151C08237C9F14CF48F3609F052C0C2
:101A80000E94170B982E80931001AFCF843781F1FD
:101A9000863709F047C00E94170B90930901809385
:101AA0000801A3CF9A94A1CF10E020C010E084E0F9
:101AB00043C010E085E040C010E087E03DC00E94D8
:101AC000FA0A8C3619F41092050404C070920504C9
:101AD0001092040420910A0430910B042F5F3F4FB1
:101AE00030930B0420930A0480CF11E080E024C0DF
:101AF0000E94170BBC01C5010E941B24669EC001F9
:101B0000679E900D112490930F0180930E016091B8
:101B10000C0170910D010E941B2470930B016093C6
:101B20000A0163CF10920B0410920A047BC010E0EC
:101B300089E002C010E08BE0082F9CE0999E000D28
:101B400011240E94FA0A982F977F933261F4209112
:101B50000A0430910B042F5F3F4F30930B04209306
:101B60000A040F5FEECF8D3271F420910A04309198
:101B70000B042F5F3F4F30930B0420930A04015056
:101B80000E94FA0AF0CF60910A0170910B01815313
:101B9000883050F4E0900E01F0900F010E94170B76
:101BA000BC01C7010E941B247B01F694E794698362
:101BB0007A830E94FA0A69817A818E3269F42091CF
:101BC0000A0430910B042F5F3F4F30930B04209396
:101BD0000A046E0D7F1DE9CF80910504882339F03A
:101BE0009B013695279520930404621B710940914F
:101BF0000801112311F08FEF01C0802F0F900F907B
:101C0000DF91CF911F910F91FF90EF90DF90CF90D8
:101C1000BF90AF909F908F907F906F905F904F900C
:101C20000C94590C0F900F90DF91CF911F910F9151
:101C3000FF90EF90DF90CF90BF90AF909F908F90EC
:101C40007F906F905F904F9008951F920F920FB604
:101C50000F9211242F933F934F935F936F937F9332
:101C60008F939F93AF93BF93EF93FF93809108045B
:101C7000909109049C01215031093093090420936B
:101C80000804892B11F51092720078948091C1009C
:101C9000807F84608093C10083E08093BF0088EEE2
:101CA0008093D1001092BF001092D20081E0809307
:101CB000110180910A0490910B04892B31F08091DD
:101CC0000704811102C00E94AC0CFF91EF91BF91FB
:101CD000AF919F918F917F916F915F914F913F91C4
:101CE0002F910F900FBE0F901F9018954FB141701C
:101CF0005CB156FB552750F954278091140460912C
:101D0000150420910E0430910F04852790E064277C
:101D1000861B9109820F931F90930F0480930E04EA
:101D20009091150480911404591729F0481719F05F
:101D300081E0809313045093150440931404089594
:101D40001F920F920FB60F9211242F933F934F9330
:101D50005F936F938F939F932CB130E035952795C8
:101D600035952795422F417083B190E054E09595C9
:101D700087955A95E1F782279327582F51708091C4
:101D800016046091170420911004309111048527E6
:101D900090E06427861B9109820F931F9093110492
:101DA000809310049091170480911604591729F01C
:101DB000481719F081E0809313045093170440935F
:101DC00016049F918F916F915F914F913F912F9149
:101DD0000F900FBE0F901F90189524982C9A6A9818
:101DE000729A6E98769A8098889A81E080936800BB
:101DF00090E190936B008BBB41E050E066E77EE0A2
:101E000084E00E9484168CB182FB882780F981705F
:101E10008093160493B1809116049295917089274E
:101E2000809317041092110410921004109213045E
:101E30008FB18170809314049CB18091140496FB3F
:101E4000992790F989278093150410920F04109216
:101E50000E0410921204089580910D04811105C0A2
:101E600081E080930D040C94ED0E08950E942C0FD8
:101E7000F894809110049091110410921104109222
:101E80001004789408950E942C0FF89480910E0409
:101E900090910F0410920F0410920E0478940895FC
:101EA0009B0120573E4F2132334040F060377E4F38
:101EB0001CF060E971E002C060E77EEFFC01718F09
:101EC000608F77FF05C071956195710981E001C050
:101ED00080E070938B0060938A00909119048917B9
:101EE00011F02A9A01C02A98229A08959B0120573E
:101EF0003E4F2132334040F060377E4F1CF060E9A6
:101F000071E002C060E77EEFFC01738F628F77FFA4
:101F100005C071956195710981E001C080E0709301
:101F200089006093880090911804891711F0299A0C
:101F300001C02998219A0895609319040895609327
:101F4000180408950F931F93CF93DF93EC01FC01C6
:101F5000E953FF4F1082118212821382349710824C
:101F60001182128213821C8E1D8E1E8E1F8E18A24D
:101F700019A21AA21BA2188E198E1A8E1B8E1C8AE9
:101F80001D8A1E8A1F8A188A198A1A8A1B8AEB568A
:101F9000F10910821182128213823496108211820A
:101FA0001282138234961082118212821382349626
:101FB0001082118212821382349610821182128250
:101FC0001382349610821182128213823496108208
:101FD000118212821382349610821182128213822D
:101FE00034961082118212821382349610821182EA
:101FF00012821382349610821182128213823496D6
:10200000108211821282138218A619A61AA61BA684
:102010001CA61DA61EA61FA618AA19AA1AAA1BAAA4
:102020001CAA1DAA1EAA1FAA18AE19AE1AAE1BAE74
:102030001CAE1DAE1EAE1FAEE454F109108211821B
:102040001282138234961082118212821382349685
:1020500010821182128213823496108211821282AF
:102060001382349610821182128213823496108267
:102070001182128213828DE093E00E949902809176
:102080000D04811105C081E080930D040E94ED0EC6
:102090008E0108571F4F42E050E063E070E0C80136
:1020A0000E943107C8010E946F06CB56DF4F42E005
:1020B00050E064E070E0CE010E94E909CE01DF91BA
:1020C000CF911F910F910C944208EF92FF920F93C2
:1020D0001F93CF93DF93EC017A018901FB012081EB
:1020E0003181428153816C897D898E899F890E94CB
:1020F000EF206C8B7D8B8E8B9F8BF7012081318144
:1021000042815381688D798D8A8D9B8D0E94EF204D
:10211000688F798F8A8F9B8FF8012081318142816E
:102120005381688979898A899B890E94EF20688B0D
:10213000798B8A8B9B8BDF91CF911F910F91FF90B1
:10214000EF9008954F925F926F927F928F929F923D
:10215000AF92BF92CF92DF92EF92FF920F931F93B5
:10216000CF93DF93EC017B01F901DA012D913D91D1
:102170004D915C9160817181828193810E94EE20FA
:10218000288139814A815B810E94BC214B015C011D
:10219000F80120813181428153810E94EE202B0180
:1021A0003C018DEC93E00E9466056DEC71E080913E
:1021B000FE039091FF030E94601A65ED71E080912B
:1021C000FE039091FF030E94601A22E030E0B30109
:1021D000A2018091FE039091FF030E94011C67ED14
:1021E00071E08091FE039091FF030E94601A65E008
:1021F00070E080E090E00E941018D8012D913D9190
:102200004D915C91C501B4010E94EF2020E030E0C7
:1022100040E05FE30E9470232B013C015E01B8E5C2
:10222000AB0EB11C6E01E4E6CE0ED11CD7012D9190
:102230003D914D915C91F601608171818281938124
:102240000E94EF20D5016D937D938D939C931397FE
:102250007E01BCE5EB0EF11CF701108211821282A7
:1022600013824E01FCE68F0E911CD4012D913D91FD
:102270004D915C91C301B2010E94EF202B013C0102
:102280002BED3FE049EC50E40E9465238E01005A9B
:102290001F4F18164CF42BED3FE049EC50E4C301FE
:1022A000B2010E94EE2018C020E030E0A901C30175
:1022B000B2010E94B52187FD07C0D8014D925D9201
:1022C0006D927C9213970DC02BED3FE049EC50E4EA
:1022D000C301B2010E94EF20F80160837183828301
:1022E00093838DEC93E00E94660560EE71E080912F
:1022F000FE039091FF030E94601A65ED71E08091EA
:10230000FE039091FF030E94601AD8014D915D91E8
:102310006D917C9122E030E08091FE039091FF036B
:102320000E94011C67ED71E08091FE039091FF0314
:102330000E94601A65E070E080E090E00E94101852
:10234000F50180819181A281B381F601808391831F
:10235000A283B383C859DF4FF70180819181A281A5
:10236000B38188839983AA83BB83F801808191819B
:10237000A281B381F40180839183A283B383DF912F
:10238000CF911F910F91FF90EF90DF90CF90BF9072
:10239000AF909F908F907F906F905F904F90089537
:1023A0004F925F926F927F928F929F92AF92BF9265
:1023B000CF92DF92EF92FF920F931F93CF93DF9311
:1023C000EC018B01FC01E05AFF4F80809180A280DC
:1023D000B380C501B4010E94B9216E0120E7C20E8D
:1023E000D11C3E01ECE76E0E711CF8012081318199
:1023F000428153810E9470239B01AC01F3016081F3
:102400007181828193810E94EF20F6016083718344
:1024100082839383C501B4010E94D3237E01F4E734
:10242000EF0EF11C2E0120E8420E511CF801208114
:102430003181428153810E9470239B01AC01F201E2
:1024400060817181828193810E94EF20F701608316
:102450007183828393838E0108581F4FF801808215
:102460009182A282B3828DEC93E00E9466058EEF8A
:10247000A82E83E0B82E68EE71E0F501808191818D
:102480000E94601A65ED71E0F501808191810E94E2
:10249000601AF601408151816281738122E030E04F
:1024A000F501808191810E94011C65ED71E0F501CB
:1024B000808191810E94601AF7014081518162817F
:1024C000738122E030E0F501808191810E94011C3E
:1024D00065ED71E0F501808191810E94601AF8013B
:1024E000408151816281738122E030E0F501808179
:1024F00091810E94011C67ED71E0F501808191815D
:102500000E94601A65E070E080E090E00E94101880
:10251000F60180819181A281B381F301808391834F
:10252000A283B383F70180819181A281B381F201FB
:1025300080839183A283B383CC57DF4FF8018081DE
:102540009181A281B38188839983AA83BB83DF9120
:10255000CF911F910F91FF90EF90DF90CF90BF90A0
:10256000AF909F908F907F906F905F904F90089565
:10257000CF93DF93EC0129E732E240E259E368A50B
:1025800079A58AA59BA50E94702368A779A78AA729
:102590009BA729E732E240E259E36CA57DA58EA511
:1025A0009FA50E9470236CA77DA78EA79FA729E7F0
:1025B00032E240E259E368A979A98AA99BA90E945D
:1025C000702368AB79AB8AAB9BABDF91CF91089559
:1025D0000F931F93CF93DF93EC018C01005C1F4F8F
:1025E00021E43AED4FE758E3F8016081718182817F
:1025F00093810E947023F8016083718382839383A7
:102600000C5F1F4F21E43AED4FE758E3F80160817A
:102610007181828193810E947023F80160837183AC
:1026200082839383C85BDF4F21E43AED4FE758E3A1
:10263000688179818A819B810E9470236883798374
:102640008A839B83DF91CF911F910F910895AF9261
:10265000BF92CF92DF92EF92FF920F931F93CF938F
:10266000DF935C018C0108571F4FC8010E94870649
:10267000E501CB56DF4FCE010E94AC09F801608125
:102680007181882777FD8095982F0E945722F50148
:1026900060A771A782A793A7E657FF4F608171815A
:1026A000882777FD8095982F0E945722F50164A70F
:1026B00075A786A797A7E457FF4F60817181882788
:1026C00077FD8095982F0E945722F50160AB71AB82
:1026D00082AB93AB6501F0E4CF0ED11C68817981A8
:1026E000882777FD8095982F0E945722F6016083F6
:1026F0007183828393837501F4E4EF0EF11CF5017D
:10270000E956FF4F60817181882777FD8095982F6A
:102710000E945722F7016083718382839383005460
:102720001109EB5AFF4F60817181882777FD8095F1
:10273000982F0E945722F8016083718382839383CC
:102740008DEC93E00E946605CEEFD3E060EF71E080
:10275000888199810E94601A65ED71E08881998174
:102760000E94601AF50140A551A562A573A522E05B
:1027700030E0888199810E94011C65ED71E08881BB
:1027800099810E94601AF50144A555A566A577A513
:1027900022E030E0888199810E94011C65ED71E0A2
:1027A000888199810E94601AF50140A951A962A906
:1027B00073A922E030E0888199810E94011C65EDB7
:1027C00071E0888199810E94601AF60140815181EF
:1027D0006281738122E030E0888199810E94011C2E
:1027E00065ED71E0888199810E94601AF70140814E
:1027F00051816281738122E030E0888199810E9459
:10280000011C65ED71E0888199810E94601AF801D0
:10281000408151816281738122E030E08881998119
:102820000E94011C67ED71E0888199810E94601A05
:1028300065E070E080E090E00E941018C5010E9401
:10284000E812C5010E94B8128DEC93E00E94660563
:1028500068EF71E0888199810E94601A65ED71E0EE
:10286000888199810E94601AF50140A551A562A551
:1028700073A522E030E0888199810E94011C65EDFA
:1028800071E0888199810E94601AF50144A555A5DF
:1028900066A577A522E030E0888199810E94011C1D
:1028A00065ED71E0888199810E94601AF50140A967
:1028B00051A962A973A922E030E0888199810E9420
:1028C000011C65ED71E0888199810E94601AF60112
:1028D000408151816281738122E030E08881998159
:1028E0000E94011C65ED71E0888199810E94601A47
:1028F000F701408151816281738122E030E088815B
:1029000099810E94011C65ED71E0888199810E9486
:10291000601AF801408151816281738122E030E0C8
:10292000888199810E94011C67ED71E088819981FD
:102930000E94601A65E070E080E090E0DF91CF9146
:102940001F910F91FF90EF90DF90CF90BF90AF90CD
:102950000C9410184F925F926F927F928F929F9279
:10296000AF92BF92CF92DF92EF92FF92CF93DF931D
:10297000EC012A013B01FC01E05CFF4F2081318129
:1029800042815381349660817181828193810E945A
:1029900062214B015C017E0180E6E80EF11CC3015F
:1029A000B2010E94552228A939A94AA95BA90E940F
:1029B0007023F70120813181428153810E94EF20F1
:1029C00028E431EE4AE75FE30E9470236B017C014B
:1029D00020E037ED43EA5CE3C501B4010E947023B7
:1029E0009B01AC01C701B6010E94EF20DF91CF919E
:1029F000FF90EF90DF90CF90BF90AF909F908F901F
:102A00007F906F905F904F9008954F925F926F927A
:102A10007F928F929F92AF92BF92CF92DF92EF926E
:102A2000FF920F931F93CF93DF93CDB7DEB76497D9
:102A30000FB6F894DEBF0FBECDBF5C010E94E11758
:102A400085010D531F4F450127EC820E911CD401C7
:102A5000CD90DD90ED90FC906C197D098E099F0959
:102A6000F80160837183828393830E94360FD501BE
:102A700095969C938E9394970E94430F7C01F50149
:102A800097A386A364A175A1882777FD8095982FC9
:102A90000E9457229B01AC010E94DC23882329F06D
:102AA000D50195961C921E929497B701882777FDC1
:102AB0008095982F0E9457229B01AC010E94DC2335
:102AC000882319F0F50117A216A2D5011C968D9145
:102AD0009D910D90BC91A02D898B9A8BAB8BBC8B5B
:102AE000F501408451846284738464A175A18827B0
:102AF00077FD8095982F0E94572229893A894B8922
:102B00005C890E947023A30192010E94BC216B0189
:102B10007C016D877E878F87988BD50196966D9106
:102B20007C919797882777FD8095982F0E94572250
:102B300029893A894B895C890E947023A3019201FB
:102B40000E94BC2169877A878B879C87A7019601A1
:102B50000E94EF2020E030E040E05FE30E9470231D
:102B60006D837E838F8398879E012B5F3F4FAE01DD
:102B7000475F5F4FBE01635F7F4FC5010E946510D5
:102B8000C5010E942713F801C080D180E280F38044
:102B9000C701B6010E945522D501D0962D913D91D5
:102BA0004D915C91D3970E94702320E030E04AE77A
:102BB00054E40E94BC2169837A838B839C83B70190
:102BC000A601C5010E94AA146B017C018DEC93E063
:102BD0000E94660560E072E08091FE039091FF0321
:102BE0000E94601A65ED71E08091FE039091FF03F1
:102BF0000E94601A22E030E0B701A6018091FE0336
:102C00009091FF030E94011C67ED71E08091FE032B
:102C10009091FF030E94601A65E070E080E090E010
:102C20000E9410188E010F5F1F4F9E01275F3F4FBC
:102C3000AE01435F5F4FBE016B5F7F4FC5010E94D6
:102C4000A2109E01275F3F4FAE01435F5F4FBE0161
:102C50006B5F7F4FC5010E94D0110E94E117F40104
:102C6000608371838283938364960FB6F894DEBF8A
:102C70000FBECDBFDF91CF911F910F91FF90EF90CD
:102C8000DF90CF90BF90AF909F908F907F906F908C
:102C90005F904F90089589EC96E7A6E5B0E48093A5
:102CA0001A0490931B04A0931C04B0931D0480E6A7
:102CB00095EEA0E3BFE380931E0490931F04A093BE
:102CC0002004B093210484E19EE6A3E6B4E480935B
:102CD000220490932304A0932404B09325048DE050
:102CE0009FEEAAE8B0E48093260490932704A09373
:102CF0002804B093290482EA94E00E943D068FEAFA
:102D000094E00C94C5070895853008F04CC0E82F76
:102D1000F0E0EE0FFF1FEE5EFE4F718360838230A6
:102D2000E1F018F4813069F004C0833019F1843087
:102D300071F1809169008C7F842B80936900E89AFF
:102D4000089580916900440F551F440F551F837FDC
:102D5000842B80936900E99A08958091690034E09A
:102D6000440F551F3A95E1F78F7C842B80936900BF
:102D7000EA9A08958091690026E0440F551F2A952C
:102D8000E1F78F73842B80936900EB9A089580910B
:102D90006A0094E0440F551F9A95E1F78F7C842BCD
:102DA00080936A00EE9A08951F920F920FB60F92C9
:102DB00011242F933F934F935F936F937F938F9340
:102DC0009F93AF93BF93EF93FF93E0911201F09124
:102DD00013010995FF91EF91BF91AF919F918F9151
:102DE0007F916F915F914F913F912F910F900FBE07
:102DF0000F901F9018951F920F920FB60F921124EB
:102E00002F933F934F935F936F937F938F939F93F2
:102E1000AF93BF93EF93FF93E0911401F0911501ED
:102E20000995FF91EF91BF91AF919F918F917F9104
:102E30006F915F914F913F912F910F900FBE0F9027
:102E40001F9018951F920F920FB60F9211242F9377
:102E50003F934F935F936F937F938F939F93AF9322
:102E6000BF93EF93FF93E0911601F091170109953D
:102E7000FF91EF91BF91AF919F918F917F916F9152
:102E80005F914F913F912F910F900FBE0F901F9028
:102E900018951F920F920FB60F9211242F933F9304
:102EA0004F935F936F937F938F939F93AF93BF9352
:102EB000EF93FF93E0911801F09119010995FF91AB
:102EC000EF91BF91AF919F918F917F916F915F91A2
:102ED0004F913F912F910F900FBE0F901F9018951B
:102EE0001F920F920FB60F9211242F933F934F937F
:102EF0005F936F937F938F939F93AF93BF93EF9362
:102F0000FF93E0911A01F0911B010995FF91EF9158
:102F1000BF91AF919F918F917F916F915F914F91F1
:102F20003F912F910F900FBE0F901F9018951F92F9
:102F30000F920FB60F9211242F933F938F939F936D
:102F4000AF93BF938091E6049091E704A091E804C9
:102F5000B091E9043091E50423E0230F2D3720F4EC
:102F60000196A11DB11D05C026E8230F0296A11DE3
:102F7000B11D2093E5048093E6049093E704A093A9
:102F8000E804B093E9048091EA049091EB04A091E5
:102F9000EC04B091ED040196A11DB11D8093EA04EB
:102FA0009093EB04A093EC04B093ED04BF91AF9128
:102FB0009F918F913F912F910F900FBE0F901F9077
:102FC00018952FB7F8946091E6047091E70480910A
:102FD000E8049091E9042FBF08953FB7F8948091D9
:102FE000EA049091EB04A091EC04B091ED0426B5B5
:102FF000A89B05C02F3F19F00196A11DB11D3FBF31
:103000006627782F892F9A2F620F711D811D911DC0
:1030100042E0660F771F881F991F4A95D1F70895E0
:103020008F929F92AF92BF92CF92DF92EF92FF92D8
:103030006B017C010E94ED174B015C01C114D104AE
:10304000E104F104F1F00E9452200E94ED1768198A
:1030500079098A099B09683E73408105910570F3DF
:1030600021E0C21AD108E108F10888EE880E83E059
:10307000981EA11CB11CC114D104E104F10429F76C
:10308000DDCFFF90EF90DF90CF90BF90AF909F90FB
:103090008F900895789484B5826084BD84B58160F2
:1030A00084BD85B5826085BD85B5816085BDEEE650
:1030B000F0E0808181608083E1E8F0E0108280812F
:1030C00082608083808181608083E0E8F0E080819D
:1030D00081608083E1E9F0E080818260808380818B
:1030E00081608083E0E9F0E0808181608083E1ECB1
:1030F000F0E0808184608083808182608083808131
:1031000081608083E3ECF0E0808181608083E0EC8B
:10311000F0E0808182608083E2ECF0E08081816079
:103120008083EAE7F0E08081846080838081826030
:10313000808380818160808380818068808308951E
:1031400090E0FC013197EF30F105B0F5EA5AFF4FFE
:103150000C947024809180008F7703C08091800050
:103160008F7D80938000089580918000877FF9CFC4
:1031700084B58F7702C084B58F7D84BD089580911A
:1031800090008F7707C0809190008F7D03C0809161
:103190009000877F8093900008958091C0008F7782
:1031A00003C08091C0008F7D8093C00008958091FE
:1031B000C200877F8093C20008950F931F93CF931F
:1031C000DF931F92CDB7DEB7282F30E0F901EA5E1A
:1031D000FE4F8491F901EB5CFE4F1491F901EC5A1A
:1031E000FE4F04910023C9F0882321F069830E94D7
:1031F000A0186981E02FF0E0EE0FFF1FED58FE4FA1
:10320000A591B4919FB7F8948C91611103C010956A
:10321000812301C0812B8C939FBF0F90DF91CF91B1
:103220001F910F910895CF93DF931F92CDB7DEB713
:103230006983DC01ED91FC910280F381E02D41E096
:1032400050E0BE016F5F7F4F09950F90DF91CF91E6
:103250000895CF93DF93EC018C859D8597FF05C082
:1032600082E00E94141D9D878C878C859D85DF914F
:10327000CF91089583E00C94A81FFC018485958567
:1032800097FD06C082E00E94BC1C90E00196089564
:1032900082E00E94BC1C90E00895FC018485958525
:1032A00097FD05C02FEF3FEF35872487089582E013
:1032B0000C94141DCF93DF93EC0180912701882398
:1032C00031F083E00E94451D1816190634F081E0A4
:1032D00090E09B838A8380E090E0DF91CF91089516
:1032E000FC0120812E5F208342E450E061E871E020
:1032F00080E80C94E01DFC0121818081813A59F421
:10330000213209F04BC047E050E060E271E080E01C
:103310000E94E01D5EC0813209F040C0233289F472
:10332000838190E0982F88273281832BA0E0B0E042
:1033300080931C0190931D01A0931E01B0931F0167
:103340000FC0203239F467E070E080E291E00E9423
:10335000111E09C0223221F482818093270103C00B
:103360002D7F2032B1F580913E05811103C0E0E050
:10337000F8E002C0EEEFFAE0809120019091210187
:10338000A0912201B0912301803B9440A105B10599
:1033900011F58091270180FF03C01DC080E00895D2
:1033A000EE3F2AE0F20731F0808191819093FF0A8D
:1033B0008093FE0A87E797E7918380832BE088E17B
:1033C00090E00FB6F894A895809360000FBE20930C
:1033D000600081E0089588E10FB6F8948093600062
:1033E000109260000FBEA895EE3F8AE0F80739F012
:1033F0008091FE0A9091FF0A91838083EACF109218
:10340000FF0A1092FE0AE5CF2FEF3FEFFC01358750
:1034100024870895CF93C09127016AE070E080E08F
:1034200090E00E94101881E0C11101C080E0CF91AE
:1034300008951092F1041092F00488EE93E0A0E059
:10344000B0E08093F2049093F304A093F404B0935B
:10345000F5048CE092E09093EF048093EE048FEFFC
:103460009FEF9093FB048093FA04089508950E94BF
:103470004A180E94361A8FE395E00E9435200E9478
:103480003701C0E0D0E00E9477012097E1F30E946D
:103490000000F9CF6115710581F0DB010D9000206E
:1034A000E9F7AD0141505109461B570BDC01ED9185
:1034B000FC910280F381E02D099480E090E0089572
:1034C0000C944A1ADC01ED91FC910190F081E02D01
:1034D00009948F929F92AF92BF92DF92EF92FF92E8
:1034E0000F931F93CF93DF93CDB7DEB7A1970FB69E
:1034F000F894DEBF0FBECDBF7C01F42FD52ECB01DB
:1035000019A2223008F42AE08E010F5D1F4F822E8F
:10351000912CA12CB12C6F2F7D2DA50194010E941F
:103520002F24F22FD32ECA01015011096A3014F44E
:10353000E0E301C0E7E3E60FD801EC93232B242B53
:10354000252B49F7B801C7010E944A1AA1960FB668
:10355000F894DEBF0FBECDBFDF91CF911F910F91C9
:10356000FF90EF90DF90BF90AF909F908F90089565
:10357000CF92DF92EF92FF920F931F93CF93DF933F
:10358000EC016A017B012115310579F4E881F981AB
:103590000190F081E02D642FDF91CF911F910F9169
:1035A000FF90EF90DF90CF9009942A303105E9F435
:1035B00077FF1AC06DE20E94621A8C0144275527DA
:1035C000BA014C195D096E097F092AE0CE010E94FB
:1035D000691A800F911FDF91CF911F910F91FF907A
:1035E000EF90DF90CF9008952AE0B701A601CE01B9
:1035F000DF91CF911F910F91FF90EF90DF90CF90CF
:103600000C94691A2115310541F4DC01ED91FC910E
:103610000190F081E02D642F09940C94691A9A01AD
:10362000462F50E060E070E00C94021B4F925F92D6
:103630006F927F928F929F92AF92BF92CF92DF92C2
:10364000EF92FF920F931F93CF93DF93EC016A01E8
:103650007B01B22E9A01AB01C701B6010E94DC23A7
:10366000882319F068E172E027C026013701E89449
:1036700077F82FEF3FEF4FE75FE7C301B2010E94FA
:10368000DC2381110DC02FEF3FEF4FE75FE7C30150
:10369000B2010E94B52118161CF46CE172E00CC056
:1036A0002FEF3FEF4FE75FE4C701B6010E946523AC
:1036B0001816ACF460E272E0CE01DF91CF911F9159
:1036C0000F91FF90EF90DF90CF90BF90AF909F90C1
:1036D0008F907F906F905F904F900C944A1A2FEFCD
:1036E0003FEF4FE75FECC701B6010E94B52187FDB0
:1036F000E1CF20E030E0A901C701B6010E94B52169
:1037000087FF0AC06DE2CE010E94621A8C01F7FAAF
:10371000F094F7F8F09402C000E010E0A12C60E013
:1037200070E080E09FE3AB1441F020E030E040E245
:1037300051E40E94BC21A394F6CF9B01AC01C701C8
:10374000B6010E94EF206B017C010E9429222B010F
:103750003C010E9455229B01AC01C701B6010E94A9
:10376000EE206B017C012AE0B301A201CE010E9490
:10377000691A080F191FBB2039F064E272E0CE010C
:103780000E944A1A080F191F7B2C772041F120E074
:1037900030E040E251E4C701B6010E9470236B01A2
:1037A0007C010E9424224B01AA2497FCA094BA2CED
:1037B0002AE030E0B501A401CE010E94B81A080F3A
:1037C000191FC501B4010E9457229B01AC01C7011A
:1037D000B6010E94EE206B017C017A94D6CFC8011D
:1037E000DF91CF911F910F91FF90EF90DF90CF90DD
:1037F000BF90AF909F908F907F906F905F904F9011
:1038000008950C94161B615030F02091F100FC01DA
:1038100020830196F8CF289884E680934805089580
:103820004091430550914405209141053091420556
:1038300042175307B4F49091E8009570E1F390912A
:10384000E80092FD19C08093F100809143059091AA
:10385000440501968F739927892B19F48EEF809375
:10386000E8008091430590914405019690934405AA
:103870008093430581E0089580E00895CF92DF9220
:10388000EF92FF920F931F93CF93DF931F92CDB7C9
:10389000DEB7082F162FF42E862F880F8E5F9983A0
:1038A0000E94101C83E00E94101CE02EC02E998103
:1038B000D92E8C2D8E19811798F4F601F7FE02C0CF
:1038C000849101C080810E94101C082F80E00E941A
:1038D000101C8023FFEFCF1ADF0A8111EACF01C04D
:1038E00081E00F90DF91CF911F910F91FF90EF90AA
:1038F000DF90CF9008958091D70081608093D700AA
:1039000080EA8093D80089B5806189BD89B58260DD
:1039100089BD09B400FEFDCF61E070E080E090E079
:103920000E9410188091D8008F7C80618093D8000D
:103930008091E000807F8093E0000895CF93DF9333
:103940001F92CDB7DEB71982CE0101960E94701981
:103950000E94DA20BE016F5F7F4F0E945320898151
:103960000F90DF91CF9108952FB7FC012083F89439
:1039700067706093E9000895CF93DF931F92CDB7EE
:10398000DEB7682FCE0101960E94B41C8091F20030
:1039900099819FBF0F90DF91CF910895FF920F9370
:1039A0001F93CF93DF9300D0CDB7DEB7F62E8A01F9
:1039B00090914705992311F057FF03C08FEF9FEFB8
:1039C0002BC0682FCE0101967A830E94B41C80918F
:1039D000F20090E0A8017A81801791070CF4AC0105
:1039E000EF2DF72FF40E84E6FE1639F02898809319
:1039F00048059091F1009193F7CF4115510521F0C1
:103A00008091F200882321F089818FBFCA0104C010
:103A10008BE68093E800F8CF0F900F90DF91CF9165
:103A20001F910F91FF900895CF93DF931F92CDB711
:103A3000DEB741E050E0BE016F5F7F4F0E94CE1CB9
:103A4000019719F4898190E002C08FEF9FEF0F90EA
:103A5000DF91CF910895CF93DF931F92CDB7DEB75B
:103A6000682FCE0101960E94B41C9091E800892F26
:103A7000807295FF04C09091F20080E4891B9981C7
:103A80009FBF0F90DF91CF9108956F927F928F9299
:103A90009F92AF92BF92CF92DF92EF92FF920F93DD
:103AA0001F93CF93DF931F92CDB7DEB7782E7B01A4
:103AB000C42EB52E80914705882369F0042F152F59
:103AC0008AEFD82E872D8072982E9AE3A92E872D03
:103AD0008074882E11C08FEF9FEF57C0872D0E94F2
:103AE0002B1D682E81110CC0DA94A9F361E070E0FF
:103AF00080E090E00E9410180115110579F73BC095
:103B0000282F30E0021713070CF4602E672DCE012A
:103B100001960E94B41C8091E80085FF29C0262DE3
:103B200030E0021B130B992039F06A948FEF68166E
:103B3000B1F01092F100F9CFF701862D77FE07C0A2
:103B4000815058F094919093F1003196F9CF8150C3
:103B500020F091919093F100FACFE20EF31E809144
:103B6000E80085FF0FC00115110511F481100AC08E
:103B700089818FBFC1CF5D9884E6809349058C2DE4
:103B80009B2D03C0A092E800F3CF0F90DF91CF915F
:103B90001F910F91FF90EF90DF90CF90BF90AF906B
:103BA0009F908F907F906F9008951092E9001092EF
:103BB0004405109243059093420580934105089572
:103BC000CF92DF92FF920F931F93CF93DF9300D09A
:103BD000CDB7DEB7F82E8A016B0101151105B1F0E2
:103BE000F601F7FE02C0849101C0808149835A83A7
:103BF0000E94101C01501109FFEFCF1ADF0A498102
:103C00005A818111EACF8FEF9FEF01C0CA010F9057
:103C10000F90DF91CF911F910F91FF90DF90CF9088
:103C20000895BF92CF92DF92EF92FF920F931F936E
:103C3000CF93DF936C018B01EB013BEFB32E209709
:103C4000C1F07E01C134D1051CF020E4E22EF12C3C
:103C50008091E80082FFFCCFC8018C1B9D0B6E2D6C
:103C60008C0D9D1D0E94031CB092E800CE19DF0947
:103C7000E6CFC801DF91CF911F910F91FF90EF9098
:103C8000DF90CF90BF9008951F920F920FB60F92C2
:103C90001124DF92EF92FF920F931F932F933F9384
:103CA0004F935F936F937F938F939F93AF93BF9344
:103CB000EF93FF93CF93DF93CDB7DEB76C97DEBF63
:103CC000CDBF1092E9008091E80083FF23C168E036
:103CD000CE0145960E94031C82EF8093E8003D8947
:103CE00037FF05C08091E80080FFFCCF03C08EEF56
:103CF0008093E800832F807609F0F0C02E894F89E9
:103D0000D88C21110CC0303829F48091460580935D
:103D1000F10002C01092F1001092F100F4C0842F63
:103D200090E09D29213049F43111EDC0019709F04F
:103D3000EAC0809146058D7F0AC0233059F43111C5
:103D4000E2C0019709F0DFC0809146058260809350
:103D50004605D9C0253041F48091E80080FFFCCFB2
:103D600040684093E300CFC0263009F08DC0EB8C53
:103D7000FC8C22E0D2122CC080E090E00E94D51D85
:103D80000E949E1C99E08E010F5F1F4FF801292FA2
:103D900011922A95E9F79983DA8291E09E8390EA5D
:103DA00098879AEF99872091430530914405275FC2
:103DB0003F4F3C832B838D83C7010E94D51D49E073
:103DC00050E0B80180E00E94E01D0E949E1C9BC054
:103DD000C7010E94D51D0E94DA20BE016B5E7F4F95
:103DE0000E947C20009719F00CF08DC090C081E0FB
:103DF000D8120EC08B8D9C8D089719F481E08093AA
:103E000040058091400581112FC065ED71E031C002
:103E1000E3E0DE127CC08F89882349F1823029F4E7
:103E200040E862E18AEF91E01CC0813029F440E86B
:103E300062E187EE91E015C0833009F068C00E940E
:103E4000DA208E010F5F1F4FB8010E949B20F801FE
:103E500001900020E9F73197E01BF10B40E06E2F55
:103E6000C8010E943E1C4DC063EC71E002C06DE0D1
:103E700072E06115710509F44AC0FB01449150E0FC
:103E800080E80E94E01D3FC0273009F440C0283080
:103E900021F481E08093F10036C02930A1F5337020
:103EA000B1F5E9E2F1E081E021E036E39081992388
:103EB00061F08093E9002093EB0091919093EC00E6
:103EC0003093ED008F5F873089F78EE78093EA00AB
:103ED0001092EA008F898093470515C08B8D9C8DC9
:103EE0000E94D51D898D811105C0CE0145960E9485
:103EF0007B1907C00E94DA20BE016B5E7F4F0E94D3
:103F0000BA20882321F08EEF8093E80003C081E27D
:103F10008093EB006C960FB6F894DEBF0FBECDBF5A
:103F2000DF91CF91FF91EF91BF91AF919F918F91D1
:103F30007F916F915F914F913F912F911F910F91C1
:103F4000FF90EF90DF900F900FBE0F901F9018958D
:103F50008093E9008091F200882319F08AE380932E
:103F6000E80008951F920F920FB60F9211242F931D
:103F70003F934F935F936F937F938F939F93AF93F1
:103F8000BF93CF93EF93FF93C091E1008091E10045
:103F9000837F8093E1008093E100C3FF0FC0109204
:103FA000E90081E08093EB001092EC0082E38093C3
:103FB000ED001092470588E08093F000C2FF19C021
:103FC00083E00E94A81F80914905882339F08091E1
:103FD0004905815080934905882389F180914805DE
:103FE000882339F0809148058150809348058823C3
:103FF00041F1C4FF10C08091E2008E7E8160809309
:10400000E2008091E1008F7E8093E1008091450580
:104010008E7E806111C0C0FF16C08091E2008E7E4E
:1040200080618093E2008091E1008E7E8093E100C8
:10403000809145058E7E81608093450504C05D9A20
:10404000CDCF289AD6CFFF91EF91CF91BF91AF916D
:104050009F918F917F916F915F914F913F912F91A0
:104060000F900FBE0F901F90189510924705109259
:104070004605109245050E947B1C8091E1008E7ED2
:104080008093E1008DE08093E200559A209AEEEF54
:10409000FFE7859194918B3F9C4D19F481E08093CB
:1040A0003E0508950895EF92FF920F931F93CF93CB
:1040B000DF937B01FC01C281D38100E010E02097F7
:1040C00081F0E881F9810280F381E02DB701CE0112
:1040D000099597FD08C0080F191F0884D985C02DC0
:1040E000EECFC80102C08FEF9FEFDF91CF911F91FC
:1040F0000F91FF90EF9008950F931F93CF93DF934D
:104100008B01FC01C281D381209771F0E881F98194
:104110000480F581E02DB801CE010995009731F4B6
:104120000884D985C02DF0CF80E090E0DF91CF9159
:104130001F910F9108950F931F93CF93DF938B01DE
:10414000FC01C281D381209771F0E881F98106805A
:10415000F781E02DB801CE010995080F111D0884E3
:10416000D985C02DF0CFF8011082DF91CF911F913A
:104170000F9108950F931F93CF93DF938B01FC0151
:10418000C281D381209771F0E881F9810190F0819B
:10419000E02DB801CE010995811106C00884D985AA
:1041A000C02DF0CF80E001C081E0DF91CF911F9161
:1041B0000F91089580914E0581110DC082E080938A
:1041C0004A0584E080934B0510924D0510924C05F2
:1041D00081E080934E058AE495E008955058BB270E
:1041E000AA270ED027C2F0D130F0F5D120F031F45B
:1041F0009F3F11F41EF4C0C10EF4E095E7FBB6C179
:10420000E92F3AD280F3BA1762077307840795073C
:1042100018F071F49EF552C20EF4E0950B2EBA2FF1
:10422000A02D0B01B90190010C01CA01A0011124BC
:10423000FF27591B99F0593F50F4503E68F11A1668
:10424000F040A22F232F342F4427585FF3CF4695F9
:1042500037952795A795F0405395C9F77EF41F161B
:10426000BA0B620B730B840BBAF09150A1F0FF0FE5
:10427000BB1F661F771F881FC2F70EC0BA0F621FD1
:10428000731F841F48F4879577956795B795F795C1
:104290009E3F08F0B3CF9395880F08F09927EE0F53
:1042A00097958795089590D158F080E891E009F4AA
:1042B0009EEF91D128F040E851E059F45EEF09C03B
:1042C0005BC1FCC1E92FE078D7D168F3092E052A3C
:1042D000C1F3261737074807590738F00E2E07F89D
:1042E000E02569F0E025E0640AC0EF6307F8009478
:1042F00007FADB01B9019D01DC01CA01AD01EF93B1
:104300004AD098D10AD05F91552331F02BED3FE090
:1043100049E450FD49EC63CF0895DF93DD27B92FC1
:10432000BF7740E85FE31616170648075B0710F4EF
:10433000D92FCFD19F938F937F936F933AD2EAEC8B
:10434000F0E01DD177D12F913F914F915F91D4D162
:10435000DD2349F09058A2EA2AED3FE049EC5FE303
:10436000D0785D274DDFDF9165C1DCD008F481E0B6
:10437000089539D1E3956FC10CD05CC12CD140F0C8
:1043800023D130F021F45F3F19F0F0C0511197C1F3
:10439000F3C072D198F39923C9F35523B1F3951B58
:1043A000550BBB27AA2762177307840738F09F5F56
:1043B0005F4F220F331F441FAA1FA9F333D00E2EC5
:1043C0003AF0E0E830D091505040E695001CCAF732
:1043D00029D0FE2F27D0660F771F881FBB1F2617F7
:1043E00037074807AB07B0E809F0BB0B802DBF01CA
:1043F000FF2793585F4F2AF09E3F510568F0B6C0E3
:104400005EC15F3FECF3983EDCF386957795679548
:10441000B795F7959F5FC9F7880F911D969587957A
:1044200097F90895E1E0660F771F881FBB1F621799
:1044300073078407BA0720F0621B730B840BBA0B57
:10444000EE1F88F7E095089504D06894B11137C144
:1044500008951AD188F09F5790F0B92F9927B75136
:10446000A0F0D1F0660F771F881F991F1AF0BA9538
:10447000C9F712C0B13081F021D1B1E008951EC159
:10448000672F782F8827B85F39F0B93FCCF386952E
:1044900077956795B395D9F73EF49095809570958B
:1044A00061957F4F8F4F9F4F0895E89409C097FB08
:1044B0003EF490958095709561957F4F8F4F9F4FFB
:1044C0009923A9F0F92F96E9BB279395F69587953F
:1044D00077956795B795F111F8CFFAF4BB0F11F402
:1044E00060FF1BC06F5F7F4F8F4F9F4F16C08823A9
:1044F00011F096E911C0772321F09EE8872F762FDF
:1045000005C0662371F096E8862F70E060E02AF01F
:104510009A95660F771F881FDAF7880F969587950B
:1045200097F90895990F0008550FAA0BE0E8FEEFE0
:1045300016161706E807F907C0F012161306E40767
:10454000F50798F0621B730B840B950B39F40A2660
:1045500061F0232B242B252B21F408950A2609F43E
:10456000A140A6958FEF811D811D089597F99F6742
:1045700080E870E060E008959FEF80EC0895DF939D
:10458000CF931F930F93FF92EF92DF927B018C01E9
:10459000689405C0DA2EEF01AFD0FE01E894A59132
:1045A0002591359145915591AEF3EF0129DEFE013C
:1045B0009701A801DA9479F7DF90EF90FF900F91BF
:1045C0001F91CF91DF91089500240A9416161706C3
:1045D00018060906089500240A94121613061406F4
:1045E00005060895C9CF50D0E8F3E894E0E0BB2772
:1045F0009F57F0F02AED3FE049EC06C0EE0FBB0FED
:10460000661F771F881F28F0B23A62077307840776
:1046100028F0B25A620B730B840BE3959A9572F7EC
:10462000803830F49A95BB0F661F771F881FD2F72A
:104630009048C8C0092E0394000C11F4882352F04E
:10464000BB0F40F4BF2B11F460FF04C06F5F7F4FBE
:104650008F4F9F4F0895EF93E0FF06C0A2EA2AED27
:104660003FE049EC5FEBCCDDE5DF0F90039401FC0C
:104670009058E7EFF0E0B2C057FD9058440F551F37
:1046800059F05F3F71F04795880F97FB991F61F0D4
:104690009F3F79F087950895121613061406551F4B
:1046A000F2CF4695F1DF08C0161617061806991FB7
:1046B000F1CF86957105610508940895E894BB27AC
:1046C00066277727CB0197F908952CDF08F48FEF41
:1046D00008959B01AC0160E070E080E89FE34CCE60
:1046E0000BD0A8CF71DF28F076DF18F0952309F002
:1046F0003DCF42CF1124E3CFBFDFA0F3959FD1F38D
:10470000950F50E0551F629FF001729FBB27F00D7F
:10471000B11D639FAA27F00DB11DAA1F649F6627D4
:10472000B00DA11D661F829F2227B00DA11D621F23
:10473000739FB00DA11D621F839FA00D611D221FDD
:10474000749F3327A00D611D231F849F600D211DC1
:10475000822F762F6A2F11249F5750408AF0E1F064
:1047600088234AF0EE0FFF1FBB1F661F771F881FAD
:1047700091505040A9F79E3F510570F0F7CE9FCF62
:104780005F3FECF3983EDCF3869577956795B79598
:10479000F795E7959F5FC1F7FE2B880F911D9695C2
:1047A000879597F908959F931EDF0F9007FCEE5FA2
:1047B00052CF9B01AC0194CFB5DE880B990B0895C5
:1047C0009F3F31F0915020F4879577956795B79585
:1047D000880F911D9695879597F908959F938F93CC
:1047E0007F936F93FF93EF939B01AC0179DFEF9180
:1047F000FF91C5DE2F913F914F915F9171CFDB010A
:104800008F939F930E948524BF91AF91A29F800DAB
:10481000911DA39F900DB29F900D11240895991B97
:1048200079E004C0991F961708F0961B881F7A95A7
:10483000C9F780950895AA1BBB1B51E107C0AA1FA9
:10484000BB1FA617B70710F0A61BB70B881F991F31
:104850005A95A9F780959095BC01CD010895A1E2E4
:104860001A2EAA1BBB1BFD010DC0AA1FBB1FEE1FEA
:10487000FF1FA217B307E407F50720F0A21BB30B35
:10488000E40BF50B661F771F881F991F1A9469F7B1
:1048900060957095809590959B01AC01BD01CF010D
:1048A0000895052E97FB1EF400940E94682457FD7E
:1048B00007D00E942F2407FC03D04EF40C946824E8
:1048C00050954095309521953F4F4F4F5F4F08953C
:1048D00090958095709561957F4F8F4F9F4F08956C
:1048E000EE0FFF1F0590F491E02D0994A29FB001F7
:1048F000B39FC001A39F700D811D1124911DB29F14
:10490000700D811D1124911D08950E947624A59F8C
:10491000900DB49F900DA49F800D911D11240895BA
:04492000F894FFCF39
:1049240000005605800001000F00F4010400D007C8
:10493400040183168316831683168316FFFFFFFF75
:1049440000E100000000000000C1808100000001BF
:104954008001800180FF7FFF7FFF7F564D445056CA
:104964005F317C315F564D4450560D0A0000000003
:10497400005A022D0202020A021D022C02564D4464
:1049840050435F005F564D4450430D0A0045727218
:104994006F723A20417474656D707420746F207363
:1049A4006574206120726561642D6F6E6C79207668
:1049B40061726961626C65206F7220646174612048
:1049C40074797065206E6F7420737570706F727473
:1049D40065640D0A009C01B501CF01EA01070226B6
:1049E40002470269028E02B502DE020A03564D44F2
:1049F40050455F37007C005F564D4450450D0A001A
:104A0400564D4450455F3500564D4450455F360081
:104A1400564D4450455F3100564D4450455F320079
:104A2400564D4450455F34000000000013195A19D4
:104A34003D194D1929193A196E616E00696E6600A7
:064A44006F7666002E00F3
:00000001FF
