:100000000C940D010C94D0210C94F7210C941E2219
:100010000C9445220C9435010C9435010C946C22FF
:100020000C9435010C9479100C94B02A0C9442294C
:100030000C9435010C9435010C9435010C94350168
:100040000C9435010C9435010C9435010C94350158
:100050000C9435010C9435010C9435010C949322C9
:100060000C9435010C9435010C9435010C94350138
:100070000C9435010C9435010C9435010C94350128
:100080000C9435010C9435010C9435010C94350118
:100090000C94FF040C9435010C9435010C9435013B
:1000A0000C9435010C94130F0C943501B423B72331
:1000B000A623AA23B023D823D823D823BB23BF2326
:1000C000C323C923CD23D823D323084AD73B3BCE10
:1000D000016E84BCBFFDC12F3D6C74319ABD568347
:1000E0003DDA3D00C77F11BED9E4BB4C3E916BAAFF
:1000F000AABE000000803F05A84CCDB2D44EB9384E
:1001000036A9020C50B9918688083CA6AAAA2ABE34
:10011000000000803F000000000200090F00000303
:100120000401000C000000000000000000000000BE
:100130000000000000040802011040804010204030
:1001400080408008020401804020100201108010CD
:1001500020404020040404040403040502020202B7
:100160000403020202020606060606060404020250
:1001700002040400000000250028002B002E00319E
:1001800000080B0002020201000904000001020243
:1001900000000524001001052401010104240206C9
:1001A0000524060001070581031000400904010031
:1001B000020A000000070502024000000705830252
:1001C00040000012010002EF020140FB1F0023006B
:1001D00001010203011201000200000040FB1F00A8
:1001E00023000101020301506F6C6F6C7520436F97
:1001F00072706F726174696F6E00506F6C6F6C75A6
:1002000020412D53746172203332553400040309A8
:1002100004008F0215041421172511241FBECFEFEF
:10022000DAE0DEBFCDBF12E0A0E0B1E0ECEBFFE52D
:1002300002C005900D92AC32B107D9F726E0ACE2CE
:10024000B2E001C01D92AD39B207E1F712E0CAE198
:10025000D2E004C02297FE010E94B92FC231D1071B
:10026000C9F70E9435250C94DC2F0C940000CF9325
:10027000DF93EC01C55BDE4F60E070E0CE010E94D1
:10028000291160E070E0CE01DF91CF910C944F1105
:10029000AF92BF92CF92DF92EF92FF920F931F9394
:1002A00040ED57E060E070E081E694E00E949E0639
:1002B00020E032EC41E050E065E376E081E694E056
:1002C0000E94570681E694E00E9454066BE371E0B9
:1002D00080919204909193040E945E256AE070E000
:1002E00080E090E00E940C2341E060E081E694E031
:1002F0000E94100740E052EC61E070E085E396E078
:100300000E94022582E392E00E94901961E08DE74D
:1003100093E00E94751161E08DE793E00E947811EF
:10032000A12CB12CC12CD12C76019701860140E083
:1003300050E060EB71E482E392E00E942F1CAA245B
:10034000A394B12C9BEDC92E9FE0D92E99E4E92E00
:1003500090E4F92E00E010E020EB31EC40E050E0BA
:1003600060EB71E482E392E00E942F1C22E0A22E57
:10037000B12C00E010E020EB31EC40E050E0BA019D
:1003800082E392E00E942F1C3BEDC32E3FE0D32E70
:1003900039ECE32E3FE3F32E00E010E09801B901C1
:1003A000A80182E392E00E942F1C1F910F91FF9001
:1003B000EF90DF90CF90BF90AF900895AF92BF9233
:1003C000CF92DF92EF92FF920F931F93CF93DF9321
:1003D000CDB7DEB7E0970FB6F894DEBF0FBECDBF46
:1003E000A0903002B09031028CE0EAE8F2E0DE0149
:1003F000959601900D928A95E1F7CDA0DEA0EFA031
:10040000F8A409A51AA52BA53CA54DA55EA56FA529
:1004100078A982E392E00E948D1E82E392E00E941E
:10042000370164E670E080E090E00E940C23A09029
:100430000601B09007018CE0E6E9F2E0DE01599692
:1004400001900D928A95E1F7C98CDA8CEB8CFC8CCB
:100450000D8D1E8D2F8D38A149A15AA16BA17CA1B4
:1004600082E392E00E948D1E64E670E080E090E0FE
:100470000E940C2382E392E00E943701A0902E029A
:10048000B0902F028CE0E2EAF2E0DE011D960190CE
:100490000D928A95E1F7CD84DE84EF84F88809898E
:1004A0001A892B893C894D895E896F89788D82E311
:1004B00092E00E948D1E64E670E080E090E00E9471
:1004C0000C23A0902C02B0902D028CE0EEEAF2E01A
:1004D000DE01119601900D928A95E1F7C980DA80CC
:1004E000EB80FC800D811E812F81388549855A85DE
:1004F0006B857C8582E392E00E948D1EE0960FB6AC
:10050000F894DEBF0FBECDBFDF91CF911F910F9149
:10051000FF90EF90DF90CF90BF90AF90089589EC5F
:1005200096E7A6E5B0E48093320290933302A0935D
:100530003402B093350280E695EEA0E3BFE38093EA
:10054000360290933702A0933802B093390284E1C7
:100550009EE6A3E6B4E480933A0290933B02A09314
:100560003C02B0933D028DE09FEEAAE8B0E4809398
:100570003E0290933F02A0934002B093410280E07C
:1005800090E0A0E8BFE38093420290934302A093DF
:100590004402B093450282E493E00E942B078FE46B
:1005A00093E00E94B3082998219A2D98259A2A98B9
:1005B000229A2E98269A80EA8093800081E1809387
:1005C000810080E991E090938700809386001092EB
:1005D00089001092880010928B0010928A00089572
:1005E0008091D10390E02091D203821B910908955C
:1005F0002091D2038091D103281750F4E22FF0E02C
:10060000ED52FC4F808190E02F5F2093D20308953C
:100610008FEF9FEF0895E091D2038091D103E81707
:1006200030F4F0E0ED52FC4F808190E008958FEFC0
:100630009FEF08950895CF92DF92EF92FF920F936C
:100640001F93CF93DF937C01CB018A012091AD03EF
:10065000222389F0EB016B01C40ED51ECC15DD05FC
:1006600069F06991D701ED91FC910190F081E02D45
:10067000C7010995F3CF642F0E94D604C801DF910A
:10068000CF911F910F91FF90EF90DF90CF90089541
:10069000CF93DF931F92CDB7DEB769832091AD036F
:1006A0002223D1F02091AE03203240F021E030E04F
:1006B000FC013383228380E090E015C08091AF037A
:1006C000E82FF0E0E055FC4F998190838F5F809395
:1006D000AF038093AE0305C061E0CE0101960E9496
:1006E000D60481E090E00F90DF91CF910895FC0156
:1006F0001382128248EE53E060E070E04483558339
:100700006683778381E591E09183808308951092D9
:10071000D2031092D1031092AF031092AE030C9447
:10072000190481E08093AD036093D0031092AF036E
:100730001092AE0308950F93062F21E04091AE036F
:1007400060EB73E08091D0030E947F041092AF03AE
:100750001092AE031092AD030F9108958F929F9265
:10076000AF92BF92CF92DF92EF92FF920F931F93BF
:10077000CF93DF93EC01F62ED42E48015901EE20E1
:1007800019F10E9491031E2D143008F013E011504E
:10079000B8F0E881F98128E0129FB0011124A50189
:1007A000940104C056954795379527956A95D2F7D9
:1007B000CA01B9010190F081E02DCE010995E7CF82
:1007C00060E0CE010E949B034D2D413208F040E2D3
:1007D0002C2D63ED73E08F2D0E9437041092D2030D
:1007E0008093D103DF91CF911F910F91FF90EF90F4
:1007F000DF90CF90BF90AF909F908F900895CF9251
:10080000EF920F931F93C22EE12C00E010E09801AD
:100810000E94AE031F910F91EF90CF90089521E0B9
:100820000C94FF0361E00C949B0381EA93E00C9429
:1008300077031092600481E080935E0410925D045F
:1008400061E082E00E94D92361E083E00E94D92325
:10085000E9EBF0E080818E7F808380818D7F8083D3
:1008600088E48093B80085E48093BC000895413209
:1008700008F043C0909160049111FCCF91E09093F7
:10088000600420935E042FEF2093F303109238044A
:10089000240F2093370490935F0490915F04880F96
:1008A000892B80935F0480915D04813061F4109204
:1008B0005D0480915F048093BB008091BC0083FD48
:1008C000F8CF85EC01C085EE8093BC008091600478
:1008D0008130E1F380913804841710F4409138049A
:1008E00029E334E0FB01D9018A2F821B841718F415
:1008F0008D918193F9CF842F089580E008950F930F
:10090000413208F04AC0909160049111FCCF92E00E
:100910009093600400935E049FEF9093F303109212
:10092000380440933704FB0169E374E0DB019A2F3C
:10093000961B941718F491919D93F9CF10925F0430
:1009400090915F04880F892B80935F0480915D04F0
:10095000813061F410925D0480915F048093BB004C
:100960008091BC0083FDF8CF85EC01C085EE8093BB
:10097000BC00222321F0809160048230E1F3809159
:10098000F3038F3F61F08091F303803251F0809147
:10099000F303803341F483E007C081E005C080E0C9
:1009A00003C082E001C084E00F910895613298F4A1
:1009B00020916004243089F460931504FC0187E1E0
:1009C00094E0DC012A2F281B261718F421912D937F
:1009D000F9CF80E0089581E0089582E0089585EDE3
:1009E0008093BC008091BC0084FDFCCF1092600419
:1009F000089585EC8093BC001092600408951F92C6
:100A00000F920FB60F9211242F933F934F935F9342
:100A10006F937F938F939F93AF93BF93EF93FF93C6
:100A20008091B900887F803609F49EC078F58832BD
:100A300009F45DC090F4803109F456C038F488237D
:100A400009F4F5C0883009F44FC0F5C0883109F4C5
:100A50004EC0803209F45FC0EEC0803409F46AC031
:100A600058F4803309F457C0883309F0E4C0809308
:100A7000F3030E94F904DFC0803509F44FC08835C4
:100A800009F45DC0883409F0D6C0D3C0883909F4B0
:100A9000C4C0A8F4883709F467C038F4883609F46C
:100AA00063C0803709F460C0C6C0883809F4B5C097
:100AB000803909F45FC0803809F0BDC05BC0803B5D
:100AC00009F483C038F4803A09F466C0883A09F41E
:100AD0007CC0B1C0803C09F4A4C0883C09F4A1C02A
:100AE000883B09F487C0A7C080915F0410C0909133
:100AF000380480913704981770F5E091380481E04C
:100B00008E0F80933804F0E0E75CFB4F8081809388
:100B1000BB0085EC83C08093F3038BC0E091380465
:100B200081E08E0F809338048091BB00F0E0E75C99
:100B3000FB4F808390913804809137046BC0E09123
:100B4000380481E08E0F809338048091BB00F0E080
:100B5000E75CFB4F808380915E0481116AC081E075
:100B600080935D0484EA5EC083E080936004109209
:100B7000F403CFCF8091F403803208F04EC0E091AF
:100B8000F40381E08E0F8093F4038091BB00F0E0CA
:100B9000EB50FC4F8083BDCF0E94F9048091F40399
:100BA000803230F4E091F403F0E0EB50FC4F10821F
:100BB0006091F40370E0E0915904F0915A0485EFDC
:100BC00093E009951092F40336C084E080936004AA
:100BD0001092160410921504E0915B04F0915C04ED
:100BE000099580911504811105C081E08093150459
:100BF00010921704E091160481E08E0F8093160482
:100C0000F0E0E95EFB4F80818093BB009091160479
:100C100080911504981708F47CCF85E88093BC0078
:100C20000AC085EC8093BC001092600404C010924E
:100C3000F3030E94EF04FF91EF91BF91AF919F9159
:100C40008F917F916F915F914F913F912F910F9075
:100C50000FBE0F901F9018950F931F93CF93DF93A4
:100C6000EC01662359F00E94DD2269837A838B832D
:100C70009C83DF91CF911F910F9108950E94DD22F7
:100C800009811A812B813C81601B710B820B930BB4
:100C9000643671058105910530F763E070E080E00E
:100CA00090E00E940C23EACF60E00C942C06CF92D7
:100CB000DF92EF92FF920F931F93CF93DF9300D0B9
:100CC00000D0CDB7DEB78C017B01FC0172AB61AB0C
:100CD0008BE1C82ED12CC70129833A834B835C83D7
:100CE0000E94082529813A814B815C81811113C0C2
:100CF000F1E0CF1AD10879F064E670E080E090E08E
:100D000029833A834B835C830E940C235C814B8153
:100D10003A812981E0CFBA01A901F80181A992A9FC
:100D20000F900F900F900F90DF91CF911F910F9127
:100D3000FF90EF90DF90CF900C940225FC0113AA56
:100D400014AA15AA16AA11821282138214824115BE
:100D500051056105710521F0CB01BA010C940C23FA
:100D600008951F93CF93DF93EC01162F6DE571E08B
:100D700089A99AA90E945E254AE050E0612F89A9BD
:100D80009AA90E940D2664E671E089A99AA90E9499
:100D90005E2562E370E080E090E0DF91CF911F91EB
:100DA0000C940C231F93CF93DF93EC01162F8D81AE
:100DB000882389F189A99AA9DC01ED91FC9104802D
:100DC000F581E02D0995892BA9F307C02637310558
:100DD00019F12835310509F41D8289A99AA9DC0188
:100DE000ED91FC910480F581E02D09951816190606
:100DF00094F489A99AA9DC01ED91FC910680F78110
:100E0000E02D09959C01332723363105F9F6612F32
:100E1000CE010E94B10683E6DF91CF911F91089524
:100E20000F931F93CF93DF931F92CDB7DEB78C0143
:100E3000662349F081E0F801858360E0C8014983B9
:100E40000E94D2064981F80145830F90DF91CF912E
:100E50001F910F910895FC0183E090E090878783B4
:100E60001386128614860895EF92FF921F93CF93F4
:100E7000DF931F92CDB7DEB77C01162FFC01618591
:100E800081EA93E049830E949103612F81EA93E014
:100E90000E9448034981642F81EA93E00E9448033D
:100EA00081EA93E00E941204F70186830F90DF919C
:100EB000CF911F91FF90EF900895CF93DF93EC01B6
:100EC0008F819885029729F440E069E3CE010E9462
:100ED000340740E063E2CE010E9434074FE660E24F
:100EE000CE01DF91CF910C9434079F92AF92BF92C5
:100EF000CF92DF92EF92FF920F931F93CF93DF93E6
:100F0000EC01698581EA93E00E949103E091A103DD
:100F1000F091A2030190F081E02D68EA81EA93E06C
:100F2000099581EA93E00E94120446E0698581EA0E
:100F300093E00E940F040E94DD227B0181EA93E08E
:100F40000E94F002069784F48A859B85892BB1F371
:100F50000E94DD226E197F098A859B858617970777
:100F600068F781E08C872CC081EA93E00E94F80248
:100F7000A82E81EA93E00E94F802982E81EA93E07D
:100F80000E94F802E82E81EA93E00E94F802B82E4F
:100F900081EA93E00E94F802F82E81EA93E00E9431
:100FA000F802D92CC12CCA28D982C8821B2D00E096
:100FB0000E291B830A83982F88278F299D838C8372
:100FC000DF91CF911F910F91FF90EF90DF90CF9025
:100FD000BF90AF909F9008951F93CF93DF931F9280
:100FE000CDB7DEB7162F81EA93E049830E949103C3
:100FF0004981642F81EA93E00E94480381EA93E0EB
:101000000E941204811114C041E0612F81EA93E033
:101010000E940F0481EA93E00E94F002892B41F0C4
:1010200081EA93E00F90DF91CF911F910C94F80229
:101030008FEF9FEF0F90DF91CF911F910895EF9267
:10104000FF920F931F93CF93DF937C01EB018A01F3
:101050006330710521F04230510509F051C0CE01D5
:101060000197039758F50115110581F04FE050E005
:101070006BE6C7010E94EC078F3F2FEF920719F034
:1010800001E010E013C00130110551F04FE050E0D5
:101090006AE6C7010E94EC078F3FEFEF9E0721F43D
:1010A000C330D10569F027C000E010E0C330D1059E
:1010B00029F4873D9105F1F5C2E0D0E02097D9F4FD
:1010C0000115110561F04FE050E069E6C7010E948B
:1010D000EC07833D910589F10130110549F04FE09E
:1010E00050E068E6C7010E94EC07833D910541F19D
:1010F000C330D10519F00230110511F480E025C08C
:10110000F701D087C783209759F0D7FD11C02397E7
:101110007CF40130110511F48BE608C08AE606C0A4
:101120000130110511F489E601C088E6F7018187D5
:1011300081E00BC0C1E0D0E0C1CF01E010E002C00F
:1011400000E010E0C0E0D0E0D6CFDF91CF911F915A
:101150000F91FF90EF900895DC01ED91FC910190CB
:10116000F081E02D0994CF93DF93EC0186E0EFE26C
:10117000F1E0DE01529601900D928A95E1F786E04A
:10118000E5E3F1E0DE011C9601900D928A95E1F70E
:1011900084E090E09A8F898F1CA61BA61DA6DF9184
:1011A000CF910895EF92FF921F93CF93DF931F92F9
:1011B000CDB7DEB77C01162FFC01638D81EA93E089
:1011C00049830E949103612F81EA93E00E944803C2
:1011D0004981642F81EA93E00E94480381EA93E009
:1011E0000E941204F701808F0F90DF91CF911F9121
:1011F000FF90EF900895EF92FF921F93CF93DF93AC
:101200001F92CDB7DEB77C01162FFC01648D81EAF9
:1012100093E049830E949103612F81EA93E00E9449
:1012200048034981642F81EA93E00E94480381EAE0
:1012300093E00E941204F701808F0F90DF91CF910D
:101240001F91FF90EF900895FC01218D328D233086
:10125000310511F0603210F40C94FB080C94D208A4
:10126000CF93DF93EC01898D9A8D83309105D9F46A
:1012700040E061E2CE010E94240947E560E2CE0130
:101280000E94240944E664E2CE010E94240940E25F
:1012900065E2CE010E94240940E066E2CE01DF91C2
:1012A000CF910C942409029739F448E063E2CE010F
:1012B0000E94D20847E406C040E063E2CE010E94EB
:1012C000D20847E260E2CE010E94D2084CE060E022
:1012D000CE010E94FB0840E261E0CE010E94FB08C3
:1012E00040E062E0CE01DF91CF910C94FB089F9229
:1012F000AF92BF92CF92DF92EF92FF920F931F9324
:10130000CF93DF93EC016B8D81EA93E00E94910310
:1013100068EA70E081EA93E00E94AC0881EA93E019
:101320000E941204888F46E06B8D81EA93E00E9450
:101330000F040E94DD226B0181EA93E00E94F0021B
:10134000069784F48BA59CA5892BB1F30E94DD221E
:101350006C197D098BA59CA58617970768F781E016
:101360008DA72CC081EA93E00E94F802A82E81EAA2
:1013700093E00E94F802982E81EA93E00E94F8021E
:10138000C82E81EA93E00E94F802B82E81EA93E029
:101390000E94F802D82E81EA93E00E94F802F92C0C
:1013A000E12CEA28F982E8821B2D00E00C291B833E
:1013B0000A83982F88278D299D838C83DF91CF9175
:1013C0001F910F91FF90EF90DF90CF90BF90AF9063
:1013D0009F900895CF92DF92EF92FF920F931F9309
:1013E000CF93DF93EC016C8D81EA93E00E9491032F
:1013F000898D9A8D039721F469A17AA1606802C052
:101400006F8D78A181EA93E00E94AC0881EA93E0B5
:101410000E941204888F46E06C8D81EA93E00E945E
:101420000F040E94DD228B0181EA93E00E94F0020A
:10143000069784F48BA59CA5892BB1F30E94DD222D
:10144000601B710B8BA59CA58617970768F781E039
:101450008DA767C0898D9A8D0397F9F481EA93E08F
:101460000E94F802C82E81EA93E00E94F802D82E6A
:1014700081EA93E00E94F802E82E81EA93E00E945C
:10148000F802182F81EA93E00E94F802F82E81EA10
:1014900093E00E94F802082F35C081EA93E00E9491
:1014A000F802D82E81EA93E00E94F802C82E298D16
:1014B0003A8D81EA93E0232B99F40E94F802182FC9
:1014C00081EA93E00E94F802E82E81EA93E00E940C
:1014D000F802082F81EA93E00E94F802F82E12C069
:1014E0000E94F802082F81EA93E00E94F802F82E89
:1014F00081EA93E00E94F802182F81EA93E00E94AB
:10150000F802E82E6C2D70E07D297F836E834E2DCE
:1015100050E0512B598748872F2D30E0302B3B87E7
:101520002A87DF91CF911F910F91FF90EF90DF906D
:10153000CF900895CF93DF93EC010E947709CE01FD
:10154000DF91CF910C94EA091F93CF93DF931F9201
:10155000CDB7DEB7162F81EA93E049830E9491034D
:101560004981642F81EA93E00E94480381EA93E075
:101570000E941204811114C041E0612F81EA93E0BE
:101580000E940F0481EA93E00E94F002892B41F04F
:1015900081EA93E00F90DF91CF911F910C94F802B4
:1015A0008FEF9FEF0F90DF91CF911F910895EF92F2
:1015B000FF920F931F93CF93DF93EC018B017A017E
:1015C0006430710521F04230510509F055C0C80161
:1015D0000397029708F0CDC0E114F10471F04FE0D9
:1015E00050E06DE1CE010E94A40A8934910509F40E
:1015F000B8C081E0E816F10451F04FE050E06EE130
:10160000CE010E94A40A8934910509F4AEC00430C9
:10161000110509F0D0C0E114F10469F040E250E096
:1016200069E1CE010E94A40A019679F421E0E21654
:10163000F10409F4A3C040E250E068E1CE010E9449
:10164000A40A019609F0A4C099C00430110509F05C
:101650009BC04FE050E06EE1CE010E94A40AEE2450
:10166000E394F12CCC9709F0A9C002E010E082E0ED
:10167000E816F10409F486C01A8F098F01301105AC
:1016800069F124F4012B09F449C069C00230110545
:1016900041F10330110509F062C0EA94EF2811F41A
:1016A0008DE101C08EE18C8F8B8F88E090E09AA352
:1016B00089A389E090E098A38F8F8AE090E09EA3B1
:1016C0008DA38BE090E09CA38BA38CE090E09AA785
:1016D00089A78DE090E098A78FA341C0EA94EF28F6
:1016E00011F489E101C088E18B8F8EE18C8F83E05A
:1016F00090E098A38F8F84E090E09AA389A387E07D
:1017000090E09CA38BA388E090E09EA38DA385E04E
:1017100090E098A78FA386E090E01FC0EA94EF289E
:1017200011F489E101C088E18B8F8EE18C8F83E019
:1017300090E098A38F8F84E090E09AA389A385E03E
:1017400090E09CA38BA386E090E09EA38DA387E00E
:1017500090E098A78FA388E090E09AA789A781E0FE
:1017600030C0EE24E394F12C02C0E12CF12C03E014
:1017700010E00330110508F44ECF79CF0430110585
:1017800009F075CF80E01DC0EE24E394F12C6FCFFB
:101790000430110569F44FE050E06EE1CE010E9483
:1017A000A40A31E020E0CC9709F030E0032F122F9B
:1017B000E12CF12C5CCF03E010E059CF00E010E009
:1017C00056CFDF91CF911F910F91FF90EF90089529
:1017D00090919A04E0919E04F0919F04992311F056
:1017E000849101C080812FEB280F2A3110F4805E94
:1017F0000895803249F49F012F5F3F4F30939F043B
:1018000020939E04EF2B31F708951F93CF93DF931E
:101810000E94E80BC0E0D0E01AE090ED980F9A30FB
:10182000B8F49E01129FE001139FD00D1124C80F40
:10183000D11D87FDDA95E09780919E0490919F04D9
:10184000019690939F0480939E040E94E80BE5CF3D
:10185000CE01DF91CF911F910895109272001092E6
:10186000C00084E08093C10089E08093C20081E0E1
:101870008093C300EFEBF0E083E0808388EE8093F9
:10188000D10010821092D200579A789408952F9226
:101890003F924F925F926F927F928F929F92AF9200
:1018A000BF92CF92DF92EF92FF920F931F93CF934D
:1018B000DF93CDB7DEB727970FB6F894DEBF0FBE24
:1018C000CDBF7C011B014D838091A004811105C017
:1018D00081E08093A0040E942D0C10921101F7FE6C
:1018E00004C0E894F7F81AE001C011E088E2189FFC
:1018F000802D1124282F30E03F832E832E153F05A5
:1019000010F4FF82EE82113049F44E815F81413143
:10191000574220F0E0E1F7E2FF83EE83812E912C25
:10192000A12CB12C8E819F81969587959C0140E0DA
:1019300050E029833A834B835C834E815F812A0187
:10194000612C712CA501940160E072E18AE790E0BE
:101950000E94462F29813A814B815C81620F731F5F
:10196000841F951FA30192010E94982F69017A019B
:10197000EE24FF2400E00F5FC11434E0D306E1043D
:10198000F10408F120E032E14AE750E0002E04C003
:1019900055954795379527950A94D2F7C501B40117
:1019A0000E94462F29813A814B815C81620F731F0F
:1019B000841F951FA30192010E94982F69017A014B
:1019C000EE24FF24D8CF1A3049F48E819F810596EA
:1019D0006AE070E00E94622F7F836E834E815F8198
:1019E000483E83E0580759F09101DA010E94BD2F6B
:1019F00028EE33E040E050E00E94982F1901109249
:101A000072008091C100807F802B8093C100BB2732
:101A1000AF2D9E2D8D2D8093BF00C092D1002D81C2
:101A2000203108F02FE080E190E0821B910904C092
:101A3000F694E794D794C7948A95D2F78D2D992779
:101A40008093BF00C092D20030929D0420929C04EB
:101A500089B38FEF89BB84E08093720027960FB61D
:101A6000F894DEBF0FBECDBFDF91CF911F910F91D4
:101A7000FF90EF90DF90CF90BF90AF909F908F90AE
:101A80007F906F905F904F903F902F900895CF93ED
:101A9000DF93EB018F3F11F0411105C040E0BE0123
:101AA00088EE93E043C0813130F050EF580F50364C
:101AB00018F05FE501C050E0852F6CE00E94562FC2
:101AC000682F74EF760390011124250F311D2C30FF
:101AD000310540F4F901EE0FFF1FEB54FE4F20815A
:101AE000318102C020E030E0873081F0082E02C052
:101AF000220F331F0A94E2F7823028F0C9010596BD
:101B00006AE070E00CC0C90190580CC0C90136E011
:101B1000880F991F3A95E1F7029665E070E00E9400
:101B2000622FCB01403108F04FE0BE01DF91CF9131
:101B30000C94470C4F925F926F927F928F929F927C
:101B4000AF92BF92CF92DF92EF92FF920F931F93CB
:101B5000CF93DF9300D0CDB7DEB790901001809186
:101B60009904882321F060919804611117C07724AB
:101B70007394B0ECAB2EBDE5BB2E1AE0612E04E0F1
:101B8000802E80EDC82E87E0D82E94E0E92EF12C2F
:101B900004EF11E02FE0422E512C15C070E040E020
:101BA00088EE93E00E94470C1092980429C1863673
:101BB000D4F5813609F4A9C07CF58C3309F460C0F2
:101BC0008E3381F493940E94E80B20919E0430910F
:101BD0009F042F5F3F4F30939F0420939E048536D0
:101BE00031F752C0813209F08BC080921001D0923F
:101BF0000F01C0920E01F0920D01E0920C011093C2
:101C00000B0100930A0150920901409208011092C1
:101C10009904A4E09A2ED7CF8336A1F10CF478C0B2
:101C200010E082E077C08D36C1F194F4873691F1EF
:101C300074F18C3609F064C00E94050CBC019093CD
:101C40000D0180930C0180910E0190910F0151C004
:101C50008237C9F14CF48F3609F052C00E94050C4E
:101C6000982E80931001AFCF843781F1863709F029
:101C700047C00E94050C9093090180930801A3CFEF
:101C80009A94A1CF10E020C010E084E043C010E09F
:101C900085E040C010E087E03DC00E94E80B8C3634
:101CA00019F41092990404C0709299041092980447
:101CB00020919E0430919F042F5F3F4F30939F04EB
:101CC00020939E0480CF11E080E024C00E94050C88
:101CD000BC01C5010E94622F669EC001679E900DE7
:101CE000112490930F0180930E0160910C0170916B
:101CF0000D010E94622F70930B0160930A0163CF64
:101D000010929F0410929E047BC010E089E002C0F4
:101D100010E08BE0082F9CE0999E000D11240E949A
:101D2000E80B982F977F933261F420919E043091B5
:101D30009F042F5F3F4F30939F0420939E040F5FBB
:101D4000EECF8D3271F420919E0430919F042F5F6D
:101D50003F4F30939F0420939E0401500E94E80B54
:101D6000F0CF60910A0170910B018153883050F4DB
:101D7000E0900E01F0900F010E94050CBC01C7011C
:101D80000E94622F7B01F694E79469837A830E9414
:101D9000E80B69817A818E3269F420919E0430913A
:101DA0009F042F5F3F4F30939F0420939E046E0D3E
:101DB0007F1DE9CF80919904882339F09B013695E6
:101DC000279520939804621B710940910801112303
:101DD00011F08FEF01C0802F0F900F90DF91CF9106
:101DE0001F910F91FF90EF90DF90CF90BF90AF9039
:101DF0009F908F907F906F905F904F900C94470DC5
:101E00000F900F90DF91CF911F910F91FF90EF9066
:101E1000DF90CF90BF90AF909F908F907F906F900A
:101E20005F904F9008951F920F920FB60F9211245A
:101E30002F933F934F935F936F937F938F939F93D2
:101E4000AF93BF93EF93FF9380919C0490919D0477
:101E50009C012150310930939D0420939C04892BCF
:101E600011F51092720078948091C100807F846097
:101E70008093C10083E08093BF0088EE8093D100FF
:101E80001092BF001092D20081E0809311018091E6
:101E90009E0490919F04892B31F080919B048111C5
:101EA00002C00E949A0DFF91EF91BF91AF919F9157
:101EB0008F917F916F915F914F913F912F910F90F3
:101EC0000FBE0F901F901895FC011382128281EDB6
:101ED00091E091838083148208951F93CF93DF93C1
:101EE000EC01162F64600E94E70F1E83DF91CF91F3
:101EF0001F910895CF93DF93EC01E881F98104806D
:101F0000F581E02D099563E0CE010E94E30F8FE992
:101F100091E40197F1F700C0000063E0CE010E9458
:101F2000E30F87E592E00197F1F700C0000063E05E
:101F3000CE010E94E30F62E0CE010E94E30F68E24F
:101F4000CE010E94E70F60E0CE010E941910CE0181
:101F50000E94EB0F62E0CE010E946D0F64E0CE01A3
:101F6000DF91CF910C9419100F931F93CF93DF93B0
:101F700000D01F92CDB7DEB78C01DC0114968C9196
:101F8000149781110CC081E014968C93C8012B83A7
:101F90004A8369830E947A0F69814A812B81D80123
:101FA000ED91FC910680F781E02DC8010995B5EC13
:101FB000BA95F1F700000F900F900F90DF91CF913D
:101FC0001F910F91089521E040E00C94B40F20E0A0
:101FD00040E00C94B40F61E00E94E70F8FE39FE1B3
:101FE0000197F1F700C000000895CF93DF9300D070
:101FF00000D0CDB7DEB720E8298320EC2A8324E97E
:102000002B8324ED2C83443008F043E0FE01E40FE1
:10201000F11D2181260F622F0E94E70F85EC8A9522
:10202000F1F700000F900F900F900F90DF91CF917C
:1020300008951F93CF93DF93EC01162F68600E94E1
:10204000E70F1D83DF91CF911F91089520E041E0BC
:102050000C94B40F0E94261081E090E00895CF9276
:10206000DF92EF92FF920F931F93CF93DF937C0148
:102070008A01EB016B01C40ED51ECC15DD0529F0DC
:102080006991C7010E942610F8CFC801DF91CF9156
:102090001F910F91FF90EF90DF90CF9008954FB177
:1020A00041705CB156FB552750F954278091A80424
:1020B0006091A9042091A2043091A304852790E0A7
:1020C0006427861B9109820F931F9093A30480932A
:1020D000A2049091A9048091A804591729F04817E7
:1020E00019F081E08093A7045093A9044093A804B9
:1020F00008951F920F920FB60F9211242F933F93C2
:102100004F935F936F938F939F932CB130E03595EE
:10211000279535952795422F417083B190E054E083
:10212000959587955A95E1F782279327582F5170F7
:102130008091AA046091AB042091A4043091A5047D
:10214000852790E06427861B9109820F931F909347
:10215000A5048093A4049091AB048091AA0459171C
:1021600029F0481719F081E08093A7045093AB043D
:102170004093AA049F918F916F915F914F913F91EE
:102180002F910F900FBE0F901F90189524982C9AA6
:102190006A98729A6E98769A8098889A81E080936D
:1021A000680090E190936B008BBB41E050E06FE4DE
:1021B00070E184E00E9480218CB182FB882780F945
:1021C00081708093AA0493B18091AA049295917032
:1021D00089278093AB041092A5041092A404109256
:1021E000A7048FB181708093A8049CB18091A8044A
:1021F00096FB992790F989278093A9041092A3044C
:102200001092A2041092A60408958091A104811155
:1022100005C081E08093A1040C94C61008950E942B
:102220000511F8948091A4049091A5041092A5043E
:102230001092A404789408950E940511F894809156
:10224000A2049091A3041092A3041092A204789483
:1022500008959B0120573E4F2132334040F06037B4
:102260007E4F1CF060E971E002C060E77EEFFC0188
:10227000718F608F77FF05C071956195710981E05D
:1022800001C080E070938B0060938A009091AD0450
:10229000891711F02A9A01C02A98229A08959B0161
:1022A00020573E4F2132334040F060377E4F1CF0C4
:1022B00060E971E002C060E77EEFFC01738F628F1E
:1022C00077FF05C071956195710981E001C080E0DB
:1022D00070938900609388009091AC04891711F085
:1022E000299A01C02998219A08956093AD04089510
:1022F0006093AC0408955B98539A089560FF02C000
:102300002B9A01C02B98239A61FF02C0289A01C022
:102310002898209A62FF02C0479A01C047983F9AC6
:1023200063FF02C05D9A01C05D98559A5B9A539A0B
:1023300085E08A95F1F700005B98539A85E08A95CD
:10234000F1F700000895CF92DF92EF92FF920F9382
:102350001F93CF93DF9300D000D01F92CDB7DEB78D
:102360006C01162F0091E2001092E200F090E9005B
:102370001092E900E090F0001092F00030E05A99DD
:10238000316052993260398330E02B993160239962
:1023900032603A8330E028993160209932603B8383
:1023A00030E0479931603F9932603C8330E05D997D
:1023B0003160559932603D83442311F05A9A01C02F
:1023C0005A98529A21110AC0612F70E084E07595E5
:1023D00067958A95E1F7C6010E947E11612F6F70A3
:1023E000C6010E947E112D8121FB0EF0559820FB25
:1023F0000EF05D980EF45D9A21FB0EF4559A3C8127
:1024000031FB0EF03F9830FB0EF047980EF4479AE0
:1024100031FB0EF43F9A2B8121FB0EF0209820FB1C
:102420000EF028980EF4289A21FB0EF4209A3A8197
:1024300031FB0EF0239830FB0EF02B980EF42B9A04
:1024400031FB0EF4239A298121FB0EF0529820FBD8
:102450000EF05A980EF45A9A21FB0EF4529A1092EA
:10246000E900E092F000F092E9000093E2000F90A2
:102470000F900F900F900F90DF91CF911F910F91C0
:10248000FF90EF90DF90CF9008954F925F926F9200
:102490007F928F929F92AF92BF92CF92DF92EF92F4
:1024A000FF92CF93DF93EC010E940F119DA78CA7A1
:1024B0000E941C117C019FA78EA76CA57DA5882773
:1024C00077FD8095982F0E94552D9B01AC010E94AD
:1024D0001C2F882311F01DA61CA6B701882777FDA5
:1024E0008095982F0E94552D9B01AC010E941C2FB6
:1024F000882311F01FA61EA64C845D846E847F8401
:1025000088849984AA84BB846CA57DA5882777FDDF
:102510008095982F0E94552DA30192010E946E2E46
:10252000A50194010E94BA2C6B017C016CAB7DABC0
:102530008EAB9FAB6EA57FA5882777FD8095982FE2
:102540000E94552DA30192010E946E2EA5019401B7
:102550000E94BA2C68AF79AF8AAF9BAFA7019601F2
:102560000E94ED2B20E030E040E05FE30E946E2E01
:102570006CAF7DAF8EAF9FAFDF91CF91FF90EF90AB
:10258000DF90CF90BF90AF909F908F907F906F9093
:102590005F904F900895CF92DF92EF92FF920F934A
:1025A0001F93CF93DF93EC01CB01BA019B01AC01E8
:1025B0000E94ED2B9B01AC01688179818A819B810E
:1025C0000E94BA2C6B017C018E010C5A1F4F9B019B
:1025D000AC0160E070E080E89FE30E94EC2B20E01B
:1025E00030E040E251E40E946E2EF8016083718376
:1025F00082839383C05BDF4F20E030E040E85FE3FD
:10260000C701B6010E94ED2B20E030E040E251E42A
:102610000E946E2E688379838A839B83DF91CF919A
:102620001F910F91FF90EF90DF90CF900895EF9260
:10263000FF920F931F93CF93DF93EC017A018901EF
:10264000FB012081318142815381688D798D8A8D92
:102650009B8D0E94ED2B688F798F8A8F9B8FF7015E
:1026600020813181428153816C8D7D8D8E8D9F8D36
:102670000E94ED2B6C8F7D8F8E8F9F8FF8012081B4
:102680003181428153816C897D898E899F890E9425
:10269000ED2B6C8B7D8B8E8B9F8BDF91CF911F9160
:1026A0000F91FF90EF9008954F925F926F927F92FB
:1026B0008F929F92AF92BF92CF92DF92EF92FF9252
:1026C0000F931F93CF93DF93EC015B01FC01E85262
:1026D000FF4FC080D180E280F380C701B6010E9425
:1026E000B72C8E010C501F4FF501208131814281A2
:1026F00053810E946E2EF8012081318142815381E5
:102700000E94ED2B2B013C01FE01E851FF4F60833D
:10271000718382839383C701B6010E94D12E4E013B
:10272000F8EF8F0E911CF501208131814281538198
:102730000E946E2EF40120813181428153810E94DA
:10274000ED2BFE01E451FF4F6083718382839383FD
:102750003496C082D182E282F382F80140825182B3
:1027600062827382F4016083718382839383C45095
:10277000DF4FC882D982EA82FB82DF91CF911F911D
:102780000F91FF90EF90DF90CF90BF90AF909F9010
:102790008F907F906F905F904F9008950F931F934D
:1027A000CF93DF93EC018C0108571F4F29E732E2EA
:1027B00040E259E3F80160817181828193810E9436
:1027C0006E2EF80160837183828393830C5F1F4FA9
:1027D00029E732E240E259E3F801608171818281A8
:1027E00093810E946E2EF8016083718382839383AC
:1027F000C057DF4F29E732E240E259E3688179812F
:102800008A819B810E946E2E688379838A839B8351
:10281000DF91CF911F910F9108950F931F93CF9345
:10282000DF93EC018C0104551F4F21E43AED4FE793
:1028300058E3F80160817181828193810E946E2E3C
:10284000F80160837183828393830C5F1F4F21E4BF
:102850003AED4FE758E3F8016081718182819381FD
:102860000E946E2EF8016083718382839383CC541F
:10287000DF4F21E43AED4FE758E3688179818A819F
:102880009B810E946E2E688379838A839B83DF916C
:10289000CF911F910F9108952F923F924F925F9287
:1028A0006F927F928F929F92AF92BF92CF92DF9260
:1028B000EF92FF920F931F93CF93DF9300D000D03E
:1028C000CDB7DEB79C838B837C0120EFE21A2EEF1D
:1028D000F20AC7010E947507EB81FC81EC5EFE4F96
:1028E00060817181882777FD8095982F0E94552DF2
:1028F0004B015C01EB81FC81E05CFF4F408051802B
:1029000062807380A30192010E94632E0B811C815F
:1029100000571F4F87FF0AC0A30192015058C501FD
:10292000B4010E94B32C18160CF45CC0CB80DC8080
:1029300038E8C30ED11CF70160817181882777FDCB
:102940008095982F0E94552DEB81FC81E056FF4F1A
:1029500020813181428153810E94EC2BF6016083FA
:10296000718382839383EB80FC80FCE8EF0EF11C83
:10297000EB81FC81EE5EFE4F60817181882777FDDF
:102980008095982F0E94552DEB81FC81EC55FF4FCF
:1029900020813181428153810E94EC2BF7016083B9
:1029A000718382839383F80180819181A281B381B5
:1029B000EB81FC81E456FF4F80839183A283B38334
:1029C000EB81FC81E855FF4F2081318142815381A9
:1029D000C501B4010E94EC2BF801608371838283EE
:1029E000938305C0F80110821182128213820B8139
:1029F0001C81035E1E4FC8010E949A0AF801608183
:102A00007181882777FD8095982F0E94552D6B0145
:102A10007C012B803C80F4E42F0E311CF1014080BE
:102A2000518062807380E89477F8A3019201C3011A
:102A3000B2010E94ED2B9B01AC01C701B6010E94BF
:102A4000632E2B813C8124553F4F590187FF10C0D5
:102A500020E030E040E050ECC301B2010E946E2E55
:102A60009B01AC01C701B6010E94B32C181694F06B
:102A7000EB81FC81EC53FF4F2081318142815381F6
:102A8000C701B6010E94EC2BF5016083718382833C
:102A9000938305C0F5011082118212821382EB81AB
:102AA000FC81E15EFE4F60817181882777FD809512
:102AB000982F0E94552D6B017C018B809C80F8E43F
:102AC0008F0E911CF4014080518062807380E894E5
:102AD00077F8A3019201C301B2010E94ED2B9B0183
:102AE000AC01C701B6010E94632E0B811C81005509
:102AF0001F4F87FF10C020E030E040E050ECC301E2
:102B0000B2010E946E2E9B01AC01C701B6010E946A
:102B1000B32C181694F0EB81FC81E853FF4F208111
:102B2000318142815381C701B6010E94EC2BF8012B
:102B3000608371838283938305C0F80110821182C0
:102B400012821382EB81FC81EF5DFE4F6081718107
:102B5000882777FD8095982F0E94552D6B017C0169
:102B6000EB81FC81E45BFF4F408051806280738089
:102B7000A30192010E94632E2B813C812C543F4F74
:102B80003A83298387FF09C0A30192015058C701E6
:102B9000B6010E94B32C181694F0EB81FC81E4532B
:102BA000FF4F2081318142815381C701B6010E94CC
:102BB000EC2BE981FA8160837183828393838B811B
:102BC0009C810E940D148B819C810E94CE1381E612
:102BD00094E00E94540669ED71E080919204909116
:102BE00093040E945E2561EE71E0809192049091C1
:102BF00093040E945E25F5014081518162817381B9
:102C000022E030E080919204909193040E94FF268C
:102C100061EE71E080919204909193040E945E2590
:102C2000F801408151816281738122E030E080911E
:102C30009204909193040E94FF2661EE71E08091CE
:102C40009204909193040E945E25E981FA8140816B
:102C500051816281738122E030E0809192049091F1
:102C600093040E94FF2661EE71E08091920490919E
:102C700093040E945E25F10140815181628173813C
:102C800022E030E080919204909193040E94FF260C
:102C900061EE71E080919204909193040E945E2510
:102CA000F401408151816281738122E030E08091A2
:102CB0009204909193040E94FF2663EE71E080914C
:102CC0009204909193040E945E2565E070E080E09C
:102CD00090E00F900F900F900F90DF91CF911F9188
:102CE0000F91FF90EF90DF90CF90BF90AF909F90AB
:102CF0008F907F906F905F904F903F902F900C94AB
:102D00000C232F923F924F925F926F927F928F92FD
:102D10009F92AF92BF92CF92DF92EF92FF920F936A
:102D20001F93CF93DF93CDB7DEB72C970FB6F894F0
:102D3000DEBF0FBECDBF8C01FC01E05CFF4F1082F7
:102D400011821282138224EF31E03C872B87805F4F
:102D50009E4F9E838D83180198E8290E311CE45BF9
:102D6000FF4FFA83E98398012E5E3E4F38872F8309
:102D7000C80180579F4F9C838B83E857FF4FFA878A
:102D8000E9878D819E810E947507ED81FE816081BA
:102D90007181882777FD8095982F0E94552DF1012C
:102DA00020813181428153810E94ED2B2B013C0116
:102DB000F1016083718382839383EF81F885808141
:102DC0009181BC01882777FD8095982F0E94552D11
:102DD000E981FA8120813181428153810E94ED2B6A
:102DE0004B015C01E981FA81608371838283938363
:102DF000E985FA8580819181BC01882777FD8095DE
:102E0000982F0E94552DEB81FC81208131814281D8
:102E100053810E94ED2B6B017C01EB81FC8160836F
:102E20007183828393832B853C85215031093C87B4
:102E30002B87232B09F0A5CF180130EA230E311C74
:102E400020E030E04AEF53E4C301B2010E94BA2C03
:102E5000F10160837183828393833801F4EA6F0EFA
:102E6000711C20E030E04AEF53E4C501B4010E9438
:102E7000BA2CF30160837183828393835801F8EA4B
:102E8000AF0EB11C20E030E04AEF53E4C701B601B9
:102E90000E94BA2CF501608371838283938394EF3F
:102EA000292E3324339498012C5E3E4F3C832B8390
:102EB000B886AF82C801805C9F4F9A8789878D81D1
:102EC0009E810E947507EB81FC810190F081E02DCD
:102ED000FA83E983EF81F88580809180A280B380B6
:102EE00029813A81B901882777FD8095982F0E9422
:102EF000552DA50194010E94EC2B6B017C01E98505
:102F0000FA854080518062807380A30192010E9403
:102F1000632E18163CF4E985FA85C082D182E282DC
:102F2000F3821EC0A30192015058C701B6010E944E
:102F3000B32C87FF15C069817A81719561957109FC
:102F4000882777FD8095982F0E94552DA501940123
:102F50000E94EC2BE985FA856083718382839383D9
:102F6000F1E02F1A310809F0AACF20E030E04AEF53
:102F700053E4E985FA8560817181828193810E94A1
:102F8000BA2CE985FA856083718382839383F80183
:102F9000E857FF4F108211821282138234961082FA
:102FA000118212821382349610821182128213824D
:102FB0002C960FB6F894DEBF0FBECDBFDF91CF9138
:102FC0001F910F91FF90EF90DF90CF90BF90AF9047
:102FD0009F908F907F906F905F904F903F902F9039
:102FE00008952F923F924F925F926F927F928F92AD
:102FF0009F92AF92BF92CF92DF92EF92FF920F9388
:103000001F93CF93DF93CDB7DEB72C970FB6F8940D
:10301000DEBF0FBECDBF1C0124EF31E03C872B8704
:10302000835E9E4F9C838B83810104551F4FF1016A
:10303000E055FF4FFA83E9839101215E3E4F3887C7
:103040002F83895691099E838D83EF58FF4FFA870E
:10305000E9878B819C810E949A0AEB81FC816081C7
:103060007181882777FD8095982F0E94552DF80152
:1030700020813181428153810E94ED2B2B013C0143
:10308000F8016083718382839383EF81F885808167
:103090009181BC01882777FD8095982F0E94552D3E
:1030A000E981FA8120813181428153810E94ED2B97
:1030B0004B015C01E981FA81608371838283938390
:1030C000E985FA8580819181BC01882777FD80950B
:1030D000982F0E94552DED81FE8120813181428102
:1030E00053810E94ED2B6B017C01ED81FE81608399
:1030F0007183828393832B853C85215031093C87E2
:103100002B87232B09F0A5CFC1018C539F4F9887A4
:103110008F8320E030E04AEF53E4C301B2010E9404
:10312000BA2CEF81F8856083718382839383810158
:1031300008531F4F20E030E04AEF53E4C501B401CB
:103140000E94BA2CF80160837183828393830C5FA1
:103150001F4F20E030E04AEF53E4C701B6010E9460
:10316000BA2CF801608371838283938304EF11E0AA
:103170009101205F3E4F3E832D83C1018C5B9F4FA9
:103180009A8789878D819E810E947507EB81FC81DA
:103190000190F081E02DFA83E983EF81F88580804A
:1031A0009180A280B38029813A81B901882777FD77
:1031B0008095982F0E94552DA50194010E94EC2B1B
:1031C0006B017C01E985FA854080518062807380C3
:1031D000A30192010E94632E18163CF4E985FA853A
:1031E000C082D182E282F3821EC0A30192015058B4
:1031F000C701B6010E94B32C87FF15C069817A818F
:10320000719561957109882777FD8095982F0E94A7
:10321000552DA50194010E94EC2BE985FA85608368
:103220007183828393830150110909F0ABCF04EFBE
:1032300011E09101215E3E4F3C832B83C1018853F5
:103240009F4F9A838983F101E85BFF4FF887EF83F3
:103250008D819E810E947507EB81FC8120803180E9
:10326000E981FA8180809180A280B380B1018827B2
:1032700077FD8095982F0E94552DA50194010E94FD
:10328000EC2B6B017C01EF81F885408051806280DE
:103290007380A30192010E94632E18163CF4EF8103
:1032A000F885C082D182E282F3821DC0A30192011F
:1032B0005058C701B6010E94B32C87FF14C066277F
:1032C000772762197309882777FD8095982F0E94C8
:1032D000552DA50194010E94EC2BEF81F8856083A8
:1032E0007183828393830150110909F0B1CF2C9629
:1032F0000FB6F894DEBF0FBECDBFDF91CF911F9107
:103300000F91FF90EF90DF90CF90BF90AF909F9084
:103310008F907F906F905F904F903F902F90089587
:103320000F931F93CF93DF93EC01FC01E559FE4F00
:1033300010821182128213823497108211821282BB
:1033400013821DA61CA61FA61EA61CA21DA21EA29D
:103350001FA218A619A61AA61BA61C8E1D8E1E8EAD
:103360001F8E188E198E1A8E1B8E1C8A1D8A1E8A1D
:103370001F8AE759F1091082118212821382349652
:10338000108211821282138234961082118212826C
:103390001382349610821182128213823496108224
:1033A0001182128213823496108211821282138249
:1033B0003496108211821282138234961082118206
:1033C00012821382349610821182128213823496F2
:1033D000108211821282138234961082118212821C
:1033E000138234961082118212821382E457F109FB
:1033F00010821182128213823496108211821282FC
:1034000013823496108211821282138234961082B3
:1034100011821282138234961082118212821382D8
:103420003496108211821282138270961082118259
:103430001282138234961082118212821382349681
:1034400010821182128213823496108211821282AB
:103450001382349610821182128213823496108263
:1034600011821282138219AA18AA1BAA1AAA81EA27
:1034700093E00E94870380912906811107C081E0B3
:103480008093290685E296E00E947A0F8091A1043C
:10349000811105C081E08093A1040E94C6108E01B5
:1034A000005F1E4F42E050E063E070E0C8010E9400
:1034B0001F08C8010E945D07035F1F4F42E050E0F4
:1034C00064E070E0C8010E94D70AC8010E94300978
:1034D000CE010E948116CE010E94F1170E940F11A9
:1034E000DF91CF911F910F910C941C114F925F921D
:1034F0006F927F928F929F92AF92BF92CF92DF9204
:10350000EF92FF920F931F93CF93DF93EC0128016B
:103510003901FC01E055FF4F80809180A280B3808B
:103520002DEC3CEC4CE45DE3C501B4010E94632E3C
:10353000C455DF4F181664F02DEC3CEC4CE45DE311
:10354000688179818A819B810E94632E18165CF4C0
:10355000288139814A815B81C501B4010E94602CB8
:103560004B015C0103C0812C912C540128E431EE05
:103570004AE75FE3C301B2010E946E2E2B013C01BA
:1035800020E037ED43EA5CE3C501B4010E946E2EF2
:103590009B01AC01C301B2010E94ED2B2B013C0148
:1035A00081E694E00E9454066CEE71E080919204F2
:1035B000909193040E945E2561EE71E080919204E7
:1035C000909193040E945E2522E030E0B301A201B5
:1035D00080919204909193040E94FF2661EE71E025
:1035E00080919204909193040E945E2522E030E045
:1035F000B501A40180919204909193040E94FF264A
:1036000063EE71E080919204909193040E945E2594
:1036100065E070E080E090E00E940C232DEC3CEC33
:103620004CEC5DE3C301B2010E946E2E4B015C01C4
:1036300026E636E646E65FE3C701B6010E946E2E37
:103640009B01AC01C501B4010E94ED2BDF91CF912C
:103650001F910F91FF90EF90DF90CF90BF90AF90B0
:103660009F908F907F906F905F904F9008952F92D2
:103670003F924F925F926F927F928F929F92AF9202
:10368000BF92CF92DF92EF92FF920F931F93CF934F
:10369000DF9300D000D000D0CDB7DEB79E838D83FE
:1036A0007A836983F901FC82EB825C0188EDA80EC4
:1036B000B11CD5014D905D906D907C90AD81BE8127
:1036C000AC51BF4F4D925D926D927C921397DA018F
:1036D0002D913D914D915C916081718182819381A9
:1036E0000E94EC2BED81FE8120813181428153814A
:1036F0000E94BA2C6B017C01D8012D913D914D9116
:103700005C910E94ED2B20E030E040E05FE30E94FE
:103710006E2E60931D0670931E0680931F06909375
:1037200020068D809E80B0ED8B0E911C2D803E80FA
:10373000ECED2E0E311CA981BA812D913D914D9158
:103740005C91F10160817181828193810E94ED2BF6
:10375000D4016D937D938D939C931397ED81FE819E
:10376000EC52FF4FFA83E983108211821282138296
:10377000F8010081118122813381AB81BC814D919F
:103780005D916D917C918D819E810E94761A9B0145
:10379000AC01C301B2010E94ED2B6B017C012BED4A
:1037A0003FE049EC50E40E94632E18164CF42BEDD8
:1037B0003FE049EC50E4C701B6010E94EC2B18C071
:1037C00020E030E0A901C701B6010E94B32C87FDBB
:1037D00007C0D501CD92DD92ED92FC9213970DC0FA
:1037E0002BED3FE049EC50E4C701B6010E94ED2B00
:1037F000F5016083718382839383F40180819181D9
:10380000A281B381F10180839183A283B3832D814F
:103810003E8120523F4FE981FA8180819181A281CE
:10382000B381F90180839183A283B38326960FB677
:10383000F894DEBF0FBECDBFDF91CF911F910F91E6
:10384000FF90EF90DF90CF90BF90AF909F908F90C0
:103850007F906F905F904F903F902F900895AF9220
:10386000BF92CF92DF92EF92FF920F931F93A1141A
:10387000B10439F0AA94AB28A9F4FC01EC59FF4F2C
:1038800003C0FC01E85AFF4F408351836283738376
:10389000349600831183228333833496C082D1828D
:1038A000E282F3821F910F91FF90EF90DF90CF9013
:1038B000BF90AF9008954F925F926F927F928F92D8
:1038C0009F92AF92BF92CF92DF92EF92FF920F93AF
:1038D0001F93CF93DF93EC018B017A01F901608193
:1038E0007181828193810E94532D4B015C0120E004
:1038F00030E04AE754E4F70160817181828193816D
:103900000E946E2EA50194010E94BA2C6B017C01CD
:10391000FE01EC5FFE4F608371838283938320E01E
:1039200030E04AE754E4F80160817181828193813B
:103930000E946E2EA50194010E94BA2C4B015C01DD
:10394000FE01F39560837183828393838E01085F08
:103950001E4F9B01AC01C701B6010E94ED2B20E078
:1039600030E040E05FE30E946E2EF80160837183D7
:10397000828393830C5F1F4F288139814A815B8149
:1039800060E070E080E89FE30E94BA2C2B013C01CC
:10399000A5019401C701B6010E94EC2B9B01AC016B
:1039A000C301B2010E946E2EF8016083718382838D
:1039B0009383DF91CF911F910F91FF90EF90DF9054
:1039C000CF90BF90AF909F908F907F906F905F90BF
:1039D0004F9008952F923F924F925F926F927F92F5
:1039E0008F929F92AF92BF92CF92DF92EF92FF920F
:1039F0000F931F93CF93DF93EC010E94DD227E0192
:103A000029E9E21A2EEFF20A1E01E5E92E1AEEEF7D
:103A10003E0AF10180809180A280B3806819790903
:103A20008A099B09F7016083718382839383CE01A6
:103A30000E9445125E01F8E3AF0EB11C6E0124E353
:103A4000C20ED11C9701A501B601CE010E945B1CDC
:103A50004E018CE3880E911C9401A501B601CE01A4
:103A60000E941713CE010E944C14FE01E456FF4F32
:103A7000DE01A057BF4F2D913D914D915C9160812A
:103A80007181828193810E94ED2B2B013C01F70112
:103A900060817181828193810E94532D9B01AC01D1
:103AA000C301B2010E946E2E20E030E04AEF54E4E0
:103AB0000E94BA2C609321067093220680932306FD
:103AC0009093240601E216E09501A601B401CE010F
:103AD0000E94371B9501A601B401CE010E94541328
:103AE00040E060E085E296E00E94F50F64EF71E04F
:103AF00085E296E00E945E2540E062E085E296E085
:103B00000E94F50FFE01E851FF4F40815181628113
:103B1000738122E030E085E296E00E94FF2641E0DA
:103B200060E085E296E00E94F50F67EF71E085E2C4
:103B300096E00E945E2541E062E085E296E00E9408
:103B4000F50FC451DF4F488159816A817B8122E0A2
:103B500030E085E296E00E94FF260E94DD22F1011E
:103B60006083718382839383DF91CF911F910F9143
:103B7000FF90EF90DF90CF90BF90AF909F908F908D
:103B80007F906F905F904F903F902F9008954F924D
:103B90005F926F927F92AF92BF92CF92DF92EF923D
:103BA000FF920F931F93CF93DF93EC016A017B0188
:103BB0002BED3FE049EC50E4C701B6010E94632EB3
:103BC00018164CF42BED3FE049EC50E4C701B60168
:103BD0000E94EC2B11C020E030E0A901C701B60122
:103BE0000E94B32C87FF0AC02BED3FE049EC50E464
:103BF000C701B6010E94ED2B6B017C0181E694E0C8
:103C00000E9454066AEF71E08091920490919304AF
:103C10000E945E2561EE71E0809192049091930480
:103C20000E945E2522E030E0B701A6018091920457
:103C3000909193040E94FF2663EE71E080919204BC
:103C4000909193040E945E2565E070E080E090E032
:103C50000E940C2385E296E00E94EB0F8E0100513A
:103C60001F4F5E0185EBA81A8EEFB80AF80140805D
:103C70005180628073802AE037ED43EA5DE3C7013B
:103C8000B6010E94ED2B9B01AC01C301B2010E9461
:103C9000632E18160CF540E060E085E296E00E9485
:103CA000F50FF801408151816281738122E030E09B
:103CB00085E296E00E94FF2663ED7FEFC5010E943A
:103CC0004F116DE270E0C5010E94291161E070E0C2
:103CD000CE010E94EA1CCACF2AE037ED43EA5DE339
:103CE000C701B6010E94EC2B9B01AC01C301B201DC
:103CF0000E94B32C87FDCFCFCE01DF91CF911F91D2
:103D00000F91FF90EF90DF90CF90BF90AF907F909A
:103D10006F905F904F900C9437012F923F924F928B
:103D20005F926F927F928F929F92AF92BF92CF924B
:103D3000DF92EF92FF920F931F93CF93DF93CDB754
:103D4000DEB76A970FB6F894DEBF0FBECDBF4C0149
:103D5000C982DA82EB82FC820D831E832F8338872F
:103D600089819A81AB81BC81898B9A8BAB8BBC8B0F
:103D70008D819E81AF81B8858D8B9E8BAF8BB88FE7
:103D8000A114B10409F0A7C18401055B1E4F6BE4C7
:103D900070E0C8010E9429116BE470E0C8010E9424
:103DA0004F1161E070E0C4010E94EA1C540198EEDA
:103DB000A90EB11CD5012D913D914D915C91698960
:103DC0007A898B899C890E94EC2B6D877E878F87EF
:103DD000988B1401BCEE2B0E311CF1012081318136
:103DE000428153816D897E898F89988D0E94EC2B49
:103DF0002B013C012D853E854F855889CA01B901AB
:103E00000E946E2E9B01AC0160E070E0CB010E942D
:103E1000ED2B6B017C01A3019201C301B2010E9451
:103E20006E2E9B01AC01C701B6010E94ED2B0E94D2
:103E3000DB2E6B017C012D853E854F855889C301A2
:103E4000B2010E94602CAB01BC01C4010E94C71DDD
:103E500080E090E0A6E9B2E4F40180A791A7A2A7D0
:103E6000B3A784A395A3A6A3B7A3C40180579F4F6C
:103E70009A8F898F20E030E040E250E4C701B6011C
:103E80000E94632E87FD0CC1D40198966D917D919F
:103E90008D919C919B970E94222DC8010E9429110F
:103EA000F40160A571A582A593A50E94222DC801E9
:103EB0000E944F1161E070E0C4010E94EA1CD4012D
:103EC0009C962D913C919D979E968D919C919F974C
:103ED000281739071CF520E030E040E85FE39896AA
:103EE0006D917D918D919C919B970E94ED2BF4019A
:103EF00060A771A782A793A720E030E040E85FE3C6
:103F000064A175A186A197A10E94EC2BD40194967F
:103F10006D937D938D939C93979726C082179307FB
:103F20001CF520E030E040E85FE3F40164A175A1F6
:103F300086A197A10E94ED2BD40194966D937D9359
:103F40008D939C93979720E030E040E85FE398964C
:103F50006D917D918D919C919B970E94EC2BF4012A
:103F600060A771A782A793A7D5012D913D914D918F
:103F70005C9169897A898B899C890E94EC2B6D8779
:103F80007E878F87988BF101208131814281538117
:103F90006D897E898F89988D0E94EC2B2B013C01C5
:103FA0002D853E854F855889CA01B9010E946E2E24
:103FB0009B01AC01C701B6010E94ED2B6B017C0196
:103FC000A3019201C301B2010E946E2E9B01AC01BC
:103FD000C701B6010E94ED2B0E94DB2E6B017C0114
:103FE000A98DBA8D4D905D906D907C9020E030E071
:103FF000A901C301B2010E94632E181624F520E026
:1040000030E040E85FE3F40160A571A582A593A5C7
:104010000E94ED2BD40198966D937D938D939C9384
:104020009B9720E030E040E85FE394966D917D91AE
:104030008D919C9197970E94EC2BF40164A375A33A
:1040400086A397A317CF20E030E0A901C301B201F6
:104050000E94B32C87FF0ECF20E030E040E85FE302
:10406000D40198966D917D918D919C919B970E9422
:10407000EC2BF40160A771A782A793A720E030E0A2
:1040800040E85FE364A175A186A197A10E94ED2B92
:10409000D40194966D937D938D939C939797EACEDC
:1040A000C4016A960FB6F894DEBF0FBECDBFDF9194
:1040B000CF911F910F91FF90EF90DF90CF90BF9025
:1040C000AF909F908F907F906F905F904F903F90B8
:1040D0002F900C943701AA94AB2809F08CC085E28C
:1040E00096E00E94EB0F40E050E060E371E4C40111
:1040F0000E94CB12F401EC5AFF4F208131814281A2
:104100005381349760817181828193810E94BA2C9E
:1041100000E010E026E932E4F40104A315A326A38D
:1041200037A3A90198010E946E2ED40198966D9331
:104130007D938D939C939B9785E296E00E94EB0F75
:10414000840100511F4F5401B5EBAB1ABEEFBB0AFF
:10415000D801CD90DD90ED90FC9021E436E74FE45E
:1041600050E4C701B6010E94632E87FD39C026E6E0
:1041700036E646EA5FE3F40160A571A582A593A542
:104180000E946E2E0E94222DC5010E94291126E652
:1041900036E646E65FE3D40194966D917D918D916C
:1041A0009C9197970E946E2E0E94222DC5010E941D
:1041B0004F1161E070E0C4010E94EA1C40E060E041
:1041C00085E296E00E94F50FF801408151816281FD
:1041D000738122E030E085E296E00E94FF26B8CFAE
:1041E0002BED3FE049E450E4C701B6010E94B32C37
:1041F00018160CF0BCCF6A960FB6F894DEBF0FBE4F
:10420000CDBFDF91CF911F910F91FF90EF90DF9085
:10421000CF90BF90AF909F908F907F906F905F9066
:104220004F903F902F90089585E296E00E94640F92
:1042300086E092E0909326068093250689EC96E727
:10424000A6E5B0E48093AE049093AF04A093B004CD
:10425000B093B10480E695EEA0E3BFE38093B2048F
:104260009093B304A093B404B093B50484E19EE6A4
:10427000A3E6B4E48093B6049093B704A093B80483
:10428000B093B9048DE09FEEAAE8B0E48093BA043D
:104290009093BB04A093BC04B093BD0480E090E075
:1042A000A0E8BFE38093BE049093BF04A093C00432
:1042B000B093C1048EEB95E00E942B078BEC95E048
:1042C0000E94B3082998219A2D98259A2A98229A13
:1042D0002E98269A80EA8093800081E18093810065
:1042E00080E991E090938700809386001092890086
:1042F0001092880010928B0010928A000895089501
:10430000853008F04CC0E82FF0E0EE0FFF1FEE5EA6
:10431000FE4F718360838230E1F018F4813069F0E0
:1043200004C0833019F1843071F1809169008C7F71
:10433000842B80936900E89A089580916900440F66
:10434000551F440F551F837F842B80936900E99A82
:1043500008958091690034E0440F551F3A95E1F7C4
:104360008F7C842B80936900EA9A0895809169007C
:1043700026E0440F551F2A95E1F78F73842B809315
:104380006900EB9A089580916A0094E0440F551FEC
:104390009A95E1F78F7C842B80936A00EE9A0895BA
:1043A0001F920F920FB60F9211242F933F934F93AA
:1043B0005F936F937F938F939F93AF93BF93EF938D
:1043C000FF93E0911201F09113010995FF91EF9194
:1043D000BF91AF919F918F917F916F915F914F911D
:1043E0003F912F910F900FBE0F901F9018951F9225
:1043F0000F920FB60F9211242F933F934F935F9319
:104400006F937F938F939F93AF93BF93EF93FF939C
:10441000E0911401F09115010995FF91EF91BF9181
:10442000AF919F918F917F916F915F914F913F914C
:104430002F910F900FBE0F901F9018951F920F9203
:104440000FB60F9211242F933F934F935F936F9367
:104450007F938F939F93AF93BF93EF93FF93E091DD
:104460001601F09117010995FF91EF91BF91AF915E
:104470009F918F917F916F915F914F913F912F917C
:104480000F900FBE0F901F9018951F920F920FB6AE
:104490000F9211242F933F934F935F936F937F93CA
:1044A0008F939F93AF93BF93EF93FF93E091180186
:1044B000F09119010995FF91EF91BF91AF919F91F3
:1044C0008F917F916F915F914F913F912F910F90BD
:1044D0000FBE0F901F9018951F920F920FB60F925C
:1044E00011242F933F934F935F936F937F938F93F9
:1044F0009F93AF93BF93EF93FF93E0911A01F091D5
:104500001B010995FF91EF91BF91AF919F918F9101
:104510007F916F915F914F913F912F910F900FBEBF
:104520000F901F9018951F920F920FB60F921124A3
:104530002F933F938F939F93AF93BF9380912D06BB
:1045400090912E06A0912F06B091300630912C0646
:1045500023E0230F2D3720F40196A11DB11D05C0C6
:1045600026E8230F0296A11DB11D20932C068093EF
:104570002D0690932E06A0932F06B09330068091BF
:10458000310690913206A0913306B091340601961F
:10459000A11DB11D8093310690933206A09333067E
:1045A000B0933406BF91AF919F918F913F912F911E
:1045B0000F900FBE0F901F9018952FB7F894609131
:1045C0002D0670912E0680912F06909130062FBFF8
:1045D00008953FB7F8948091310690913206A091EA
:1045E0003306B091340626B5A89B05C02F3F19F0BD
:1045F0000196A11DB11D3FBF6627782F892F9A2FE5
:10460000620F711D811D911D42E0660F771F881F8B
:10461000991F4A95D1F708958F929F92AF92BF92BA
:10462000CF92DF92EF92FF926B017C010E94E92210
:104630004B015C01C114D104E104F104F1F00E94CA
:10464000502B0E94E922681979098A099B09683E62
:1046500073408105910570F321E0C21AD108E10889
:10466000F10888EE880E83E0981EA11CB11CC114CD
:10467000D104E104F10429F7DDCFFF90EF90DF9042
:10468000CF90BF90AF909F908F900895789484B50D
:10469000826084BD84B5816084BD85B5826085BD3E
:1046A00085B5816085BDEEE6F0E080818160808324
:1046B000E1E8F0E010828081826080838081816007
:1046C0008083E0E8F0E0808181608083E1E9F0E0D0
:1046D000808182608083808181608083E0E9F0E076
:1046E000808181608083E1ECF0E080818460808360
:1046F000808182608083808181608083E3ECF0E050
:10470000808181608083E0ECF0E080818260808342
:10471000E2ECF0E0808181608083EAE7F0E0808174
:1047200084608083808182608083808181608083D7
:10473000808180688083089590E0FC013197EF309C
:10474000F105B0F5EA5AFF4F0C94B72F8091800025
:104750008F7703C0809180008F7D809380000895C3
:1047600080918000877FF9CF84B58F7702C084B5B0
:104770008F7D84BD0895809190008F7707C08091D0
:1047800090008F7D03C080919000877F8093900080
:1047900008958091C0008F7703C08091C0008F7D05
:1047A0008093C00008958091C200877F8093C200EB
:1047B00008950F931F93CF93DF931F92CDB7DEB76A
:1047C000282F30E0F901EA5EFE4F8491F901EB5C9D
:1047D000FE4F1491F901EC5AFE4F04910023C9F0E9
:1047E000882321F069830E949C236981E02FF0E0F7
:1047F000EE0FFF1FED58FE4FA591B4919FB7F894AF
:104800008C91611103C01095812301C0812B8C9381
:104810009FBF0F90DF91CF911F910F9108950E943C
:10482000D72FCF93DF931F92CDB7DEB76983DC011B
:10483000ED91FC910280F381E02D41E050E0BE015A
:104840006F5F7F4F09950F90DF91CF910895CF93C0
:10485000DF93EC018C859D8597FF05C082E00E9467
:1048600012289D878C878C859D85DF91CF91089537
:1048700083E00C94A62AFC018485958597FD06C0EB
:1048800082E00E94BA2790E00196089582E00E949B
:10489000BA2790E00895FC018485958597FD05C0B1
:1048A0002FEF3FEF35872487089582E00C9412287C
:1048B000CF93DF93EC0180912701882331F083E0CF
:1048C0000E9443281816190634F081E090E09B837B
:1048D0008A8380E090E0DF91CF910895FC012081F0
:1048E0002E5F208342E450E061E871E080E80C94A0
:1048F000DE28FC0121818081813A59F4213209F0BE
:104900004BC047E050E060E271E080E00E94DE28AA
:104910005EC0813209F040C0233289F4838190E087
:10492000982F88273281832BA0E0B0E080931C0170
:1049300090931D01A0931E01B0931F010FC0203260
:1049400039F467E070E080E291E00E940F2909C02D
:10495000223221F482818093270103C02D7F2032EF
:10496000B1F580918506811103C0E0E0F8E002C056
:10497000EEEFFAE08091200190912101A0912201B7
:10498000B0912301803B9440A105B10511F58091C0
:10499000270180FF03C01DC080E00895EE3F2AE09C
:1049A000F20731F0808191819093FF0A8093FE0A93
:1049B00087E797E7918380832BE088E190E00FB64B
:1049C000F894A895809360000FBE2093600081E06A
:1049D000089588E10FB6F89480936000109260000B
:1049E0000FBEA895EE3F8AE0F80739F08091FE0AE5
:1049F0009091FF0A91838083EACF1092FF0A109270
:104A0000FE0AE5CF2FEF3FEFFC013587248708959D
:104A1000CF93C09127016AE070E080E090E00E94AF
:104A20000C2381E0C11101C080E0CF910895109264
:104A300038061092370688EE93E0A0E0B0E080934D
:104A4000390690933A06A0933B06B0933C0682E168
:104A500092E090933606809335068FEF9FEF909308
:104A6000420680934106089508950E9446230E94BD
:104A7000342586E896E00E94332B0E944801C0E06E
:104A8000D0E00E94DE012097E1F30E940000F9CF00
:104A90006115710581F0DB010D900020E9F7AD0192
:104AA00041505109461B570BDC01ED91FC910280EE
:104AB000F381E02D099480E090E008950C9448255E
:104AC000DC01ED91FC910190F081E02D09948F9231
:104AD0009F92AF92BF92DF92EF92FF920F931F933C
:104AE000CF93DF93CDB7DEB7A1970FB6F894DEBFB3
:104AF0000FBECDBF7C01F42FD52ECB0119A22230E1
:104B000008F42AE08E010F5D1F4F822E912CA12CFC
:104B1000B12C6F2F7D2DA50194010E94762FF22FCD
:104B2000D32ECA01015011096A3014F4E0E301C028
:104B3000E7E3E60FD801EC93232B242B252B49F731
:104B4000B801C7010E944825A1960FB6F894DEBFB0
:104B50000FBECDBFDF91CF911F910F91FF90EF90CE
:104B6000DF90BF90AF909F908F900895CF92DF928B
:104B7000EF92FF920F931F93CF93DF93EC016A01A3
:104B80007B012115310579F4E881F9810190F081EB
:104B9000E02D642FDF91CF911F910F91FF90EF9047
:104BA000DF90CF9009942A303105E9F477FF1AC0DD
:104BB0006DE20E9460258C0144275527BA014C19EB
:104BC0005D096E097F092AE0CE010E946725800FEA
:104BD000911FDF91CF911F910F91FF90EF90DF9088
:104BE000CF9008952AE0B701A601CE01DF91CF91C1
:104BF0001F910F91FF90EF90DF90CF900C9467255D
:104C00002115310541F4DC01ED91FC910190F08119
:104C1000E02D642F09940C9467259A01462F50E0EB
:104C200060E070E00C9400264F925F926F927F924A
:104C30008F929F92AF92BF92CF92DF92EF92FF92AC
:104C40000F931F93CF93DF93EC016A017B01B22E88
:104C50009A01AB01C701B6010E941C2F882319F0ED
:104C60006EE172E027C026013701E89477F82FEF54
:104C70003FEF4FE75FE7C301B2010E941C2F811194
:104C80000DC02FEF3FEF4FE75FE7C301B2010E9476
:104C9000B32C18161CF462E272E00CC02FEF3FEF49
:104CA0004FE75FE4C701B6010E94632E1816ACF40B
:104CB00066E272E0CE01DF91CF911F910F91FF90DC
:104CC000EF90DF90CF90BF90AF909F908F907F90AC
:104CD0006F905F904F900C9448252FEF3FEF4FE778
:104CE0005FECC701B6010E94B32C87FDE1CF20E045
:104CF00030E0A901C701B6010E94B32C87FF0AC0AA
:104D00006DE2CE010E9460258C01F7FAF094F7F86D
:104D1000F09402C000E010E0A12C60E070E080E0C0
:104D20009FE3AB1441F020E030E040E251E40E9408
:104D3000BA2CA394F6CF9B01AC01C701B6010E9427
:104D4000ED2B6B017C010E94272D2B013C010E9461
:104D5000532D9B01AC01C701B6010E94EC2B6B01E6
:104D60007C012AE0B301A201CE010E946725080F51
:104D7000191FBB2039F06AE272E0CE010E9448257B
:104D8000080F191F7B2C772041F120E030E040E232
:104D900051E4C701B6010E946E2E6B017C010E9496
:104DA000222D4B01AA2497FCA094BA2C2AE030E0D3
:104DB000B501A401CE010E94B625080F191FC50137
:104DC000B4010E94552D9B01AC01C701B6010E94A0
:104DD000EC2B6B017C017A94D6CFC801DF91CF9187
:104DE0001F910F91FF90EF90DF90CF90BF90AF9009
:104DF0009F908F907F906F905F904F9008950C944C
:104E00001426615030F02091F100FC0120830196BE
:104E1000F8CF289884E680938F06089540918A06FB
:104E200050918B06209188063091890642175307CE
:104E3000B4F49091E8009570E1F39091E80092FD50
:104E400019C08093F10080918A0690918B0601969B
:104E50008F739927892B19F48EEF8093E800809146
:104E60008A0690918B06019690938B0680938A0612
:104E700081E0089580E00895CF92DF92EF92FF9253
:104E80000F931F93CF93DF931F92CDB7DEB7082FF9
:104E9000162FF42E862F880F8E5F99830E940E277F
:104EA00083E00E940E27E02EC02E9981D92E8C2DF2
:104EB0008E19811798F4F601F7FE02C0849101C0A3
:104EC00080810E940E27082F80E00E940E278023F9
:104ED000FFEFCF1ADF0A8111EACF01C081E00F9006
:104EE000DF91CF911F910F91FF90EF90DF90CF90C6
:104EF00008958091D70081608093D70080EA8093E5
:104F0000D80089B5806189BD89B5826089BD09B441
:104F100000FEFDCF61E070E080E090E00E940C2395
:104F20008091D8008F7C80618093D8008091E000D0
:104F3000807F8093E0000895CF93DF931F92CDB7D9
:104F4000DEB71982CE0101960E946E240E94D82BF2
:104F5000BE016F5F7F4F0E94512B89810F90DF91BF
:104F6000CF9108952FB7FC012083F8946770609368
:104F7000E9000895CF93DF931F92CDB7DEB7682F76
:104F8000CE0101960E94B2278091F20099819FBFC5
:104F90000F90DF91CF910895FF920F931F93CF93BE
:104FA000DF9300D0CDB7DEB7F62E8A0190918E0642
:104FB000992311F057FF03C08FEF9FEF2BC0682F8D
:104FC000CE0101967A830E94B2278091F20090E090
:104FD000A8017A81801791070CF4AC01EF2DF72F0F
:104FE000F40E84E6FE1639F0289880938F0690918F
:104FF000F1009193F7CF4115510521F08091F20016
:10500000882321F089818FBFCA0104C08BE6809379
:10501000E800F8CF0F900F90DF91CF911F910F9183
:10502000FF900895CF93DF931F92CDB7DEB741E095
:1050300050E0BE016F5F7F4F0E94CC27019719F4AB
:10504000898190E002C08FEF9FEF0F90DF91CF91A9
:105050000895CF93DF931F92CDB7DEB7682FCE01AF
:1050600001960E94B2279091E800892F807295FFE7
:1050700004C09091F20080E4891B99819FBF0F903A
:10508000DF91CF9108956F927F928F929F92AF920E
:10509000BF92CF92DF92EF92FF920F931F93CF9325
:1050A000DF931F92CDB7DEB7782E7B01C42EB52ECD
:1050B00080918E06882369F0042F152F8AEFD82E51
:1050C000872D8072982E9AE3A92E872D8074882EC2
:1050D00011C08FEF9FEF57C0872D0E942928682E9F
:1050E00081110CC0DA94A9F361E070E080E090E0F7
:1050F0000E940C230115110579F73BC0282F30E0E1
:10510000021713070CF4602E672DCE0101960E9442
:10511000B2278091E80085FF29C0262D30E0021BD0
:10512000130B992039F06A948FEF6816B1F0109242
:10513000F100F9CFF701862D77FE07C0815058F0B6
:1051400094919093F1003196F9CF815020F0919194
:105150009093F100FACFE20EF31E8091E80085FFF4
:105160000FC00115110511F481100AC089818FBF8C
:10517000C1CF5D9884E6809390068C2D9B2D03C053
:10518000A092E800F3CF0F90DF91CF911F910F9184
:10519000FF90EF90DF90CF90BF90AF909F908F9057
:1051A0007F906F9008951092E90010928B061092F4
:1051B0008A0690938906809388060895CF92DF929D
:1051C000FF920F931F93CF93DF9300D0CDB7DEB73D
:1051D000F82E8A016B0101151105B1F0F601F7FEF9
:1051E00002C0849101C0808149835A830E940E27A6
:1051F00001501109FFEFCF1ADF0A49815A8181114D
:10520000EACF8FEF9FEF01C0CA010F900F90DF919F
:10521000CF911F910F91FF90DF90CF900895BF9293
:10522000CF92DF92EF92FF920F931F93CF93DF9372
:105230006C018B01EB013BEFB32E2097C1F07E0197
:10524000C134D1051CF020E4E22EF12C8091E8005D
:1052500082FFFCCFC8018C1B9D0B6E2D8C0D9D1DFC
:105260000E940127B092E800CE19DF09E6CFC801FD
:10527000DF91CF911F910F91FF90EF90DF90CF9032
:10528000BF9008951F920F920FB60F921124DF92D4
:10529000EF92FF920F931F932F933F934F935F9340
:1052A0006F937F938F939F93AF93BF93EF93FF93EE
:1052B000CF93DF93CDB7DEB76C97DEBFCDBF109233
:1052C000E9008091E80083FF23C168E0CE014596A4
:1052D0000E94012782EF8093E8003D8937FF05C0D7
:1052E0008091E80080FFFCCF03C08EEF8093E80040
:1052F000832F807609F0F0C02E894F89D88C211138
:105300000CC0303829F480918D068093F10002C0E2
:105310001092F1001092F100F4C0842F90E09D29CA
:10532000213049F43111EDC0019709F0EAC08091B4
:105330008D068D7F0AC0233059F43111E2C00197E8
:1053400009F0DFC080918D06826080938D06D9C000
:10535000253041F48091E80080FFFCCF4068409305
:10536000E300CFC0263009F08DC0EB8CFC8C22E02E
:10537000D2122CC080E090E00E94D3280E949C278B
:1053800099E08E010F5F1F4FF801292F11922A9586
:10539000E9F79983DA8291E09E8390EA98879AEF01
:1053A000998720918A0630918B06275F3F4F3C8377
:1053B0002B838D83C7010E94D32849E050E0B801B8
:1053C00080E00E94DE280E949C279BC0C7010E94AB
:1053D000D3280E94D82BBE016B5E7F4F0E947A2B90
:1053E000009719F00CF08DC090C081E0D8120EC06B
:1053F0008B8D9C8D089719F481E0809387068091AE
:10540000870681112FC065ED71E031C0E3E0DE1247
:105410007CC08F89882349F1823029F440E862E119
:105420008AEF91E01CC0813029F440E862E187EE08
:1054300091E015C0833009F068C00E94D82B8E011E
:105440000F5F1F4FB8010E94992BF80101900020B7
:10545000E9F73197E01BF10B40E06E2FC8010E9485
:105460003C274DC063EC71E002C06DE072E0611555
:10547000710509F44AC0FB01449150E080E80E94A4
:10548000DE283FC0273009F440C0283021F481E0F5
:105490008093F10036C02930A1F53370B1F5E9E20F
:1054A000F1E081E021E036E39081992361F080937F
:1054B000E9002093EB0091919093EC003093ED0084
:1054C0008F5F873089F78EE78093EA001092EA00B9
:1054D0008F8980938E0615C08B8D9C8D0E94D3285A
:1054E000898D811105C0CE0145960E94792407C09F
:1054F0000E94D82BBE016B5E7F4F0E94B82B882381
:1055000021F08EEF8093E80003C081E28093EB00EE
:105510006C960FB6F894DEBF0FBECDBFDF91CF9172
:10552000FF91EF91BF91AF919F918F917F916F917B
:105530005F914F913F912F911F910F91FF90EF90AD
:10554000DF900F900FBE0F901F9018958093E90089
:105550008091F200882319F08AE38093E80008958F
:105560001F920F920FB60F9211242F933F934F93D8
:105570005F936F937F938F939F93AF93BF93CF93DB
:10558000EF93FF93C091E1008091E100837F8093CE
:10559000E1008093E100C3FF0FC01092E90081E0B9
:1055A0008093EB001092EC0082E38093ED00109268
:1055B0008E0688E08093F000C2FF19C083E00E944D
:1055C000A62A80919006882339F080919006815018
:1055D00080939006882389F180918F06882339F083
:1055E00080918F06815080938F06882341F1C4FFFC
:1055F00010C08091E2008E7E81608093E2008091F5
:10560000E1008F7E8093E10080918C068E7E806128
:1056100011C0C0FF16C08091E2008E7E8061809331
:10562000E2008091E1008E7E8093E10080918C0603
:105630008E7E816080938C0604C05D9ACDCF289ABF
:10564000D6CFFF91EF91CF91BF91AF919F918F9165
:105650007F916F915F914F913F912F910F900FBE6E
:105660000F901F90189510928E0610928D06109232
:105670008C060E9479278091E1008E7E8093E10064
:105680008DE08093E200559A209AEEEFFFE7859136
:1056900094918B3F9C4D19F481E080938506089589
:1056A0000895EF92FF920F931F93CF93DF937B01A7
:1056B000FC01C281D38100E010E0209781F0E881F5
:1056C000F9810280F381E02DB701CE01099597FDA4
:1056D00008C0080F191F0884D985C02DEECFC80156
:1056E00002C08FEF9FEFDF91CF911F910F91FF903D
:1056F000EF9008950F931F93CF93DF938B01FC01DD
:10570000C281D381209771F0E881F9810480F5810D
:10571000E02DB801CE010995009731F40884D985B0
:10572000C02DF0CF80E090E0DF91CF911F910F91DD
:1057300008950F931F93CF93DF938B01FC01C281D8
:10574000D381209771F0E881F9810680F781E02DFF
:10575000B801CE010995080F111D0884D985C02D07
:10576000F0CFF8011082DF91CF911F910F91089532
:105770000F931F93CF93DF938B01FC01C281D381E1
:10578000209771F0E881F9810190F081E02DB80156
:10579000CE010995811106C00884D985C02DF0CFAE
:1057A00080E001C081E0DF91CF911F910F910895BA
:1057B0008091950681110DC082E08093910684E06E
:1057C00080939206109294061092930681E0809343
:1057D000950681E996E008955058BB27AA270ED078
:1057E00027C2F0D130F0F5D120F031F49F3F11F411
:1057F0001EF4C0C10EF4E095E7FBB6C1E92F3AD222
:1058000080F3BA17620773078407950718F071F4DD
:105810009EF552C20EF4E0950B2EBA2FA02D0B016F
:10582000B90190010C01CA01A0011124FF27591BE5
:1058300099F0593F50F4503E68F11A16F040A22FEB
:10584000232F342F4427585FF3CF4695379527955C
:10585000A795F0405395C9F77EF41F16BA0B620B5B
:10586000730B840BBAF09150A1F0FF0FBB1F661FA2
:10587000771F881FC2F70EC0BA0F621F731F841FE5
:1058800048F4879577956795B795F7959E3F08F00B
:10589000B3CF9395880F08F09927EE0F97958795CA
:1058A000089590D158F080E891E009F49EEF91D1ED
:1058B00028F040E851E059F45EEF09C05BC1FCC13B
:1058C000E92FE078D7D168F3092E052AC1F326170E
:1058D00037074807590738F00E2E07F8E02569F01A
:1058E000E025E0640AC0EF6307F8009407FADB01E3
:1058F000B9019D01DC01CA01AD01EF934AD098D1F5
:105900000AD05F91552331F02BED3FE049E450FD83
:1059100049EC63CF0895DF93DD27B92FBF7740E8C7
:105920005FE31616170648075B0710F4D92FCFD18F
:105930009F938F937F936F937CD2EAECF0E01DD11D
:1059400077D12F913F914F915F91D4D1DD2349F0D1
:105950009058A2EA2AED3FE049EC5FE3D0785D275A
:105960004DDFDF9165C1DCD008F481E0089539D1C5
:10597000E3956FC10CD05CC12CD140F023D130F045
:1059800021F45F3F19F0F0C0511197C1F3C072D1FB
:1059900098F39923C9F35523B1F3951B550BBB27F6
:1059A000AA2762177307840738F09F5F5F4F220FA3
:1059B000331F441FAA1FA9F333D00E2E3AF0E0E89C
:1059C00030D091505040E695001CCAF729D0FE2FE8
:1059D00027D0660F771F881FBB1F2617370748077A
:1059E000AB07B0E809F0BB0B802DBF01FF27935830
:1059F0005F4F2AF09E3F510568F0B6C05EC15F3F21
:105A0000ECF3983EDCF3869577956795B795F79517
:105A10009F5FC9F7880F911D9695879597F908950F
:105A2000E1E0660F771F881FBB1F621773078407AB
:105A3000BA0720F0621B730B840BBA0BEE1F88F7BA
:105A4000E095089504D06894B11137C108951AD132
:105A500088F09F5790F0B92F9927B751A0F0D1F057
:105A6000660F771F881F991F1AF0BA95C9F712C0E1
:105A7000B13081F021D1B1E008951EC1672F782F98
:105A80008827B85F39F0B93FCCF38695779567954D
:105A9000B395D9F73EF490958095709561957F4FB9
:105AA0008F4F9F4F0895E89409C097FB3EF490955F
:105AB0008095709561957F4F8F4F9F4F9923A9F0E7
:105AC000F92F96E9BB279395F69587957795679576
:105AD000B795F111F8CFFAF4BB0F11F460FF1BC0BA
