:100000000C940D010C9455230C947C230C94A32385
:100010000C94CA230C9435010C9435010C94F123F3
:100020000C9435010C9479100C943D2C0C94CF2A2F
:100030000C9435010C9435010C9435010C94350168
:100040000C9435010C9435010C9435010C94350158
:100050000C9435010C9435010C9435010C94182442
:100060000C9435010C9435010C9435010C94350138
:100070000C9435010C9435010C9435010C94350128
:100080000C9435010C9435010C9435010C94350118
:100090000C94FF040C9435010C9435010C9435013B
:1000A0000C9435010C94130F0C94350139253C2523
:1000B0002B252F2535255D255D255D2540254425EE
:1000C00048254E2552255D255825084AD73B3BCE6D
:1000D000016E84BCBFFDC12F3D6C74319ABD568347
:1000E0003DDA3D00C77F11BED9E4BB4C3E916BAAFF
:1000F000AABE000000803F05A84CCDB2D44EB9384E
:1001000036A9020C50B9918688083CA6AAAA2ABE34
:10011000000000803F000000000200090F00000303
:100120000401000C000000000000000000000000BE
:100130000000000000040802011040804010204030
:1001400080408008020401804020100201108010CD
:1001500020404020040404040403040502020202B7
:100160000403020202020606060606060404020250
:1001700002040400000000250028002B002E00319E
:1001800000080B0002020201000904000001020243
:1001900000000524001001052401010104240206C9
:1001A0000524060001070581031000400904010031
:1001B000020A000000070502024000000705830252
:1001C00040000012010002EF020140FB1F0023006B
:1001D00001010203011201000200000040FB1F00A8
:1001E00023000101020301506F6C6F6C7520436F97
:1001F00072706F726174696F6E00506F6C6F6C75A6
:1002000020412D53746172203332553400040309A8
:1002100004008F02150499229C2611241FBECFEFE3
:10022000DAE0DEBFCDBF12E0A0E0B1E0E6EDF2E63D
:1002300002C005900D92AC34B107D9F726E0ACE4CA
:10024000B2E001C01D92AD3BB207E1F712E0CAE196
:10025000D2E004C02297FE010E944631C231D1078C
:10026000C9F70E94BA260C9469310C940000CF9310
:10027000DF93EC01C55BDE4F60E070E0CE010E94D1
:10028000291160E070E0CE01DF91CF910C944F1105
:10029000AF92BF92CF92DF92EF92FF920F931F9394
:1002A00040ED57E060E070E081E894E00E949E0637
:1002B00020E032EC41E050E065E576E081E894E052
:1002C0000E94570681E894E00E9454066BE371E0B7
:1002D0008091B2049091B3040E94E3266AE070E03A
:1002E00080E090E00E94912441E060E081E894E0A9
:1002F0000E94100740E052EC61E070E085E596E076
:100300000E94872682E592E00E94D31961E08DE980
:1003100093E00E94751161E08DE993E00E947811ED
:10032000A12CB12CC12CD12C76019701860140E083
:1003300050E060EB71E482E592E00E94851CAA2403
:10034000A394B12C9BEDC92E9FE0D92E99E4E92E00
:1003500090E4F92E00E010E020EB31EC40E050E0BA
:1003600060EB71E482E592E00E94851C22E0A22EFF
:10037000B12C00E010E020EB31EC40E050E0BA019D
:1003800082E592E00E94851C3BEDC32E3FE0D32E18
:1003900039ECE32E3FE3F32E00E010E09801B901C1
:1003A000A80182E592E00E94851C1F910F91FF90A9
:1003B000EF90DF90CF90BF90AF900895AF92BF9233
:1003C000CF92DF92EF92FF920F931F93CF93DF9321
:1003D000CDB7DEB7E0970FB6F894DEBF0FBECDBF46
:1003E000A0905002B09051028CE0EAEAF2E0DE0107
:1003F000959601900D928A95E1F7CDA0DEA0EFA031
:10040000F8A409A51AA52BA53CA54DA55EA56FA529
:1004100078A982E592E00E94411F82E592E00E9465
:10042000370164E670E080E090E00E949124A090A3
:100430000601B09007018CE0E6EBF2E0DE01599690
:1004400001900D928A95E1F7C98CDA8CEB8CFC8CCB
:100450000D8D1E8D2F8D38A149A15AA16BA17CA1B4
:1004600082E592E00E94411F64E670E080E090E047
:100470000E94912482E592E00E943701A0904E02F2
:10048000B0904F028CE0E2ECF2E0DE011D960190AC
:100490000D928A95E1F7CD84DE84EF84F88809898E
:1004A0001A892B893C894D895E896F89788D82E50F
:1004B00092E00E94411F64E670E080E090E00E94BC
:1004C0009124A0904C02B0904D028CE0EEECF2E052
:1004D000DE01119601900D928A95E1F7C980DA80CC
:1004E000EB80FC800D811E812F81388549855A85DE
:1004F0006B857C8582E592E00E94411FE0960FB6F5
:10050000F894DEBF0FBECDBFDF91CF911F910F9149
:10051000FF90EF90DF90CF90BF90AF90089589EC5F
:1005200096E7A6E5B0E48093520290935302A0931D
:100530005402B093550280E695EEA0E3BFE38093AA
:10054000560290935702A0935802B093590284E147
:100550009EE6A3E6B4E480935A0290935B02A093D4
:100560005C02B0935D028DE09FEEAAE8B0E4809358
:100570005E0290935F02A0936002B093610280E0FC
:1005800090E0A0E8BFE38093620290936302A0939F
:100590006402B093650282E693E00E942B078FE627
:1005A00093E00E94B3082998219A2D98259A2A98B9
:1005B000229A2E98269A80EA8093800081E1809387
:1005C000810080E991E090938700809386001092EB
:1005D00089001092880010928B0010928A00089572
:1005E0008091F10390E02091F203821B910908951C
:1005F0002091F2038091F103281750F4E22FF0E0EC
:10060000ED50FC4F808190E02F5F2093F20308951E
:100610008FEF9FEF0895E091F2038091F103E817C7
:1006200030F4F0E0ED50FC4F808190E008958FEFC2
:100630009FEF08950895CF92DF92EF92FF920F936C
:100640001F93CF93DF937C01CB018A012091CD03CF
:10065000222389F0EB016B01C40ED51ECC15DD05FC
:1006600069F06991D701ED91FC910190F081E02D45
:10067000C7010995F3CF642F0E94D604C801DF910A
:10068000CF911F910F91FF90EF90DF90CF90089541
:10069000CF93DF931F92CDB7DEB769832091CD034F
:1006A0002223D1F02091CE03203240F021E030E02F
:1006B000FC013383228380E090E015C08091CF035A
:1006C000E82FF0E0E053FC4F998190838F5F809397
:1006D000CF038093CE0305C061E0CE0101960E9456
:1006E000D60481E090E00F90DF91CF910895FC0156
:1006F0001382128248EE53E060E070E04483558339
:100700006683778381E591E09183808308951092D9
:10071000F2031092F1031092CF031092CE030C94C7
:10072000190481E08093CD036093F0031092CF030E
:100730001092CE0308950F93062F21E04091CE032F
:1007400060ED73E08091F0030E947F041092CF036C
:100750001092CE031092CD030F9108958F929F9225
:10076000AF92BF92CF92DF92EF92FF920F931F93BF
:10077000CF93DF93EC01F62ED42E48015901EE20E1
:1007800019F10E9491031E2D143008F013E011504E
:10079000B8F0E881F98128E0129FB0011124A50189
:1007A000940104C056954795379527956A95D2F7D9
:1007B000CA01B9010190F081E02DCE010995E7CF82
:1007C00060E0CE010E949B034D2D413208F040E2D3
:1007D0002C2D63EF73E08F2D0E9437041092F203EB
:1007E0008093F103DF91CF911F910F91FF90EF90D4
:1007F000DF90CF90BF90AF909F908F900895CF9251
:10080000EF920F931F93C22EE12C00E010E09801AD
:100810000E94AE031F910F91EF90CF90089521E0B9
:100820000C94FF0361E00C949B0381EC93E00C9427
:1008300077031092800481E080937E0410927D04FF
:1008400061E082E00E945E2561E083E00E945E2517
:10085000E9EBF0E080818E7F808380818D7F8083D3
:1008600088E48093B80085E48093BC000895413209
:1008700008F043C0909180049111FCCF91E09093D7
:10088000800420937E042FEF2093130410925804C9
:10089000240F2093570490937F0490917F04880F36
:1008A000892B80937F0480917D04813061F41092C4
:1008B0007D0480917F048093BB008091BC0083FD08
:1008C000F8CF85EC01C085EE8093BC008091800458
:1008D0008130E1F380915804841710F4409158045A
:1008E00029E534E0FB01D9018A2F821B841718F413
:1008F0008D918193F9CF842F089580E008950F930F
:10090000413208F04AC0909180049111FCCF92E0EE
:100910009093800400937E049FEF909313041092B1
:10092000580440935704FB0169E574E0DB019A2FFA
:10093000961B941718F491919D93F9CF10927F0410
:1009400090917F04880F892B80937F0480917D0490
:10095000813061F410927D0480917F048093BB000C
:100960008091BC0083FDF8CF85EC01C085EE8093BB
:10097000BC00222321F0809180048230E1F3809139
:1009800013048F3F61F080911304803251F0809105
:100990001304803341F483E007C081E005C080E0A8
:1009A00003C082E001C084E00F910895613298F4A1
:1009B00020918004243089F460933504FC0187E39E
:1009C00094E0DC012A2F281B261718F421912D937F
:1009D000F9CF80E0089581E0089582E0089585EDE3
:1009E0008093BC008091BC0084FDFCCF10928004F9
:1009F000089585EC8093BC001092800408951F92A6
:100A00000F920FB60F9211242F933F934F935F9342
:100A10006F937F938F939F93AF93BF93EF93FF93C6
:100A20008091B900887F803609F49EC078F58832BD
:100A300009F45DC090F4803109F456C038F488237D
:100A400009F4F5C0883009F44FC0F5C0883109F4C5
:100A50004EC0803209F45FC0EEC0803409F46AC031
:100A600058F4803309F457C0883309F0E4C0809308
:100A700013040E94F904DFC0803509F44FC08835A3
:100A800009F45DC0883409F0D6C0D3C0883909F4B0
:100A9000C4C0A8F4883709F467C038F4883609F46C
:100AA00063C0803709F460C0C6C0883809F4B5C097
:100AB000803909F45FC0803809F0BDC05BC0803B5D
:100AC00009F483C038F4803A09F466C0883A09F41E
:100AD0007CC0B1C0803C09F4A4C0883C09F4A1C02A
:100AE000883B09F487C0A7C080917F0410C0909113
:100AF000580480915704981770F5E091580481E0EC
:100B00008E0F80935804F0E0E75AFB4F808180936A
:100B1000BB0085EC83C0809313048BC0E091580424
:100B200081E08E0F809358048091BB00F0E0E75A7B
:100B3000FB4F808390915804809157046BC0E091E3
:100B4000580481E08E0F809358048091BB00F0E040
:100B5000E75AFB4F808380917E0481116AC081E057
:100B600080937D0484EA5EC083E0809380041092C9
:100B70001404CFCF80911404803208F04EC0E0916D
:100B8000140481E08E0F809314048091BB00F0E088
:100B9000EB5EFB4F8083BDCF0E94F904809114046B
:100BA000803230F4E0911404F0E0EB5EFB4F1082F1
:100BB0006091140470E0E0917904F0917A0485E189
:100BC00094E009951092140436C084E08093800468
:100BD0001092360410923504E0917B04F0917C046D
:100BE000099580913504811105C081E08093350419
:100BF00010923704E091360481E08E0F8093360422
:100C0000F0E0E95CFB4F80818093BB00909136045B
:100C100080913504981708F47CCF85E88093BC0058
:100C20000AC085EC8093BC001092800404C010922E
:100C300013040E94EF04FF91EF91BF91AF919F9138
:100C40008F917F916F915F914F913F912F910F9075
:100C50000FBE0F901F9018950F931F93CF93DF93A4
:100C6000EC01662359F00E94622469837A838B83A6
:100C70009C83DF91CF911F910F9108950E94622470
:100C800009811A812B813C81601B710B820B930BB4
:100C9000623371058105910530F763E070E080E013
:100CA00090E00E949124EACF60E00C942C06CF9251
:100CB000DF92EF92FF920F931F93CF93DF9300D0B9
:100CC00000D0CDB7DEB78C017B01FC0172AB61AB0C
:100CD0008BE1C82ED12CC70129833A834B835C83D7
:100CE0000E948D2629813A814B815C81811113C03C
:100CF000F1E0CF1AD10879F064E670E080E090E08E
:100D000029833A834B835C830E9491245C814B81CD
:100D10003A812981E0CFBA01A901F80181A992A9FC
:100D20000F900F900F900F90DF91CF911F910F9127
:100D3000FF90EF90DF90CF900C948726FC0113AAD0
:100D400014AA15AA16AA11821282138214824115BE
:100D500051056105710521F0CB01BA010C94912474
:100D600008951F93CF93DF93EC01162F6DE571E08B
:100D700089A99AA90E94E3264AE050E0612F89A937
:100D80009AA90E949A2764E671E089A99AA90E940B
:100D9000E32662E370E080E090E0DF91CF911F9165
:100DA0000C9491241F93CF93DF93EC01162F8D8128
:100DB000882389F189A99AA9DC01ED91FC9104802D
:100DC000F581E02D0995892BA9F307C02637310558
:100DD00019F12835310509F41D8289A99AA9DC0188
:100DE000ED91FC910480F581E02D09951816190606
:100DF00094F489A99AA9DC01ED91FC910680F78110
:100E0000E02D09959C01332723363105F9F6612F32
:100E1000CE010E94B10683E6DF91CF911F91089524
:100E20000F931F93CF93DF931F92CDB7DEB78C0143
:100E3000662349F081E0F801858360E0C8014983B9
:100E40000E94D2064981F80145830F90DF91CF912E
:100E50001F910F910895FC0183E090E090878783B4
:100E60001386128614860895EF92FF921F93CF93F4
:100E7000DF931F92CDB7DEB77C01162FFC01618591
:100E800081EC93E049830E949103612F81EC93E010
:100E90000E9448034981642F81EC93E00E9448033B
:100EA00081EC93E00E941204F70186830F90DF919A
:100EB000CF911F91FF90EF900895CF93DF93EC01B6
:100EC0008F819885029729F440E069E3CE010E9462
:100ED000340740E063E2CE010E9434074FE660E24F
:100EE000CE01DF91CF910C9434079F92AF92BF92C5
:100EF000CF92DF92EF92FF920F931F93CF93DF93E6
:100F0000EC01698581EC93E00E949103E091C103BB
:100F1000F091C2030190F081E02D68EA81EC93E04A
:100F2000099581EC93E00E94120446E0698581EC0A
:100F300093E00E940F040E9462247B0181EC93E005
:100F40000E94F002069784F48A859B85892BB1F371
:100F50000E9462246E197F098A859B8586179707F0
:100F600068F781E08C872CC081EC93E00E94F80246
:100F7000A82E81EC93E00E94F802982E81EC93E079
:100F80000E94F802E82E81EC93E00E94F802B82E4D
:100F900081EC93E00E94F802F82E81EC93E00E942D
:100FA000F802D92CC12CCA28D982C8821B2D00E096
:100FB0000E291B830A83982F88278F299D838C8372
:100FC000DF91CF911F910F91FF90EF90DF90CF9025
:100FD000BF90AF909F9008951F93CF93DF931F9280
:100FE000CDB7DEB7162F81EC93E049830E949103C1
:100FF0004981642F81EC93E00E94480381EC93E0E7
:101000000E941204811114C041E0612F81EC93E031
:101010000E940F0481EC93E00E94F002892B41F0C2
:1010200081EC93E00F90DF91CF911F910C94F80227
:101030008FEF9FEF0F90DF91CF911F910895EF9267
:10104000FF920F931F93CF93DF937C01EB018A01F3
:101050006330710521F04230510509F051C0CE01D5
:101060000197039758F50115110581F04FE050E005
:101070006BE6C7010E94EC078F3F2FEF920719F034
:1010800001E010E013C00130110551F04FE050E0D5
:101090006AE6C7010E94EC078F3FEFEF9E0721F43D
:1010A000C330D10569F027C000E010E0C330D1059E
:1010B00029F4873D9105F1F5C2E0D0E02097D9F4FD
:1010C0000115110561F04FE050E069E6C7010E948B
:1010D000EC07833D910589F10130110549F04FE09E
:1010E00050E068E6C7010E94EC07833D910541F19D
:1010F000C330D10519F00230110511F480E025C08C
:10110000F701D087C783209759F0D7FD11C02397E7
:101110007CF40130110511F48BE608C08AE606C0A4
:101120000130110511F489E601C088E6F7018187D5
:1011300081E00BC0C1E0D0E0C1CF01E010E002C00F
:1011400000E010E0C0E0D0E0D6CFDF91CF911F915A
:101150000F91FF90EF900895DC01ED91FC910190CB
:10116000F081E02D0994CF93DF93EC0186E0EFE26C
:10117000F1E0DE01529601900D928A95E1F786E04A
:10118000E5E3F1E0DE011C9601900D928A95E1F70E
:1011900084E090E09A8F898F1CA61BA61DA6DF9184
:1011A000CF910895EF92FF921F93CF93DF931F92F9
:1011B000CDB7DEB77C01162FFC01638D81EC93E087
:1011C00049830E949103612F81EC93E00E944803C0
:1011D0004981642F81EC93E00E94480381EC93E005
:1011E0000E941204F701808F0F90DF91CF911F9121
:1011F000FF90EF900895EF92FF921F93CF93DF93AC
:101200001F92CDB7DEB77C01162FFC01648D81ECF7
:1012100093E049830E949103612F81EC93E00E9447
:1012200048034981642F81EC93E00E94480381ECDC
:1012300093E00E941204F701808F0F90DF91CF910D
:101240001F91FF90EF900895FC01218D328D233086
:10125000310511F0603210F40C94FB080C94D208A4
:10126000CF93DF93EC01898D9A8D83309105D9F46A
:1012700040E061E2CE010E94240947E560E2CE0130
:101280000E94240944E664E2CE010E94240940E25F
:1012900065E2CE010E94240940E066E2CE01DF91C2
:1012A000CF910C942409029739F448E063E2CE010F
:1012B0000E94D20847E406C040E063E2CE010E94EB
:1012C000D20847E260E2CE010E94D2084CE060E022
:1012D000CE010E94FB0840E261E0CE010E94FB08C3
:1012E00040E062E0CE01DF91CF910C94FB089F9229
:1012F000AF92BF92CF92DF92EF92FF920F931F9324
:10130000CF93DF93EC016B8D81EC93E00E9491030E
:1013100068EA70E081EC93E00E94AC0881EC93E015
:101320000E941204888F46E06B8D81EC93E00E944E
:101330000F040E9462246B0181EC93E00E94F00292
:10134000069784F48BA59CA5892BB1F30E94622497
:101350006C197D098BA59CA58617970768F781E016
:101360008DA72CC081EC93E00E94F802A82E81EC9E
:1013700093E00E94F802982E81EC93E00E94F8021C
:10138000C82E81EC93E00E94F802B82E81EC93E025
:101390000E94F802D82E81EC93E00E94F802F92C0A
:1013A000E12CEA28F982E8821B2D00E00C291B833E
:1013B0000A83982F88278D299D838C83DF91CF9175
:1013C0001F910F91FF90EF90DF90CF90BF90AF9063
:1013D0009F900895CF92DF92EF92FF920F931F9309
:1013E000CF93DF93EC016C8D81EC93E00E9491032D
:1013F000898D9A8D039721F469A17AA1606802C052
:101400006F8D78A181EC93E00E94AC0881EC93E0B1
:101410000E941204888F46E06C8D81EC93E00E945C
:101420000F040E9462248B0181EC93E00E94F00281
:10143000069784F48BA59CA5892BB1F30E946224A6
:10144000601B710B8BA59CA58617970768F781E039
:101450008DA767C0898D9A8D0397F9F481EC93E08D
:101460000E94F802C82E81EC93E00E94F802D82E68
:1014700081EC93E00E94F802E82E81EC93E00E9458
:10148000F802182F81EC93E00E94F802F82E81EC0C
:1014900093E00E94F802082F35C081EC93E00E948F
:1014A000F802D82E81EC93E00E94F802C82E298D14
:1014B0003A8D81EC93E0232B99F40E94F802182FC7
:1014C00081EC93E00E94F802E82E81EC93E00E9408
:1014D000F802082F81EC93E00E94F802F82E12C067
:1014E0000E94F802082F81EC93E00E94F802F82E87
:1014F00081EC93E00E94F802182F81EC93E00E94A7
:10150000F802E82E6C2D70E07D297F836E834E2DCE
:1015100050E0512B598748872F2D30E0302B3B87E7
:101520002A87DF91CF911F910F91FF90EF90DF906D
:10153000CF900895CF93DF93EC010E947709CE01FD
:10154000DF91CF910C94EA091F93CF93DF931F9201
:10155000CDB7DEB7162F81EC93E049830E9491034B
:101560004981642F81EC93E00E94480381EC93E071
:101570000E941204811114C041E0612F81EC93E0BC
:101580000E940F0481EC93E00E94F002892B41F04D
:1015900081EC93E00F90DF91CF911F910C94F802B2
:1015A0008FEF9FEF0F90DF91CF911F910895EF92F2
:1015B000FF920F931F93CF93DF93EC018B017A017E
:1015C0006430710521F04230510509F055C0C80161
:1015D0000397029708F0CDC0E114F10471F04FE0D9
:1015E00050E06DE1CE010E94A40A8934910509F40E
:1015F000B8C081E0E816F10451F04FE050E06EE130
:10160000CE010E94A40A8934910509F4AEC00430C9
:10161000110509F0D0C0E114F10469F040E250E096
:1016200069E1CE010E94A40A019679F421E0E21654
:10163000F10409F4A3C040E250E068E1CE010E9449
:10164000A40A019609F0A4C099C00430110509F05C
:101650009BC04FE050E06EE1CE010E94A40AEE2450
:10166000E394F12CCC9709F0A9C002E010E082E0ED
:10167000E816F10409F486C01A8F098F01301105AC
:1016800069F124F4012B09F449C069C00230110545
:1016900041F10330110509F062C0EA94EF2811F41A
:1016A0008DE101C08EE18C8F8B8F88E090E09AA352
:1016B00089A389E090E098A38F8F8AE090E09EA3B1
:1016C0008DA38BE090E09CA38BA38CE090E09AA785
:1016D00089A78DE090E098A78FA341C0EA94EF28F6
:1016E00011F489E101C088E18B8F8EE18C8F83E05A
:1016F00090E098A38F8F84E090E09AA389A387E07D
:1017000090E09CA38BA388E090E09EA38DA385E04E
:1017100090E098A78FA386E090E01FC0EA94EF289E
:1017200011F489E101C088E18B8F8EE18C8F83E019
:1017300090E098A38F8F84E090E09AA389A385E03E
:1017400090E09CA38BA386E090E09EA38DA387E00E
:1017500090E098A78FA388E090E09AA789A781E0FE
:1017600030C0EE24E394F12C02C0E12CF12C03E014
:1017700010E00330110508F44ECF79CF0430110585
:1017800009F075CF80E01DC0EE24E394F12C6FCFFB
:101790000430110569F44FE050E06EE1CE010E9483
:1017A000A40A31E020E0CC9709F030E0032F122F9B
:1017B000E12CF12C5CCF03E010E059CF00E010E009
:1017C00056CFDF91CF911F910F91FF90EF90089529
:1017D0009091BA04E091BE04F091BF04992311F0F6
:1017E000849101C080812FEB280F2A3110F4805E94
:1017F0000895803249F49F012F5F3F4F3093BF041B
:101800002093BE04EF2B31F708951F93CF93DF93FE
:101810000E94E80BC0E0D0E01AE090ED980F9A30FB
:10182000B8F49E01129FE001139FD00D1124C80F40
:10183000D11D87FDDA95E0978091BE049091BF0499
:1018400001969093BF048093BE040E94E80BE5CFFD
:10185000CE01DF91CF911F910895109272001092E6
:10186000C00084E08093C10089E08093C20081E0E1
:101870008093C300EFEBF0E083E0808388EE8093F9
:10188000D10010821092D200579A789408952F9226
:101890003F924F925F926F927F928F929F92AF9200
:1018A000BF92CF92DF92EF92FF920F931F93CF934D
:1018B000DF93CDB7DEB727970FB6F894DEBF0FBE24
:1018C000CDBF7C011B014D838091C004811105C0F7
:1018D00081E08093C0040E942D0C10921101F7FE4C
:1018E00004C0E894F7F81AE001C011E088E2189FFC
:1018F000802D1124282F30E03F832E832E153F05A5
:1019000010F4FF82EE82113049F44E815F81413143
:10191000574220F0E0E1F7E2FF83EE83812E912C25
:10192000A12CB12C8E819F81969587959C0140E0DA
:1019300050E029833A834B835C834E815F812A0187
:10194000612C712CA501940160E072E18AE790E0BE
:101950000E94D33029813A814B815C81620F731FD1
:10196000841F951FA30192010E94253169017A010C
:10197000EE24FF2400E00F5FC11434E0D306E1043D
:10198000F10408F120E032E14AE750E0002E04C003
:1019900055954795379527950A94D2F7C501B40117
:1019A0000E94D33029813A814B815C81620F731F81
:1019B000841F951FA30192010E94253169017A01BC
:1019C000EE24FF24D8CF1A3049F48E819F810596EA
:1019D0006AE070E00E94EF307F836E834E815F810A
:1019E000483E83E0580759F09101DA010E944A31DC
:1019F00028EE33E040E050E00E94253119011092BA
:101A000072008091C100807F802B8093C100BB2732
:101A1000AF2D9E2D8D2D8093BF00C092D1002D81C2
:101A2000203108F02FE080E190E0821B910904C092
:101A3000F694E794D794C7948A95D2F78D2D992779
:101A40008093BF00C092D2003092BD042092BC04AB
:101A500089B38FEF89BB84E08093720027960FB61D
:101A6000F894DEBF0FBECDBFDF91CF911F910F91D4
:101A7000FF90EF90DF90CF90BF90AF909F908F90AE
:101A80007F906F905F904F903F902F900895CF93ED
:101A9000DF93EB018F3F11F0411105C040E0BE0123
:101AA00088EE93E043C0813130F050EF580F50364C
:101AB00018F05FE501C050E0852F6CE00E94E33034
:101AC000682F74EF760390011124250F311D2C30FF
:101AD000310540F4F901EE0FFF1FEB54FE4F20815A
:101AE000318102C020E030E0873081F0082E02C052
:101AF000220F331F0A94E2F7823028F0C9010596BD
:101B00006AE070E00CC0C90190580CC0C90136E011
:101B1000880F991F3A95E1F7029665E070E00E9400
:101B2000EF30CB01403108F04FE0BE01DF91CF91A3
:101B30000C94470C4F925F926F927F928F929F927C
:101B4000AF92BF92CF92DF92EF92FF920F931F93CB
:101B5000CF93DF9300D0CDB7DEB790901001809186
:101B6000B904882321F06091B804611117C077246B
:101B70007394B0ECAB2EBDE5BB2E1AE0612E04E0F1
:101B8000802E80EDC82E87E0D82E94E0E92EF12C2F
:101B900004EF11E02FE0422E512C15C070E040E020
:101BA00088EE93E00E94470C1092B80429C1863653
:101BB000D4F5813609F4A9C07CF58C3309F460C0F2
:101BC0008E3381F493940E94E80B2091BE043091EF
:101BD000BF042F5F3F4F3093BF042093BE04853670
:101BE00031F752C0813209F08BC080921001D0923F
:101BF0000F01C0920E01F0920D01E0920C011093C2
:101C00000B0100930A0150920901409208011092C1
:101C1000B904A4E09A2ED7CF8336A1F10CF478C092
:101C200010E082E077C08D36C1F194F4873691F1EF
:101C300074F18C3609F064C00E94050CBC019093CD
:101C40000D0180930C0180910E0190910F0151C004
:101C50008237C9F14CF48F3609F052C00E94050C4E
:101C6000982E80931001AFCF843781F1863709F029
:101C700047C00E94050C9093090180930801A3CFEF
:101C80009A94A1CF10E020C010E084E043C010E09F
:101C900085E040C010E087E03DC00E94E80B8C3634
:101CA00019F41092B90404C07092B9041092B804E7
:101CB0002091BE043091BF042F5F3F4F3093BF048B
:101CC0002093BE0480CF11E080E024C00E94050C68
:101CD000BC01C5010E94EF30669EC001679E900D59
:101CE000112490930F0180930E0160910C0170916B
:101CF0000D010E94EF3070930B0160930A0163CFD6
:101D00001092BF041092BE047BC010E089E002C0B4
:101D100010E08BE0082F9CE0999E000D11240E949A
:101D2000E80B982F977F933261F42091BE04309195
:101D3000BF042F5F3F4F3093BF042093BE040F5F5B
:101D4000EECF8D3271F42091BE043091BF042F5F2D
:101D50003F4F3093BF042093BE0401500E94E80B14
:101D6000F0CF60910A0170910B018153883050F4DB
:101D7000E0900E01F0900F010E94050CBC01C7011C
:101D80000E94EF307B01F694E79469837A830E9486
:101D9000E80B69817A818E3269F42091BE0430911A
:101DA000BF042F5F3F4F3093BF042093BE046E0DDE
:101DB0007F1DE9CF8091B904882339F09B013695C6
:101DC00027952093B804621B7109409108011123E3
:101DD00011F08FEF01C0802F0F900F90DF91CF9106
:101DE0001F910F91FF90EF90DF90CF90BF90AF9039
:101DF0009F908F907F906F905F904F900C94470DC5
:101E00000F900F90DF91CF911F910F91FF90EF9066
:101E1000DF90CF90BF90AF909F908F907F906F900A
:101E20005F904F9008951F920F920FB60F9211245A
:101E30002F933F934F935F936F937F938F939F93D2
:101E4000AF93BF93EF93FF938091BC049091BD0437
:101E50009C01215031093093BD042093BC04892B8F
:101E600011F51092720078948091C100807F846097
:101E70008093C10083E08093BF0088EE8093D100FF
:101E80001092BF001092D20081E0809311018091E6
:101E9000BE049091BF04892B31F08091BB04811165
:101EA00002C00E949A0DFF91EF91BF91AF919F9157
:101EB0008F917F916F915F914F913F912F910F90F3
:101EC0000FBE0F901F901895FC011382128281EDB6
:101ED00091E091838083148208951F93CF93DF93C1
:101EE000EC01162F64600E94E70F1E83DF91CF91F3
:101EF0001F910895CF93DF93EC01E881F98104806D
:101F0000F581E02D099563E0CE010E94E30F8FE992
:101F100091E40197F1F700C0000063E0CE010E9458
:101F2000E30F87E592E00197F1F700C0000063E05E
:101F3000CE010E94E30F62E0CE010E94E30F68E24F
:101F4000CE010E94E70F60E0CE010E941910CE0181
:101F50000E94EB0F62E0CE010E946D0F64E0CE01A3
:101F6000DF91CF910C9419100F931F93CF93DF93B0
:101F700000D01F92CDB7DEB78C01DC0114968C9196
:101F8000149781110CC081E014968C93C8012B83A7
:101F90004A8369830E947A0F69814A812B81D80123
:101FA000ED91FC910680F781E02DC8010995B5EC13
:101FB000BA95F1F700000F900F900F90DF91CF913D
:101FC0001F910F91089521E040E00C94B40F20E0A0
:101FD00040E00C94B40F61E00E94E70F8FE39FE1B3
:101FE0000197F1F700C000000895CF93DF9300D070
:101FF00000D0CDB7DEB720E8298320EC2A8324E97E
:102000002B8324ED2C83443008F043E0FE01E40FE1
:10201000F11D2181260F622F0E94E70F85EC8A9522
:10202000F1F700000F900F900F900F90DF91CF917C
:1020300008951F93CF93DF93EC01162F68600E94E1
:10204000E70F1D83DF91CF911F91089520E041E0BC
:102050000C94B40F0E94261081E090E00895CF9276
:10206000DF92EF92FF920F931F93CF93DF937C0148
:102070008A01EB016B01C40ED51ECC15DD0529F0DC
:102080006991C7010E942610F8CFC801DF91CF9156
:102090001F910F91FF90EF90DF90CF9008954FB177
:1020A00041705CB156FB552750F954278091C80404
:1020B0006091C9042091C2043091C304852790E047
:1020C0006427861B9109820F931F9093C30480930A
:1020D000C2049091C9048091C804591729F0481787
:1020E00019F081E08093C7045093C9044093C80459
:1020F00008951F920F920FB60F9211242F933F93C2
:102100004F935F936F938F939F932CB130E03595EE
:10211000279535952795422F417083B190E054E083
:10212000959587955A95E1F782279327582F5170F7
:102130008091CA046091CB042091C4043091C504FD
:10214000852790E06427861B9109820F931F909347
:10215000C5048093C4049091CB048091CA0459179C
:1021600029F0481719F081E08093C7045093CB04FD
:102170004093CA049F918F916F915F914F913F91CE
:102180002F910F900FBE0F901F90189524982C9AA6
:102190006A98729A6E98769A8098889A81E080936D
:1021A000680090E190936B008BBB41E050E06FE4DE
:1021B00070E184E00E9405238CB182FB882780F9BE
:1021C00081708093CA0493B18091CA0492959170F2
:1021D00089278093CB041092C5041092C4041092F6
:1021E000C7048FB181708093C8049CB18091C804EA
:1021F00096FB992790F989278093C9041092C3040C
:102200001092C2041092C60408958091C1048111F5
:1022100005C081E08093C1040C94C61008950E940B
:102220000511F8948091C4049091C5041092C504DE
:102230001092C404789408950E940511F894809136
:10224000C2049091C3041092C3041092C204789403
:1022500008959B0120573E4F2132334040F06037B4
:102260007E4F1CF060E971E002C060E77EEFFC0188
:10227000718F608F77FF05C071956195710981E05D
:1022800001C080E070938B0060938A009091CD0430
:10229000891711F02A9A01C02A98229A08959B0161
:1022A00020573E4F2132334040F060377E4F1CF0C4
:1022B00060E971E002C060E77EEFFC01738F628F1E
:1022C00077FF05C071956195710981E001C080E0DB
:1022D00070938900609388009091CC04891711F065
:1022E000299A01C02998219A08956093CD040895F0
:1022F0006093CC0408955B98539A089560FF02C0E0
:102300002B9A01C02B98239A61FF02C0289A01C022
:102310002898209A62FF02C0479A01C047983F9AC6
:1023200063FF02C05D9A01C05D98559A5B9A539A0B
:1023300085E08A95F1F700005B98539A85E08A95CD
:10234000F1F700000895CF92DF92EF92FF920F9382
:102350001F93CF93DF9300D000D01F92CDB7DEB78D
:102360006C01162F0091E2001092E200F090E9005B
:102370001092E900E090F0001092F00030E05A99DD
:10238000316052993260398330E02B993160239962
:1023900032603A8330E028993160209932603B8383
:1023A00030E0479931603F9932603C8330E05D997D
:1023B0003160559932603D83442311F05A9A01C02F
:1023C0005A98529A21110AC0612F70E084E07595E5
:1023D00067958A95E1F7C6010E947E11612F6F70A3
:1023E000C6010E947E112D8121FB0EF0559820FB25
:1023F0000EF05D980EF45D9A21FB0EF4559A3C8127
:1024000031FB0EF03F9830FB0EF047980EF4479AE0
:1024100031FB0EF43F9A2B8121FB0EF0209820FB1C
:102420000EF028980EF4289A21FB0EF4209A3A8197
:1024300031FB0EF0239830FB0EF02B980EF42B9A04
:1024400031FB0EF4239A298121FB0EF0529820FBD8
:102450000EF05A980EF45A9A21FB0EF4529A1092EA
:10246000E900E092F000F092E9000093E2000F90A2
:102470000F900F900F900F90DF91CF911F910F91C0
:10248000FF90EF90DF90CF9008954F925F926F9200
:102490007F928F929F92AF92BF92CF92DF92EF92F4
:1024A000FF92CF93DF93EC010E940F119DA78CA7A1
:1024B0000E941C117C019FA78EA76CA57DA5882773
:1024C00077FD8095982F0E94E22E9B01AC010E941F
:1024D000A930882311F01DA61CA6B701882777FD17
:1024E0008095982F0E94E22E9B01AC010E94A9309A
:1024F000882311F01FA61EA64C845D846E847F8401
:1025000088849984AA84BB846CA57DA5882777FDDF
:102510008095982F0E94E22EA30192010E94FB2F2A
:10252000A50194010E94472E6B017C016CAB7DAB31
:102530008EAB9FAB6EA57FA5882777FD8095982FE2
:102540000E94E22EA30192010E94FB2FA50194019B
:102550000E94472E68AF79AF8AAF9BAFA701960163
:102560000E947A2D20E030E040E05FE30E94FB2FE4
:102570006CAF7DAF8EAF9FAFDF91CF91FF90EF90AB
:10258000DF90CF90BF90AF909F908F907F906F9093
:102590005F904F900895CF92DF92EF92FF920F934A
:1025A0001F93CF93DF93EC01CB01BA019B01AC01E8
:1025B0000E947A2D9B01AC01688179818A819B817F
:1025C0000E94472E6B017C018E010C5A1F4F9B010C
:1025D000AC0160E070E080E89FE30E94792D20E08C
:1025E00030E040E251E40E94FB2FF80160837183E8
:1025F00082839383C05BDF4F20E030E040E85FE3FD
:10260000C701B6010E947A2D20E030E040E251E49B
:102610000E94FB2F688379838A839B8381E894E0FF
:102620000E945406C2EBD4E069ED71E08881998183
:102630000E94E32661EE71E0888199810E94E32681
:10264000F801408151816281738122E030E088810C
:1026500099810E948C2863EE71E0888199810E94A3
:10266000E32665E070E080E090E0DF91CF911F917C
:102670000F91FF90EF90DF90CF900C949124EF9208
:10268000FF920F931F93CF93DF93EC017A0189019F
:10269000FB012081318142815381688D798D8A8D42
:1026A0009B8D0E947A2D688F798F8A8F9B8FF7017F
:1026B00020813181428153816C8D7D8D8E8D9F8DE6
:1026C0000E947A2D6C8F7D8F8E8F9F8FF8012081D5
:1026D0003181428153816C897D898E899F890E94D5
:1026E0007A2D6C8B7D8B8E8B9F8BDF91CF911F9181
:1026F0000F91FF90EF9008952F923F924F925F922B
:102700006F927F928F929F92AF92BF92CF92DF9201
:10271000EF92FF920F931F93CF93DF9300D000D0DF
:10272000CDB7DEB78B019C0128513F4F3C832B83F3
:10273000D9014D905D906D907C90FC01EC50FF4F65
:1027400040825182628273821C01BCEE2B0E311CCE
:10275000F10180809180A280B3803C96808291823A
:10276000A282B3823496285F3F4F3A832983D901EE
:102770004D915D916D917C91408351836283738310
:10278000B497C080D180E280F380C701B6010E9477
:10279000442EF80120813181428153810E94FB2F18
:1027A0009B01AC01C301B2010E947A2DAB81BC81B7
:1027B0006D937D938D939C931397C701B6010E94EF
:1027C0005E30F80120813181428153810E94FB2FCC
:1027D0009B01AC01C501B4010E947A2DD1016D931A
:1027E0007D938D939C931397E981FA81C082D18266
:1027F000E282F3820F900F900F900F90DF91CF91B4
:102800001F910F91FF90EF90DF90CF90BF90AF900E
:102810009F908F907F906F905F904F903F902F9000
:1028200008950F931F93CF93DF93EC018C0108570A
:102830001F4F29E732E240E259E3F80160817181DC
:10284000828193810E94FB2FF801608371838283D0
:1028500093830C5F1F4F29E732E240E259E3F8010E
:1028600060817181828193810E94FB2FF8016083D6
:10287000718382839383C057DF4F29E732E240E2BE
:1028800059E3688179818A819B810E94FB2F68834B
:1028900079838A839B83DF91CF911F910F91089554
:1028A0000F931F93CF93DF93EC018C0104551F4FBF
:1028B00021E43AED4FE758E3F801608171818281AC
:1028C00093810E94FB2FF80160837183828393833D
:1028D0000C5F1F4F21E43AED4FE758E3F8016081A8
:1028E0007181828193810E94FB2FF8016083718343
:1028F00082839383CC54DF4F21E43AED4FE758E3D2
:10290000688179818A819B810E94FB2F688379830A
:102910008A839B83DF91CF911F910F9108952F920E
:102920003F924F925F926F927F928F929F92AF925F
:10293000BF92CF92DF92EF92FF920F931F93CF93AC
:10294000DF9300D000D0CDB7DEB79C838B837C01B2
:1029500020EFE21A2EEFF20AC7010E947507EB8101
:10296000FC81EC5EFE4F60817181882777FD809548
:10297000982F0E94E22E4B015C01EB81FC81E05C10
:10298000FF4F4080518062807380A30192010E94BA
:10299000F02F0B811C8100571F4F87FF0AC0A30136
:1029A00092015058C501B4010E94402E18160CF433
:1029B0005CC0CB80DC8038E8C30ED11CF70160819D
:1029C0007181882777FD8095982F0E94E22EEB81F8
:1029D000FC81E056FF4F20813181428153810E946A
:1029E000792DF6016083718382839383EB80FC8071
:1029F000FCE8EF0EF11CEB81FC81EE5EFE4F608186
:102A00007181882777FD8095982F0E94E22EEB81B7
:102A1000FC81EC55FF4F20813181428153810E941E
:102A2000792DF7016083718382839383F80180811C
:102A30009181A281B381EB81FC81E456FF4F8083B9
:102A40009183A283B383EB81FC81E855FF4F208102
:102A5000318142815381C501B4010E94792DF80171
:102A6000608371838283938305C0F8011082118291
:102A7000128213820B811C81035E1E4FC8010E94CB
:102A80009A0AF80160817181882777FD8095982FD7
:102A90000E94E22E6B017C012B803C80F4E42F0E1F
:102AA000311CF1014080518062807380E89477F896
:102AB000A3019201C301B2010E947A2D9B01AC01D6
:102AC000C701B6010E94F02F2B813C8124553F4F56
:102AD000590187FF10C020E030E040E050ECC30116
:102AE000B2010E94FB2F9B01AC01C701B6010E94FD
:102AF000402E181694F0EB81FC81EC53FF4F20819F
:102B0000318142815381C701B6010E94792DF501BF
:102B1000608371838283938305C0F50110821182E3
:102B200012821382EB81FC81E15EFE4F6081718134
:102B3000882777FD8095982F0E94E22E6B017C01FB
:102B40008B809C80F8E48F0E911CF40140805180B2
:102B500062807380E89477F8A3019201C301B20107
:102B60000E947A2D9B01AC01C701B6010E94F02F93
:102B70000B811C8100551F4F87FF10C020E030E003
:102B800040E050ECC301B2010E94FB2F9B01AC015D
:102B9000C701B6010E94402E181694F0EB81FC810B
:102BA000E853FF4F2081318142815381C701B60133
:102BB0000E94792DF801608371838283938305C01D
:102BC000F8011082118212821382EB81FC81EF5D89
:102BD000FE4F60817181882777FD8095982F0E9434
:102BE000E22E6B017C01EB81FC81E45BFF4F4080B6
:102BF000518062807380A30192010E94F02F2B818B
:102C00003C812C543F4F3A83298387FF09C0A3019D
:102C100092015058C701B6010E94402E181694F038
:102C2000EB81FC81E453FF4F20813181428153814C
:102C3000C701B6010E94792DE981FA816083718311
:102C4000828393838B819C810E9450148B819C8111
:102C50000E94111481E894E00E9454066CEE71E029
:102C60008091B2049091B3040E94E32661EE71E07A
:102C70008091B2049091B3040E94E326F501408153
:102C800051816281738122E030E08091B2049091A1
:102C9000B3040E948C2861EE71E08091B20490919F
:102CA000B3040E94E326F80140815181628173815F
:102CB00022E030E08091B2049091B3040E948C280D
:102CC00061EE71E08091B2049091B3040E94E3261A
:102CD000E981FA81408151816281738122E030E093
:102CE0008091B2049091B3040E948C2861EE71E04F
:102CF0008091B2049091B3040E94E326F1014081D7
:102D000051816281738122E030E08091B204909120
:102D1000B3040E948C2861EE71E08091B20490911E
:102D2000B3040E94E326F4014081518162817381E2
:102D300022E030E08091B2049091B3040E948C288C
:102D400063EE71E08091B2049091B3040E94E32697
:102D500065E070E080E090E00F900F900F900F9092
:102D6000DF91CF911F910F91FF90EF90DF90CF9067
:102D7000BF90AF909F908F907F906F905F904F909B
:102D80003F902F900C9491242F923F924F925F92FC
:102D90006F927F928F929F92AF92BF92CF92DF926B
:102DA000EF92FF920F931F93CF93DF93CDB7DEB7D0
:102DB0002C970FB6F894DEBF0FBECDBF8C01FC017F
:102DC000E05CFF4F108211821282138224EF31E007
:102DD0003C872B87805F9E4F9E838D83180198E8E8
:102DE000290E311CE45BFF4FFA83E98398012E5EC4
:102DF0003E4F38872F83C80180579F4F9C838B831A
:102E0000E857FF4FFA87E9878D819E810E947507F9
:102E1000ED81FE8160817181882777FD8095982FF3
:102E20000E94E22EF10120813181428153810E9472
:102E30007A2D2B013C01F10160837183828393839E
:102E4000EF81F88580819181BC01882777FD80958D
:102E5000982F0E94E22EE981FA81208131814281FE
:102E600053810E947A2D4B015C01E981FA816083D4
:102E7000718382839383E985FA8580819181BC0186
:102E8000882777FD8095982F0E94E22EEB81FC81A8
:102E900020813181428153810E947A2D6B017C0116
:102EA000EB81FC8160837183828393832B853C85D6
:102EB000215031093C872B87232B09F0A5CF18011E
:102EC00030EA230E311C20E030E04AEF53E4C30126
:102ED000B2010E94472EF101608371838283938344
:102EE0003801F4EA6F0E711C20E030E04AEF53E441
:102EF000C501B4010E94472EF30160837183828370
:102F000093835801F8EAAF0EB11C20E030E04AEF9D
:102F100053E4C701B6010E94472EF5016083718317
:102F20008283938394EF292E3324339498012C5E6B
:102F30003E4F3C832B83B886AF82C801805C9F4F95
:102F40009A8789878D819E810E947507EB81FC811C
:102F50000190F081E02DFA83E983EF81F88580808C
:102F60009180A280B38029813A81B901882777FDB9
:102F70008095982F0E94E22EA50194010E94792D40
:102F80006B017C01E985FA85408051806280738005
:102F9000A30192010E94F02F18163CF4E985FA85EE
:102FA000C082D182E282F3821EC0A30192015058F6
:102FB000C701B6010E94402E87FF15C069817A8142
:102FC000719561957109882777FD8095982F0E94EA
:102FD000E22EA50194010E94792DE985FA8560838E
:102FE000718382839383F1E02F1A310809F0AACF0D
:102FF00020E030E04AEF53E4E985FA856081718191
:10300000828193810E94472EE985FA8560837183CE
:1030100082839383F801E857FF4F10821182128256
:103020001382349610821182128213823496108297
:103030001182128213822C960FB6F894DEBF0FBE57
:10304000CDBFDF91CF911F910F91FF90EF90DF9057
:10305000CF90BF90AF909F908F907F906F905F9038
:103060004F903F902F9008952F923F924F925F92F2
:103070006F927F928F929F92AF92BF92CF92DF9288
:10308000EF92FF920F931F93CF93DF93CDB7DEB7ED
:103090002C970FB6F894DEBF0FBECDBF1C0124EFF6
:1030A00031E03C872B87835E9E4F9C838B8381011D
:1030B00004551F4FF101E055FF4FFA83E983910159
:1030C000215E3E4F38872F83895691099E838D83D9
:1030D000EF58FF4FFA87E9878B819C810E949A0AFB
:1030E000EB81FC8160817181882777FD8095982F25
:1030F0000E94E22EF80120813181428153810E9499
:103100007A2D2B013C01F8016083718382839383C4
:10311000EF81F88580819181BC01882777FD8095BA
:10312000982F0E94E22EE981FA812081318142812B
:1031300053810E947A2D4B015C01E981FA81608301
:10314000718382839383E985FA8580819181BC01B3
:10315000882777FD8095982F0E94E22EED81FE81D1
:1031600020813181428153810E947A2D6B017C0143
:10317000ED81FE8160837183828393832B853C85FF
:10318000215031093C872B87232B09F0A5CFC101A2
:103190008C539F4F98878F8320E030E04AEF53E4B1
:1031A000C301B2010E94472EEF81F88560837183CD
:1031B00082839383810108531F4F20E030E04AEF60
:1031C00053E4C501B4010E94472EF8016083718366
:1031D000828393830C5F1F4F20E030E04AEF53E47B
:1031E000C701B6010E94472EF80160837183828374
:1031F000938304EF11E09101205F3E4F3E832D83C6
:10320000C1018C5B9F4F9A8789878D819E810E9427
:103210007507EB81FC810190F081E02DFA83E98351
:10322000EF81F88580809180A280B38029813A81E6
:10323000B901882777FD8095982F0E94E22EA5017D
:1032400094010E94792D6B017C01E985FA8540800B
:10325000518062807380A30192010E94F02F1816A2
:103260003CF4E985FA85C082D182E282F3821EC0F5
:10327000A30192015058C701B6010E94402E87FF5A
:1032800015C069817A81719561957109882777FDEB
:103290008095982F0E94E22EA50194010E94792D1D
:1032A000E985FA85608371838283938301501109D4
:1032B00009F0ABCF04EF11E09101215E3E4F3C835A
:1032C0002B83C10188539F4F9A838983F101E85B67
:1032D000FF4FF887EF838D819E810E947507EB81F8
:1032E000FC8120803180E981FA8180809180A280F8
:1032F000B380B101882777FD8095982F0E94E22E38
:10330000A50194010E94792D6B017C01EF81F88564
:103310004080518062807380A30192010E94F02F4F
:1033200018163CF4EF81F885C082D182E282F382E4
:103330001DC0A30192015058C701B6010E94402E42
:1033400087FF14C06627772762197309882777FDDE
:103350008095982F0E94E22EA50194010E94792D5C
:10336000EF81F88560837183828393830150110913
:1033700009F0B1CF2C960FB6F894DEBF0FBECDBFCB
:10338000DF91CF911F910F91FF90EF90DF90CF9041
:10339000BF90AF909F908F907F906F905F904F9075
:1033A0003F902F9008950F931F93CF93DF93EC01DD
:1033B000FC01E559FE4F108211821282138234976C
:1033C00010821182128213821DA61CA61FA61EA6A1
:1033D0001CA21DA21EA21FA218A619A61AA61BA6F1
:1033E0001C8E1D8E1E8E1F8E188E198E1A8E1B8E91
:1033F0001C8A1D8A1E8A1F8AE759F10910821182D0
:1034000012821382349610821182128213823496B1
:1034100010821182128213823496108211821282DB
:103420001382349610821182128213823496108293
:1034300011821282138234961082118212821382B8
:103440003496108211821282138234961082118275
:103450001282138234961082118212821382349661
:10346000108211821282138234961082118212828B
:103470001382E457F109108211821282138234966A
:10348000108211821282138234961082118212826B
:103490001382349610821182128213823496108223
:1034A0001182128213823496108211821282138248
:1034B00070961082118212821382349610821182C9
:1034C00012821382349610821182128213823496F1
:1034D000108211821282138234961082118212821B
:1034E00013823496108211821282138219AA18AAAA
:1034F0001BAA1AAA81EC93E00E94870380914906D7
:10350000811107C081E08093490685E496E00E941E
:103510007A0F8091C104811105C081E08093C104BC
:103520000E94C6108E01005F1E4F42E050E063E033
:1035300070E0C8010E941F08C8010E945D07035F78
:103540001F4F42E050E064E070E0C8010E94D70ADB
:10355000C8010E943009CE010E94C416CE010E940B
:1035600034180E940F11DF91CF911F910F910C948D
:103570001C114F925F926F927F928F929F92AF92A7
:10358000BF92CF92DF92EF92FF920F931F93CF9350
:10359000DF9300D000D0CDB7DEB73C0109831A839A
:1035A0002B833C83FC01E055FF4F80809180A280FB
:1035B000B380C501B4019F772FE832EC45EF5CE39F
:1035C0000E94F02F18161CF0812C912C5401F3014D
:1035D000E455FF4F4080518062807380C301B20187
:1035E0009F772FE832EC45EF5CE30E94F02F18162E
:1035F0001CF0412C512C3201A3019201C501B401F0
:103600000E94ED2D2B013C0128E431EE4AE75FE3F7
:1036100069817A818B819C810E94FB2F4B015C0127
:1036200020E037ED43EA5CE3C301B2010E94FB2FC7
:103630009B01AC01C501B4010E947A2D2DEC3CEC3C
:103640004CEC5DE30E94FB2F4B015C0126E636E665
:1036500046E65FE3C701B6010E94FB2F9B01AC0168
:10366000C501B4010E947A2D4B015C0181E894E010
:103670000E94540664EF71E08091B2049091B3040B
:103680000E94E32661EE71E08091B2049091B30450
:103690000E94E32622E030E0B501A4018091B2044B
:1036A0009091B3040E948C2861EE71E08091B20485
:1036B0009091B3040E94E32622E030E0B301A2011E
:1036C0008091B2049091B3040E948C2863EE71E063
:1036D0008091B2049091B3040E94E32665E070E00B
:1036E00080E090E00E949124C501B4010F900F90FA
:1036F0000F900F90DF91CF911F910F91FF90EF905E
:10370000DF90CF90BF90AF909F908F907F906F9001
:103710005F904F9008952F923F924F925F926F92D9
:103720007F928F929F92AF92BF92CF92DF92EF9251
:10373000FF920F931F93CF93DF93CDB7DEB72A97F6
:103740000FB6F894DEBF0FBECDBF9A8789877E8300
:103750006D83F901F886EF8280539F4F9A838983A6
:10376000DC014D905D906D907C90A985BA85A45246
:10377000BF4F4D925D926D927C92139729853A8549
:1037800020523F4F89859A858C529F4F9C838B8313
:10379000DC01CD90DD90ED90FC90D901CD92DD92D1
:1037A000ED92FC92139729843A84B8ED2B0E311CCC
:1037B000D1018D909D90AD90BC90A985BA85AC51FA
:1037C000BF4F8D929D92AD92BC921397DA012D91CD
:1037D0003D914D915C9160817181828193810E94C4
:1037E000792DE985FA8520813181428153810E94BA
:1037F000472E6B017C01D8012D913D914D915C913B
:103800000E947A2D20E030E040E05FE30E94FB2F31
:1038100060933D0670933E0680933F06909340066A
:10382000ED81FE812081318142815381C301B2014A
:103830000E947A2DA981BA816D937D938D939C937B
:103840001397EB81FC811082118212821382D801BE
:103850000D911D912D913C91EF81F8854081518111
:103860006281738189859A850E94B91A9B01AC0196
:10387000C501B4010E947A2D6B017C012BED3FE064
:1038800049EC50E40E94F02F18164CF42BED3FE069
:1038900049EC50E4C701B6010E94792D17C020E021
:1038A00030E0A901C701B6010E94402E87FD06C085
:1038B000F101C082D182E282F3820EC02BED3FE0A3
:1038C00049EC50E4C701B6010E947A2DD1016D93F5
:1038D0007D938D939C9313972A960FB6F894DEBF31
:1038E0000FBECDBFDF91CF911F910F91FF90EF9051
:1038F000DF90CF90BF90AF909F908F907F906F9010
:103900005F904F903F902F900895AF92BF92CF92CB
:10391000DF92EF92FF920F931F93A114B10439F03D
:10392000AA94AB28A9F4FC01EC59FF4F03C0FC0199
:10393000E85AFF4F40835183628373833496008338
:103940001183228333833496C082D182E282F38250
:103950001F910F91FF90EF90DF90CF90BF90AF90AD
:1039600008952F923F924F925F926F927F928F9223
:103970009F92AF92BF92CF92DF92EF92FF920F93FE
:103980001F93CF93DF93EC017B016A018901F90159
:1039900060817181828193810E94E02E4B015C01E4
:1039A00020E030E04AE754E4F601608171818281D1
:1039B00093810E94FB2FA50194010E94472E2B01A9
:1039C0003C01FE01EC5FFE4F608371838283938331
:1039D00020E030E04AE754E4F701608171818281A0
:1039E00093810E94FB2FA50194010E94472E4B0159
:1039F0005C01FE01F39560837183828393837E0172
:103A0000F8EFEF1AFEEFFF0A9B01AC01C301B20110
:103A10000E947A2D20E030E040E05FE30E94FB2F1F
:103A2000F70160837183828393831E01F4EF2F1A61
:103A3000FEEF3F0A288139814A815B8160E070E0B6
:103A400080E89FE30E94472E6B017C01A501940151
:103A5000C301B2010E94792D9B01AC01C701B601DF
:103A60000E94FB2FF101608371838283938381E83D
:103A700094E00E945406C2EBD4E06CEF71E08881C0
:103A800099810E94E32661EE71E0888199810E940C
:103A9000E326F80140815181628173812AE030E0A0
:103AA000888199810E948D2763EE71E088819981D8
:103AB0000E94E32665E070E080E090E0DF91CF9126
:103AC0001F910F91FF90EF90DF90CF90BF90AF903C
:103AD0009F908F907F906F905F904F903F902F902E
:103AE0000C9491242F923F924F925F926F927F920B
:103AF0008F929F92AF92BF92CF92DF92EF92FF92FE
:103B00000F931F93CF93DF93EC010E9462247E01F9
:103B100029E9E21A2EEFF20A1E01E5E92E1AEEEF6C
:103B20003E0AF10180809180A280B38068197909F2
:103B30008A099B09F701608371838283938361E023
:103B400070E080E090E00E949124CE010E94451236
:103B50005E01F8E3AF0EB11C6E0124E3C20ED11C6E
:103B60009701A501B601CE010E94B11C4E018CE364
:103B7000880E911C9401A501B601CE010E943F134D
:103B8000CE010E948F14FE01E456FF4FDE01A057C4
:103B9000BF4F2D913D914D915C91608171818281EA
:103BA00093810E947A2D2B013C01F7016081718184
:103BB000828193810E94E02E9B01AC01C301B2017E
:103BC0000E94FB2F20E030E04AEF54E40E94472E91
:103BD0006093410670934206809343069093440697
:103BE00001E416E09501A601B401CE010E948B1BF1
:103BF0009501A601B401CE010E947C1340E060E073
:103C000085E496E00E94F50F64E072E085E496E0BA
:103C10000E94E32640E062E085E496E00E94F50F12
:103C2000FE01E851FF4F408151816281738122E0A2
:103C300030E085E496E00E948C2841E060E085E475
:103C400096E00E94F50F67E072E085E496E00E943E
:103C5000E32641E062E085E496E00E94F50FC4515E
:103C6000DF4F488159816A817B8122E030E085E421
:103C700096E00E948C280E946224F1016083718387
:103C800082839383DF91CF911F910F91FF90EF90EB
:103C9000DF90CF90BF90AF909F908F907F906F906C
:103CA0005F904F903F902F9008952F923F924F92A8
:103CB0005F926F927F928F929F92AF92BF92CF92BC
:103CC000DF92EF92FF920F931F93CF93DF9300D079
:103CD00000D0CDB7DEB71C016A017B0185E496E018
:103CE0000E94EB0F810100511F4FD8018D919D91D2
:103CF0000D90BC91A02D89839A83AB83BC8320E077
:103D000030E0A901C701B6010E94F02F1816A4F4F3
:103D100062E370E05101B5EBAB1ABEEFBB0AC5011F
:103D20000E944F116EEC7FEFC5010E942911260100
:103D30003701E89477F85CC020E030E0A901C701C2
:103D4000B6010E94402E87FFF2CF6EEC7FEF51014B
:103D5000E5EBAE1AEEEFBE0AC5010E944F1162E319
:103D600070E0E2CF81E894E00E9454066AE072E0DD
:103D70008091B2049091B3040E94E32661EE71E059
:103D80008091B2049091B3040E94E32622E030E0D7
:103D9000B701A6018091B2049091B3040E948C28CF
:103DA00061EE71E08091B2049091B3040E94E32629
:103DB000D8014D915D916D917C9122E030E0809130
:103DC000B2049091B3040E948C2863EE71E080915C
:103DD000B2049091B3040E94E32665E070E080E0B5
:103DE00090E00E94912461E070E0C1010E94721D88
:103DF00029813A814B815C81F801608171818281E6
:103E000093810E94792D4B015C01E894B7F82AE078
:103E100037ED43EA5DE3C301B2010E94792D9B01B6
:103E2000AC01C501B4010E94402E87FD9BCF2AE062
:103E300037ED43EA5DE3C301B2010E947A2D9B0195
:103E4000AC01C501B4010E94F02F18160CF48ACF02
:103E5000C1010F900F900F900F90DF91CF911F91A4
:103E60000F91FF90EF90DF90CF90BF90AF909F9019
:103E70008F907F906F905F904F903F902F900C9419
:103E800037012F923F924F925F926F927F928F9263
:103E90009F92AF92BF92CF92DF92EF92FF920F93D9
:103EA0001F93CF93DF93CDB7DEB76A970FB6F89421
:103EB000DEBF0FBECDBF4C01C982DA82EB82FC822D
:103EC0000D831E832F83388789819A81AB81BC81C2
:103ED000898B9A8BAB8BBC8B8D819E81AF81B88592
:103EE0008D8B9E8BAF8BB88FA114B10409F0CCC120
:103EF0008401055B1E4F6BE470E0C8010E9429112C
:103F00006BE470E0C8010E944F1161E070E0C401F1
:103F10000E94721D540198EEA90EB11CD5012D917D
:103F20003D914D915C9169897A898B899C890E9428
:103F3000792D6D877E878F87988BF401E451FF4F31
:103F400020813181428153816D897E898F89988D4D
:103F50000E94792D2B013C012D853E854F85588986
:103F6000CA01B9010E94FB2F9B01AC0160E070E027
:103F7000CB010E947A2D6B017C01A3019201C30148
:103F8000B2010E94FB2F9B01AC01C701B6010E9448
:103F90007A2D0E9468306B017C012D853E854F850E
:103FA0005889C301B2010E94ED2D9B01AC01F401BF
:103FB000E051FF4F80819181A281B3818D879E87DF
:103FC000AF87B88BBC01CD010E94792D2B013C013C
:103FD0002BED3FE049E450E46D857E858F8598891F
:103FE0000E94F02F181624F477FA709477F87094E2
:103FF000B301A201C4010E94551E80E090E0A6E931
:10400000B2E4F40180A791A7A2A7B3A784A395A3C4
:10401000A6A3B7A3C40184519F4F9A8F898F14011F
:1040200090E9290E311C20E030E040E250E4C70165
:10403000B6010E94F02F87FD0CC1D40198966D91B6
:104040007D918D919C919B970E94AF2EC8010E94FB
:104050002911F40160A571A582A593A50E94AF2E38
:10406000C8010E944F1161E070E0C4010E94721DFE
:10407000D4019C962D913C919D979E968D919C91FB
:104080009F97281739071CF520E030E040E85FE3F0
:1040900098966D917D918D919C919B970E947A2D20
:1040A000F40160A771A782A793A720E030E040E861
:1040B0005FE364A175A186A197A10E94792DD40127
:1040C00094966D937D938D939C93979726C08217BA
:1040D00093071CF520E030E040E85FE3F40164A1C1
:1040E00075A186A197A10E947A2DD40194966D9313
:1040F0007D938D939C93979720E030E040E85FE3B9
:1041000098966D917D918D919C919B970E94792DB0
:10411000F40160A771A782A793A7D5012D913D91C6
:104120004D915C9169897A898B899C890E94792D4E
:104130006D877E878F87988BE98DFA8D20813181FD
:10414000428153816D897E898F89988D0E94792D56
:104150002B013C012D853E854F855889CA01B90147
:104160000E94FB2F9B01AC01C701B6010E947A2D72
:104170006B017C01A3019201C301B2010E94FB2FDC
:104180009B01AC01C701B6010E947A2D0E946830E4
:104190006B017C01D1014D905D906D907C9020E091
:1041A00030E0A901C301B2010E94F02F181624F5D6
:1041B00020E030E040E85FE3F40160A571A582A54E
:1041C00093A50E947A2DD40198966D937D938D933B
:1041D0009C939B9720E030E040E85FE394966D91DC
:1041E0007D918D919C9197970E94792DF40164A304
:1041F00075A386A397A317CF20E030E0A901C301E0
:10420000B2010E94402E87FF0ECF20E030E040E850
:104210005FE3D40198966D917D918D919C919B97D0
:104220000E94792DF40160A771A782A793A720E0CF
:1042300030E040E85FE364A175A186A197A10E94E8
:104240007A2DD40194966D937D938D939C9397973B
:10425000EACEC4016A960FB6F894DEBF0FBECDBF9A
:10426000DF91CF911F910F91FF90EF90DF90CF9052
:10427000BF90AF909F908F907F906F905F904F9086
:104280003F902F900C943701AA94AB2809F038C1C5
:1042900085E496E00E94EB0F40E050E060E371E4BB
:1042A000C4010E94CB12F401EC5AFF4F808191812E
:1042B000A281B381F40184A395A3A6A3B7A381E847
:1042C00094E00E94540662E172E08091B204909101
:1042D000B3040E94E32661EE71E08091B2049091F4
:1042E000B3040E94E326D40192966D917C9193973A
:1042F0004AE050E08091B2049091B3040E94852777
:1043000061EE71E08091B2049091B3040E94E326C3
:10431000F40160A171A14AE050E08091B204909153
:10432000B3040E94852763EE71E08091B2049091FE
:10433000B3040E94E32665E070E080E090E00E9414
:104340009124D40194962D913D914D915C91979734
:10435000F401E05BFF4F60817181828193810E9453
:10436000472E6B017C0180E090E0A8E4B2E4F40108
:1043700084A395A3A6A3B7A39C01AD01C701B60171
:104380000E94FB2FD40198966D937D938D939C93FF
:104390009B9785E496E00E94EB0F81E894E00E94F1
:1043A00054066AE172E08091B2049091B3040E94D5
:1043B000E32661EE71E08091B2049091B3040E9413
:1043C000E326F40144A155A166A177A122E030E0E3
:1043D0008091B2049091B3040E948C2861EE71E048
:1043E0008091B2049091B3040E94E326D401989680
:1043F0004D915D916D917C919B9722E030E0809191
:10440000B2049091B3040E948C2861EE71E0809117
:10441000B2049091B3040E94E32622E030E0B70199
:10442000A6018091B2049091B3040E948C2863EE9F
:1044300071E08091B2049091B3040E94E32665E09C
:1044400070E080E090E00E949124840100511F4FB1
:104450005401B5EBAB1ABEEFBB0AD801CD90DD908D
:10446000ED90FC9021E436E74FE450E4C701B6013B
:104470000E94F02F87FD39C02AE939E949E95FE355
:10448000F40160A571A582A593A50E94FB2F0E944F
:10449000AF2EC5010E94291126E636E646E65FE307
:1044A000D40194966D917D918D919C9197970E94E6
:1044B000FB2F0E94AF2EC5010E944F1161E070E0FA
:1044C000C4010E94721D40E060E085E496E00E9415
:1044D000F50FF801408151816281738122E030E063
:1044E00085E496E00E948C28B8CF2BED3FE049E4AC
:1044F00050E4C701B6010E94402E18160CF0BCCF44
:104500006A960FB6F894DEBF0FBECDBFDF91CF9194
:104510001F910F91FF90EF90DF90CF90BF90AF90E1
:104520009F908F907F906F905F904F903F902F90D3
:10453000089585E496E00E94640F86E292E09093ED
:1045400046068093450689EC96E7A6E5B0E480939D
:10455000CE049093CF04A093D004B093D10480E60E
:1045600095EEA0E3BFE38093D2049093D304A0938D
:10457000D404B093D50484E19EE6A3E6B4E480932A
:10458000D6049093D704A093D804B093D9048DE0B7
:104590009FEEAAE8B0E48093DA049093DB04A09342
:1045A000DC04B093DD0480E090E0A0E8BFE38093FA
:1045B000DE049093DF04A093E004B093E1048EED59
:1045C00095E00E942B078BEE95E00E94B308299896
:1045D000219A2D98259A2A98229A2E98269A80EA2E
:1045E0008093800081E18093810080E991E0909345
:1045F00087008093860010928900109288001092A4
:104600008B0010928A0008950895853008F04CC000
:10461000E82FF0E0EE0FFF1FEE5EFE4F7183608328
:104620008230E1F018F4813069F004C0833019F170
:10463000843071F1809169008C7F842B80936900B4
:10464000E89A089580916900440F551F440F551F43
:10465000837F842B80936900E99A08958091690093
:1046600034E0440F551F3A95E1F78F7C842B8093FB
:104670006900EA9A08958091690026E0440F551F69
:104680002A95E1F78F73842B80936900EB9A089544
:1046900080916A0094E0440F551F9A95E1F78F7C52
:1046A000842B80936A00EE9A08951F920F920FB6A2
:1046B0000F9211242F933F934F935F936F937F93A8
:1046C0008F939F93AF93BF93EF93FF93E09112016A
:1046D000F09113010995FF91EF91BF91AF919F91D7
:1046E0008F917F916F915F914F913F912F910F909B
:1046F0000FBE0F901F9018951F920F920FB60F923A
:1047000011242F933F934F935F936F937F938F93D6
:104710009F93AF93BF93EF93FF93E0911401F091B8
:1047200015010995FF91EF91BF91AF919F918F91E5
:104730007F916F915F914F913F912F910F900FBE9D
:104740000F901F9018951F920F920FB60F92112481
:104750002F933F934F935F936F937F938F939F9389
:10476000AF93BF93EF93FF93E0911601F091170180
:104770000995FF91EF91BF91AF919F918F917F919B
:104780006F915F914F913F912F910F900FBE0F90BE
:104790001F9018951F920F920FB60F9211242F930E
:1047A0003F934F935F936F937F938F939F93AF93B9
:1047B000BF93EF93FF93E0911801F09119010995D0
:1047C000FF91EF91BF91AF919F918F917F916F91E9
:1047D0005F914F913F912F910F900FBE0F901F90BF
:1047E00018951F920F920FB60F9211242F933F939B
:1047F0004F935F936F937F938F939F93AF93BF93E9
:10480000EF93FF93E0911A01F0911B010995FF913D
:10481000EF91BF91AF919F918F917F916F915F9138
:104820004F913F912F910F900FBE0F901F901895B1
:104830001F920F920FB60F9211242F933F938F93D5
:104840009F93AF93BF9380914D0690914E06A09198
:104850004F06B091500630914C0623E0230F2D37C0
:1048600020F40196A11DB11D05C026E8230F029674
:10487000A11DB11D20934C0680934D0690934E06CA
:10488000A0934F06B0935006809151069091520626
:10489000A0915306B09154060196A11DB11D8093BD
:1048A000510690935206A0935306B0935406BF91BD
:1048B000AF919F918F913F912F910F900FBE0F90CD
:1048C0001F9018952FB7F89460914D0670914E0681
:1048D00080914F06909150062FBF08953FB7F894EE
:1048E0008091510690915206A0915306B0915406C2
:1048F00026B5A89B05C02F3F19F00196A11DB11D3B
:104900003FBF6627782F892F9A2F620F711D811D57
:10491000911D42E0660F771F881F991F4A95D1F7B6
:1049200008958F929F92AF92BF92CF92DF92EF92B3
:10493000FF926B017C010E946E244B015C01C1144B
:10494000D104E104F104F1F00E94DD2C0E946E24F8
:10495000681979098A099B09683E734081059105A8
:1049600070F321E0C21AD108E108F10888EE880E40
:1049700083E0981EA11CB11CC114D104E104F10410
:1049800029F7DDCFFF90EF90DF90CF90BF90AF90F1
:104990009F908F900895789484B5826084BD84B58B
:1049A000816084BD85B5826085BD85B5816085BD2A
:1049B000EEE6F0E0808181608083E1E8F0E0108243
:1049C000808182608083808181608083E0E8F0E084
:1049D000808181608083E1E9F0E080818260808372
:1049E000808181608083E0E9F0E080818160808364
:1049F000E1ECF0E08081846080838081826080834C
:104A0000808181608083E3ECF0E08081816080833D
:104A1000E0ECF0E0808182608083E2ECF0E0808175
:104A200081608083EAE7F0E0808184608083808118
:104A300082608083808181608083808180688083C0
:104A4000089590E0FC013197EF30F105B0F5EA5A96
:104A5000FF4F0C944431809180008F7703C0809188
:104A600080008F7D80938000089580918000877FF3
:104A7000F9CF84B58F7702C084B58F7D84BD08954A
:104A8000809190008F7707C0809190008F7D03C048
:104A900080919000877F8093900008958091C0005E
:104AA0008F7703C08091C0008F7D8093C0000895F0
:104AB0008091C200877F8093C20008950F931F9357
:104AC000CF93DF931F92CDB7DEB7282F30E0F901E7
:104AD000EA5EFE4F8491F901EB5CFE4F1491F901FF
:104AE000EC5AFE4F04910023C9F0882321F069831A
:104AF0000E9421256981E02FF0E0EE0FFF1FED58A5
:104B0000FE4FA591B4919FB7F8948C91611103C0A9
:104B10001095812301C0812B8C939FBF0F90DF9153
:104B2000CF911F910F9108950E946431CF93DF932D
:104B30001F92CDB7DEB76983DC01ED91FC91028055
:104B4000F381E02D41E050E0BE016F5F7F4F09959A
:104B50000F90DF91CF910895CF93DF93EC018C8577
:104B60009D8597FF05C082E00E949F299D878C87C5
:104B70008C859D85DF91CF91089583E00C94332C33
:104B8000FC018485958597FD06C082E00E94472937
:104B900090E00196089582E00E94472990E00895F0
:104BA000FC018485958597FD05C02FEF3FEF358784
:104BB0002487089582E00C949F29CF93DF93EC0122
:104BC00080912701882331F083E00E94D0291816B4
:104BD000190634F081E090E09B838A8380E090E0C6
:104BE000DF91CF910895FC0120812E5F208342E464
:104BF00050E061E871E080E80C946B2AFC012181AF
:104C00008081813A59F4213209F04BC047E050E0ED
:104C100060E271E080E00E946B2A5EC0813209F0A0
:104C200040C0233289F4838190E0982F8827328115
:104C3000832BA0E0B0E080931C0190931D01A09312
:104C40001E01B0931F010FC0203239F467E070E0FD
:104C500080E291E00E949C2A09C0223221F48281E4
:104C60008093270103C02D7F2032B1F58091A506E6
:104C7000811103C0E0E0F8E002C0EEEFFAE08091BD
:104C8000200190912101A0912201B0912301803B4C
:104C90009440A105B10511F58091270180FF03C063
:104CA0001DC080E00895EE3F2AE0F20731F08081D8
:104CB00091819093FF0A8093FE0A87E797E791839B
:104CC00080832BE088E190E00FB6F894A89580935C
:104CD00060000FBE2093600081E0089588E10FB668
:104CE000F89480936000109260000FBEA895EE3F8C
:104CF0008AE0F80739F08091FE0A9091FF0A9183CB
:104D00008083EACF1092FF0A1092FE0AE5CF2FEFC0
:104D10003FEFFC01358724870895CF93C091270189
:104D20006AE070E080E090E00E94912481E0C1118F
:104D300001C080E0CF910895109258061092570656
:104D400088EE93E0A0E0B0E08093590690935A0675
:104D5000A0935B06B0935C0682E392E090935606C4
:104D6000809355068FEF9FEF9093620680936106C4
:104D7000089508950E94CB240E94B92686EA96E001
:104D80000E94C02C0E944801C0E0D0E00E94DE01D9
:104D90002097E1F30E940000F9CF6115710581F0C1
:104DA000DB010D900020E9F7AD0141505109461B90
:104DB000570BDC01ED91FC910280F381E02D099409
:104DC00080E090E008950C94CD26DC01ED91FC91FB
:104DD0000190F081E02D09948F929F92AF92BF9243
:104DE000DF92EF92FF920F931F93CF93DF93CDB794
:104DF000DEB7A1970FB6F894DEBF0FBECDBF7C0122
:104E0000F42FD52ECB0119A2223008F42AE08E010E
:104E10000F5D1F4F822E912CA12CB12C6F2F7D2D59
:104E2000A50194010E940331F22FD32ECA01015033
:104E300011096A3014F4E0E301C0E7E3E60FD8019A
:104E4000EC93232B242B252B49F7B801C7010E9493
:104E5000CD26A1960FB6F894DEBF0FBECDBFDF9171
:104E6000CF911F910F91FF90EF90DF90BF90AF9087
:104E70009F908F900895CF92DF92EF92FF920F93C1
:104E80001F93CF93DF93EC016A017B01211531055C
:104E900079F4E881F9810190F081E02D642FDF91B0
:104EA000CF911F910F91FF90EF90DF90CF900994D9
:104EB0002A303105E9F477FF1AC06DE20E94E52639
:104EC0008C0144275527BA014C195D096E097F09E9
:104ED0002AE0CE010E94EC26800F911FDF91CF9136
:104EE0001F910F91FF90EF90DF90CF9008952AE0EF
:104EF000B701A601CE01DF91CF911F910F91FF90D5
:104F0000EF90DF90CF900C94EC269A01AB016627CE
:104F100057FD6095762F0C943B272115310541F400
:104F2000DC01ED91FC910190F081E02D642F09945A
:104F30000C94EC269A01462F50E060E070E00C944F
:104F40008D274F925F926F927F928F929F92AF9236
:104F5000BF92CF92DF92EF92FF920F931F93CF9366
:104F6000DF93EC016A017B01B22E9A01AB01C7010C
:104F7000B6010E94A930882319F06EE372E027C0C1
:104F800026013701E89477F82FEF3FEF4FE75FE70F
:104F9000C301B2010E94A93081110DC02FEF3FEF74
:104FA0004FE75FE7C301B2010E94402E18161CF4C0
:104FB00062E472E00CC02FEF3FEF4FE75FE4C70100
:104FC000B6010E94F02F1816ACF466E472E0CE0130
:104FD000DF91CF911F910F91FF90EF90DF90CF90D5
:104FE000BF90AF909F908F907F906F905F904F9009
:104FF0000C94CD262FEF3FEF4FE75FECC701B601D2
:105000000E94402E87FDE1CF20E030E0A901C701DA
:10501000B6010E94402E87FF0AC06DE2CE010E94B9
:10502000E5268C01F7FAF094F7F8F09402C000E05E
:1050300010E0A12C60E070E080E09FE3AB1441F051
:1050400020E030E040E251E40E94472EA394F6CFE6
:105050009B01AC01C701B6010E947A2D6B017C0156
:105060000E94B42E2B013C010E94E02E9B01AC015A
:10507000C701B6010E94792D6B017C012AE0B301C2
:10508000A201CE010E94EC26080F191FBB2039F0A7
:105090006AE472E0CE010E94CD26080F191F7B2C16
:1050A000772041F120E030E040E251E4C701B60151
:1050B0000E94FB2F6B017C010E94AF2E4B01AA24A2
:1050C00097FCA094BA2C2AE030E0B501A401CE01EF
:1050D0000E943B27080F191FC501B4010E94E22E50
:1050E0009B01AC01C701B6010E94792D6B017C01C7
:1050F0007A94D6CFC801DF91CF911F910F91FF9085
:10510000EF90DF90CF90BF90AF909F908F907F9067
:105110006F905F904F9008950C94A127615030F0EC
:105120002091F100FC0120830196F8CF289884E6B5
:105130008093AF0608954091AA065091AB06209146
:10514000A8063091A90642175307B4F49091E800DD
:105150009570E1F39091E80092FD19C08093F10001
:105160008091AA069091AB0601968F739927892B9F
:1051700019F48EEF8093E8008091AA069091AB0617
:1051800001969093AB068093AA0681E0089580E093
:105190000895CF92DF92EF92FF920F931F93CF93D8
:1051A000DF931F92CDB7DEB7082F162FF42E862F70
:1051B000880F8E5F99830E949B2883E00E949B2822
:1051C000E02EC02E9981D92E8C2D8E19811798F43E
:1051D000F601F7FE02C0849101C080810E949B28E5
:1051E000082F80E00E949B288023FFEFCF1ADF0A60
:1051F0008111EACF01C081E00F90DF91CF911F9123
:105200000F91FF90EF90DF90CF9008958091D7009D
:1052100081608093D70080EA8093D80089B580614F
:1052200089BD89B5826089BD09B400FEFDCF61E00A
:1052300070E080E090E00E9491248091D8008F7C03
:1052400080618093D8008091E000807F8093E000AF
:105250000895CF93DF931F92CDB7DEB71982CE01A9
:1052600001960E94F3250E94652DBE016F5F7F4F5E
:105270000E94DE2C89810F90DF91CF9108952FB786
:10528000FC012083F89467706093E9000895CF9340
:10529000DF931F92CDB7DEB7682FCE0101960E9433
:1052A0003F298091F20099819FBF0F90DF91CF91AC
:1052B0000895FF920F931F93CF93DF9300D0CDB744
:1052C000DEB7F62E8A019091AE06992311F057FFB2
:1052D00003C08FEF9FEF2BC0682FCE0101967A831A
:1052E0000E943F298091F20090E0A8017A81801706
:1052F00091070CF4AC01EF2DF72FF40E84E6FE16A7
:1053000039F028988093AF069091F1009193F7CFF0
:105310004115510521F08091F200882321F0898107
:105320008FBFCA0104C08BE68093E800F8CF0F90CE
:105330000F90DF91CF911F910F91FF900895CF9320
:10534000DF931F92CDB7DEB741E050E0BE016F5F43
:105350007F4F0E945929019719F4898190E002C07A
:105360008FEF9FEF0F90DF91CF910895CF93DF9351
:105370001F92CDB7DEB7682FCE0101960E943F295C
:105380009091E800892F807295FF04C09091F200FF
:1053900080E4891B99819FBF0F90DF91CF91089581
:1053A0006F927F928F929F92AF92BF92CF92DF9235
:1053B000EF92FF920F931F93CF93DF931F92CDB77E
:1053C000DEB7782E7B01C42EB52E8091AE068823E1
:1053D00069F0042F152F8AEFD82E872D8072982E12
:1053E0009AE3A92E872D8074882E11C08FEF9FEF2E
:1053F00057C0872D0E94B629682E81110CC0DA94FF
:10540000A9F361E070E080E090E00E949124011532
:10541000110579F73BC0282F30E0021713070CF471
:10542000602E672DCE0101960E943F298091E800F1
:1054300085FF29C0262D30E0021B130B992039F07F
:105440006A948FEF6816B1F01092F100F9CFF7016E
:10545000862D77FE07C0815058F094919093F1000B
:105460003196F9CF815020F091919093F100FACFCD
:10547000E20EF31E8091E80085FF0FC001151105B3
:1054800011F481100AC089818FBFC1CF5D9884E675
:105490008093B0068C2D9B2D03C0A092E800F3CF23
:1054A0000F90DF91CF911F910F91FF90EF90DF90C0
:1054B000CF90BF90AF909F908F907F906F90089506
:1054C0001092E9001092AB061092AA069093A906DA
:1054D0008093A8060895CF92DF92FF920F931F93B7
:1054E000CF93DF9300D0CDB7DEB7F82E8A016B01E2
:1054F00001151105B1F0F601F7FE02C0849101C05B
:10550000808149835A830E949B2801501109FFEF33
:10551000CF1ADF0A49815A818111EACF8FEF9FEFBD
:1055200001C0CA010F900F90DF91CF911F910F9191
:10553000FF90DF90CF900895BF92CF92DF92EF92CD
:10554000FF920F931F93CF93DF936C018B01EB01BD
:105550003BEFB32E2097C1F07E01C134D1051CF082
:1055600020E4E22EF12C8091E80082FFFCCFC801FC
:105570008C1B9D0B6E2D8C0D9D1D0E948E28B09254
:10558000E800CE19DF09E6CFC801DF91CF911F9166
:105590000F91FF90EF90DF90CF90BF9008951F92F2
:1055A0000F920FB60F921124DF92EF92FF920F939A
:1055B0001F932F933F934F935F936F937F938F939B
:1055C0009F93AF93BF93EF93FF93CF93DF93CDB7A9
:1055D000DEB76C97DEBFCDBF1092E9008091E80086
:1055E00083FF23C168E0CE0145960E948E2882EF9A
:1055F0008093E8003D8937FF05C08091E80080FF77
:10560000FCCF03C08EEF8093E800832F807609F0F3
:10561000F0C02E894F89D88C21110CC0303829F464
:105620008091AD068093F10002C01092F1001092BB
:10563000F100F4C0842F90E09D29213049F431110C
:10564000EDC0019709F0EAC08091AD068D7F0AC0D8
:10565000233059F43111E2C0019709F0DFC0809185
:10566000AD0682608093AD06D9C0253041F48091AB
:10567000E80080FFFCCF40684093E300CFC02630B5
:1056800009F08DC0EB8CFC8C22E0D2122CC080E0A3
:1056900090E00E94602A0E94292999E08E010F5F04
:1056A0001F4FF801292F11922A95E9F79983DA8281
:1056B00091E09E8390EA98879AEF99872091AA06B5
:1056C0003091AB06275F3F4F3C832B838D83C7010F
:1056D0000E94602A49E050E0B80180E00E946B2AF5
:1056E0000E9429299BC0C7010E94602A0E94652D43
:1056F000BE016B5E7F4F0E94072D009719F00CF0E2
:105700008DC090C081E0D8120EC08B8D9C8D089703
:1057100019F481E08093A7068091A70681112FC01C
:1057200065ED71E031C0E3E0DE127CC08F89882333
:1057300049F1823029F440E862E18AEF91E01CC02F
:10574000813029F440E862E187EE91E015C08330B2
:1057500009F068C00E94652D8E010F5F1F4FB801D0
:105760000E94262DF80101900020E9F73197E01BF7
:10577000F10B40E06E2FC8010E94C9284DC063ECB8
:1057800071E002C06DE072E06115710509F44AC074
:10579000FB01449150E080E80E946B2A3FC0273013
:1057A00009F440C0283021F481E08093F10036C034
:1057B0002930A1F53370B1F5E9E2F1E081E021E0B3
:1057C00036E39081992361F08093E9002093EB0008
:1057D00091919093EC003093ED008F5F873089F7C3
:1057E0008EE78093EA001092EA008F898093AE06DC
:1057F00015C08B8D9C8D0E94602A898D811105C0FA
:10580000CE0145960E94FE2507C00E94652DBE016F
:105810006B5E7F4F0E94452D882321F08EEF809391
:10582000E80003C081E28093EB006C960FB6F89419
:10583000DEBF0FBECDBFDF91CF91FF91EF91BF9142
:10584000AF919F918F917F916F915F914F913F9118
:105850002F911F910F91FF90EF90DF900F900FBE4F
:105860000F901F9018958093E9008091F200882393
:1058700019F08AE38093E80008951F920F920FB603
:105880000F9211242F933F934F935F936F937F93C6
:105890008F939F93AF93BF93CF93EF93FF93C09159
:1058A000E1008091E100837F8093E1008093E1003B
:1058B000C3FF0FC01092E90081E08093EB001092CB
:1058C000EC0082E38093ED001092AE0688E08093B6
:1058D000F000C2FF19C083E00E94332C8091B00613
:1058E000882339F08091B00681508093B0068823D8
:1058F00089F18091AF06882339F08091AF068150FD
:105900008093AF06882341F1C4FF10C08091E2006C
:105910008E7E81608093E2008091E1008F7E809393
:10592000E1008091AC068E7E806111C0C0FF16C080
:105930008091E2008E7E80618093E2008091E100A0
:105940008E7E8093E1008091AC068E7E8160809394
:10595000AC0604C05D9ACDCF289AD6CFFF91EF91C7
:10596000CF91BF91AF919F918F917F916F915F91F7
:105970004F913F912F910F900FBE0F901F90189550
:105980001092AE061092AD061092AC060E94062947
:105990008091E1008E7E8093E1008DE08093E200B3
:1059A000559A209AEEEFFFE7859194918B3F9C4D9D
:1059B00019F481E08093A50608950895EF92FF926F
:1059C0000F931F93CF93DF937B01FC01C281D3819F
:1059D00000E010E0209781F0E881F9810280F381F6
:1059E000E02DB701CE01099597FD08C0080F191FDA
:1059F0000884D985C02DEECFC80102C08FEF9FEF7C
:105A0000DF91CF911F910F91FF90EF9008950F9329
:105A10001F93CF93DF938B01FC01C281D381209729
:105A200071F0E881F9810480F581E02DB801CE01A3
:105A30000995009731F40884D985C02DF0CF80E016
:105A400090E0DF91CF911F910F9108950F931F93D5
:105A5000CF93DF938B01FC01C281D381209771F03A
:105A6000E881F9810680F781E02DB801CE01099522
:105A7000080F111D0884D985C02DF0CFF8011082C0
:105A8000DF91CF911F910F9108950F931F93CF93A3
:105A9000DF938B01FC01C281D381209771F0E881F3
:105AA000F9810190F081E02DB801CE0109958111B5
:105AB00006C00884D985C02DF0CF80E001C081E008
:105AC000DF91CF911F910F9108958091B5068111BB
:105AD0000DC082E08093B10684E08093B2061092FC
