:100000000C940D010C94451C0C946C1C0C94931CCA
:100010000C94BA1C0C9435010C9435010C94E11C21
:100020000C9435010C94BA0F0C942D250C94BF231D
:100030000C9435010C9435010C9435010C94350168
:100040000C9435010C9435010C9435010C94350158
:100050000C9435010C9435010C9435010C94081D59
:100060000C9435010C9435010C9435010C94350138
:100070000C9435010C9435010C9435010C94350128
:100080000C9435010C9435010C9435010C94350118
:100090000C9440040C9435010C9435010C943501FA
:1000A0000C9435010C94540E0C943501291E2C1E11
:1000B0001B1E1F1E251E4D1E4D1E4D1E301E341EA6
:1000C000381E3E1E421E4D1E481E084AD73B3BCEE0
:1000D000016E84BCBFFDC12F3D6C74319ABD568347
:1000E0003DDA3D00C77F11BED9E4BB4C3E916BAAFF
:1000F000AABE000000803F05A84CCDB2D44EB9384E
:1001000036A9020C50B9918688083CA6AAAA2ABE34
:10011000000000803F000000000200090F00000303
:100120000401000C000000000000000000000000BE
:100130000000000000040802011040804010204030
:1001400080408008020401804020100201108010CD
:1001500020404020040404040403040502020202B7
:100160000403020202020606060606060404020250
:1001700002040400000000250028002B002E00319E
:1001800000080B0002020201000904000001020243
:1001900000000524001001052401010104240206C9
:1001A0000524060001070581031000400904010031
:1001B000020A000000070502024000000705830252
:1001C00040000012010002EF020140FB1F0023006B
:1001D00001010203011201000200000040FB1F00A8
:1001E00023000101020301506F6C6F6C7520436F97
:1001F00072706F726174696F6E00506F6C6F6C75A6
:1002000020412D53746172203332553400040309A8
:100210000400DC015603951B8C1F11241FBECFEF79
:10022000DAE0DEBFCDBF12E0A0E0B1E0ECE4F4E53F
:1002300002C005900D92A036B107D9F726E0A0E6DE
:10024000B2E001C01D92A333B207E1F712E0CAE1A8
:10025000D2E004C02297FE010E94012AC231D107D8
:10026000C9F70E94AA1F0C94242A0C940000AF9294
:10027000BF92CF92DF92EF92FF920F931F9340EDC8
:1002800057E060E070E087E494E00E94DF0520E83A
:1002900035E240E050E06BEC75E087E494E00E94CA
:1002A000980587E494E00E9495056BE371E08091E6
:1002B0007804909179040E94D31F6AE070E080E096
:1002C00090E00E94811D41E060E087E494E00E949C
:1002D000510640E855E260E070E08BEC95E00E944A
:1002E000771F61E083E693E00E94B91061E083E646
:1002F00093E00E94B61080E692E00E948611A12C45
:10030000B12CC12CD12C76019701860140E050E040
:1003100060EB71E480E692E00E94611B1F910F91F7
:10032000FF90EF90DF90CF90BF90AF900895AF9285
:10033000BF92CF92DF92EF92FF920F931F93CF93D2
:10034000DF93CDB7DEB72C970FB6F894DEBF0FBEA4
:10035000CDBFA0900601B09007018CE0E8E9F2E083
:10036000DE01119601900D928A95E1F7C980DA803D
:10037000EB80FC800D811E812F81388549855A854F
:100380006B857C8580E692E00E94E61866E970E065
:1003900080E090E02C960FB6F894DEBF0FBECDBF84
:1003A000DF91CF911F910F91FF90EF90DF90CF9051
:1003B000BF90AF900C94811D89EC96E7A6E5B0E460
:1003C0008093600290936102A0936202B0936302F3
:1003D00080E695EEA0E3BFE380936402909365020C
:1003E000A0936602B093670284E19EE6A3E6B4E4BC
:1003F0008093680290936902A0936A02B0936B02A3
:100400008DE09FEEAAE8B0E480936C0290936D02B9
:10041000A0936E02B0936F0288E293E00E946C0694
:1004200085E393E00E94F4072998219A2D98259A54
:100430002A98229A2E98269A80EA8093800081E159
:100440008093810080E991E09093870080938600FB
:10045000109289001092880010928B0010928A00EE
:1004600008958091B70390E02091B803821B910911
:1004700008952091B8038091B703281750F4E22F14
:10048000F0E0E754FC4F808190E02F5F2093B803A9
:1004900008958FEF9FEF0895E091B8038091B7031F
:1004A000E81730F4F0E0E754FC4F808190E00895C5
:1004B0008FEF9FEF08950895CF92DF92EF92FF9212
:1004C0000F931F93CF93DF937C01CB018A0120917F
:1004D0009303222389F0EB016B01C40ED51ECC15CA
:1004E000DD0569F06991D701ED91FC910190F081F2
:1004F000E02DC7010995F3CF642F0E941704C801AE
:10050000DF91CF911F910F91FF90EF90DF90CF90EF
:100510000895CF93DF931F92CDB7DEB76983209103
:1005200093032223D1F020919403203240F021E064
:1005300030E0FC013383228380E090E015C080919D
:100540009503E82FF0E0EA56FC4F998190838F5F86
:10055000809395038093940305C061E0CE010196DA
:100560000E94170481E090E00F90DF91CF910895F1
:10057000FC011382128248EE53E060E070E0448395
:1005800055836683778381E591E091838083089525
:100590001092B8031092B70310929503109294032F
:1005A0000C945A0381E0809393036093B6031092F6
:1005B00095031092940308950F93062F21E0409124
:1005C000940366E973E08091B6030E94C003109221
:1005D000950310929403109293030F9108958F92B4
:1005E0009F92AF92BF92CF92DF92EF92FF920F93C2
:1005F0001F93CF93DF93EC01F62ED42E48015901BF
:10060000EE2019F10E94D2021E2D143008F013E0E2
:100610001150B8F0E881F98128E0129FB00111244F
:10062000A501940104C056954795379527956A957D
:10063000D2F7CA01B9010190F081E02DCE010995F0
:10064000E7CF60E0CE010E94DC024D2D413208F080
:1006500040E22C2D69EB73E08F2D0E9478031092FD
:10066000B8038093B703DF91CF911F910F91FF9053
:10067000EF90DF90CF90BF90AF909F908F900895B4
:10068000CF92EF920F931F93C22EE12C00E010E067
:1006900098010E94EF021F910F91EF90CF90089563
:1006A00021E00C94400361E00C94DC0287E893E0C5
:1006B0000C94B8021092460481E080934404109296
:1006C000430461E082E00E944E1E61E083E00E94EC
:1006D0004E1EE9EBF0E080818E7F808380818D7FEC
:1006E000808388E48093B80085E48093BC000895FB
:1006F000413208F043C0909146049111FCCF91E043
:1007000090934604209344042FEF2093D903109232
:100710001E04240F20931D049093450490914504DA
:10072000880F892B8093450480914304813061F4C4
:1007300010924304809145048093BB008091BC00DB
:1007400083FDF8CF85EC01C085EE8093BC008091DD
:1007500046048130E1F380911E04841710F4409127
:100760001E042FE134E0FB01D9018A2F821B84177C
:1007700018F48D918193F9CF842F089580E0089526
:100780000F93413208F04AC0909146049111FCCF7A
:1007900092E090934604009344049FEF9093D90312
:1007A00010921E0440931D04FB016FE174E0DB0115
:1007B0009A2F961B941718F491919D93F9CF10924C
:1007C000450490914504880F892B809345048091BE
:1007D0004304813061F41092430480914504809376
:1007E000BB008091BC0083FDF8CF85EC01C085EE95
:1007F0008093BC00222321F0809146048230E1F3F3
:100800008091D9038F3F61F08091D903803251F0FC
:100810008091D903803341F483E007C081E005C0B3
:1008200080E003C082E001C084E00F91089561324E
:1008300098F420914604243089F46093FB03FC0172
:100840008DEF93E0DC012A2F281B261718F4219145
:100850002D93F9CF80E0089581E0089582E0089516
:1008600085ED8093BC008091BC0084FDFCCF10928C
:100870004604089585EC8093BC00109246040895C8
:100880001F920F920FB60F9211242F933F934F9305
:100890005F936F937F938F939F93AF93BF93EF93E8
:1008A000FF938091B900887F803609F49EC078F567
:1008B000883209F45DC090F4803109F456C038F4F0
:1008C000882309F4F5C0883009F44FC0F5C0883199
:1008D00009F44EC0803209F45FC0EEC0803409F4E0
:1008E0006AC058F4803309F457C0883309F0E4C073
:1008F0008093D9030E943A04DFC0803509F44FC0C9
:10090000883509F45DC0883409F0D6C0D3C0883971
:1009100009F4C4C0A8F4883709F467C038F48836ED
:1009200009F463C0803709F460C0C6C0883809F490
:10093000B5C0803909F45FC0803809F0BDC05BC024
:10094000803B09F483C038F4803A09F466C0883AE1
:1009500009F47CC0B1C0803C09F4A4C0883C09F40F
:10096000A1C0883B09F487C0A7C08091450410C08E
:1009700090911E0480911D04981770F5E0911E045B
:1009800081E08E0F80931E04F0E0E15EFB4F8081DA
:100990008093BB0085EC83C08093D9038BC0E0912A
:1009A0001E0481E08E0F80931E048091BB00F0E056
:1009B000E15EFB4F808390911E0480911D046BC00B
:1009C000E0911E0481E08E0F80931E048091BB0095
:1009D000F0E0E15EFB4F80838091440481116AC0A6
:1009E00081E08093430484EA5EC083E08093460400
:1009F0001092DA03CFCF8091DA03803208F04EC034
:100A0000E091DA0381E08E0F8093DA038091BB00DE
:100A1000F0E0E552FC4F8083BDCF0E943A04809104
:100A2000DA03803230F4E091DA03F0E0E552FC4F73
:100A300010826091DA0370E0E0913F04F09140048D
:100A40008BED93E009951092DA0336C084E0809331
:100A500046041092FC031092FB03E0914104F091D4
:100A6000420409958091FB03811105C081E08093C8
:100A7000FB031092FD03E091FC0381E08E0F809355
:100A8000FC03F0E0E350FC4F80818093BB00909129
:100A9000FC038091FB03981708F47CCF85E88093D2
:100AA000BC000AC085EC8093BC001092460404C0D0
:100AB0001092D9030E943004FF91EF91BF91AF9142
:100AC0009F918F917F916F915F914F913F912F9166
:100AD0000F900FBE0F901F9018950F931F93CF93F9
:100AE000DF93EC01662359F00E94521D69837A83DB
:100AF0008B839C83DF91CF911F910F9108950E946A
:100B0000521D09811A812B813C81601B710B820B64
:100B1000930B623371058105910530F763E070E056
:100B200080E090E00E94811DEACF60E00C946D05AA
:100B3000CF92DF92EF92FF920F931F93CF93DF93A9
:100B400000D000D0CDB7DEB78C017B01FC0172ABC9
:100B500061AB8BE1C82ED12CC70129833A834B832B
:100B60005C830E947D1F29813A814B815C818111C8
:100B700013C0F1E0CF1AD10879F064E670E080E0AC
:100B800090E029833A834B835C830E94811D5C81C2
:100B90004B813A812981E0CFBA01A901F80181A9ED
:100BA00092A90F900F900F900F90DF91CF911F910E
:100BB0000F91FF90EF90DF90CF900C94771FFC0186
:100BC00013AA14AA15AA16AA1182128213821482D9
:100BD000411551056105710521F0CB01BA010C9455
:100BE000811D08951F93CF93DF93EC01162F6DE5C0
:100BF00071E089A99AA90E94D31F4AE050E0612FB1
:100C000089A99AA90E948A2064E671E089A99AA913
:100C10000E94D31F62E370E080E090E0DF91CF910B
:100C20001F910C94811D1F93CF93DF93EC01162F1E
:100C30008D81882389F189A99AA9DC01ED91FC9124
:100C40000480F581E02D0995892BA9F307C026378B
:100C5000310519F12835310509F41D8289A99AA9B0
:100C6000DC01ED91FC910480F581E02D09951816C9
:100C7000190694F489A99AA9DC01ED91FC910680EA
:100C8000F781E02D09959C01332723363105F9F6CC
:100C9000612FCE010E94F20583E6DF91CF911F9173
:100CA00008950F931F93CF93DF931F92CDB7DEB7B5
:100CB0008C01662349F081E0F801858360E0C8017A
:100CC00049830E9413064981F80145830F90DF9103
:100CD000CF911F910F910895FC0183E090E09087E0
:100CE00087831386128614860895EF92FF921F93CE
:100CF000CF93DF931F92CDB7DEB77C01162FFC0197
:100D0000618587E893E049830E94D202612F87E8DA
:100D100093E00E9489024981642F87E893E00E9452
:100D2000890287E893E00E945303F70186830F90BE
:100D3000DF91CF911F91FF90EF900895CF93DF93B4
:100D4000EC018F819885029729F440E069E3CE0198
:100D50000E94750640E063E2CE010E9475064FE6F0
:100D600060E2CE01DF91CF910C9475069F92AF9215
:100D7000BF92CF92DF92EF92FF920F931F93CF9388
:100D8000DF93EC01698587E893E00E94D202E0914D
:100D90008703F09188030190F081E02D68EA87E8ED
:100DA00093E0099587E893E00E94530346E0698544
:100DB00087E893E00E9450030E94521D7B0187E860
:100DC00093E00E943102069784F48A859B85892BE3
:100DD000B1F30E94521D6E197F098A859B85861783
:100DE000970768F781E08C872CC087E893E00E9422
:100DF0003902A82E87E893E00E943902982E87E8EE
:100E000093E00E943902E82E87E893E00E943902BD
:100E1000B82E87E893E00E943902F82E87E893E025
:100E20000E943902D92CC12CCA28D982C8821B2D14
:100E300000E00E291B830A83982F88278F299D8322
:100E40008C83DF91CF911F910F91FF90EF90DF90F6
:100E5000CF90BF90AF909F9008951F93CF93DF9353
:100E60001F92CDB7DEB7162F87E893E049830E9423
:100E7000D2024981642F87E893E00E94890287E8C3
:100E800093E00E945303811114C041E0612F87E871
:100E900093E00E94500387E893E00E943102892B7F
:100EA00041F087E893E00F90DF91CF911F910C9470
:100EB00039028FEF9FEF0F90DF91CF911F9108952F
:100EC000EF92FF920F931F93CF93DF937C01EB017F
:100ED0008A016330710521F04230510509F051C09B
:100EE000CE010197039758F50115110581F04FE0E8
:100EF00050E06BE6C7010E942D078F3F2FEF92074E
:100F000019F001E010E013C00130110551F04FE07D
:100F100050E06AE6C7010E942D078F3FEFEF9E0762
:100F200021F4C330D10569F027C000E010E0C330E0
:100F3000D10529F4873D9105F1F5C2E0D0E0209775
:100F4000D9F40115110561F04FE050E069E6C701E1
:100F50000E942D07833D910589F10130110549F06B
:100F60004FE050E068E6C7010E942D07833D9105E0
:100F700041F1C330D10519F00230110511F480E0C0
:100F800025C0F701D087C783209759F0D7FD11C03E
:100F900023977CF40130110511F48BE608C08AE632
:100FA00006C00130110511F489E601C088E6F70199
:100FB000818781E00BC0C1E0D0E0C1CF01E010E04B
:100FC00002C000E010E0C0E0D0E0D6CFDF91CF91CA
:100FD0001F910F91FF90EF900895DC01ED91FC912E
:100FE0000190F081E02D0994CF93DF93EC0186E02E
:100FF000EFE2F1E0DE01529601900D928A95E1F761
:1010000086E0E5E3F1E0DE011C9601900D928A9501
:10101000E1F784E090E09A8F898F1CA61BA61DA69D
:10102000DF91CF910895EF92FF921F93CF93DF93BB
:101030001F92CDB7DEB77C01162FFC01638D87E8C8
:1010400093E049830E94D202612F87E893E00E94D7
:1010500089024981642F87E893E00E94890287E82A
:1010600093E00E945303F701808F0F90DF91CF919F
:101070001F91FF90EF900895EF92FF921F93CF93EF
:10108000DF931F92CDB7DEB77C01162FFC01648D74
:1010900087E893E049830E94D202612F87E893E0BA
:1010A0000E9489024981642F87E893E00E948902A7
:1010B00087E893E00E945303F701808F0F90DF9140
:1010C000CF911F91FF90EF900895FC01218D328DFB
:1010D0002330310511F0603210F40C943C080C946C
:1010E0001308CF93DF93EC01898D9A8D833091059E
:1010F000D9F440E061E2CE010E94650847E560E274
:10110000CE010E94650844E664E2CE010E946508B3
:1011100040E265E2CE010E94650840E066E2CE0151
:10112000DF91CF910C946508029739F448E063E2AF
:10113000CE010E94130847E406C040E063E2CE01FE
:101140000E94130847E260E2CE010E9413084CE0BF
:1011500060E0CE010E943C0840E261E0CE010E94C6
:101160003C0840E062E0CE01DF91CF910C943C0856
:101170009F92AF92BF92CF92DF92EF92FF920F9326
:101180001F93CF93DF93EC016B8D87E893E00E9470
:10119000D20268EA70E087E893E00E94ED0787E8F2
:1011A00093E00E945303888F46E06B8D87E893E0BD
:1011B0000E9450030E94521D6B0187E893E00E9439
:1011C0003102069784F48BA59CA5892BB1F30E946C
:1011D000521D6C197D098BA59CA58617970768F78A
:1011E00081E08DA72CC087E893E00E943902A82EE9
:1011F00087E893E00E943902982E87E893E00E94E6
:101200003902C82E87E893E00E943902B82E87E899
:1012100093E00E943902D82E87E893E00E943902B9
:10122000F92CE12CEA28F982E8821B2D00E00C2938
:101230001B830A83982F88278D299D838C83DF91B8
:10124000CF911F910F91FF90EF90DF90CF90BF90C3
:10125000AF909F900895CF92DF92EF92FF920F93FD
:101260001F93CF93DF93EC016C8D87E893E00E948E
:10127000D202898D9A8D039721F469A17AA16068C1
:1012800002C06F8D78A187E893E00E94ED0787E8A0
:1012900093E00E945303888F46E06C8D87E893E0CB
:1012A0000E9450030E94521D8B0187E893E00E9428
:1012B0003102069784F48BA59CA5892BB1F30E947B
:1012C000521D601B710B8BA59CA58617970768F7AD
:1012D00081E08DA767C0898D9A8D0397F9F487E81F
:1012E00093E00E943902C82E87E893E00E943902F9
:1012F000D82E87E893E00E943902E82E87E893E031
:101300000E943902182F87E893E00E943902F82ED4
:1013100087E893E00E943902082F35C087E893E000
:101320000E943902D82E87E893E00E943902C82E25
:10133000298D3A8D87E893E0232B99F40E94390296
:10134000182F87E893E00E943902E82E87E893E09F
:101350000E943902082F87E893E00E943902F82E94
:1013600012C00E943902082F87E893E00E943902D8
:10137000F82E87E893E00E943902182F87E893E05F
:101380000E943902E82E6C2D70E07D297F836E83E8
:101390004E2D50E0512B598748872F2D30E0302BB0
:1013A0003B872A87DF91CF911F910F91FF90EF909C
:1013B000DF90CF900895CF93DF93EC010E94B8089F
:1013C000CE01DF91CF910C942B091F93CF93DF9324
:1013D0001F92CDB7DEB7162F87E893E049830E94AE
:1013E000D2024981642F87E893E00E94890287E84E
:1013F00093E00E945303811114C041E0612F87E8FC
:1014000093E00E94500387E893E00E943102892B09
:1014100041F087E893E00F90DF91CF911F910C94FA
:1014200039028FEF9FEF0F90DF91CF911F910895B9
:10143000EF92FF920F931F93CF93DF93EC018B01F9
:101440007A016430710521F04230510509F055C030
:10145000C8010397029708F0CDC0E114F10471F0C0
:101460004FE050E06DE1CE010E94E509893491051D
:1014700009F4B8C081E0E816F10451F04FE050E003
:101480006EE1CE010E94E5098934910509F4AEC0F0
:101490000430110509F0D0C0E114F10469F040E214
:1014A00050E069E1CE010E94E509019679F421E05E
:1014B000E216F10409F4A3C040E250E068E1CE0175
:1014C0000E94E509019609F0A4C099C004301105F5
:1014D00009F09BC04FE050E06EE1CE010E94E509AB
:1014E000EE24E394F12CCC9709F0A9C002E010E0BF
:1014F00082E0E816F10409F486C01A8F098F0130E2
:10150000110569F124F4012B09F449C069C00230C6
:10151000110541F10330110509F062C0EA94EF288A
:1015200011F48DE101C08EE18C8F8B8F88E090E00B
:101530009AA389A389E090E098A38F8F8AE090E036
:101540009EA38DA38BE090E09CA38BA38CE090E006
:101550009AA789A78DE090E098A78FA341C0EA944D
:10156000EF2811F489E101C088E18B8F8EE18C8F27
:1015700083E090E098A38F8F84E090E09AA389A302
:1015800087E090E09CA38BA388E090E09EA38DA3CE
:1015900085E090E098A78FA386E090E01FC0EA94D2
:1015A000EF2811F489E101C088E18B8F8EE18C8FE7
:1015B00083E090E098A38F8F84E090E09AA389A3C2
:1015C00085E090E09CA38BA386E090E09EA38DA392
:1015D00087E090E098A78FA388E090E09AA789A77A
:1015E00081E030C0EE24E394F12C02C0E12CF12C18
:1015F00003E010E00330110508F44ECF79CF04303A
:10160000110509F075CF80E01DC0EE24E394F12CA4
:101610006FCF0430110569F44FE050E06EE1CE0168
:101620000E94E50931E020E0CC9709F030E0032F7B
:10163000122FE12CF12C5CCF03E010E059CF00E039
:1016400010E056CFDF91CF911F910F91FF90EF9057
:10165000089590918004E0918404F0918504992389
:1016600011F0849101C080812FEB280F2A3110F4F2
:10167000805E0895803249F49F012F5F3F4F309381
:10168000850420938404EF2B31F708951F93CF93A3
:10169000DF930E94290BC0E0D0E01AE090ED980F94
:1016A0009A30B8F49E01129FE001139FD00D1124CF
:1016B000C80FD11D87FDDA95E09780918404909141
:1016C0008504019690938504809384040E94290BDD
:1016D000E5CFCE01DF91CF911F9108951092720056
:1016E0001092C00084E08093C10089E08093C20022
:1016F00081E08093C300EFEBF0E083E0808388EE2D
:101700008093D10010821092D200579A7894089555
:101710002F923F924F925F926F927F928F929F9201
:10172000AF92BF92CF92DF92EF92FF920F931F93EF
:10173000CF93DF93CDB7DEB727970FB6F894DEBF10
:101740000FBECDBF7C011B014D83809186048111AA
:1017500005C081E0809386040E946E0B10921101F7
:10176000F7FE04C0E894F7F81AE001C011E088E23F
:10177000189F802D1124282F30E03F832E832E15B3
:101780003F0510F4FF82EE82113049F44E815F81F3
:101790004131574220F0E0E1F7E2FF83EE83812EF2
:1017A000912CA12CB12C8E819F81969587959C01BF
:1017B00040E050E029833A834B835C834E815F8114
:1017C0002A01612C712CA501940160E072E18AE785
:1017D00090E00E947A2929813A814B815C81620FD5
:1017E000731F841F951FA30192010E94E0296901C4
:1017F0007A01EE24FF2400E00F5FC11434E0D30629
:10180000E104F10408F120E032E14AE750E0002E63
:1018100004C055954795379527950A94D2F7C50189
:10182000B4010E947A2929813A814B815C81620F3F
:10183000731F841F951FA30192010E94E029690173
:101840007A01EE24FF24D8CF1A3049F48E819F818B
:1018500005966AE070E00E9496297F836E834E8130
:101860005F81483E83E0580759F09101DA010E94F8
:10187000052A28EE33E040E050E00E94E0291901FB
:10188000109272008091C100807F802B8093C100F4
:10189000BB27AF2D9E2D8D2D8093BF00C092D10010
:1018A0002D81203108F02FE080E190E0821B91092A
:1018B00004C0F694E794D794C7948A95D2F78D2DF7
:1018C00099278093BF00C092D20030928304209267
:1018D000820489B38FEF89BB84E0809372002796DE
:1018E0000FB6F894DEBF0FBECDBFDF91CF911F9131
:1018F0000F91FF90EF90DF90CF90BF90AF909F90AF
:101900008F907F906F905F904F903F902F900895B1
:10191000CF93DF93EB018F3F11F0411105C040E001
:10192000BE0188EE93E043C0813130F050EF580F94
:10193000503618F05FE501C050E0852F6CE00E9442
:101940008A29682F74EF760390011124250F311D29
:101950002C30310540F4F901EE0FFF1FEB54FE4F20
:101960002081318102C020E030E0873081F0082EF4
:1019700002C0220F331F0A94E2F7823028F0C90117
:1019800005966AE070E00CC0C90190580CC0C9010E
:1019900036E0880F991F3A95E1F7029665E070E00E
:1019A0000E949629CB01403108F04FE0BE01DF9143
:1019B000CF910C94880B4F925F926F927F928F928F
:1019C0009F92AF92BF92CF92DF92EF92FF920F93CE
:1019D0001F93CF93DF9300D0CDB7DEB79090100167
:1019E00080917F04882321F060917E04611117C0EB
:1019F00077247394B0ECAB2EBDE5BB2E1AE0612EBC
:101A000004E0802E80EDC82E87E0D82E94E0E92EE9
:101A1000F12C04EF11E02FE0422E512C15C070E0A4
:101A200040E088EE93E00E94880B10927E0429C16A
:101A30008636D4F5813609F4A9C07CF58C3309F4D7
:101A400060C08E3381F493940E94290B209184040A
:101A5000309185042F5F3F4F309385042093840499
:101A6000853631F752C0813209F08BC08092100167
:101A7000D0920F01C0920E01F0920D01E0920C0184
:101A800010930B0100930A01509209014092080142
:101A900010927F04A4E09A2ED7CF8336A1F10CF4E4
:101AA00078C010E082E077C08D36C1F194F48736BB
:101AB00091F174F18C3609F064C00E94460BBC01B0
:101AC00090930D0180930C0180910E0190910F0174
:101AD00051C08237C9F14CF48F3609F052C00E94D0
:101AE000460B982E80931001AFCF843781F1863753
:101AF00009F047C00E94460B9093090180930801AA
:101B0000A3CF9A94A1CF10E020C010E084E043C09E
:101B100010E085E040C010E087E03DC00E94290B46
:101B20008C3619F410927F0404C070927F041092D6
:101B30007E0420918404309185042F5F3F4F3093C1
:101B400085042093840480CF11E080E024C00E94AB
:101B5000460BBC01C5010E949629669EC001679E86
:101B6000900D112490930F0180930E0160910C0150
:101B700070910D010E94962970930B0160930A01E8
:101B800063CF10928504109284047BC010E089E03A
:101B900002C010E08BE0082F9CE0999E000D1124FC
:101BA0000E94290B982F977F933261F4209184042F
:101BB000309185042F5F3F4F309385042093840438
:101BC0000F5FEECF8D3271F4209184043091850443
:101BD0002F5F3F4F309385042093840401500E946F
:101BE000290BF0CF60910A0170910B01815388306D
:101BF00050F4E0900E01F0900F010E94460BBC01E2
:101C0000C7010E9496297B01F694E79469837A8341
:101C10000E94290B69817A818E3269F420918404B3
:101C2000309185042F5F3F4F3093850420938404C7
:101C30006E0D7F1DE9CF80917F04882339F09B01D1
:101C40003695279520937E04621B71094091080107
:101C5000112311F08FEF01C0802F0F900F90DF91B3
:101C6000CF911F910F91FF90EF90DF90CF90BF9099
:101C7000AF909F908F907F906F905F904F900C945B
:101C8000880C0F900F90DF91CF911F910F91FF90D3
:101C9000EF90DF90CF90BF90AF909F908F907F900C
:101CA0006F905F904F9008951F920F920FB60F9212
:101CB00011242F933F934F935F936F937F938F9351
:101CC0009F93AF93BF93EF93FF9380918204909182
:101CD00083049C01215031093093830420938204B2
:101CE000892B11F51092720078948091C100807F49
:101CF00084608093C10083E08093BF0088EE80936E
:101D0000D1001092BF001092D20081E080931101A7
:101D10008091840490918504892B31F08091810415
:101D2000811102C00E94DB0CFF91EF91BF91AF9136
:101D30009F918F917F916F915F914F913F912F91E3
:101D40000F900FBE0F901F901895FC011382128206
:101D500081ED91E091838083148208951F93CF9346
:101D6000DF93EC01162F64600E94280F1E83DF9121
:101D7000CF911F910895CF93DF93EC01E881F98112
:101D80000480F581E02D099563E0CE010E94240FC7
:101D90008FE991E40197F1F700C0000063E0CE0104
:101DA0000E94240F87E592E00197F1F700C0000040
:101DB00063E0CE010E94240F62E0CE010E94240F56
:101DC00068E2CE010E94280F60E0CE010E945A0F07
:101DD000CE010E942C0F62E0CE010E94AE0E64E0A4
:101DE000CE01DF91CF910C945A0F0F931F93CF9395
:101DF000DF9300D01F92CDB7DEB78C01DC011496C3
:101E00008C91149781110CC081E014968C93C801B9
:101E10002B834A8369830E94BB0E69814A812B818F
:101E2000D801ED91FC910680F781E02DC80109955C
:101E3000B5ECBA95F1F700000F900F900F90DF917D
:101E4000CF911F910F91089521E040E00C94F50E81
:101E500020E040E00C94F50E61E00E94280F8FE333
:101E60009FE10197F1F700C000000895CF93DF9341
:101E700000D000D0CDB7DEB720E8298320EC2A833C
:101E800024E92B8324ED2C83443008F043E0FE0149
:101E9000E40FF11D2181260F622F0E94280F85EC8F
:101EA0008A95F1F700000F900F900F900F90DF913F
:101EB000CF9108951F93CF93DF93EC01162F6860A5
:101EC0000E94280F1D83DF91CF911F91089520E07C
:101ED00041E00C94F50E0E94670F81E090E00895B8
:101EE000CF92DF92EF92FF920F931F93CF93DF93E6
:101EF0007C018A01EB016B01C40ED51ECC15DD05FA
:101F000029F06991C7010E94670FF8CFC801DF91DE
:101F1000CF911F910F91FF90EF90DF90CF90089598
:101F20004FB141705CB156FB552750F95427809151
:101F30008E0460918F042091880430918904852754
:101F400090E06427861B9109820F931F9093890468
:101F50008093880490918F0480918E04591729F002
:101F6000481719F081E080938D0450938F044093BB
:101F70008E0408951F920F920FB60F9211242F9383
:101F80003F934F935F936F938F939F932CB130E068
:101F90003595279535952795422F417083B190E06F
:101FA00054E0959587955A95E1F782279327582F06
:101FB0005170809190046091910420918A04309135
:101FC0008B04852790E06427861B9109820F931F5D
:101FD00090938B0480938A04909191048091900453
:101FE000591729F0481719F081E080938D04509318
:101FF0009104409390049F918F916F915F914F91C5
:102000003F912F910F900FBE0F901F90189524981D
:102010002C9A6A98729A6E98769A8098889A81E03B
:102020008093680090E190936B008BBB41E050E09F
:1020300060E97FE084E00E94F51B8CB182FB882779
:1020400080F981708093900493B18091900492956F
:10205000917089278093910410928B0410928A04C6
:1020600010928D048FB1817080938E049CB1809109
:102070008E0496FB992790F9892780938F041092FC
:1020800089041092880410928C040895809187042A
:10209000811105C081E0809387040C940710089596
:1020A0000E944610F89480918A0490918B041092BB
:1020B0008B0410928A04789408950E944610F89434
:1020C0008091880490918904109289041092880468
:1020D000789408959B0120573E4F2132334040F0C1
:1020E00060377E4F1CF060E971E002C060E77EEF70
:1020F000FC01718F608F77FF05C071956195710943
:1021000081E001C080E070938B0060938A00909121
:102110009304891711F02A9A01C02A98229A0895E7
:102120009B0120573E4F2132334040F060377E4FB5
:102130001CF060E971E002C060E77EEFFC01738F84
:10214000628F77FF05C071956195710981E001C0CB
:1021500080E07093890060938800909192048917C1
:1021600011F0299A01C02998219A08956093930447
:1021700008956093920408955B98539A089560FFC0
:1021800002C02B9A01C02B98239A61FF02C0289AA3
:1021900001C02898209A62FF02C0479A01C0479860
:1021A0003F9A63FF02C05D9A01C05D98559A5B9AA1
:1021B000539A85E08A95F1F700005B98539A85E081
:1021C0008A95F1F700000895CF92DF92EF92FF9287
:1021D0000F931F93CF93DF9300D000D01F92CDB702
:1021E000DEB76C01162F0091E2001092E200F09031
:1021F000E9001092E900E090F0001092F00030E069
:102200005A99316052993260398330E02B993160AC
:10221000239932603A8330E0289931602099326006
:102220003B8330E0479931603F9932603C8330E036
:102230005D993160559932603D83442311F05A9A7B
:1022400001C05A98529A21110AC0612F70E084E0AF
:10225000759567958A95E1F7C6010E94BF10612FB9
:102260006F70C6010E94BF102D8121FB0EF05598A2
:1022700020FB0EF05D980EF45D9A21FB0EF4559A4A
:102280003C8131FB0EF03F9830FB0EF047980EF486
:10229000479A31FB0EF43F9A2B8121FB0EF02098D8
:1022A00020FB0EF028980EF4289A21FB0EF4209AB9
:1022B0003A8131FB0EF0239830FB0EF02B980EF490
:1022C0002B9A31FB0EF4239A298121FB0EF05298B0
:1022D00020FB0EF05A980EF45A9A21FB0EF4529AF3
:1022E0001092E900E092F000F092E9000093E20021
:1022F0000F900F900F900F900F90DF91CF911F9143
:102300000F91FF90EF90DF90CF9008950F931F9360
:10231000CF93DF93EC01FC01ED5DFE4F1082118243
:10232000128213823497108211821282138218A2B1
:1023300019A21AA21BA21CA21DA21EA21FA2188EC5
:10234000198E1A8E1B8E1C8A1D8A1E8A1F8A188A55
:10235000198A1A8A1B8AE758F1091082118212829F
:102360001382349610821182128213823496108264
:102370001182128213823496108211821282138289
:102380003496108211821282138234961082118246
:102390001282138234961082118212821382349632
:1023A000108211821282138234961082118212825C
:1023B0001382349610821182128213823496108214
:1023C0001182128213823496108211821282138239
:1023D000EC55F10910821182128213823496108218
:1023E0001182128213823496108211821282138219
:1023F00034961082118212821382349610821182D6
:1024000012821382349610821182128213823496C1
:1024100010821182128213823496108211821282EB
:1024200013823496108211821282138234961082A3
:1024300011821282138234961082118212821382C8
:102440003496108211821282138219A618A61BA636
:102450001AA61DA61CA61FA61EA687E893E00E942A
:10246000C8028091BF05811107C081E08093BF053C
:102470008BEB95E00E94BB0E80918704811105C013
:1024800081E0809387040E9407108E0108531F4F3C
:1024900042E050E063E070E0C8010E946007C801BC
:1024A0000E949E06CB52DF4F42E050E064E070E0B5
:1024B000CE010E94180ACE010E9471080E9450109D
:1024C000DF91CF911F910F910C945D10CF92DF920D
:1024D000EF92FF92CF93DF93EC01CB01BA019B0106
:1024E000AC010E946A269B01AC01688179818A81D6
:1024F0009B810E9437276B017C019B01AC0160E04E
:1025000070E080E89FE30E94692620E030E040E22E
:1025100051E40E94EB286CAB7DAB8EAB9FAB20E00F
:1025200030E040E85FE3C701B6010E946A2620E080
:1025300030E040E251E40E94EB2868AB79AB8AAB13
:102540009BABDF91CF91FF90EF90DF90CF900895FC
:10255000EF92FF920F931F93CF93DF93EC017A01D9
:102560008901FB0120813181428153816C897D8900
:102570008E899F890E946A266C8B7D8B8E8B9F8BA8
:10258000F7012081318142815381688D798D8A8D57
:102590009B8D0E946A26688F798F8A8F9B8FF801A6
:1025A0002081318142815381688979898A899B8917
:1025B0000E946A26688B798B8A8B9B8BDF91CF91E7
:1025C0001F910F91FF90EF9008954F925F926F923D
:1025D0007F928F929F92AF92BF92CF92DF92EF92B3
:1025E000FF920F931F93CF93DF93EC017B01F901CF
:1025F000DA012D913D914D915C91608171818281D3
:1026000093810E946926288139814A815B810E94D9
:1026100037274B015C01F8012081318142815381D0
:102620000E9469262B013C0187E494E00E949505F5
:1026300069ED71E080917804909179040E94D31F34
:1026400061EE71E080917804909179040E94D31F2B
:1026500022E030E0B301A2018091780490917904E6
:102660000E947C2163EE71E080917804909179045E
:102670000E94D31F65E070E080E090E00E94811D21
:10268000D8012D913D914D915C91C501B4010E94FD
:102690006A2620E030E040E05FE30E94EB282B0157
:1026A0003C015E01B8E9AB0EB11C6E01E4EACE0E4E
:1026B000D11CD7012D913D914D915C91F601608126
:1026C0007181828193810E946A26D5016D937D93E9
:1026D0008D939C9313977E01BCE9EB0EF11CF701DF
:1026E00010821182128213824E01FCEA8F0E911C1D
:1026F000D4012D913D914D915C91C301B2010E9495
:102700006A262B013C012BED3FE049EC50E40E948E
:10271000E0288E0100561F4F18164CF42BED3FE0B9
:1027200049EC50E4C301B2010E94692618C020E0C0
:1027300030E0A901C301B2010E94302787FD07C024
:10274000D8014D925D926D927C9213970DC02BED46
:102750003FE049EC50E4C301B2010E946A26F8014F
:10276000608371838283938387E494E00E9495055C
:102770006CEE71E080917804909179040E94D31FEF
:1027800061EE71E080917804909179040E94D31FEA
:10279000D8014D915D916D917C9122E030E0809166
:1027A0007804909179040E947C2163EE71E080911D
:1027B0007804909179040E94D31F65E070E080E076
:1027C00090E00E94811DF50180819181A281B381F9
:1027D000F60180839183A283B383C855DF4FF7014D
:1027E00080819181A281B38188839983AA83BB83ED
:1027F000F80180819181A281B381F401808391836A
:10280000A283B383DF91CF911F910F91FF90EF903F
:10281000DF90CF90BF90AF909F908F907F906F9000
:102820005F904F9008954F925F926F927F928F9238
:102830009F92AF92BF92CF92DF92EF92FF920F934F
:102840001F93CF93DF93EC018B01FC01E056FF4F08
:1028500080809180A280B380C501B4010E9434279A
:102860006E0120EBC20ED11C3E01ECEB6E0E711C12
:10287000F80120813181428153810E94EB289B0124
:10288000AC01F30160817181828193810E946A268B
:10289000F6016083718382839383C501B4010E9432
:1028A0004E297E01F4EBEF0EF11C2E0120EC420EBE
:1028B000511CF80120813181428153810E94EB2813
:1028C0009B01AC01F20160817181828193810E9440
:1028D0006A26F70160837183828393838E01085493
:1028E0001F4FF80180829182A282B38287E494E034
:1028F0000E94950598E7A92E94E0B92E64EF71E047
:10290000F501808191810E94D31F61EE71E0F50194
:10291000808191810E94D31FF601408151816281A3
:10292000738122E030E0F501808191810E947C2159
:1029300061EE71E0F501808191810E94D31FF70162
:10294000408151816281738122E030E0F501808114
:1029500091810E947C2161EE71E0F501808191817D
:102960000E94D31FF801408151816281738122E06E
:1029700030E0F501808191810E947C2163EE71E05D
:10298000F501808191810E94D31F65E070E080E0B5
:1029900090E00E94811DF60180819181A281B38126
:1029A000F30180839183A283B383F70180819181B6
:1029B000A281B381F20180839183A283B383CC533C
:1029C000DF4FF80180819181A281B381888399834F
:1029D000AA83BB83DF91CF911F910F91FF90EF905E
:1029E000DF90CF90BF90AF909F908F907F906F902F
:1029F0005F904F9008950F931F93CF93DF93EC0157
:102A00008C0108591F4F29E732E240E259E3F801EF
:102A100060817181828193810E94EB28F80160833B
:102A20007183828393830C5F1F4F29E732E240E278
:102A300059E3F80160817181828193810E94EB28C2
:102A4000F8016083718382839383C059DF4F29E744
:102A500032E240E259E3688179818A819B810E9458
:102A6000EB28688379838A839B83DF91CF911F91C1
:102A70000F9108950F931F93CF93DF93EC018C0177
:102A800000581F4F21E43AED4FE758E3F801608109
:102A90007181828193810E94EB28F80160837183A8
:102AA000828393830C5F1F4F21E43AED4FE758E395
:102AB000F80160817181828193810E94EB28F80185
:102AC0006083718382839383C857DF4F21E43AED9B
:102AD0004FE758E3688179818A819B810E94EB28C6
:102AE000688379838A839B83DF91CF911F910F91B4
:102AF00008954F925F926F927F928F929F92AF92C2
:102B0000BF92CF92DF92EF92FF920F931F93CF93DA
:102B1000DF938C017C0188ECE80EF11CC7010E9458
:102B2000B606E801CB52DF4FCE010E94DB09480117
:102B3000E8E68E0E911CF70160817181882777FD90
:102B40008095982F0E94D227F4016083718382833D
:102B500093835801FCE6AF0EB11CF801E653FF4F1A
:102B600060817181882777FD8095982F0E94D227F8
:102B7000F50160837183828393836801F0E7CF0E50
:102B8000D11CF801E453FF4F60817181882777FDE4
:102B90008095982F0E94D227F601608371838283EB
:102BA00093837801F0E8EF0EF11C68817981882722
:102BB00077FD8095982F0E94D227F701608371835B
:102BC000828393833801F4E86F0E711CF801E95297
:102BD000FF4F60817181882777FD8095982F0E9433
:102BE000D227F30160837183828393832801F8E8FD
:102BF0004F0E511CF801E752FF4F60817181882709
:102C000077FD8095982F0E94D227F201608371830F
:102C10008283938387E494E00E949505C8E7D4E01B
:102C20006CEF71E0888199810E94D31F61EE71E0A1
:102C3000888199810E94D31FF40140815181628172
:102C4000738122E030E0888199810E947C2161EECD
:102C500071E0888199810E94D31FF50140815181E3
:102C60006281738122E030E0888199810E947C2119
:102C700061EE71E0888199810E94D31FF601408145
:102C800051816281738122E030E0888199810E94C4
:102C90007C2161EE71E0888199810E94D31FF70148
:102CA000408151816281738122E030E08881998185
:102CB0000E947C2161EE71E0888199810E94D31F7E
:102CC000F301408151816281738122E030E088818B
:102CD00099810E947C2161EE71E0888199810E9436
:102CE000D31FF201408151816281738122E030E083
:102CF000888199810E947C2163EE71E088819981AD
:102D00000E94D31F65E070E080E090E00E94811D8A
:102D1000C8010E943A15C8010E94FB1487E494E0A0
:102D20000E94950564E072E0888199810E94D31F1A
:102D300061EE71E0888199810E94D31FF401408186
:102D400051816281738122E030E0888199810E9403
:102D50007C2161EE71E0888199810E94D31FF50189
:102D6000408151816281738122E030E088819981C4
:102D70000E947C2161EE71E0888199810E94D31FBD
:102D8000F601408151816281738122E030E08881C7
:102D900099810E947C2161EE71E0888199810E9475
:102DA000D31FF701408151816281738122E030E0BD
:102DB000888199810E947C2161EE71E088819981EE
:102DC0000E94D31FF301408151816281738122E00F
:102DD00030E0888199810E947C2161EE71E08881D8
:102DE00099810E94D31FF2014081518162817381D8
:102DF00022E030E0888199810E947C2163EE71E0BD
:102E0000888199810E94D31F65E070E080E090E0A6
:102E1000DF91CF911F910F91FF90EF90DF90CF90B6
:102E2000BF90AF909F908F907F906F905F904F90EA
:102E30000C94811D4F925F926F927F928F929F921E
:102E4000AF92BF92CF92DF92EF92FF92CF93DF9338
:102E50007C012A013B01FC01E058FF4F20813181B8
:102E600042815381349660817181828193810E9475
:102E7000DD264B015C01E701C056DF4F80E7E80E1D
:102E8000F11CC301B2010E94D027F70120813181DA
:102E9000428153810E94EB28288139814A815B81DC
:102EA0000E946A2628E431EE4AE75FE30E94EB289D
:102EB0006B017C0120E037ED43EA5CE3C501B4011E
:102EC0000E94EB289B01AC01C701B6010E946A2653
:102ED000DF91CF91FF90EF90DF90CF90BF90AF90B8
:102EE0009F908F907F906F905F904F9008954F923A
:102EF0005F926F927F928F929F92AF92BF92CF928A
:102F0000DF92EF92FF920F931F93CF93DF93CDB792
:102F1000DEB764970FB6F894DEBF0FBECDBF5C017D
:102F20000E94521D8501015E1E4F45012DED821A42
:102F30002EEF920AD401CD90DD90ED90FC906C19AB
:102F40007D098E099F09F8016083718382839383D1
:102F500087E494E00E9495056CE072E0809178042B
:102F6000909179040E94D31F61EE71E08091780402
:102F7000909179040E94D31FD50198966D917C9110
:102F800099974AE050E080917804909179040E94EA
:102F9000752063EE71E080917804909179040E942D
:102FA000D31F65E070E080E090E00E94811DF50194
:102FB00060A571A5882777FD8095982F0E94D2275C
:102FC0009B01AC010E945729882329F0D5019996CD
:102FD0001C921E929897F50162A573A5882777FD2C
:102FE0008095982F0E94D2279B01AC010E945729FF
:102FF000882329F0D5019B961C921E929A97D501A1
:103000001C968D919D910D90BC91A02D898B9A8BD2
:10301000AB8BBC8BF501408451846284738460A5C2
:1030200071A5882777FD8095982F0E94D22729893E
:103030003A894B895C890E94EB28A30192010E9486
:1030400037276B017C016D877E878F87988BD50131
:103050009A966D917C919B97882777FD8095982F04
:103060000E94D22729893A894B895C890E94EB28E2
:10307000A30192010E94372769877A878B879C87F3
:10308000A70196010E946A2620E030E040E05FE35D
:103090000E94EB286D837E838F8398879E012B5F30
:1030A0003F4FAE01475F5F4FBE01635F7F4FC5017A
:1030B0000E94A812C5010E947915F801C080D18034
:1030C000E280F380850100591F4FC701B6010E94BD
:1030D000D027D8012D913D914D915C910E94EB2814
:1030E00020E030E04AE754E40E94372769837A837E
:1030F0008B839C83B701A601C5010E941A176B013F
:103100007C0187E494E00E94950564E172E080917F
:103110007804909179040E94D31F61EE71E0809150
:103120007804909179040E94D31F22E030E0B70127
:10313000A60180917804909179040E947C2163EE2D
:1031400071E080917804909179040E94D31F65E02A
:1031500070E080E090E00E94811D8E010F5F1F4FA4
:103160009E01275F3F4FAE01435F5F4FBE016B5F24
:103170007F4FC5010E94E5129E01275F3F4FAE01C0
:10318000435F5F4FBE016B5F7F4FC5010E94131409
:103190000E94521DF401608371838283938364963D
:1031A0000FB6F894DEBF0FBECDBFDF91CF911F9158
:1031B0000F91FF90EF90DF90CF90BF90AF909F90D6
:1031C0008F907F906F905F904F9008952F923F92D5
:1031D0004F925F926F927F928F929F92AF92BF9227
:1031E000CF92DF92EF92FF920F931F93CF93DF93D3
:1031F000CDB7DEB72E970FB6F894DEBF0FBECDBFAA
:103200008C01C982DA82EB82FC82A114B10409F03C
:1032100088C08BE490E0F801978F868F958F848F1C
:103220006801F0EBCF0ED11CC8018D5F9E4F7C0171
:1032300029813A814B815C81F601608171818281B3
:1032400093810E94302718160CF449C00E94501038
:10325000F80191A780A70E945D10F80193A782A7AB
:1032600087E494E00E9495056CE172E08091780417
:10327000909179040E94D31F61EE71E080917804EF
:10328000909179040E94D31FF80164A575A54AE0C6
:1032900050E080917804909179040E94752063EE4B
:1032A00071E080917804909179040E94D31F65E0C9
:1032B00070E080E090E00E94811DF801668D778DBE
:1032C000C7010E946A10F801648D758DC7010E94C4
:1032D000901061E070E0C8010E947717A9CF60E00C
:1032E00070E0C7010E946A1060E070E0C7012E968E
:1032F0000FB6F894DEBF0FBECDBFDF91CF911F9107
:103300000F91FF90EF90DF90CF90BF90AF909F9084
:103310008F907F906F905F904F903F902F900C9484
:103320009010AA94AB2809F0B3C140E050E060E3EC
:1033300071E40E946612F80160A971A982A993A99B
:103340000E949F27F801778F668F87E494E00E94A0
:10335000950564E272E080917804909179040E946E
:10336000D31F61EE71E080917804909179040E94FE
:10337000D31FF80144A955A966A977A922E030E036
:1033800080917804909179040E947C2161EE71E033
:1033900080917804909179040E94D31FF80140A98C
:1033A00051A962A973A922E030E08091780490913C
:1033B00079040E947C2163EE71E080917804909101
:1033C00079040E94D31F65E070E080E090E00E94E5
:1033D000811DF80164A975A986A997A90E949F2754
:1033E000AB01BC01F801558F448F868D978DBA01D2
:1033F0000E94AA29882777FD8095982F0E94D227BE
:103400006B017C01C80188549F4F9E878D87F8010E
:10341000ED5FFE4F5F01ED85FE854080518062804B
:10342000738021E436E74FE450E4C301B2010E9407
:10343000E02887FD00C10E945010F80191A780A7E5
:103440000E945D10F80193A782A7668D778D23E017
:10345000660F771F2A95E1F7C5010E946A10F801EF
:10346000648D758D33E0660F771F3A95E1F7C501DE
:103470000E94901061E070E0C8010E94771740E060
:1034800060E08BEB95E00E94360FED85FE85408174
:1034900051816281738122E030E08BEB95E00E94E4
:1034A0007C21F80180A491A422A433A420E030E080
:1034B00040E05FE360817181828193810E94EB280B
:1034C0002B013C01B401620D731D882777FD8095A7
:1034D000982F0E94D2279B01AC01C301B2010E9428
:1034E000EB282B013C01B40162197309882777FD91
:1034F0008095982F0E94D2279B01AC015F77C30172
:10350000B2010E9437272B013C0141E060E08BEBC8
:1035100095E00E94360F87E494E00E9495056DE2E5
:1035200072E080917804909179040E94D31F61EE3B
:1035300071E080917804909179040E94D31F22E079
:1035400030E0B301A20180917804909179040E9447
:103550007C2161EE71E080917804909179040E9461
:10356000D31FF80160A571A54AE050E0809178046E
:10357000909179040E94752061EE71E08091780449
:10358000909179040E94D31FF80162A573A54AE0C7
:1035900050E080917804909179040E94752063EE48
:1035A00071E080917804909179040E94D31F65E0C6
:1035B00070E080E090E00E94811D22E030E0B301E5
:1035C000A2018BEB95E00E947C21F801868C978C00
:1035D000248C358CC401B1010E94AA29882777FD6B
:1035E0008095982F0E94D2272B013C01A7019601BC
:1035F0000E94E028181654F4F1E08F1A9108F8019F
:10360000978E868EFFEF2F1A3F0A11C0A7019601F1
:10361000C301B2010E94302787FFFDCEFFEF8F1A52
:103620009F0AF801978E868EF1E02F1A3108F80173
:10363000358E248EF0CE25E739EA42E450E4C3010A
:10364000B2010E94302718160CF0F5CE60E070E051
:10365000C5010E94901060E070E0C5012E960FB683
:10366000F894DEBF0FBECDBFDF91CF911F910F91B8
:10367000FF90EF90DF90CF90BF90AF909F908F9092
:103680007F906F905F904F903F902F900C946A10B6
:103690002E960FB6F894DEBF0FBECDBFDF91CF914F
:1036A0001F910F91FF90EF90DF90CF90BF90AF9060
:1036B0009F908F907F906F905F904F903F902F9052
:1036C0000895AF92BF92CF92DF92EF92FF920F9345
:1036D0001F93A114B10489F0AA94AB28E9F4FC016A
:1036E000EC5BFF4F40835183628373833496008386
:1036F00011832283338334960BC0FC0140AF51AF5A
:1037000062AF73AF04AF15AF26AF37AFE05CFF4FCA
:10371000C082D182E282F3821F910F91FF90EF90DD
:10372000DF90CF90BF90AF9008958BEB95E00E9413
:10373000A50E8AE392E09093BC058093BB0589ECCB
:1037400096E7A6E5B0E48093940490939504A09343
:103750009604B093970480E695EEA0E3BFE38093D0
:10376000980490939904A0939A04B0939B0484E1E5
:103770009EE6A3E6B4E480939C0490939D04A093FA
:103780009E04B0939F048DE09FEEAAE8B0E480937E
:10379000A0049093A104A093A204B093A3048CE589
:1037A00095E00E946C0689E695E00E94F40729984E
:1037B000219A2D98259A2A98229A2E98269A80EA5C
:1037C0008093800081E18093810080E991E0909373
:1037D00087008093860010928900109288001092D2
:1037E0008B0010928A0008950895853008F04CC02F
:1037F000E82FF0E0EE0FFF1FEE5EFE4F7183608357
:103800008230E1F018F4813069F004C0833019F19E
:10381000843071F1809169008C7F842B80936900E2
:10382000E89A089580916900440F551F440F551F71
:10383000837F842B80936900E99A089580916900C1
:1038400034E0440F551F3A95E1F78F7C842B809329
:103850006900EA9A08958091690026E0440F551F97
:103860002A95E1F78F73842B80936900EB9A089572
:1038700080916A0094E0440F551F9A95E1F78F7C80
:10388000842B80936A00EE9A08951F920F920FB6D0
:103890000F9211242F933F934F935F936F937F93D6
:1038A0008F939F93AF93BF93EF93FF93E091120198
:1038B000F09113010995FF91EF91BF91AF919F9105
:1038C0008F917F916F915F914F913F912F910F90C9
:1038D0000FBE0F901F9018951F920F920FB60F9268
:1038E00011242F933F934F935F936F937F938F9305
:1038F0009F93AF93BF93EF93FF93E0911401F091E7
:1039000015010995FF91EF91BF91AF919F918F9113
:103910007F916F915F914F913F912F910F900FBECB
:103920000F901F9018951F920F920FB60F921124AF
:103930002F933F934F935F936F937F938F939F93B7
:10394000AF93BF93EF93FF93E0911601F0911701AE
:103950000995FF91EF91BF91AF919F918F917F91C9
:103960006F915F914F913F912F910F900FBE0F90EC
:103970001F9018951F920F920FB60F9211242F933C
:103980003F934F935F936F937F938F939F93AF93E7
:10399000BF93EF93FF93E0911801F09119010995FE
:1039A000FF91EF91BF91AF919F918F917F916F9117
:1039B0005F914F913F912F910F900FBE0F901F90ED
:1039C00018951F920F920FB60F9211242F933F93C9
:1039D0004F935F936F937F938F939F93AF93BF9317
:1039E000EF93FF93E0911A01F0911B010995FF916C
:1039F000EF91BF91AF919F918F917F916F915F9167
:103A00004F913F912F910F900FBE0F901F901895DF
:103A10001F920F920FB60F9211242F933F938F9303
:103A20009F93AF93BF938091C3059091C405A091DC
:103A3000C505B091C6053091C20523E0230F2D378F
:103A400020F40196A11DB11D05C026E8230F0296A2
:103A5000A11DB11D2093C2058093C3059093C40599
:103A6000A093C505B093C6058091C7059091C80580
:103A7000A091C905B091CA050196A11DB11D809301
:103A8000C7059093C805A093C905B093CA05BF9117
:103A9000AF919F918F913F912F910F900FBE0F90FB
:103AA0001F9018952FB7F8946091C3057091C405C5
:103AB0008091C5059091C6052FBF08953FB7F89432
:103AC0008091C7059091C805A091C905B091CA051C
:103AD00026B5A89B05C02F3F19F00196A11DB11D69
:103AE0003FBF6627782F892F9A2F620F711D811D86
:103AF000911D42E0660F771F881F991F4A95D1F7E5
:103B000008958F929F92AF92BF92CF92DF92EF92E1
:103B1000FF926B017C010E945E1D4B015C01C11490
:103B2000D104E104F104F1F00E94CD250E945E1D54
:103B3000681979098A099B09683E734081059105D6
:103B400070F321E0C21AD108E108F10888EE880E6E
:103B500083E0981EA11CB11CC114D104E104F1043E
:103B600029F7DDCFFF90EF90DF90CF90BF90AF901F
:103B70009F908F900895789484B5826084BD84B5B9
:103B8000816084BD85B5826085BD85B5816085BD58
:103B9000EEE6F0E0808181608083E1E8F0E0108271
:103BA000808182608083808181608083E0E8F0E0B2
:103BB000808181608083E1E9F0E0808182608083A0
:103BC000808181608083E0E9F0E080818160808392
:103BD000E1ECF0E08081846080838081826080837A
:103BE000808181608083E3ECF0E08081816080836C
:103BF000E0ECF0E0808182608083E2ECF0E08081A4
:103C000081608083EAE7F0E0808184608083808146
:103C100082608083808181608083808180688083EE
:103C2000089590E0FC013197EF30F105B0F5EA5AC4
:103C3000FF4F0C94FF29809180008F7703C0809103
:103C400080008F7D80938000089580918000877F21
:103C5000F9CF84B58F7702C084B58F7D84BD089578
:103C6000809190008F7707C0809190008F7D03C076
:103C700080919000877F8093900008958091C0008C
:103C80008F7703C08091C0008F7D8093C00008951E
:103C90008091C200877F8093C20008950F931F9385
:103CA000CF93DF931F92CDB7DEB7282F30E0F90115
:103CB000EA5EFE4F8491F901EB5CFE4F1491F9012D
:103CC000EC5AFE4F04910023C9F0882321F0698348
:103CD0000E94111E6981E02FF0E0EE0FFF1FED58EA
:103CE000FE4FA591B4919FB7F8948C91611103C0D8
:103CF0001095812301C0812B8C939FBF0F90DF9182
:103D0000CF911F910F9108950E941F2ACF93DF93A7
:103D10001F92CDB7DEB76983DC01ED91FC91028083
:103D2000F381E02D41E050E0BE016F5F7F4F0995C8
:103D30000F90DF91CF910895CF93DF93EC018C85A5
:103D40009D8597FF05C082E00E948F229D878C870A
:103D50008C859D85DF91CF91089583E00C94232578
:103D6000FC018485958597FD06C082E00E9437227C
:103D700090E00196089582E00E94372290E0089535
:103D8000FC018485958597FD05C02FEF3FEF3587B2
:103D90002487089582E00C948F22CF93DF93EC0167
:103DA00080912701882331F083E00E94C0221816F9
:103DB000190634F081E090E09B838A8380E090E0F4
:103DC000DF91CF910895FC0120812E5F208342E492
:103DD00050E061E871E080E80C945B23FC012181F4
:103DE0008081813A59F4213209F04BC047E050E01C
:103DF00060E271E080E00E945B235EC0813209F0E6
:103E000040C0233289F4838190E0982F8827328143
:103E1000832BA0E0B0E080931C0190931D01A09340
:103E20001E01B0931F010FC0203239F467E070E02B
:103E300080E291E00E948C2309C0223221F4828129
:103E40008093270103C02D7F2032B1F580911B069E
:103E5000811103C0E0E0F8E002C0EEEFFAE08091EB
:103E6000200190912101A0912201B0912301803B7A
:103E70009440A105B10511F58091270180FF03C091
:103E80001DC080E00895EE3F2AE0F20731F0808106
:103E900091819093FF0A8093FE0A87E797E79183C9
:103EA00080832BE088E190E00FB6F894A89580938A
:103EB00060000FBE2093600081E0089588E10FB696
:103EC000F89480936000109260000FBEA895EE3FBA
:103ED0008AE0F80739F08091FE0A9091FF0A9183F9
:103EE0008083EACF1092FF0A1092FE0AE5CF2FEFEF
:103EF0003FEFFC01358724870895CF93C0912701B8
:103F00006AE070E080E090E00E94811D81E0C111D4
:103F100001C080E0CF9108951092CE051092CD059A
:103F200088EE93E0A0E0B0E08093CF059093D005B9
:103F3000A093D105B093D20586E492E09093CC058E
:103F40008093CB058FEF9FEF9093D8058093D70593
:103F5000089508950E94BB1D0E94A91F8CE196E060
:103F60000E94B0250E943701C0E0D0E00E94970176
:103F70002097E1F30E940000F9CF6115710581F0EF
:103F8000DB010D900020E9F7AD0141505109461BBE
:103F9000570BDC01ED91FC910280F381E02D099437
:103FA00080E090E008950C94BD1FDC01ED91FC9140
:103FB0000190F081E02D09948F929F92AF92BF9271
:103FC000DF92EF92FF920F931F93CF93DF93CDB7C2
:103FD000DEB7A1970FB6F894DEBF0FBECDBF7C0150
:103FE000F42FD52ECB0119A2223008F42AE08E013D
:103FF0000F5D1F4F822E912CA12CB12C6F2F7D2D88
:10400000A50194010E94BE29F22FD32ECA010150AE
:1040100011096A3014F4E0E301C0E7E3E60FD801C8
:10402000EC93232B242B252B49F7B801C7010E94C1
:10403000BD1FA1960FB6F894DEBF0FBECDBFDF91B6
:10404000CF911F910F91FF90EF90DF90BF90AF90B5
:104050009F908F900895CF92DF92EF92FF920F93EF
:104060001F93CF93DF93EC016A017B01211531058A
:1040700079F4E881F9810190F081E02D642FDF91DE
:10408000CF911F910F91FF90EF90DF90CF90099407
:104090002A303105E9F477FF1AC06DE20E94D51F7E
:1040A0008C0144275527BA014C195D096E097F0917
:1040B0002AE0CE010E94DC1F800F911FDF91CF917B
:1040C0001F910F91FF90EF90DF90CF9008952AE01D
:1040D000B701A601CE01DF91CF911F910F91FF9003
:1040E000EF90DF90CF900C94DC1F9A01AB01662714
:1040F00057FD6095762F0C942B202115310541F446
:10410000DC01ED91FC910190F081E02D642F099488
:104110000C94DC1F9A01462F50E060E070E00C9494
:104120007D204F925F926F927F928F929F92AF927B
:10413000BF92CF92DF92EF92FF920F931F93CF9394
:10414000DF93EC016A017B01B22E9A01AB01C7013A
:10415000B6010E945729882319F062E572E027C052
:1041600026013701E89477F82FEF3FEF4FE75FE73D
:10417000C301B2010E94572981110DC02FEF3FEFFB
:104180004FE75FE7C301B2010E94302718161CF405
:1041900066E572E00CC02FEF3FEF4FE75FE4C70129
:1041A000B6010E94E0281816ACF46AE572E0CE0170
:1041B000DF91CF911F910F91FF90EF90DF90CF9003
:1041C000BF90AF909F908F907F906F905F904F9037
:1041D0000C94BD1F2FEF3FEF4FE75FECC701B60117
:1041E0000E94302787FDE1CF20E030E0A901C70120
:1041F000B6010E94302787FF0AC06DE2CE010E94FF
:10420000D51F8C01F7FAF094F7F8F09402C000E0A3
:1042100010E0A12C60E070E080E09FE3AB1441F07F
:1042200020E030E040E251E40E943727A394F6CF2B
:104230009B01AC01C701B6010E946A266B017C019B
:104240000E94A4272B013C010E94D0279B01AC01B6
:10425000C701B6010E9469266B017C012AE0B30107
:10426000A201CE010E94DC1F080F191FBB2039F0EC
:104270006EE572E0CE010E94BD1F080F191F7B2C56
:10428000772041F120E030E040E251E4C701B6017F
:104290000E94EB286B017C010E949F274B01AA24FE
:1042A00097FCA094BA2C2AE030E0B501A401CE011D
:1042B0000E942B20080F191FC501B4010E94D227AC
:1042C0009B01AC01C701B6010E9469266B017C010C
:1042D0007A94D6CFC801DF91CF911F910F91FF90B3
:1042E000EF90DF90CF90BF90AF909F908F907F9096
:1042F0006F905F904F9008950C949120615030F032
:104300002091F100FC0120830196F8CF289884E6E3
:104310008093250608954091200650912106209112
:104320001E0630911F0642175307B4F49091E8001F
:104330009570E1F39091E80092FD19C08093F1002F
:10434000809120069091210601968F739927892BE1
:1043500019F48EEF8093E800809120069091210659
:104360000196909321068093200681E0089580E0D5
:104370000895CF92DF92EF92FF920F931F93CF9306
:10438000DF931F92CDB7DEB7082F162FF42E862F9E
:10439000880F8E5F99830E948B2183E00E948B217E
:1043A000E02EC02E9981D92E8C2D8E19811798F46C
:1043B000F601F7FE02C0849101C080810E948B212A
:1043C000082F80E00E948B218023FFEFCF1ADF0AA5
:1043D0008111EACF01C081E00F90DF91CF911F9151
:1043E0000F91FF90EF90DF90CF9008958091D700CC
:1043F00081608093D70080EA8093D80089B580617E
:1044000089BD89B5826089BD09B400FEFDCF61E038
:1044100070E080E090E00E94811D8091D8008F7C48
:1044200080618093D8008091E000807F8093E000DD
:104430000895CF93DF931F92CDB7DEB71982CE01D7
:1044400001960E94E31E0E945526BE016F5F7F4FBA
:104450000E94CE2589810F90DF91CF9108952FB7CB
:10446000FC012083F89467706093E9000895CF936E
:10447000DF931F92CDB7DEB7682FCE0101960E9461
:104480002F228091F20099819FBF0F90DF91CF91F1
:104490000895FF920F931F93CF93DF9300D0CDB772
:1044A000DEB7F62E8A0190912406992311F057FF6A
:1044B00003C08FEF9FEF2BC0682FCE0101967A8348
:1044C0000E942F228091F20090E0A8017A8180174B
:1044D00091070CF4AC01EF2DF72FF40E84E6FE16D5
:1044E00039F02898809325069091F1009193F7CFA9
:1044F0004115510521F08091F200882321F0898136
:104500008FBFCA0104C08BE68093E800F8CF0F90FC
:104510000F90DF91CF911F910F91FF900895CF934E
:10452000DF931F92CDB7DEB741E050E0BE016F5F71
:104530007F4F0E944922019719F4898190E002C0BF
:104540008FEF9FEF0F90DF91CF910895CF93DF937F
:104550001F92CDB7DEB7682FCE0101960E942F22A1
:104560009091E800892F807295FF04C09091F2002D
:1045700080E4891B99819FBF0F90DF91CF910895AF
:104580006F927F928F929F92AF92BF92CF92DF9263
:10459000EF92FF920F931F93CF93DF931F92CDB7AC
:1045A000DEB7782E7B01C42EB52E80912406882399
:1045B00069F0042F152F8AEFD82E872D8072982E40
:1045C0009AE3A92E872D8074882E11C08FEF9FEF5C
:1045D00057C0872D0E94A622682E81110CC0DA9444
:1045E000A9F361E070E080E090E00E94811D011578
:1045F000110579F73BC0282F30E0021713070CF4A0
:10460000602E672DCE0101960E942F228091E80036
:1046100085FF29C0262D30E0021B130B992039F0AD
:104620006A948FEF6816B1F01092F100F9CFF7019C
:10463000862D77FE07C0815058F094919093F10039
:104640003196F9CF815020F091919093F100FACFFB
:10465000E20EF31E8091E80085FF0FC001151105E1
:1046600011F481100AC089818FBFC1CF5D9884E6A3
:10467000809326068C2D9B2D03C0A092E800F3CFDB
:104680000F90DF91CF911F910F91FF90EF90DF90EE
:10469000CF90BF90AF909F908F907F906F90089534
:1046A0001092E900109221061092200690931F06A6
:1046B00080931E060895CF92DF92FF920F931F936F
:1046C000CF93DF9300D0CDB7DEB7F82E8A016B0110
:1046D00001151105B1F0F601F7FE02C0849101C089
:1046E000808149835A830E948B2101501109FFEF79
:1046F000CF1ADF0A49815A818111EACF8FEF9FEFEC
:1047000001C0CA010F900F90DF91CF911F910F91BF
:10471000FF90DF90CF900895BF92CF92DF92EF92FB
:10472000FF920F931F93CF93DF936C018B01EB01EB
:104730003BEFB32E2097C1F07E01C134D1051CF0B0
:1047400020E4E22EF12C8091E80082FFFCCFC8012A
:104750008C1B9D0B6E2D8C0D9D1D0E947E21B09299
:10476000E800CE19DF09E6CFC801DF91CF911F9194
:104770000F91FF90EF90DF90CF90BF9008951F9220
:104780000F920FB60F921124DF92EF92FF920F93C8
:104790001F932F933F934F935F936F937F938F93C9
:1047A0009F93AF93BF93EF93FF93CF93DF93CDB7D7
:1047B000DEB76C97DEBFCDBF1092E9008091E800B4
:1047C00083FF23C168E0CE0145960E947E2182EFDF
:1047D0008093E8003D8937FF05C08091E80080FFA5
:1047E000FCCF03C08EEF8093E800832F807609F022
:1047F000F0C02E894F89D88C21110CC0303829F493
:10480000809123068093F10002C01092F100109273
:10481000F100F4C0842F90E09D29213049F431113A
:10482000EDC0019709F0EAC0809123068D7F0AC090
:10483000233059F43111E2C0019709F0DFC08091B3
:104840002306826080932306D9C0253041F48091ED
:10485000E80080FFFCCF40684093E300CFC02630E3
:1048600009F08DC0EB8CFC8C22E0D2122CC080E0D1
:1048700090E00E9450230E94192299E08E010F5F60
:104880001F4FF801292F11922A95E9F79983DA82AF
:1048900091E09E8390EA98879AEF9987209120066D
:1048A00030912106275F3F4F3C832B838D83C701C7
:1048B0000E94502349E050E0B80180E00E945B2351
:1048C0000E9419229BC0C7010E9450230E945526B6
:1048D000BE016B5E7F4F0E94F725009719F00CF028
:1048E0008DC090C081E0D8120EC08B8D9C8D089732
:1048F00019F481E080931D0680911D0681112FC05F
:1049000065ED71E031C0E3E0DE127CC08F89882361
:1049100049F1823029F440E862E18AEF91E01CC05D
:10492000813029F440E862E187EE91E015C08330E0
:1049300009F068C00E9455268E010F5F1F4FB80115
:104940000E941626F80101900020E9F73197E01B3C
:10495000F10B40E06E2FC8010E94B9214DC063ECFD
:1049600071E002C06DE072E06115710509F44AC0A2
:10497000FB01449150E080E80E945B233FC0273058
:1049800009F440C0283021F481E08093F10036C062
:104990002930A1F53370B1F5E9E2F1E081E021E0E1
:1049A00036E39081992361F08093E9002093EB0036
:1049B00091919093EC003093ED008F5F873089F7F1
:1049C0008EE78093EA001092EA008F898093240694
:1049D00015C08B8D9C8D0E945023898D811105C03F
:1049E000CE0145960E94EE1E07C00E945526BE01CC
:1049F0006B5E7F4F0E943526882321F08EEF8093D7
:104A0000E80003C081E28093EB006C960FB6F89447
:104A1000DEBF0FBECDBFDF91CF91FF91EF91BF9170
:104A2000AF919F918F917F916F915F914F913F9146
:104A30002F911F910F91FF90EF90DF900F900FBE7D
:104A40000F901F9018958093E9008091F2008823C1
:104A500019F08AE38093E80008951F920F920FB631
:104A60000F9211242F933F934F935F936F937F93F4
:104A70008F939F93AF93BF93CF93EF93FF93C09187
:104A8000E1008091E100837F8093E1008093E10069
:104A9000C3FF0FC01092E90081E08093EB001092F9
:104AA000EC0082E38093ED001092240688E080936E
:104AB000F000C2FF19C083E00E94232580912606E2
:104AC000882339F08091260681508093260688231A
:104AD00089F180912506882339F08091250681503F
:104AE00080932506882341F1C4FF10C08091E20025
:104AF0008E7E81608093E2008091E1008F7E8093C2
:104B0000E100809122068E7E806111C0C0FF16C038
:104B10008091E2008E7E80618093E2008091E100CE
:104B20008E7E8093E100809122068E7E816080934C
:104B3000220604C05D9ACDCF289AD6CFFF91EF917F
:104B4000CF91BF91AF919F918F917F916F915F9125
:104B50004F913F912F910F900FBE0F901F9018957E
:104B60001092240610922306109222060E94F6212B
:104B70008091E1008E7E8093E1008DE08093E200E1
:104B8000559A209AEEEFFFE7859194918B3F9C4DCB
:104B900019F481E080931B0608950895EF92FF9227
:104BA0000F931F93CF93DF937B01FC01C281D381CD
:104BB00000E010E0209781F0E881F9810280F38124
:104BC000E02DB701CE01099597FD08C0080F191F08
:104BD0000884D985C02DEECFC80102C08FEF9FEFAA
:104BE000DF91CF911F910F91FF90EF9008950F9358
:104BF0001F93CF93DF938B01FC01C281D381209758
:104C000071F0E881F9810480F581E02DB801CE01D1
:104C10000995009731F40884D985C02DF0CF80E044
:104C200090E0DF91CF911F910F9108950F931F9303
:104C3000CF93DF938B01FC01C281D381209771F068
:104C4000E881F9810680F781E02DB801CE01099550
:104C5000080F111D0884D985C02DF0CFF8011082EE
:104C6000DF91CF911F910F9108950F931F93CF93D1
:104C7000DF938B01FC01C281D381209771F0E88121
:104C8000F9810190F081E02DB801CE0109958111E3
:104C900006C00884D985C02DF0CF80E001C081E036
:104CA000DF91CF911F910F91089580912B06811173
:104CB0000DC082E08093270684E08093280610923E
:104CC0002A061092290681E080932B0687E296E05F
:104CD00008955058BB27AA270ED027C2F0D130F034
:104CE000F5D120F031F49F3F11F41EF4C0C10EF451
:104CF000E095E7FBB6C1E92F3AD280F3BA17620715
:104D000073078407950718F071F49EF552C20EF4EC
:104D1000E0950B2EBA2FA02D0B01B90190010C01CB
:104D2000CA01A0011124FF27591B99F0593F50F4E3
:104D3000503E68F11A16F040A22F232F342F44273B
:104D4000585FF3CF469537952795A795F040539533
:104D5000C9F77EF41F16BA0B620B730B840BBAF003
:104D60009150A1F0FF0FBB1F661F771F881FC2F76E
:104D70000EC0BA0F621F731F841F48F48795779582
:104D80006795B795F7959E3F08F0B3CF9395880F39
:104D900008F09927EE0F97958795089590D158F0D0
:104DA00080E891E009F49EEF91D128F040E851E0CD
:104DB00059F45EEF09C05BC1FCC1E92FE078D7D19F
:104DC00068F3092E052AC1F3261737074807590744
:104DD00038F00E2E07F8E02569F0E025E0640AC0FF
:104DE000EF6307F8009407FADB01B9019D01DC01CC
:104DF000CA01AD01EF934AD098D10AD05F915523F3
:104E000031F02BED3FE049E450FD49EC63CF0895CC
:104E1000DF93DD27B92FBF7740E85FE3161617064B
:104E200048075B0710F4D92FCFD19F938F937F93BF
:104E30006F933AD2EAECF0E01DD177D12F913F91F8
:104E40004F915F91D4D1DD2349F09058A2EA2AED29
:104E50003FE049EC5FE3D0785D274DDFDF9165C12E
:104E6000DCD008F481E0089539D1E3956FC10CD00E
:104E70005CC12CD140F023D130F021F45F3F19F018
:104E8000F0C0511197C1F3C072D198F39923C9F3BF
:104E90005523B1F3951B550BBB27AA276217730740
:104EA000840738F09F5F5F4F220F331F441FAA1FF4
:104EB000A9F333D00E2E3AF0E0E830D091505040B4
:104EC000E695001CCAF729D0FE2F27D0660F771F62
:104ED000881FBB1F261737074807AB07B0E809F044
:104EE000BB0B802DBF01FF2793585F4F2AF09E3FD9
:104EF000510568F0B6C05EC15F3FECF3983EDCF34D
:104F0000869577956795B795F7959F5FC9F7880F51
:104F1000911D9695879597F90895E1E0660F771FA3
:104F2000881FBB1F621773078407BA0720F0621B34
:104F3000730B840BBA0BEE1F88F7E095089504D02D
:104F40006894B11137C108951AD188F09F5790F035
:104F5000B92F9927B751A0F0D1F0660F771F881F9E
:104F6000991F1AF0BA95C9F712C0B13081F021D15A
:104F7000B1E008951EC1672F782F8827B85F39F0F8
:104F8000B93FCCF3869577956795B395D9F73EF4FD
:104F900090958095709561957F4F8F4F9F4F0895A5
:104FA000E89409C097FB3EF49095809570956195C3
:104FB0007F4F8F4F9F4F9923A9F0F92F96E9BB2779
:104FC0009395F695879577956795B795F111F8CFF5
:104FD000FAF4BB0F11F460FF1BC06F5F7F4F8F4F60
:104FE0009F4F16C0882311F096E911C0772321F056
:104FF0009EE8872F762F05C0662371F096E8862FEE
:1050000070E060E02AF09A95660F771F881FDAF744
:10501000880F9695879597F90895990F0008550F71
:10502000AA0BE0E8FEEF16161706E807F907C0F02E
:1050300012161306E407F50798F0621B730B840B36
:10504000950B39F40A2661F0232B242B252B21F410
:1050500008950A2609F4A140A6958FEF811D811DB0
:10506000089597F99F6780E870E060E008959FEFEA
:1050700080EC0895DF93CF931F930F93FF92EF92ED
:10508000DF927B018C01689405C0DA2EEF01AFD06E
:10509000FE01E894A5912591359145915591AEF386
:1050A000EF0129DEFE019701A801DA9479F7DF907C
:1050B000EF90FF900F911F91CF91DF910895002401
:1050C0000A941616170618060906089500240A946D
:1050D00012161306140605060895C9CF50D0E8F33A
:1050E000E894E0E0BB279F57F0F02AED3FE049EC61
:1050F00006C0EE0FBB0F661F771F881F28F0B23A5D
:1051000062077307840728F0B25A620B730B840B93
:10511000E3959A9572F7803830F49A95BB0F661F25
:10512000771F881FD2F79048C8C0092E0394000C3F
:1051300011F4882352F0BB0F40F4BF2B11F460FF31
:1051400004C06F5F7F4F8F4F9F4F0895EF93E0FF35
:1051500006C0A2EA2AED3FE049EC5FEBCCDDE5DFDB
:105160000F90039401FC9058E7EFF0E0B2C057FDB8
:105170009058440F551F59F05F3F71F04795880FC5
:1051800097FB991F61F09F3F79F08795089512165C
:1051900013061406551FF2CF4695F1DF08C0161608
:1051A00017061806991FF1CF8695710561050894B9
:1051B0000895E894BB2766277727CB0197F90895D0
:1051C0002CDF08F48FEF08959B01AC0160E070E0E4
:1051D00080E89FE34CCE0BD0A8CF71DF28F076DFBC
:1051E00018F0952309F03DCF42CF1124E3CFBFDF64
:1051F000A0F3959FD1F3950F50E0551F629FF001EA
:10520000729FBB27F00DB11D639FAA27F00DB11D42
:10521000AA1F649F6627B00DA11D661F829F2227CB
:10522000B00DA11D621F739FB00DA11D621F839F52
:10523000A00D611D221F749F3327A00D611D231F28
:10524000849F600D211D822F762F6A2F11249F5776
:1052500050408AF0E1F088234AF0EE0FFF1FBB1F99
:10526000661F771F881F91505040A9F79E3F510538
:1052700070F0F7CE9FCF5F3FECF3983EDCF386955E
:1052800077956795B795F795E7959F5FC1F7FE2BE3
:10529000880F911D9695879597F908959F931EDF26
:1052A0000F9007FCEE5F52CF9B01AC0194CFB5DEAF
:1052B000880B990B08959F3F31F0915020F487950A
:1052C00077956795B795880F911D9695879597F96E
:1052D00008959F938F937F936F93FF93EF939B0119
:1052E000AC0179DFEF91FF91C5DE2F913F914F9196
:1052F0005F9171CFDB018F939F930E94142ABF911E
:10530000AF91A29F800D911DA39F900DB29F900D14
:1053100011240895991B79E004C0991F961708F08D
:10532000961B881F7A95C9F780950895AA1BBB1B09
:1053300051E107C0AA1FBB1FA617B70710F0A61B95
:10534000B70B881F991F5A95A9F780959095BC01B6
:10535000CD01089597FB072E16F4009407D077FD32
:1053600009D00E94962907FC05D03EF490958195BE
:105370009F4F0895709561957F4F0895A1E21A2E71
:10538000AA1BBB1BFD010DC0AA1FBB1FEE1FFF1FE9
:10539000A217B307E407F50720F0A21BB30BE40B39
:1053A000F50B661F771F881F991F1A9469F7609580
:1053B0007095809590959B01AC01BD01CF0108953A
:1053C000052E97FB1EF400940E94F72957FD07D085
:1053D0000E94BE2907FC03D04EF40C94F729509587
:1053E0004095309521953F4F4F4F5F4F08959095D1
:1053F0008095709561957F4F8F4F9F4F0895EE0F69
:10540000FF1F0590F491E02D0994A29FB001B39F76
:10541000C001A39F700D811D1124911DB29F700DBD
:10542000811D1124911D08950E94052AA59F900DAC
:10543000B49F900DA49F800D911D1124089581E0CB
:0C54400090E0F8940C94242AF894FFCF1C
:10544C0000003306800001000F00F4010400D007B7
:10545C000401F41BF41BF41BF41BF41BFFFFFFFFF4
:10546C0000E100000000000000C18081000000018C
:10547C008001800180FF7FFF7FFF7F564D44505697
:10548C005F317C315F564D4450560D0A00000000D0
:10549C000089025C02310239024C025B02564D4417
:1054AC0050435F005F564D4450430D0A00457272E5
:1054BC006F723A20417474656D707420746F207330
:1054CC006574206120726561642D6F6E6C79207635
:1054DC0061726961626C65206F7220646174612015
:1054EC0074797065206E6F7420737570706F727440
:1054FC0065640D0A009C01B501CF01EA0107022683
:10550C0002470269028E02B502DE020A03000000A5
:10551C00006B0F700F841E841E564D4450455F3730
:10552C00007C005F564D4450450D0A00564D4450CA
:10553C00455F3500564D4450455F3600564D44503E
:10554C00455F3100564D4450455F3200564D445036
:10555C00455F3800564D4450455F3400564D44501D
:10556C00455F3900564D4450455F313000564D442F
:10557C0050455F313100000000006B0F700FBC1004
:10558C00E41000000000861ECD1EB01EC01E9C1E26
:10559C00AD1E6E616E00696E66006F7666002E0041
:00000001FF
