:100000000C9412010C94BA160C94E1160C94081777
:100010000C942F170C943A010C943A010C94561737
:100020000C943A010C941E150C94E91F0C947B1E41
:100030000C943A010C943A010C943A010C943A0154
:100040000C943A010C943A010C943A010C943A0144
:100050000C943A010C943A010C943A010C947D17DB
:100060000C943A010C943A010C943A010C943A0124
:100070000C943A010C943A010C943A010C943A0114
:100080000C943A010C943A010C943A010C943A0104
:100090000C94FC0A0C943A010C943A010C943A0129
:1000A0000C943A010C94DC130C943A01CF18D2183A
:1000B000C118C518CB18F318F318F318D618DA18A6
:1000C000DE18E418E818F318EE18084AD73B3BCEC0
:1000D000016E84BCBFFDC12F3D6C74319ABD568347
:1000E0003DDA3D00C77F11BED9E4BB4C3E916BAAFF
:1000F000AABE000000803F05A84CCDB2D44EB9384E
:1001000036A9020C50B9918688083CA6AAAA2ABE34
:10011000000000803F00070605040100080A0B0CE0
:100120000D090000000200090F0000030401000C8B
:1001300000000000000000000000000000000000BF
:1001400000040802011040804010204080408008D8
:100150000204018040201002011080102040402045
:10016000040404040403040502020202040302025C
:100170000202060606060606040402020204040041
:10018000000000250028002B002E003100080B0085
:10019000020202010009040000010202000005241D
:1001A00000100105240101010424020605240600B3
:1001B000010705810310004009040100020A000044
:1001C00000070502024000000705830240000012FC
:1001D000010002EF020140FB1F00230001010203A6
:1001E000011201000200000040FB1F00230001017A
:1001F000020301506F6C6F6C7520436F72706F72E9
:100200006174696F6E00506F6C6F6C7520412D5377
:100210007461722033325534000403090400DB0892
:10022000120A321A11241FBECFEFDAE0DEBFCDBFB3
:1002300012E0A0E0B1E0ECE9F9E402C005900D9213
:10024000A43AB107D9F724E0A4EAB2E001C01D92B4
:10025000AF3AB207E1F712E0C4E2D2E004C022975D
:10026000FE010E94A924CE31D107C9F70E94501A7D
:100270000C94CC240C9400005B98539A0895FC01D4
:10028000A2EEB0E08C9180831C92A9EEB0E08C913C
:1002900081831C92A0EFB0E08C9182831C92089520
:1002A000FC01A9EEB0E01C9282818093F000818174
:1002B0008C9380818093E200089560FF02C02B9AA6
:1002C00001C02B98239A61FF02C0289A01C0289888
:1002D000209A62FF02C0479A01C047983F9A63FF85
:1002E00002C05D9A01C05D98559A5B9A539A85E069
:1002F0008A95F1F700005B98539A85E08A95F1F7AB
:10030000000008958DE193E00E94720D6091210339
:1003100070912203882777FD8095982F0E948E2266
:1003200025E33AEF4EE85CE30E94A72320E030E0AB
:100330004CE051E40E94A72320E030E04AE754E477
:100340000E94F32108958F929F92AF92BF92CF9215
:10035000DF92EF92FF92CF93DF936B017C01490113
:100360005A0181EF93E00E94510CC2E2D4E06EE7A3
:1003700071E0888199810E94791A66E871E088812C
:1003800099810E94791A22E030E0B701A6018881A4
:1003900099810E94381C68E871E0888199810E94E7
:1003A000791A65E070E080E090E00E94F617C701DE
:1003B000B6010E948201A70196010E94A723209105
:1003C000DB023091DC024091DD025091DE020E949E
:1003D00026212DEC3CEC4CEC5DE30E94A7236B0145
:1003E0007C0126E636E646E65FE3C501B4010E94DD
:1003F000A7239B01AC01C701B6010E942621DF9112
:10040000CF91FF90EF90DF90CF90BF90AF909F90F3
:100410008F9008952F923F924F925F926F927F92AA
:100420008F929F92AF92BF92CF92DF92EF92FF9204
:100430000F931F93CF93DF9300D000D0CDB7DEB7DB
:100440000E94C7170E94C7170091B1021091B20213
:100450002091B3023091B402601B710B820B930B9D
:100460006093B5027093B6028093B7029093B8027E
:100470000E94B4158C010E94BD151C01B80188278B
:1004800077FD8095982F0E948E226B017C016091F0
:10049000EB027091EC02882777FD8095982F0E94DF
:1004A0008E229B01AC01C701B6010E9425216093F9
:1004B000A9027093AA028093AB029093AC02B1019F
:1004C000882777FD8095982F0E948E226B017C01F2
:1004D0006091ED027091EE02882777FD8095982F4C
:1004E0000E948E229B01AC01C701B6010E9425210A
:1004F0006093A5027093A6028093A7029093A8022E
:100500006091B5027091B6028091B7029091B802E5
:100510000E948C220E94820169837A838B839C8350
:100520002DE03FEE4AE850E46091A5027091A602EA
:100530008091A7029091A8020E94A72324E13EE6A1
:1005400043E654E40E94F3216B017C012DE03FEE71
:100550004AE850E46091A9027091AA028091AB022E
:100560009091AC020E94A72324E13EE643E654E4C6
:100570000E94F3212B013C019B01AC01C701B60194
:100580000E94262120E030E040E05FE30E94A723A4
:100590004B015C01A3019201C701B6010E94252114
:1005A0002BE43AEC48E95EE30E94A7232B013C01CF
:1005B0006091B5027091B6028091B7029091B80235
:1005C0000E948C22A30192010E94A3016B017C0175
:1005D0006091B5027091B6028091B7029091B80215
:1005E0000E948C229B01AC0169817A818B819C8164
:1005F0000E94A7239B01AC01C301B2010E942521E7
:100600002B013C0181EF93E00E94510C61E971E004
:1006100080912204909123040E94791A66E871E087
:1006200080912204909123040E94791A22E030E004
:10063000B301A20180912204909123040E94381CEE
:1006400068E871E080912204909123040E94791A55
:1006500065E070E080E090E00E94F6173092EE02D4
:100660002092ED021093EC020093EB026091B50230
:100670007091B6028091B7029091B8020E948C22CC
:100680000E948201A50194016091D3027091D4026D
:100690008091D5029091D6020E9426216093DF02BC
:1006A0007093E0028093E1029093E2021092E302E1
:1006B0001092E4021092E5021092E6022BED3FE068
:1006C00049EC50ECC701B6010E94EC212BED3FE054
:1006D00049EC50E487FF05C0C701B6010E942621FE
:1006E00017C0C701B6010E949C2318164CF0C09297
:1006F000E702D092E802E092E902F092EA0210C02A
:100700002BED3FE049EC50E4C701B6010E942521E2
:100710006093E7027093E8028093E9029093EA0203
:10072000C090E702D090E802E090E902F090EA027F
:10073000C701B6010E94F0219B01AC01C501B401C3
:100740000E94A7239B01AC016091BB027091BC0287
:100750008091BD029091BE020E9426216093C70243
:100760007093C8028093C9029093CA02C701B60170
:100770000E940A249B01AC01C501B4010E94A72379
:100780009B01AC016091BF027091C0028091C102D7
:100790009091C2020E9426216093CB027093CC02FA
:1007A0008093CD029093CE02C092CF02D092D0021D
:1007B000E092D102F092D2020E94C7176093B10278
:1007C0007093B2028093B3029093B402E7ECF2E02C
:1007D0004BEB52E02FED32E063ED72E0C190D1902F
:1007E000E190F190DA01CD92DD92ED92FD92AD01B2
:1007F000D901CD90DD90ED90FD909D01DB01CD9272
:10080000DD92ED92FD92BD01B2E0E33DFB0731F7D1
:100810000F900F900F900F90DF91CF911F910F913C
:10082000FF90EF90DF90CF90BF90AF909F908F9010
:100830007F906F905F904F903F902F900C94C717D0
:10084000CF92DF92EF92FF92CF93DF9360E070E060
:1008500080E090E00E945F16CAEFD0E0C12CD12C5E
:1008600076018DE193E00E94720D6AE070E080E015
:1008700090E00E94F617609121037091220388276F
:1008800077FD8095982F0E948E229B01AC01C701B5
:10089000B6010E9426216B017C0169E971E087E4C1
:1008A00094E00E94861A22E030E0B701A60187E4B6
:1008B00094E00E94381C60EB71E087E494E00E94B1
:1008C000861A4AE050E06AEF70E087E494E00E9404
:1008D000311B68E172E087E494E00E94861A219758
:1008E00009F0BFCF20E030E04AE753E4C701B6018A
:1008F0000E94F3216093AD027093AE028093AF0229
:100900009093B00267EB71E087E494E00E94861A4E
:100910004091AD025091AE026091AF027091B00271
:1009200022E030E087E494E0DF91CF91FF90EF90F8
:10093000DF90CF900C94381CCF92DF92EF92FF9211
:100940006B017C0181EF93E00E94510C63EC71E03C
:1009500080912204909123040E94791A66E871E044
:1009600080912204909123040E94791A22E030E0C1
:10097000B701A60180912204909123040E94381CA3
:1009800068E871E080912204909123040E94791A12
:1009900065E070E080E090E00E94F61720E030E033
:1009A000A901C701B6010E949C231816BCF4A70137
:1009B00096016091E7027091E8028091E9029091BE
:1009C000EA020E94EC21181694F068EC70E088E3CB
:1009D0009FEF0E945F160E940A02E9CF20E030E0FC
:1009E000A901C701B6010E94EC2187FD0AC060E0A1
:1009F00070E080E090E0FF90EF90DF90CF900C945B
:100A00005F16A70196016091E7027091E80280915C
:100A1000E9029091EA020E949C2387FDE8CF68E3F7
:100A20007FEF88EC90E00E945F160E940A02E9CFF7
:100A30004F925F926F927F928F929F92AF92BF92EE
:100A4000CF92DF92EF92FF92CF93DF932CE0289F1B
:100A5000E001299FD00D1124C25FDE4F2091C70213
:100A60003091C8024091C9025091CA0268817981CF
:100A70008A819B810E9425212B013C012091CB0280
:100A80003091CC024091CD025091CE026C817D819B
:100A90008E819F810E9425214B015C0120E030E086
:100AA000A901C301B2010E94EC21811118C020E00C
:100AB00030E0A901C501B4010E94EC21811117C0E9
:100AC000288539854A855B856091E7027091E80247
:100AD0008091E9029091EA020E94262106C0A301BA
:100AE0009201C501B4010E9499216B017C0181EF43
:100AF00093E00E94510C6BEC71E080912204909184
:100B000023040E94791A66E871E080912204909192
:100B100023040E94791A22E030E0B701A6018091F7
:100B20002204909123040E94381C68E871E08091AF
:100B30002204909123040E94791A65E070E080E01D
:100B400090E00E94F6178091B9029091BA02892B29
:100B500009F0B1C02091A9023091AA024091AB02E4
:100B60005091AC026091A5027091A6028091A702FB
:100B70009091A8020E9425214B015C0120E030E009
:100B8000A9010E949C2318162CF520E030E040EAD1
:100B900050E460910A0170910B0180910C019091D9
:100BA0000D010E94262160930A0170930B0180932E
:100BB0000C0190930D0120E030E040EA50E4609198
:100BC00006017091070180910801909109010E942E
:100BD00025212DC020E030E0A901C501B4010E940B
:100BE000EC2187FF2CC020E030E040EA50E4609127
:100BF0000A0170910B0180910C0190910D010E94EE
:100C0000252160930A0170930B0180930C0190934E
:100C10000D0120E030E040EA50E46091060170915F
:100C2000070180910801909109010E94262160939B
:100C3000060170930701809308019093090120E059
:100C400030E0A901C701B6010E949C2318165CF48C
:100C500020E030E040E85FE3C701B6010E949C233A
:100C600018165CF028C020E030E040E85FEBC701D8
:100C7000B6010E94EC2187FF1EC060E070E080E0BA
:100C800090E00E945F16C701B6010E949C046AE0D2
:100C900070E080E090E0DF91CF91FF90EF90DF90E7
:100CA000CF90BF90AF909F908F907F906F905F900C
:100CB0004F900C94F617DF91CF91FF90EF90DF905B
:100CC000CF90BF90AF909F908F907F906F905F90EC
:100CD0004F9008958F929F92AF92BF92CF92DF92E2
:100CE000EF92FF920F931F93CF93DF93EC0180E07D
:100CF00090E0A8ECB2E480930A0190930B01A093DA
:100D00000C01B0930D018093060190930701A0930D
:100D10000801B09309018CE08C9F80018D9F100D1C
:100D20001124025F1E4FC090C702D090C802E0900D
:100D3000C902F090CA02F80180809180A280B3803D
:100D400020E030E040E05FE3C501B4010E942521CE
:100D50009B01AC01C701B6010E94EC2118160CF4EE
:100D600083C0609106017091070180910801909104
:100D700009010E945B226B017C0160910A01709164
:100D80000B0180910C0190910D010E945B22DC010E
:100D9000CB01B6010E945F160E940A02CE010E949A
:100DA000180581EF93E00E94510C63ED71E0809192
:100DB0002204909123040E94791A66E871E08091E0
:100DC0002204909123040E94791A4091C702509105
:100DD000C8026091C9027091CA0222E030E080919D
:100DE0002204909123040E94381C66E871E08091EF
:100DF0002204909123040E94791A4091CB025091D1
:100E0000CC026091CD027091CE0222E030E0809160
:100E10002204909123040E94381C66E871E08091BE
:100E20002204909123040E94791A4091CF0250919C
:100E3000D0026091D1027091D20222E030E0809124
:100E40002204909123040E94381C68E871E080918C
:100E50002204909123040E94791A65E070E080E0FA
:100E600090E00E94F6175FCF20E030E040E05FE3C3
:100E7000C501B4010E9426219B01AC01C701B60146
:100E80000E949C2387FF6DCF8CE08C9F80018D9FFB
:100E9000100D1124025F1E4F5801F8E0AF0EB11C77
:100EA000C090CF02D090D002E090D102F090D20258
:100EB0002DEC3CEC4CE45EE3F501608171818281B4
:100EC00093810E9425219B01AC01C701B6010E94BC
:100ED000EC21181634F00E940A02CE010E94180577
:100EE000DFCF2DEC3CEC4CE45EE3F80160817181D6
:100EF000828193810E9426219B01AC01C701B6012A
:100F00000E949C2387FFE7CF60E070E080E090E0E4
:100F1000DF91CF911F910F91FF90EF90DF90CF90D5
:100F2000BF90AF909F908F900C945F1640ED57E06C
:100F300060E070E081EF93E00E949B0C20E032ECD7
:100F400041E050E067E474E081EF93E00E94540CCC
:100F500081EF93E00E94510C6BED71E080912204CF
:100F6000909123040E94791A6AE070E080E090E09A
:100F70000E94F61741E060E081EF93E00E940D0DC2
:100F800081E393E00E9484098091A402811105C04D
:100F900081E08093A4020E946B1542E050E063E080
:100FA00070E08DE193E00E941C0E8DE193E00E94C1
:100FB0005A0D0E94200442E050E064E070E08FEEA1
:100FC00092E00E94A00F8FEE92E00E94260F0E94F6
:100FD000C6150E94D31581E00E94151681E00C947D
:100FE0001816C8E083E10E948618C150D9F70E9404
:100FF000E7150E94E0151092BA021092B9026091B2
:1010000006017091070180910801909109010E94E9
:101010005B226B017C0160910A0170910B01809150
:101020000C0190910D010E945B22DC01CB01B60105
:101030000E945F1664E170E080E090E00E94F61785
:1010400080E090E00E946A0660E070E080E090E05E
:101050000E945F16F9CF20E05D99216055992260CA
:10106000FC0120830895FC01208121FB0EF055989E
:1010700020FB0EF05D980EF45D9A21FB0EF4559A5C
:10108000089520E02899216020992260FC012083A6
:101090000895FC01208121FB0EF0209820FB0EF02A
:1010A00028980EF4289A21FB0EF4209A0895FF92B6
:1010B0000F931F93CF93DF93CDB7DEB72A970FB669
:1010C000F894DEBF0FBECDBF8C01F62ECE01019687
:1010D0002A8749870E943F0130E05A99316052992E
:1010E00032603E8330E02B993160239932603F8338
:1010F000CE0105960E94410830E0479931603F9942
:1011000032603887CE0104960E942B0849852A85D3
:10111000442311F05A9A01C05A98529A21110AC0D8
:101120006F2D70E084E0759567958A95E1F7C801A9
:101130000E945D016F2D6F70C8010E945D01CE019C
:1011400004960E943308288521FB0EF03F9820FB6F
:101150000EF047980EF4479A21FB0EF43F9ACE0109
:1011600005960E9449083F8131FB0EF0239830FB21
:101170000EF02B980EF42B9A31FB0EF4239A2E814D
:1011800021FB0EF0529820FB0EF05A980EF45A9A5A
:1011900021FB0EF4529ACE0101960E9450012A962C
:1011A0000FB6F894DEBF0FBECDBFDF91CF911F9178
:1011B0000F91FF9008958AE293E00E942D1481EF31
:1011C00091E090932B0380932A038DE193E00E949A
:1011D000280D8FEE92E00C94A90E8091610390E0AF
:1011E00020916203821B91090895209162038091EE
:1011F0006103281750F4E22FF0E0ED59FC4F808195
:1012000090E02F5F2093620308958FEF9FEF089582
:10121000E091620380916103E81730F4F0E0ED594A
:10122000FC4F808190E008958FEF9FEF089508951F
:10123000CF92DF92EF92FF920F931F93CF93DF93A2
:101240007C01CB018A0120913D03222389F0EB012F
:101250006B01C40ED51ECC15DD0569F06991D7016F
:10126000ED91FC910190F081E02DC7010995F3CF3C
:10127000642F0E94D30AC801DF91CF911F910F9173
:10128000FF90EF90DF90CF900895CF93DF931F9260
:10129000CDB7DEB7698320913D032223D1F02091A1
:1012A0003E03203240F021E030E0FC013383228312
:1012B00080E090E015C080913F03E82FF0E0E05C13
:1012C000FC4F998190838F5F80933F0380933E030F
:1012D00005C061E0CE0101960E94D30A81E090E052
:1012E0000F90DF91CF910895FC011382128248EE96
:1012F00053E060E070E044835583668377838DEF2D
:1013000091E09183808308951092620310926103AB
:1013100010923F0310923E030C94160A81E08093D2
:101320003D036093600310923F0310923E030895C3
:101330000F93062F21E040913E0360E473E080911B
:1013400060030E947C0A10923F0310923E031092A9
:101350003D030F9108958F929F92AF92BF92CF92CB
:10136000DF92EF92FF920F931F93CF93DF93EC01E5
:10137000F62ED42E48015901EE2019F10E948E0953
:101380001E2D143008F013E01150B8F0E881F981F7
:1013900028E0129FB0011124A501940104C05695C4
:1013A0004795379527956A95D2F7CA01B9010190FB
:1013B000F081E02DCE010995E7CF60E0CE010E94DB
:1013C00098094D2D413208F040E22C2D63E673E080
:1013D0008F2D0E94340A1092620380936103DF9183
:1013E000CF911F910F91FF90EF90DF90CF90BF9022
:1013F000AF909F908F900895CF92EF920F931F938D
:10140000C22EE12C00E010E098010E94AB091F9170
:101410000F91EF90CF90089521E00C94FC0961E0CA
:101420000C94980981E393E00C9474091092F003F2
:1014300081E08093EE031092ED0361E082E00E9470
:10144000F41861E083E00E94F418E9EBF0E0808199
:101450008E7F808380818D7F808388E48093B80035
:1014600085E48093BC000895413208F043C0909118
:10147000F0039111FCCF91E09093F0032093EE03E1
:101480002FEF209383031092C803240F2093C703E8
:101490009093EF039091EF03880F892B8093EF03D4
:1014A0008091ED03813061F41092ED038091EF03A0
:1014B0008093BB008091BC0083FDF8CF85EC01C018
:1014C00085EE8093BC008091F0038130E1F3809140
:1014D000C803841710F44091C80329EC33E0FB01E2
:1014E000D9018A2F821B841718F48D918193F9CF2B
:1014F000842F089580E008950F93413208F04AC088
:101500009091F0039111FCCF92E09093F00300933F
:10151000EE039FEF909383031092C8034093C70399
:10152000FB0169EC73E0DB019A2F961B941718F40A
:1015300091919D93F9CF1092EF039091EF03880F53
:10154000892B8093EF038091ED03813061F4109239
:10155000ED038091EF038093BB008091BC0083FD7D
:10156000F8CF85EC01C085EE8093BC00222321F0EA
:101570008091F0038230E1F3809183038F3F61F02B
:1015800080918303803251F080918303803341F452
:1015900083E007C081E005C080E003C082E001C0B5
:1015A00084E00F910895613298F42091F003243083
:1015B00089F46093A503FC0187EA93E0DC012A2FFC
:1015C000281B261718F421912D93F9CF80E0089558
:1015D00081E0089582E0089585ED8093BC008091BC
:1015E000BC0084FDFCCF1092F003089585EC80933D
:1015F000BC001092F00308951F920F920FB60F9245
:1016000011242F933F934F935F936F937F938F9307
:101610009F93AF93BF93EF93FF938091B900887F1F
:10162000803609F49EC078F5883209F45DC090F4E4
:10163000803109F456C038F4882309F4F5C08830A5
:1016400009F44FC0F5C0883109F44EC0803209F466
:101650005FC0EEC0803409F46AC058F4803309F4E6
:1016600057C0883309F0E4C0809383030E94F60AD0
:10167000DFC0803509F44FC0883509F45DC0883477
:1016800009F0D6C0D3C0883909F4C4C0A8F488379B
:1016900009F467C038F4883609F463C0803709F468
:1016A00060C0C6C0883809F4B5C0803909F45FC08D
:1016B000803809F0BDC05BC0803B09F483C038F4BA
:1016C000803A09F466C0883A09F47CC0B1C0803C15
:1016D00009F4A4C0883C09F4A1C0883B09F487C080
:1016E000A7C08091EF0310C09091C8038091C703F9
:1016F000981770F5E091C80381E08E0F8093C803BE
:10170000F0E0E753FC4F80818093BB0085EC83C001
:10171000809383038BC0E091C80381E08E0F809398
:10172000C8038091BB00F0E0E753FC4F80839091A9
:10173000C8038091C7036BC0E091C80381E08E0F9E
:101740008093C8038091BB00F0E0E753FC4F808397
:101750008091EE0381116AC081E08093ED0384EAF9
:101760005EC083E08093F00310928403CFCF80911A
:101770008403803208F04EC0E091840381E08E0F34
:10178000809384038091BB00F0E0EB57FC4F808393
:10179000BDCF0E94F60A80918403803230F4E0913C
:1017A0008403F0E0EB57FC4F10826091840370E0FB
:1017B000E091E903F091EA0385E893E0099510923E
:1017C000840336C084E08093F0031092A603109245
:1017D000A503E091EB03F091EC0309958091A5033B
:1017E000811105C081E08093A5031092A703E091C9
:1017F000A60381E08E0F8093A603F0E0E955FC4F2D
:1018000080818093BB009091A6038091A5039817D7
:1018100008F47CCF85E88093BC000AC085EC8093F7
:10182000BC001092F00304C0109283030E94EC0AE3
:10183000FF91EF91BF91AF919F918F917F916F91A8
:101840005F914F913F912F910F900FBE0F901F907E
:1018500018950F931F93CF93DF93EC01662359F0F4
:101860000E94C71769837A838B839C83DF91CF9112
:101870001F910F9108950E94C71709811A812B812A
:101880003C81601B710B820B930B623371058105E8
:10189000910530F763E070E080E090E00E94F61779
:1018A000EACF60E00C94290CCF92DF92EF92FF9286
:1018B0000F931F93CF93DF9300D000D0CDB7DEB747
:1018C0008C017B01FC0172AB61AB8BE1C82ED12C8A
:1018D000C70129833A834B835C830E94231A2981A1
:1018E0003A814B815C81811113C0F1E0CF1AD1089C
:1018F00079F064E670E080E090E029833A834B83DE
:101900005C830E94F6175C814B813A812981E0CF8C
:10191000BA01A901F80181A992A90F900F900F9027
:101920000F90DF91CF911F910F91FF90EF90DF907B
:10193000CF900C941D1AFC0113AA14AA15AA16AA7A
:1019400011821282138214824115510561057105BD
:1019500021F0CB01BA010C94F61708951F93CF9391
:10196000DF93EC01162F69E072E089A99AA90E9421
:10197000791A4AE050E0612F89A99AA90E94461B72
:1019800060E172E089A99AA90E94791A62E370E085
:1019900080E090E0DF91CF911F910C94F6171F9398
:1019A000CF93DF93EC01162F8D81882389F189A9CC
:1019B0009AA9DC01ED91FC910480F581E02D099557
:1019C000892BA9F307C02637310519F128353105D0
:1019D00009F41D8289A99AA9DC01ED91FC9104808A
:1019E000F581E02D09951816190694F489A99AA98C
:1019F000DC01ED91FC910680F781E02D09959C01B9
:101A0000332723363105F9F6612FCE010E94AE0C43
:101A100083E6DF91CF911F9108950F931F93CF938A
:101A2000DF931F92CDB7DEB78C01662349F081E0CA
:101A3000F801858360E0C80149830E94CF0C498189
:101A4000F80145830F90DF91CF911F910F91089579
:101A5000FC0183E090E090878783138612861486CA
:101A60000895EF92FF921F93CF93DF931F92CDB70C
:101A7000DEB77C01162FFC01618581E393E0498389
:101A80000E948E09612F81E393E00E9445094981FC
:101A9000642F81E393E00E94450981E393E00E9473
:101AA0000F0AF70186830F90DF91CF911F91FF906E
:101AB000EF900895CF93DF93EC018F819885029783
:101AC00029F440E069E3CE010E94310D40E063E279
:101AD000CE010E94310D4FE660E2CE01DF91CF9141
:101AE0000C94310D9F92AF92BF92CF92DF92EF9202
:101AF000FF920F931F93CF93DF93EC01698581E3EE
:101B000093E00E948E09E0913103F091320301903D
:101B1000F081E02D68EA81E393E0099581E393E0A9
:101B20000E940F0A46E0698581E393E00E940C0A57
:101B30000E94C7177B0181E393E00E94ED0806979E
:101B400084F48A859B85892BB1F30E94C7176E198F
:101B50007F098A859B858617970768F781E08C87C0
:101B60002CC081E393E00E94F508A82E81E393E066
:101B70000E94F508982E81E393E00E94F508E82E74
:101B800081E393E00E94F508B82E81E393E00E9480
:101B9000F508F82E81E393E00E94F508D92CC12CBA
:101BA000CA28D982C8821B2D00E00E291B830A8314
:101BB000982F88278F299D838C83DF91CF911F9148
:101BC0000F91FF90EF90DF90CF90BF90AF909F90DC
:101BD00008951F93CF93DF931F92CDB7DEB7162FD3
:101BE00081E393E049830E948E094981642F81E358
:101BF00093E00E94450981E393E00E940F0A81115E
:101C000014C041E0612F81E393E00E940C0A81E35C
:101C100093E00E94ED08892B41F081E393E00F905F
:101C2000DF91CF911F910C94F5088FEF9FEF0F90EC
:101C3000DF91CF911F910895EF92FF920F931F9321
:101C4000CF93DF937C01EB018A016330710521F0B2
:101C50004230510509F051C0CE010197039758F564
:101C60000115110581F04FE050E06BE6C7010E94BD
:101C7000E90D8F3F2FEF920719F001E010E013C03C
:101C80000130110551F04FE050E06AE6C7010E94B3
:101C9000E90D8F3FEFEF9E0721F4C330D10569F0C6
:101CA00027C000E010E0C330D10529F4873D91053D
:101CB000F1F5C2E0D0E02097D9F40115110561F0EB
:101CC0004FE050E069E6C7010E94E90D833D9105B0
:101CD00089F10130110549F04FE050E068E6C70195
:101CE0000E94E90D833D910541F1C330D10519F002
:101CF0000230110511F480E025C0F701D087C783B9
:101D0000209759F0D7FD11C023977CF401301105BD
:101D100011F48BE608C08AE606C00130110511F403
:101D200089E601C088E6F701818781E00BC0C1E048
:101D3000D0E0C1CF01E010E002C000E010E0C0E060
:101D4000D0E0D6CFDF91CF911F910F91FF90EF9010
:101D50000895CF93DF93EC0186E0E2E7F1E0DE0146
:101D6000529601900D928A95E1F786E0E8E7F1E05E
:101D7000DE011C9601900D928A95E1F784E090E0D7
:101D80009A8F898F1CA61BA61DA6DF91CF9108955F
:101D9000EF92FF921F93CF93DF931F92CDB7DEB7E1
:101DA0007C01162FFC01638D81E393E049830E943F
:101DB0008E09612F81E393E00E9445094981642FD8
:101DC00081E393E00E94450981E393E00E940F0ABA
:101DD000F701808F0F90DF91CF911F91FF90EF90CF
:101DE0000895EF92FF921F93CF93DF931F92CDB789
:101DF000DEB77C01162FFC01648D81E393E04983FB
:101E00000E948E09612F81E393E00E944509498178
:101E1000642F81E393E00E94450981E393E00E94EF
:101E20000F0AF701808F0F90DF91CF911F91FF90E4
:101E3000EF900895FC01218D328D2330310511F092
:101E4000603210F40C94F10E0C94C80ECF93DF9313
:101E5000EC01898D9A8D83309105D9F440E061E2DF
:101E6000CE010E941A0F47E560E2CE010E941A0FD0
:101E700044E664E2CE010E941A0F40E265E2CE0120
:101E80000E941A0F40E066E2CE01DF91CF910C94E0
:101E90001A0F029739F448E063E2CE010E94C80E9F
:101EA00047E406C040E063E2CE010E94C80E47E26C
:101EB00060E2CE010E94C80E4CE060E0CE010E94BC
:101EC000F10E40E261E0CE010E94F10E40E062E0DE
:101ED000CE01DF91CF910C94F10E1F93CF93DF933E
:101EE0001F92CDB7DEB7162F81E393E049830E949E
:101EF0008E094981642F81E393E00E94450981E3C3
:101F000093E00E940F0A811114C041E0612F81E328
:101F100093E00E940C0A81E393E00E94ED08892B74
:101F200041F081E393E00F90DF91CF911F910C94EA
:101F3000F5088FEF9FEF0F90DF91CF911F910895DC
:101F4000EF92FF920F931F93CF93DF93EC018B01DE
:101F50007A016430710521F04230510509F055C015
:101F6000C8010397029708F0CDC0E114F10471F0A5
:101F70004FE050E06DE1CE010E946D0F8934910574
:101F800009F4B8C081E0E816F10451F04FE050E0E8
:101F90006EE1CE010E946D0F8934910509F4AEC047
:101FA0000430110509F0D0C0E114F10469F040E2F9
:101FB00050E069E1CE010E946D0F019679F421E0B5
:101FC000E216F10409F4A3C040E250E068E1CE015A
:101FD0000E946D0F019609F0A4C099C0043011054C
:101FE00009F09BC04FE050E06EE1CE010E946D0F02
:101FF000EE24E394F12CCC9709F0A9C002E010E0A4
:1020000082E0E816F10409F486C01A8F098F0130C6
:10201000110569F124F4012B09F449C069C00230AB
:10202000110541F10330110509F062C0EA94EF286F
:1020300011F48DE101C08EE18C8F8B8F88E090E0F0
:102040009AA389A389E090E098A38F8F8AE090E01B
:102050009EA38DA38BE090E09CA38BA38CE090E0EB
:102060009AA789A78DE090E098A78FA341C0EA9432
:10207000EF2811F489E101C088E18B8F8EE18C8F0C
:1020800083E090E098A38F8F84E090E09AA389A3E7
:1020900087E090E09CA38BA388E090E09EA38DA3B3
:1020A00085E090E098A78FA386E090E01FC0EA94B7
:1020B000EF2811F489E101C088E18B8F8EE18C8FCC
:1020C00083E090E098A38F8F84E090E09AA389A3A7
:1020D00085E090E09CA38BA386E090E09EA38DA377
:1020E00087E090E098A78FA388E090E09AA789A75F
:1020F00081E030C0EE24E394F12C02C0E12CF12CFD
:1021000003E010E00330110508F44ECF79CF04301E
:10211000110509F075CF80E01DC0EE24E394F12C89
:102120006FCF0430110569F44FE050E06EE1CE014D
:102130000E946D0F31E020E0CC9709F030E0032FD2
:10214000122FE12CF12C5CCF03E010E059CF00E01E
:1021500010E056CFDF91CF911F910F91FF90EF903C
:10216000089590912A04E0912E04F0912F04992370
:1021700011F0849101C080812FEB280F2A3110F4D7
:10218000805E0895803249F49F012F5F3F4F309366
:102190002F0420932E04EF2B31F708951F93CF9334
:1021A000DF930E94B110C0E0D0E01AE090ED980FEC
:1021B0009A30B8F49E01129FE001139FD00D1124B4
:1021C000C80FD11D87FDDA95E09780912E0490917C
:1021D0002F04019690932F0480932E040E94B11037
:1021E000E5CFCE01DF91CF911F910895109272003B
:1021F0001092C00084E08093C10089E08093C20007
:1022000081E08093C300EFEBF0E083E0808388EE11
:102210008093D10010821092D200579A789408953A
:102220002F923F924F925F926F927F928F929F92E6
:10223000AF92BF92CF92DF92EF92FF920F931F93D4
:10224000CF93DF93CDB7DEB727970FB6F894DEBFF5
:102250000FBECDBF7C011B014D83809130048111E5
:1022600005C081E0809330040E94F6101092530163
:10227000F7FE04C0E894F7F81AE001C011E088E224
:10228000189F802D1124282F30E03F832E832E1598
:102290003F0510F4FF82EE82113049F44E815F81D8
:1022A0004131574220F0E0E1F7E2FF83EE83812ED7
:1022B000912CA12CB12C8E819F81969587959C01A4
:1022C00040E050E029833A834B835C834E815F81F9
:1022D0002A01612C712CA501940160E072E18AE76A
:1022E00090E00E94362429813A814B815C81620F03
:1022F000731F841F951FA30192010E948824690106
:102300007A01EE24FF2400E00F5FC11434E0D3060D
:10231000E104F10408F120E032E14AE750E0002E48
:1023200004C055954795379527950A94D2F7C5016E
:10233000B4010E94362429813A814B815C81620F6D
:10234000731F841F951FA30192010E9488246901B5
:102350007A01EE24FF24D8CF1A3049F48E819F8170
:1023600005966AE070E00E9452247F836E834E815E
:102370005F81483E83E0580759F09101DA010E94DD
:10238000AD2428EE33E040E050E00E94882419019B
:10239000109272008091C100807F802B8093C100D9
:1023A000BB27AF2D9E2D8D2D8093BF00C092D100F5
:1023B0002D81203108F02FE080E190E0821B91090F
:1023C00004C0F694E794D794C7948A95D2F78D2DDC
:1023D00099278093BF00C092D20030922D042092A2
:1023E0002C0489B38FEF89BB84E080937200279619
:1023F0000FB6F894DEBF0FBECDBFDF91CF911F9116
:102400000F91FF90EF90DF90CF90BF90AF909F9093
:102410008F907F906F905F904F903F902F90089596
:10242000CF93DF93EB018F3F11F0411105C040E0E6
:10243000BE0188EE93E043C0813130F050EF580F79
:10244000503618F05FE501C050E0852F6CE00E9427
:102450004624682F74EF760390011124250F311D57
:102460002C30310540F4F901EE0FFF1FEF59FD4FFD
:102470002081318102C020E030E0873081F0082ED9
:1024800002C0220F331F0A94E2F7823028F0C901FC
:1024900005966AE070E00CC0C90190580CC0C901F3
:1024A00036E0880F991F3A95E1F7029665E070E0F3
:1024B0000E945224CB01403108F04FE0BE01DF9171
:1024C000CF910C9410114F925F926F927F928F92E6
:1024D0009F92AF92BF92CF92DF92EF92FF920F93B3
:1024E0001F93CF93DF9300D0CDB7DEB7909052010A
:1024F00080912904882321F060912804611117C07C
:1025000077247394B0ECAB2EBDE5BB2E1AE0612EA0
:1025100004E0802E80EDC82E87E0D82E94E0E92ECE
:10252000F12C04EF11E02FE0422E512C15C070E089
:1025300040E088EE93E00E9410111092280429C117
:102540008636D4F5813609F4A9C07CF58C3309F4BC
:1025500060C08E3381F493940E94B11020912E04B8
:1025600030912F042F5F3F4F30932F0420932E0480
:10257000853631F752C0813209F08BC0809252010A
:10258000D0925101C0925001F0924F01E0924E0161
:1025900010934D0100934C0150924B0140924A011F
:1025A00010922904A4E09A2ED7CF8336A1F10CF41F
:1025B00078C010E082E077C08D36C1F194F48736A0
:1025C00091F174F18C3609F064C00E94CE10BC0108
:1025D00090934F0180934E01809150019091510151
:1025E00051C08237C9F14CF48F3609F052C00E94B5
:1025F000CE10982E80935201AFCF843781F1863769
:1026000009F047C00E94CE1090934B0180934A017D
:10261000A3CF9A94A1CF10E020C010E084E043C083
:1026200010E085E040C010E087E03DC00E94B1109E
:102630008C3619F41092290404C070922904109267
:10264000280420912E0430912F042F5F3F4F3093A8
:102650002F0420932E0480CF11E080E024C00E943C
:10266000CE10BC01C5010E945224669EC001679E27
:10267000900D1124909351018093500160914E016F
:1026800070914F010E94522470934D0160934C0150
:1026900063CF10922F0410922E047BC010E089E0CB
:1026A00002C010E08BE0082F9CE0999E000D1124E1
:1026B0000E94B110982F977F933261F420912E04DD
:1026C00030912F042F5F3F4F30932F0420932E041F
:1026D0000F5FEECF8D3271F420912E0430912F04D4
:1026E0002F5F3F4F30932F0420932E0401500E9400
:1026F000B110F0CF60914C0170914D018153883041
:1027000050F4E0905001F09051010E94CE10BC01B5
:10271000C7010E9452247B01F694E79469837A836F
:102720000E94B11069817A818E3269F420912E0461
:1027300030912F042F5F3F4F30932F0420932E04AE
:102740006E0D7F1DE9CF80912904882339F09B010C
:102750003695279520932804621B710940914A0100
:10276000112311F08FEF01C0802F0F900F90DF9198
:10277000CF911F910F91FF90EF90DF90CF90BF907E
:10278000AF909F908F907F906F905F904F900C9440
:1027900010120F900F90DF91CF911F910F91FF902A
:1027A000EF90DF90CF90BF90AF909F908F907F90F1
:1027B0006F905F904F9008951F920F920FB60F92F7
:1027C00011242F933F934F935F936F937F938F9336
:1027D0009F93AF93BF93EF93FF9380912C049091BD
:1027E0002D049C012150310930932D0420932C0499
:1027F000892B11F51092720078948091C100807F2E
:1028000084608093C10083E08093BF0088EE809352
:10281000D1001092BF001092D20081E0809353014A
:1028200080912E0490912F04892B31F080912B04FC
:10283000811102C00E946312FF91EF91BF91AF918D
:102840009F918F917F916F915F914F913F912F91C8
:102850000F900FBE0F901F901895FC0113821282EB
:102860008DE792E091838083148208951F93CF9324
:10287000DF93EC01162F64600E94B0141E83DF9179
:10288000CF911F910895CF93DF93EC01E881F981F7
:102890000480F581E02D099563E0CE010E94AC141F
:1028A0008FE991E40197F1F700C0000063E0CE01E9
:1028B0000E94AC1487E592E00197F1F700C0000098
:1028C00063E0CE010E94AC1462E0CE010E94AC1421
:1028D00068E2CE010E94B01460E0CE010E94BE14F6
:1028E000CE010E94B41462E0CE010E94361464E06E
:1028F000CE01DF91CF910C94BE140F931F93CF9311
:10290000DF9300D01F92CDB7DEB78C01DC011496A7
:102910008C91149781110CC081E014968C93C8019E
:102920002B834A8369830E94431469814A812B81E6
:10293000D801ED91FC910680F781E02DC801099541
:10294000B5ECBA95F1F700000F900F900F90DF9162
:10295000CF911F910F91089521E040E00C947D14D8
:1029600020E040E00C947D1461E00E94B0148FE3FD
:102970009FE10197F1F700C0000008951F93CF93E6
:10298000DF93EC01162F68600E94B0141D83DF9165
:10299000CF911F91089520E041E00C947D140E9496
:1029A000CB1481E090E00895CF92DF92EF92FF92F6
:1029B0000F931F93CF93DF937C018A01EB016B018F
:1029C000C40ED51ECC15DD0529F06991C7010E9402
:1029D000CB14F8CFC801DF91CF911F910F91FF90D9
:1029E000EF90DF90CF9008954FB141705CB156FBEE
:1029F000552750F95427809137046091380420916D
:102A0000310430913204852790E06427861B9109B8
:102A1000820F931F90933204809331049091380475
:102A200080913704591729F0481719F081E08093F5
:102A30003604509338044093370408951F920F9240
:102A40000FB60F9211242F933F934F935F936F9381
:102A50008F939F932CB130E0359527953595279529
:102A6000422F417083B190E054E0959587955A9537
:102A7000E1F782279327582F517080913904609194
:102A80003A042091330430913404852790E0642780
:102A9000861B9109820F931F909334048093330413
:102AA00090913A0480913904591729F0481719F088
:102AB00081E08093360450933A04409339049F9107
:102AC0008F916F915F914F913F912F910F900FBE1A
:102AD0000F901F90189524982C9A6A98729A6E9865
:102AE000769A8098889A81E08093680090E190932C
:102AF0006B008BBB41E050E064EF74E184E00E9426
:102B00006A168CB182FB882780F981708093390422
:102B100093B18091390492959170892780933A04FA
:102B20001092340410923304109236048FB18170E5
:102B3000809337049CB18091370496FB992790F9D4
:102B40008927809338041092320410923104109235
:102B5000350408958091A402811105C081E080931D
:102B6000A4020C946B1508950E94AA15F894809104
:102B7000330490913404789408950E94AA15F8942F
:102B80008091310490913204789408950E94AA159E
:102B9000F89480913304909134041092340410928C
:102BA0003304789408950E94AA15F8948091310412
:102BB0009091320410923204109231047894089566
:102BC0000E94AA15809136041092360408950E943E
:102BD000AA15809135041092350408952E98269AEE
:102BE0002D98259A2A98229A2998219A80EA8093EA
:102BF000800081E18093810080E991E090938700DB
:102C000080938600109289001092880010928B00A9
:102C100010928A00089580913B04811105C081E0E3
:102C200080933B040C94EE15089580933D04089521
:102C300080933C040895CF93DF93EC010E940B1620
:102C4000D7FF05C0D195C195D10981E001C080E0D1
:102C5000C13991E0D90714F0C0E9D1E0D0938B00DD
:102C6000C0938A0090913D04891711F02A9A01C0FF
:102C70002A98229ADF91CF910895CF93DF93EC01A8
:102C80000E940B16D7FF05C0D195C195D10981E0EF
:102C900001C080E0C13991E0D90714F0C0E9D1E06A
:102CA000D0938900C093880090913C04891711F05B
:102CB000299A01C02998219ADF91CF910895CF9345
:102CC000DF93EB010E941B16CE01DF91CF910C9494
:102CD0003D160895853008F04CC0E82FF0E0EE0F67
:102CE000FF1FEC5AFE4F718360838230E1F018F4CD
:102CF000813069F004C0833019F1843071F1809122
:102D000069008C7F842B80936900E89A08958091F4
:102D10006900440F551F440F551F837F842B8093F8
:102D20006900E99A08958091690034E0440F551FC5
:102D30003A95E1F78F7C842B80936900EA9A089595
:102D40008091690026E0440F551F2A95E1F78F73A3
:102D5000842B80936900EB9A089580916A0094E037
:102D6000440F551F9A95E1F78F7C842B80936A005E
:102D7000EE9A08951F920F920FB60F9211242F937F
:102D80003F934F935F936F937F938F939F93AF93F3
:102D9000BF93EF93FF93E0915401F0915501099592
:102DA000FF91EF91BF91AF919F918F917F916F9123
:102DB0005F914F913F912F910F900FBE0F901F90F9
:102DC00018951F920F920FB60F9211242F933F93D5
:102DD0004F935F936F937F938F939F93AF93BF9323
:102DE000EF93FF93E0915601F09157010995FF9100
:102DF000EF91BF91AF919F918F917F916F915F9173
:102E00004F913F912F910F900FBE0F901F901895EB
:102E10001F920F920FB60F9211242F933F934F934F
:102E20005F936F937F938F939F93AF93BF93EF9332
:102E3000FF93E0915801F09159010995FF91EF91AD
:102E4000BF91AF919F918F917F916F915F914F91C2
:102E50003F912F910F900FBE0F901F9018951F92CA
:102E60000F920FB60F9211242F933F934F935F93BE
:102E70006F937F938F939F93AF93BF93EF93FF9342
:102E8000E0915A01F0915B010995FF91EF91BF919B
:102E9000AF919F918F917F916F915F914F913F91F2
:102EA0002F910F900FBE0F901F9018951F920F92A9
:102EB0000FB60F9211242F933F934F935F936F930D
:102EC0007F938F939F93AF93BF93EF93FF93E09183
:102ED0005C01F0915D010995FF91EF91BF91AF9178
:102EE0009F918F917F916F915F914F913F912F9122
:102EF0000F900FBE0F901F9018951F920F920FB654
:102F00000F9211242F933F938F939F93AF93BF936F
:102F100080913F0490914004A0914104B0914204FB
:102F200030913E0423E0230F2D3720F40196A11D9C
:102F3000B11D05C026E8230F0296A11DB11D2093E7
:102F40003E0480933F0490934004A0934104B093C7
:102F500042048091430490914404A0914504B091AF
:102F600046040196A11DB11D80934304909344042F
:102F7000A0934504B0934604BF91AF919F918F9168
:102F80003F912F910F900FBE0F901F9018952FB764
:102F9000F89460913F0470914004809141049091B5
:102FA00042042FBF08953FB7F89480914304909155
:102FB0004404A0914504B091460426B5A89B05C0E1
:102FC0002F3F19F00196A11DB11D3FBF6627782F35
:102FD000892F9A2F620F711D811D911D42E0660F8E
:102FE000771F881F991F4A95D1F708958F929F9256
:102FF000AF92BF92CF92DF92EF92FF926B017C0172
:103000000E94D3174B015C01C114D104E104F10407
:10301000F1F00E9489200E94D317681979098A0962
:103020009B09683E73408105910570F321E0C21A47
:10303000D108E108F10888EE880E83E0981EA11CF3
:10304000B11CC114D104E104F10429F7DDCFFF90D4
:10305000EF90DF90CF90BF90AF909F908F900895AA
:10306000789484B5826084BD84B5816084BD85B563
:10307000826085BD85B5816085BDEEE6F0E080812A
:1030800081608083E1E8F0E010828081826080834B
:10309000808181608083E0E8F0E0808181608083CE
:1030A000E1E9F0E0808182608083808181608083BB
:1030B000E0E9F0E0808181608083E1ECF0E08081F4
:1030C000846080838081826080838081816080834E
:1030D000E3ECF0E0808181608083E0ECF0E08081CF
:1030E00082608083E2ECF0E0808181608083EAE7A7
:1030F000F0E0808184608083808182608083808131
:10310000816080838081806880830895823108F0A7
:103110008251E82FF0E0EA5EFE4FE49180917B005F
:10312000E3FB222720F930E095E0220F331F9A9528
:10313000E1F78F7D822B80937B00E77080915E01A9
:1031400020E4829FC0011124E82BE0937C00809151
:103150007A00806480937A0080917A0086FDFCCFAB
:10316000809178002091790090E0922B089590E072
:10317000FC013197EF30F105B0F5EA5AFF4F0C949E
:10318000A724809180008F7703C0809180008F7D7D
:1031900080938000089580918000877FF9CF84B567
:1031A0008F7702C084B58F7D84BD08958091900093
:1031B0008F7707C0809190008F7D03C08091900031
:1031C000877F8093900008958091C0008F7703C01F
:1031D0008091C0008F7D8093C00008958091C200CF
:1031E000877F8093C20008950F931F93CF93DF933F
:1031F0001F92CDB7DEB7282F30E0F901EE5DFE4F0C
:103200008491F901EF5BFE4F1491F901E05AFE4FF2
:1032100004910023C9F0882321F069830E94B71824
:103220006981E02FF0E0EE0FFF1FE158FE4FA591FE
:10323000B4919FB7F8948C91611103C010958123CC
:1032400001C0812B8C939FBF0F90DF91CF911F9175
:103250000F9108950E94C724CF93DF931F92CDB79B
:10326000DEB76983DC01ED91FC910280F381E02DF2
:1032700041E050E0BE016F5F7F4F09950F90DF91F5
:10328000CF910895CF93DF93EC018C859D8597FFB7
:1032900005C082E00E944B1D9D878C878C859D8593
:1032A000DF91CF91089583E00C94DF1FFC018485AA
:1032B000958597FD06C082E00E94F31C90E0019680
:1032C000089582E00E94F31C90E00895FC0184853B
:1032D000958597FD05C02FEF3FEF3587248708952B
:1032E00082E00C944B1DCF93DF93EC0180916A0137
:1032F000882331F083E00E947C1D1816190634F0F3
:1033000081E090E09B838A8380E090E0DF91CF9121
:103310000895FC0120812E5F208342E450E06DE897
:1033200071E080E80C94171EFC0121818081813AB4
:1033300059F4213209F04BC047E050E063E671E0F8
:1033400080E00E94171E5EC0813209F040C0233227
:1033500089F4838190E0982F88273281832BA0E025
:10336000B0E080935F0190936001A0936101B093FE
:1033700062010FC0203239F467E070E083E691E02B
:103380000E94481E09C0223221F4828180936A0182
:1033900003C02D7F2032B1F580919704811103C0C5
:1033A000E0E0F8E002C0EEEFFAE080916301909176
:1033B0006401A0916501B0916601803B9440A10534
:1033C000B10511F580916A0180FF03C01DC080E046
:1033D0000895EE3F2AE0F20731F0808191819093C9
:1033E000FF0A8093FE0A87E797E7918380832BE0AB
:1033F00088E190E00FB6F894A895809360000FBE26
:103400002093600081E0089588E10FB6F8948093DE
:103410006000109260000FBEA895EE3F8AE0F807AA
:1034200039F08091FE0A9091FF0A91838083EACF60
:103430001092FF0A1092FE0AE5CF2FEF3FEFFC013A
:10344000358724870895CF93C0916A016AE070E0C0
:1034500080E090E00E94F61781E0C11101C080E099
:10346000CF91089510924A041092490488EE93E097
:10347000A0E0B0E080934B0490934C04A0934D04E3
:10348000B0934E0489E892E09093480480934704F7
:103490008FEF9FEF90935404809353040895089501
:1034A0000E9430180E944F1A88E994E00E946C2014
:1034B0000E949607C0E0D0E00E94F1072097E1F358
:1034C0000E940000F9CF6115710581F0DB010D90BC
:1034D0000020E9F7AD0141505109461B570BDC01B3
:1034E000ED91FC910280F381E02D099480E090E061
:1034F00008950C94631ADC01ED91FC910190F08128
:10350000E02D099466E172E00C94631A0F931F9307
:10351000CF93DF93EC010E94631A8C01CE010E94CD
:10352000821A800F911FDF91CF911F910F91089503
:103530008F929F92AF92BF92DF92EF92FF920F9382
:103540001F93CF93DF93CDB7DEB7A1970FB6F89453
:10355000DEBF0FBECDBF7C01F42FD52ECB0119A24B
:10356000223008F42AE08E010F5D1F4F822E912C2D
:10357000A12CB12C6F2F7D2DA50194010E946624F2
:10358000F22FD32ECA01015011096A3014F4E0E37E
:1035900001C0E7E3E60FD801EC93232B242B252B66
:1035A00049F7B801C7010E94631AA1960FB6F894B3
:1035B000DEBF0FBECDBFDF91CF911F910F91FF9066
:1035C000EF90DF90BF90AF909F908F900895CF9233
:1035D000DF92EF92FF920F931F93CF93DF93EC0153
:1035E0006A017B012115310579F4E881F9810190A7
:1035F000F081E02D642FDF91CF911F910F91FF900B
:10360000EF90DF90CF9009942A303105E9F477FFED
:103610001AC06DE20E947B1A8C0144275527BA011B
:103620004C195D096E097F092AE0CE010E94981AA3
:10363000800F911FDF91CF911F910F91FF90EF901D
:10364000DF90CF9008952AE0B701A601CE01DF9167
:10365000CF911F910F91FF90EF90DF90CF900C943E
:10366000981A9A01AB01662757FD6095762F0C9446
:10367000E71A2115310541F4DC01ED91FC9101902F
:10368000F081E02D642F09940C94981A9A01462F2A
:1036900050E060E070E00C94391B4F925F926F92A3
:1036A0007F928F929F92AF92BF92CF92DF92EF92D2
:1036B000FF920F931F93CF93DF93EC016A017B017D
:1036C000B22E9A01AB01C701B6010E9413248823D0
:1036D00019F065E972E027C026013701E89477F810
:1036E0002FEF3FEF4FE75FE7C301B2010E941324C2
:1036F00081110DC02FEF3FEF4FE75FE7C301B2012C
:103700000E94EC2118161CF469E972E00CC02FEF3E
:103710003FEF4FE75FE4C701B6010E949C231816F4
:10372000ACF46DE972E0CE01DF91CF911F910F9162
:10373000FF90EF90DF90CF90BF90AF909F908F90D1
:103740007F906F905F904F900C94631A2FEF3FEF34
:103750004FE75FECC701B6010E94EC2187FDE1CF86
:1037600020E030E0A901C701B6010E94EC2187FFEB
:103770000AC06DE2CE010E947B1A8C01F7FAF09428
:10378000F7F8F09402C000E010E0A12C60E070E0D7
:1037900080E09FE3AB1441F020E030E040E251E4F0
:1037A0000E94F321A394F6CF9B01AC01C701B6019F
:1037B0000E9426216B017C010E9460222B013C01AA
:1037C0000E948C229B01AC01C701B6010E942521F9
:1037D0006B017C012AE0B301A201CE010E94981A7C
:1037E000080F191FBB2039F061EA72E0CE010E9478
:1037F000631A080F191F7B2C772041F120E030E07D
:1038000040E251E4C701B6010E94A7236B017C018D
:103810000E945B224B01AA2497FCA094BA2C2AE0B8
:1038200030E0B501A401CE010E94E71A080F191F6C
:10383000C501B4010E948E229B01AC01C701B601F3
:103840000E9425216B017C017A94D6CFC801DF91BB
:10385000CF911F910F91FF90EF90DF90CF90BF908D
:10386000AF909F908F907F906F905F904F90089552
:103870000C944D1B615030F02091F100FC0120832D
:103880000196F8CF289884E68093A104089540918A
:103890009C0450919D0420919A0430919B044217FE
:1038A0005307B4F49091E8009570E1F39091E8002B
:1038B00092FD19C08093F10080919C0490919D0429
:1038C00001968F739927892B19F48EEF8093E80066
:1038D00080919C0490919D04019690939D04809307
:1038E0009C0481E0089580E00895CF92DF92EF92EA
:1038F000FF920F931F93CF93DF931F92CDB7DEB745
:10390000082F162FF42E862F880F8E5F99830E9422
:10391000471C83E00E94471CE02EC02E9981D92EBF
:103920008C2D8E19811798F4F601F7FE02C0849150
:1039300001C080810E94471C082F80E00E94471C24
:103940008023FFEFCF1ADF0A8111EACF01C081E0A7
:103950000F90DF91CF911F910F91FF90EF90DF902B
:10396000CF9008958091D70081608093D70080EA3E
:103970008093D80089B5806189BD89B5826089BD91
:1039800009B400FEFDCF61E070E080E090E00E94AD
:10399000F6178091D8008F7C80618093D800809149
:1039A000E000807F8093E0000895CF93DF931F9223
:1039B000CDB7DEB71982CE0101960E9489190E9407
:1039C0001121BE016F5F7F4F0E948A2089810F9075
:1039D000DF91CF9108952FB7FC012083F894677091
:1039E0006093E9000895CF93DF931F92CDB7DEB7C0
:1039F000682FCE0101960E94EB1C8091F200998104
:103A00009FBF0F90DF91CF910895FF920F931F9367
:103A1000CF93DF9300D0CDB7DEB7F62E8A01909119
:103A2000A004992311F057FF03C08FEF9FEF2BC025
:103A3000682FCE0101967A830E94EB1C8091F200E0
:103A400090E0A8017A81801791070CF4AC01EF2D6A
:103A5000F72FF40E84E6FE1639F028988093A1041F
:103A60009091F1009193F7CF4115510521F080918C
:103A7000F200882321F089818FBFCA0104C08BE640
:103A80008093E800F8CF0F900F90DF91CF911F91B6
:103A90000F91FF900895CF93DF931F92CDB7DEB7BC
:103AA00041E050E0BE016F5F7F4F0E94051D01970E
:103AB00019F4898190E002C08FEF9FEF0F90DF91A2
:103AC000CF910895CF93DF931F92CDB7DEB7682FC4
:103AD000CE0101960E94EB1C9091E800892F807224
:103AE00095FF04C09091F20080E4891B99819FBFEB
:103AF0000F90DF91CF9108956F927F928F929F9256
:103B0000AF92BF92CF92DF92EF92FF920F931F93EB
:103B1000CF93DF931F92CDB7DEB7782E7B01C42EF3
:103B2000B52E8091A004882369F0042F152F8AEF09
:103B3000D82E872D8072982E9AE3A92E872D807417
:103B4000882E11C08FEF9FEF57C0872D0E94621DF6
:103B5000682E81110CC0DA94A9F361E070E080E076
:103B600090E00E94F6170115110579F73BC0282F48
:103B700030E0021713070CF4602E672DCE0101967A
:103B80000E94EB1C8091E80085FF29C0262D30E0C3
:103B9000021B130B992039F06A948FEF6816B1F06D
:103BA0001092F100F9CFF701862D77FE07C0815002
:103BB00058F094919093F1003196F9CF815020F014
:103BC00091919093F100FACFE20EF31E8091E800FC
:103BD00085FF0FC00115110511F481100AC08981FC
:103BE0008FBFC1CF5D9884E68093A2048C2D9B2D5E
:103BF00003C0A092E800F3CF0F90DF91CF911F9107
:103C00000F91FF90EF90DF90CF90BF90AF909F907B
:103C10008F907F906F9008951092E90010929D040C
:103C200010929C0490939B0480939A040895CF92E1
:103C3000DF92FF920F931F93CF93DF9300D0CDB706
:103C4000DEB7F82E8A016B0101151105B1F0F601FE
:103C5000F7FE02C0849101C0808149835A830E948B
:103C6000471C01501109FFEFCF1ADF0A49815A8121
:103C70008111EACF8FEF9FEF01C0CA010F900F9023
:103C8000DF91CF911F910F91FF90DF90CF9008951A
:103C9000BF92CF92DF92EF92FF920F931F93CF9339
:103CA000DF936C018B01EB013BEFB32E2097C1F04A
:103CB0007E01C134D1051CF020E4E22EF12C80916C
:103CC000E80082FFFCCFC8018C1B9D0B6E2D8C0D74
:103CD0009D1D0E943A1CB092E800CE19DF09E6CF84
:103CE000C801DF91CF911F910F91FF90EF90DF906E
:103CF000CF90BF9008951F920F920FB60F9211248C
:103D0000DF92EF92FF920F931F932F933F934F9366
:103D10005F936F937F938F939F93AF93BF93EF9333
:103D2000FF93CF93DF93CDB7DEB76C97DEBFCDBFE8
:103D30001092E9008091E80083FF23C168E0CE0182
:103D400045960E943A1C82EF8093E8003D8937FF38
:103D500005C08091E80080FFFCCF03C08EEF809308
:103D6000E800832F807609F0F0C02E894F89D88C27
:103D700021110CC0303829F480919F048093F10008
:103D800002C01092F1001092F100F4C0842F90E074
:103D90009D29213049F43111EDC0019709F0EAC0A5
:103DA00080919F048D7F0AC0233059F43111E2C005
:103DB000019709F0DFC080919F04826080939F0487
:103DC000D9C0253041F48091E80080FFFCCF4068E5
:103DD0004093E300CFC0263009F08DC0EB8CFC8C03
:103DE00022E0D2122CC080E090E00E940C1E0E94C3
:103DF000D51C99E08E010F5F1F4FF801292F1192FA
:103E00002A95E9F79983DA8291E09E8390EA988770
:103E10009AEF998720919C0430919D04275F3F4F32
:103E20003C832B838D83C7010E940C1E49E050E028
:103E3000B80180E00E94171E0E94D51C9BC0C701DC
:103E40000E940C1E0E941121BE016B5E7F4F0E94DA
:103E5000B320009719F00CF08DC090C081E0D8120B
:103E60000EC08B8D9C8D089719F481E08093990486
:103E70008091990481112FC061EE71E031C0E3E0BF
:103E8000DE127CC08F89882349F1823029F440E812
:103E900062E186E092E01CC0813029F440E862E1F2
:103EA00083EF91E015C0833009F068C00E941121B2
:103EB0008E010F5F1F4FB8010E94D220F8010190C0
:103EC0000020E9F73197E01BF10B40E06E2FC801AD
:103ED0000E94751C4DC06FEC71E002C069E172E098
:103EE0006115710509F44AC0FB01449150E080E876
:103EF0000E94171E3FC0273009F440C0283021F42B
:103F000081E08093F10036C02930A1F53370B1F51E
:103F1000ECE6F1E081E021E036E39081992361F065
:103F20008093E9002093EB0091919093EC00309303
:103F3000ED008F5F873089F78EE78093EA0010925B
:103F4000EA008F898093A00415C08B8D9C8D0E9400
:103F50000C1E898D811105C0CE0145960E949419D1
:103F600007C00E941121BE016B5E7F4F0E94F120AD
:103F7000882321F08EEF8093E80003C081E28093D4
:103F8000EB006C960FB6F894DEBF0FBECDBFDF918D
:103F9000CF91FF91EF91BF91AF919F918F917F91C1
:103FA0006F915F914F913F912F911F910F91FF90D2
:103FB000EF90DF900F900FBE0F901F901895809399
:103FC000E9008091F200882319F08AE38093E800E9
:103FD00008951F920F920FB60F9211242F933F93C3
:103FE0004F935F936F937F938F939F93AF93BF9301
:103FF000CF93EF93FF93C091E1008091E100837F25
:104000008093E1008093E100C3FF0FC01092E900AC
:1040100081E08093EB001092EC0082E38093ED004E
:104020001092A00488E08093F000C2FF19C083E0E2
:104030000E94DF1F8091A204882339F08091A2049E
:1040400081508093A204882389F18091A104882360
:1040500039F08091A10481508093A104882341F11B
:10406000C4FF10C08091E2008E7E81608093E200E8
:104070008091E1008F7E8093E10080919E048E7E8E
:10408000806111C0C0FF16C08091E2008E7E806109
:104090008093E2008091E1008E7E8093E100809128
:1040A0009E048E7E816080939E0404C05D9ACDCF75
:1040B000289AD6CFFF91EF91CF91BF91AF919F9169
:1040C0008F917F916F915F914F913F912F910F90C1
:1040D0000FBE0F901F9018951092A00410929F048D
:1040E00010929E040E94B21C8091E1008E7E80930B
:1040F000E1008DE08093E200559A209AEEEFFFE711
:10410000859194918B3F9C4D19F481E080939704A5
:1041100008950895EF92FF920F931F93CF93DF932B
:104120007B01FC01C281D38100E010E0209781F087
:10413000E881F9810280F381E02DB701CE01099574
:1041400097FD08C0080F191F0884D985C02DEECF30
:10415000C80102C08FEF9FEFDF91CF911F910F91A8
:10416000FF90EF9008950F931F93CF93DF938B01F0
:10417000FC01C281D381209771F0E881F98104802C
:10418000F581E02DB801CE010995009731F408843E
:10419000D985C02DF0CF80E090E0DF91CF911F91C5
:1041A0000F9108950F931F93CF93DF938B01FC0121
:1041B000C281D381209771F0E881F9810680F7816F
:1041C000E02DB801CE010995080F111D0884D9858D
:1041D000C02DF0CFF8011082DF91CF911F910F9188
:1041E00008950F931F93CF93DF938B01FC01C2813E
:1041F000D381209771F0E881F9810190F081E02D61
:10420000B801CE010995811106C00884D985C02D59
:10421000F0CF80E001C081E0DF91CF911F910F913D
:1042200008958091A70481110DC082E08093A304BA
:1042300084E08093A4041092A6041092A50481E067
:104240008093A70483EA94E008955058BB27AA27D7
:104250000ED027C2F0D130F0F5D120F031F49F3FDD
:1042600011F41EF4C0C10EF4E095E7FBB6C1E92FCE
:104270003AD280F3BA17620773078407950718F0DC
:1042800071F49EF552C20EF4E0950B2EBA2FA02DBC
:104290000B01B90190010C01CA01A0011124FF27F3
:1042A000591B99F0593F50F4503E68F11A16F040EE
:1042B000A22F232F342F4427585FF3CF46953795ED
:1042C0002795A795F0405395C9F77EF41F16BA0BB2
:1042D000620B730B840BBAF09150A1F0FF0FBB1F60
:1042E000661F771F881FC2F70EC0BA0F621F731FA9
:1042F000841F48F4879577956795B795F7959E3F06
:1043000008F0B3CF9395880F08F09927EE0F979593
:104310008795089590D158F080E891E009F49EEFD8
:1043200091D128F040E851E059F45EEF09C05BC13B
:10433000FCC1E92FE078D7D168F3092E052AC1F333
:10434000261737074807590738F00E2E07F8E025DB
:1043500069F0E025E0640AC0EF6307F8009407FA0B
:10436000DB01B9019D01DC01CA01AD01EF934AD027
:1043700098D10AD05F91552331F02BED3FE049E40D
:1043800050FD49EC63CF0895DF93DD27B92FBF7748
:1043900040E85FE31616170648075B0710F4D92FAD
:1043A000CFD19F938F937F936F933AD2EAECF0E053
:1043B0001DD177D12F913F914F915F91D4D1DD23C2
:1043C00049F09058A2EA2AED3FE049EC5FE3D0784B
:1043D0005D274DDFDF9165C1DCD008F481E00895F1
:1043E00039D1E3956FC10CD05CC12CD140F023D101
:1043F00030F021F45F3F19F0F0C0511197C1F3C0C4
:1044000072D198F39923C9F35523B1F3951B550B3A
:10441000BB27AA2762177307840738F09F5F5F4F97
:10442000220F331F441FAA1FA9F333D00E2E3AF0D8
:10443000E0E830D091505040E695001CCAF729D0F2
:10444000FE2F27D0660F771F881FBB1F2617370741
:104450004807AB07B0E809F0BB0B802DBF01FF2771
:1044600093585F4F2AF09E3F510568F0B6C05EC179
:104470005F3FECF3983EDCF3869577956795B795AB
:10448000F7959F5FC9F7880F911D9695879597F9C6
:104490000895E1E0660F771F881FBB1F621773073F
:1044A0008407BA0720F0621B730B840BBA0BEE1F54
:1044B00088F7E095089504D06894B11137C1089544
:1044C0001AD188F09F5790F0B92F9927B751A0F0D3
:1044D000D1F0660F771F881F991F1AF0BA95C9F798
:1044E00012C0B13081F021D1B1E008951EC1672F13
:1044F000782F8827B85F39F0B93FCCF38695779548
:104500006795B395D9F73EF4909580957095619530
:104510007F4F8F4F9F4F0895E89409C097FB3EF45B
:1045200090958095709561957F4F8F4F9F4F992300
:10453000A9F0F92F96E9BB279395F695879577957E
:104540006795B795F111F8CFFAF4BB0F11F460FF3E
:104550001BC06F5F7F4F8F4F9F4F16C0882311F096
:1045600096E911C0772321F09EE8872F762F05C0AA
:10457000662371F096E8862F70E060E02AF09A9545
:10458000660F771F881FDAF7880F9695879597F93A
:104590000895990F0008550FAA0BE0E8FEEF1616D4
:1045A0001706E807F907C0F012161306E407F50727
:1045B00098F0621B730B840B950B39F40A2661F09B
:1045C000232B242B252B21F408950A2609F4A1403E
:1045D000A6958FEF811D811D089597F99F6780E84B
:1045E00070E060E008959FEF80EC0895DF93CF9333
:1045F0001F930F93FF92EF92DF927B018C016894DF
:1046000005C0DA2EEF01AFD0FE01E894A591259107
:10461000359145915591AEF3EF0129DEFE019701E9
:10462000A801DA9479F7DF90EF90FF900F911F9136
:10463000CF91DF91089500240A94161617061806E4
:104640000906089500240A94121613061406050696
:104650000895C9CF50D0E8F3E894E0E0BB279F5716
:10466000F0F02AED3FE049EC06C0EE0FBB0F661FED
:10467000771F881F28F0B23A62077307840728F073
:10468000B25A620B730B840BE3959A9572F78038DC
:1046900030F49A95BB0F661F771F881FD2F790489A
:1046A000C8C0092E0394000C11F4882352F0BB0FEC
:1046B00040F4BF2B11F460FF04C06F5F7F4F8F4F3A
:1046C0009F4F0895EF93E0FF06C0A2EA2AED3FE076
:1046D00049EC5FEBCCDDE5DF0F90039401FC9058D3
:1046E000E7EFF0E0B2C057FD9058440F551F59F066
:1046F0005F3F71F04795880F97FB991F61F09F3FCF
:1047000079F087950895121613061406551FF2CFF7
:104710004695F1DF08C0161617061806991FF1CF47
:1047200086957105610508940895E894BB2766276E
:104730007727CB0197F908952CDF08F48FEF0895C0
:104740009B01AC0160E070E080E89FE34CCE0BD0B1
:10475000A8CF71DF28F076DF18F0952309F03DCF60
:1047600042CF1124E3CFBFDFA0F3959FD1F3950F84
:1047700050E0551F629FF001729FBB27F00DB11DE5
:10478000639FAA27F00DB11DAA1F649F6627B00D75
:10479000A11D661F829F2227B00DA11D621F739F5E
:1047A000B00DA11D621F839FA00D611D221F749F6C
:1047B0003327A00D611D231F849F600D211D822FB3
:1047C000762F6A2F11249F5750408AF0E1F08823FA
:1047D0004AF0EE0FFF1FBB1F661F771F881F915007
:1047E0005040A9F79E3F510570F0F7CE9FCF5F3F35
:1047F000ECF3983EDCF3869577956795B795F7953A
:10480000E7959F5FC1F7FE2B880F911D96958795C1
:1048100097F908959F931EDF0F9007FCEE5F52CF2C
:104820009B01AC0194CFB5DE880B990B08959F3F97
:1048300031F0915020F4879577956795B795880F5B
:10484000911D9695879597F908959F938F937F93E0
:104850006F93FF93EF939B01AC0179DFEF91FF9191
:10486000C5DE2F913F914F915F9171CFDB018F9307
:104870009F930E94BC24BF91AF91A29F800D911D78
:10488000A39F900DB29F900D11240895991B79E07C
:1048900004C0991F961708F0961B881F7A95C9F7D0
:1048A00080950895AA1BBB1B51E107C0AA1FBB1F1F
:1048B000A617B70710F0A61BB70B881F991F5A95AC
:1048C000A9F780959095BC01CD010895A1E21A2E1B
:1048D000AA1BBB1BFD010DC0AA1FBB1FEE1FFF1FA4
:1048E000A217B307E407F50720F0A21BB30BE40BF4
:1048F000F50B661F771F881F991F1A9469F760953B
:104900007095809590959B01AC01BD01CF010895F4
:10491000052E97FB1EF400940E949F2457FD07D09C
:104920000E94662407FC03D04EF40C949F245095FB
:104930004095309521953F4F4F4F5F4F089590958B
:104940008095709561957F4F8F4F9F4F0895EE0F23
:10495000FF1F0590F491E02D0994A29FB001B39F31
:10496000C001A39F700D811D1124911DB29F700D78
:10497000811D1124911D08950E94AD24A59F900DC5
:10498000B49F900DA49F800D911D1124089581E086
:0C49900090E0F8940C94CC24F894FFCF35
:10499C000000AF0480000000C8420000C8420000C4
:1049AC00B04100000000000000000000000000000A
:1049BC0000000000000000000000000000000000EB
:1049CC0000000000000000000000000000000000DB
:1049DC00000000000000000000000F00F4010400C3
:1049EC00D00704016916691669166916691601FF64
:1049FC00FFFFFF00E100000000000000C18081000B
:104A0C000000018001800180FF7FFF7FFF7F564DFA
:104A1C004450455F37007C005F564D4450450D0AAD
:104A2C0000564D4450455F350043616C69627261BC
:104A3C0074696F6E204779726F20526561643A0019
:104A4C0052756E20233A004779726F204F66667359
:104A5C00657400564D4450455F3600564D445045E4
:104A6C005F3200564D4450455F3300564D4450560E
:104A7C005F317C315F564D4450560D0A00000000EA
:104A8C0000CF14D4143C015708000000004509184D
:104A9C0009ED08F50808091709564D4450435F0005
:104AAC005F564D4450430D0A004572726F723A20A6
:104ABC00417474656D707420746F2073657420611B
:104ACC0020726561642D6F6E6C79207661726961FC
:104ADC00626C65206F7220646174612074797065FA
:104AEC00206E6F7420737570706F727465640D0A2C
:104AFC00009C01B501CF01EA0107022602470269B9
:104B0C00028E02B502DE020A0300000000CF14D4AC
:104B1C00142A192A19000000002C19731956196649
:104B2C0019421953196E616E00696E66006F7666D4
:044B3C00002E000047
:00000001FF
