:100000000C9412010C9416180C943D180C9464185E
:100010000C948B180C943A010C943A010C94B2187D
:100020000C943A010C947A160C9445210C94D71F29
:100030000C943A010C943A010C943A010C943A0154
:100040000C943A010C943A010C943A010C943A0144
:100050000C943A010C943A010C943A010C94D9187E
:100060000C943A010C943A010C943A010C943A0124
:100070000C943A010C943A010C943A010C943A0114
:100080000C943A010C943A010C943A010C943A0104
:100090000C94240B0C943A010C943A010C943A0100
:1000A0000C943A010C9438150C943A012B1A2E1A20
:1000B0001D1A211A271A4F1A4F1A4F1A321A361AB6
:1000C0003A1A401A441A4F1A4A1A084AD73B3BCEEA
:1000D000016E84BCBFFDC12F3D6C74319ABD568347
:1000E0003DDA3D00C77F11BED9E4BB4C3E916BAAFF
:1000F000AABE000000803F05A84CCDB2D44EB9384E
:1001000036A9020C50B9918688083CA6AAAA2ABE34
:10011000000000803F00070605040100080A0B0CE0
:100120000D090000000200090F0000030401000C8B
:1001300000000000000000000000000000000000BF
:1001400000040802011040804010204080408008D8
:100150000204018040201002011080102040402045
:10016000040404040403040502020202040302025C
:100170000202060606060606040402020204040041
:10018000000000250028002B002E003100080B0085
:10019000020202010009040000010202000005241D
:1001A00000100105240101010424020605240600B3
:1001B000010705810310004009040100020A000044
:1001C00000070502024000000705830240000012FC
:1001D000010002EF020140FB1F00230001010203A6
:1001E000011201000200000040FB1F00230001017A
:1001F000020301506F6C6F6C7520436F72706F72E9
:100200006174696F6E00506F6C6F6C7520412D5377
:100210007461722033325534000403090400030969
:100220003A0A8E1B11241FBECFEFDAE0DEBFCDBF2E
:1002300012E0A0E0B1E0E4E5FCE402C005900D921C
:10024000A036B107D9F724E0A0E6B2E001C01D92C4
:10025000A938B207E1F712E0C4E2D2E004C0229765
:10026000FE010E940526CE31D107C9F70E94AC1BC2
:100270000C9428260C9400005B98539A0895FC0176
:10028000A2EEB0E08C9180831C92A9EEB0E08C913C
:1002900081831C92A0EFB0E08C9182831C92089520
:1002A000FC01A9EEB0E01C9282818093F000818174
:1002B0008C9380818093E200089560FF02C02B9AA6
:1002C00001C02B98239A61FF02C0289A01C0289888
:1002D000209A62FF02C0479A01C047983F9A63FF85
:1002E00002C05D9A01C05D98559A5B9A539A85E069
:1002F0008A95F1F700005B98539A85E08A95F1F7AB
:10030000000008954F925F926F927F928F929F921A
:10031000AF92BF92CF92DF92EF92FF920F931F9313
:10032000CF93DF9300D000D0CDB7DEB769837A8357
:100330008B839C8329013A01C801B70124E13EE681
:1003400043E654E40E9403254B015C012DE03FEE9F
:100350004AE850E469817A818B819C810E9403255F
:10036000A50194010E944F236B017C012DE03FEE1B
:100370004AE850E4C301B2010E940325A50194019B
:100380000E944F234B015C019B01AC01C701B601E8
:100390000E94822220E030E040E05FE30E940325DB
:1003A00060939D0270939E0280939F029093A0029F
:1003B000C092A102D092A202E092A302F092A40203
:1003C0008092A5029092A602A092A702B092A802E3
:1003D000A5019401C701B6010E9481222BE43AECE9
:1003E00048E95EE30E9403256093A9027093AA0284
:1003F0008093AB029093AC020F900F900F900F90F0
:10040000DF91CF911F910F91FF90EF90DF90CF90F0
:10041000BF90AF909F908F907F906F905F904F9024
:100420000895CF92DF92EF92FF92CF93DF9387EF01
:1004300092E00E949A0D6091FB027091FC02882765
:1004400077FD8095982F0E94EA2325E33AEF4EE846
:100450005CE30E94032520E030E04CE051E40E9480
:10046000032520E030E04AE754E40E944F236B016B
:100470007C018BEC93E00E94790CCCEFD3E06AE333
:1004800071E0888199810E94D51B62E471E08881C6
:1004900099810E94D51B22E030E0B701A601888136
:1004A00099810E94941D64E471E0888199810E9481
:1004B000D51B65E070E080E090E00E945219C70112
:1004C000B601DF91CF91FF90EF90DF90CF9008952C
:1004D000CF92DF92EF92FF92CF93DF9360E070E0D4
:1004E00080E090E00E94BB17CAEFD0E0C12CD12C75
:1004F000760187EF92E00E949A0D6AE070E080E05A
:1005000090E00E9452196091FB027091FC028827D2
:1005100077FD8095982F0E94EA239B01AC01C701CB
:10052000B6010E9482226B017C016DE471E081E2E0
:1005300094E00E94E21B22E030E0B701A60181E2D4
:1005400094E00E94941D64E671E081E294E00E94D0
:10055000E21B4AE050E06AEF70E081E294E00E9422
:100560008D1C64ED71E081E294E00E94E21B219712
:1005700009F0BFCF20E030E04AE753E4C701B601FD
:100580000E944F236093790270937A0280937B02DA
:1005900090937C026BE671E081E294E00E94E21BA2
:1005A0004091790250917A0260917B0270917C02B5
:1005B00022E030E081E294E0DF91CF91FF90EF9074
:1005C000DF90CF900C94941D4F925F926F927F9228
:1005D0008F929F92AF92BF92CF92DF92EF92FF9253
:1005E000CF93DF93C0E0D4E0C12CD12C760146013B
:1005F00057012601370189EC92E00E94BF106AE0A2
:1006000070E080E090E00E9452196091C902709100
:10061000CA02882777FD8095982F0E94EA239B01C4
:10062000AC01C301B2010E9482222B013C01609106
:10063000CB027091CC02882777FD8095982F0E947D
:10064000EA239B01AC01C501B4010E9482224B0147
:100650005C016091CD027091CE02882777FD809574
:10066000982F0E94EA239B01AC01C701B6010E94AA
:1006700082226B017C01219709F0BDCF20E030E0A0
:1006800040E85AE3C301B2010E940325609375025A
:1006900070937602809377029093780220E030E0A6
:1006A00040E85AE3C501B4010E940325609371023A
:1006B00070937202809373029093740220E030E092
:1006C00040E85AE3C701B6010E94032560936D021A
:1006D00070936E0280936F0290937002DF91CF91BE
:1006E000FF90EF90DF90CF90BF90AF909F908F9052
:1006F0007F906F905F904F90089589EC92E00E94F8
:10070000BF106091C9027091CA02882777FD809559
:10071000982F0E94EA232091750230917602409131
:100720007702509178020E94822226EF38E24CE153
:100730005FE30E9403250E94B72370936A026093CF
:1007400069026091CB027091CC02882777FD809579
:10075000982F0E94EA2320917102309172024091F9
:100760007302509174020E94822226EF38E24CE11B
:100770005FE30E9403250E94B72370936602609393
:1007800065026091CD027091CE02882777FD809539
:10079000982F0E94EA2320916D0230916E024091C1
:1007A0006F02509170020E94822226EF38E24CE1E3
:1007B0005FE30E9403250E94B72370936202609357
:1007C000610208954F925F926F927F928F929F92F3
:1007D000AF92BF92CF92DF92EF92FF920F931F934F
:1007E000CF93DF93CDB7DEB728970FB6F894DEBF6F
:1007F0000FBECDBF6B017C010E947D036091690239
:1008000070916A02882777FD8095982F0E94EA23CD
:100810009B01AC016091650270916602882777FDAB
:100820008095982F2D833E834F8358870E94EA231B
:100830002D813E814F8158850E94F52269837A83FC
:100840008B839C83C701B6010E9411024B015C019E
:10085000A70196010E9403252091B5023091B602AE
:100860004091B7025091B8020E94822228E431EEF2
:100870004AE75FE30E9403252B013C012091A90276
:100880003091AA024091AB025091AC02C701B6016F
:100890000E94032520E037ED43EA5CE30E94032534
:1008A0009B01AC01C301B2010E9482226B017C0159
:1008B0008BEC93E00E94790C0CEF13E067E771E09A
:1008C000F801808191810E94D51B62E471E0F801FA
:1008D000808191810E94D51B22E030E0B701A60102
:1008E000F801808191810E94941D62E471E0F80119
:1008F000808191810E94D51B22E030E049815A819C
:100900006B817C81F801808191810E94941D62E459
:1009100071E0F801808191810E94D51B22E030E0D6
:10092000B501A401F801808191810E94941D64E4C5
:1009300071E0F801808191810E94D51B65E070E033
:1009400080E090E00E945219C701B60128960FB6C8
:10095000F894DEBF0FBECDBFDF91CF911F910F91F5
:10096000FF90EF90DF90CF90BF90AF909F908F90CF
:100970007F906F905F904F9008952F923F924F928B
:100980005F926F927F928F929F92AF92BF92CF921F
:10099000DF92EF92FF920F931F93CF93DF9300D0DC
:1009A00000D0CDB7DEB70E9423190E942319009111
:1009B0007D0210917E0220917F0230918002601BA7
:1009C000710B820B930B6093810270938202809370
:1009D0008302909384020E9410178C01BC01882727
:1009E00077FD8095982F0E94EA232B013C010E94FD
:1009F00019171C01BC01882777FD8095982F0E944C
:100A0000EA236B017C016091C5027091C6028827C0
:100A100077FD8095982F0E94EA239B01AC01C301CA
:100A2000B2010E94812269837A838B839C836091C7
:100A3000C7027091C802882777FD8095982F0E9481
:100A4000EA239B01AC01C701B6010E9481224B0140
:100A50005C013092C8022092C7021093C602009334
:100A6000C5028BEC93E00E94790C6FE771E08091F6
:100A7000FC039091FD030E94D51B62E471E080911C
:100A8000FC039091FD030E94D51B22E030E0B301EE
:100A9000A2018091FC039091FD030E94941D62E4E9
:100AA00071E08091FC039091FD030E94D51B22E030
:100AB00030E0B701A6018091FC039091FD030E94F4
:100AC000941D62E471E08091FC039091FD030E940B
:100AD000D51B22E030E0B501A4018091FC03909188
:100AE000FD030E94941D62E471E08091FC039091EB
:100AF000FD030E94D51B22E030E049815A816B81C1
:100B00007C818091FC039091FD030E94941D64E41C
:100B100071E08091FC039091FD030E94D51B65E07C
:100B200070E080E090E00E94521960918102709123
:100B3000820280918302909184020E94E8237B01CB
:100B40008C0129813A814B815C81C501B4010E94ED
:100B500082018BEC93E00E94790C67E871E0809150
:100B6000FC039091FD030E94D51B62E471E080912B
:100B7000FC039091FD030E94D51B40919D02509172
:100B80009E0260919F027091A00222E030E080916D
:100B9000FC039091FD030E94941D62E471E080913A
:100BA000FC039091FD030E94D51B4091A10250913E
:100BB000A2026091A3027091A40222E030E0809131
:100BC000FC039091FD030E94941D62E471E080910A
:100BD000FC039091FD030E94D51B4091A50250910A
:100BE000A6026091A7027091A80222E030E08091F5
:100BF000FC039091FD030E94941D62E471E08091DA
:100C0000FC039091FD030E94D51B4091A9025091D5
:100C1000AA026091AB027091AC0222E030E08091B8
:100C2000FC039091FD030E94941D64E471E08091A7
:100C3000FC039091FD030E94D51B65E070E080E00D
:100C400090E00E945219609181027091820280911D
:100C50008302909184020E94E8230E941102609115
:100C600081027091820280918302909184020E949D
:100C7000E8236B017C0120919D0230919E024091FE
:100C80009F025091A0020E9403259B01AC0160913C
:100C9000AD027091AE028091AF029091B0020E94BD
:100CA00082226093B9027093BA028093BB02909340
:100CB000BC021092BD021092BE021092BF021092AE
:100CC000C002C701B6010E94E2036B017C0120E073
:100CD00030E0A9010E94482387FF0DC08BED9FE003
:100CE000A9ECB0E48093C1029093C202A093C30226
:100CF000B093C4021BC02BED3FE049EC50E4C701A8
:100D0000B6010E94F82418164CF0C092C102D0928D
:100D1000C202E092C302F092C40208C01092C10263
:100D20001092C2021092C3021092C402609181021A
:100D30007091820280918302909184020E94E82344
:100D400020919D0230919E0240919F025091A002FD
:100D50000E9403254B015C01C090C102D090C202E9
:100D6000E090C302F090C402C701B6010E944C2378
:100D70009B01AC01C501B4010E9403259B01AC019C
:100D8000609185027091860280918702909188021D
:100D90000E94822260939102709392028093930248
:100DA00090939402C701B6010E9466259B01AC0195
:100DB000C501B4010E9403259B01AC016091890229
:100DC00070918A0280918B0290918C020E94822203
:100DD0006093950270939602809397029093980285
:100DE000C0929902D0929A02E0929B02F0929C02E9
:100DF0008BEC93E00E94790C6FE871E08091FC032A
:100E00009091FD030E94D51B62E471E08091FC0388
:100E10009091FD030E94D51B409191025091920246
:100E2000609193027091940222E030E08091FC0383
:100E30009091FD030E94941D62E471E08091FC0397
:100E40009091FD030E94D51B40919502509196020E
:100E5000609197027091980222E030E08091FC034B
:100E60009091FD030E94941D62E471E08091FC0367
:100E70009091FD030E94D51B4091990250919A02D6
:100E800060919B0270919C0222E030E08091FC0313
:100E90009091FD030E94941D64E471E08091FC0335
:100EA0009091FD030E94D51B65E070E080E090E02A
:100EB0000E945219C0909902D0909A02E0909B0231
:100EC000F0909C0220E030E0A901C701B6010E9429
:100ED000482387FF0DC08BED9FE0A9ECB0E4809321
:100EE000990290939A02A0939B02B0939C0212C025
:100EF0002BED3FE049EC50E4C701B6010E94F82415
:100F0000181644F41092990210929A0210929B02C1
:100F100010929C0264E170E080E090E00E9452191F
:100F20000E94231960937D0270937E0280937F025A
:100F300090938002E1E9F2E045E852E029EB32E0EB
:100F40006DEA72E0C190D190E190F190DA01CD921A
:100F5000DD92ED92FD92AD01D901CD90DD90ED9045
:100F6000FD909D01DB01CD92DD92ED92FD92BD01E0
:100F7000B2E0ED39FB0731F70F900F900F900F9013
:100F8000DF91CF911F910F91FF90EF90DF90CF9065
:100F9000BF90AF909F908F907F906F905F904F9099
:100FA0003F902F900C94231940ED57E060E070E0E3
:100FB0008BEC93E00E94C30C20E835E240E050E067
:100FC00061E274E08BEC93E00E947C0C8BEC93E08C
:100FD0000E94790C67E971E08091FC039091FD0318
:100FE0000E94D51B6AE070E080E090E00E945219F8
:100FF00041E060E08BEC93E00E94350D40E855E263
:1010000060E070E081E294E00E94791B81E294E06C
:101010000E947F1B8823D1F38BE093E00E94AC09F0
:1010200080916002811105C081E0809360020E947E
:10103000C71642E050E063E070E087EF92E00E9464
:10104000440E87EF92E00E94820D0E94680242E007
:1010500050E064E070E089EC92E00E94FC1089ECC2
:1010600092E00E94550F0E94E4020E9422170E9403
:101070002F1781E00E94711781E00C947417CF93B1
:10108000C8E083E10E94E219C150D9F70E944317DA
:101090000E943C1764E670E08CE99FEF0E94BB174A
:1010A000CF910C94BD0420E05D9921605599226098
:1010B000FC0120830895FC01208121FB0EF055984E
:1010C00020FB0EF05D980EF45D9A21FB0EF4559A0C
:1010D000089520E02899216020992260FC01208356
:1010E0000895FC01208121FB0EF0209820FB0EF0DA
:1010F00028980EF4289A21FB0EF4209A0895FF9266
:101100000F931F93CF93DF93CDB7DEB72A970FB618
:10111000F894DEBF0FBECDBF8C01F62ECE01019636
:101120002A8749870E943F0130E05A9931605299DD
:1011300032603E8330E02B993160239932603F83E7
:10114000CE0105960E94690830E0479931603F99C9
:1011500032603887CE0104960E94530849852A855B
:10116000442311F05A9A01C05A98529A21110AC088
:101170006F2D70E084E0759567958A95E1F7C80159
:101180000E945D016F2D6F70C8010E945D01CE014C
:1011900004960E945B08288521FB0EF03F9820FBF7
:1011A0000EF047980EF4479A21FB0EF43F9ACE01B9
:1011B00005960E9471083F8131FB0EF0239830FBA9
:1011C0000EF02B980EF42B9A31FB0EF4239A2E81FD
:1011D00021FB0EF0529820FB0EF05A980EF45A9A0A
:1011E00021FB0EF4529ACE0101960E9450012A96DC
:1011F0000FB6F894DEBF0FBECDBFDF91CF911F9128
:101200000F91FF90089584E093E00E9489158DEA84
:1012100091E0909305038093040387EF92E00E948E
:10122000500D89EC92E00C94D80E80913B0390E035
:1012300020913C03821B9109089520913C038091E9
:101240003B03281750F4E22FF0E0E35CFC4F808171
:1012500090E02F5F20933C0308958FEF9FEF089558
:10126000E0913C0380913B03E81730F4F0E0E35C4D
:10127000FC4F808190E008958FEF9FEF08950895CF
:10128000CF92DF92EF92FF920F931F93CF93DF9352
:101290007C01CB018A0120911703222389F0EB0105
:1012A0006B01C40ED51ECC15DD0569F06991D7011F
:1012B000ED91FC910190F081E02DC7010995F3CFEC
:1012C000642F0E94FB0AC801DF91CF911F910F91FB
:1012D000FF90EF90DF90CF900895CF93DF931F9210
:1012E000CDB7DEB76983209117032223D1F0209177
:1012F0001803203240F021E030E0FC0133832283E8
:1013000080E090E015C080911903E82FF0E0E65EE0
:10131000FC4F998190838F5F80931903809318030A
:1013200005C061E0CE0101960E94FB0A81E090E0D9
:101330000F90DF91CF910895FC011382128248EE45
:1013400053E060E070E0448355836683778389EBE4
:1013500091E091838083089510923C0310923B03A7
:1013600010921903109218030C943E0A81E08093A6
:10137000170360933A03109219031092180308950B
:101380000F93062F21E0409118036AE173E08091EA
:101390003A030E94A40A10921903109218031092A3
:1013A00017030F9108958F929F92AF92BF92CF92A1
:1013B000DF92EF92FF920F931F93CF93DF93EC0195
:1013C000F62ED42E48015901EE2019F10E94B609DB
:1013D0001E2D143008F013E01150B8F0E881F981A7
:1013E00028E0129FB0011124A501940104C0569574
:1013F0004795379527956A95D2F7CA01B9010190AB
:10140000F081E02DCE010995E7CF60E0CE010E948A
:10141000C0094D2D413208F040E22C2D6DE373E000
:101420008F2D0E945C0A10923C0380933B03DF9156
:10143000CF911F910F91FF90EF90DF90CF90BF90D1
:10144000AF909F908F900895CF92EF920F931F933C
:10145000C22EE12C00E010E098010E94D3091F91F8
:101460000F91EF90CF90089521E00C94240A61E051
:101470000C94C0098BE093E00C949C091092CA0371
:1014800081E08093C8031092C70361E082E00E946C
:10149000501A61E083E00E94501AE9EBF0E080818D
:1014A0008E7F808380818D7F808388E48093B800E5
:1014B00085E48093BC000895413208F043C09091C8
:1014C000CA039111FCCF91E09093CA032093C80303
:1014D0002FEF20935D031092A203240F2093A1030A
:1014E0009093C9039091C903880F892B8093C903F6
:1014F0008091C703813061F41092C7038091C903C2
:101500008093BB008091BC0083FDF8CF85EC01C0C7
:1015100085EE8093BC008091CA038130E1F3809115
:10152000A203841710F44091A20323EA33E0FB01E5
:10153000D9018A2F821B841718F48D918193F9CFDA
:10154000842F089580E008950F93413208F04AC037
:101550009091CA039111FCCF92E09093CA0300933B
:10156000C8039FEF90935D031092A2034093A103E1
:10157000FB0163EA73E0DB019A2F961B941718F4C2
:1015800091919D93F9CF1092C9039091C903880F4F
:10159000892B8093C9038091C703813061F4109235
:1015A000C7038091C9038093BB008091BC0083FD79
:1015B000F8CF85EC01C085EE8093BC00222321F09A
:1015C0008091CA038230E1F380915D038F3F61F027
:1015D00080915D03803251F080915D03803341F44E
:1015E00083E007C081E005C080E003C082E001C065
:1015F00084E00F910895613298F42091CA03243059
:1016000089F460937F03FC0181E893E0DC012A2FD9
:10161000281B261718F421912D93F9CF80E0089507
:1016200081E0089582E0089585ED8093BC0080916B
:10163000BC0084FDFCCF1092CA03089585EC809312
:10164000BC001092CA0308951F920F920FB60F921A
:1016500011242F933F934F935F936F937F938F93B7
:101660009F93AF93BF93EF93FF938091B900887FCF
:10167000803609F49EC078F5883209F45DC090F494
:10168000803109F456C038F4882309F4F5C0883055
:1016900009F44FC0F5C0883109F44EC0803209F416
:1016A0005FC0EEC0803409F46AC058F4803309F496
:1016B00057C0883309F0E4C080935D030E941E0B7D
:1016C000DFC0803509F44FC0883509F45DC0883427
:1016D00009F0D6C0D3C0883909F4C4C0A8F488374B
:1016E00009F467C038F4883609F463C0803709F418
:1016F00060C0C6C0883809F4B5C0803909F45FC03D
:10170000803809F0BDC05BC0803B09F483C038F469
:10171000803A09F466C0883A09F47CC0B1C0803CC4
:1017200009F4A4C0883C09F4A1C0883B09F487C02F
:10173000A7C08091C90310C09091A2038091A1031A
:10174000981770F5E091A20381E08E0F8093A203B9
:10175000F0E0ED55FC4F80818093BB0085EC83C0A9
:1017600080935D038BC0E091A20381E08E0F809394
:10177000A2038091BB00F0E0ED55FC4F8083909177
:10178000A2038091A1036BC0E091A20381E08E0FC0
:101790008093A2038091BB00F0E0ED55FC4F808365
:1017A0008091C80381116AC081E08093C70384EAF5
:1017B0005EC083E08093CA0310925E03CFCF809116
:1017C0005E03803208F04EC0E0915E0381E08E0F30
:1017D00080935E038091BB00F0E0E15AFC4F808370
:1017E000BDCF0E941E0B80915E03803230F4E091E9
:1017F0005E03F0E0E15AFC4F108260915E0370E0FE
:10180000E091C303F091C4038FE593E00995109232
:101810005E0336C084E08093CA0310928003109266
:101820007F03E091C503F091C603099580917F0382
:10183000811105C081E080937F0310928103E091C4
:10184000800381E08E0F80938003F0E0EF57FC4F20
:1018500080818093BB009091800380917F039817D3
:1018600008F47CCF85E88093BC000AC085EC8093A7
:10187000BC001092CA0304C010925D030E94140BB6
:10188000FF91EF91BF91AF919F918F917F916F9158
:101890005F914F913F912F910F900FBE0F901F902E
:1018A00018950F931F93CF93DF93EC01662359F0A4
:1018B0000E94231969837A838B839C83DF91CF9164
:1018C0001F910F9108950E94231909811A812B817C
:1018D0003C81601B710B820B930B62337105810598
:1018E000910530F763E070E080E090E00E945219CB
:1018F000EACF60E00C94510CCF92DF92EF92FF920E
:101900000F931F93CF93DF9300D000D0CDB7DEB7F6
:101910008C017B01FC0172AB61AB8BE1C82ED12C39
:10192000C70129833A834B835C830E947F1B2981F3
:101930003A814B815C81811113C0F1E0CF1AD1084B
:1019400079F064E670E080E090E029833A834B838D
:101950005C830E9452195C814B813A812981E0CFDE
:10196000BA01A901F80181A992A90F900F900F90D7
:101970000F90DF91CF911F910F91FF90EF90DF902B
:10198000CF900C94791BFC0113AA14AA15AA16AACD
:10199000118212821382148241155105610571056D
:1019A00021F0CB01BA010C94521908951F93CF93E3
:1019B000DF93EC01162F65EC71E089A99AA90E94CA
:1019C000D51B4AE050E0612F89A99AA90E94A21C68
:1019D0006CEC71E089A99AA90E94D51B62E370E0C2
:1019E00080E090E0DF91CF911F910C9452191F93EA
:1019F000CF93DF93EC01162F8D81882389F189A97C
:101A00009AA9DC01ED91FC910480F581E02D099506
:101A1000892BA9F307C02637310519F1283531057F
:101A200009F41D8289A99AA9DC01ED91FC91048039
:101A3000F581E02D09951816190694F489A99AA93B
:101A4000DC01ED91FC910680F781E02D09959C0168
:101A5000332723363105F9F6612FCE010E94D60CCB
:101A600083E6DF91CF911F9108950F931F93CF933A
:101A7000DF931F92CDB7DEB78C01662349F081E07A
:101A8000F801858360E0C80149830E94F70C498111
:101A9000F80145830F90DF91CF911F910F91089529
:101AA000FC0183E090E0908787831386128614867A
:101AB0000895EF92FF921F93CF93DF931F92CDB7BC
:101AC000DEB77C01162FFC0161858BE093E0498332
:101AD0000E94B609612F8BE093E00E946D09498155
:101AE000642F8BE093E00E946D098BE093E00E94ED
:101AF000370AF70186830F90DF91CF911F91FF90F6
:101B0000EF900895CF93DF93EC018F819885029732
:101B100029F440E069E3CE010E94590D40E063E200
:101B2000CE010E94590D4FE660E2CE01DF91CF91C8
:101B30000C94590D9F92AF92BF92CF92DF92EF9289
:101B4000FF920F931F93CF93DF93EC0169858BE096
:101B500093E00E94B609E0910B03F0910C03019011
:101B6000F081E02D68EA8BE093E009958BE093E04B
:101B70000E94370A46E069858BE093E00E94340AB0
:101B80000E9423197B018BE093E00E9415090697C0
:101B900084F48A859B85892BB1F30E9423196E19E1
:101BA0007F098A859B858617970768F781E08C8770
:101BB0002CC08BE093E00E941D09A82E8BE093E0DF
:101BC0000E941D09982E8BE093E00E941D09E82ECB
:101BD0008BE093E00E941D09B82E8BE093E00E94F9
:101BE0001D09F82E8BE093E00E941D09D92CC12C11
:101BF000CA28D982C8821B2D00E00E291B830A83C4
:101C0000982F88278F299D838C83DF91CF911F91F7
:101C10000F91FF90EF90DF90CF90BF90AF909F908B
:101C200008951F93CF93DF931F92CDB7DEB7162F82
:101C30008BE093E049830E94B6094981642F8BE0D1
:101C400093E00E946D098BE093E00E94370A8111B6
:101C500014C041E0612F8BE093E00E94340A8BE0D6
:101C600093E00E941509892B41F08BE093E00F90DF
:101C7000DF91CF911F910C941D098FEF9FEF0F9073
:101C8000DF91CF911F910895EF92FF920F931F93D1
:101C9000CF93DF937C01EB018A016330710521F062
:101CA0004230510509F051C0CE010197039758F514
:101CB0000115110581F04FE050E06BE6C7010E946D
:101CC000110E8F3F2FEF920719F001E010E013C0C3
:101CD0000130110551F04FE050E06AE6C7010E9463
:101CE000110E8F3FEFEF9E0721F4C330D10569F04D
:101CF00027C000E010E0C330D10529F4873D9105ED
:101D0000F1F5C2E0D0E02097D9F40115110561F09A
:101D10004FE050E069E6C7010E94110E833D910536
:101D200089F10130110549F04FE050E068E6C70144
:101D30000E94110E833D910541F1C330D10519F088
:101D40000230110511F480E025C0F701D087C78368
:101D5000209759F0D7FD11C023977CF4013011056D
:101D600011F48BE608C08AE606C00130110511F4B3
:101D700089E601C088E6F701818781E00BC0C1E0F8
:101D8000D0E0C1CF01E010E002C000E010E0C0E010
:101D9000D0E0D6CFDF91CF911F910F91FF90EF90C0
:101DA0000895DC01ED91FC910190F081E02D099402
:101DB000CF93DF93EC0186E0EEE2F1E0DE01529694
:101DC00001900D928A95E1F786E0E4E3F1E0DE010F
:101DD0001C9601900D928A95E1F784E090E09A8F2D
:101DE000898F1CA61BA61DA6DF91CF910895EF92A7
:101DF000FF921F93CF93DF931F92CDB7DEB77C0185
:101E0000162FFC01638D8BE093E049830E94B60995
:101E1000612F8BE093E00E946D094981642F8BE074
:101E200093E00E946D098BE093E00E94370AF7016E
:101E3000808F0F90DF91CF911F91FF90EF900895C9
:101E4000EF92FF921F93CF93DF931F92CDB7DEB730
:101E50007C01162FFC01648D8BE093E049830E9486
:101E6000B609612F8BE093E00E946D094981642FD0
:101E70008BE093E00E946D098BE093E00E94370AAB
:101E8000F701808F0F90DF91CF911F91FF90EF901E
:101E90000895FC01218D328D2330310511F060321F
:101EA00010F40C94200F0C94F70ECF93DF93EC01F9
:101EB000898D9A8D83309105D9F440E061E2CE019D
:101EC0000E94490F47E560E2CE010E94490F44E6B7
:101ED00064E2CE010E94490F40E265E2CE010E9419
:101EE000490F40E066E2CE01DF91CF910C94490F9B
:101EF000029739F448E063E2CE010E94F70E47E40E
:101F000006C040E063E2CE010E94F70E47E260E2C5
:101F1000CE010E94F70E4CE060E0CE010E94200F3F
:101F200040E261E0CE010E94200F40E062E0CE017D
:101F3000DF91CF910C94200F9F92AF92BF92CF92DE
:101F4000DF92EF92FF920F931F93CF93DF93EC01F9
:101F50006B8D8BE093E00E94B60968EA70E08BE03D
:101F600093E00E94D10E8BE093E00E94370A888FA5
:101F700046E06B8D8BE093E00E94340A0E942319A7
:101F80006B018BE093E00E941509069784F48BA502
:101F90009CA5892BB1F30E9423196C197D098BA58F
:101FA0009CA58617970768F781E08DA72CC08BE06A
:101FB00093E00E941D09A82E8BE093E00E941D096A
:101FC000982E8BE093E00E941D09C82E8BE093E0D1
:101FD0000E941D09B82E8BE093E00E941D09D82EA7
:101FE0008BE093E00E941D09F92CE12CEA28F9828C
:101FF000E8821B2D00E00C291B830A83982F882779
:102000008D299D838C83DF91CF911F910F91FF903C
:10201000EF90DF90CF90BF90AF909F900895CF92B8
:10202000DF92EF92FF920F931F93CF93DF93EC0118
:102030006C8D8BE093E00E94B609898D9A8D039791
:1020400021F469A17AA1606802C06F8D78A18BE04C
:1020500093E00E94D10E8BE093E00E94370A888FB4
:1020600046E06C8D8BE093E00E94340A0E942319B5
:102070008B018BE093E00E941509069784F48BA5F1
:102080009CA5892BB1F30E942319601B710B8BA5B2
:102090009CA58617970768F781E08DA767C0898D93
:1020A0009A8D0397F9F48BE093E00E941D09C82EE6
:1020B0008BE093E00E941D09D82E8BE093E00E94F4
:1020C0001D09E82E8BE093E00E941D09182F8BE07C
:1020D00093E00E941D09F82E8BE093E00E941D09F9
:1020E000082F35C08BE093E00E941D09D82E8BE0AD
:1020F00093E00E941D09C82E298D3A8D8BE093E054
:10210000232B99F40E941D09182F8BE093E00E9465
:102110001D09E82E8BE093E00E941D09082F8BE03B
:1021200093E00E941D09F82E12C00E941D09082F7D
:102130008BE093E00E941D09F82E8BE093E00E9453
:102140001D09182F8BE093E00E941D09E82E6C2DCD
:1021500070E07D297F836E834E2D50E0512B59878F
:1021600048872F2D30E0302B3B872A87DF91CF9196
:102170001F910F91FF90EF90DF90CF900895CF9334
:10218000DF93EC010E949C0FCE01DF91CF910C9464
:102190000F101F93CF93DF931F92CDB7DEB7162F8B
:1021A0008BE093E049830E94B6094981642F8BE05C
:1021B00093E00E946D098BE093E00E94370A811141
:1021C00014C041E0612F8BE093E00E94340A8BE061
:1021D00093E00E941509892B41F08BE093E00F906A
:1021E000DF91CF911F910C941D098FEF9FEF0F90FE
:1021F000DF91CF911F910895EF92FF920F931F935C
:10220000CF93DF93EC018B017A016430710521F0EB
:102210004230510509F055C0C8010397029708F0F4
:10222000CDC0E114F10471F04FE050E06DE1CE015A
:102230000E94C9108934910509F4B8C081E0E816FC
:10224000F10451F04FE050E06EE1CE010E94C91060
:102250008934910509F4AEC00430110509F0D0C0ED
:10226000E114F10469F040E250E069E1CE010E941E
:10227000C910019679F421E0E216F10409F4A3C033
:1022800040E250E068E1CE010E94C910019609F0D9
:10229000A4C099C00430110509F09BC04FE050E084
:1022A0006EE1CE010E94C910EE24E394F12CCC978C
:1022B00009F0A9C002E010E082E0E816F10409F498
:1022C00086C01A8F098F0130110569F124F4012BA2
:1022D00009F449C069C00230110541F1033011050C
:1022E00009F062C0EA94EF2811F48DE101C08EE19B
:1022F0008C8F8B8F88E090E09AA389A389E090E08F
:1023000098A38F8F8AE090E09EA38DA38BE090E04E
:102310009CA38BA38CE090E09AA789A78DE090E026
:1023200098A78FA341C0EA94EF2811F489E101C076
:1023300088E18B8F8EE18C8F83E090E098A38F8F64
:1023400084E090E09AA389A387E090E09CA38BA30C
:1023500088E090E09EA38DA385E090E098A78FA3EE
:1023600086E090E01FC0EA94EF2811F489E101C0F3
:1023700088E18B8F8EE18C8F83E090E098A38F8F24
:1023800084E090E09AA389A385E090E09CA38BA3CE
:1023900086E090E09EA38DA387E090E098A78FA3AE
:1023A00088E090E09AA789A781E030C0EE24E3940A
:1023B000F12C02C0E12CF12C03E010E003301105F8
:1023C00008F44ECF79CF0430110509F075CF80E0C5
:1023D0001DC0EE24E394F12C6FCF0430110569F495
:1023E0004FE050E06EE1CE010E94C91031E020E0E4
:1023F000CC9709F030E0032F122FE12CF12C5CCFA9
:1024000003E010E059CF00E010E056CFDF91CF910C
:102410001F910F91FF90EF90089590910404E09127
:102420000804F0910904992311F0849101C080817E
:102430002FEB280F2A3110F4805E0895803249F482
:102440009F012F5F3F4F3093090420930804EF2B27
:1024500031F708951F93CF93DF930E940D12C0E0D0
:10246000D0E01AE090ED980F9A30B8F49E01129FD8
:10247000E001139FD00D1124C80FD11D87FDDA95FF
:10248000E0978091080490910904019690930904C3
:10249000809308040E940D12E5CFCE01DF91CF9109
:1024A0001F910895109272001092C00084E08093F2
:1024B000C10089E08093C20081E08093C300EFEB0C
:1024C000F0E083E0808388EE8093D1001082109248
:1024D000D200579A789408952F923F924F925F922C
:1024E0006F927F928F929F92AF92BF92CF92DF9224
:1024F000EF92FF920F931F93CF93DF93CDB7DEB789
:1025000027970FB6F894DEBF0FBECDBF7C011B012D
:102510004D8380910A04811105C081E080930A04F3
:102520000E94521210920F01F7FE04C0E894F7F8CF
:102530001AE001C011E088E2189F802D1124282F95
:1025400030E03F832E832E153F0510F4FF82EE828C
:10255000113049F44E815F814131574220F0E0E172
:10256000F7E2FF83EE83812E912CA12CB12C8E817A
:102570009F81969587959C0140E050E029833A839E
:102580004B835C834E815F812A01612C712CA501F4
:10259000940160E072E18AE790E00E94922529812F
:1025A0003A814B815C81620F731F841F951FA301C9
:1025B00092010E94E42569017A01EE24FF2400E0E3
:1025C0000F5FC11434E0D306E104F10408F120E008
:1025D00032E14AE750E0002E04C055954795379503
:1025E00027950A94D2F7C501B4010E94922529814A
:1025F0003A814B815C81620F731F841F951FA30179
:1026000092010E94E42569017A01EE24FF24D8CFCB
:102610001A3049F48E819F8105966AE070E00E942D
:10262000AE257F836E834E815F81483E83E05807ED
:1026300059F09101DA010E94092628EE33E040E0CA
:1026400050E00E94E4251901109272008091C100AF
:10265000807F802B8093C100BB27AF2D9E2D8D2DB9
:102660008093BF00C092D1002D81203108F02FE06F
:1026700080E190E0821B910904C0F694E794D7941E
:10268000C7948A95D2F78D2D99278093BF00C09269
:10269000D200309207042092060489B38FEF89BBE1
:1026A00084E08093720027960FB6F894DEBF0FBEC9
:1026B000CDBFDF91CF911F910F91FF90EF90DF90F1
:1026C000CF90BF90AF909F908F907F906F905F90D2
:1026D0004F903F902F900895CF93DF93EB018F3F62
:1026E00011F0411105C040E0BE0188EE93E043C007
:1026F000813130F050EF580F503618F05FE501C0CF
:1027000050E0852F6CE00E94A225682F74EF7603BD
:1027100090011124250F311D2C30310540F4F901B1
:10272000EE0FFF1FE35EFD4F2081318102C020E0EC
:1027300030E0873081F0082E02C0220F331F0A9448
:10274000E2F7823028F0C90105966AE070E00CC01B
:10275000C90190580CC0C90136E0880F991F3A95FD
:10276000E1F7029665E070E00E94AE25CB014031B2
:1027700008F04FE0BE01DF91CF910C946C124F92A4
:102780005F926F927F928F929F92AF92BF92CF9201
:10279000DF92EF92FF920F931F93CF93DF9300D0BE
:1027A000CDB7DEB790900E0180910304882321F00D
:1027B00060910204611117C077247394B0ECAB2EC2
:1027C000BDE5BB2E1AE0612E04E0802E80EDC82E00
:1027D00087E0D82E94E0E92EF12C04EF11E02FE0F1
:1027E000422E512C15C070E040E088EE93E00E942C
:1027F0006C121092020429C18636D4F5813609F490
:10280000A9C07CF58C3309F460C08E3381F49394B5
:102810000E940D1220910804309109042F5F3F4F50
:102820003093090420930804853631F752C0813271
:1028300009F08BC080920E01D0920D01C0920C0164
:10284000F0920B01E0920A01109309010093080134
:10285000509207014092060110920304A4E09A2EC0
:10286000D7CF8336A1F10CF478C010E082E077C0B6
:102870008D36C1F194F4873691F174F18C3609F0FC
:1028800064C00E942A12BC0190930B0180930A013C
:1028900080910C0190910D0151C08237C9F14CF427
:1028A0008F3609F052C00E942A12982E80930E0192
:1028B000AFCF843781F1863709F047C00E942A12D2
:1028C0009093070180930601A3CF9A94A1CF10E0C3
:1028D00020C010E084E043C010E085E040C010E07C
:1028E00087E03DC00E940D128C3619F4109203044B
:1028F00004C07092030410920204209108043091E5
:1029000009042F5F3F4F309309042093080480CFC0
:1029100011E080E024C00E942A12BC01C5010E947F
:10292000AE25669EC001679E900D112490930D0107
:1029300080930C0160910A0170910B010E94AE25F9
:10294000709309016093080163CF109209041092FB
:1029500008047BC010E089E002C010E08BE0082F83
:102960009CE0999E000D11240E940D12982F977FD4
:10297000933261F420910804309109042F5F3F4F96
:1029800030930904209308040F5FEECF8D3271F469
:1029900020910804309109042F5F3F4F30930904C0
:1029A0002093080401500E940D12F0CF609108019D
:1029B000709109018153883050F4E0900C01F0903F
:1029C0000D010E942A12BC01C7010E94AE257B01A5
:1029D000F694E79469837A830E940D1269817A8163
:1029E0008E3269F420910804309109042F5F3F4F23
:1029F00030930904209308046E0D7F1DE9CF809168
:102A00000304882339F09B0136952795209302040F
:102A1000621B710940910601112311F08FEF01C073
:102A2000802F0F900F90DF91CF911F910F91FF900A
:102A3000EF90DF90CF90BF90AF909F908F907F905E
:102A40006F905F904F900C946C130F900F90DF91EC
:102A5000CF911F910F91FF90EF90DF90CF90BF909B
:102A6000AF909F908F907F906F905F904F90089560
:102A70001F920F920FB60F9211242F933F934F93F3
:102A80005F936F937F938F939F93AF93BF93EF93D6
:102A9000FF9380910604909107049C012150310915
:102AA0003093070420930604892B11F510927200CD
:102AB00078948091C100807F84608093C10083E01E
:102AC0008093BF0088EE8093D1001092BF001092D7
:102AD000D20081E080930F01809108049091090455
:102AE000892B31F080910504811102C00E94BF132F
:102AF000FF91EF91BF91AF919F918F917F916F91D6
:102B00005F914F913F912F910F900FBE0F901F90AB
:102B10001895FC011382128289E392E091838083ED
:102B2000148208951F93CF93DF93EC01162F6460F6
:102B30000E940C161E83DF91CF911F910895CF93B1
:102B4000DF93EC01E881F9810480F581E02D09959E
:102B500063E0CE010E9408168FE991E40197F1F736
:102B600000C0000063E0CE010E94081687E592E0F5
:102B70000197F1F700C0000063E0CE010E94081643
:102B800062E0CE010E94081668E2CE010E940C1697
:102B900060E0CE010E941A16CE010E94101662E07B
:102BA000CE010E94921564E0CE01DF91CF910C948A
:102BB0001A160F931F93CF93DF9300D01F92CDB7B8
:102BC000DEB78C01DC0114968C91149781110CC036
:102BD00081E014968C93C8012B834A8369830E94F9
:102BE0009F1569814A812B81D801ED91FC91068066
:102BF000F781E02DC8010995B5ECBA95F1F7000011
:102C00000F900F900F90DF91CF911F910F9108952A
:102C100021E040E00C94D91520E040E00C94D91557
:102C200061E00E940C168FE39FE10197F1F700C06D
:102C3000000008951F93CF93DF93EC01162F686077
:102C40000E940C161D83DF91CF911F91089520E003
:102C500041E00C94D9150E94271681E090E0089578
:102C6000CF92DF92EF92FF920F931F93CF93DF9358
:102C70007C018A01EB016B01C40ED51ECC15DD056C
:102C800029F06991C7010E942716F8CFC801DF918A
:102C9000CF911F910F91FF90EF90DF90CF9008950B
:102CA0004FB141705CB156FB552750F954278091C4
:102CB00011046091120420910B0430910C048527BB
:102CC00090E06427861B9109820F931F90930C0458
:102CD00080930B049091120480911104591729F0EC
:102CE000481719F081E08093100450931204409328
:102CF000110408951F920F920FB60F9211242F9373
:102D00003F934F935F936F938F939F932CB130E0DA
:102D10003595279535952795422F417083B190E0E1
:102D200054E0959587955A95E1F782279327582F78
:102D30005170809113046091140420910D0430911E
:102D40000E04852790E06427861B9109820F931F4C
:102D500090930E0480930D049091140480911304B9
:102D6000591729F0481719F081E080931004509307
:102D70001404409313049F918F916F915F914F9131
:102D80003F912F910F900FBE0F901F901895249890
:102D90002C9A6A98729A6E98769A8098889A81E0AE
:102DA0008093680090E190936B008BBB41E050E012
:102DB00060E576E184E00E94C6178CB182FB88272B
:102DC00080F981708093130493B1809113049295DC
:102DD000917089278093140410920E0410920D04B0
:102DE000109210048FB18170809311049CB1809176
:102DF000110496FB992790F9892780931204109269
:102E00000C0410920B0410920F040895809160023C
:102E1000811105C081E0809360020C94C71608956B
:102E20000E940617F89480910D0490910E047894F6
:102E300008950E940617F89480910B0490910C0459
:102E4000789408950E940617F89480910D0490914B
:102E50000E0410920E0410920D04789408950E94AE
:102E60000617F89480910B0490910C0410920C04B6
:102E700010920B04789408950E9406178091100414
:102E80001092100408950E94061780910F0410926A
:102E90000F0408952E98269A2D98259A2A98229AFA
:102EA0002998219A80EA8093800081E180938100B3
:102EB00080E991E0909387008093860010928900CA
:102EC0001092880010928B0010928A0008958091D1
:102ED0001504811105C081E0809315040C944A17F4
:102EE0000895809317040895809316040895CF934E
:102EF000DF93EC010E946717D7FF05C0D195C195FC
:102F0000D10981E001C080E0C13991E0D90714F016
:102F1000C0E9D1E0D0938B00C0938A009091170450
:102F2000891711F02A9A01C02A98229ADF91CF912D
:102F30000895CF93DF93EC010E946717D7FF05C078
:102F4000D195C195D10981E001C080E0C13991E0FE
:102F5000D90714F0C0E9D1E0D0938900C09388006C
:102F600090911604891711F0299A01C02998219A85
:102F7000DF91CF910895CF93DF93EB010E947717F4
:102F8000CE01DF91CF910C9499170895853008F008
:102F90004CC0E82FF0E0EE0FFF1FE05FFE4F7183A3
:102FA00060838230E1F018F4813069F004C083302E
:102FB00019F1843071F1809169008C7F842B8093AA
:102FC0006900E89A089580916900440F551F440FE5
:102FD000551F837F842B80936900E99A089580911F
:102FE000690034E0440F551F3A95E1F78F7C842B3C
:102FF00080936900EA9A08958091690026E0440F61
:10300000551F2A95E1F78F73842B80936900EB9A03
:10301000089580916A0094E0440F551F9A95E1F756
:103020008F7C842B80936A00EE9A08951F920F92F2
:103030000FB60F9211242F933F934F935F936F938B
:103040007F938F939F93AF93BF93EF93FF93E09101
:103050001001F09111010995FF91EF91BF91AF918E
:103060009F918F917F916F915F914F913F912F91A0
:103070000F900FBE0F901F9018951F920F920FB6D2
:103080000F9211242F933F934F935F936F937F93EE
:103090008F939F93AF93BF93EF93FF93E0911201B0
:1030A000F09113010995FF91EF91BF91AF919F911D
:1030B0008F917F916F915F914F913F912F910F90E1
:1030C0000FBE0F901F9018951F920F920FB60F9280
:1030D00011242F933F934F935F936F937F938F931D
:1030E0009F93AF93BF93EF93FF93E0911401F091FF
:1030F00015010995FF91EF91BF91AF919F918F912C
:103100007F916F915F914F913F912F910F900FBEE3
:103110000F901F9018951F920F920FB60F921124C7
:103120002F933F934F935F936F937F938F939F93CF
:10313000AF93BF93EF93FF93E0911601F0911701C6
:103140000995FF91EF91BF91AF919F918F917F91E1
:103150006F915F914F913F912F910F900FBE0F9004
:103160001F9018951F920F920FB60F9211242F9354
:103170003F934F935F936F937F938F939F93AF93FF
:10318000BF93EF93FF93E0911801F0911901099516
:10319000FF91EF91BF91AF919F918F917F916F912F
:1031A0005F914F913F912F910F900FBE0F901F9005
:1031B00018951F920F920FB60F9211242F933F93E1
:1031C0008F939F93AF93BF938091190490911A04AA
:1031D000A0911B04B0911C043091180423E0230F2C
:1031E0002D3720F40196A11DB11D05C026E8230F3F
:1031F0000296A11DB11D2093180480931904909389
:103200001A04A0931B04B0931C0480911D04909198
:103210001E04A0911F04B09120040196A11DB11DB0
:1032200080931D0490931E04A0931F04B093200468
:10323000BF91AF919F918F913F912F910F900FBEB2
:103240000F901F9018952FB7F89460911904709102
:103250001A0480911B0490911C042FBF08953FB75E
:10326000F89480911D0490911E04A0911F04B091C8
:10327000200426B5A89B05C02F3F19F00196A11D7B
:10328000B11D3FBF6627782F892F9A2F620F711DBE
:10329000811D911D42E0660F771F881F991F4A9577
:1032A000D1F708958F929F92AF92BF92CF92DF9203
:1032B000EF92FF926B017C010E942F194B015C0180
:1032C000C114D104E104F104F1F00E94E5210E944F
:1032D0002F19681979098A099B09683E734081058D
:1032E000910570F321E0C21AD108E108F10888EED7
:1032F000880E83E0981EA11CB11CC114D104E10406
:10330000F10429F7DDCFFF90EF90DF90CF90BF90D1
:10331000AF909F908F900895789484B5826084BD1B
:1033200084B5816084BD85B5826085BD85B58160C9
:1033300085BDEEE6F0E0808181608083E1E8F0E029
:103340001082808182608083808181608083E0E858
:10335000F0E0808181608083E1E9F0E0808182603B
:103360008083808181608083E0E9F0E080818160FA
:103370008083E1ECF0E080818460808380818260E2
:103380008083808181608083E3ECF0E080818160D4
:103390008083E0ECF0E0808182608083E2ECF0E00A
:1033A000808181608083EAE7F0E0808184608083AF
:1033B0008081826080838081816080838081806859
:1033C00080830895823108F08251E82FF0E0EA5EB0
:1033D000FE4FE49180917B00E3FB222720F930E04F
:1033E00095E0220F331F9A95E1F78F7D822B809312
:1033F0007B00E77080911A0120E4829FC0011124B4
:10340000E82BE0937C0080917A00806480937A00BE
:1034100080917A0086FDFCCF809178002091790020
:1034200090E0922B089590E0FC013197EF30F10588
:10343000B0F5EA5AFF4F0C940326809180008F77F5
:1034400003C0809180008F7D8093800008958091DB
:103450008000877FF9CF84B58F7702C084B58F7DD8
:1034600084BD0895809190008F7707C0809190006F
:103470008F7D03C080919000877F80939000089596
:103480008091C0008F7703C08091C0008F7D8093B2
:10349000C00008958091C200877F8093C200089584
:1034A0000F931F93CF93DF931F92CDB7DEB7282FD3
:1034B00030E0F901EE5DFE4F8491F901EF5BFE4FC4
:1034C0001491F901E05AFE4F04910023C9F08823BA
:1034D00021F069830E94131A6981E02FF0E0EE0F5A
:1034E000FF1FE158FE4FA591B4919FB7F8948C91BE
:1034F000611103C01095812301C0812B8C939FBF64
:103500000F90DF91CF911F910F9108950E94232674
:10351000CF93DF931F92CDB7DEB76983DC01ED91C6
:10352000FC910280F381E02D41E050E0BE016F5F2D
:103530007F4F09950F90DF91CF910895CF93DF933F
:10354000EC018C859D8597FF05C082E00E94A71E37
:103550009D878C878C859D85DF91CF91089583E031
:103560000C943B21FC018485958597FD06C082E083
:103570000E944F1E90E00196089582E00E944F1E27
:1035800090E00895FC018485958597FD05C02FEF97
:103590003FEF35872487089582E00C94A71ECF93D0
:1035A000DF93EC0180912601882331F083E00E94B3
:1035B000D81E1816190634F081E090E09B838A83A8
:1035C00080E090E0DF91CF910895FC0120812E5F93
:1035D000208342E450E06DE871E080E80C94731FB2
:1035E000FC0121818081813A59F4213209F04BC0DC
:1035F00047E050E06FE171E080E00E94731F5EC021
:10360000813209F040C0233289F4838190E0982F01
:1036100088273281832BA0E0B0E080931B01909338
:103620001C01A0931D01B0931E010FC0203239F47C
:1036300067E070E08FE191E00E94A41F09C0223290
:1036400021F482818093260103C02D7F2032B1F5C1
:1036500080917104811103C0E0E0F8E002C0EEEF58
:10366000FAE080911F0190912001A0912101B09179
:103670002201803B9440A105B10511F580912601FE
:1036800080FF03C01DC080E00895EE3F2AE0F207EE
:1036900031F0808191819093FF0A8093FE0A87E741
:1036A00097E7918380832BE088E190E00FB6F89450
:1036B000A895809360000FBE2093600081E008957C
:1036C00088E10FB6F89480936000109260000FBEFE
:1036D000A895EE3F8AE0F80739F08091FE0A9091B4
:1036E000FF0A91838083EACF1092FF0A1092FE0AAC
:1036F000E5CF2FEF3FEFFC01358724870895CF9367
:10370000C09126016AE070E080E090E00E945219CA
:1037100081E0C11101C080E0CF910895109224048E
:103720001092230488EE93E0A0E0B0E0809325049B
:1037300090932604A0932704B093280485E492E094
:1037400090932204809321048FEF9FEF90932E0497
:1037500080932D04089508950E948C190E94AB1B3C
:1037600082E794E00E94C8210E94D407C0E0D0E024
:103770000E943F082097E1F30E940000F9CF6115F5
:10378000710581F0DB010D900020E9F7AD0141509A
:103790005109461B570BDC01ED91FC910280F3812E
:1037A000E02D099480E090E008950C94BF1BDC01AB
:1037B000ED91FC910190F081E02D099462ED71E0B2
:1037C0000C94BF1B0F931F93CF93DF93EC010E94C8
:1037D000BF1B8C01CE010E94DE1B800F911FDF9169
:1037E000CF911F910F9108958F929F92AF92BF92A8
:1037F000DF92EF92FF920F931F93CF93DF93CDB79A
:10380000DEB7A1970FB6F894DEBF0FBECDBF7C0127
:10381000F42FD52ECB0119A2223008F42AE08E0114
:103820000F5D1F4F822E912CA12CB12C6F2F7D2D5F
:10383000A50194010E94C225F22FD32ECA01015086
:1038400011096A3014F4E0E301C0E7E3E60FD801A0
:10385000EC93232B242B252B49F7B801C7010E9499
:10386000BF1BA1960FB6F894DEBF0FBECDBFDF9190
:10387000CF911F910F91FF90EF90DF90BF90AF908D
:103880009F908F900895CF92DF92EF92FF920F93C7
:103890001F93CF93DF93EC016A017B012115310562
:1038A00079F4E881F9810190F081E02D642FDF91B6
:1038B000CF911F910F91FF90EF90DF90CF900994DF
:1038C0002A303105E9F477FF1AC06DE20E94D71B58
:1038D0008C0144275527BA014C195D096E097F09EF
:1038E0002AE0CE010E94F41B800F911FDF91CF913F
:1038F0001F910F91FF90EF90DF90CF9008952AE0F5
:10390000B701A601CE01DF91CF911F910F91FF90DA
:10391000EF90DF90CF900C94F41B9A01AB016627D7
:1039200057FD6095762F0C94431C2115310541F409
:10393000DC01ED91FC910190F081E02D642F099460
:103940000C94F41B9A01462F50E060E070E00C9458
:10395000951C4F925F926F927F928F929F92AF923F
:10396000BF92CF92DF92EF92FF920F931F93CF936C
:10397000DF93EC016A017B01B22E9A01AB01C70112
:10398000B6010E946F25882319F061E572E027C017
:1039900026013701E89477F82FEF3FEF4FE75FE715
:1039A000C301B2010E946F2581110DC02FEF3FEFBF
:1039B0004FE75FE7C301B2010E94482318161CF4C9
:1039C00065E572E00CC02FEF3FEF4FE75FE4C70102
:1039D000B6010E94F8241816ACF469E572E0CE0135
:1039E000DF91CF911F910F91FF90EF90DF90CF90DB
:1039F000BF90AF909F908F907F906F905F904F900F
:103A00000C94BF1B2FEF3FEF4FE75FECC701B601F0
:103A10000E94482387FDE1CF20E030E0A901C701E3
:103A2000B6010E94482387FF0AC06DE2CE010E94C2
:103A3000D71B8C01F7FAF094F7F8F09402C000E07D
:103A400010E0A12C60E070E080E09FE3AB1441F057
:103A500020E030E040E251E40E944F23A394F6CFEF
:103A60009B01AC01C701B6010E9482226B017C015F
:103A70000E94BC232B013C010E94E8239B01AC0166
:103A8000C701B6010E9481226B017C012AE0B301CB
:103A9000A201CE010E94F41B080F191FBB2039F0B0
:103AA0006DE572E0CE010E94BF1B080F191F7B2C31
:103AB000772041F120E030E040E251E4C701B60157
:103AC0000E9403256B017C010E94B7234B01AA24AD
:103AD00097FCA094BA2C2AE030E0B501A401CE01F5
:103AE0000E94431C080F191FC501B4010E94EA235C
:103AF0009B01AC01C701B6010E9481226B017C01D0
:103B00007A94D6CFC801DF91CF911F910F91FF908A
:103B1000EF90DF90CF90BF90AF909F908F907F906D
:103B20006F905F904F9008950C94A91C615030F0F5
:103B30002091F100FC0120830196F8CF289884E6BB
:103B400080937B04089540917604509177042091EE
:103B500074043091750442175307B4F49091E8004F
:103B60009570E1F39091E80092FD19C08093F10007
:103B7000809176049091770401968F739927892B11
:103B800019F48EEF8093E800809176049091770489
:103B90000196909377048093760481E0089580E005
:103BA0000895CF92DF92EF92FF920F931F93CF93DE
:103BB000DF931F92CDB7DEB7082F162FF42E862F76
:103BC000880F8E5F99830E94A31D83E00E94A31D2E
:103BD000E02EC02E9981D92E8C2D8E19811798F444
:103BE000F601F7FE02C0849101C080810E94A31DEE
:103BF000082F80E00E94A31D8023FFEFCF1ADF0A69
:103C00008111EACF01C081E00F90DF91CF911F9128
:103C10000F91FF90EF90DF90CF9008958091D700A3
:103C200081608093D70080EA8093D80089B5806155
:103C300089BD89B5826089BD09B400FEFDCF61E010
:103C400070E080E090E00E9452198091D8008F7C53
:103C500080618093D8008091E000807F8093E000B5
:103C60000895CF93DF931F92CDB7DEB71982CE01AF
:103C700001960E94E51A0E946D22BE016F5F7F4F80
:103C80000E94E62189810F90DF91CF9108952FB78F
:103C9000FC012083F89467706093E9000895CF9346
:103CA000DF931F92CDB7DEB7682FCE0101960E9439
:103CB000471E8091F20099819FBF0F90DF91CF91B5
:103CC0000895FF920F931F93CF93DF9300D0CDB74A
:103CD000DEB7F62E8A0190917A04992311F057FFEE
:103CE00003C08FEF9FEF2BC0682FCE0101967A8320
:103CF0000E94471E8091F20090E0A8017A8180170F
:103D000091070CF4AC01EF2DF72FF40E84E6FE16AC
:103D100039F0289880937B049091F1009193F7CF2C
:103D20004115510521F08091F200882321F089810D
:103D30008FBFCA0104C08BE68093E800F8CF0F90D4
:103D40000F90DF91CF911F910F91FF900895CF9326
:103D5000DF931F92CDB7DEB741E050E0BE016F5F49
:103D60007F4F0E94611E019719F4898190E002C083
:103D70008FEF9FEF0F90DF91CF910895CF93DF9357
:103D80001F92CDB7DEB7682FCE0101960E94471E65
:103D90009091E800892F807295FF04C09091F20005
:103DA00080E4891B99819FBF0F90DF91CF91089587
:103DB0006F927F928F929F92AF92BF92CF92DF923B
:103DC000EF92FF920F931F93CF93DF931F92CDB784
:103DD000DEB7782E7B01C42EB52E80917A0488231D
:103DE00069F0042F152F8AEFD82E872D8072982E18
:103DF0009AE3A92E872D8074882E11C08FEF9FEF34
:103E000057C0872D0E94BE1E682E81110CC0DA9407
:103E1000A9F361E070E080E090E00E945219011582
:103E2000110579F73BC0282F30E0021713070CF477
:103E3000602E672DCE0101960E94471E8091E800FA
:103E400085FF29C0262D30E0021B130B992039F085
:103E50006A948FEF6816B1F01092F100F9CFF70174
:103E6000862D77FE07C0815058F094919093F10011
:103E70003196F9CF815020F091919093F100FACFD3
:103E8000E20EF31E8091E80085FF0FC001151105B9
:103E900011F481100AC089818FBFC1CF5D9884E67B
:103EA00080937C048C2D9B2D03C0A092E800F3CF5F
:103EB0000F90DF91CF911F910F91FF90EF90DF90C6
:103EC000CF90BF90AF909F908F907F906F9008950C
:103ED0001092E90010927704109276049093750482
:103EE000809374040895CF92DF92FF920F931F93F3
:103EF000CF93DF9300D0CDB7DEB7F82E8A016B01E8
:103F000001151105B1F0F601F7FE02C0849101C060
:103F1000808149835A830E94A31D01501109FFEF3C
:103F2000CF1ADF0A49815A818111EACF8FEF9FEFC3
:103F300001C0CA010F900F90DF91CF911F910F9197
:103F4000FF90DF90CF900895BF92CF92DF92EF92D3
:103F5000FF920F931F93CF93DF936C018B01EB01C3
:103F60003BEFB32E2097C1F07E01C134D1051CF088
:103F700020E4E22EF12C8091E80082FFFCCFC80102
:103F80008C1B9D0B6E2D8C0D9D1D0E94961DB0925D
:103F9000E800CE19DF09E6CFC801DF91CF911F916C
:103FA0000F91FF90EF90DF90CF90BF9008951F92F8
:103FB0000F920FB60F921124DF92EF92FF920F93A0
:103FC0001F932F933F934F935F936F937F938F93A1
:103FD0009F93AF93BF93EF93FF93CF93DF93CDB7AF
:103FE000DEB76C97DEBFCDBF1092E9008091E8008C
:103FF00083FF23C168E0CE0145960E94961D82EFA3
:104000008093E8003D8937FF05C08091E80080FF7C
:10401000FCCF03C08EEF8093E800832F807609F0F9
:10402000F0C02E894F89D88C21110CC0303829F46A
:10403000809179048093F10002C01092F1001092F7
:10404000F100F4C0842F90E09D29213049F4311112
:10405000EDC0019709F0EAC0809179048D7F0AC014
:10406000233059F43111E2C0019709F0DFC080918B
:104070007904826080937904D9C0253041F480911D
:10408000E80080FFFCCF40684093E300CFC02630BB
:1040900009F08DC0EB8CFC8C22E0D2122CC080E0A9
:1040A00090E00E94681F0E94311E99E08E010F5F10
:1040B0001F4FF801292F11922A95E9F79983DA8287
:1040C00091E09E8390EA98879AEF998720917604F1
:1040D00030917704275F3F4F3C832B838D83C7014B
:1040E0000E94681F49E050E0B80180E00E94731F01
:1040F0000E94311E9BC0C7010E94681F0E946D2252
:10410000BE016B5E7F4F0E940F22009719F00CF0EA
:104110008DC090C081E0D8120EC08B8D9C8D089709
:1041200019F481E0809373048091730481112FC08E
:1041300061EE71E031C0E3E0DE127CC08F8988233C
:1041400049F1823029F440E862E186E092E01CC047
:10415000813029F440E862E183EF91E015C08330BB
:1041600009F068C00E946D228E010F5F1F4FB801D9
:104170000E942E22F80101900020E9F73197E01B00
:10418000F10B40E06E2FC8010E94D11D4DC06FECB5
:1041900071E002C069E172E06115710509F44AC07D
:1041A000FB01449150E080E80E94731F3FC027301C
:1041B00009F440C0283021F481E08093F10036C03A
:1041C0002930A1F53370B1F5E8E2F1E081E021E0BA
:1041D00036E39081992361F08093E9002093EB000E
:1041E00091919093EC003093ED008F5F873089F7C9
:1041F0008EE78093EA001092EA008F8980937A0418
:1042000015C08B8D9C8D0E94681F898D811105C002
:10421000CE0145960E94F01A07C00E946D22BE0191
:104220006B5E7F4F0E944D22882321F08EEF80939A
:10423000E80003C081E28093EB006C960FB6F8941F
:10424000DEBF0FBECDBFDF91CF91FF91EF91BF9148
:10425000AF919F918F917F916F915F914F913F911E
:104260002F911F910F91FF90EF90DF900F900FBE55
:104270000F901F9018958093E9008091F200882399
:1042800019F08AE38093E80008951F920F920FB609
:104290000F9211242F933F934F935F936F937F93CC
:1042A0008F939F93AF93BF93CF93EF93FF93C0915F
:1042B000E1008091E100837F8093E1008093E10041
:1042C000C3FF0FC01092E90081E08093EB001092D1
:1042D000EC0082E38093ED0010927A0488E08093F2
:1042E000F000C2FF19C083E00E943B2180917C0452
:1042F000882339F080917C04815080937C0488234A
:1043000089F180917B04882339F080917B0481506E
:1043100080937B04882341F1C4FF10C08091E200A8
:104320008E7E81608093E2008091E1008F7E809399
:10433000E100809178048E7E806111C0C0FF16C0BC
:104340008091E2008E7E80618093E2008091E100A6
:104350008E7E8093E100809178048E7E81608093D0
:10436000780404C05D9ACDCF289AD6CFFF91EF9103
:10437000CF91BF91AF919F918F917F916F915F91FD
:104380004F913F912F910F900FBE0F901F90189556
:1043900010927A0410927904109278040E940E1EF2
:1043A0008091E1008E7E8093E1008DE08093E200B9
:1043B000559A209AEEEFFFE7859194918B3F9C4DA3
:1043C00019F481E08093710408950895EF92FF92AB
:1043D0000F931F93CF93DF937B01FC01C281D381A5
:1043E00000E010E0209781F0E881F9810280F381FC
:1043F000E02DB701CE01099597FD08C0080F191FE0
:104400000884D985C02DEECFC80102C08FEF9FEF81
:10441000DF91CF911F910F91FF90EF9008950F932F
:104420001F93CF93DF938B01FC01C281D38120972F
:1044300071F0E881F9810480F581E02DB801CE01A9
:104440000995009731F40884D985C02DF0CF80E01C
:1044500090E0DF91CF911F910F9108950F931F93DB
:10446000CF93DF938B01FC01C281D381209771F040
:10447000E881F9810680F781E02DB801CE01099528
:10448000080F111D0884D985C02DF0CFF8011082C6
:10449000DF91CF911F910F9108950F931F93CF93A9
:1044A000DF938B01FC01C281D381209771F0E881F9
:1044B000F9810190F081E02DB801CE0109958111BB
:1044C00006C00884D985C02DF0CF80E001C081E00E
:1044D000DF91CF911F910F910895809181048111F7
:1044E0000DC082E080937D0484E080937E0410926E
:1044F000800410927F0481E0809381048DE794E032
:1045000008955058BB27AA270ED027C2F0D130F00B
:10451000F5D120F031F49F3F11F41EF4C0C10EF428
:10452000E095E7FBB6C1E92F3AD280F3BA176207EC
:1045300073078407950718F071F49EF552C20EF4C4
:10454000E0950B2EBA2FA02D0B01B90190010C01A3
:10455000CA01A0011124FF27591B99F0593F50F4BB
:10456000503E68F11A16F040A22F232F342F442713
:10457000585FF3CF469537952795A795F04053950B
:10458000C9F77EF41F16BA0B620B730B840BBAF0DB
:104590009150A1F0FF0FBB1F661F771F881FC2F746
:1045A0000EC0BA0F621F731F841F48F4879577955A
:1045B0006795B795F7959E3F08F0B3CF9395880F11
:1045C00008F09927EE0F97958795089590D158F0A8
:1045D00080E891E009F49EEF91D128F040E851E0A5
:1045E00059F45EEF09C05BC1FCC1E92FE078D7D177
:1045F00068F3092E052AC1F326173707480759071C
:1046000038F00E2E07F8E02569F0E025E0640AC0D6
:10461000EF6307F8009407FADB01B9019D01DC01A3
:10462000CA01AD01EF934AD098D10AD05F915523CA
:1046300031F02BED3FE049E450FD49EC63CF0895A4
:10464000DF93DD27B92FBF7740E85FE31616170623
:1046500048075B0710F4D92FCFD19F938F937F9397
:104660006F933AD2EAECF0E01DD177D12F913F91D0
:104670004F915F91D4D1DD2349F09058A2EA2AED01
:104680003FE049EC5FE3D0785D274DDFDF9165C106
:10469000DCD008F481E0089539D1E3956FC10CD0E6
:1046A0005CC12CD140F023D130F021F45F3F19F0F0
:1046B000F0C0511197C1F3C072D198F39923C9F397
:1046C0005523B1F3951B550BBB27AA276217730718
:1046D000840738F09F5F5F4F220F331F441FAA1FCC
:1046E000A9F333D00E2E3AF0E0E830D0915050408C
:1046F000E695001CCAF729D0FE2F27D0660F771F3A
:10470000881FBB1F261737074807AB07B0E809F01B
:10471000BB0B802DBF01FF2793585F4F2AF09E3FB0
:10472000510568F0B6C05EC15F3FECF3983EDCF324
:10473000869577956795B795F7959F5FC9F7880F29
:10474000911D9695879597F90895E1E0660F771F7B
:10475000881FBB1F621773078407BA0720F0621B0C
:10476000730B840BBA0BEE1F88F7E095089504D005
:104770006894B11137C108951AD188F09F5790F00D
:10478000B92F9927B751A0F0D1F0660F771F881F76
:10479000991F1AF0BA95C9F712C0B13081F021D132
:1047A000B1E008951EC1672F782F8827B85F39F0D0
:1047B000B93FCCF3869577956795B395D9F73EF4D5
:1047C00090958095709561957F4F8F4F9F4F08957D
:1047D000E89409C097FB3EF490958095709561959B
:1047E0007F4F8F4F9F4F9923A9F0F92F96E9BB2751
:1047F0009395F695879577956795B795F111F8CFCD
:10480000FAF4BB0F11F460FF1BC06F5F7F4F8F4F37
:104810009F4F16C0882311F096E911C0772321F02D
:104820009EE8872F762F05C0662371F096E8862FC5
:1048300070E060E02AF09A95660F771F881FDAF71C
:10484000880F9695879597F90895990F0008550F49
:10485000AA0BE0E8FEEF16161706E807F907C0F006
:1048600012161306E407F50798F0621B730B840B0E
:10487000950B39F40A2661F0232B242B252B21F4E8
:1048800008950A2609F4A140A6958FEF811D811D88
:10489000089597F99F6780E870E060E008959FEFC2
:1048A00080EC0895DF93CF931F930F93FF92EF92C5
:1048B000DF927B018C01689405C0DA2EEF01AFD046
:1048C000FE01E894A5912591359145915591AEF35E
:1048D000EF0129DEFE019701A801DA9479F7DF9054
:1048E000EF90FF900F911F91CF91DF9108950024D9
:1048F0000A941616170618060906089500240A9445
:1049000012161306140605060895C9CF50D0E8F311
:10491000E894E0E0BB279F57F0F02AED3FE049EC38
:1049200006C0EE0FBB0F661F771F881F28F0B23A34
:1049300062077307840728F0B25A620B730B840B6B
:10494000E3959A9572F7803830F49A95BB0F661FFD
:10495000771F881FD2F79048C8C0092E0394000C17
:1049600011F4882352F0BB0F40F4BF2B11F460FF09
:1049700004C06F5F7F4F8F4F9F4F0895EF93E0FF0D
:1049800006C0A2EA2AED3FE049EC5FEBCCDDE5DFB3
:104990000F90039401FC9058E7EFF0E0B2C057FD90
:1049A0009058440F551F59F05F3F71F04795880F9D
:1049B00097FB991F61F09F3F79F087950895121634
:1049C00013061406551FF2CF4695F1DF08C01616E0
:1049D00017061806991FF1CF869571056105089491
:1049E0000895E894BB2766277727CB0197F90895A8
:1049F0002CDF08F48FEF08959B01AC0160E070E0BC
:104A000080E89FE34CCE0BD0A8CF71DF28F076DF93
:104A100018F0952309F03DCF42CF1124E3CFBFDF3B
:104A2000A0F3959FD1F3950F50E0551F629FF001C1
:104A3000729FBB27F00DB11D639FAA27F00DB11D1A
:104A4000AA1F649F6627B00DA11D661F829F2227A3
:104A5000B00DA11D621F739FB00DA11D621F839F2A
:104A6000A00D611D221F749F3327A00D611D231F00
:104A7000849F600D211D822F762F6A2F11249F574E
:104A800050408AF0E1F088234AF0EE0FFF1FBB1F71
:104A9000661F771F881F91505040A9F79E3F510510
:104AA00070F0F7CE9FCF5F3FECF3983EDCF3869536
:104AB00077956795B795F795E7959F5FC1F7FE2BBB
:104AC000880F911D9695879597F908959F931EDFFE
:104AD0000F9007FCEE5F52CF9B01AC0194CFB5DE87
:104AE000880B990B08959F3F31F0915020F48795E2
:104AF00077956795B795880F911D9695879597F946
:104B000008959F938F937F936F93FF93EF939B01F0
:104B1000AC0179DFEF91FF91C5DE2F913F914F916D
:104B20005F9171CFDB018F939F930E941826BF91F5
:104B3000AF91A29F800D911DA39F900DB29F900DEC
:104B400011240895991B79E004C0991F961708F065
:104B5000961B881F7A95C9F780950895AA1BBB1BE1
:104B600051E107C0AA1FBB1FA617B70710F0A61B6D
:104B7000B70B881F991F5A95A9F780959095BC018E
:104B8000CD010895A1E21A2EAA1BBB1BFD010DC089
:104B9000AA1FBB1FEE1FFF1FA217B307E407F507ED
:104BA00020F0A21BB30BE40BF50B661F771F881FC9
:104BB000991F1A9469F760957095809590959B015F
:104BC000AC01BD01CF010895052E97FB1EF40094A2
:104BD0000E94FB2557FD07D00E94C22507FC03D089
:104BE0004EF40C94FB2550954095309521953F4F00
:104BF0004F4F5F4F089590958095709561957F4FC9
:104C00008F4F9F4F0895EE0FFF1F0590F491E02DF9
:104C10000994A29FB001B39FC001A39F700D811D95
:104C20001124911DB29F700D811D1124911D0895B5
:104C30000E940926A59F900DB49F900DA49F800D02
:104C4000911D1124089581E090E0F8940C94282699
:044C5000F894FFCF06
:104C54000000890480000F00F4010400D00704015F
:104C6400C517C517C517C517C51701FFFFFFFF00F7
:104C7400E100000000000000C1808100000001800C
:104C840001800180FF7FFF7FFF7F564D4450455FC9
:104C940031007C005F564D4450450D0A0043616C61
:104CA4006962726174696F6E204779726F20526510
:104CB40061643A0052756E20233A004779726F207E
:104CC4004F666673657400564D4450455F32005616
:104CD4004D4450455F3400564D4450455F350056B1
:104CE4004D4450455F3300564D4450565F317C313E
:104CF4005F564D4450560D0A00000000002B16303C
:104D0400163C017F08000000006D09400915091DCB
:104D14000930093F09564D4450435F005F564D44E6
:104D240050430D0A004572726F723A2041747465E3
:104D34006D707420746F20736574206120726561D6
:104D4400642D6F6E6C79207661726961626C652086
:104D54006F7220646174612074797065206E6F7461
:104D640020737570706F727465640D0A009C01B5D0
:104D740001CF01EA0107022602470269028E02B549
:104D840002DE020A03000000002B163016861A8683
:104D94001A00000000881ACF1AB21AC21A9E1AAF5B
:104DA4001A6E616E00696E66006F7666002E0000F2
:00000001FF
