:100000000C9412010C94241B0C944B1B0C94721B2B
:100010000C94991B0C943A010C943A010C94C01B5B
:100020000C943A010C9488190C9453240C94E522F6
:100030000C943A010C943A010C943A010C943A0154
:100040000C943A010C943A010C943A010C943A0144
:100050000C943A010C943A010C943A010C94E71B6D
:100060000C943A010C943A010C943A010C943A0124
:100070000C943A010C943A010C943A010C943A0114
:100080000C943A010C943A010C943A010C943A0104
:100090000C940E0E0C943A010C943A010C943A0113
:1000A0000C943A010C9422180C943A01391D3C1D11
:1000B0002B1D2F1D351D5D1D5D1D5D1D401D441D2E
:1000C000481D4E1D521D5D1D581D084AD73B3BCE95
:1000D000016E84BCBFFDC12F3D6C74319ABD568347
:1000E0003DDA3D00C77F11BED9E4BB4C3E916BAAFF
:1000F000AABE000000803F05A84CCDB2D44EB9384E
:1001000036A9020C50B9918688083CA6AAAA2ABE34
:10011000000000803F00070605040100080A0B0CE0
:100120000D090000000200090F0000030401000C8B
:1001300000000000000000000000000000000000BF
:1001400000040802011040804010204080408008D8
:100150000204018040201002011080102040402045
:10016000040404040403040502020202040302025C
:100170000202060606060606040402020204040041
:10018000000000250028002B002E003100080B0085
:10019000020202010009040000010202000005241D
:1001A00000100105240101010424020605240600B3
:1001B000010705810310004009040100020A000044
:1001C00000070502024000000705830240000012FC
:1001D000010002EF020140FB1F00230001010203A6
:1001E000011201000200000040FB1F00230001017A
:1001F000020301506F6C6F6C7520436F72706F72E9
:100200006174696F6E00506F6C6F6C7520412D5377
:100210007461722033325534000403090400ED0B7D
:10022000240D9C1E11241FBECFEFDAE0DEBFCDBF30
:1002300012E0A0E0B1E0E8E9F2E502C005900D921D
:10024000A43BB107D9F724E0A4EBB2E001C01D92B2
:10025000A83EB207E1F712E0C4E2D2E004C0229760
:10026000FE010E942729CE31D107C9F70E94BA1E8C
:100270000C944A290C9400005B98539A0895FC0151
:10028000A2EEB0E08C9180831C92A9EEB0E08C913C
:1002900081831C92A0EFB0E08C9182831C92089520
:1002A000FC01A9EEB0E01C9282818093F000818174
:1002B0008C9380818093E200089560FF02C02B9AA6
:1002C00001C02B98239A61FF02C0289A01C0289888
:1002D000209A62FF02C0479A01C047983F9A63FF85
:1002E00002C05D9A01C05D98559A5B9A539A85E069
:1002F0008A95F1F700005B98539A85E08A95F1F7AB
:10030000000008954F925F926F927F928F929F921A
:10031000AF92BF92CF92DF92EF92FF920F931F9313
:10032000CF93DF93CDB7DEB728970FB6F894DEBF33
:100330000FBECDBF4B015C0129013A01C801B701D5
:1003400024E13EE643E654E40E9411286B017C015F
:100350002DE03FEE4AE850E4C501B4010E941128A7
:10036000A70196010E945D2669837A838B839C8313
:100370002DE03FEE4AE850E4C301B2010E9411288B
:10038000A70196010E945D266D837E838F839887E7
:10039000A3019201C501B4010E94902520E030E044
:1003A00040E05FE30E9411282DE03FEE4AE850E470
:1003B0000E941128A70196010E945D266093FC020D
:1003C0007093FD028093FE029093FF0289819A81CF
:1003D000AB81BC818093000390930103A09302033F
:1003E000B09303038D819E81AF81B8858093040310
:1003F00090930503A0930603B09307039C01AD01FE
:1004000069817A818B819C810E948F252BE43AEC53
:1004100048E95EE30E941128609308037093090382
:1004200080930A0390930B0328960FB6F894DEBFCF
:100430000FBECDBFDF91CF911F910F91FF90EF9035
:10044000DF90CF90BF90AF909F908F907F906F90F4
:100450005F904F9008958F929F92AF92BF92CF92EC
:10046000DF92EF92FF92CF93DF934B015C01C0E0EC
:10047000D0E0C12CD12C7601CF30D105C1F086E57A
:1004800093E00E94841060915A0370915B03882767
:1004900077FD8095982F0E94F8269B01AC01C7013B
:1004A000B6010E9490256B017C012196E5CF20E0EA
:1004B00030E040E751E4C701B6010E945D2620E02C
:1004C00030E04CE051E40E945D2629EA38E642E93A
:1004D00057E30E9411286B017C018AE294E00E949C
:1004E000630F6EE771E080915B0490915C040E9461
:1004F000E31E66E871E080915B0490915C040E94C9
:10050000E31E22E030E0B701A60180915B049091E8
:100510005C040E94A22068E871E080915B049091E5
:100520005C040E94E31E65E070E080E090E00E94C1
:10053000601CA5019401C701B6010E941128DF913A
:10054000CF91FF90EF90DF90CF90BF90AF909F90B2
:100550008F900895CF92DF92EF92FF92CF93DF9327
:1005600060E070E080E090E00E94C91ACAEFD0E03D
:10057000C12CD12C760186E593E00E9484106AE0BC
:1005800070E080E090E00E94601C60915A037091DE
:100590005B03882777FD8095982F0E94F8269B01A2
:1005A000AC01C701B6010E9490256B017C0161E995
:1005B00071E080E894E00E94F01E22E030E0B70194
:1005C000A60180E894E00E94A22068EA71E080E839
:1005D00094E00E94F01E4AE050E06AEF70E080E88C
:1005E00094E00E949B1F68E272E080E894E00E9421
:1005F000F01E219709F0BFCF20E030E04AE753E436
:10060000C701B6010E945D266093D6027093D7029F
:100610008093D8029093D9026FEA71E080E894E069
:100620000E94F01E4091D6025091D7026091D802EC
:100630007091D90222E030E080E894E0DF91CF9120
:10064000FF90EF90DF90CF900C94A2204F925F929A
:100650006F927F928F929F92AF92BF92CF92DF92D2
:10066000EF92FF92CF93DF932CE0289FE001299F28
:10067000D00D1124C25FDE4F2091F0023091F102C3
:100680004091F2025091F302688179818A819B81C5
:100690000E948F252B013C012091F4023091F5023C
:1006A0004091F6025091F7026C817D818E819F818D
:1006B0000E948F254B015C0120E030E0A901C301BD
:1006C000B2010E94562681111AC020E030E0A90133
:1006D000C501B4010E945626811124C028853985A0
:1006E0004A855B85609120037091210380912203EC
:1006F000909123030E9490256B017C0113C0A301FC
:100700009201C501B4010E9403266B017C0120E027
:1007100030E0A9010E94562687FF04C0F7FAF09442
:10072000F7F8F0948AE294E00E94630F6BEB71E0BB
:1007300080915B0490915C040E94E31E66E871E086
:1007400080915B0490915C040E94E31E22E030E003
:10075000B701A60180915B0490915C040E94A220E5
:1007600068E871E080915B0490915C040E94E31E54
:1007700065E070E080E090E00E94601C8091E20201
:100780009091E302009709F076C02091BA0230916F
:10079000BB024091BC025091BD026091B6027091C3
:1007A000B7028091B8029091B9020E948F256B0127
:1007B0007C0120E030E0A9010E94062818162CF5E3
:1007C00020E030E040EA50E460910A0170910B01B2
:1007D00080910C0190910D010E94902560930A0177
:1007E00070930B0180930C0190930D0120E030E099
:1007F00040EA50E460910601709107018091080180
:10080000909109010E948F252DC020E030E0A901C0
:10081000C701B6010E94562687FF24C120E030E0C0
:1008200040EA50E460910A0170910B0180910C0143
:1008300090910D010E948F2560930A0170930B0126
:1008400080930C0190930D0120E030E040EA50E4E9
:100850006091060170910701809108019091090152
:100860000E94902560930601709307018093080110
:1008700090930901F7C0019709F0F4C0C090BA0243
:10088000D090BB02E090BC02F090BD028090B60216
:100890009090B702A090B802B090B902A70196015B
:1008A000C501B4010E94902529EC36E746ED5FE3CF
:1008B0000E9411282B013C01A5019401C701B6013A
:1008C0000E948F259B01AC015F77C301B2010E949A
:1008D0005D266B017C0120E030E040E351E40E94A2
:1008E000062818162CF520E030E040EA50E460912C
:1008F0000A0170910B0180910C0190910D010E94F1
:10090000902560930A0170930B0180930C019093E2
:100910000D0120E030E040EA50E460910601709162
:10092000070180910801909109010E948F252EC036
:1009300020E030E040E351E4C701B6010E945626B2
:1009400087FF2CC020E030E040EA50E460910A01CB
:1009500070910B0180910C0190910D010E948F25E7
:1009600060930A0170930B0180930C0190930D0129
:1009700020E030E040EA50E4609106017091070108
:1009800080910801909109010E94902560930601D1
:10099000709307018093080190930901E0900A0188
:1009A000F0900B01D0910C01C0910D0120E030E0DE
:1009B00046E952E4B7018D2F9C2F0E94562687FDF1
:1009C00010C020E030E041E653E4B7018D2F9C2FAA
:1009D0000E94062818164CF4E12CF12CD1E6C3E451
:1009E00004C0E12CF12CD6E9C2E4C701AD2FBC2F25
:1009F00080930A0190930B01A0930C01B0930D0119
:100A0000E0900601F0900701D0910801C091090122
:100A100020E030E046E952E4B7018D2F9C2F0E9480
:100A2000562687FD10C020E030E041E653E4B701D0
:100A30008D2F9C2F0E94062818164CF4E12CF12CC7
:100A4000D1E6C3E404C0E12CF12CD6E9C2E4C7012D
:100A5000AD2FBC2F8093060190930701A09308014E
:100A6000B0930901DF91CF91FF90EF90DF90CF908D
:100A7000BF90AF909F908F907F906F905F904F90BE
:100A800008952F923F924F925F926F927F928F9232
:100A90009F92AF92BF92CF92DF92EF92FF920F930D
:100AA0001F93CF93DF93CDB7DEB72C970FB6F89493
:100AB000DEBF0FBECDBF88E293E00E94A913609114
:100AC000280370912903882777FD8095982F0E942D
:100AD000F8262091D2023091D3024091D402509155
:100AE000D5020E94902526EF38E24CE15FE30E9498
:100AF00011286B017C0160912A0370912B038827D8
:100B000077FD8095982F0E94F8262091CE02309193
:100B1000CF024091D0025091D1020E94902526EF41
:100B200038E24CE15FE30E9411284B015C016091C7
:100B30002C0370912D03882777FD8095982F0E94B4
:100B4000F8262091CA023091CB024091CC025091FC
:100B5000CD020E94902526EF38E24CE15FE30E942F
:100B600011282B013C012091C6023091C70240910F
:100B7000C2025091C3025E834D830091BE02109168
:100B8000BF028FE0282E312CB901882777FD809590
:100B9000982F0E94F826A70196010E9490250E9496
:100BA000C52669837A838B839C8389819A819A87FE
:100BB0008987AD81BE81BD01882777FD8095982FFB
:100BC0000E94F826A50194010E9490250E94C52646
:100BD0006D837E838F839887ED81FE81FC87EB8711
:100BE000B801882777FD8095982F0E94F826A301E9
:100BF00092010E9490250E94C526FB0121E0221A45
:100C0000310821F029813A818B01BECF2FE030E0FD
:100C100089859A85B9010E94D0287093C702609394
:100C2000C6028B859C85B9010E94D0287093C302AF
:100C30006093C202CF01B9010E94D0287093BF0215
:100C40006093BE022C960FB6F894DEBF0FBECDBFE8
:100C5000DF91CF911F910F91FF90EF90DF90CF9098
:100C6000BF90AF909F908F907F906F905F904F90CC
:100C70003F902F9008958F929F92AF92BF92CF9204
:100C8000DF92EF92FF920F931F93CF93DF9300D0E9
:100C900000D0CDB7DEB76B017C018AE294E00E9400
:100CA000630F0BE514E063EC71E0F8018081918142
:100CB0000E94E31E66E871E0F801808191810E9444
:100CC000E31E22E030E0B701A601F80180819181A6
:100CD0000E94A22068E871E0F801808191810E9461
:100CE000E31E65E070E080E090E00E94601CC701B8
:100CF000B6010E942B026B017C010E9441058AE231
:100D000094E00E94630F6BEC71E0F80180819181A7
:100D10000E94E31E66E871E0F801808191810E94E3
:100D2000E31E22E030E0B701A601F8018081918145
:100D30000E94A22068E871E0F801808191810E9400
:100D4000E31E65E070E080E090E00E94601C60912E
:100D5000C6027091C702882777FD8095982F0E9460
:100D6000F8269B01AC016091C2027091C3028827F2
:100D700077FD8095982F29833A834B835C830E946B
:100D8000F82629813A814B815C810E9403264B0120
:100D90005C0120911403309115034091160350918A
:100DA0001703C701B6010E94902528E431EE4AE7F7
:100DB0005FE30E9411286B017C0120E037ED43EADC
:100DC0005CE3C501B4010E9411289B01AC01C7017D
:100DD000B6010E9490250F900F900F900F90DF9119
:100DE000CF911F910F91FF90EF90DF90CF90BF9028
:100DF000AF909F908F9008952F923F924F925F9265
:100E00006F927F928F929F92AF92BF92CF92DF921A
:100E1000EF92FF920F931F93CF93DF930E94311CA9
:100E20000E94311CC090DA02D090DB02E090DC021C
:100E3000F090DD026C197D098E099F096093DE0236
:100E40007093DF028093E0029093E1020E941E1AE9
:100E50001C010E94271AEC01B101882777FD8095BB
:100E6000982F0E94F8266B017C01609124037091F9
:100E70002503882777FD8095982F0E94F8269B01EF
:100E8000AC01C701B6010E948F252B013C01609384
:100E9000BA027093BB028093BC029093BD02BE0164
:100EA000882777FD8095982F0E94F8266B017C019A
:100EB0006091260370912703882777FD8095982FEE
:100EC0000E94F8269B01AC01C701B6010E948F2544
:100ED0004B015C016093B6027093B7028093B80235
:100EE0009093B9026091DE027091DF028091E0027E
:100EF0009091E1020E94F6267B018C01A3019201F0
:100F0000C501B4010E9482012DE03FEE4AE850E4A1
:100F10006091B6027091B7028091B8029091B902C7
:100F20000E94112824E13EE643E654E40E945D2637
:100F30004B015C012DE03FEE4AE850E46091BA02BB
:100F40007091BB028091BC029091BD020E94112859
:100F500024E13EE643E654E40E945D262B013C0179
:100F60009B01AC01C501B4010E94902520E030E056
:100F700040E05FE30E9411286B017C018AE294E06B
:100F80000E94630F63ED71E080915B0490915C04BB
:100F90000E94E31E66E871E080915B0490915C041E
:100FA0000E94E31EA3019201C501B4010E948F2596
:100FB0002BE43AEC48E95EE30E941128AB01BC0146
:100FC00022E030E080915B0490915C040E94A220BA
:100FD00068E871E080915B0490915C040E94E31EDC
:100FE00065E070E080E090E00E94601CD0932703F1
:100FF000C093260330922503209224038091B502EA
:10100000882309F452C06091DE027091DF02809162
:10101000E0029091E1020E94F6260E943B064B01FD
:101020005C01A701960160910C0370910D03809102
:101030000E0390910F030E94902560931803709304
:10104000190380931A0390931B0310921C031092B0
:101050001D0310921E0310921F0320911403309160
:1010600015034091160350911703C501B4010E9466
:1010700090254B015C0120E030E0A9010E9456263A
:1010800087FD38C02BED3FE049EC50E4C501B401C9
:101090000E9406281816DCF180922003909221030A
:1010A000A0922203B09223033AC0A7019601609157
:1010B0000C0370910D0380910E0390910F030E9419
:1010C0009025609318037093190380931A039093EB
:1010D0001B0310921C0310921D0310921E0310920A
:1010E0001F0320E030E0A901CA01B9010E94562681
:1010F00087FF0DC08BED9FE0A9ECB0E48093200347
:1011000090932103A0932203B093230308C010926D
:101110002003109221031092220310922303809047
:10112000200390902103A0902203B0902303C501D7
:10113000B4010E945A269B01AC01C701B6010E946E
:1011400011289B01AC016091E4027091E50280914D
:10115000E6029091E7020E9490256093F00270935E
:10116000F1028093F2029093F302C501B4010E9450
:1011700074289B01AC01C701B6010E9411289B0194
:10118000AC016091E8027091E9028091EA029091CD
:10119000EB020E9490256093F4027093F502809315
:1011A000F6029093F7028092F8029092F902A092D0
:1011B000FA02B092FB028AE294E00E94630F6BEDA8
:1011C00071E080915B0490915C040E94E31E66E8EC
:1011D00071E080915B0490915C040E94E31E409159
:1011E000F0025091F1026091F2027091F30222E05C
:1011F00030E080915B0490915C040E94A22066E83C
:1012000071E080915B0490915C040E94E31E409128
:10121000F4025091F5026091F6027091F70222E01B
:1012200030E080915B0490915C040E94A22066E80B
:1012300071E080915B0490915C040E94E31E4091F8
:10124000F8025091F9026091FA027091FB0222E0DB
:1012500030E080915B0490915C040E94A22068E8D9
:1012600071E080915B0490915C040E94E31E65E054
:1012700070E080E090E00E94601C0E94311C60934E
:10128000DA027093DB028093DC029093DD02E0EFE0
:10129000F2E044EE52E028E133E06CE073E081914B
:1012A0009191A191B191EA0189939993A993B993ED
:1012B000AE01E90189919991A991B9919E01EB0142
:1012C00089939993A993B993BE01D2E0EC3FFD07AE
:1012D00031F7DF91CF911F910F91FF90EF90DF9049
:1012E000CF90BF90AF909F908F907F906F905F90C6
:1012F0004F903F902F900C94311C8F929F92AF9201
:10130000BF92CF92DF92EF92FF920F931F93CF93F2
:10131000DF93EC0180E090E0A8ECB2E480930A0156
:1013200090930B01A0930C01B0930D0180930601E3
:1013300090930701A0930801B09309018091E20204
:101340009091E302009709F068C08CE08C9F8001C7
:101350008D9F100D1124025F1E4FC090F002D0909F
:10136000F102E090F202F090F302F80180809180A7
:10137000A280B38020E030E040E05FE3C501B4012B
:101380000E948F259B01AC01C701B6010E94562621
:1013900018160CF160910601709107018091080107
:1013A000909109010E94C5266B017C0160910A01A0
:1013B00070910B0180910C0190910D010E94C52646
:1013C000DC01CB01B6010E94C91A0E94FC06CE01C5
:1013D0000E942603C2CF20E030E040E05FE3C50179
:1013E000B4010E9490259B01AC01C701B6010E9487
:1013F000062887FFCFCF60E070E080E090E0DF91CB
:10140000CF911F910F91FF90EF90DF90CF90BF9001
:10141000AF909F908F900C94C91A019709F07AC0F1
:1014200089E098EEABE4B3E480930A0190930B015A
:10143000A0930C01B0930D0164E670E08BEC90E09A
:101440000E94C91A6AEF70E080E090E00E94601C80
:101450008CE08C9F80018D9F100D11240A5E1E4F21
:10146000C090F802D090F902E090FA02F090FB02EE
:10147000F80180809180A280B380A5019401C7010A
:10148000B6010E94062887FD3BC06091060170915D
:10149000070180910801909109010E94C5266B0106
:1014A0007C0160910A0170910B0180910C01909177
:1014B0000D010E94C526DC01CB01B6010E94C91AAC
:1014C0000E94FC0640E060E083E693E00E9404197D
:1014D0004091F8025091F9026091FA027091FB027A
:1014E00022E030E083E693E00E94A22041E060E049
:1014F00083E693E00E940419CE010E942603B0CF38
:10150000A5019401C701B6010E94562618160CF0D9
:10151000BCCF71CFDF91CF911F910F91FF90EF90D2
:10152000DF90CF90BF90AF909F908F90089540ED47
:1015300057E060E070E08AE294E00E94AD0F20E0A6
:1015400032EC41E050E060E874E08AE294E00E940E
:10155000660F8AE294E00E94630F6BEE71E0809167
:101560005B0490915C040E94E31E6AE070E080E0FE
:1015700090E00E94601C41E060E08AE294E00E94FA
:101580001F108AE693E00E94960C8091B4028111AC
:1015900005C081E08093B4020E94D51942E050E07A
:1015A00063E070E086E593E00E942E1186E593E00B
:1015B0000E946C104FEF60E286E593E00E944310BA
:1015C0000E94AA0242E050E064E070E088E293E00A
:1015D0000E94E61388E293E00E943F120E94301AB4
:1015E0000E943D1A81E00E947F1A81E00C94821AC9
:1015F000C8E083E10E94F01CC150D9F70E94511A43
:101600000E944A1AC1E0D0E0D093E302C093E20204
:101610006091060170910701809108019091090184
:101620000E94C5266B017C0160910A0170910B013B
:1016300080910C0190910D010E94C526DC01CB0127
:10164000B6010E94C91A81E08093B5021092E302AC
:101650001092E20280E090E00E947D09D093E302C4
:10166000C093E20281E090E00E947D0960E070E0BA
:1016700080E090E00E94C91AF9CF20E05D992160D6
:1016800055992260FC0120830895FC01208121FBF3
:101690000EF0559820FB0EF05D980EF45D9A21FB3C
:1016A0000EF4559A089520E028992160209922602F
:1016B000FC0120830895FC01208121FB0EF020987D
:1016C00020FB0EF028980EF4289A21FB0EF4209AA5
:1016D0000895FF920F931F93CF93DF93CDB7DEB79B
:1016E0002A970FB6F894DEBF0FBECDBF8C01F62E41
:1016F000CE0101962A8749870E943F0130E05A991E
:101700003160529932603E8330E02B9931602399E9
:1017100032603F83CE0105960E94530B30E047991B
:1017200031603F9932603887CE0104960E943D0BAC
:1017300049852A85442311F05A9A01C05A98529A31
:1017400021110AC06F2D70E094E0759567959A9508
:10175000E1F7C8010E945D016F2D6F70C8010E9402
:101760005D01CE0104960E94450B288521FB0EF0F9
:101770003F9820FB0EF047980EF4479A21FB0EF499
:101780003F9ACE0105960E945B0B3F8131FB0EF024
:10179000239830FB0EF02B980EF42B9A31FB0EF4AD
:1017A000239A2E8121FB0EF0529820FB0EF05A98BE
:1017B0000EF45A9A21FB0EF4529ACE0101960E9421
:1017C00050012A960FB6F894DEBF0FBECDBFDF9151
:1017D000CF911F910F91FF90089583E693E00E94AF
:1017E000731881E092E0909364038093630386E52D
:1017F00093E00E943A1088E293E00C94C211809129
:101800009A0390E020919B03821B910908952091F7
:101810009B0380919A03281750F4E22FF0E0E456DE
:10182000FC4F808190E02F5F20939B0308958FEF02
:101830009FEF0895E0919B0380919A03E81730F49D
:10184000F0E0E456FC4F808190E008958FEF9FEF29
:1018500008950895CF92DF92EF92FF920F931F9316
:10186000CF93DF937C01CB018A0120917603222361
:1018700089F0EB016B01C40ED51ECC15DD0569F0B6
:101880006991D701ED91FC910190F081E02DC701A4
:101890000995F3CF642F0E94E50DC801DF91CF9128
:1018A0001F910F91FF90EF90DF90CF900895CF930D
:1018B000DF931F92CDB7DEB7698320917603222391
:1018C000D1F020917703203240F021E030E0FC019C
:1018D0003383228380E090E015C080917803E82F65
:1018E000F0E0E758FC4F998190838F5F80937803F5
:1018F0008093770305C061E0CE0101960E94E50D5B
:1019000081E090E00F90DF91CF910895FC01138268
:10191000128248EE53E060E070E0448355836683B2
:1019200077838DE092E091838083089510929B03EA
:1019300010929A0310927803109277030C94280D5A
:1019400081E080937603609399031092780310925C
:10195000770308950F93062F21E04091770369E7FD
:1019600073E0809199030E948E0D1092780310927B
:101970007703109276030F9108958F929F92AF9202
:10198000BF92CF92DF92EF92FF920F931F93CF936C
:10199000DF93EC01F62ED42E48015901EE2019F107
:1019A0000E94A00C1E2D143008F013E01150B8F066
:1019B000E881F98128E0129FB0011124A50194016A
:1019C00004C056954795379527956A95D2F7CA0171
:1019D000B9010190F081E02DCE010995E7CF60E0DB
:1019E000CE010E94AA0C4D2D413208F040E22C2D70
:1019F0006CE973E08F2D0E94460D10929B0380933B
:101A00009A03DF91CF911F910F91FF90EF90DF909C
:101A1000CF90BF90AF909F908F900895CF92EF920C
:101A20000F931F93C22EE12C00E010E098010E945A
:101A3000BD0C1F910F91EF90CF90089521E00C9471
:101A40000E0D61E00C94AA0C8AE693E00C94860CCF
:101A50001092290481E0809327041092260461E00B
:101A600082E00E945E1D61E083E00E945E1DE9EB62
:101A7000F0E080818E7F808380818D7F808388E409
:101A80008093B80085E48093BC000895413208F04B
:101A900043C0909129049111FCCF91E090932904C7
:101AA000209327042FEF2093BC0310920104240FEE
:101AB000209300049093280490912804880F892B88
:101AC0008093280480912604813061F410922604CA
:101AD000809128048093BB008091BC0083FDF8CFE7
:101AE00085EC01C085EE8093BC0080912904813093
:101AF000E1F380910104841710F44091010422E085
:101B000034E0FB01D9018A2F821B841718F48D91D0
:101B10008193F9CF842F089580E008950F93413287
:101B200008F04AC0909129049111FCCF92E0909363
:101B30002904009327049FEF9093BC0310920104A3
:101B400040930004FB0162E074E0DB019A2F961BD6
:101B5000941718F491919D93F9CF109228049091C5
:101B60002804880F892B80932804809126048130D3
:101B700061F410922604809128048093BB00809128
:101B8000BC0083FDF8CF85EC01C085EE8093BC00DE
:101B9000222321F0809129048230E1F38091BC035B
:101BA0008F3F61F08091BC03803251F08091BC0383
:101BB000803341F483E007C081E005C080E003C0CA
:101BC00082E001C084E00F910895613298F4209181
:101BD0002904243089F46093DE03FC0180EE93E055
:101BE000DC012A2F281B261718F421912D93F9CFF9
:101BF00080E0089581E0089582E0089585ED809366
:101C0000BC008091BC0084FDFCCF10922904089593
:101C100085EC8093BC001092290408951F920F92C6
:101C20000FB60F9211242F933F934F935F936F93AF
:101C30007F938F939F93AF93BF93EF93FF93809185
:101C4000B900887F803609F49EC078F5883209F49F
:101C50005DC090F4803109F456C038F4882309F44B
:101C6000F5C0883009F44FC0F5C0883109F44EC082
:101C7000803209F45FC0EEC0803409F46AC058F4C1
:101C8000803309F457C0883309F0E4C08093BC0363
:101C90000E94080EDFC0803509F44FC0883509F472
:101CA0005DC0883409F0D6C0D3C0883909F4C4C0F7
:101CB000A8F4883709F467C038F4883609F463C09B
:101CC000803709F460C0C6C0883809F4B5C08039CF
:101CD00009F45FC0803809F0BDC05BC0803B09F4E7
:101CE00083C038F4803A09F466C0883A09F47CC0AD
:101CF000B1C0803C09F4A4C0883C09F4A1C0883B71
:101D000009F487C0A7C08091280410C090910104F5
:101D100080910004981770F5E091010481E08E0F26
:101D200080930104F0E0EE5FFB4F80818093BB0065
:101D300085EC83C08093BC038BC0E091010481E0FB
:101D40008E0F809301048091BB00F0E0EE5FFB4FAB
:101D5000808390910104809100046BC0E0910104A4
:101D600081E08E0F809301048091BB00F0E0EE5F74
:101D7000FB4F80838091270481116AC081E08093AA
:101D8000260484EA5EC083E0809329041092BD0398
:101D9000CFCF8091BD03803208F04EC0E091BD03EB
:101DA00081E08E0F8093BD038091BB00F0E0E25490
:101DB000FC4F8083BDCF0E94080E8091BD0380320E
:101DC00030F4E091BD03F0E0E254FC4F10826091EA
:101DD000BD0370E0E0912204F09123048EEB93E0C8
:101DE00009951092BD0336C084E0809329041092B7
:101DF000DF031092DE03E0912404F091250409959D
:101E00008091DE03811105C081E08093DE03109292
:101E1000E003E091DF0381E08E0F8093DF03F0E0C9
:101E2000E052FC4F80818093BB009091DF03809152
:101E3000DE03981708F47CCF85E88093BC000AC0C5
:101E400085EC8093BC001092290404C01092BC035E
:101E50000E94FE0DFF91EF91BF91AF919F918F91E5
:101E60007F916F915F914F913F912F910F900FBE96
:101E70000F901F9018950F931F93CF93DF93EC0152
:101E8000662359F00E94311C69837A838B839C837B
:101E9000DF91CF911F910F9108950E94311C09810C
:101EA0001A812B813C81601B710B820B930B623377
:101EB00071058105910530F763E070E080E090E006
:101EC0000E94601CEACF60E00C943B0FCF92DF923F
:101ED000EF92FF920F931F93CF93DF9300D000D028
:101EE000CDB7DEB78C017B01FC0172AB61AB8BE13E
:101EF000C82ED12CC70129833A834B835C830E946F
:101F00008D1E29813A814B815C81811113C0F1E0E2
:101F1000CF1AD10879F064E670E080E090E0298380
:101F20003A834B835C830E94601C5C814B813A81C5
:101F30002981E0CFBA01A901F80181A992A90F90E6
:101F40000F900F900F90DF91CF911F910F91FF9005
:101F5000EF90DF90CF900C94871EFC0113AA14AA77
:101F600015AA16AA118212821382148241155105F4
:101F70006105710521F0CB01BA010C94601C089534
:101F80001F93CF93DF93EC01162F69E172E089A9CB
:101F90009AA90E94E31E4AE050E0612F89A99AA9FC
:101FA0000E94B01F60E272E089A99AA90E94E31E14
:101FB00062E370E080E090E0DF91CF911F910C949C
:101FC000601C1F93CF93DF93EC01162F8D81882324
:101FD00089F189A99AA9DC01ED91FC910480F58130
:101FE000E02D0995892BA9F307C02637310519F192
:101FF0002835310509F41D8289A99AA9DC01ED91E2
:10200000FC910480F581E02D09951816190694F4C9
:1020100089A99AA9DC01ED91FC910680F781E02D58
:1020200009959C01332723363105F9F6612FCE013E
:102030000E94C00F83E6DF91CF911F9108950F9307
:102040001F93CF93DF931F92CDB7DEB78C0166232A
:1020500049F081E0F801858360E0C80149830E946E
:10206000E10F4981F80145830F90DF91CF911F91D6
:102070000F910895FC0183E090E090878783138699
:10208000128614860895EF92FF921F93CF93DF93E9
:102090001F92CDB7DEB77C01162FFC0161858AE661
:1020A00093E049830E94A00C612F8AE693E00E948E
:1020B000570C4981642F8AE693E00E94570C8AE608
:1020C00093E00E94210DF70186830F90DF91CF915D
:1020D0001F91FF90EF900895CF93DF93EC018F81D4
:1020E0009885029729F440E069E3CE010E944310ED
:1020F00040E063E2CE010E9443104FE660E2CE0171
:10210000DF91CF910C9443109F92AF92BF92CF92E8
:10211000DF92EF92FF920F931F93CF93DF93EC0127
:1021200069858AE693E00E94A00CE0916A03F09131
:102130006B030190F081E02D68EA8AE693E009954F
:102140008AE693E00E94210D46E069858AE693E0E5
:102150000E941E0D0E94311C7B018AE693E00E94C2
:10216000FF0B069784F48A859B85892BB1F30E9427
:10217000311C6E197F098A859B858617970768F73A
:1021800081E08C872CC08AE693E00E94070CA82E81
:102190008AE693E00E94070C982E8AE693E00E945C
:1021A000070CE82E8AE693E00E94070CB82E8AE618
:1021B00093E00E94070CF82E8AE693E00E94070C39
:1021C000D92CC12CCA28D982C8821B2D00E00E2927
:1021D0001B830A83982F88278F299D838C83DF9107
:1021E000CF911F910F91FF90EF90DF90CF90BF9014
:1021F000AF909F9008951F93CF93DF931F92CDB719
:10220000DEB7162F8AE693E049830E94A00C49812D
:10221000642F8AE693E00E94570C8AE693E00E94BE
:10222000210D811114C041E0612F8AE693E00E94E4
:102230001E0D8AE693E00E94FF0B892B41F08AE68F
:1022400093E00F90DF91CF911F910C94070C8FEFCB
:102250009FEF0F90DF91CF911F910895EF92FF9222
:102260000F931F93CF93DF937C01EB018A016330BF
:10227000710521F04230510509F051C0CE0101979E
:10228000039758F50115110581F04FE050E06BE61A
:10229000C7010E94FB108F3F2FEF920719F001E05A
:1022A00010E013C00130110551F04FE050E06AE634
:1022B000C7010E94FB108F3FEFEF9E0721F4C33050
:1022C000D10569F027C000E010E0C330D10529F442
:1022D000873D9105F1F5C2E0D0E02097D9F40115D2
:1022E000110561F04FE050E069E6C7010E94FB1064
:1022F000833D910589F10130110549F04FE050E02F
:1023000068E6C7010E94FB10833D910541F1C3308F
:10231000D10519F00230110511F480E025C0F70154
:10232000D087C783209759F0D7FD11C023977CF43D
:102330000130110511F48BE608C08AE606C00130B1
:10234000110511F489E601C088E6F701818781E073
:102350000BC0C1E0D0E0C1CF01E010E002C000E05E
:1023600010E0C0E0D0E0D6CFDF91CF911F910F9168
:10237000FF90EF900895DC01ED91FC910190F081C8
:10238000E02D0994CF93DF93EC0186E0E2E7F1E0E2
:10239000DE01529601900D928A95E1F786E0E8E71A
:1023A000F1E0DE011C9601900D928A95E1F784E040
:1023B00090E09A8F898F1CA61BA61DA6DF91CF9156
:1023C0000895EF92FF921F93CF93DF931F92CDB7A3
:1023D000DEB77C01162FFC01638D8AE693E049830A
:1023E0000E94A00C612F8AE693E00E94570C49815D
:1023F000642F8AE693E00E94570C8AE693E00E94DD
:10240000210DF701808F0F90DF91CF911F91FF90E9
:10241000EF900895EF92FF921F93CF93DF931F9257
:10242000CDB7DEB77C01162FFC01648D8AE693E000
:1024300049830E94A00C612F8AE693E00E94570C0A
:102440004981642F8AE693E00E94570C8AE693E064
:102450000E94210DF701808F0F90DF91CF911F9186
:10246000FF90EF900895FC01218D328D23303105CE
:1024700011F0603210F40C940A120C94E111CF9315
:10248000DF93EC01898D9A8D83309105D9F440E07A
:1024900061E2CE010E94331247E560E2CE010E9464
:1024A000331244E664E2CE010E94331240E265E258
:1024B000CE010E94331240E066E2CE01DF91CF915F
:1024C0000C943312029739F448E063E2CE010E9483
:1024D000E11147E406C040E063E2CE010E94E11151
:1024E00047E260E2CE010E94E1114CE060E0CE01E3
:1024F0000E940A1240E261E0CE010E940A1240E00E
:1025000062E0CE01DF91CF910C940A129F92AF92BC
:10251000BF92CF92DF92EF92FF920F931F93CF93D0
:10252000DF93EC016B8D8AE693E00E94A00C68EAD1
:1025300070E08AE693E00E94BB118AE693E00E9475
:10254000210D888F46E06B8D8AE693E00E941E0D78
:102550000E94311C6B018AE693E00E94FF0B0697F4
:1025600084F48BA59CA5892BB1F30E94311C6C19B6
:102570007D098BA59CA58617970768F781E08DA735
:102580002CC08AE693E00E94070CA82E8AE693E00E
:102590000E94070C982E8AE693E00E94070CC82E32
:1025A0008AE693E00E94070CB82E8AE693E00E9428
:1025B000070CD82E8AE693E00E94070CF92CE12C38
:1025C000EA28F982E8821B2D00E00C291B830A838C
:1025D000982F88278D299D838C83DF91CF911F9120
:1025E0000F91FF90EF90DF90CF90BF90AF909F90B2
:1025F0000895CF92DF92EF92FF920F931F93CF93A4
:10260000DF93EC016C8D8AE693E00E94A00C898D2B
:102610009A8D039721F469A17AA1606802C06F8D39
:1026200078A18AE693E00E94BB118AE693E00E94BB
:10263000210D888F46E06C8D8AE693E00E941E0D86
:102640000E94311C8B018AE693E00E94FF0B0697E3
:1026500084F48BA59CA5892BB1F30E94311C601BCF
:10266000710B8BA59CA58617970768F781E08DA74E
:1026700067C0898D9A8D0397F9F48AE693E00E94EA
:10268000070CC82E8AE693E00E94070CD82E8AE633
:1026900093E00E94070CE82E8AE693E00E94070C64
:1026A000182F8AE693E00E94070CF82E8AE693E042
:1026B0000E94070C082F35C08AE693E00E94070CA1
:1026C000D82E8AE693E00E94070CC82E298D3A8DF9
:1026D0008AE693E0232B99F40E94070C182F8AE6D0
:1026E00093E00E94070CE82E8AE693E00E94070C14
:1026F000082F8AE693E00E94070CF82E12C00E9471
:10270000070C082F8AE693E00E94070CF82E8AE651
:1027100093E00E94070C182F8AE693E00E94070CB2
:10272000E82E6C2D70E07D297F836E834E2D50E066
:10273000512B598748872F2D30E0302B3B872A8734
:10274000DF91CF911F910F91FF90EF90DF90CF908D
:102750000895CF93DF93EC010E948612CE01DF91A2
:10276000CF910C94F9121F93CF93DF931F92CDB7A3
:10277000DEB7162F8AE693E049830E94A00C4981B8
:10278000642F8AE693E00E94570C8AE693E00E9449
:10279000210D811114C041E0612F8AE693E00E946F
:1027A0001E0D8AE693E00E94FF0B892B41F08AE61A
:1027B00093E00F90DF91CF911F910C94070C8FEF56
:1027C0009FEF0F90DF91CF911F910895EF92FF92AD
:1027D0000F931F93CF93DF93EC018B017A01643049
:1027E000710521F04230510509F055C0C801039729
:1027F000029708F0CDC0E114F10471F04FE050E011
:102800006DE1CE010E94B3138934910509F4B8C07B
:1028100081E0E816F10451F04FE050E06EE1CE01A6
:102820000E94B3138934910509F4AEC00430110538
:1028300009F0D0C0E114F10469F040E250E069E130
:10284000CE010E94B313019679F421E0E216F1045F
:1028500009F4A3C040E250E068E1CE010E94B31346
:10286000019609F0A4C099C00430110509F09BC07D
:102870004FE050E06EE1CE010E94B313EE24E394EA
:10288000F12CCC9709F0A9C002E010E082E0E81634
:10289000F10409F486C01A8F098F0130110569F11E
:1028A00024F4012B09F449C069C00230110541F13B
:1028B0000330110509F062C0EA94EF2811F48DE1AC
:1028C00001C08EE18C8F8B8F88E090E09AA389A362
:1028D00089E090E098A38F8F8AE090E09EA38DA37B
:1028E0008BE090E09CA38BA38CE090E09AA789A753
:1028F0008DE090E098A78FA341C0EA94EF2811F4EF
:1029000089E101C088E18B8F8EE18C8F83E090E0BC
:1029100098A38F8F84E090E09AA389A387E090E04A
:102920009CA38BA388E090E09EA38DA385E090E01C
:1029300098A78FA386E090E01FC0EA94EF2811F4D7
:1029400089E101C088E18B8F8EE18C8F83E090E07C
:1029500098A38F8F84E090E09AA389A385E090E00C
:102960009CA38BA386E090E09EA38DA387E090E0DC
:1029700098A78FA388E090E09AA789A781E030C04C
:10298000EE24E394F12C02C0E12CF12C03E010E0E2
:102990000330110508F44ECF79CF0430110509F04A
:1029A00075CF80E01DC0EE24E394F12C6FCF04308E
:1029B000110569F44FE050E06EE1CE010E94B313BF
:1029C00031E020E0CC9709F030E0032F122FE12C0A
:1029D000F12C5CCF03E010E059CF00E010E056CFBF
:1029E000DF91CF911F910F91FF90EF9008959091FB
:1029F0006304E0916704F0916804992311F08491D5
:102A000001C080812FEB280F2A3110F4805E0895D9
:102A1000803249F49F012F5F3F4F30936804209329
:102A20006704EF2B31F708951F93CF93DF930E9434
:102A3000F714C0E0D0E01AE090ED980F9A30B8F4A7
:102A40009E01129FE001139FD00D1124C80FD11DCC
:102A500087FDDA95E097809167049091680401966C
:102A600090936804809367040E94F714E5CFCE0129
:102A7000DF91CF911F910895109272001092C000C3
:102A800084E08093C10089E08093C20081E080935C
:102A9000C300EFEBF0E083E0808388EE8093D10009
:102AA00010821092D200579A789408952F923F92F4
:102AB0004F925F926F927F928F929F92AF92BF924E
:102AC000CF92DF92EF92FF920F931F93CF93DF93FA
:102AD000CDB7DEB727970FB6F894DEBF0FBECDBFD8
:102AE0007C011B014D8380916904811105C081E047
:102AF000809369040E943C1510925301F7FE04C0B4
:102B0000E894F7F81AE001C011E088E2189F802DE0
:102B10001124282F30E03F832E832E153F0510F41B
:102B2000FF82EE82113049F44E815F81413157427C
:102B300020F0E0E1F7E2FF83EE83812E912CA12CBF
:102B4000B12C8E819F81969587959C0140E050E045
:102B500029833A834B835C834E815F812A01612CF8
:102B6000712CA501940160E072E18AE790E00E9477
:102B7000A02829813A814B815C81620F731F841FD9
:102B8000951FA30192010E94062969017A01EE2492
:102B9000FF2400E00F5FC11434E0D306E104F10428
:102BA00008F120E032E14AE750E0002E04C05595DC
:102BB0004795379527950A94D2F7C501B4010E942D
:102BC000A02829813A814B815C81620F731F841F89
:102BD000951FA30192010E94062969017A01EE2442
:102BE000FF24D8CF1A3049F48E819F8105966AE080
:102BF00070E00E94BC287F836E834E815F81483ED7
:102C000083E0580759F09101DA010E942B2928EE40
:102C100033E040E050E00E94062919011092720052
:102C20008091C100807F802B8093C100BB27AF2D96
:102C30009E2D8D2D8093BF00C092D1002D8120311B
:102C400008F02FE080E190E0821B910904C0F69427
:102C5000E794D794C7948A95D2F78D2D99278093BE
:102C6000BF00C092D200309266042092650489B3FE
:102C70008FEF89BB84E08093720027960FB6F8949B
:102C8000DEBF0FBECDBFDF91CF911F910F91FF909F
:102C9000EF90DF90CF90BF90AF909F908F907F90FC
:102CA0006F905F904F903F902F900895CF93DF9358
:102CB000EB018F3F11F0411105C040E0BE0188EEED
:102CC00093E043C0813130F050EF580F503618F088
:102CD0005FE501C050E0852F6CE00E94B028682FAE
:102CE00074EF760390011124250F311D2C3031052E
:102CF00040F4F901EE0FFF1FEF58FD4F20813181A5
:102D000002C020E030E0873081F0082E02C0220FA0
:102D1000331F0A94E2F7823028F0C90105966AE071
:102D200070E00CC0C90190580CC0C90136E0880F92
:102D3000991F3A95E1F7029665E070E00E94BC2881
:102D4000CB01403108F04FE0BE01DF91CF910C94F0
:102D500056154F925F926F927F928F929F92AF9291
:102D6000BF92CF92DF92EF92FF920F931F93CF9378
:102D7000DF9300D0CDB7DEB790905201809162040E
:102D8000882321F060916104611117C07724739446
:102D9000B0ECAB2EBDE5BB2E1AE0612E04E0802E18
:102DA00080EDC82E87E0D82E94E0E92EF12C04EFB8
:102DB00011E02FE0422E512C15C070E040E088EE6B
:102DC00093E00E9456151092610429C18636D4F50D
:102DD000813609F4A9C07CF58C3309F460C08E33C8
:102DE00081F493940E94F714209167043091680451
:102DF0002F5F3F4F3093680420936704853631F787
:102E000052C0813209F08BC080925201D0925101A0
:102E1000C0925001F0924F01E0924E0110934D018B
:102E200000934C0150924B0140924A01109262046F
:102E3000A4E09A2ED7CF8336A1F10CF478C010E02D
:102E400082E077C08D36C1F194F4873691F174F148
:102E50008C3609F064C00E941415BC0190934F0198
:102E600080934E01809150019091510151C0823761
:102E7000C9F14CF48F3609F052C00E941415982EF7
:102E800080935201AFCF843781F1863709F047C074
:102E90000E94141590934B0180934A01A3CF9A94FA
:102EA000A1CF10E020C010E084E043C010E085E036
:102EB00040C010E087E03DC00E94F7148C3619F442
:102EC0001092620404C07092620410926104209116
:102ED0006704309168042F5F3F4F3093680420935C
:102EE000670480CF11E080E024C00E941415BC016B
:102EF000C5010E94BC28669EC001679E900D1124EA
:102F0000909351018093500160914E0170914F0157
:102F10000E94BC2870934D0160934C0163CF1092C6
:102F20006804109267047BC010E089E002C010E0E2
:102F30008BE0082F9CE0999E000D11240E94F7144D
:102F4000982F977F933261F4209167043091680441
:102F50002F5F3F4F30936804209367040F5FEECFDD
:102F60008D3271F420916704309168042F5F3F4FD8
:102F7000309368042093670401500E94F714F0CF47
:102F800060914C0170914D018153883050F4E09074
:102F90005001F09051010E941415BC01C7010E941C
:102FA000BC287B01F694E79469837A830E94F71426
:102FB00069817A818E3269F42091670430916804C6
:102FC0002F5F3F4F30936804209367046E0D7F1D81
:102FD000E9CF80916204882339F09B0136952795CB
:102FE00020936104621B710940914A01112311F081
:102FF0008FEF01C0802F0F900F90DF91CF911F9125
:103000000F91FF90EF90DF90CF90BF90AF909F9087
:103010008F907F906F905F904F900C9456160F900A
:103020000F90DF91CF911F910F91FF90EF90DF9064
:10303000CF90BF90AF909F908F907F906F905F9058
:103040004F9008951F920F920FB60F9211242F9355
:103050003F934F935F936F937F938F939F93AF9320
:10306000BF93EF93FF9380916504909166049C0158
:10307000215031093093660420936504892B11F5A2
:103080001092720078948091C100807F8460809358
:10309000C10083E08093BF0088EE8093D10010923E
:1030A000BF001092D20081E08093530180916704A9
:1030B00090916804892B31F080916404811102C0E1
:1030C0000E94A916FF91EF91BF91AF919F918F91AF
:1030D0007F916F915F914F913F912F910F900FBE14
:1030E0000F901F901895FC01138212828DE892E0D8
:1030F00091838083148208951F93CF93DF93EC0113
:10310000162F64600E94F6181E83DF91CF911F91E5
:103110000895CF93DF93EC01E881F9810480F58174
:10312000E02D099563E0CE010E94F2188FE991E449
:103130000197F1F700C0000063E0CE010E94F21891
:1031400087E592E00197F1F700C0000063E0CE014F
:103150000E94F21862E0CE010E94F21868E2CE01ED
:103160000E94F61860E0CE010E942819CE010E944C
:10317000FA1862E0CE010E947C1864E0CE01DF9173
:10318000CF910C9428190F931F93CF93DF9300D006
:103190001F92CDB7DEB78C01DC0114968C91149789
:1031A00081110CC081E014968C93C8012B834A8353
:1031B00069830E94891869814A812B81D801ED9128
:1031C000FC910680F781E02DC8010995B5ECBA9510
:1031D000F1F700000F900F900F90DF91CF911F91AA
:1031E0000F91089521E040E00C94C31820E040E0E6
:1031F0000C94C31861E00E94F6188FE39FE10197D9
:10320000F1F700C000000895CF93DF9300D000D005
:10321000CDB7DEB720E8298320EC2A8324E92B836D
:1032200024ED2C83443008F043E0FE01E40FF11D4F
:103230002181260F622F0E94F61885EC8A95F1F7FE
:1032400000000F900F900F900F90DF91CF91089595
:103250001F93CF93DF93EC01162F68600E94F6183E
:103260001D83DF91CF911F91089520E041E00C94E0
:10327000C3180E94351981E090E00895CF92DF9243
:10328000EF92FF920F931F93CF93DF937C018A01FC
:10329000EB016B01C40ED51ECC15DD0529F069913B
:1032A000C7010E943519F8CFC801DF91CF911F9156
:1032B0000F91FF90EF90DF90CF9008954FB1417044
:1032C0005CB156FB552750F95427809170046091EA
:1032D000710420916A0430916B04852790E0642783
:1032E000861B9109820F931F90936B0480936A044D
:1032F0009091710480917004591729F0481719F0C2
:1033000081E080936F04509371044093700408959A
:103310001F920F920FB60F9211242F933F934F934A
:103320005F936F938F939F932CB130E035952795E2
:1033300035952795422F417083B190E054E09595E3
:1033400087955A95E1F782279327582F51708091DE
:1033500072046091730420916C0430916D04852790
:1033600090E06427861B9109820F931F90936D0450
:1033700080936C049091730480917204591729F022
:10338000481719F081E080936F04509373044093C1
:1033900072049F918F916F915F914F913F912F9107
:1033A0000F900FBE0F901F90189524982C9A6A9832
:1033B000729A6E98769A8098889A81E080936800D5
:1033C00090E190936B008BBB41E050E06EE579E1BA
:1033D00084E00E94D41A8CB182FB882780F9817026
:1033E0008093720493B180917204929591708927B1
:1033F0008093730410926D0410926C0410926F0409
:103400008FB18170809370049CB18091700496FBA1
:10341000992790F989278093710410926B04109278
:103420006A0410926E0408958091B402811105C05F
:1034300081E08093B4020C94D51908950E94141A67
:10344000F89480916C0490916D04789408950E9492
:10345000141AF89480916A0490916B0478940895FA
:103460000E94141AF89480916C0490916D0410924B
:103470006D0410926C04789408950E94141AF894C4
:1034800080916A0490916B0410926B0410926A040C
:10349000789408950E94141A80916F0410926F041A
:1034A00008950E94141A80916E0410926E0408957B
:1034B0002E98269A2D98259A2A98229A2998219A08
:1034C00080EA8093800081E18093810080E991E02F
:1034D0009093870080938600109289001092880054
:1034E00010928B0010928A000895809174048111CB
:1034F00005C081E0809374040C94581A0895809359
:1035000076040895809375040895CF93DF93EC01BA
:103510000E94751AD7FF05C0D195C195D10981E0E8
:1035200001C080E0C13991E0D90714F0C0E9D1E0D1
:10353000D0938B00C0938A0090917604891711F084
:103540002A9A01C02A98229ADF91CF910895CF93A9
:10355000DF93EC010E94751AD7FF05C0D195C19584
:10356000D10981E001C080E0C13991E0D90714F0B0
:10357000C0E9D1E0D0938900C09388009091750490
:10358000891711F0299A01C02998219ADF91CF91CA
:103590000895CF93DF93EB010E94851ACE01DF914E
:1035A000CF910C94A71A0895853008F04CC0E82FED
:1035B000F0E0EE0FFF1FEC5AFE4F71836083823004
:1035C000E1F018F4813069F004C0833019F18430DF
:1035D00071F1809169008C7F842B80936900E89A57
:1035E000089580916900440F551F440F551F837F34
:1035F000842B80936900E99A08958091690034E0F2
:10360000440F551F3A95E1F78F7C842B8093690016
:10361000EA9A08958091690026E0440F551F2A9583
:10362000E1F78F73842B80936900EB9A0895809162
:103630006A0094E0440F551F9A95E1F78F7C842B24
:1036400080936A00EE9A08951F920F920FB60F9220
:1036500011242F933F934F935F936F937F938F9397
:103660009F93AF93BF93EF93FF93E0915401F09139
:1036700055010995FF91EF91BF91AF919F918F9166
:103680007F916F915F914F913F912F910F900FBE5E
:103690000F901F9018951F920F920FB60F92112442
:1036A0002F933F934F935F936F937F938F939F934A
:1036B000AF93BF93EF93FF93E0915601F0915701C1
:1036C0000995FF91EF91BF91AF919F918F917F915C
:1036D0006F915F914F913F912F910F900FBE0F907F
:1036E0001F9018951F920F920FB60F9211242F93CF
:1036F0003F934F935F936F937F938F939F93AF937A
:10370000BF93EF93FF93E0915801F0915901099510
:10371000FF91EF91BF91AF919F918F917F916F91A9
:103720005F914F913F912F910F900FBE0F901F907F
:1037300018951F920F920FB60F9211242F933F935B
:103740004F935F936F937F938F939F93AF93BF93A9
:10375000EF93FF93E0915A01F0915B010995FF917E
:10376000EF91BF91AF919F918F917F916F915F91F9
:103770004F913F912F910F900FBE0F901F90189572
:103780001F920F920FB60F9211242F933F934F93D6
:103790005F936F937F938F939F93AF93BF93EF93B9
:1037A000FF93E0915C01F0915D010995FF91EF912C
:1037B000BF91AF919F918F917F916F915F914F9149
:1037C0003F912F910F900FBE0F901F9018951F9251
:1037D0000F920FB60F9211242F933F938F939F93C5
:1037E000AF93BF938091780490917904A0917A046B
:1037F000B0917B043091770423E0230F2D3720F420
:103800000196A11DB11D05C026E8230F0296A11D3A
:10381000B11D209377048093780490937904A0934A
:103820007A04B0937B0480917C0490917D04A091F4
:103830007E04B0917F040196A11DB11D80937C048C
:1038400090937D04A0937E04B0937F04BF91AF91C9
:103850009F918F913F912F910F900FBE0F901F90CE
:1038600018952FB7F894609178047091790480913D
:103870007A0490917B042FBF08953FB7F89480910C
:103880007C0490917D04A0917E04B0917F0426B5C4
:10389000A89B05C02F3F19F00196A11DB11D3FBF88
:1038A0006627782F892F9A2F620F711D811D911D18
:1038B00042E0660F771F881F991F4A95D1F7089538
:1038C0008F929F92AF92BF92CF92DF92EF92FF9230
:1038D0006B017C010E943D1C4B015C01C114D104B1
:1038E000E104F104F1F00E94F3240E943D1C6819E8
:1038F00079098A099B09683E73408105910570F337
:1039000021E0C21AD108E108F10888EE880E83E0B0
:10391000981EA11CB11CC114D104E104F10429F7C3
:10392000DDCFFF90EF90DF90CF90BF90AF909F9052
:103930008F900895789484B5826084BD84B5816049
:1039400084BD85B5826085BD85B5816085BDEEE6A7
:10395000F0E0808181608083E1E8F0E01082808186
:1039600082608083808181608083E0E8F0E08081F4
:1039700081608083E1E9F0E08081826080838081E2
:1039800081608083E0E9F0E0808181608083E1EC08
:10399000F0E0808184608083808182608083808188
:1039A00081608083E3ECF0E0808181608083E0ECE3
:1039B000F0E0808182608083E2ECF0E080818160D1
:1039C0008083EAE7F0E08081846080838081826088
:1039D0008083808181608083808180688083089576
:1039E000823108F08251E82FF0E0EA5EFE4FE49168
:1039F00080917B00E3FB222720F930E095E0220F45
:103A0000331F9A95E1F78F7D822B80937B00E770BF
:103A100080915E0120E4829FC0011124E82BE09395
:103A20007C0080917A00806480937A0080917A0093
:103A300086FDFCCF809178002091790090E0922B58
:103A4000089590E0FC013197EF30F105B0F5EA5AA6
:103A5000FF4F0C942529809180008F7703C08091BF
:103A600080008F7D80938000089580918000877F03
:103A7000F9CF84B58F7702C084B58F7D84BD08955A
:103A8000809190008F7707C0809190008F7D03C058
:103A900080919000877F8093900008958091C0006E
:103AA0008F7703C08091C0008F7D8093C000089500
:103AB0008091C200877F8093C20008950F931F9367
:103AC000CF93DF931F92CDB7DEB7282F30E0F901F7
:103AD000EE5DFE4F8491F901EF5BFE4F1491F90109
:103AE000E05AFE4F04910023C9F0882321F0698336
:103AF0000E94211D6981E02FF0E0EE0FFF1FE158C9
:103B0000FE4FA591B4919FB7F8948C91611103C0B9
:103B10001095812301C0812B8C939FBF0F90DF9163
:103B2000CF911F910F9108950E944529CF93DF9364
:103B30001F92CDB7DEB76983DC01ED91FC91028065
:103B4000F381E02D41E050E0BE016F5F7F4F0995AA
:103B50000F90DF91CF910895CF93DF93EC018C8587
:103B60009D8597FF05C082E00E94B5219D878C87C7
:103B70008C859D85DF91CF91089583E00C94492435
:103B8000FC018485958597FD06C082E00E945D2139
:103B900090E00196089582E00E945D2190E00895F2
:103BA000FC018485958597FD05C02FEF3FEF358794
:103BB0002487089582E00C94B521CF93DF93EC0124
:103BC00080916A01882331F083E00E94E621181673
:103BD000190634F081E090E09B838A8380E090E0D6
:103BE000DF91CF910895FC0120812E5F208342E474
:103BF00050E06DE871E080E80C948122FC012181A5
:103C00008081813A59F4213209F04BC047E050E0FD
:103C100063E671E080E00E9481225EC0813209F09B
:103C200040C0233289F4838190E0982F8827328125
:103C3000832BA0E0B0E080935F0190936001A0939C
:103C40006101B09362010FC0203239F467E070E087
:103C500083E691E00E94B22209C0223221F48281DF
:103C600080936A0103C02D7F2032B1F58091D0048A
:103C7000811103C0E0E0F8E002C0EEEFFAE08091CD
:103C8000630190916401A0916501B0916601803B50
:103C90009440A105B10511F580916A0180FF03C030
:103CA0001DC080E00895EE3F2AE0F20731F08081E8
:103CB00091819093FF0A8093FE0A87E797E79183AB
:103CC00080832BE088E190E00FB6F894A89580936C
:103CD00060000FBE2093600081E0089588E10FB678
:103CE000F89480936000109260000FBEA895EE3F9C
:103CF0008AE0F80739F08091FE0A9091FF0A9183DB
:103D00008083EACF1092FF0A1092FE0AE5CF2FEFD0
:103D10003FEFFC01358724870895CF93C0916A0156
:103D20006AE070E080E090E00E94601C81E0C111D8
:103D300001C080E0CF910895109283041092820414
:103D400088EE93E0A0E0B0E0809384049093850433
:103D5000A0938604B093870489E992E0909381044C
:103D6000809380048FEF9FEF90938D0480938C0459
:103D7000089508950E949A1C0E94B91E81ED94E056
:103D80000E94D6240E94970AC0E0D0E00E94F80A60
:103D90002097E1F30E940000F9CF6115710581F0D1
:103DA000DB010D900020E9F7AD0141505109461BA0
:103DB000570BDC01ED91FC910280F381E02D099419
:103DC00080E090E008950C94CD1EDC01ED91FC9113
:103DD0000190F081E02D099466E272E00C94CD1E12
:103DE0000F931F93CF93DF93EC010E94CD1E8C01A4
:103DF000CE010E94EC1E800F911FDF91CF911F9189
:103E00000F9108958F929F92AF92BF92DF92EF929F
:103E1000FF920F931F93CF93DF93CDB7DEB7A19798
:103E20000FB6F894DEBF0FBECDBF7C01F42FD52EA8
:103E3000CB0119A2223008F42AE08E010F5D1F4F3A
:103E4000822E912CA12CB12C6F2F7D2DA5019401D8
:103E50000E94E428F22FD32ECA01015011096A30C2
:103E600014F4E0E301C0E7E3E60FD801EC93232B61
:103E7000242B252B49F7B801C7010E94CD1EA1961E
:103E80000FB6F894DEBF0FBECDBFDF91CF911F916B
:103E90000F91FF90EF90DF90BF90AF909F908F9029
:103EA0000895CF92DF92EF92FF920F931F93CF93DB
:103EB000DF93EC016A017B012115310579F4E8817A
:103EC000F9810190F081E02D642FDF91CF911F9156
:103ED0000F91FF90EF90DF90CF9009942A30310539
:103EE000E9F477FF1AC06DE20E94E51E8C014427B9
:103EF0005527BA014C195D096E097F092AE0CE01E8
:103F00000E94021F800F911FDF91CF911F910F918F
:103F1000FF90EF90DF90CF9008952AE0B701A601BF
:103F2000CE01DF91CF911F910F91FF90EF90DF9025
:103F3000CF900C94021F9A01AB01662757FD609544
:103F4000762F0C94511F2115310541F4DC01ED91C0
:103F5000FC910190F081E02D642F09940C94021FD4
:103F60009A01462F50E060E070E00C94A31F4F923E
:103F70005F926F927F928F929F92AF92BF92CF92F9
:103F8000DF92EF92FF920F931F93CF93DF93EC0199
:103F90006A017B01B22E9A01AB01C701B6010E94F2
:103FA0007D28882319F065EA72E027C026013701D1
:103FB000E89477F82FEF3FEF4FE75FE7C301B201D7
:103FC0000E947D2881110DC02FEF3FEF4FE75FE783
:103FD000C301B2010E94562618161CF469EA72E069
:103FE0000CC02FEF3FEF4FE75FE4C701B6010E941F
:103FF00006281816ACF46DEA72E0CE01DF91CF917D
:104000001F910F91FF90EF90DF90CF90BF90AF90F6
:104010009F908F907F906F905F904F900C94CD1EEB
:104020002FEF3FEF4FE75FECC701B6010E94562626
:1040300087FDE1CF20E030E0A901C701B6010E9471
:10404000562687FF0AC06DE2CE010E94E51E8C0154
:10405000F7FAF094F7F8F09402C000E010E0A12C19
:1040600060E070E080E09FE3AB1441F020E030E0DE
:1040700040E251E40E945D26A394F6CF9B01AC017F
:10408000C701B6010E9490256B017C010E94CA26DF
:104090002B013C010E94F6269B01AC01C701B60131
:1040A0000E948F256B017C012AE0B301A201CE01A1
:1040B0000E94021F080F191FBB2039F061EB72E04C
:1040C000CE010E94CD1E080F191F7B2C772041F1D5
:1040D00020E030E040E251E4C701B6010E9411281F
:1040E0006B017C010E94C5264B01AA2497FCA09479
:1040F000BA2C2AE030E0B501A401CE010E94511F84
:10410000080F191FC501B4010E94F8269B01AC01DC
:10411000C701B6010E948F256B017C017A94D6CF2E
:10412000C801DF91CF911F910F91FF90EF90DF9029
:10413000CF90BF90AF909F908F907F906F905F9047
:104140004F9008950C94B71F615030F02091F1000A
:10415000FC0120830196F8CF289884E68093DA0446
:1041600008954091D5045091D6042091D304309104
:10417000D40442175307B4F49091E8009570E1F32A
:104180009091E80092FD19C08093F1008091D504D0
:104190009091D60401968F739927892B19F48EEF8D
:1041A0008093E8008091D5049091D6040196909375
:1041B000D6048093D50481E0089580E00895CF92DD
:1041C000DF92EF92FF920F931F93CF93DF931F9293
:1041D000CDB7DEB7082F162FF42E862F880F8E5FEF
:1041E00099830E94B12083E00E94B120E02EC02E6E
:1041F0009981D92E8C2D8E19811798F4F601F7FE2E
:1042000002C0849101C080810E94B120082F80E00B
:104210000E94B1208023FFEFCF1ADF0A8111EACF7D
:1042200001C081E00F90DF91CF911F910F91FF901E
:10423000EF90DF90CF9008958091D70081608093B8
:10424000D70080EA8093D80089B5806189BD89B59F
:10425000826089BD09B400FEFDCF61E070E080E0BE
:1042600090E00E94601C8091D8008F7C80618093D8
:10427000D8008091E000807F8093E0000895CF9384
:10428000DF931F92CDB7DEB71982CE0101960E944F
:10429000F31D0E947B25BE016F5F7F4F0E94F424B7
:1042A00089810F90DF91CF9108952FB7FC01208372
:1042B000F89467706093E9000895CF93DF931F929D
:1042C000CDB7DEB7682FCE0101960E9455218091AF
:1042D000F20099819FBF0F90DF91CF910895FF92D7
:1042E0000F931F93CF93DF9300D0CDB7DEB7F62E99
:1042F0008A019091D904992311F057FF03C08FEFE1
:104300009FEF2BC0682FCE0101967A830E94552122
:104310008091F20090E0A8017A81801791070CF457
:10432000AC01EF2DF72FF40E84E6FE1639F0289835
:104330008093DA049091F1009193F7CF41155105E4
:1043400021F08091F200882321F089818FBFCA017A
:1043500004C08BE68093E800F8CF0F900F90DF91B8
:10436000CF911F910F91FF900895CF93DF931F92EC
:10437000CDB7DEB741E050E0BE016F5F7F4F0E94D6
:104380006F21019719F4898190E002C08FEF9FEFB0
:104390000F90DF91CF910895CF93DF931F92CDB708
:1043A000DEB7682FCE0101960E9455219091E8005A
:1043B000892F807295FF04C09091F20080E4891BE0
:1043C00099819FBF0F90DF91CF9108956F927F9257
:1043D0008F929F92AF92BF92CF92DF92EF92FF9215
:1043E0000F931F93CF93DF931F92CDB7DEB7782E35
:1043F0007B01C42EB52E8091D904882369F0042F47
:10440000152F8AEFD82E872D8072982E9AE3A92E29
:10441000872D8074882E11C08FEF9FEF57C0872D96
:104420000E94CC21682E81110CC0DA94A9F361E0BE
:1044300070E080E090E00E94601C0115110579F7A2
:104440003BC0282F30E0021713070CF4602E672DB5
:10445000CE0101960E9455218091E80085FF29C078
:10446000262D30E0021B130B992039F06A948FEF50
:104470006816B1F01092F100F9CFF701862D77FEA2
:1044800007C0815058F094919093F1003196F9CF84
:10449000815020F091919093F100FACFE20EF31E3B
:1044A0008091E80085FF0FC00115110511F48110FE
:1044B0000AC089818FBFC1CF5D9884E68093DB04F9
:1044C0008C2D9B2D03C0A092E800F3CF0F90DF91BD
:1044D000CF911F910F91FF90EF90DF90CF90BF9001
:1044E000AF909F908F907F906F9008951092E90009
:1044F0001092D6041092D5049093D4048093D304E0
:104500000895CF92DF92FF920F931F93CF93DF9383
:1045100000D0CDB7DEB7F82E8A016B010115110569
:10452000B1F0F601F7FE02C0849101C08081498399
:104530005A830E94B12001501109FFEFCF1ADF0A00
:1045400049815A818111EACF8FEF9FEF01C0CA01E3
:104550000F900F90DF91CF911F910F91FF90DF90FF
:10456000CF900895BF92CF92DF92EF92FF920F9378
:104570001F93CF93DF936C018B01EB013BEFB32EC5
:104580002097C1F07E01C134D1051CF020E4E22E59
:10459000F12C8091E80082FFFCCFC8018C1B9D0BA1
:1045A0006E2D8C0D9D1D0E94A420B092E800CE19A6
:1045B000DF09E6CFC801DF91CF911F910F91FF90E6
:1045C000EF90DF90CF90BF9008951F920F920FB69B
:1045D0000F921124DF92EF92FF920F931F932F936C
:1045E0003F934F935F936F937F938F939F93AF937B
:1045F000BF93EF93FF93CF93DF93CDB7DEB76C9765
:10460000DEBFCDBF1092E9008091E80083FF23C197
:1046100068E0CE0145960E94A42082EF8093E800D6
:104620003D8937FF05C08091E80080FFFCCF03C0C3
:104630008EEF8093E800832F807609F0F0C02E89FA
:104640004F89D88C21110CC0303829F48091D804BE
:104650008093F10002C01092F1001092F100F4C0BA
:10466000842F90E09D29213049F43111EDC001974C
:1046700009F0EAC08091D8048D7F0AC0233059F434
:104680003111E2C0019709F0DFC08091D804826047
:104690008093D804D9C0253041F48091E80080FF90
:1046A000FCCF40684093E300CFC0263009F08DC0B6
:1046B000EB8CFC8C22E0D2122CC080E090E00E94B7
:1046C00076220E943F2199E08E010F5F1F4FF80173
:1046D000292F11922A95E9F79983DA8291E09E8336
:1046E00090EA98879AEF99872091D5043091D60463
:1046F000275F3F4F3C832B838D83C7010E94762227
:1047000049E050E0B80180E00E9481220E943F21F0
:104710009BC0C7010E9476220E947B25BE016B5E72
:104720007F4F0E941D25009719F00CF08DC090C09E
:1047300081E0D8120EC08B8D9C8D089719F481E012
:104740008093D2048091D20481112FC061EE71E078
:1047500031C0E3E0DE127CC08F89882349F18230CA
:1047600029F440E862E186E092E01CC0813029F43F
:1047700040E862E183EF91E015C0833009F068C042
:104780000E947B258E010F5F1F4FB8010E943C25C0
:10479000F80101900020E9F73197E01BF10B40E0B0
:1047A0006E2FC8010E94DF204DC06FEC71E002C087
:1047B00069E172E06115710509F44AC0FB01449199
:1047C00050E080E80E9481223FC0273009F440C0B9
:1047D000283021F481E08093F10036C02930A1F522
:1047E0003370B1F5ECE6F1E081E021E036E3908151
:1047F000992361F08093E9002093EB0091919093CD
:10480000EC003093ED008F5F873089F78EE780935F
:10481000EA001092EA008F898093D90415C08B8D2D
:104820009C8D0E947622898D811105C0CE0145960E
:104830000E94FE1D07C00E947B25BE016B5E7F4F5C
:104840000E945B25882321F08EEF8093E80003C04F
:1048500081E28093EB006C960FB6F894DEBF0FBE3A
:10486000CDBFDF91CF91FF91EF91BF91AF919F911C
:104870008F917F916F915F914F913F912F911F91F8
:104880000F91FF90EF90DF900F900FBE0F901F9051
:1048900018958093E9008091F200882319F08AE34B
:1048A0008093E80008951F920F920FB60F92112483
:1048B0002F933F934F935F936F937F938F939F9328
:1048C000AF93BF93CF93EF93FF93C091E10080919B
:1048D000E100837F8093E1008093E100C3FF0FC07C
:1048E0001092E90081E08093EB001092EC0082E3EB
:1048F0008093ED001092D90488E08093F000C2FF0D
:1049000019C083E00E9449248091DB04882339F098
:104910008091DB0481508093DB04882389F18091AE
:10492000DA04882339F08091DA0481508093DA0424
:10493000882341F1C4FF10C08091E2008E7E816027
:104940008093E2008091E1008F7E8093E10080916E
:10495000D7048E7E806111C0C0FF16C08091E20036
:104960008E7E80618093E2008091E1008E7E809354
:10497000E1008091D7048E7E81608093D70404C0CB
:104980005D9ACDCF289AD6CFFF91EF91CF91BF916D
:10499000AF919F918F917F916F915F914F913F91D7
:1049A0002F910F900FBE0F901F9018951092D90461
:1049B0001092D8041092D7040E941C218091E1002B
:1049C0008E7E8093E1008DE08093E200559A209ADC
:1049D000EEEFFFE7859194918B3F9C4D19F481E0B8
:1049E0008093D00408950895EF92FF920F931F9340
:1049F000CF93DF937B01FC01C281D38100E010E003
:104A0000209781F0E881F9810280F381E02DB701E0
:104A1000CE01099597FD08C0080F191F0884D98594
:104A2000C02DEECFC80102C08FEF9FEFDF91CF9175
:104A30001F910F91FF90EF9008950F931F93CF93C5
:104A4000DF938B01FC01C281D381209771F0E88153
:104A5000F9810480F581E02DB801CE010995009718
:104A600031F40884D985C02DF0CF80E090E0DF914B
:104A7000CF911F910F9108950F931F93CF93DF93C1
:104A80008B01FC01C281D381209771F0E881F9810B
:104A90000680F781E02DB801CE010995080F111DA0
:104AA0000884D985C02DF0CFF8011082DF91CF9115
:104AB0001F910F9108950F931F93CF93DF938B0155
:104AC000FC01C281D381209771F0E881F9810190C6
:104AD000F081E02DB801CE010995811106C008844E
:104AE000D985C02DF0CF80E001C081E0DF91CF916A
:104AF0001F910F9108958091E00481110DC082E013
:104B00008093DC0484E08093DD041092DF04109233
:104B1000DE0481E08093E0048CED94E00895505829
:104B2000BB27AA270ED027C2F0D130F0F5D120F054
:104B300031F49F3F11F41EF4C0C10EF4E095E7FB81
:104B4000B6C1E92F3AD280F3BA1762077307840718
:104B5000950718F071F49EF552C20EF4E0950B2EF5
:104B6000BA2FA02D0B01B90190010C01CA01A001BF
:104B70001124FF27591B99F0593F50F4503E68F11A
:104B80001A16F040A22F232F342F4427585FF3CF5B
:104B9000469537952795A795F0405395C9F77EF42C
:104BA0001F16BA0B620B730B840BBAF09150A1F075
:104BB000FF0FBB1F661F771F881FC2F70EC0BA0FFB
:104BC000621F731F841F48F4879577956795B79583
:104BD000F7959E3F08F0B3CF9395880F08F099277B
:104BE000EE0F97958795089590D158F080E891E061
:104BF00009F49EEF91D128F040E851E059F45EEFBE
:104C000009C05BC1FCC1E92FE078D7D168F3092E58
:104C1000052AC1F3261737074807590738F00E2E23
:104C200007F8E02569F0E025E0640AC0EF6307F8C3
:104C3000009407FADB01B9019D01DC01CA01AD0155
:104C4000EF934AD098D10AD05F91552331F02BEDE4
:104C50003FE049E450FD49EC63CF0895DF93DD2741
:104C6000B92FBF7740E85FE31616170648075B07C2
:104C700010F4D92FCFD19F938F937F936F933AD214
:104C8000EAECF0E01DD177D12F913F914F915F91E8
:104C9000D4D1DD2349F09058A2EA2AED3FE049EC57
:104CA0005FE3D0785D274DDFDF9165C1DCD008F48C
:104CB00081E0089539D1E3956FC10CD05CC12CD14E
:104CC00040F023D130F021F45F3F19F0F0C05111D2
:104CD00097C1F3C072D198F39923C9F35523B1F367
:104CE000951B550BBB27AA2762177307840738F05B
:104CF0009F5F5F4F220F331F441FAA1FA9F333D0BA
:104D00000E2E3AF0E0E830D091505040E695001C6D
:104D1000CAF729D0FE2F27D0660F771F881FBB1F29
:104D2000261737074807AB07B0E809F0BB0B802D03
:104D3000BF01FF2793585F4F2AF09E3F510568F04F
:104D4000B6C05EC15F3FECF3983EDCF38695779585
:104D50006795B795F7959F5FC9F7880F911D969551
:104D6000879597F90895E1E0660F771F881FBB1FAD
:104D7000621773078407BA0720F0621B730B840B5A
:104D8000BA0BEE1F88F7E095089504D06894B1112E
:104D900037C108951AD188F09F5790F0B92F9927FD
:104DA000B751A0F0D1F0660F771F881F991F1AF036
:104DB000BA95C9F712C0B13081F021D1B1E00895A0
:104DC0001EC1672F782F8827B85F39F0B93FCCF321
:104DD000869577956795B395D9F73EF4909580952C
:104DE000709561957F4F8F4F9F4F0895E89409C04C
:104DF00097FB3EF490958095709561957F4F8F4F0E
:104E00009F4F9923A9F0F92F96E9BB279395F69523
:104E1000879577956795B795F111F8CFFAF4BB0FA1
:104E200011F460FF1BC06F5F7F4F8F4F9F4F16C005
:104E3000882311F096E911C0772321F09EE8872F8F
:104E4000762F05C0662371F096E8862F70E060E04B
:104E50002AF09A95660F771F881FDAF7880F9695C4
:104E6000879597F90895990F0008550FAA0BE0E868
:104E7000FEEF16161706E807F907C0F0121613061C
:104E8000E407F50798F0621B730B840B950B39F45C
:104E90000A2661F0232B242B252B21F408950A26C2
:104EA00009F4A140A6958FEF811D811D089597F902
:104EB0009F6780E870E060E008959FEF80EC0895C0
:104EC000DF93CF931F930F93FF92EF92DF927B01BB
:104ED0008C01689405C0DA2EEF01AFD0FE01E89492
:104EE000A5912591359145915591AEF3EF0129DEBC
:104EF000FE019701A801DA9479F7DF90EF90FF9017
:104F00000F911F91CF91DF91089500240A941616F6
:104F1000170618060906089500240A9412161306A7
:104F2000140605060895C9CF50D0E8F3E894E0E0F0
:104F3000BB279F57F0F02AED3FE049EC06C0EE0F8B
:104F4000BB0F661F771F881F28F0B23A62077307EE
:104F5000840728F0B25A620B730B840BE3959A9581
:104F600072F7803830F49A95BB0F661F771F881F41
:104F7000D2F79048C8C0092E0394000C11F488237E
:104F800052F0BB0F40F4BF2B11F460FF04C06F5F01
:104F90007F4F8F4F9F4F0895EF93E0FF06C0A2EA27
:104FA0002AED3FE049EC5FEBCCDDE5DF0F900394A9
:104FB00001FC9058E7EFF0E0B2C057FD9058440F65
:104FC000551F59F05F3F71F04795880F97FB991F68
:104FD00061F09F3F79F08795089512161306140625
:104FE000551FF2CF4695F1DF08C0161617061806B2
:104FF000991FF1CF86957105610508940895E8948D
:10500000BB2766277727CB0197F908952CDF08F493
:105010008FEF08959B01AC0160E070E080E89FE3B2
:105020004CCE0BD0A8CF71DF28F076DF18F0952397
:1050300009F03DCF42CF1124E3CFBFDFA0F3959F0E
:10504000D1F3950F50E0551F629FF001729FBB276F
:10505000F00DB11D639FAA27F00DB11DAA1F649F1B
:105060006627B00DA11D661F829F2227B00DA11DCE
:10507000621F739FB00DA11D621F839FA00D611D54
:10508000221F749F3327A00D611D231F849F600D75
:10509000211D822F762F6A2F11249F5750408AF0AE
:1050A000E1F088234AF0EE0FFF1FBB1F661F771F3A
:1050B000881F91505040A9F79E3F510570F0F7CEE0
:1050C0009FCF5F3FECF3983EDCF38695779567952D
:1050D000B795F795E7959F5FC1F7FE2B880F911D58
:1050E0009695879597F908959F931EDF0F9007FC7B
:1050F000EE5F52CF9B01AC0194CFB5DE880B990BCC
:1051000008959F3F31F0915020F4879577956795EA
:10511000B795880F911D9695879597F908959F9358
:105120008F937F936F93FF93EF939B01AC0179DF94
:10513000EF91FF91C5DE2F913F914F915F9171CF1C
:10514000DB018F939F930E943A29BF91AF91A29F59
:10515000800D911DA39F900DB29F900D1124089575
:10516000991B79E004C0991F961708F0961B881FB9
:105170007A95C9F780950895AA1BBB1B51E107C01A
:10518000AA1FBB1FA617B70710F0A61BB70B881FD7
:10519000991F5A95A9F780959095BC01CD01089566
:1051A00097FB072E16F4009407D077FD09D00E94D4
:1051B000BC2807FC05D03EF4909581959F4F08953B
:1051C000709561957F4F0895A1E21A2EAA1BBB1B13
:1051D000FD010DC0AA1FBB1FEE1FFF1FA217B307C3
:1051E000E407F50720F0A21BB30BE40BF50B661FD9
:1051F000771F881F991F1A9469F76095709580959D
:1052000090959B01AC01BD01CF010895052E97FB40
:105210001EF400940E941D2957FD07D00E94E42827
:1052200007FC03D04EF40C941D2950954095309501
:1052300021953F4F4F4F5F4F089590958095709502
:1052400061957F4F8F4F9F4F0895EE0FFF1F059081
:10525000F491E02D0994A29FB001B39FC001A39FD8
:10526000700D811D1124911DB29F700D811D11249F
:10527000911D08950E942B29A59F900DB49F900D1C
:10528000A49F800D911D1124089581E090E0F89471
:085290000C944A29F894FFCFA9
:105298000000E80480000000C8420000C842000086
:1052A800B041000000000000000000000000000005
:1052B800B0C1DB0F49400000000000000000000002
:1052C80000000000000000000000000000000000D6
:1052D800000000000000000000000F00F4010400BE
:1052E800D0070401D31AD31AD31AD31AD31A01FF39
:1052F800FFFFFF00E100000000000000C180810006
:105308000000018001800180FF7FFF7FFF7F564DF5
:105318004450455F36007C005F564D4450450D0AA9
:105328000043616C6962726174696F6E20477972BB
:105338006F20526561643A0052756E20233A004727
:1053480079726F204F666673657400564D445045F8
:105358005F3100564D4450455F3300564D4450452B
:105368005F3700564D4450455F3500564D44504513
:105378005F3400564D4450455F3200564D445056F8
:105388005F317C315F564D4450560D0A00000000D5
:105398000039193E193C01690B00000000570C2A1E
:1053A8000CFF0B070C1A0C290C564D4450435F0098
:1053B8005F564D4450430D0A004572726F723A2091
:1053C800417474656D707420746F20736574206106
:1053D80020726561642D6F6E6C79207661726961E7
:1053E800626C65206F7220646174612074797065E5
:1053F800206E6F7420737570706F727465640D0A17
:10540800009C01B501CF01EA0107022602470269A3
:10541800028E02B502DE020A030000000039193EBE
:1054280019941D941D00000000961DDD1DC01DD09F
:105438001DAC1DBD1D6E616E00696E66006F7666DF
:04544800002E000032
:00000001FF
