:100000000C9412010C94B5160C94DC160C94031786
:100010000C942A170C943A010C943A010C94511741
:100020000C943A010C942B150C94CE1F0C94601E6A
:100030000C943A010C943A010C943A010C943A0154
:100040000C943A010C943A010C943A010C943A0144
:100050000C943A010C943A010C943A010C947817E0
:100060000C943A010C943A010C943A010C943A0124
:100070000C943A010C943A010C943A010C943A0114
:100080000C943A010C943A010C943A010C943A0104
:100090000C94D5090C943A010C943A010C943A0151
:1000A0000C943A010C94E9130C943A01CA18CD1837
:1000B000BC18C018C618EE18EE18EE18D118D518CE
:1000C000D918DF18E318EE18E918084AD73B3BCED9
:1000D000016E84BCBFFDC12F3D6C74319ABD568347
:1000E0003DDA3D00C77F11BED9E4BB4C3E916BAAFF
:1000F000AABE000000803F05A84CCDB2D44EB9384E
:1001000036A9020C50B9918688083CA6AAAA2ABE34
:10011000000000803F00070605040100080A0B0CE0
:100120000D090000000200090F0000030401000C8B
:1001300000000000000000000000000000000000BF
:1001400000040802011040804010204080408008D8
:100150000204018040201002011080102040402045
:10016000040404040403040502020202040302025C
:100170000202060606060606040402020204040041
:10018000000000250028002B002E003100080B0085
:10019000020202010009040000010202000005241D
:1001A00000100105240101010424020605240600B3
:1001B000010705810310004009040100020A000044
:1001C00000070502024000000705830240000012FC
:1001D000010002EF020140FB1F00230001010203A6
:1001E000011201000200000040FB1F00230001017A
:1001F000020301506F6C6F6C7520436F72706F72E9
:100200006174696F6E00506F6C6F6C7520412D5377
:100210007461722033325534000403090400B407BA
:10022000EB082D1A11241FBECFEFDAE0DEBFCDBFE1
:1002300012E0A0E0B1E0E6E6F9E402C005900D921C
:10024000AE32B107D9F724E0AEE2B2E001C01D92B0
:10025000A735B207E1F712E0C4E2D2E004C022976A
:10026000FE010E948E24CE31D107C9F70E944B1A9D
:100270000C94B1240C9400005B98539A0895FC01EF
:10028000A2EEB0E08C9180831C92A9EEB0E08C913C
:1002900081831C92A0EFB0E08C9182831C92089520
:1002A000FC01A9EEB0E01C9282818093F000818174
:1002B0008C9380818093E200089560FF02C02B9AA6
:1002C00001C02B98239A61FF02C0289A01C0289888
:1002D000209A62FF02C0479A01C047983F9A63FF85
:1002E00002C05D9A01C05D98559A5B9A539A85E069
:1002F0008A95F1F700005B98539A85E08A95F1F7AB
:10030000000008954F925F926F927F928F929F921A
:10031000AF92BF92CF92DF92EF92FF920F931F9313
:10032000CF93DF9300D000D0CDB7DEB769837A8357
:100330008B839C8329013A01C801B70124E13EE681
:1003400043E654E40E948C234B015C012DE03FEE18
:100350004AE850E469817A818B819C810E948C23D8
:10036000A50194010E94D8216B017C012DE03FEE94
:100370004AE850E4C301B2010E948C23A501940114
:100380000E94D8214B015C019B01AC01C701B60161
:100390000E940B2120E030E040E05FE30E948C23CC
:1003A00060936F0270937002809371029093720257
:1003B000C0927302D0927402E0927502F0927602BB
:1003C0008092770290927802A0927902B0927A029B
:1003D000A5019401C701B6010E940A212BE43AEC61
:1003E00048E95EE30E948C2360937B0270937C0259
:1003F00080937D0290937E020F900F900F900F904C
:10040000DF91CF911F910F91FF90EF90DF90CF90F0
:10041000BF90AF909F908F907F906F905F904F9024
:10042000089585EC92E00E944B0C6091C902709196
:10043000CA02882777FD8095982F0E947322209109
:100440004B0230914C0240914D0250914E020E945D
:100450000B2128E530EA4BE851E40E948C2321EA85
:100460003EE04AEE5DE30E948C2308954F925F9236
:100470006F927F928F929F92AF92BF92CF92DF92B4
:10048000EF92FF92CF93DF93C0E0D4E0C12CD12C48
:100490007601460157012601370187E992E00E9463
:1004A000700F61E070E080E090E00E94F1176091D1
:1004B000970270919802882777FD8095982F0E9467
:1004C00073229B01AC01C301B2010E940B212B01DD
:1004D0003C016091990270919A02882777FD80957E
:1004E000982F0E9473229B01AC01C501B4010E94A8
:1004F0000B214B015C0160919B0270919C0288274B
:1005000077FD8095982F0E9473229B01AC01C70153
:10051000B6010E940B216B017C01219709F0BDCF30
:1005200020E030E040E85AE3C301B2010E948C238E
:1005300060934702709348028093490290934A0265
:1005400020E030E040E85AE3C501B4010E948C236A
:100550006093430270934402809345029093460255
:1005600020E030E040E85AE3C701B6010E948C2346
:1005700060933F0270934002809341029093420245
:1005800089E993E00E942A0B6AE371E08091CA0333
:100590009091CB030E94741A62E471E08091CA03C7
:1005A0009091CB030E94741A4091470250914802E7
:1005B0006091490270914A0222E030E08091CA03C2
:1005C0009091CB030E941D1C62E471E08091CA03EC
:1005D0009091CB030E94741A4091430250914402BF
:1005E000609145027091460222E030E08091CA039A
:1005F0009091CB030E941D1C62E471E08091CA03BC
:100600009091CB030E94741A40913F025091400296
:10061000609141027091420222E030E08091CA0371
:100620009091CB030E941D1C64E471E08091CA0389
:100630009091CB030E94741A65E070E080E090E036
:10064000DF91CF91FF90EF90DF90CF90BF90AF9070
:100650009F908F907F906F905F904F900C94F117C8
:10066000CF92DF92EF92FF920F931F93CF93DF937E
:1006700087E992E00E94700F0BE312E0609197020D
:1006800070919802882777FD8095982F0E94732299
:1006900020914702309148024091490250914A020C
:1006A0000E940B2126EF38E24CE15FE30E948C238D
:1006B0000E944022F8017183608387E3C82E82E0A4
:1006C000D82E6091990270919A02882777FD8095C3
:1006D000982F0E947322209143023091440240914E
:1006E0004502509146020E940B2126EF38E24CE170
:1006F0005FE30E948C230E944022F6017183608395
:1007000093E3E92E92E0F92E60919B0270919C0296
:10071000882777FD8095982F0E94732220913F02B1
:100720003091400240914102509142020E940B21BF
:1007300026EF38E24CE15FE30E948C230E944022C6
:10074000F7017183608389E993E00E942A0BCAEC68
:10075000D3E06DE471E0888199810E94741A62E4AB
:1007600071E0888199810E94741AF701608171811A
:100770004AE050E0888199810E94161B62E471E092
:10078000888199810E94741AF801608171814AE020
:1007900050E0888199810E94161B62E471E0888193
:1007A00099810E94741AF601608171814AE050E0DB
:1007B000888199810E94161B64E471E08881998187
:1007C0000E94741A65E070E080E090E0DF91CF91C4
:1007D0001F910F91FF90EF90DF90CF900C94F11745
:1007E0008F929F92AF92BF92CF92DF92EF92FF9241
:1007F000CF93DF9300D000D0CDB7DEB76B017C0183
:100800000E94300360913B0270913C02882777FD83
:100810008095982F0E9473229B01AC016091370252
:1008200070913802882777FD8095982F29833A8325
:100830004B835C830E94732229813A814B815C81C6
:100840000E947E214B015C01C701B6010E9411028A
:10085000A70196010E948C23209187023091880283
:100860004091890250918A020E940B212AE939E9BC
:1008700049E95EE30E948C236B017C0123E333E3AF
:1008800043E35FE3C501B4010E948C239B01AC01EB
:10089000C701B6010E940B210F900F900F900F908F
:1008A000DF91CF91FF90EF90DF90CF90BF90AF900E
:1008B0009F908F9008958F929F92AF92BF92CF9208
:1008C000DF92EF92FF920F931F93CF93DF9300D0AD
:1008D00000D0CDB7DEB70E94C2170E94C217C090E9
:1008E0004F02D0905002E0905102F09052026C19E9
:1008F0007D098E099F09609353027093540280937F
:100900005502909356020E94C1154C010E94CE15CB
:100910005C01609153027091540280915502909154
:1009200056020E9471226B017C01B401882777FD79
:100930008095982F0E9473229B01AC01B5018827F6
:1009400077FD8095982F29833A834B835C830E949F
:1009500073228701760129813A814B815C810E9453
:1009600082016091530270915402809155029091DE
:1009700056020E9471220E941102609153027091EE
:10098000540280915502909156020E9471226B018F
:100990007C0120916F023091700240917102509160
:1009A00072020E948C239B01AC0160917F027091C6
:1009B000800280918102909182020E940B216093BB
:1009C0008B0270938C0280938D0290938E02109212
:1009D0008F02109290021092910210929202C7011F
:1009E000B6010E94F0036B017C0120E030E0A90118
:1009F0000E94D12187FF0DC08BED9FE0A9ECB0E4F0
:100A00008093930290939402A0939502B0939602E0
:100A10001BC02BED3FE049EC50E4C701B6010E943A
:100A2000812318164CF0C0929302D0929402E09267
:100A30009502F092960208C01092930210929402CE
:100A40001092950210929602609153027091540296
:100A500080915502909156020E94712220916F025E
:100A60003091700240917102509172020E948C2369
:100A70004B015C01C0909302D0909402E0909502EB
:100A8000F0909602C701B6010E94D5219B01AC01EE
:100A9000C501B4010E948C239B01AC0160915702F7
:100AA000709158028091590290915A020E940B2134
:100AB0006093630270936402809365029093660270
:100AC000C701B6010E94EF239B01AC01C501B4012F
:100AD0000E948C239B01AC0160915B0270915C02CF
:100AE00080915D0290915E020E940B2160936702EB
:100AF000709368028093690290936A0220E030E06C
:100B0000A901C701B6010E94D12187FF0DC08BED5D
:100B10009FE0A9ECB0E480936B0290936C02A093E9
:100B20006D02B0936E021BC02BED3FE049EC50E428
:100B3000C701B6010E94812318164CF0C0926B02C7
:100B4000D0926C02E0926D02F0926E0208C0109298
:100B50006B0210926C0210926D0210926E0289E983
:100B600093E00E942A0B65E571E08091CA039091A1
:100B7000CB030E94741A62E471E08091CA039091E1
:100B8000CB030E94741A40916302509164026091F9
:100B900065027091660222E030E08091CA03909174
:100BA000CB030E941D1C62E471E08091CA03909106
:100BB000CB030E94741A40916702509168026091C1
:100BC000690270916A0222E030E08091CA0390913C
:100BD000CB030E941D1C62E471E08091CA039091D6
:100BE000CB030E94741A40916B0250916C02609189
:100BF0006D0270916E0222E030E08091CA03909104
:100C0000CB030E941D1C64E471E08091CA039091A3
:100C1000CB030E94741A65E070E080E090E00E94CF
:100C2000F11764E170E080E090E00E94F1170E940B
:100C3000C21760934F0270935002809351029093B9
:100C40005202E3E6F2E047E552E02BE832E06FE7DC
:100C500072E0C190D190E190F190DA01CD92DD92F5
:100C6000ED92FD92AD01D901CD90DD90ED90FD901A
:100C70009D01DB01CD92DD92ED92FD92BD01B2E0CE
:100C8000EF36FB0731F70F900F900F900F90DF9129
:100C9000CF911F910F91FF90EF90DF90CF90BF9079
:100CA000AF909F908F900C94C21740ED57E060E09A
:100CB00070E089E993E00E94740B20E835E240E09F
:100CC00050E06FEE73E089E993E00E942D0B89E913
:100CD00093E00E942A0B6DE571E08091CA03909128
:100CE000CB030E94741A6AE070E080E090E00E94FA
:100CF000F11741E060E089E993E00E94E60B40E8EB
:100D000055E260E070E08FEE93E00E94181A8FEEDB
:100D100093E00E941E1A8823D1F389ED92E00E948D
:100D20005D0880912E02811105C081E080932E0222
:100D30000E94781542E050E063E070E085EC92E0BC
:100D40000E94F50C85EC92E00E94330C42E050E0EA
:100D500064E070E087E992E00E94AD0F87E992E0DD
:100D60000E94060E0E9436020E94C1150E94CE15F6
:100D700081E00E94101681E00C941316CF93C8E016
:100D800083E10E948118C150D9F70E94E2150E94A8
:100D9000DB1564E670E084E690E00E945A160E943B
:100DA0005B0489E993E00E942A0B6FE671E0809171
:100DB000CA039091CB030E94741A62E471E080919F
:100DC000CA039091CB030E94741A40912F02509154
:100DD0003002609131027091320222E030E0809165
:100DE000CA039091CB030E941D1C64E471E08091C2
:100DF000CA039091CB030E94741A65E070E080E012
:100E000090E0CF910C94F11720E05D992160559905
:100E10002260FC0120830895FC01208121FB0EF05B
:100E2000559820FB0EF05D980EF45D9A21FB0EF4B0
:100E3000559A089520E02899216020992260FC01AC
:100E400020830895FC01208121FB0EF0209820FBD7
:100E50000EF028980EF4289A21FB0EF4209A08959B
:100E6000FF920F931F93CF93DF93CDB7DEB72A97EF
:100E70000FB6F894DEBF0FBECDBF8C01F62ECE01AB
:100E800001962A8749870E943F0130E05A993160D4
:100E9000529932603E8330E02B9931602399326061
:100EA0003F83CE0105960E941A0730E047993160D2
:100EB0003F9932603887CE0104960E940407498525
:100EC0002A85442311F05A9A01C05A98529A211146
:100ED0000AC06F2D70E024E0759567952A95E1F7BB
:100EE000C8010E945D016F2D6F70C8010E945D01F5
:100EF000CE0104960E940C07288521FB0EF03F9836
:100F000020FB0EF047980EF4479A21FB0EF43F9A0F
:100F1000CE0105960E9422073F8131FB0EF02398F7
:100F200030FB0EF02B980EF42B9A31FB0EF4239A23
:100F30002E8121FB0EF0529820FB0EF05A980EF4F1
:100F40005A9A21FB0EF4529ACE0101960E9450014A
:100F50002A960FB6F894DEBF0FBECDBFDF91CF91BA
:100F60001F910F91FF90089582ED92E00E943A1434
:100F70008BE791E09093D3028093D20285EC92E0CC
:100F80000E94010C87E992E00C94890D809109037D
:100F900090E020910A03821B9109089520910A0391
:100FA00080910903281750F4E22FF0E0E55FFC4F31
:100FB000808190E02F5F20930A0308958FEF9FEFC9
:100FC0000895E0910A0380910903E81730F4F0E0F6
:100FD000E55FFC4F808190E008958FEF9FEF0895CB
:100FE0000895CF92DF92EF92FF920F931F93CF93CA
:100FF000DF937C01CB018A012091E502222389F055
:10100000EB016B01C40ED51ECC15DD0569F06991AD
:10101000D701ED91FC910190F081E02DC701099578
:10102000F3CF642F0E94AC09C801DF91CF911F91CB
:101030000F91FF90EF90DF90CF900895CF93DF93C3
:101040001F92CDB7DEB769832091E5022223D1F04C
:101050002091E602203240F021E030E0FC013383B1
:10106000228380E090E015C08091E702E82FF0E055
:10107000E851FD4F998190838F5F8093E7028093C1
:10108000E60205C061E0CE0101960E94AC0981E054
:1010900090E00F90DF91CF910895FC0113821282AE
:1010A00048EE53E060E070E04483558366837783C5
:1010B00087E891E091838083089510920A0310924B
:1010C00009031092E7021092E6020C94EF0881E007
:1010D0008093E502609308031092E7021092E60203
:1010E00008950F93062F21E04091E60268EE72E02A
:1010F000809108030E9455091092E7021092E602BF
:101100001092E5020F9108958F929F92AF92BF9235
:10111000CF92DF92EF92FF920F931F93CF93DF93C3
:10112000EC01F62ED42E48015901EE2019F10E944F
:1011300067081E2D143008F013E01150B8F0E88154
:10114000F98128E0129FB0011124A501940104C087
:1011500056954795379527956A95D2F7CA01B901F3
:101160000190F081E02DCE010995E7CF60E0CE013E
:101170000E9471084D2D413208F040E22C2D6BE0A9
:1011800073E08F2D0E940D0910920A0380930903CA
:10119000DF91CF911F910F91FF90EF90DF90CF9053
:1011A000BF90AF909F908F900895CF92EF920F9342
:1011B0001F93C22EE12C00E010E098010E948408E9
:1011C0001F910F91EF90CF90089521E00C94D508D6
:1011D00061E00C94710889ED92E00C944D08109236
:1011E000980381E0809396031092950361E082E07A
:1011F0000E94EF1861E083E00E94EF18E9EBF0E055
:1012000080818E7F808380818D7F808388E480933E
:10121000B80085E48093BC000895413208F043C0D3
:10122000909198039111FCCF91E0909398032093B3
:1012300096032FEF20932B0310927003240F20931B
:101240006F039093970390919703880F892B809356
:10125000970380919503813061F4109295038091FA
:1012600097038093BB008091BC0083FDF8CF85EC91
:1012700001C085EE8093BC00809198038130E1F33A
:1012800080917003841710F44091700321E733E0DC
:10129000FB01D9018A2F821B841718F48D91819349
:1012A000F9CF842F089580E008950F93413208F01C
:1012B0004AC0909198039111FCCF92E090939803CB
:1012C000009396039FEF90932B031092700340932B
:1012D0006F03FB0161E773E0DB019A2F961B941704
:1012E00018F491919D93F9CF1092970390919703E1
:1012F000880F892B8093970380919503813061F447
:1013000010929503809197038093BB008091BC005D
:1013100083FDF8CF85EC01C085EE8093BC002223CD
:1013200021F0809198038230E1F380912B038F3F6D
:1013300061F080912B03803251F080912B03803338
:1013400041F483E007C081E005C080E003C082E093
:1013500001C084E00F910895613298F420919803C0
:10136000243089F460934D03FC018FE493E0DC01A9
:101370002A2F281B261718F421912D93F9CF80E0EE
:10138000089581E0089582E0089585ED8093BC0082
:101390008091BC0084FDFCCF10929803089585ECE9
:1013A0008093BC001092980308951F920F920FB67D
:1013B0000F9211242F933F934F935F936F937F93DB
:1013C0008F939F93AF93BF93EF93FF938091B90057
:1013D000887F803609F49EC078F5883209F45DC0B4
:1013E00090F4803109F456C038F4882309F4F5C02C
:1013F000883009F44FC0F5C0883109F44EC08032FE
:1014000009F45FC0EEC0803409F46AC058F4803338
:1014100009F457C0883309F0E4C080932B030E947D
:10142000CF09DFC0803509F44FC0883509F45DC0AD
:10143000883409F0D6C0D3C0883909F4C4C0A8F4F0
:10144000883709F467C038F4883609F463C08037F8
:1014500009F460C0C6C0883809F4B5C0803909F401
:101460005FC0803809F0BDC05BC0803B09F483C019
:1014700038F4803A09F466C0883A09F47CC0B1C0F7
:10148000803C09F4A4C0883C09F4A1C0883B09F45D
:1014900087C0A7C08091970310C09091700380917E
:1014A0006F03981770F5E091700381E08E0F8093C1
:1014B0007003F0E0EF58FC4F80818093BB0085EC17
:1014C00083C080932B038BC0E091700381E08E0F6B
:1014D000809370038091BB00F0E0EF58FC4F808355
:1014E0009091700380916F036BC0E091700381E075
:1014F0008E0F809370038091BB00F0E0EF58FC4F9B
:1015000080838091960381116AC081E08093950366
:1015100084EA5EC083E08093980310922C03CFCFBF
:1015200080912C03803208F04EC0E0912C0381E0C2
:101530008E0F80932C038091BB00F0E0E35DFC4FA5
:101540008083BDCF0E94CF0980912C03803230F47C
:10155000E0912C03F0E0E35DFC4F108260912C03DE
:1015600070E0E0919103F09192038DE293E0099590
:1015700010922C0336C084E08093980310924E039F
:1015800010924D03E0919303F0919403099580919B
:101590004D03811105C081E080934D0310924F03EC
:1015A000E0914E0381E08E0F80934E03F0E0E15B0B
:1015B000FC4F80818093BB0090914E0380914D033E
:1015C000981708F47CCF85E88093BC000AC085ECAE
:1015D0008093BC001092980304C010922B030E94C9
:1015E000C509FF91EF91BF91AF919F918F917F912D
:1015F0006F915F914F913F912F910F900FBE0F9080
:101600001F9018950F931F93CF93DF93EC016623E0
:1016100059F00E94C21769837A838B839C83DF9180
:10162000CF911F910F9108950E94C21709811A81CD
:101630002B813C81601B710B820B930B643671050F
:101640008105910530F763E070E080E090E00E9452
:10165000F117EACF60E00C94020BCF92DF92EF9289
:10166000FF920F931F93CF93DF9300D000D0CDB79D
:10167000DEB78C017B01FC0172AB61AB8BE1C82E44
:10168000D12CC70129833A834B835C830E941E1AA5
:1016900029813A814B815C81811113C0F1E0CF1A1D
:1016A000D10879F064E670E080E090E029833A8325
:1016B0004B835C830E94F1175C814B813A812981C5
:1016C000E0CFBA01A901F80181A992A90F900F906A
:1016D0000F900F90DF91CF911F910F91FF90EF909E
:1016E000DF90CF900C94181AFC0113AA14AA15AA23
:1016F00016AA1182128213821482411551056105C6
:10170000710521F0CB01BA010C94F11708951F93D4
:10171000CF93DF93EC01162F63E971E089A99AA9B1
:101720000E94741A4AE050E0612F89A99AA90E9488
:101730002B1B6AE971E089A99AA90E94741A62E3D5
:1017400070E080E090E0DF91CF911F910C94F11751
:101750001F93CF93DF93EC01162F8D81882389F19E
:1017600089A99AA9DC01ED91FC910480F581E02D15
:101770000995892BA9F307C02637310519F12835BA
:10178000310509F41D8289A99AA9DC01ED91FC912A
:101790000480F581E02D09951816190694F489A99D
:1017A0009AA9DC01ED91FC910680F781E02D099565
:1017B0009C01332723363105F9F6612FCE010E94B3
:1017C000870B83E6DF91CF911F9108950F931F93AD
:1017D000CF93DF931F92CDB7DEB78C01662349F01C
:1017E00081E0F801858360E0C80149830E94A80B6D
:1017F0004981F80145830F90DF91CF911F910F919F
:101800000895FC0183E090E0908787831386128619
:1018100014860895EF92FF921F93CF93DF931F9248
:10182000CDB7DEB77C01162FFC01618589ED92E012
:1018300049830E946708612F89ED92E00E941E088B
:101840004981642F89ED92E00E941E0889ED92E0A3
:101850000E94E808F70186830F90DF91CF911F91D6
:10186000FF90EF900895CF93DF93EC018F819885DF
:10187000029729F440E069E3CE010E940A0C40E09F
:1018800063E2CE010E940A0C4FE660E2CE01DF91D6
:10189000CF910C940A0C9F92AF92BF92CF92DF929D
:1018A000EF92FF920F931F93CF93DF93EC01698523
:1018B00089ED92E00E946708E091D902F091DA0286
:1018C0000190F081E02D68EA89ED92E0099589EDBB
:1018D00092E00E94E80846E0698589ED92E00E9466
:1018E000E5080E94C2177B0189ED92E00E94C607BD
:1018F000069784F48A859B85892BB1F30E94C217D1
:101900006E197F098A859B858617970768F781E09E
:101910008C872CC089ED92E00E94CE07A82E89ED1D
:1019200092E00E94CE07982E89ED92E00E94CE07A9
:10193000E82E89ED92E00E94CE07B82E89ED92E064
:101940000E94CE07F82E89ED92E00E94CE07D92C96
:10195000C12CCA28D982C8821B2D00E00E291B8306
:101960000A83982F88278F299D838C83DF91CF91BD
:101970001F910F91FF90EF90DF90CF90BF90AF90AD
:101980009F9008951F93CF93DF931F92CDB7DEB73B
:10199000162F89ED92E049830E9467084981642FE0
:1019A00089ED92E00E941E0889ED92E00E94E8080D
:1019B000811114C041E0612F89ED92E00E94E50899
:1019C00089ED92E00E94C607892B41F089ED92E0F3
:1019D0000F90DF91CF911F910C94CE078FEF9FEF67
:1019E0000F90DF91CF911F910895EF92FF920F9387
:1019F0001F93CF93DF937C01EB018A016330710564
:101A000021F04230510509F051C0CE0101970397F2
:101A100058F50115110581F04FE050E06BE6C70164
:101A20000E94C20C8F3F2FEF920719F001E010E0E7
:101A300013C00130110551F04FE050E06AE6C701D4
:101A40000E94C20C8F3FEFEF9E0721F4C330D105F7
:101A500069F027C000E010E0C330D10529F4873DCC
:101A60009105F1F5C2E0D0E02097D9F401151105F8
:101A700061F04FE050E069E6C7010E94C20C833D6F
:101A8000910589F10130110549F04FE050E068E619
:101A9000C7010E94C20C833D910541F1C330D105BD
:101AA00019F00230110511F480E025C0F701D0874C
:101AB000C783209759F0D7FD11C023977CF40130DC
:101AC000110511F48BE608C08AE606C00130110545
:101AD00011F489E601C088E6F701818781E00BC037
:101AE000C1E0D0E0C1CF01E010E002C000E010E0B2
:101AF000C0E0D0E0D6CFDF91CF911F910F91FF9042
:101B0000EF900895DC01ED91FC910190F081E02DC2
:101B10000994CF93DF93EC0186E0EEE2F1E0DE0181
:101B2000529601900D928A95E1F786E0E4E3F1E0A8
:101B3000DE011C9601900D928A95E1F784E090E019
:101B40009A8F898F1CA61BA61DA6DF91CF910895A1
:101B5000EF92FF921F93CF93DF931F92CDB7DEB723
:101B60007C01162FFC01638D89ED92E049830E9470
:101B70006708612F89ED92E00E941E084981642F59
:101B800089ED92E00E941E0889ED92E00E94E8082B
:101B9000F701808F0F90DF91CF911F91FF90EF9011
:101BA0000895EF92FF921F93CF93DF931F92CDB7CB
:101BB000DEB77C01162FFC01648D89ED92E049832C
:101BC0000E946708612F89ED92E00E941E084981FA
:101BD000642F89ED92E00E941E0889ED92E00E9438
:101BE000E808F701808F0F90DF91CF911F91FF9050
:101BF000EF900895FC01218D328D2330310511F0D5
:101C0000603210F40C94D10D0C94A80DCF93DF9397
:101C1000EC01898D9A8D83309105D9F440E061E221
:101C2000CE010E94FA0D47E560E2CE010E94FA0D56
:101C300044E664E2CE010E94FA0D40E265E2CE0184
:101C40000E94FA0D40E066E2CE01DF91CF910C9444
:101C5000FA0D029739F448E063E2CE010E94A80D24
:101C600047E406C040E063E2CE010E94A80D47E2CF
:101C700060E2CE010E94A80D4CE060E0CE010E941F
:101C8000D10D40E261E0CE010E94D10D40E062E062
:101C9000CE01DF91CF910C94D10D9F92AF92BF9264
:101CA000CF92DF92EF92FF920F931F93CF93DF9328
:101CB000EC016B8D89ED92E00E94670868EA70E0A4
:101CC00089ED92E00E94820D89ED92E00E94E80881
:101CD000888F46E06B8D89ED92E00E94E5080E94B6
:101CE000C2176B0189ED92E00E94C607069784F443
:101CF0008BA59CA5892BB1F30E94C2176C197D0995
:101D00008BA59CA58617970768F781E08DA72CC047
:101D100089ED92E00E94CE07A82E89ED92E00E9404
:101D2000CE07982E89ED92E00E94CE07C82E89ED4D
:101D300092E00E94CE07B82E89ED92E00E94CE0775
:101D4000D82E89ED92E00E94CE07F92CE12CEA28EA
:101D5000F982E8821B2D00E00C291B830A83982F4F
:101D600088278D299D838C83DF91CF911F910F91BF
:101D7000FF90EF90DF90CF90BF90AF909F9008952D
:101D8000CF92DF92EF92FF920F931F93CF93DF9347
:101D9000EC016C8D89ED92E00E946708898D9A8D27
:101DA000039721F469A17AA1606802C06F8D78A1C0
:101DB00089ED92E00E94820D89ED92E00E94E80890
:101DC000888F46E06C8D89ED92E00E94E5080E94C4
:101DD000C2178B0189ED92E00E94C607069784F432
:101DE0008BA59CA5892BB1F30E94C217601B710BB8
:101DF0008BA59CA58617970768F781E08DA767C01C
:101E0000898D9A8D0397F9F489ED92E00E94CE07AF
:101E1000C82E89ED92E00E94CE07D82E89ED92E07F
:101E20000E94CE07E82E89ED92E00E94CE07182F7F
:101E300089ED92E00E94CE07F82E89ED92E00E9493
:101E4000CE07082F35C089ED92E00E94CE07D82E2C
:101E500089ED92E00E94CE07C82E298D3A8D89ED3A
:101E600092E0232B99F40E94CE07182F89ED92E07F
:101E70000E94CE07E82E89ED92E00E94CE07082F3F
:101E800089ED92E00E94CE07F82E12C00E94CE0784
:101E9000082F89ED92E00E94CE07F82E89ED92E09E
:101EA0000E94CE07182F89ED92E00E94CE07E82EFF
:101EB0006C2D70E07D297F836E834E2D50E0512B79
:101EC000598748872F2D30E0302B3B872A87DF91B9
:101ED000CF911F910F91FF90EF90DF90CF900895D9
:101EE000CF93DF93EC010E944D0ECE01DF91CF9195
:101EF0000C94C00E1F93CF93DF931F92CDB7DEB724
:101F0000162F89ED92E049830E9467084981642F6A
:101F100089ED92E00E941E0889ED92E00E94E80897
:101F2000811114C041E0612F89ED92E00E94E50823
:101F300089ED92E00E94C607892B41F089ED92E07D
:101F40000F90DF91CF911F910C94CE078FEF9FEFF1
:101F50000F90DF91CF911F910895EF92FF920F9311
:101F60001F93CF93DF93EC018B017A0164307105ED
:101F700021F04230510509F055C0C801039702977E
:101F800008F0CDC0E114F10471F04FE050E06DE1D4
:101F9000CE010E947A0F8934910509F4B8C081E01E
:101FA000E816F10451F04FE050E06EE1CE010E94DE
:101FB0007A0F8934910509F4AEC00430110509F097
:101FC000D0C0E114F10469F040E250E069E1CE01D3
:101FD0000E947A0F019679F421E0E216F10409F4E7
:101FE000A3C040E250E068E1CE010E947A0F019662
:101FF00009F0A4C099C00430110509F09BC04FE05E
:1020000050E06EE1CE010E947A0FEE24E394F12CB1
:10201000CC9709F0A9C002E010E082E0E816F104D4
:1020200009F486C01A8F098F0130110569F124F473
:10203000012B09F449C069C00230110541F1033098
:10204000110509F062C0EA94EF2811F48DE101C096
:102050008EE18C8F8B8F88E090E09AA389A389E032
:1020600090E098A38F8F8AE090E09EA38DA38BE0F1
:1020700090E09CA38BA38CE090E09AA789A78DE0C9
:1020800090E098A78FA341C0EA94EF2811F489E16A
:1020900001C088E18B8F8EE18C8F83E090E098A364
:1020A0008F8F84E090E09AA389A387E090E09CA3BF
:1020B0008BA388E090E09EA38DA385E090E098A795
:1020C0008FA386E090E01FC0EA94EF2811F489E125
:1020D00001C088E18B8F8EE18C8F83E090E098A324
:1020E0008F8F84E090E09AA389A385E090E09CA381
:1020F0008BA386E090E09EA38DA387E090E098A755
:102100008FA388E090E09AA789A781E030C0EE24F1
:10211000E394F12C02C0E12CF12C03E010E0033039
:10212000110508F44ECF79CF0430110509F075CFB1
:1021300080E01DC0EE24E394F12C6FCF0430110534
:1021400069F44FE050E06EE1CE010E947A0F31E079
:1021500020E0CC9709F030E0032F122FE12CF12C76
:102160005CCF03E010E059CF00E010E056CFDF91E4
:10217000CF911F910F91FF90EF9008959091D2030E
:10218000E091D603F091D703992311F0849101C017
:1021900080812FEB280F2A3110F4805E0895803261
:1021A00049F49F012F5F3F4F3093D7032093D6030D
:1021B000EF2B31F708951F93CF93DF930E94BE104A
:1021C000C0E0D0E01AE090ED980F9A30B8F49E018C
:1021D000129FE001139FD00D1124C80FD11D87FD60
:1021E000DA95E0978091D6039091D703019690936A
:1021F000D7038093D6030E94BE10E5CFCE01DF91B6
:10220000CF911F910895109272001092C00084E047
:102210008093C10089E08093C20081E08093C30075
:10222000EFEBF0E083E0808388EE8093D1001082B2
:102230001092D200579A789408952F923F924F921D
:102240005F926F927F928F929F92AF92BF92CF9246
:10225000DF92EF92FF920F931F93CF93DF93CDB74F
:10226000DEB727970FB6F894DEBF0FBECDBF7C0157
:102270001B014D838091D803811105C081E08093BB
:10228000D8030E94031110920F01F7FE04C0E894D6
:10229000F7F81AE001C011E088E2189F802D1124A0
:1022A000282F30E03F832E832E153F0510F4FF8248
:1022B000EE82113049F44E815F814131574220F066
:1022C000E0E1F7E2FF83EE83812E912CA12CB12C6B
:1022D0008E819F81969587959C0140E050E02983EF
:1022E0003A834B835C834E815F812A01612C712C80
:1022F000A501940160E072E18AE790E00E941B244E
:1023000029813A814B815C81620F731F841F951F65
:10231000A30192010E946D2469017A01EE24FF2439
:1023200000E00F5FC11434E0D306E104F10408F1CA
:1023300020E032E14AE750E0002E04C05595479571
:10234000379527950A94D2F7C501B4010E941B2442
:1023500029813A814B815C81620F731F841F951F15
:10236000A30192010E946D2469017A01EE24FF24E9
:10237000D8CF1A3049F48E819F8105966AE070E0CB
:102380000E9437247F836E834E815F81483E83E0C5
:10239000580759F09101DA010E94922428EE33E0A7
:1023A00040E050E00E946D2419011092720080916B
:1023B000C100807F802B8093C100BB27AF2D9E2D55
:1023C0008D2D8093BF00C092D1002D81203108F067
:1023D0002FE080E190E0821B910904C0F694E7941D
:1023E000D794C7948A95D2F78D2D99278093BF00F3
:1023F000C092D2003092D5032092D40389B38FEFDC
:1024000089BB84E08093720027960FB6F894DEBFF4
:102410000FBECDBFDF91CF911F910F91FF90EF9035
:10242000DF90CF90BF90AF909F908F907F906F90F4
:102430005F904F903F902F900895CF93DF93EB01E3
:102440008F3F11F0411105C040E0BE0188EE93E0DE
:1024500043C0813130F050EF580F503618F05FE52F
:1024600001C050E0852F6CE00E942B24682F74EF90
:10247000760390011124250F311D2C30310540F4D5
:10248000F901EE0FFF1FE551FE4F2081318102C09F
:1024900020E030E0873081F0082E02C0220F331F89
:1024A0000A94E2F7823028F0C90105966AE070E0EC
:1024B0000CC0C90190580CC0C90136E0880F991FA3
:1024C0003A95E1F7029665E070E00E943724CB016F
:1024D000403108F04FE0BE01DF91CF910C941D1107
:1024E0004F925F926F927F928F929F92AF92BF9224
:1024F000CF92DF92EF92FF920F931F93CF93DF93D0
:1025000000D0CDB7DEB790900E018091D103882323
:1025100021F06091D003611117C077247394B0EC5F
:10252000AB2EBDE5BB2E1AE0612E04E0802E80EDBF
:10253000C82E87E0D82E94E0E92EF12C04EF11E0AC
:102540002FE0422E512C15C070E040E088EE93E061
:102550000E941D111092D00329C18636D4F5813610
:1025600009F4A9C07CF58C3309F460C08E3381F482
:1025700093940E94BE102091D6033091D7032F5F11
:102580003F4F3093D7032093D603853631F752C09F
:10259000813209F08BC080920E01D0920D01C09261
:1025A0000C01F0920B01E0920A01109309010093D3
:1025B000080150920701409206011092D103A4E055
:1025C0009A2ED7CF8336A1F10CF478C010E082E0C8
:1025D00077C08D36C1F194F4873691F174F18C3661
:1025E00009F064C00E94DB10BC0190930B01809342
:1025F0000A0180910C0190910D0151C08237C9F1FF
:102600004CF48F3609F052C00E94DB10982E809354
:102610000E01AFCF843781F1863709F047C00E94A1
:10262000DB109093070180930601A3CF9A94A1CF6A
:1026300010E020C010E084E043C010E085E040C01E
:1026400010E087E03DC00E94BE108C3619F4109255
:10265000D10304C07092D1031092D0032091D6030D
:102660003091D7032F5F3F4F3093D7032093D6038A
:1026700080CF11E080E024C00E94DB10BC01C501C6
:102680000E943724669EC001679E900D112490938E
:102690000D0180930C0160910A0170910B010E9461
:1026A0003724709309016093080163CF1092D70318
:1026B0001092D6037BC010E089E002C010E08BE0EE
:1026C000082F9CE0999E000D11240E94BE10982FA7
:1026D000977F933261F42091D6033091D7032F5F17
:1026E0003F4F3093D7032093D6030F5FEECF8D3249
:1026F00071F42091D6033091D7032F5F3F4F309371
:10270000D7032093D60301500E94BE10F0CF6091F2
:102710000801709109018153883050F4E0900C0158
:10272000F0900D010E94DB10BC01C7010E9437240C
:102730007B01F694E79469837A830E94BE106981D5
:102740007A818E3269F42091D6033091D7032F5FBE
:102750003F4F3093D7032093D6036E0D7F1DE9CFF3
:102760008091D103882339F09B01369527952093DA
:10277000D003621B710940910601112311F08FEF04
:1027800001C0802F0F900F90DF91CF911F910F917B
:10279000FF90EF90DF90CF90BF90AF909F908F9081
:1027A0007F906F905F904F900C941D120F900F9040
:1027B000DF91CF911F910F91FF90EF90DF90CF901D
:1027C000BF90AF909F908F907F906F905F904F9051
:1027D00008951F920F920FB60F9211242F933F93DB
:1027E0004F935F936F937F938F939F93AF93BF9319
:1027F000EF93FF938091D4039091D5039C012150D6
:1028000031093093D5032093D403892B11F510920D
:10281000720078948091C100807F84608093C100B1
:1028200083E08093BF0088EE8093D1001092BF00B8
:102830001092D20081E080930F018091D603909195
:10284000D703892B31F08091D303811102C00E94FC
:102850007012FF91EF91BF91AF919F918F917F91F6
:102860006F915F914F913F912F910F900FBE0F90FD
:102870001F901895FC011382128287E092E09183E9
:102880008083148208951F93CF93DF93EC01162F5A
:1028900064600E94BD141E83DF91CF911F91089543
:1028A000CF93DF93EC01E881F9810480F581E02D7D
:1028B000099563E0CE010E94B9148FE991E4019774
:1028C000F1F700C0000063E0CE010E94B91487E573
:1028D00092E00197F1F700C0000063E0CE010E9492
:1028E000B91462E0CE010E94B91468E2CE010E94E0
:1028F000BD1460E0CE010E94CB14CE010E94C11431
:1029000062E0CE010E94431464E0CE01DF91CF91DA
:102910000C94CB140F931F93CF93DF9300D01F928F
:10292000CDB7DEB78C01DC0114968C911497811120
:102930000CC081E014968C93C8012B834A83698371
:102940000E94501469814A812B81D801ED91FC913C
:102950000680F781E02DC8010995B5ECBA95F1F72D
:1029600000000F900F900F90DF91CF911F910F916A
:10297000089521E040E00C948A1420E040E00C949B
:102980008A1461E00E94BD148FE39FE10197F1F783
:1029900000C0000008951F93CF93DF93EC01162F22
:1029A00068600E94BD141D83DF91CF911F9108952F
:1029B00020E041E00C948A140E94D81481E090E059
:1029C0000895CF92DF92EF92FF920F931F93CF93D0
:1029D000DF937C018A01EB016B01C40ED51ECC157F
:1029E000DD0529F06991C7010E94D814F8CFC8010C
:1029F000DF91CF911F910F91FF90EF90DF90CF90DB
:102A000008954FB141705CB156FB552750F95427DA
:102A10008091DF036091E0032091D9033091DA03C4
:102A2000852790E06427861B9109820F931F90935E
:102A3000DA038093D9039091E0038091DF03591763
:102A400029F0481719F081E08093DE035093E003EA
:102A50004093DF0308951F920F920FB60F92112437
:102A60002F933F934F935F936F938F939F932CB1CB
:102A700030E03595279535952795422F417083B1E4
:102A800090E054E0959587955A95E1F78227932732
:102A9000582F51708091E1036091E2032091DB0394
:102AA0003091DC03852790E06427861B9109820F13
:102AB000931F9093DC038093DB039091E20380915A
:102AC000E103591729F0481719F081E08093DE03DC
:102AD0005093E2034093E1039F918F916F915F9137
:102AE0004F913F912F910F900FBE0F901F9018950F
:102AF00024982C9A6A98729A6E98769A8098889AF6
:102B000081E08093680090E190936B008BBB41E083
:102B100050E061E075E184E00E9465168CB182FBB3
:102B2000882780F981708093E10393B18091E1035C
:102B30009295917089278093E2031092DC031092A2
:102B4000DB031092DE038FB181708093DF039CB1B1
:102B50008091DF0396FB992790F989278093E00302
:102B60001092DA031092D9031092DD030895809138
:102B70002E02811105C081E080932E020C947815FD
:102B800008950E94B715F8948091DB039091DC03BF
:102B90001092DC031092DB03789408950E94B7151D
:102BA000F8948091D9039091DA031092DA0310928D
:102BB000D903789408950E94B7158091DE0310928E
:102BC000DE0308950E94B7158091DD031092DD03A6
:102BD00008952E98269A2D98259A2A98229A29980F
:102BE000219A80EA8093800081E18093810080E9CE
:102BF00091E0909387008093860010928900109254
:102C0000880010928B0010928A0008958091E3034F
:102C1000811105C081E08093E3030C94E9150895C8
:102C20008093E50308958093E4030895CF93DF93A1
:102C3000EC010E940616D7FF05C0D195C195D109B8
:102C400081E001C080E0C13991E0D90714F0C0E90A
:102C5000D1E0D0938B00C0938A009091E50389174F
:102C600011F02A9A01C02A98229ADF91CF910895F3
:102C7000CF93DF93EC010E940616D7FF05C0D195D4
:102C8000C195D10981E001C080E0C13991E0D90747
:102C900014F0C0E9D1E0D0938900C09388009091EE
:102CA000E403891711F0299A01C02998219ADF912C
:102CB000CF910895CF93DF93EB010E941616CE01BA
:102CC000DF91CF910C9438160895853008F04CC0F0
:102CD000E82FF0E0EE0FFF1FE05FFE4F718360838F
:102CE0008230E1F018F4813069F004C0833019F1CA
:102CF000843071F1809169008C7F842B809369000E
:102D0000E89A089580916900440F551F440F551F9C
:102D1000837F842B80936900E99A089580916900EC
:102D200034E0440F551F3A95E1F78F7C842B809354
:102D30006900EA9A08958091690026E0440F551FC2
:102D40002A95E1F78F73842B80936900EB9A08959D
:102D500080916A0094E0440F551F9A95E1F78F7CAB
:102D6000842B80936A00EE9A08951F920F920FB6FB
:102D70000F9211242F933F934F935F936F937F9301
:102D80008F939F93AF93BF93EF93FF93E0911001C5
:102D9000F09111010995FF91EF91BF91AF919F9132
:102DA0008F917F916F915F914F913F912F910F90F4
:102DB0000FBE0F901F9018951F920F920FB60F9293
:102DC00011242F933F934F935F936F937F938F9330
:102DD0009F93AF93BF93EF93FF93E0911201F09114
:102DE00013010995FF91EF91BF91AF919F918F9141
:102DF0007F916F915F914F913F912F910F900FBEF7
:102E00000F901F9018951F920F920FB60F921124DA
:102E10002F933F934F935F936F937F938F939F93E2
:102E2000AF93BF93EF93FF93E0911401F0911501DD
:102E30000995FF91EF91BF91AF919F918F917F91F4
:102E40006F915F914F913F912F910F900FBE0F9017
:102E50001F9018951F920F920FB60F9211242F9367
:102E60003F934F935F936F937F938F939F93AF9312
:102E7000BF93EF93FF93E0911601F091170109952D
:102E8000FF91EF91BF91AF919F918F917F916F9142
:102E90005F914F913F912F910F900FBE0F901F9018
:102EA00018951F920F920FB60F9211242F933F93F4
:102EB0004F935F936F937F938F939F93AF93BF9342
:102EC000EF93FF93E0911801F09119010995FF919B
:102ED000EF91BF91AF919F918F917F916F915F9192
:102EE0004F913F912F910F900FBE0F901F9018950B
:102EF0001F920F920FB60F9211242F933F938F932F
:102F00009F93AF93BF938091E7039091E803A091C3
:102F1000E903B091EA033091E60323E0230F2D3754
:102F200020F40196A11DB11D05C026E8230F0296CD
:102F3000A11DB11D2093E6038093E7039093E8035E
:102F4000A093E903B093EA038091EB039091EC0323
:102F5000A091ED03B091EE030196A11DB11D8093E8
:102F6000EB039093EC03A093ED03B093EE03BF91BA
:102F7000AF919F918F913F912F910F900FBE0F9026
:102F80001F9018952FB7F8946091E7037091E803AC
:102F90008091E9039091EA032FBF08953FB7F89419
:102FA0008091EB039091EC03A091ED03B091EE03BF
:102FB00026B5A89B05C02F3F19F00196A11DB11D94
:102FC0003FBF6627782F892F9A2F620F711D811DB1
:102FD000911D42E0660F771F881F991F4A95D1F710
:102FE00008958F929F92AF92BF92CF92DF92EF920D
:102FF000FF926B017C010E94CE174B015C01C11452
:10300000D104E104F104F1F00E946E200E94CE1779
:10301000681979098A099B09683E73408105910501
:1030200070F321E0C21AD108E108F10888EE880E99
:1030300083E0981EA11CB11CC114D104E104F10469
:1030400029F7DDCFFF90EF90DF90CF90BF90AF904A
:103050009F908F900895789484B5826084BD84B5E4
:10306000816084BD85B5826085BD85B5816085BD83
:10307000EEE6F0E0808181608083E1E8F0E010829C
:10308000808182608083808181608083E0E8F0E0DD
:10309000808181608083E1E9F0E0808182608083CB
:1030A000808181608083E0E9F0E0808181608083BD
:1030B000E1ECF0E0808184608083808182608083A5
:1030C000808181608083E3ECF0E080818160808397
:1030D000E0ECF0E0808182608083E2ECF0E08081CF
:1030E00081608083EAE7F0E0808184608083808172
:1030F000826080838081816080838081806880831A
:103100000895823108F08251E82FF0E0EA5EFE4F28
:10311000E49180917B00E3FB222720F930E095E0E9
:10312000220F331F9A95E1F78F7D822B80937B00CE
:10313000E77080911A0120E4829FC0011124E82BDE
:10314000E0937C0080917A00806480937A00809183
:103150007A0086FDFCCF809178002091790090E084
:10316000922B089590E0FC013197EF30F105B0F516
:10317000EA5AFF4F0C948C24809180008F7703C013
:10318000809180008F7D80938000089580918000E1
:10319000877FF9CF84B58F7702C084B58F7D84BDDA
:1031A0000895809190008F7707C0809190008F7D67
:1031B00003C080919000877F809390000895809154
:1031C000C0008F7703C08091C0008F7D8093C000C6
:1031D00008958091C200877F8093C20008950F9365
:1031E0001F93CF93DF931F92CDB7DEB7282F30E028
:1031F000F901EE5DFE4F8491F901EF5BFE4F1491F2
:10320000F901E05AFE4F04910023C9F0882321F010
:1032100069830E94B2186981E02FF0E0EE0FFF1F72
:10322000E158FE4FA591B4919FB7F8948C9161112C
:1032300003C01095812301C0812B8C939FBF0F90F9
:10324000DF91CF911F910F9108950E94AC24CF93ED
:10325000DF931F92CDB7DEB76983DC01ED91FC915E
:103260000280F381E02D41E050E0BE016F5F7F4FAF
:1032700009950F90DF91CF910895CF93DF93EC01E3
:103280008C859D8597FF05C082E00E94301D9D873B
:103290008C878C859D85DF91CF91089583E00C9478
:1032A000C41FFC018485958597FD06C082E00E94BD
:1032B000D81C90E00196089582E00E94D81C90E00E
:1032C0000895FC018485958597FD05C02FEF3FEF9C
:1032D00035872487089582E00C94301DCF93DF93C7
:1032E000EC0180912601882331F083E00E94611D6A
:1032F0001816190634F081E090E09B838A8380E001
:1033000090E0DF91CF910895FC0120812E5F208312
:1033100042E450E06DE871E080E80C94FC1DFC0193
:1033200021818081813A59F4213209F04BC047E074
:1033300050E06FE171E080E00E94FC1D5EC08132D0
:1033400009F040C0233289F4838190E0982F8827C8
:103350003281832BA0E0B0E080931B0190931C018D
:10336000A0931D01B0931E010FC0203239F467E015
:1033700070E08FE191E00E942D1E09C0223221F4FD
:1033800082818093260103C02D7F2032B1F5809188
:103390003F04811103C0E0E0F8E002C0EEEFFAE084
:1033A00080911F0190912001A0912101B0912201F3
:1033B000803B9440A105B10511F58091260180FF65
:1033C00003C01DC080E00895EE3F2AE0F20731F00F
:1033D000808191819093FF0A8093FE0A87E797E7A7
:1033E000918380832BE088E190E00FB6F894A89554
:1033F000809360000FBE2093600081E0089588E113
:103400000FB6F89480936000109260000FBEA895EC
:10341000EE3F8AE0F80739F08091FE0A9091FF0AAA
:1034200091838083EACF1092FF0A1092FE0AE5CFC3
:103430002FEF3FEFFC01358724870895CF93C0918C
:1034400026016AE070E080E090E00E94F11781E0E0
:10345000C11101C080E0CF9108951092F203109243
:10346000F10388EE93E0A0E0B0E08093F303909343
:10347000F403A093F503B093F60383E192E09093F5
:10348000F0038093EF038FEF9FEF9093FC03809303
:10349000FB03089508950E942B180E944A1A80E4A5
:1034A00094E00E9451200E945506C0E0D0E00E94A6
:1034B000BE062097E1F30E940000F9CF6115710567
:1034C00081F0DB010D900020E9F7AD014150510979
:1034D000461B570BDC01ED91FC910280F381E02D3E
:1034E000099480E090E008950C945E1ADC01ED915F
:1034F000FC910190F081E02D09948F929F92AF9200
:10350000BF92DF92EF92FF920F931F93CF93DF93BF
:10351000CDB7DEB7A1970FB6F894DEBF0FBECDBF13
:103520007C01F42FD52ECB0119A2223008F42AE019
:103530008E010F5D1F4F822E912CA12CB12C6F2F6D
:103540007D2DA50194010E944B24F22FD32ECA0198
:10355000015011096A3014F4E0E301C0E7E3E60F1B
:10356000D801EC93232B242B252B49F7B801C70155
:103570000E945E1AA1960FB6F894DEBF0FBECDBFB3
:10358000DF91CF911F910F91FF90EF90DF90BF904F
:10359000AF909F908F900895CF92DF92EF92FF921D
:1035A0000F931F93CF93DF93EC016A017B012115E9
:1035B000310579F4E881F9810190F081E02D642FE3
:1035C000DF91CF911F910F91FF90EF90DF90CF90FF
:1035D00009942A303105E9F477FF1AC06DE20E94A0
:1035E000761A8C0144275527BA014C195D096E09DA
:1035F0007F092AE0CE010E947D1A800F911FDF9182
:10360000CF911F910F91FF90EF90DF90CF90089591
:103610002AE0B701A601CE01DF91CF911F910F9152
:10362000FF90EF90DF90CF900C947D1A9A01AB0140
:10363000662757FD6095762F0C94CC1A211531051D
:1036400041F4DC01ED91FC910190F081E02D642FBB
:1036500009940C947D1A9A01462F50E060E070E0C6
:103660000C941E1B4F925F926F927F928F929F924B
:10367000AF92BF92CF92DF92EF92FF920F931F9380
:10368000CF93DF93EC016A017B01B22E9A01AB016B
:10369000C701B6010E94F823882319F06FE172E098
:1036A00027C026013701E89477F82FEF3FEF4FE767
:1036B0005FE7C301B2010E94F82381110DC02FEF13
:1036C0003FEF4FE75FE7C301B2010E94D121181617
:1036D0001CF463E272E00CC02FEF3FEF4FE75FE4B2
:1036E000C701B6010E9481231816ACF467E272E0AC
:1036F000CE01DF91CF911F910F91FF90EF90DF905E
:10370000CF90BF90AF909F908F907F906F905F9081
:103710004F900C945E1A2FEF3FEF4FE75FECC7011D
:10372000B6010E94D12187FDE1CF20E030E0A90160
:10373000C701B6010E94D12187FF0AC06DE2CE0108
:103740000E94761A8C01F7FAF094F7F8F09402C010
:1037500000E010E0A12C60E070E080E09FE3AB149B
:1037600041F020E030E040E251E40E94D821A394EF
:10377000F6CF9B01AC01C701B6010E940B216B0182
:103780007C010E9445222B013C010E9471229B0179
:10379000AC01C701B6010E940A216B017C012AE03D
:1037A000B301A201CE010E947D1A080F191FBB2090
:1037B00039F06BE272E0CE010E945E1A080F191F09
:1037C0007B2C772041F120E030E040E251E4C7015A
:1037D000B6010E948C236B017C010E9440224B01A8
:1037E000AA2497FCA094BA2C2AE030E0B501A401E9
:1037F000CE010E94CC1A080F191FC501B4010E9406
:1038000073229B01AC01C701B6010E940A216B0122
:103810007C017A94D6CFC801DF91CF911F910F918F
:10382000FF90EF90DF90CF90BF90AF909F908F90E0
:103830007F906F905F904F9008950C94321B615071
:1038400030F02091F100FC0120830196F8CF2898F8
:1038500084E68093490408954091440450914504BE
:10386000209142043091430442175307B4F49091DD
:10387000E8009570E1F39091E80092FD19C0809303
:10388000F100809144049091450401968F7399272B
:10389000892B19F48EEF8093E80080914404909175
:1038A00045040196909345048093440481E0089573
:1038B00080E00895CF92DF92EF92FF920F931F93D3
:1038C000CF93DF931F92CDB7DEB7082F162FF42EBC
:1038D000862F880F8E5F99830E942C1C83E00E94A4
:1038E0002C1CE02EC02E9981D92E8C2D8E1981177B
:1038F00098F4F601F7FE02C0849101C080810E9415
:103900002C1C082F80E00E942C1C8023FFEFCF1A74
:10391000DF0A8111EACF01C081E00F90DF91CF91E2
:103920001F910F91FF90EF90DF90CF9008958091BD
:10393000D70081608093D70080EA8093D80089B552
:10394000806189BD89B5826089BD09B400FEFDCF63
:1039500061E070E080E090E00E94F1178091D80073
:103960008F7C80618093D8008091E000807F80937D
:10397000E0000895CF93DF931F92CDB7DEB7198291
:10398000CE0101960E9484190E94F620BE016F5F4D
:103990007F4F0E946F2089810F90DF91CF91089512
:1039A0002FB7FC012083F89467706093E9000895B5
:1039B000CF93DF931F92CDB7DEB7682FCE0101966C
:1039C0000E94D01C8091F20099819FBF0F90DF91DF
:1039D000CF910895FF920F931F93CF93DF9300D061
:1039E000CDB7DEB7F62E8A0190914804992311F0E5
:1039F00057FF03C08FEF9FEF2BC0682FCE010196BA
:103A00007A830E94D01C8091F20090E0A8017A8114
:103A1000801791070CF4AC01EF2DF72FF40E84E61C
:103A2000FE1639F02898809349049091F100919303
:103A3000F7CF4115510521F08091F200882321F044
:103A400089818FBFCA0104C08BE68093E800F8CF5C
:103A50000F900F90DF91CF911F910F91FF900895DC
:103A6000CF93DF931F92CDB7DEB741E050E0BE01A8
:103A70006F5F7F4F0E94EA1C019719F4898190E0E3
:103A800002C08FEF9FEF0F90DF91CF910895CF93FA
:103A9000DF931F92CDB7DEB7682FCE0101960E944B
:103AA000D01C9091E800892F807295FF04C09091FE
:103AB000F20080E4891B99819FBF0F90DF91CF9125
:103AC00008956F927F928F929F92AF92BF92CF9202
:103AD000DF92EF92FF920F931F93CF93DF931F928A
:103AE000CDB7DEB7782E7B01C42EB52E8091480469
:103AF000882369F0042F152F8AEFD82E872D807226
:103B0000982E9AE3A92E872D8074882E11C08FEFEE
:103B10009FEF57C0872D0E94471D682E81110CC052
:103B2000DA94A9F361E070E080E090E00E94F11780
:103B30000115110579F73BC0282F30E00217130754
:103B40000CF4602E672DCE0101960E94D01C80914E
:103B5000E80085FF29C0262D30E0021B130B9920B9
:103B600039F06A948FEF6816B1F01092F100F9CF36
:103B7000F701862D77FE07C0815058F094919093FD
:103B8000F1003196F9CF815020F091919093F1009E
:103B9000FACFE20EF31E8091E80085FF0FC00115F9
:103BA000110511F481100AC089818FBFC1CF5D98C2
:103BB00084E680934A048C2D9B2D03C0A092E800DC
:103BC000F3CF0F90DF91CF911F910F91FF90EF9066
:103BD000DF90CF90BF90AF909F908F907F906F902D
:103BE00008951092E90010924504109244049093B5
:103BF0004304809342040895CF92DF92FF920F9383
:103C00001F93CF93DF9300D0CDB7DEB7F82E8A0194
:103C10006B0101151105B1F0F601F7FE02C08491A8
:103C200001C0808149835A830E942C1C01501109D4
:103C3000FFEFCF1ADF0A49815A818111EACF8FEF56
:103C40009FEF01C0CA010F900F90DF91CF911F919C
:103C50000F91FF90DF90CF900895BF92CF92DF92A7
:103C6000EF92FF920F931F93CF93DF936C018B0121
:103C7000EB013BEFB32E2097C1F07E01C134D1059B
:103C80001CF020E4E22EF12C8091E80082FFFCCFB2
:103C9000C8018C1B9D0B6E2D8C0D9D1D0E941F1C41
:103CA000B092E800CE19DF09E6CFC801DF91CF91CD
:103CB0001F910F91FF90EF90DF90CF90BF900895EC
:103CC0001F920F920FB60F921124DF92EF92FF9284
:103CD0000F931F932F933F934F935F936F937F9314
:103CE0008F939F93AF93BF93EF93FF93CF93DF9304
:103CF000CDB7DEB76C97DEBFCDBF1092E9008091E3
:103D0000E80083FF23C168E0CE0145960E941F1C96
:103D100082EF8093E8003D8937FF05C08091E8007D
:103D200080FFFCCF03C08EEF8093E800832F807666
:103D300009F0F0C02E894F89D88C21110CC0303881
:103D400029F4809147048093F10002C01092F100A1
:103D50001092F100F4C0842F90E09D29213049F4A5
:103D60003111EDC0019709F0EAC0809147048D7FC1
:103D70000AC0233059F43111E2C0019709F0DFC0C5
:103D800080914704826080934704D9C0253041F474
:103D90008091E80080FFFCCF40684093E300CFC0F3
:103DA000263009F08DC0EB8CFC8C22E0D2122CC0A6
:103DB00080E090E00E94F11D0E94BA1C99E08E0103
:103DC0000F5F1F4FF801292F11922A95E9F7998368
:103DD000DA8291E09E8390EA98879AEF9987209102
:103DE000440430914504275F3F4F3C832B838D83F0
:103DF000C7010E94F11D49E050E0B80180E00E9437
:103E0000FC1D0E94BA1C9BC0C7010E94F11D0E94AC
:103E1000F620BE016B5E7F4F0E949820009719F03C
:103E20000CF08DC090C081E0D8120EC08B8D9C8D9F
:103E3000089719F481E08093410480914104811135
:103E40002FC061EE71E031C0E3E0DE127CC08F89EB
:103E5000882349F1823029F440E862E186E092E06B
:103E60001CC0813029F440E862E183EF91E015C085
:103E7000833009F068C00E94F6208E010F5F1F4F4B
:103E8000B8010E94B720F80101900020E9F73197AE
:103E9000E01BF10B40E06E2FC8010E945A1C4DC080
:103EA0006FEC71E002C069E172E06115710509F41F
:103EB0004AC0FB01449150E080E80E94FC1D3FC0D5
:103EC000273009F440C0283021F481E08093F100CC
:103ED00036C02930A1F53370B1F5E8E2F1E081E0B8
:103EE00021E036E39081992361F08093E9002093EB
:103EF000EB0091919093EC003093ED008F5F873051
:103F000089F78EE78093EA001092EA008F89809308
:103F1000480415C08B8D9C8D0E94F11D898D8111E7
:103F200005C0CE0145960E948F1907C00E94F62059
:103F3000BE016B5E7F4F0E94D620882321F08EEF5A
:103F40008093E80003C081E28093EB006C960FB68B
:103F5000F894DEBF0FBECDBFDF91CF91FF91EF91FF
:103F6000BF91AF919F918F917F916F915F914F9191
:103F70003F912F911F910F91FF90EF90DF900F9045
:103F80000FBE0F901F9018958093E9008091F2006A
:103F9000882319F08AE38093E80008951F920F9216
:103FA0000FB60F9211242F933F934F935F936F930C
:103FB0007F938F939F93AF93BF93CF93EF93FF9391
:103FC000C091E1008091E100837F8093E1008093C4
:103FD000E100C3FF0FC01092E90081E08093EB0085
:103FE0001092EC0082E38093ED001092480488E088
:103FF0008093F000C2FF19C083E00E94C41F80912B
:104000004A04882339F080914A04815080934A04FD
:10401000882389F180914904882339F080914904EB
:10402000815080934904882341F1C4FF10C08091DE
:10403000E2008E7E81608093E2008091E1008F7EBD
:104040008093E100809146048E7E806111C0C0FFA4
:1040500016C08091E2008E7E80618093E2008091A4
:10406000E1008E7E8093E100809146048E7E816027
:104070008093460404C05D9ACDCF289AD6CFFF9195
:10408000EF91CF91BF91AF919F918F917F916F9160
:104090005F914F913F912F910F900FBE0F901F9006
:1040A00018951092480410924704109246040E94FA
:1040B000971C8091E1008E7E8093E1008DE08093DB
:1040C000E200559A209AEEEFFFE7859194918B3F9D
:1040D0009C4D19F481E080933F0408950895EF9278
:1040E000FF920F931F93CF93DF937B01FC01C2815B
:1040F000D38100E010E0209781F0E881F98102800F
:10410000F381E02DB701CE01099597FD08C0080F96
:10411000191F0884D985C02DEECFC80102C08FEFCA
:104120009FEFDF91CF911F910F91FF90EF90089536
:104130000F931F93CF93DF938B01FC01C281D38137
:10414000209771F0E881F9810480F581E02DB801B4
:10415000CE010995009731F40884D985C02DF0CFA0
:1041600080E090E0DF91CF911F910F9108950F9320
:104170001F93CF93DF938B01FC01C281D3812097E2
:1041800071F0E881F9810680F781E02DB801CE0158
:104190000995080F111D0884D985C02DF0CFF801AD
:1041A0001082DF91CF911F910F9108950F931F936C
:1041B000CF93DF938B01FC01C281D381209771F0F3
:1041C000E881F9810190F081E02DB801CE010995D7
:1041D000811106C00884D985C02DF0CF80E001C0D0
:1041E00081E0DF91CF911F910F91089580914F044D
:1041F00081110DC082E080934B0484E080934C04D5
:1042000010924E0410924D0481E080934F048BE491
:1042100094E008955058BB27AA270ED027C2F0D1AA
:1042200030F0F5D120F031F49F3F11F41EF4C0C1FD
:104230000EF4E095E7FBB6C1E92F3AD280F3BA1746
:10424000620773078407950718F071F49EF552C250
:104250000EF4E0950B2EBA2FA02D0B01B9019001A1
:104260000C01CA01A0011124FF27591B99F0593FE5
:1042700050F4503E68F11A16F040A22F232F342F2D
:104280004427585FF3CF469537952795A795F0407B
:104290005395C9F77EF41F16BA0B620B730B840B90
:1042A000BAF09150A1F0FF0FBB1F661F771F881F48
:1042B000C2F70EC0BA0F621F731F841F48F48795A0
:1042C00077956795B795F7959E3F08F0B3CF93958F
:1042D000880F08F09927EE0F97958795089590D14C
:1042E00058F080E891E009F49EEF91D128F040E881
:1042F00051E059F45EEF09C05BC1FCC1E92FE078E1
:10430000D7D168F3092E052AC1F3261737074807C6
:10431000590738F00E2E07F8E02569F0E025E06433
:104320000AC0EF6307F8009407FADB01B9019D01A9
:10433000DC01CA01AD01EF934AD098D10AD05F9158
:10434000552331F02BED3FE049E450FD49EC63CFBC
:104350000895DF93DD27B92FBF7740E85FE3161696
:10436000170648075B0710F4D92FCFD19F938F937F
:104370007F936F933AD2EAECF0E01DD177D12F9181
:104380003F914F915F91D4D1DD2349F09058A2EA3B
:104390002AED3FE049EC5FE3D0785D274DDFDF9108
:1043A00065C1DCD008F481E0089539D1E3956FC18F
:1043B0000CD05CC12CD140F023D130F021F45F3F10
:1043C00019F0F0C0511197C1F3C072D198F399233D
:1043D000C9F35523B1F3951B550BBB27AA276217C9
:1043E0007307840738F09F5F5F4F220F331F441F0E
:1043F000AA1FA9F333D00E2E3AF0E0E830D0915046
:104400005040E695001CCAF729D0FE2F27D0660F32
:10441000771F881FBB1F261737074807AB07B0E871
:1044200009F0BB0B802DBF01FF2793585F4F2AF087
:104430009E3F510568F0B6C05EC15F3FECF3983E09
:10444000DCF3869577956795B795F7959F5FC9F7E4
:10445000880F911D9695879597F90895E1E0660F6D
:10446000771F881FBB1F621773078407BA0720F0E6
:10447000621B730B840BBA0BEE1F88F7E09508954F
:1044800004D06894B11137C108951AD188F09F57AC
:1044900090F0B92F9927B751A0F0D1F0660F771F90
:1044A000881F991F1AF0BA95C9F712C0B13081F070
:1044B00021D1B1E008951EC1672F782F8827B85FFA
:1044C00039F0B93FCCF3869577956795B395D9F7D1
:1044D0003EF490958095709561957F4F8F4F9F4FDB
:1044E0000895E89409C097FB3EF4909580957095E7
:1044F00061957F4F8F4F9F4F9923A9F0F92F96E930
:10450000BB279395F695879577956795B795F111A4
:10451000F8CFFAF4BB0F11F460FF1BC06F5F7F4F41
:104520008F4F9F4F16C0882311F096E911C0772353
:1045300021F09EE8872F762F05C0662371F096E85C
:10454000862F70E060E02AF09A95660F771F881F2B
:10455000DAF7880F9695879597F90895990F0008CF
:10456000550FAA0BE0E8FEEF16161706E807F90745
:10457000C0F012161306E407F50798F0621B730BE0
:10458000840B950B39F40A2661F0232B242B252B61
:1045900021F408950A2609F4A140A6958FEF811D04
:1045A000811D089597F99F6780E870E060E00895A5
:1045B0009FEF80EC0895DF93CF931F930F93FF92AB
:1045C000EF92DF927B018C01689405C0DA2EEF0137
:1045D000AFD0FE01E894A591259135914591559173
:1045E000AEF3EF0129DEFE019701A801DA9479F715
:1045F000DF90EF90FF900F911F91CF91DF91089581
:1046000000240A94161617061806090608950024B1
:104610000A9412161306140605060895C9CF50D041
:10462000E8F3E894E0E0BB279F57F0F02AED3FE085
:1046300049EC06C0EE0FBB0F661F771F881F28F0DE
:10464000B23A62077307840728F0B25A620B730B01
:10465000840BE3959A9572F7803830F49A95BB0FE6
:10466000661F771F881FD2F79048C8C0092E039491
:10467000000C11F4882352F0BB0F40F4BF2B11F44F
:1046800060FF04C06F5F7F4F8F4F9F4F0895EF9380
:10469000E0FF06C0A2EA2AED3FE049EC5FEBCCDD8B
:1046A000E5DF0F90039401FC9058E7EFF0E0B2C013
:1046B00057FD9058440F551F59F05F3F71F04795D3
:1046C000880F97FB991F61F09F3F79F087950895B8
:1046D000121613061406551FF2CF4695F1DF08C0D7
:1046E000161617061806991FF1CF869571056105F4
:1046F00008940895E894BB2766277727CB0197F99C
:1047000008952CDF08F48FEF08959B01AC0160E061
:1047100070E080E89FE34CCE0BD0A8CF71DF28F08B
:1047200076DF18F0952309F03DCF42CF1124E3CF77
:10473000BFDFA0F3959FD1F3950F50E0551F629F07
:10474000F001729FBB27F00DB11D639FAA27F00DEA
:10475000B11DAA1F649F6627B00DA11D661F829F11
:104760002227B00DA11D621F739FB00DA11D621FF6
:10477000839FA00D611D221F749F3327A00D611D13
:10478000231F849F600D211D822F762F6A2F1124F5
:104790009F5750408AF0E1F088234AF0EE0FFF1F48
:1047A000BB1F661F771F881F91505040A9F79E3F7F
:1047B000510570F0F7CE9FCF5F3FECF3983EDCF3EE
:1047C000869577956795B795F795E7959F5FC1F7BC
:1047D000FE2B880F911D9695879597F908959F93C5
:1047E0001EDF0F9007FCEE5F52CF9B01AC0194CF10
:1047F000B5DE880B990B08959F3F31F0915020F45E
:10480000879577956795B795880F911D96958795AC
:1048100097F908959F938F937F936F93FF93EF93EF
:104820009B01AC0179DFEF91FF91C5DE2F913F91A4
:104830004F915F9171CFDB018F939F930E94A124D1
:10484000BF91AF91A29F800D911DA39F900DB29F2C
:10485000900D11240895991B79E004C0991F9617B3
:1048600008F0961B881F7A95C9F780950895AA1BB2
:10487000BB1B51E107C0AA1FBB1FA617B70710F04B
:10488000A61BB70B881F991F5A95A9F7809590957D
:10489000BC01CD010895A1E21A2EAA1BBB1BFD018C
:1048A0000DC0AA1FBB1FEE1FFF1FA217B307E4070F
:1048B000F50720F0A21BB30BE40BF50B661F771F67
:1048C000881F991F1A9469F7609570958095909547
:1048D0009B01AC01BD01CF010895052E97FB1EF48D
:1048E00000940E94842457FD07D00E944B2407FCAB
:1048F00003D04EF40C948424509540953095219526
:104900003F4F4F4F5F4F08959095809570956195FB
:104910007F4F8F4F9F4F0895EE0FFF1F0590F4912B
:10492000E02D0994A29FB001B39FC001A39F700D19
:10493000811D1124911DB29F700D811D1124911DA7
:1049400008950E949224A59F900DB49F900DA49F5E
:10495000800D911D1124089581E090E0F8940C944D
:06496000B124F894FFCF22
:104966000000570480000F00F4010400D007040182
:104976006416641664166416641601FFFFFFFF00D2
:10498600E100000000000000C180810000000180FD
:1049960001800180FF7FFF7FFF7F564D4450455FBA
:1049A60035007C005F564D4450450D0A00564D4477
:1049B60050455F3100564D4450455F3300564D44D7
:1049C60050565F317C315F564D4450560D0A0056A5
:1049D6004D4450455F320000000000DC14E1143CF9
:1049E600013007000000001E08F107C607CE07E1E8
:1049F60007F007564D4450435F005F564D44504301
:104A06000D0A004572726F723A20417474656D70BA
:104A16007420746F20736574206120726561642D43
:104A26006F6E6C79207661726961626C65206F7257
:104A360020646174612074797065206E6F742073D0
:104A46007570706F727465640D0A009C01B501CFB4
:104A560001EA0107022602470269028E02B502DE5A
:104A6600020A0300000000DC14E1142519251900D0
:104A760000000027196E19511961193D194E196E5A
:0E4A8600616E00696E66006F7666002E00009D
:00000001FF
