:100000000C9412010C949B180C94C2180C94E918CF
:100010000C9410190C943A010C943A010C94371971
:100020000C943A010C94FF160C94CA210C945C2099
:100030000C943A010C943A010C943A010C943A0154
:100040000C943A010C943A010C943A010C943A0144
:100050000C943A010C943A010C943A010C945E19F8
:100060000C943A010C943A010C943A010C943A0124
:100070000C943A010C943A010C943A010C943A0114
:100080000C943A010C943A010C943A010C943A0104
:100090000C94B90C0C943A010C943A010C943A016A
:1000A0000C943A010C9499150C943A01B01AB31AB5
:1000B000A21AA61AAC1AD41AD41AD41AB71ABB1A8E
:1000C000BF1AC51AC91AD41ACF1A084AD73B3BCE51
:1000D000016E84BCBFFDC12F3D6C74319ABD568347
:1000E0003DDA3D00C77F11BED9E4BB4C3E916BAAFF
:1000F000AABE000000803F05A84CCDB2D44EB9384E
:1001000036A9020C50B9918688083CA6AAAA2ABE34
:10011000000000803F00070605040100080A0B0CE0
:100120000D090000000200090F0000030401000C8B
:1001300000000000000000000000000000000000BF
:1001400000040802011040804010204080408008D8
:100150000204018040201002011080102040402045
:10016000040404040403040502020202040302025C
:100170000202060606060606040402020204040041
:10018000000000250028002B002E003100080B0085
:10019000020202010009040000010202000005241D
:1001A00000100105240101010424020605240600B3
:1001B000010705810310004009040100020A000044
:1001C00000070502024000000705830240000012FC
:1001D000010002EF020140FB1F00230001010203A6
:1001E000011201000200000040FB1F00230001017A
:1001F000020301506F6C6F6C7520436F72706F72E9
:100200006174696F6E00506F6C6F6C7520412D5377
:100210007461722033325534000403090400980AD3
:10022000CF0B131C11241FBECFEFDAE0DEBFCDBF12
:1002300012E0A0E0B1E0EEE5FDE402C005900D9211
:10024000A43BB107D9F724E0A4EBB2E001C01D92B2
:10025000AF3CB207E1F712E0C4E2D2E004C022975B
:10026000FE010E948A26CE31D107C9F70E94311CB7
:100270000C94AD260C9400005B98539A0895FC01F1
:10028000A2EEB0E08C9180831C92A9EEB0E08C913C
:1002900081831C92A0EFB0E08C9182831C92089520
:1002A000FC01A9EEB0E01C9282818093F000818174
:1002B0008C9380818093E200089560FF02C02B9AA6
:1002C00001C02B98239A61FF02C0289A01C0289888
:1002D000209A62FF02C0479A01C047983F9A63FF85
:1002E00002C05D9A01C05D98559A5B9A539A85E069
:1002F0008A95F1F700005B98539A85E08A95F1F7AB
:10030000000008954F925F926F927F928F929F921A
:10031000AF92BF92CF92DF92EF92FF920F931F9313
:10032000CF93DF93CDB7DEB728970FB6F894DEBF33
:100330000FBECDBF4B015C0129013A01C801B701D5
:1003400024E13EE643E654E40E9488256B017C01EB
:100350002DE03FEE4AE850E4C501B4010E94882533
:10036000A70196010E94D42369837A838B839C839F
:100370002DE03FEE4AE850E4C301B2010E94882517
:10038000A70196010E94D4236D837E838F83988773
:10039000A3019201C501B4010E94072320E030E0CF
:1003A00040E05FE30E9488252DE03FEE4AE850E4FC
:1003B0000E948825A70196010E94D4236093E3023E
:1003C0007093E4028093E5029093E60289819A811A
:1003D000AB81BC818093E7029093E802A093E9028D
:1003E000B093EA028D819E81AF81B8858093EB0244
:1003F0009093EC02A093ED02B093EE029C01AD014C
:1004000069817A818B819C810E9406232BE43AECDE
:1004100048E95EE30E9488256093EF027093F00242
:100420008093F1029093F20228960FB6F894DEBF03
:100430000FBECDBFDF91CF911F910F91FF90EF9035
:10044000DF90CF90BF90AF909F908F907F906F90F4
:100450005F904F9008958F929F92AF92BF92CF92EC
:10046000DF92EF92FF92CF93DF934B015C01C0E0EC
:10047000D0E0C12CD12C7601CF30D105C1F08DE375
:1004800093E00E942F0F60914103709142038827EF
:1004900077FD8095982F0E946F249B01AC01C701C6
:1004A000B6010E9407236B017C012196E5CF20E075
:1004B00030E040E751E4C701B6010E94D42320E0B8
:1004C00030E04CE051E40E94D42329EA38E642E9C6
:1004D00057E30E9488256B017C0181E194E00E9432
:1004E0000E0E6EE771E080914204909143040E94E9
:1004F0005A1C66E871E080914204909143040E9486
:100500005A1C22E030E0B701A6018091420490918C
:1005100043040E94191E68E871E0809142049091A2
:1005200043040E945A1C65E070E080E090E00E9465
:10053000D719A5019401C701B6010E948825DF9152
:10054000CF91FF90EF90DF90CF90BF90AF909F90B2
:100550008F9008958F929F92AF92BF92CF92DF9229
:10056000EF92FF92CF93DF936B017C0149015A0117
:1005700081E194E00E940E0EC2E4D4E061E971E0F2
:10058000888199810E945A1C66E871E0888199816E
:100590000E945A1C22E030E0B701A60188819981AF
:1005A0000E94191E68E871E0888199810E945A1C96
:1005B00065E070E080E090E00E94D719C701B601C5
:1005C0000E942B026B017C0181E194E00E940E0EDF
:1005D00069E971E0888199810E945A1C66E871E09E
:1005E000888199810E945A1C22E030E0B701A6015F
:1005F000888199810E94191E68E871E0888199813B
:100600000E945A1C65E070E080E090E00E94D719DB
:100610002091FB023091FC024091FD025091FE02BC
:10062000C701B6010E94072328E431EE4AE75FE3E1
:100630000E9488256B017C0120E037ED43EA5CE3F2
:10064000C501B4010E9488259B01AC01C701B60118
:100650000E940723DF91CF91FF90EF90DF90CF9022
:10066000BF90AF909F908F9008952F923F924F929E
:100670005F926F927F928F929F92AF92BF92CF9232
:10068000DF92EF92FF920F931F93CF93DF930E941D
:10069000A8190E94A819C090C102D090C202E0908F
:1006A000C302F090C4026C197D098E099F09609302
:1006B000C5027093C6028093C7029093C8020E943D
:1006C00095171C010E949E17EC01B101882777FD48
:1006D0008095982F0E946F246B017C0160910B0321
:1006E00070910C03882777FD8095982F0E946F24C6
:1006F0009B01AC01C701B6010E9406232B013C01FE
:100700006093B9027093BA028093BB029093BC02CB
:10071000BE01882777FD8095982F0E946F246B017A
:100720007C0160910D0370910E03882777FD809501
:10073000982F0E946F249B01AC01C701B6010E9453
:1007400006234B015C016093B5027093B60280935F
:10075000B7029093B8026091C5027091C602809171
:10076000C7029091C8020E946D247B018C01A301F5
:100770009201C501B4010E9482012DE03FEE4AE8DA
:1007800050E46091B5027091B6028091B7029091E9
:10079000B8020E94882524E13EE643E654E40E9424
:1007A000D4234B015C012DE03FEE4AE850E4609118
:1007B000B9027091BA028091BB029091BC020E9472
:1007C000882524E13EE643E654E40E94D4232B012D
:1007D0003C019B01AC01C501B4010E94072320E04C
:1007E00030E040E05FE30E9488256B017C01A301BB
:1007F0009201C501B4010E9406232BE43AEC48E9BA
:100800005EE30E9488254B015C0181E194E00E9437
:100810000E0E61EA71E080914204909143040E94BF
:100820005A1C66E871E080914204909143040E9452
:100830005A1C22E030E0B501A4018091420490915D
:1008400043040E94191E68E871E08091420490916F
:1008500043040E945A1C65E070E080E090E00E9432
:10086000D7196091C5027091C6028091C70290911C
:10087000C8020E946D24A50194010E94AA024B01A6
:100880005C01D0930E03C0930D0330920C032092B1
:100890000B03A70196016091F3027091F40280911D
:1008A000F5029091F6020E9407236093FF02709375
:1008B00000038093010390930203109203031092AC
:1008C0000403109205031092060320E030E0A90112
:1008D000C501B4010E94CD2387FF0DC08BED9FE0C1
:1008E000A9ECB0E48093070390930803A093090355
:1008F000B0930A031BC02BED3FE049EC50E4C50167
:10090000B4010E947D2518164CF080920703909246
:100910000803A0920903B0920A0308C010920703CB
:10092000109208031092090310920A0380900703A3
:1009300090900803A0900903B0900A03C501B40188
:100940000E94D1239B01AC01C701B6010E948825FA
:100950009B01AC016091CB027091CC028091CD02E1
:100960009091CE020E9407236093D7027093D80221
:100970008093D9029093DA02C501B4010E94EB255D
:100980009B01AC01C701B6010E9488259B01AC0107
:100990006091CF027091D0028091D1029091D202E9
:1009A0000E9407236093DB027093DC028093DD02D8
:1009B0009093DE028092DF029092E002A092E10228
:1009C000B092E20281E194E00E940E0E69EA71E0C9
:1009D00080914204909143040E945A1C66E871E0A1
:1009E00080914204909143040E945A1C4091D70286
:1009F0005091D8026091D9027091DA0222E030E081
:100A000080914204909143040E94191E66E871E0AF
:100A100080914204909143040E945A1C4091DB0251
:100A20005091DC026091DD027091DE0222E030E044
:100A300080914204909143040E94191E66E871E07F
:100A400080914204909143040E945A1C4091DF021D
:100A50005091E0026091E1027091E20222E030E008
:100A600080914204909143040E94191E68E871E04D
:100A700080914204909143040E945A1C65E070E00A
:100A800080E090E00E94D7190E94A8196093C102EB
:100A90007093C2028093C3029093C402E7EDF2E028
:100AA0004BEC52E02FEF32E063EF72E081919191D5
:100AB000A191B191EA0189939993A993B993AE0158
:100AC000E90189919991A991B9919E01EB018993CD
:100AD0009993A993B993BE01D2E0E33EFD0731F7A4
:100AE000DF91CF911F910F91FF90EF90DF90CF900A
:100AF000BF90AF909F908F907F906F905F904F903E
:100B00003F902F900C94A819CF92DF92EF92FF9212
:100B1000CF93DF9360E070E080E090E00E944018A7
:100B2000CAEFD0E0C12CD12C76018DE393E00E9476
:100B30002F0F6AE070E080E090E00E94D71960918A
:100B4000410370914203882777FD8095982F0E947A
:100B50006F249B01AC01C701B6010E9407236B0102
:100B60007C0161EB71E087E694E00E94671C22E063
:100B700030E0B701A60187E694E00E94191E68ECF8
:100B800071E087E694E00E94671C4AE050E06AEF5B
:100B900070E087E694E00E94121D68E272E087E64A
:100BA00094E00E94671C219709F0BFCF20E030E05D
:100BB0004AE753E4C701B6010E94D4236093BD0203
:100BC0007093BE028093BF029093C0026FEC71E0FD
:100BD00087E694E00E94671C4091BD025091BE02DE
:100BE0006091BF027091C00222E030E087E694E09D
:100BF000DF91CF91FF90EF90DF90CF900C94191E72
:100C00004F925F926F927F928F929F92AF92BF921C
:100C1000CF92DF92EF92FF92CF93DF932CE0289F49
:100C2000E001299FD00D1124C25FDE4F2091D70231
:100C30003091D8024091D9025091DA0268817981CD
:100C40008A819B810E9406232B013C012091DB02BB
:100C50003091DC024091DD025091DE026C817D8199
:100C60008E819F810E9406234B015C0120E030E0D1
:100C7000A901C301B2010E94CD2381111AC020E055
:100C800030E0A901C501B4010E94CD23811124C027
:100C9000288539854A855B85609107037091080333
:100CA0008091090390910A030E9407236B017C0144
:100CB00013C0A3019201C501B4010E947A236B0104
:100CC0007C0120E030E0A9010E94CD2387FF04C011
:100CD000F7FAF094F7F8F09481E194E00E940E0E98
:100CE0006BED71E080914204909143040E945A1C84
:100CF00066E871E080914204909143040E945A1C7E
:100D000022E030E0B701A6018091420490914304B3
:100D10000E94191E68E871E080914204909143049A
:100D20000E945A1C65E070E080E090E00E94D719B4
:100D30008091C9029091CA02009709F076C0209173
:100D4000B9023091BA024091BB025091BC0260914D
:100D5000B5027091B6028091B7029091B8020E94DC
:100D600006236B017C0120E030E0A9010E947D2573
:100D700018162CF520E030E040EA50E460910A01BA
:100D800070910B0180910C0190910D010E9407233D
:100D900060930A0170930B0180930C0190930D01F5
:100DA00020E030E040EA50E46091060170910701D4
:100DB00080910801909109010E9406232DC020E036
:100DC00030E0A901C701B6010E94CD2387FF24C1ED
:100DD00020E030E040EA50E460910A0170910B019C
:100DE00080910C0190910D010E94062360930A01ED
:100DF00070930B0180930C0190930D0120E030E083
:100E000040EA50E460910601709107018091080169
:100E1000909109010E9407236093060170930701D6
:100E20008093080190930901F7C0019709F0F4C07D
:100E3000C090B902D090BA02E090BB02F090BC0220
:100E40008090B5029090B602A090B702B090B80220
:100E5000A7019601C501B4010E94072329EC36E7DA
:100E600046ED5FE30E9488252B013C01A50194011A
:100E7000C701B6010E9406239B01AC015F77C30145
:100E8000B2010E94D4236B017C0120E030E040E3FA
:100E900051E40E947D2518162CF520E030E040EA50
:100EA00050E460910A0170910B0180910C019091C6
:100EB0000D010E94072360930A0170930B01809338
:100EC0000C0190930D0120E030E040EA50E4609185
:100ED00006017091070180910801909109010E941B
:100EE00006232EC020E030E040E351E4C701B60104
:100EF0000E94CD2387FF2CC020E030E040EA50E480
:100F000060910A0170910B0180910C0190910D018B
:100F10000E94062360930A0170930B0180930C01D9
:100F200090930D0120E030E040EA50E4609106012A
:100F30007091070180910801909109010E94072397
:100F40006093060170930701809308019093090153
:100F5000E0900A01F0900B01D0910C01C0910D01BD
:100F600020E030E046E952E4B7018D2F9C2F0E942B
:100F7000CD2387FD10C020E030E041E653E4B70107
:100F80008D2F9C2F0E947D2518164CF4E12CF12CFE
:100F9000D1E6C3E404C0E12CF12CD6E9C2E4C701D8
:100FA000AD2FBC2F80930A0190930B01A0930C01ED
:100FB000B0930D01E0900601F0900701D091080177
:100FC000C091090120E030E046E952E4B7018D2FDD
:100FD0009C2F0E94CD2387FD10C020E030E041E629
:100FE00053E4B7018D2F9C2F0E947D2518164CF4D9
:100FF000E12CF12CD1E6C3E404C0E12CF12CD6E9BC
:10100000C2E4C701AD2FBC2F809306019093070166
:10101000A0930801B0930901DF91CF91FF90EF9069
:10102000DF90CF90BF90AF909F908F907F906F9008
:101030005F904F9008958F929F92AF92BF92CF9200
:10104000DF92EF92FF920F931F93CF93DF93EC0108
:1010500080E090E0A8ECB2E480930A0190930B0149
:10106000A0930C01B0930D018093060190930701AA
:10107000A0930801B09309018091C9029091CA021E
:10108000009709F068C08CE08C9F80018D9F100D47
:101090001124025F1E4FC090D702D090D802E0907A
:1010A000D902F090DA02F80180809180A280B380AA
:1010B00020E030E040E05FE3C501B4010E94062378
:1010C0009B01AC01C701B6010E94CD2318160CF19B
:1010D00060910601709107018091080190910901CA
:1010E0000E943C246B017C0160910A0170910B010C
:1010F00080910C0190910D010E943C24DC01CB01F8
:10110000B6010E9440180E943503CE010E940006DD
:10111000C2CF20E030E040E05FE3C501B4010E94AF
:1011200007239B01AC01C701B6010E947D2587FF03
:10113000CFCF60E070E080E090E0DF91CF911F9131
:101140000F91FF90EF90DF90CF90BF90AF909F9066
:101150008F900C944018019709F08AC089E098EEAE
:10116000ABE4B3E480930A0190930B01A0930C01CC
:10117000B0930D0164E670E08BEC90E00E944018A3
:101180006AEF70E080E090E00E94D7198CE08C9FBD
:1011900080018D9F100D11240A5E1E4FC090DF024A
:1011A000D090E002E090E102F090E202F80180804D
:1011B0009180A280B3802DEC3CEC4CEC5DE3C5014A
:1011C000B4010E9407239B01AC01C701B6010E9434
:1011D0007D2587FD3BC060910601709107018091DC
:1011E0000801909109010E943C246B017C016091EF
:1011F0000A0170910B0180910C0190910D010E94E8
:101200003C24DC01CB01B6010E9440180E9435034A
:1012100040E060E08AE493E00E947B164091DF02A8
:101220005091E0026091E1027091E20222E030E030
:101230008AE493E00E94191E41E060E08AE493E0B2
:101240000E947B16CE010E940006A8CF2DEC3CEC3C
:101250004CEC5DE3C501B4010E9406239B01AC0187
:10126000C701B6010E94CD2318160CF0B4CF61CF90
:10127000DF91CF911F910F91FF90EF90DF90CF9072
:10128000BF90AF909F908F90089540ED57E060E041
:1012900070E081E194E00E94580E20E032EC41E0E1
:1012A00050E067E674E081E194E00E94110E81E174
:1012B00094E00E940E0E6BEE71E0809142049091DA
:1012C00043040E945A1C6AE070E080E090E00E94B3
:1012D000D71941E060E081E194E00E94CA0E81E507
:1012E00093E00E94410B8091B402811105C081E01E
:1012F0008093B4020E944C1742E050E063E070E03B
:101300008DE393E00E94D90F8DE393E00E94170FC5
:101310004FEF60E28DE393E00E94EE0E0E948405A1
:1013200042E050E064E070E08FE093E00E945D11E5
:101330008FE093E00E94E3100E94A7170E94B41769
:1013400081E00E94F61781E00C94F917C8E083E170
:101350000E94671AC150D9F70E94C8170E94C1178E
:10136000C1E0D0E0D093CA02C093C90260910601E7
:101370007091070180910801909109010E943C241D
:101380006B017C0160910A0170910B0180910C014D
:1013900090910D010E943C24DC01CB01B6010E941A
:1013A00040181092CA021092C90280E090E00E9498
:1013B0001B08D093CA02C093C90281E090E00E944A
:1013C0001B0860E070E080E090E00E944018F9CFD8
:1013D00020E05D99216055992260FC0120830895E9
:1013E000FC01208121FB0EF0559820FB0EF05D984A
:1013F0000EF45D9A21FB0EF4559A089520E0289989
:10140000216020992260FC0120830895FC01208145
:1014100021FB0EF0209820FB0EF028980EF4289A5D
:1014200021FB0EF4209A0895FF920F931F93CF9300
:10143000DF93CDB7DEB72A970FB6F894DEBF0FBEA5
:10144000CDBF8C01F62ECE0101962A8749870E94D6
:101450003F0130E05A993160529932603E8330E06A
:101460002B993160239932603F83CE0105960E940B
:10147000FE0930E0479931603F9932603887CE01EC
:1014800004960E94E80949852A85442311F05A9A56
:1014900001C05A98529A21110AC06F2D70E094E051
:1014A000759567959A95E1F7C8010E945D016F2DCA
:1014B0006F70C8010E945D01CE0104960E94F00980
:1014C000288521FB0EF03F9820FB0EF047980EF484
:1014D000479A21FB0EF43F9ACE0105960E94060A18
:1014E0003F8131FB0EF0239830FB0EF02B980EF469
:1014F0002B9A31FB0EF4239A2E8121FB0EF0529889
:1015000020FB0EF05A980EF45A9A21FB0EF4529AD0
:10151000CE0101960E9450012A960FB6F894DEBFC4
:101520000FBECDBFDF91CF911F910F91FF90089516
:101530008AE493E00E94EA1581E092E090934B03E5
:1015400080934A038DE393E00E94E50E8FE093E0E1
:101550000C9466108091810390E020918203821B9D
:10156000910908952091820380918103281750F4F6
:10157000E22FF0E0ED57FC4F808190E02F5F209349
:10158000820308958FEF9FEF0895E0918203809189
:101590008103E81730F4F0E0ED57FC4F808190E0D4
:1015A00008958FEF9FEF08950895CF92DF92EF9205
:1015B000FF920F931F93CF93DF937C01CB018A019E
:1015C00020915D03222389F0EB016B01C40ED51E2F
:1015D000CC15DD0569F06991D701ED91FC91019081
:1015E000F081E02DC7010995F3CF642F0E94900C84
:1015F000C801DF91CF911F910F91FF90EF90DF9085
:10160000CF900895CF93DF931F92CDB7DEB7698354
:1016100020915D032223D1F020915E03203240F01F
:1016200021E030E0FC013383228380E090E015C0AC
:1016300080915F03E82FF0E0E05AFC4F998190839E
:101640008F5F80935F0380935E0305C061E0CE01EE
:1016500001960E94900C81E090E00F90DF91CF9175
:101660000895FC011382128248EE53E060E070E0BE
:1016700044835583668377838DE092E091838083F2
:101680000895109282031092810310925F031092CA
:101690005E030C94D30B81E080935D036093800321
:1016A00010925F0310925E0308950F93062F21E0BE
:1016B00040915E0360E673E0809180030E94390CE4
:1016C00010925F0310925E0310925D030F910895D4
:1016D0008F929F92AF92BF92CF92DF92EF92FF9242
:1016E0000F931F93CF93DF93EC01F62ED42E480176
:1016F0005901EE2019F10E944B0B1E2D143008F0F9
:1017000013E01150B8F0E881F98128E0129FB00190
:101710001124A501940104C0569547953795279546
:101720006A95D2F7CA01B9010190F081E02DCE018E
:101730000995E7CF60E0CE010E94550B4D2D413257
:1017400008F040E22C2D63E873E08F2D0E94F10B2E
:101750001092820380938103DF91CF911F910F91AB
:10176000FF90EF90DF90CF90BF90AF909F908F90C1
:101770000895CF92EF920F931F93C22EE12C00E0B9
:1017800010E098010E94680B1F910F91EF90CF908D
:10179000089521E00C94B90B61E00C94550B81E5A0
:1017A00093E00C94310B1092100481E080930E04AE
:1017B00010920D0461E082E00E94D51A61E083E09E
:1017C0000E94D51AE9EBF0E080818E7F80838081D2
:1017D0008D7F808388E48093B80085E48093BC008B
:1017E0000895413208F043C0909110049111FCCF4C
:1017F00091E09093100420930E042FEF2093A30305
:101800001092E803240F2093E70390930F04909124
:101810000F04880F892B80930F0480910D04813071
:1018200061F410920D0480910F048093BB008091AD
:10183000BC0083FDF8CF85EC01C085EE8093BC0031
:10184000809110048130E1F38091E803841710F453
:101850004091E80329EE33E0FB01D9018A2F821B76
:10186000841718F48D918193F9CF842F089580E027
:1018700008950F93413208F04AC0909110049111DD
:10188000FCCF92E09093100400930E049FEF90938E
:10189000A3031092E8034093E703FB0169EE73E0B2
:1018A000DB019A2F961B941718F491919D93F9CF11
:1018B00010920F0490910F04880F892B80930F04CE
:1018C00080910D04813061F410920D0480910F0419
:1018D0008093BB008091BC0083FDF8CF85EC01C0F4
:1018E00085EE8093BC00222321F080911004823089
:1018F000E1F38091A3038F3F61F08091A3038032D5
:1019000051F08091A303803341F483E007C081E06C
:1019100005C080E003C082E001C084E00F9108951B
:10192000613298F420911004243089F46093C50347
:10193000FC0187EC93E0DC012A2F281B261718F402
:1019400021912D93F9CF80E0089581E0089582E000
:10195000089585ED8093BC008091BC0084FDFCCF90
:1019600010921004089585EC8093BC00109210042E
:1019700008951F920F920FB60F9211242F933F9349
:101980004F935F936F937F938F939F93AF93BF9387
:10199000EF93FF938091B900887F803609F49EC051
:1019A00078F5883209F45DC090F4803109F456C0AE
:1019B00038F4882309F4F5C0883009F44FC0F5C025
:1019C000883109F44EC0803209F45FC0EEC0803423
:1019D00009F46AC058F4803309F457C0883309F019
:1019E000E4C08093A3030E94B30CDFC0803509F4E8
:1019F0004FC0883509F45DC0883409F0D6C0D3C023
:101A0000883909F4C4C0A8F4883709F467C038F4E9
:101A1000883609F463C0803709F460C0C6C08838CE
:101A200009F4B5C0803909F45FC0803809F0BDC041
:101A30005BC0803B09F483C038F4803A09F466C087
:101A4000883A09F47CC0B1C0803C09F4A4C0883C49
:101A500009F4A1C0883B09F487C0A7C080910F0496
:101A600010C09091E8038091E703981770F5E0911A
:101A7000E80381E08E0F8093E803F0E0E751FC4F2C
:101A800080818093BB0085EC83C08093A3038BC0CF
:101A9000E091E80381E08E0F8093E8038091BB0022
:101AA000F0E0E751FC4F80839091E8038091E703D9
:101AB0006BC0E091E80381E08E0F8093E803809192
:101AC000BB00F0E0E751FC4F808380910E04811150
:101AD0006AC081E080930D0484EA5EC083E0809355
:101AE00010041092A403CFCF8091A403803208F099
:101AF0004EC0E091A40381E08E0F8093A4038091F7
:101B0000BB00F0E0EB55FC4F8083BDCF0E94B30CCF
:101B10008091A403803230F4E091A403F0E0EB550F
:101B2000FC4F10826091A40370E0E0910904F091F1
:101B30000A0485EA93E009951092A40336C084E074
:101B4000809310041092C6031092C503E0910B0419
:101B5000F0910C0409958091C503811105C081E0C5
:101B60008093C5031092C703E091C60381E08E0FF6
:101B70008093C603F0E0E953FC4F80818093BB0063
:101B80009091C6038091C503981708F47CCF85E82F
:101B90008093BC000AC085EC8093BC0010921004B6
:101BA00004C01092A3030E94A90CFF91EF91BF9172
:101BB000AF919F918F917F916F915F914F913F91E5
:101BC0002F910F900FBE0F901F9018950F931F939A
:101BD000CF93DF93EC01662359F00E94A819698323
:101BE0007A838B839C83DF91CF911F910F9108950E
:101BF0000E94A81909811A812B813C81601B710BFD
:101C0000820B930B623371058105910530F763E018
:101C100070E080E090E00E94D719EACF60E00C9479
:101C2000E60DCF92DF92EF92FF920F931F93CF9327
:101C3000DF9300D000D0CDB7DEB78C017B01FC0173
:101C400072AB61AB8BE1C82ED12CC70129833A83DB
:101C50004B835C830E94041C29813A814B815C8107
:101C6000811113C0F1E0CF1AD10879F064E670E079
:101C700080E090E029833A834B835C830E94D719EC
:101C80005C814B813A812981E0CFBA01A901F80139
:101C900081A992A90F900F900F900F90DF91CF9193
:101CA0001F910F91FF90EF90DF90CF900C94FE1B4F
:101CB000FC0113AA14AA15AA16AA11821282138271
:101CC0001482411551056105710521F0CB01BA015E
:101CD0000C94D71908951F93CF93DF93EC01162F1F
:101CE00069E172E089A99AA90E945A1C4AE050E071
:101CF000612F89A99AA90E94271D60E272E089A933
:101D00009AA90E945A1C62E370E080E090E0DF91A3
:101D1000CF911F910C94D7191F93CF93DF93EC01B0
:101D2000162F8D81882389F189A99AA9DC01ED916B
:101D3000FC910480F581E02D0995892BA9F307C05A
:101D40002637310519F12835310509F41D8289A995
:101D50009AA9DC01ED91FC910480F581E02D0995B3
:101D60001816190694F489A99AA9DC01ED91FC9141
:101D70000680F781E02D09959C0133272336310534
:101D8000F9F6612FCE010E946B0E83E6DF91CF91B1
:101D90001F9108950F931F93CF93DF931F92CDB799
:101DA000DEB78C01662349F081E0F801858360E0AD
:101DB000C80149830E948C0E4981F80145830F9028
:101DC000DF91CF911F910F910895FC0183E090E086
:101DD000908787831386128614860895EF92FF9268
:101DE0001F93CF93DF931F92CDB7DEB77C01162FE1
:101DF000FC01618581E593E049830E944B0B612FD3
:101E000081E593E00E94020B4981642F81E593E014
:101E10000E94020B81E593E00E94CC0BF7018683C0
:101E20000F90DF91CF911F91FF90EF900895CF9386
:101E3000DF93EC018F819885029729F440E069E3F4
:101E4000CE010E94EE0E40E063E2CE010E94EE0E53
:101E50004FE660E2CE01DF91CF910C94EE0E9F929F
:101E6000AF92BF92CF92DF92EF92FF920F931F93A8
:101E7000CF93DF93EC01698581E593E00E944B0BE2
:101E8000E0915103F09152030190F081E02D68EA56
:101E900081E593E0099581E593E00E94CC0B46E053
:101EA000698581E593E00E94C90B0E94A8197B0116
:101EB00081E593E00E94AA0A069784F48A859B85AF
:101EC000892BB1F30E94A8196E197F098A859B8519
:101ED0008617970768F781E08C872CC081E593E02F
:101EE0000E94B20AA82E81E593E00E94B20A982EC1
:101EF00081E593E00E94B20AE82E81E593E00E941A
:101F0000B20AB82E81E593E00E94B20AF82E81E56C
:101F100093E00E94B20AD92CC12CCA28D982C88267
:101F20001B2D00E00E291B830A83982F88278F29F9
:101F30009D838C83DF91CF911F910F91FF90EF9044
:101F4000DF90CF90BF90AF909F9008951F93CF9355
:101F5000DF931F92CDB7DEB7162F81E593E049835B
:101F60000E944B0B4981642F81E593E00E94020B94
:101F700081E593E00E94CC0B811114C041E0612FF8
:101F800081E593E00E94C90B81E593E00E94AA0AD3
:101F9000892B41F081E593E00F90DF91CF911F9164
:101FA0000C94B20A8FEF9FEF0F90DF91CF911F91AA
:101FB0000895EF92FF920F931F93CF93DF937C01CD
:101FC000EB018A016330710521F04230510509F0BF
:101FD00051C0CE010197039758F50115110581F005
:101FE0004FE050E06BE6C7010E94A60F8F3F2FEF36
:101FF000920719F001E010E013C00130110551F013
:102000004FE050E06AE6C7010E94A60F8F3FEFEF56
:102010009E0721F4C330D10569F027C000E010E02D
:10202000C330D10529F4873D9105F1F5C2E0D0E038
:102030002097D9F40115110561F04FE050E069E6F1
:10204000C7010E94A60F833D910589F1013011055A
:1020500049F04FE050E068E6C7010E94A60F833DBB
:10206000910541F1C330D10519F00230110511F489
:1020700080E025C0F701D087C783209759F0D7FDAE
:1020800011C023977CF40130110511F48BE608C0D0
:102090008AE606C00130110511F489E601C088E620
:1020A000F701818781E00BC0C1E0D0E0C1CF01E042
:1020B00010E002C000E010E0C0E0D0E0D6CFDF9139
:1020C000CF911F910F91FF90EF900895CF93DF93E1
:1020D000EC0186E0E2E7F1E0DE01529601900D921C
:1020E0008A95E1F786E0E8E7F1E0DE011C960190D1
:1020F0000D928A95E1F784E090E09A8F898F1CA673
:102100001BA61DA6DF91CF910895EF92FF921F931A
:10211000CF93DF931F92CDB7DEB77C01162FFC0162
:10212000638D81E593E049830E944B0B612F81E52C
:1021300093E00E94020B4981642F81E593E00E94A5
:10214000020B81E593E00E94CC0BF701808F0F908A
:10215000DF91CF911F91FF90EF900895EF92FF9242
:102160001F93CF93DF931F92CDB7DEB77C01162F5D
:10217000FC01648D81E593E049830E944B0B612F44
:1021800081E593E00E94020B4981642F81E593E091
:102190000E94020B81E593E00E94CC0BF701808F37
:1021A0000F90DF91CF911F91FF90EF900895FC0168
:1021B000218D328D2330310511F0603210F40C94F2
:1021C000AE100C948510CF93DF93EC01898D9A8D1E
:1021D00083309105D9F440E061E2CE010E94D7102E
:1021E00047E560E2CE010E94D71044E664E2CE01EA
:1021F0000E94D71040E265E2CE010E94D71040E075
:1022000066E2CE01DF91CF910C94D710029739F49A
:1022100048E063E2CE010E94851047E406C040E03A
:1022200063E2CE010E94851047E260E2CE010E9487
:1022300085104CE060E0CE010E94AE1040E261E00B
:10224000CE010E94AE1040E062E0CE01DF91CF915E
:102250000C94AE101F93CF93DF931F92CDB7DEB7D0
:10226000162F81E593E049830E944B0B4981642F2F
:1022700081E593E00E94020B81E593E00E94CC0B84
:10228000811114C041E0612F81E593E00E94C90BE8
:1022900081E593E00E94AA0A892B41F081E593E051
:1022A0000F90DF91CF911F910C94B20A8FEF9FEFA7
:1022B0000F90DF91CF911F910895EF92FF920F93AE
:1022C0001F93CF93DF93EC018B017A01643071058A
:1022D00021F04230510509F055C0C801039702971B
:1022E00008F0CDC0E114F10471F04FE050E06DE171
:1022F000CE010E942A118934910509F4B8C081E009
:10230000E816F10451F04FE050E06EE1CE010E947A
:102310002A118934910509F4AEC00430110509F081
:10232000D0C0E114F10469F040E250E069E1CE016F
:102330000E942A11019679F421E0E216F10409F4D1
:10234000A3C040E250E068E1CE010E942A1101964C
:1023500009F0A4C099C00430110509F09BC04FE0FA
:1023600050E06EE1CE010E942A11EE24E394F12C9C
:10237000CC9709F0A9C002E010E082E0E816F10471
:1023800009F486C01A8F098F0130110569F124F410
:10239000012B09F449C069C00230110541F1033035
:1023A000110509F062C0EA94EF2811F48DE101C033
:1023B0008EE18C8F8B8F88E090E09AA389A389E0CF
:1023C00090E098A38F8F8AE090E09EA38DA38BE08E
:1023D00090E09CA38BA38CE090E09AA789A78DE066
:1023E00090E098A78FA341C0EA94EF2811F489E107
:1023F00001C088E18B8F8EE18C8F83E090E098A301
:102400008F8F84E090E09AA389A387E090E09CA35B
:102410008BA388E090E09EA38DA385E090E098A731
:102420008FA386E090E01FC0EA94EF2811F489E1C1
:1024300001C088E18B8F8EE18C8F83E090E098A3C0
:102440008F8F84E090E09AA389A385E090E09CA31D
:102450008BA386E090E09EA38DA387E090E098A7F1
:102460008FA388E090E09AA789A781E030C0EE248E
:10247000E394F12C02C0E12CF12C03E010E00330D6
:10248000110508F44ECF79CF0430110509F075CF4E
:1024900080E01DC0EE24E394F12C6FCF04301105D1
:1024A00069F44FE050E06EE1CE010E942A1131E064
:1024B00020E0CC9709F030E0032F122FE12CF12C13
:1024C0005CCF03E010E059CF00E010E056CFDF9181
:1024D000CF911F910F91FF90EF90089590914A0432
:1024E000E0914E04F0914F04992311F0849101C0C2
:1024F00080812FEB280F2A3110F4805E08958032FE
:1025000049F49F012F5F3F4F30934F0420934E04B7
:10251000EF2B31F708951F93CF93DF930E946E1234
:10252000C0E0D0E01AE090ED980F9A30B8F49E0128
:10253000129FE001139FD00D1124C80FD11D87FDFC
:10254000DA95E09780914E0490914F040196909314
:102550004F0480934E040E946E12E5CFCE01DF91AE
:10256000CF911F910895109272001092C00084E0E4
:102570008093C10089E08093C20081E08093C30012
:10258000EFEBF0E083E0808388EE8093D10010824F
:102590001092D200579A789408952F923F924F92BA
:1025A0005F926F927F928F929F92AF92BF92CF92E3
:1025B000DF92EF92FF920F931F93CF93DF93CDB7EC
:1025C000DEB727970FB6F894DEBF0FBECDBF7C01F4
:1025D0001B014D8380915004811105C081E08093DF
:1025E00050040E94B31210925301F7FE04C0E89405
:1025F000F7F81AE001C011E088E2189F802D11243D
:10260000282F30E03F832E832E153F0510F4FF82E4
:10261000EE82113049F44E815F814131574220F002
:10262000E0E1F7E2FF83EE83812E912CA12CB12C07
:102630008E819F81969587959C0140E050E029838B
:102640003A834B835C834E815F812A01612C712C1C
:10265000A501940160E072E18AE790E00E941726EC
:1026600029813A814B815C81620F731F841F951F02
:10267000A30192010E94692669017A01EE24FF24D8
:1026800000E00F5FC11434E0D306E104F10408F167
:1026900020E032E14AE750E0002E04C0559547950E
:1026A000379527950A94D2F7C501B4010E941726E1
:1026B00029813A814B815C81620F731F841F951FB2
:1026C000A30192010E94692669017A01EE24FF2488
:1026D000D8CF1A3049F48E819F8105966AE070E068
:1026E0000E9433267F836E834E815F81483E83E064
:1026F000580759F09101DA010E948E2628EE33E046
:1027000040E050E00E946926190110927200809109
:10271000C100807F802B8093C100BB27AF2D9E2DF1
:102720008D2D8093BF00C092D1002D81203108F003
:102730002FE080E190E0821B910904C0F694E794B9
:10274000D794C7948A95D2F78D2D99278093BF008F
:10275000C092D20030924D0420924C0489B38FEF86
:1027600089BB84E08093720027960FB6F894DEBF91
:102770000FBECDBFDF91CF911F910F91FF90EF90D2
:10278000DF90CF90BF90AF909F908F907F906F9091
:102790005F904F903F902F900895CF93DF93EB0180
:1027A0008F3F11F0411105C040E0BE0188EE93E07B
:1027B00043C0813130F050EF580F503618F05FE5CC
:1027C00001C050E0852F6CE00E942726682F74EF2F
:1027D000760390011124250F311D2C30310540F472
:1027E000F901EE0FFF1FEF58FD4F2081318102C02C
:1027F00020E030E0873081F0082E02C0220F331F26
:102800000A94E2F7823028F0C90105966AE070E088
:102810000CC0C90190580CC0C90136E0880F991F3F
:102820003A95E1F7029665E070E00E943326CB010D
:10283000403108F04FE0BE01DF91CF910C94CD12F2
:102840004F925F926F927F928F929F92AF92BF92C0
:10285000CF92DF92EF92FF920F931F93CF93DF936C
:1028600000D0CDB7DEB79090520180914904882303
:1028700021F060914804611117C077247394B0EC83
:10288000AB2EBDE5BB2E1AE0612E04E0802E80ED5C
:10289000C82E87E0D82E94E0E92EF12C04EF11E049
:1028A0002FE0422E512C15C070E040E088EE93E0FE
:1028B0000E94CD121092480429C18636D4F5813683
:1028C00009F4A9C07CF58C3309F460C08E3381F41F
:1028D00093940E946E1220914E0430914F042F5F0A
:1028E0003F4F30934F0420934E04853631F752C04A
:1028F000813209F08BC080925201D0925101C09276
:102900005001F0924F01E0924E0110934D0100935F
:102910004C0150924B0140924A0110924904A4E0AC
:102920009A2ED7CF8336A1F10CF478C010E082E064
:1029300077C08D36C1F194F4873691F174F18C36FD
:1029400009F064C00E948B12BC0190934F018093E8
:102950004E01809150019091510151C08237C9F1CF
:102960004CF48F3609F052C00E948B12982E80933F
:102970005201AFCF843781F1863709F047C00E94FA
:102980008B1290934B0180934A01A3CF9A94A1CFCD
:1029900010E020C010E084E043C010E085E040C0BB
:1029A00010E087E03DC00E946E128C3619F4109240
:1029B000490404C0709249041092480420914E04C6
:1029C00030914F042F5F3F4F30934F0420934E04BC
:1029D00080CF11E080E024C00E948B12BC01C501B1
:1029E0000E943326669EC001679E900D112490932D
:1029F00051018093500160914E0170914F010E94EE
:102A0000332670934D0160934C0163CF10924F04B5
:102A100010924E047BC010E089E002C010E08BE011
:102A2000082F9CE0999E000D11240E946E12982F91
:102A3000977F933261F420914E0430914F042F5FC1
:102A40003F4F30934F0420934E040F5FEECF8D32F3
:102A500071F420914E0430914F042F5F3F4F30931B
:102A60004F0420934E0401500E946E12F0CF6091EB
:102A70004C0170914D018153883050F4E090500129
:102A8000F09051010E948B12BC01C7010E943326B5
:102A90007B01F694E79469837A830E946E126981C0
:102AA0007A818E3269F420914E0430914F042F5F69
:102AB0003F4F30934F0420934E046E0D7F1DE9CF9E
:102AC00080914904882339F09B01369527952093FE
:102AD0004804621B710940914A01112311F08FEFE4
:102AE00001C0802F0F900F90DF91CF911F910F9118
:102AF000FF90EF90DF90CF90BF90AF909F908F901E
:102B00007F906F905F904F900C94CD130F900F902B
:102B1000DF91CF911F910F91FF90EF90DF90CF90B9
:102B2000BF90AF909F908F907F906F905F904F90ED
:102B300008951F920F920FB60F9211242F933F9377
:102B40004F935F936F937F938F939F93AF93BF93B5
:102B5000EF93FF9380914C0490914D049C01215080
:102B6000310930934D0420934C04892B11F51092B8
:102B7000720078948091C100807F84608093C1004E
:102B800083E08093BF0088EE8093D1001092BF0055
:102B90001092D20081E08093530180914E04909175
:102BA0004F04892B31F080914B04811102C00E94A7
:102BB0002014FF91EF91BF91AF919F918F917F91E1
:102BC0006F915F914F913F912F910F900FBE0F909A
:102BD0001F901895FC01138212828DE892E0918378
:102BE0008083148208951F93CF93DF93EC01162FF7
:102BF00064600E946D161E83DF91CF911F9108952E
:102C0000CF93DF93EC01E881F9810480F581E02D19
:102C1000099563E0CE010E9469168FE991E401975E
:102C2000F1F700C0000063E0CE010E94691687E55D
:102C300092E00197F1F700C0000063E0CE010E942E
:102C4000691662E0CE010E94691668E2CE010E9418
:102C50006D1660E0CE010E949F16CE010E94711693
:102C600062E0CE010E94F31564E0CE01DF91CF91C6
:102C70000C949F160F931F93CF93DF9300D01F9256
:102C8000CDB7DEB78C01DC0114968C9114978111BD
:102C90000CC081E014968C93C8012B834A8369830E
:102CA0000E94001669814A812B81D801ED91FC9127
:102CB0000680F781E02DC8010995B5ECBA95F1F7CA
:102CC00000000F900F900F90DF91CF911F910F9107
:102CD000089521E040E00C943A1620E040E00C9486
:102CE0003A1661E00E946D168FE39FE10197F1F7BC
:102CF00000C000000895CF93DF9300D000D0CDB77F
:102D0000DEB720E8298320EC2A8324E92B8324EDF5
:102D10002C83443008F043E0FE01E40FF11D2181D3
:102D2000260F622F0E946D1685EC8A95F1F7000040
:102D30000F900F900F900F90DF91CF9108951F93F8
:102D4000CF93DF93EC01162F68600E946D161D83F0
:102D5000DF91CF911F91089520E041E00C943A1645
:102D60000E94AC1681E090E00895CF92DF92EF923E
:102D7000FF920F931F93CF93DF937C018A01EB01A6
:102D80006B01C40ED51ECC15DD0529F06991C70174
:102D90000E94AC16F8CFC801DF91CF911F910F911F
:102DA000FF90EF90DF90CF9008954FB141705CB1EC
:102DB00056FB552750F954278091570460915804C9
:102DC0002091510430915204852790E06427861B9E
:102DD0009109820F931F9093520480935104909114
:102DE000580480915704591729F0481719F081E0C9
:102DF00080935604509358044093570408951F92AB
:102E00000F920FB60F9211242F933F934F935F931E
:102E10006F938F939F932CB130E03595279535951F
:102E20002795422F417083B190E054E095958795A6
:102E30005A95E1F782279327582F517080915904B2
:102E400060915A042091530430915404852790E0F6
:102E50006427861B9109820F931F909354048093DB
:102E6000530490915A0480915904591729F0481736
:102E700019F081E08093560450935A04409359040A
:102E80009F918F916F915F914F913F912F910F90F3
:102E90000FBE0F901F90189524982C9A6A98729ADA
:102EA0006E98769A8098889A81E08093680090E185
:102EB00090936B008BBB41E050E065ED76E184E0E0
:102EC0000E944B188CB182FB882780F98170809317
:102ED000590493B1809159049295917089278093F8
:102EE0005A041092540410925304109256048FB155
:102EF0008170809357049CB18091570496FB992769
:102F000090F989278093580410925204109251042A
:102F10001092550408958091B402811105C081E09A
:102F20008093B4020C944C1708950E948B17F89468
:102F30008091530490915404789408950E948B17C3
:102F4000F8948091510490915204789408950E94CD
:102F50008B17F89480915304909154041092540468
:102F600010925304789408950E948B17F8948091DE
:102F7000510490915204109252041092510478948A
:102F800008950E948B17809156041092560408955C
:102F90000E948B17809155041092550408952E9825
:102FA000269A2D98259A2A98229A2998219A80EA79
:102FB0008093800081E18093810080E991E090938B
:102FC00087008093860010928900109288001092EA
:102FD0008B0010928A00089580915B04811105C0D6
:102FE00081E080935B040C94CF17089580935D0477
:102FF000089580935C040895CF93DF93EC010E94C1
:10300000EC17D7FF05C0D195C195D10981E001C06A
:1030100080E0C13991E0D90714F0C0E9D1E0D09344
:103020008B00C0938A0090915D04891711F02A9A51
:1030300001C02A98229ADF91CF910895CF93DF9310
:10304000EC010E94EC17D7FF05C0D195C195D109BD
:1030500081E001C080E0C13991E0D90714F0C0E9F6
:10306000D1E0D0938900C093880090915C048917C7
:1030700011F0299A01C02998219ADF91CF910895E2
:10308000CF93DF93EB010E94FC17CE01DF91CF912C
:103090000C941E180895853008F04CC0E82FF0E01D
:1030A000EE0FFF1FEC5AFE4F718360838230E1F018
:1030B00018F4813069F004C0833019F1843071F163
:1030C000809169008C7F842B80936900E89A089531
:1030D00080916900440F551F440F551F837F842B37
:1030E00080936900E99A08958091690034E0440F63
:1030F000551F3A95E1F78F7C842B80936900EA9AFB
:1031000008958091690026E0440F551F2A95E1F744
:103110008F73842B80936900EB9A089580916A00E5
:1031200094E0440F551F9A95E1F78F7C842B809390
:103130006A00EE9A08951F920F920FB60F92112413
:103140002F933F934F935F936F937F938F939F93AF
:10315000AF93BF93EF93FF93E0915401F09155012A
:103160000995FF91EF91BF91AF919F918F917F91C1
:103170006F915F914F913F912F910F900FBE0F90E4
:103180001F9018951F920F920FB60F9211242F9334
:103190003F934F935F936F937F938F939F93AF93DF
:1031A000BF93EF93FF93E0915601F091570109957A
:1031B000FF91EF91BF91AF919F918F917F916F910F
:1031C0005F914F913F912F910F900FBE0F901F90E5
:1031D00018951F920F920FB60F9211242F933F93C1
:1031E0004F935F936F937F938F939F93AF93BF930F
:1031F000EF93FF93E0915801F09159010995FF91E8
:10320000EF91BF91AF919F918F917F916F915F915E
:103210004F913F912F910F900FBE0F901F901895D7
:103220001F920F920FB60F9211242F933F934F933B
:103230005F936F937F938F939F93AF93BF93EF931E
:10324000FF93E0915A01F0915B010995FF91EF9195
:10325000BF91AF919F918F917F916F915F914F91AE
:103260003F912F910F900FBE0F901F9018951F92B6
:103270000F920FB60F9211242F933F934F935F93AA
:103280006F937F938F939F93AF93BF93EF93FF932E
:10329000E0915C01F0915D010995FF91EF91BF9183
:1032A000AF919F918F917F916F915F914F913F91DE
:1032B0002F910F900FBE0F901F9018951F920F9295
:1032C0000FB60F9211242F933F938F939F93AF9339
:1032D000BF9380915F0490916004A0916104B091CC
:1032E000620430915E0423E0230F2D3720F4019611
:1032F000A11DB11D05C026E8230F0296A11DB11D19
:1033000020935E0480935F0490936004A093610413
:10331000B09362048091630490916404A091650469
:10332000B09166040196A11DB11D80936304909332
:103330006404A0936504B0936604BF91AF919F911C
:103340008F913F912F910F900FBE0F901F90189566
:103350002FB7F89460915F047091600480916104CC
:10336000909162042FBF08953FB7F8948091630451
:1033700090916404A0916504B091660426B5A89B61
:1033800005C02F3F19F00196A11DB11D3FBF662753
:10339000782F892F9A2F620F711D811D911D42E098
:1033A000660F771F881F991F4A95D1F708958F924E
:1033B0009F92AF92BF92CF92DF92EF92FF926B01FA
:1033C0007C010E94B4194B015C01C114D104E104D9
:1033D000F104F1F00E946A220E94B4196819790977
:1033E0008A099B09683E73408105910570F321E0CD
:1033F000C21AD108E108F10888EE880E83E0981E11
:10340000A11CB11CC114D104E104F10429F7DDCFE2
:10341000FF90EF90DF90CF90BF90AF909F908F90F4
:103420000895789484B5826084BD84B5816084BD3C
:1034300085B5826085BD85B5816085BDEEE6F0E02D
:10344000808181608083E1E8F0E010828081826089
:103450008083808181608083E0E8F0E0808181600A
:103460008083E1E9F0E080818260808380818160F7
:103470008083E0E9F0E0808181608083E1ECF0E02E
:10348000808184608083808182608083808181608C
:103490008083E3ECF0E0808181608083E0ECF0E009
:1034A000808182608083E2ECF0E0808181608083B3
:1034B000EAE7F0E08081846080838081826080839D
:1034C00080818160808380818068808308958231DB
:1034D00008F08251E82FF0E0EA5EFE4FE49180911F
:1034E0007B00E3FB222720F930E095E0220F331F19
:1034F0009A95E1F78F7D822B80937B00E770809116
:103500005E0120E4829FC0011124E82BE0937C003F
:1035100080917A00806480937A0080917A0086FDA1
:10352000FCCF809178002091790090E0922B089553
:1035300090E0FC013197EF30F105B0F5EA5AFF4F0A
:103540000C948826809180008F7703C08091800042
:103550008F7D80938000089580918000877FF9CFD0
:1035600084B58F7702C084B58F7D84BD0895809126
:1035700090008F7707C0809190008F7D03C080916D
:103580009000877F8093900008958091C0008F778E
:1035900003C08091C0008F7D8093C000089580910A
:1035A000C200877F8093C20008950F931F93CF932B
:1035B000DF931F92CDB7DEB7282F30E0F901EE5D23
:1035C000FE4F8491F901EF5BFE4F1491F901E05A2F
:1035D000FE4F04910023C9F0882321F069830E94E3
:1035E000981A6981E02FF0E0EE0FFF1FE158FE4FBF
:1035F000A591B4919FB7F8948C91611103C0109577
:10360000812301C0812B8C939FBF0F90DF91CF91BD
:103610001F910F9108950E94A826CF93DF931F92C8
:10362000CDB7DEB76983DC01ED91FC910280F381B7
:10363000E02D41E050E0BE016F5F7F4F09950F9094
:10364000DF91CF910895CF93DF93EC018C859D8519
:1036500097FF05C082E00E942C1F9D878C878C8578
:103660009D85DF91CF91089583E00C94C021FC01EA
:103670008485958597FD06C082E00E94D41E90E067
:103680000196089582E00E94D41E90E00895FC0106
:103690008485958597FD05C02FEF3FEF35872487FB
:1036A000089582E00C942C1FCF93DF93EC0180915E
:1036B0006A01882331F083E00E945D1F1816190605
:1036C00034F081E090E09B838A8380E090E0DF919A
:1036D000CF910895FC0120812E5F208342E450E0C9
:1036E0006DE871E080E80C94F81FFC012181808175
:1036F000813A59F4213209F04BC047E050E063E6CB
:1037000071E080E00E94F81F5EC0813209F040C085
:10371000233289F4838190E0982F88273281832B8C
:10372000A0E0B0E080935F0190936001A0936101FD
:10373000B09362010FC0203239F467E070E083E695
:1037400091E00E94292009C0223221F482818093D5
:103750006A0103C02D7F2032B1F58091B704811139
:1037600003C0E0E0F8E002C0EEEFFAE08091630110
:1037700090916401A0916501B0916601803B9440F5
:10378000A105B10511F580916A0180FF03C01DC03C
:1037900080E00895EE3F2AE0F20731F080819181C8
:1037A0009093FF0A8093FE0A87E797E791838083CF
:1037B0002BE088E190E00FB6F894A8958093600024
:1037C0000FBE2093600081E0089588E10FB6F89461
:1037D00080936000109260000FBEA895EE3F8AE0D3
:1037E000F80739F08091FE0A9091FF0A9183808357
:1037F000EACF1092FF0A1092FE0AE5CF2FEF3FEFBB
:10380000FC01358724870895CF93C0916A016AE04F
:1038100070E080E090E00E94D71981E0C11101C002
:1038200080E0CF91089510926A041092690488EEA6
:1038300093E0A0E0B0E080936B0490936C04A093BD
:103840006D04B0936E0489E992E0909368048093CC
:1038500067048FEF9FEF909374048093730408952F
:1038600008950E94111A0E94301C88EB94E00E9477
:103870004D220E944509C0E0D0E00E94A609209791
:10388000E1F30E940000F9CF6115710581F0DB01C1
:103890000D900020E9F7AD0141505109461B570B2F
:1038A000DC01ED91FC910280F381E02D099480E030
:1038B00090E008950C94441CDC01ED91FC91019082
:1038C000F081E02D099466E272E00C94441C0F93A1
:1038D0001F93CF93DF93EC010E94441C8C01CE0117
:1038E0000E94631C800F911FDF91CF911F910F9158
:1038F00008958F929F92AF92BF92DF92EF92FF92C4
:103900000F931F93CF93DF93CDB7DEB7A1970FB679
:10391000F894DEBF0FBECDBF7C01F42FD52ECB01B6
:1039200019A2223008F42AE08E010F5D1F4F822E6B
:10393000912CA12CB12C6F2F7D2DA50194010E94FB
:103940004726F22FD32ECA01015011096A3014F410
:10395000E0E301C0E7E3E60FD801EC93232B242B2F
:10396000252B49F7B801C7010E94441CA1960FB648
:10397000F894DEBF0FBECDBFDF91CF911F910F91A5
:10398000FF90EF90DF90BF90AF909F908F90089541
:10399000CF92DF92EF92FF920F931F93CF93DF931B
:1039A000EC016A017B012115310579F4E881F98187
:1039B0000190F081E02D642FDF91CF911F910F9145
:1039C000FF90EF90DF90CF9009942A303105E9F411
:1039D00077FF1AC06DE20E945C1C8C0144275527BA
:1039E000BA014C195D096E097F092AE0CE010E94D7
:1039F000791C800F911FDF91CF911F910F91FF9044
:103A0000EF90DF90CF9008952AE0B701A601CE0194
:103A1000DF91CF911F910F91FF90EF90DF90CF90AA
:103A20000C94791C9A01AB01662757FD6095762F9F
:103A30000C94C81C2115310541F4DC01ED91FC9179
:103A40000190F081E02D642F09940C94791C9A0167
:103A5000462F50E060E070E00C941A1D4F925F9288
:103A60006F927F928F929F92AF92BF92CF92DF928E
:103A7000EF92FF920F931F93CF93DF93EC016A01B4
:103A80007B01B22E9A01AB01C701B6010E94F42559
:103A9000882319F065EA72E027C026013701E8940F
:103AA00077F82FEF3FEF4FE75FE7C301B2010E94C6
:103AB000F42581110DC02FEF3FEF4FE75FE7C30102
:103AC000B2010E94CD2318161CF469EA72E00CC002
:103AD0002FEF3FEF4FE75FE4C701B6010E947D255E
:103AE0001816ACF46DEA72E0CE01DF91CF911F9110
:103AF0000F91FF90EF90DF90CF90BF90AF909F908D
:103B00008F907F906F905F904F900C94441C2FEF9C
:103B10003FEF4FE75FECC701B6010E94CD2387FD61
:103B2000E1CF20E030E0A901C701B6010E94CD231A
:103B300087FF0AC06DE2CE010E945C1C8C01F7FA7F
:103B4000F094F7F8F09402C000E010E0A12C60E0DF
:103B500070E080E09FE3AB1441F020E030E040E211
:103B600051E40E94D423A394F6CF9B01AC01C7017A
:103B7000B6010E9407236B017C010E9441242B01A6
:103B80003C010E946D249B01AC01C701B6010E945B
:103B900006236B017C012AE0B301A201CE010E9441
:103BA000791C080F191FBB2039F061EB72E0CE01C0
:103BB0000E94441C080F191F7B2C772041F120E044
:103BC00030E040E251E4C701B6010E9488256B0154
:103BD0007C010E943C244B01AA2497FCA094BA2C9F
:103BE0002AE030E0B501A401CE010E94C81C080FF4
:103BF000191FC501B4010E946F249B01AC01C701CC
:103C0000B6010E9406236B017C017A94D6CFC801CD
:103C1000DF91CF911F910F91FF90EF90DF90CF90A8
:103C2000BF90AF909F908F907F906F905F904F90DC
:103C300008950C942E1D615030F02091F100FC018C
:103C400020830196F8CF289884E68093C1040895D4
:103C50004091BC045091BD042091BA043091BB0442
:103C600042175307B4F49091E8009570E1F39091F6
:103C7000E80092FD19C08093F1008091BC049091FE
:103C8000BD0401968F739927892B19F48EEF8093C9
:103C9000E8008091BC049091BD0401969093BD040E
:103CA0008093BC0481E0089580E00895CF92DF9274
:103CB000EF92FF920F931F93CF93DF931F92CDB795
:103CC000DEB7082F162FF42E862F880F8E5F99836C
:103CD0000E94281E83E00E94281EE02EC02E99819B
:103CE000D92E8C2D8E19811798F4F601F7FE02C09B
:103CF000849101C080810E94281E082F80E00E94CC
:103D0000281E8023FFEFCF1ADF0A8111EACF01C0FE
:103D100081E00F90DF91CF911F910F91FF90EF9075
:103D2000DF90CF9008958091D70081608093D70075
:103D300080EA8093D80089B5806189BD89B58260A9
:103D400089BD09B400FEFDCF61E070E080E090E045
:103D50000E94D7198091D8008F7C80618093D80011
:103D60008091E000807F8093E0000895CF93DF93FF
:103D70001F92CDB7DEB71982CE0101960E946A1B51
:103D80000E94F222BE016F5F7F4F0E946B228981E9
:103D90000F90DF91CF9108952FB7FC012083F89405
:103DA00067706093E9000895CF93DF931F92CDB7BA
:103DB000DEB7682FCE0101960E94CC1E8091F200E2
:103DC00099819FBF0F90DF91CF910895FF920F933C
:103DD0001F93CF93DF9300D0CDB7DEB7F62E8A01C5
:103DE0009091C004992311F057FF03C08FEF9FEF0C
:103DF0002BC0682FCE0101967A830E94CC1E809141
:103E0000F20090E0A8017A81801791070CF4AC01D0
:103E1000EF2DF72FF40E84E6FE1639F028988093E4
:103E2000C1049091F1009193F7CF4115510521F014
:103E30008091F200882321F089818FBFCA0104C0DC
:103E40008BE68093E800F8CF0F900F90DF91CF9131
:103E50001F910F91FF900895CF93DF931F92CDB7DD
:103E6000DEB741E050E0BE016F5F7F4F0E94E61E6B
:103E7000019719F4898190E002C08FEF9FEF0F90B6
:103E8000DF91CF910895CF93DF931F92CDB7DEB727
:103E9000682FCE0101960E94CC1E9091E800892FD8
:103EA000807295FF04C09091F20080E4891B998193
:103EB0009FBF0F90DF91CF9108956F927F928F9265
:103EC0009F92AF92BF92CF92DF92EF92FF920F93A9
:103ED0001F93CF93DF931F92CDB7DEB7782E7B0170
:103EE000C42EB52E8091C004882369F0042F152FAD
:103EF0008AEFD82E872D8072982E9AE3A92E872DCF
:103F00008074882E11C08FEF9FEF57C0872D0E94BD
:103F1000431F682E81110CC0DA94A9F361E070E0B0
:103F200080E090E00E94D7190115110579F73BC098
:103F3000282F30E0021713070CF4602E672DCE01F6
:103F400001960E94CC1E8091E80085FF29C0262D95
:103F500030E0021B130B992039F06A948FEF68163A
:103F6000B1F01092F100F9CFF701862D77FE07C06E
:103F7000815058F094919093F1003196F9CF81508F
:103F800020F091919093F100FACFE20EF31E809110
:103F9000E80085FF0FC00115110511F481100AC05A
:103FA00089818FBFC1CF5D9884E68093C2048C2D38
:103FB0009B2D03C0A092E800F3CF0F90DF91CF912B
:103FC0001F910F91FF90EF90DF90CF90BF90AF9037
:103FD0009F908F907F906F9008951092E9001092BB
:103FE000BD041092BC049093BB048093BA0408955E
:103FF000CF92DF92FF920F931F93CF93DF9300D066
:10400000CDB7DEB7F82E8A016B0101151105B1F0AD
:10401000F601F7FE02C0849101C0808149835A8372
:104020000E94281E01501109FFEFCF1ADF0A4981B3
:104030005A818111EACF8FEF9FEF01C0CA010F9023
:104040000F90DF91CF911F910F91FF90DF90CF9054
:104050000895BF92CF92DF92EF92FF920F931F933A
:10406000CF93DF936C018B01EB013BEFB32E2097D5
:10407000C1F07E01C134D1051CF020E4E22EF12C08
:104080008091E80082FFFCCFC8018C1B9D0B6E2D38
:104090008C0D9D1D0E941B1EB092E800CE19DF09F9
:1040A000E6CFC801DF91CF911F910F91FF90EF9064
:1040B000DF90CF90BF9008951F920F920FB60F928E
:1040C0001124DF92EF92FF920F931F932F933F9350
:1040D0004F935F936F937F938F939F93AF93BF9310
:1040E000EF93FF93CF93DF93CDB7DEB76C97DEBF2F
:1040F000CDBF1092E9008091E80083FF23C168E002
:10410000CE0145960E941B1E82EF8093E8003D89F8
:1041100037FF05C08091E80080FFFCCF03C08EEF21
:104120008093E800832F807609F0F0C02E894F89B4
:10413000D88C21110CC0303829F48091BF048093B1
:10414000F10002C01092F1001092F100F4C0842F2F
:1041500090E09D29213049F43111EDC0019709F01B
:10416000EAC08091BF048D7F0AC0233059F4311119
:10417000E2C0019709F0DFC08091BF0482608093A4
:10418000BF04D9C0253041F48091E80080FFFCCF06
:1041900040684093E300CFC0263009F08DC0EB8C1F
:1041A000FC8C22E0D2122CC080E090E00E94ED1F37
:1041B0000E94B61E99E08E010F5F1F4FF801292F54
:1041C00011922A95E9F79983DA8291E09E8390EA29
:1041D00098879AEF99872091BC043091BD04275F9E
:1041E0003F4F3C832B838D83C7010E94ED1F49E025
:1041F00050E0B80180E00E94F81F0E94B61E9BC0EC
:10420000C7010E94ED1F0E94F222BE016B5E7F4F2C
:104210000E949422009719F00CF08DC090C081E0AC
:10422000D8120EC08B8D9C8D089719F481E0809375
:10423000B9048091B90481112FC061EE71E031C0E1
:10424000E3E0DE127CC08F89882349F1823029F4B3
:1042500040E862E186E092E01CC0813029F440E849
:1042600062E183EF91E015C0833009F068C00E94DD
:10427000F2228E010F5F1F4FB8010E94B322F80196
:1042800001900020E9F73197E01BF10B40E06E2F21
:10429000C8010E94561E4DC06FEC71E002C069E17A
:1042A00072E06115710509F44AC0FB01449150E0C8
:1042B00080E80E94F81F3FC0273009F440C0283032
:1042C00021F481E08093F10036C02930A1F53370EC
:1042D000B1F5ECE6F1E081E021E036E3908199234D
:1042E00061F08093E9002093EB0091919093EC00B2
:1042F0003093ED008F5F873089F78EE78093EA0077
:104300001092EA008F898093C00415C08B8D9C8D1C
:104310000E94ED1F898D811105C0CE0145960E9436
:10432000751B07C00E94F222BE016B5E7F4F0E9488
:10433000D222882321F08EEF8093E80003C081E22F
:104340008093EB006C960FB6F894DEBF0FBECDBF26
:10435000DF91CF91FF91EF91BF91AF919F918F919D
:104360007F916F915F914F913F912F911F910F918D
:10437000FF90EF90DF900F900FBE0F901F90189559
:104380008093E9008091F200882319F08AE38093FA
:10439000E80008951F920F920FB60F9211242F93E9
:1043A0003F934F935F936F937F938F939F93AF93BD
:1043B000BF93CF93EF93FF93C091E1008091E10011
:1043C000837F8093E1008093E100C3FF0FC01092D0
:1043D000E90081E08093EB001092EC0082E380938F
:1043E000ED001092C00488E08093F000C2FF19C075
:1043F00083E00E94C0218091C204882339F080911B
:10440000C20481508093C204882389F18091C10441
:10441000882339F08091C10481508093C10488239E
:1044200041F1C4FF10C08091E2008E7E81608093D4
:10443000E2008091E1008F7E8093E1008091BE04D4
:104440008E7E806111C0C0FF16C08091E2008E7E1A
:1044500080618093E2008091E1008E7E8093E10094
:104460008091BE048E7E81608093BE0404C05D9AFC
:10447000CDCF289AD6CFFF91EF91CF91BF91AF9139
:104480009F918F917F916F915F914F913F912F916C
:104490000F900FBE0F901F9018951092C0041092AD
:1044A000BF041092BE040E94931E8091E1008E7E94
:1044B0008093E1008DE08093E200559A209AEEEF20
:1044C000FFE7859194918B3F9C4D19F481E0809397
:1044D000B70408950895EF92FF920F931F93CF931F
:1044E000DF937B01FC01C281D38100E010E02097C3
:1044F00081F0E881F9810280F381E02DB701CE01DE
:10450000099597FD08C0080F191F0884D985C02D8B
:10451000EECFC80102C08FEF9FEFDF91CF911F91C7
:104520000F91FF90EF9008950F931F93CF93DF9318
:104530008B01FC01C281D381209771F0E881F98160
:104540000480F581E02DB801CE010995009731F482
:104550000884D985C02DF0CF80E090E0DF91CF9125
:104560001F910F9108950F931F93CF93DF938B01AA
:10457000FC01C281D381209771F0E881F981068026
:10458000F781E02DB801CE010995080F111D0884AF
:10459000D985C02DF0CFF8011082DF91CF911F9106
:1045A0000F9108950F931F93CF93DF938B01FC011D
:1045B000C281D381209771F0E881F9810190F08167
:1045C000E02DB801CE010995811106C00884D98576
:1045D000C02DF0CF80E001C081E0DF91CF911F912D
:1045E0000F9108958091C70481110DC082E08093DE
:1045F000C30484E08093C4041092C6041092C504DE
:1046000081E08093C70483EC94E008955058BB2761
:10461000AA270ED027C2F0D130F0F5D120F031F426
:104620009F3F11F41EF4C0C10EF4E095E7FBB6C144
:10463000E92F3AD280F3BA17620773078407950708
:1046400018F071F49EF552C20EF4E0950B2EBA2FBD
:10465000A02D0B01B90190010C01CA01A001112488
:10466000FF27591B99F0593F50F4503E68F11A1634
:10467000F040A22F232F342F4427585FF3CF4695C5
:1046800037952795A795F0405395C9F77EF41F16E7
:10469000BA0B620B730B840BBAF09150A1F0FF0FB1
:1046A000BB1F661F771F881FC2F70EC0BA0F621F9D
:1046B000731F841F48F4879577956795B795F7958D
:1046C0009E3F08F0B3CF9395880F08F09927EE0F1F
:1046D00097958795089590D158F080E891E009F476
:1046E0009EEF91D128F040E851E059F45EEF09C007
:1046F0005BC1FCC1E92FE078D7D168F3092E052A08
:10470000C1F3261737074807590738F00E2E07F868
:10471000E02569F0E025E0640AC0EF6307F8009443
:1047200007FADB01B9019D01DC01CA01AD01EF937C
:104730004AD098D10AD05F91552331F02BED3FE05C
:1047400049E450FD49EC63CF0895DF93DD27B92F8D
:10475000BF7740E85FE31616170648075B0710F4BB
:10476000D92FCFD19F938F937F936F933AD2EAEC57
:10477000F0E01DD177D12F913F914F915F91D4D12E
:10478000DD2349F09058A2EA2AED3FE049EC5FE3CF
:10479000D0785D274DDFDF9165C1DCD008F481E082
:1047A000089539D1E3956FC10CD05CC12CD140F094
:1047B00023D130F021F45F3F19F0F0C0511197C1BF
:1047C000F3C072D198F39923C9F35523B1F3951B24
:1047D000550BBB27AA2762177307840738F09F5F22
:1047E0005F4F220F331F441FAA1FA9F333D00E2E91
:1047F0003AF0E0E830D091505040E695001CCAF7FE
:1048000029D0FE2F27D0660F771F881FBB1F2617C2
:1048100037074807AB07B0E809F0BB0B802DBF0195
:10482000FF2793585F4F2AF09E3F510568F0B6C0AE
:104830005EC15F3FECF3983EDCF386957795679514
:10484000B795F7959F5FC9F7880F911D9695879546
:1048500097F90895E1E0660F771F881FBB1F621765
:1048600073078407BA0720F0621B730B840BBA0B23
:10487000EE1F88F7E095089504D06894B11137C110
:1048800008951AD188F09F5790F0B92F9927B75102
:10489000A0F0D1F0660F771F881F991F1AF0BA9504
:1048A000C9F712C0B13081F021D1B1E008951EC125
:1048B000672F782F8827B85F39F0B93FCCF38695FA
:1048C00077956795B395D9F73EF490958095709557
:1048D00061957F4F8F4F9F4F0895E89409C097FBD4
:1048E0003EF490958095709561957F4F8F4F9F4FC7
:1048F0009923A9F0F92F96E9BB279395F69587950B
:1049000077956795B795F111F8CFFAF4BB0F11F4CD
:1049100060FF1BC06F5F7F4F8F4F9F4F16C0882374
:1049200011F096E911C0772321F09EE8872F762FAA
:1049300005C0662371F096E8862F70E060E02AF0EB
:104940009A95660F771F881FDAF7880F96958795D7
:1049500097F90895990F0008550FAA0BE0E8FEEFAC
:1049600016161706E807F907C0F012161306E40733
:10497000F50798F0621B730B840B950B39F40A262C
:1049800061F0232B242B252B21F408950A2609F40A
:10499000A140A6958FEF811D811D089597F99F670E
:1049A00080E870E060E008959FEF80EC0895DF9369
:1049B000CF931F930F93FF92EF92DF927B018C01B5
:1049C000689405C0DA2EEF01AFD0FE01E894A591FE
:1049D0002591359145915591AEF3EF0129DEFE0108
:1049E0009701A801DA9479F7DF90EF90FF900F918B
:1049F0001F91CF91DF91089500240A94161617068F
:104A000018060906089500240A94121613061406BF
:104A100005060895C9CF50D0E8F3E894E0E0BB273D
:104A20009F57F0F02AED3FE049EC06C0EE0FBB0FB8
:104A3000661F771F881F28F0B23A62077307840742
:104A400028F0B25A620B730B840BE3959A9572F7B8
:104A5000803830F49A95BB0F661F771F881FD2F7F6
:104A60009048C8C0092E0394000C11F4882352F01A
:104A7000BB0F40F4BF2B11F460FF04C06F5F7F4F8A
:104A80008F4F9F4F0895EF93E0FF06C0A2EA2AEDF3
:104A90003FE049EC5FEBCCDDE5DF0F90039401FCD8
:104AA0009058E7EFF0E0B2C057FD9058440F551F03
:104AB00059F05F3F71F04795880F97FB991F61F0A0
:104AC0009F3F79F087950895121613061406551F17
:104AD000F2CF4695F1DF08C0161617061806991F83
:104AE000F1CF86957105610508940895E894BB2778
:104AF00066277727CB0197F908952CDF08F48FEF0D
:104B000008959B01AC0160E070E080E89FE34CCE2B
:104B10000BD0A8CF71DF28F076DF18F0952309F0CD
:104B20003DCF42CF1124E3CFBFDFA0F3959FD1F358
:104B3000950F50E0551F629FF001729FBB27F00D4B
:104B4000B11D639FAA27F00DB11DAA1F649F6627A0
:104B5000B00DA11D661F829F2227B00DA11D621FEF
:104B6000739FB00DA11D621F839FA00D611D221FA9
:104B7000749F3327A00D611D231F849F600D211D8D
:104B8000822F762F6A2F11249F5750408AF0E1F030
:104B900088234AF0EE0FFF1FBB1F661F771F881F79
:104BA00091505040A9F79E3F510570F0F7CE9FCF2E
:104BB0005F3FECF3983EDCF3869577956795B79564
:104BC000F795E7959F5FC1F7FE2B880F911D96958E
:104BD000879597F908959F931EDF0F9007FCEE5F6E
:104BE00052CF9B01AC0194CFB5DE880B990B089591
:104BF0009F3F31F0915020F4879577956795B79551
:104C0000880F911D9695879597F908959F938F9397
:104C10007F936F93FF93EF939B01AC0179DFEF914B
:104C2000FF91C5DE2F913F914F915F9171CFDB01D5
:104C30008F939F930E949D26BF91AF91A29F800D5D
:104C4000911DA39F900DB29F900D11240895991B63
:104C500079E004C0991F961708F0961B881F7A9573
:104C6000C9F780950895AA1BBB1B51E107C0AA1F75
:104C7000BB1FA617B70710F0A61BB70B881F991FFD
:104C80005A95A9F780959095BC01CD010895A1E2B0
:104C90001A2EAA1BBB1BFD010DC0AA1FBB1FEE1FB6
:104CA000FF1FA217B307E407F50720F0A21BB30B01
:104CB000E40BF50B661F771F881F991F1A9469F77D
:104CC00060957095809590959B01AC01BD01CF01D9
:104CD0000895052E97FB1EF400940E94802657FD30
:104CE00007D00E94472607FC03D04EF40C94802680
:104CF00050954095309521953F4F4F4F5F4F089508
:104D000090958095709561957F4F8F4F9F4F089537
:104D1000EE0FFF1F0590F491E02D0994A29FB001C2
:104D2000B39FC001A39F700D811D1124911DB29FDF
:104D3000700D811D1124911D08950E948E26A59F3E
:104D4000900DB49F900DA49F800D911D1124089586
:0E4D500081E090E0F8940C94AD26F894FFCF2B
:104D5E000000CF0480000000C8420000C8420000DE
:104D6E00B041000000000000000000000000000044
:104D7E00B0C1DB0F49400000000000000000000041
:104D8E000000000000000000000000000000000015
:104D9E00000000000000000000000F00F4010400FD
:104DAE00D00704014A184A184A184A184A1801FF2F
:104DBE00FFFFFF00E100000000000000C180810045
:104DCE000000018001800180FF7FFF7FFF7F564D35
:104DDE004450455F36007C005F564D4450450D0AE9
:104DEE0000564D4450455F3300564D4450455F3795
:104DFE0000564D4450455F3500564D4450455F3486
:104E0E000043616C6962726174696F6E20477972DA
:104E1E006F20526561643A0052756E20233A004746
:104E2E0079726F204F666673657400564D44504517
:104E3E005F3100564D4450455F3200564D4450563A
:104E4E005F317C315F564D4450560D0A0000000014
:104E5E0000B016B5163C01140A00000000020BD576
:104E6E000AAA0AB20AC50AD40A564D4450435F0034
:104E7E005F564D4450430D0A004572726F723A20D0
:104E8E00417474656D707420746F20736574206145
:104E9E0020726561642D6F6E6C7920766172696126
:104EAE00626C65206F722064617461207479706524
:104EBE00206E6F7420737570706F727465640D0A56
:104ECE00009C01B501CF01EA0107022602470269E3
:104EDE00028E02B502DE020A0300000000B016B513
:104EEE00160B1B0B1B000000000D1B541B371B4722
:104EFE001B231B341B6E616E00696E66006F766637
:044F0E00002E000071
:00000001FF
