:100000000C9412010C9449180C9470180C949718C5
:100010000C94BE180C943A010C943A010C94E51817
:100020000C943A010C94AD160C9478210C940A208F
:100030000C943A010C943A010C943A010C943A0154
:100040000C943A010C943A010C943A010C943A0144
:100050000C943A010C943A010C943A010C940C194A
:100060000C943A010C943A010C943A010C943A0124
:100070000C943A010C943A010C943A010C943A0114
:100080000C943A010C943A010C943A010C943A0104
:100090000C94670C0C943A010C943A010C943A01BC
:1000A0000C943A010C9447150C943A015E1A611AAB
:1000B000501A541A5A1A821A821A821A651A691A1E
:1000C0006D1A731A771A821A7D1A084AD73B3BCEEB
:1000D000016E84BCBFFDC12F3D6C74319ABD568347
:1000E0003DDA3D00C77F11BED9E4BB4C3E916BAAFF
:1000F000AABE000000803F05A84CCDB2D44EB9384E
:1001000036A9020C50B9918688083CA6AAAA2ABE34
:10011000000000803F00070605040100080A0B0CE0
:100120000D090000000200090F0000030401000C8B
:1001300000000000000000000000000000000000BF
:1001400000040802011040804010204080408008D8
:100150000204018040201002011080102040402045
:10016000040404040403040502020202040302025C
:100170000202060606060606040402020204040041
:10018000000000250028002B002E003100080B0085
:10019000020202010009040000010202000005241D
:1001A00000100105240101010424020605240600B3
:1001B000010705810310004009040100020A000044
:1001C00000070502024000000705830240000012FC
:1001D000010002EF020140FB1F00230001010203A6
:1001E000011201000200000040FB1F00230001017A
:1001F000020301506F6C6F6C7520436F72706F72E9
:100200006174696F6E00506F6C6F6C7520412D5377
:100210007461722033325534000403090400460A25
:100220007D0BC11B11241FBECFEFDAE0DEBFCDBFB7
:1002300012E0A0E0B1E0EAEBFCE402C005900D9210
:10024000A43AB107D9F724E0A4EAB2E001C01D92B4
:10025000AF3BB207E1F712E0C4E2D2E004C022975C
:10026000FE010E943826CE31D107C9F70E94DF1B5C
:100270000C945B260C9400005B98539A0895FC0143
:10028000A2EEB0E08C9180831C92A9EEB0E08C913C
:1002900081831C92A0EFB0E08C9182831C92089520
:1002A000FC01A9EEB0E01C9282818093F000818174
:1002B0008C9380818093E200089560FF02C02B9AA6
:1002C00001C02B98239A61FF02C0289A01C0289888
:1002D000209A62FF02C0479A01C047983F9A63FF85
:1002E00002C05D9A01C05D98559A5B9A539A85E069
:1002F0008A95F1F700005B98539A85E08A95F1F7AB
:10030000000008954F925F926F927F928F929F921A
:10031000AF92BF92CF92DF92EF92FF920F931F9313
:10032000CF93DF93CDB7DEB728970FB6F894DEBF33
:100330000FBECDBF4B015C0129013A01C801B701D5
:1003400024E13EE643E654E40E9436256B017C013D
:100350002DE03FEE4AE850E4C501B4010E94362585
:10036000A70196010E94822369837A838B839C83F1
:100370002DE03FEE4AE850E4C301B2010E94362569
:10038000A70196010E9482236D837E838F839887C5
:10039000A3019201C501B4010E94B52220E030E022
:1003A00040E05FE30E9436252DE03FEE4AE850E44E
:1003B0000E943625A70196010E9482236093D302F2
:1003C0007093D4028093D5029093D60289819A814A
:1003D000AB81BC818093D7029093D802A093D902BD
:1003E000B093DA028D819E81AF81B8858093DB0264
:1003F0009093DC02A093DD02B093DE029C01AD017C
:1004000069817A818B819C810E94B4222BE43AEC31
:1004100048E95EE30E9436256093DF027093E002B4
:100420008093E1029093E20228960FB6F894DEBF23
:100430000FBECDBFDF91CF911F910F91FF90EF9035
:10044000DF90CF90BF90AF909F908F907F906F90F4
:100450005F904F9008958F929F92AF92BF92CF92EC
:10046000DF92EF92FF92CF93DF934B015C01C0E0EC
:10047000D0E0C12CD12C7601CF30D105C1F08DE276
:1004800093E00E94DD0E6091310370913203882762
:1004900077FD8095982F0E941D249B01AC01C70118
:1004A000B6010E94B5226B017C012196E5CF20E0C8
:1004B00030E040E751E4C701B6010E94822320E00A
:1004C00030E04CE051E40E9436252FE632E143E86B
:1004D0005AE30E94362525E33AEF4EE85CE30E949A
:1004E000362520E030E04AE754E40E948223A5014B
:1004F00094010E943625DF91CF91FF90EF90DF901D
:10050000CF90BF90AF909F908F9008958F929F92C1
:10051000AF92BF92CF92DF92EF92FF92CF93DF9391
:100520006B017C0149015A0181E094E00E94BC0DFD
:10053000C2E3D4E06EE771E0888199810E94081CD3
:1005400066E871E0888199810E94081C22E030E011
:10055000B701A601888199810E94C71D68E871E0F2
:10056000888199810E94081C65E070E080E090E03D
:100570000E948519C701B6010E942B022091EB024F
:100580003091EC024091ED025091EE020E94B522B2
:100590002AE939E949E15EE30E9436256B017C01D5
:1005A0002AE939E949E55FE3C501B4010E9436252E
:1005B0009B01AC01C701B6010E94B522DF91CF912A
:1005C000FF90EF90DF90CF90BF90AF909F908F9073
:1005D00008952F923F924F925F926F927F928F92E7
:1005E0009F92AF92BF92CF92DF92EF92FF920F93C2
:1005F0001F93CF93DF930E9456190E945619C09003
:10060000B102D090B202E090B302F090B4026C1943
:100610007D098E099F096093B5027093B60280939D
:10062000B7029093B8020E9443171C010E944C1716
:10063000EC01B101882777FD8095982F0E941D2439
:100640006B017C016091FB027091FC02882777FDB1
:100650008095982F0E941D249B01AC01C701B60113
:100660000E94B4222B013C016093A9027093AA025C
:100670008093AB029093AC02BE01882777FD8095F2
:10068000982F0E941D246B017C016091FD027091E6
:10069000FE02882777FD8095982F0E941D249B01DC
:1006A000AC01C701B6010E94B4224B015C0160930A
:1006B000A5027093A6028093A7029093A80260916E
:1006C000B5027091B6028091B7029091B8020E9473
:1006D0001B247B018C01A3019201C501B4010E947E
:1006E00082012DE03FEE4AE850E46091A50270914E
:1006F000A6028091A7029091A8020E94362524E1CB
:100700003EE643E654E40E9482234B015C012DE067
:100710003FEE4AE850E46091A9027091AA028091EC
:10072000AB029091AC020E94362524E13EE643E6FE
:1007300054E40E9482232B013C019B01AC01C501C2
:10074000B4010E94B52220E030E040E05FE30E9467
:1007500036256B017C01A3019201C501B4010E9401
:10076000B4222BE43AEC48E95EE30E9436254B01C3
:100770005C0181E094E00E94BC0D61E971E0809130
:100780003204909133040E94081C66E871E0809165
:100790003204909133040E94081C22E030E0B5013D
:1007A000A40180913204909133040E94C71D68E82F
:1007B00071E080913204909133040E94081C65E03E
:1007C00070E080E090E00E9485196091B502709120
:1007D000B6028091B7029091B8020E941B24A50135
:1007E00094010E9486024B015C01D093FE02C093EB
:1007F000FD023092FC022092FB02A701960160915B
:10080000E3027091E4028091E5029091E6020E9479
:10081000B5226093EF027093F0028093F1029093FF
:10082000F2021092F3021092F4021092F50210926A
:10083000F60220E030E0A901C501B4010E947B234B
:1008400087FF0DC08BED9FE0A9ECB0E48093F70229
:100850009093F802A093F902B093FA021BC02BED1B
:100860003FE049EC50E4C501B4010E942B25181665
:100870004CF08092F7029092F802A092F902B092A6
:10088000FA0208C01092F7021092F8021092F902D0
:100890001092FA028090F7029090F802A090F9026C
:1008A000B090FA02C501B4010E947F239B01AC0104
:1008B000C701B6010E9436259B01AC016091BB02C5
:1008C0007091BC028091BD029091BE020E94B5223F
:1008D0006093C7027093C8028093C9029093CA02C2
:1008E000C501B4010E9499259B01AC01C701B60165
:1008F0000E9436259B01AC016091BF027091C0023D
:100900008091C1029091C2020E94B5226093CB02F5
:100910007093CC028093CD029093CE028092CF024E
:100920009092D002A092D102B092D20281E094E0E3
:100930000E94BC0D69E971E080913204909133040A
:100940000E94081C66E871E08091320490913304A3
:100950000E94081C4091C7025091C8026091C902D0
:100960007091CA0222E030E0809132049091330409
:100970000E94C71D66E871E08091320490913304B3
:100980000E94081C4091CB025091CC026091CD0294
:100990007091CE0222E030E08091320490913304D5
:1009A0000E94C71D66E871E0809132049091330483
:1009B0000E94081C4091CF025091D0026091D10258
:1009C0007091D20222E030E08091320490913304A1
:1009D0000E94C71D68E871E0809132049091330451
:1009E0000E94081C65E070E080E090E00E9485199C
:1009F0000E9456196093B1027093B2028093B302C1
:100A00009093B402E7ECF2E04BEB52E02FEE32E0D1
:100A100063EE72E081919191A191B191EA01899384
:100A20009993A993B993AE01E90189919991A991FB
:100A3000B9919E01EB0189939993A993B993BE0152
:100A4000D2E0E33DFD0731F7DF91CF911F910F9188
:100A5000FF90EF90DF90CF90BF90AF909F908F90DE
:100A60007F906F905F904F903F902F900C9456190D
:100A7000CF92DF92EF92FF92CF93DF9360E070E02E
:100A800080E090E00E94EE17CAEFD0E0C12CD12C9C
:100A900076018DE293E00E94DD0E6AE070E080E076
:100AA00090E00E948519609131037091320388278C
:100AB00077FD8095982F0E941D249B01AC01C701F2
:100AC000B6010E94B5226B017C0161EA71E087E505
:100AD00094E00E94151C22E030E0B701A60187E5F2
:100AE00094E00E94C71D68EB71E087E594E00E94E6
:100AF000151C4AE050E06AEF70E087E594E00E9440
:100B0000C01C68E172E087E594E00E94151C219703
:100B100009F0BFCF20E030E04AE753E4C701B60157
:100B20000E9482236093AD027093AE028093AF0265
:100B30009093B0026FEB71E087E594E00E94151C82
:100B40004091AD025091AE026091AF027091B0023F
:100B500022E030E087E594E0DF91CF91FF90EF90C5
:100B6000DF90CF900C94C71D4F925F926F927F924F
:100B70008F929F92AF92BF92CF92DF92EF92FF92AD
:100B8000CF93DF932CE0289FE001299FD00D112403
:100B9000C25FDE4F2091C7023091C8024091C90266
:100BA0005091CA02688179818A819B810E94B42216
:100BB0002B013C012091CB023091CC024091CD021F
:100BC0005091CE026C817D818E819F810E94B422E2
:100BD0004B015C0120E030E0A901C301B2010E9499
:100BE0007B2381111AC020E030E0A901C501B401C6
:100BF0000E947B23811124C0288539854A855B8525
:100C00006091F7027091F8028091F9029091FA02D6
:100C10000E94B5226B017C0113C0A3019201C501A2
:100C2000B4010E9428236B017C0120E030E0A9017F
:100C30000E947B2387FF04C0F7FAF094F7F8F09442
:100C400081E094E00E94BC0D6BEC71E08091320475
:100C5000909133040E94081C66E871E08091320490
:100C6000909133040E94081C22E030E0B701A601F5
:100C700080913204909133040E94C71D68E871E0AE
:100C800080913204909133040E94081C65E070E06A
:100C900080E090E00E9485198091B9029091BA029B
:100CA000009709F076C02091A9023091AA024091E4
:100CB000AB025091AC026091A5027091A6028091A6
:100CC000A7029091A8020E94B4226B017C0120E04F
:100CD00030E0A9010E942B2518162CF520E030E009
:100CE00040EA50E460910A0170910B0180910C017F
:100CF00090910D010E94B52260930A0170930B013F
:100D000080930C0190930D0120E030E040EA50E424
:100D1000609106017091070180910801909109018D
:100D20000E94B4222DC020E030E0A901C701B60125
:100D30000E947B2387FF24C120E030E040EA50E49A
:100D400060910A0170910B0180910C0190910D014D
:100D50000E94B42260930A0170930B0180930C01EE
:100D600090930D0120E030E040EA50E460910601EC
:100D70007091070180910801909109010E94B522AC
:100D80006093060170930701809308019093090115
:100D9000F7C0019709F0F4C0C090A902D090AA0250
:100DA000E090AB02F090AC028090A5029090A60279
:100DB000A090A702B090A802A7019601C501B401B6
:100DC0000E94B52229EC36E746ED5FE30E94362506
:100DD0002B013C01A5019401C701B6010E94B42278
:100DE0009B01AC015F77C301B2010E9482236B01BA
:100DF0007C0120E030E040E351E40E942B251816EE
:100E00002CF520E030E040EA50E460910A01709156
:100E10000B0180910C0190910D010E94B52260930D
:100E20000A0170930B0180930C0190930D0120E057
:100E300030E040EA50E46091060170910701809132
:100E40000801909109010E94B4222EC020E030E0F8
:100E500040E351E4C701B6010E947B2387FF2CC009
:100E600020E030E040EA50E460910A0170910B010B
:100E700080910C0190910D010E94B42260930A01AF
:100E800070930B0180930C0190930D0120E030E0F2
:100E900040EA50E4609106017091070180910801D9
:100EA000909109010E94B522609306017093070199
:100EB0008093080190930901E0900A01F0900B01E2
:100EC000D0910C01C0910D0120E030E046E952E4E0
:100ED000B7018D2F9C2F0E947B2387FD10C020E03F
:100EE00030E041E653E4B7018D2F9C2F0E942B2563
:100EF00018164CF4E12CF12CD1E6C3E404C0E12C2B
:100F0000F12CD6E9C2E4C701AD2FBC2F80930A01B2
:100F100090930B01A0930C01B0930D01E09006019A
:100F2000F0900701D0910801C091090120E030E064
:100F300046E952E4B7018D2F9C2F0E947B2387FD49
:100F400010C020E030E041E653E4B7018D2F9C2F24
:100F50000E942B2518164CF4E12CF12CD1E6C3E4A9
:100F600004C0E12CF12CD6E9C2E4C701AD2FBC2F9F
:100F70008093060190930701A0930801B0930901A3
:100F8000DF91CF91FF90EF90DF90CF90BF90AF9027
:100F90009F908F907F906F905F904F9008958F9269
:100FA0009F92AF92BF92CF92DF92EF92FF920F93F8
:100FB0001F93CF93DF93EC0180E090E0A8ECB2E4C4
:100FC00080930A0190930B01A0930C01B0930D0143
:100FD0008093060190930701A0930801B093090143
:100FE0008091B9029091BA02009709F068C08CE034
:100FF0008C9F80018D9F100D1124025F1E4FC090A9
:10100000C702D090C802E090C902F090CA02F8016D
:1010100080809180A280B38020E030E040E05FE3F8
:10102000C501B4010E94B4229B01AC01C701B60105
:101030000E947B2318160CF1609106017091070144
:1010400080910801909109010E94EA236B017C01C3
:1010500060910A0170910B0180910C0190910D013A
:101060000E94EA23DC01CB01B6010E94EE170E9428
:10107000E902CE010E94B405C2CF20E030E040E09A
:101080005FE3C501B4010E94B5229B01AC01C70119
:10109000B6010E942B2587FFCFCF60E070E080E093
:1010A00090E0DF91CF911F910F91FF90EF90DF9033
:1010B000CF90BF90AF909F908F900C94EE170197B8
:1010C00009F08AC089E098EEABE4B3E480930A01AA
:1010D00090930B01A0930C01B0930D0164E670E0B6
:1010E0008BEC90E00E94EE176AEF70E080E090E0F9
:1010F0000E9485198CE08C9F80018D9F100D11241A
:101100000A5E1E4FC090CF02D090D002E090D10274
:10111000F090D202F80180809180A280B3802DEC03
:101120003CEC4CEC5DE3C501B4010E94B5229B018F
:10113000AC01C701B6010E942B2587FD3BC0609121
:1011400006017091070180910801909109010E94A8
:10115000EA236B017C0160910A0170910B0180917F
:101160000C0190910D010E94EA23DC01CB01B60134
:101170000E94EE170E94E90240E060E08AE393E0FB
:101180000E9429164091CF025091D0026091D10265
:101190007091D20222E030E08AE393E00E94C71D02
:1011A00041E060E08AE393E00E942916CE010E94AC
:1011B000B405A8CF2DEC3CEC4CEC5DE3C501B401CB
:1011C0000E94B4229B01AC01C701B6010E947B239F
:1011D00018160CF0B4CF61CFDF91CF911F910F9112
:1011E000FF90EF90DF90CF90BF90AF909F908F9047
:1011F000089540ED57E060E070E081E094E00E94E7
:10120000060E20E032EC41E050E067E574E081E05A
:1012100094E00E94BF0D81E094E00E94BC0D6BED54
:1012200071E080913204909133040E94081C6AE0BE
:1012300070E080E090E00E94851941E060E081E08C
:1012400094E00E94780E81E493E00E94EF0A80917E
:10125000A402811105C081E08093A4020E94FA16C5
:1012600042E050E063E070E08DE293E00E94870F7F
:101270008DE293E00E94C50E0E94380542E050E0E6
:1012800064E070E08FEF92E00E940B118FEF92E02C
:101290000E9491100E9455170E94621781E00E94DF
:1012A000A41781E00C94A717C8E083E10E94151AE7
:1012B000C150D9F70E9476170E946F17C1E0D0E0A5
:1012C000D093BA02C093B9026091060170910701F0
:1012D00080910801909109010E94EA236B017C0131
:1012E00060910A0170910B0180910C0190910D01A8
:1012F0000E94EA23DC01CB01B6010E94EE17109296
:10130000BA021092B90280E090E00E94CF07D09319
:10131000BA02C093B90281E090E00E94CF0760E07A
:1013200070E080E090E00E94EE17F9CF20E05D9938
:10133000216055992260FC0120830895FC012081E1
:1013400021FB0EF0559820FB0EF05D980EF45D9A8F
:1013500021FB0EF4559A089520E0289921602099E8
:101360002260FC0120830895FC01208121FB0EF006
:10137000209820FB0EF028980EF4289A21FB0EF4FA
:10138000209A0895FF920F931F93CF93DF93CDB7C9
:10139000DEB72A970FB6F894DEBF0FBECDBF8C0123
:1013A000F62ECE0101962A8749870E943F0130E040
:1013B0005A993160529932603E8330E02B99316006
:1013C000239932603F83CE0105960E94AC0930E03C
:1013D000479931603F9932603887CE0104960E9468
:1013E000960949852A85442311F05A9A01C05A98D2
:1013F000529A21110AC06F2D70E094E0759567959F
:101400009A95E1F7C8010E945D016F2D6F70C801C8
:101410000E945D01CE0104960E949E09288521FB51
:101420000EF03F9820FB0EF047980EF4479A21FBF0
:101430000EF43F9ACE0105960E94B4093F8131FB1C
:101440000EF0239830FB0EF02B980EF42B9A31FB04
:101450000EF4239A2E8121FB0EF0529820FB0EF001
:101460005A980EF45A9A21FB0EF4529ACE01019624
:101470000E9450012A960FB6F894DEBF0FBECDBF72
:10148000DF91CF911F910F91FF9008958AE393E030
:101490000E94981581EF91E090933B0380933A036B
:1014A0008DE293E00E94930E8FEF92E00C94141063
:1014B0008091710390E020917203821B910908953D
:1014C0002091720380917103281750F4E22FF0E00D
:1014D000ED58FC4F808190E02F5F209372030895B8
:1014E0008FEF9FEF0895E091720380917103E817E9
:1014F00030F4F0E0ED58FC4F808190E008958FEFDC
:101500009FEF08950895CF92DF92EF92FF920F938D
:101510001F93CF93DF937C01CB018A0120914D0370
:10152000222389F0EB016B01C40ED51ECC15DD051D
:1015300069F06991D701ED91FC910190F081E02D66
:10154000C7010995F3CF642F0E943E0CC801DF91BB
:10155000CF911F910F91FF90EF90DF90CF90089562
:10156000CF93DF931F92CDB7DEB7698320914D03F0
:101570002223D1F020914E03203240F021E030E0D0
:10158000FC013383228380E090E015C080914F03FB
:10159000E82FF0E0E05BFC4F998190838F5F8093B0
:1015A0004F0380934E0305C061E0CE0101960E9477
:1015B0003E0C81E090E00F90DF91CF910895FC0107
:1015C0001382128248EE53E060E070E0448355835A
:1015D000668377838DEF91E09183808308951092E5
:1015E00072031092710310924F0310924E030C94E9
:1015F000810B81E080934D036093700310924F0341
:1016000010924E0308950F93062F21E040914E0350
:1016100060E573E0809170030E94E70B10924F0326
:1016200010924E0310924D030F9108958F929F9246
:10163000AF92BF92CF92DF92EF92FF920F931F93E0
:10164000CF93DF93EC01F62ED42E48015901EE2002
:1016500019F10E94F90A1E2D143008F013E0115000
:10166000B8F0E881F98128E0129FB0011124A501AA
:10167000940104C056954795379527956A95D2F7FA
:10168000CA01B9010190F081E02DCE010995E7CFA3
:1016900060E0CE010E94030B4D2D413208F040E284
:1016A0002C2D63E773E08F2D0E949F0B1092720325
:1016B00080937103DF91CF911F910F91FF90EF9075
:1016C000DF90CF90BF90AF909F908F900895CF9272
:1016D000EF920F931F93C22EE12C00E010E09801CF
:1016E0000E94160B1F910F91EF90CF90089521E06B
:1016F0000C94670B61E00C94030B81E493E00C9471
:10170000DF0A1092000481E08093FE031092FD0333
:1017100061E082E00E94831A61E083E00E94831A04
:10172000E9EBF0E080818E7F808380818D7F8083F4
:1017300088E48093B80085E48093BC00089541322A
:1017400008F043C0909100049111FCCF91E0909378
:1017500000042093FE032FEF209393031092D803ED
:10176000240F2093D7039093FF039091FF03880FDA
:10177000892B8093FF038091FD03813061F41092E7
:10178000FD038091FF038093BB008091BC0083FD2B
:10179000F8CF85EC01C085EE8093BC0080910004F9
:1017A0008130E1F38091D803841710F44091D8037D
:1017B00029ED33E0FB01D9018A2F821B841718F42D
:1017C0008D918193F9CF842F089580E008950F9330
:1017D000413208F04AC0909100049111FCCF92E090
:1017E000909300040093FE039FEF90939303109255
:1017F000D8034093D703FB0169ED73E0DB019A2F17
:10180000961B941718F491919D93F9CF1092FF03B2
:101810009091FF03880F892B8093FF038091FD0334
:10182000813061F41092FD038091FF038093BB002F
:101830008091BC0083FDF8CF85EC01C085EE8093DC
:10184000BC00222321F0809100048230E1F38091DA
:1018500093038F3F61F080919303803251F0809128
:101860009303803341F483E007C081E005C080E04A
:1018700003C082E001C084E00F910895613298F4C2
:1018800020910004243089F46093B503FC0187EBB8
:1018900093E0DC012A2F281B261718F421912D93A1
:1018A000F9CF80E0089581E0089582E0089585ED04
:1018B0008093BC008091BC0084FDFCCF109200049A
:1018C000089585EC8093BC001092000408951F9247
:1018D0000F920FB60F9211242F933F934F935F9364
:1018E0006F937F938F939F93AF93BF93EF93FF93E8
:1018F0008091B900887F803609F49EC078F58832DF
:1019000009F45DC090F4803109F456C038F488239E
:1019100009F4F5C0883009F44FC0F5C0883109F4E6
:101920004EC0803209F45FC0EEC0803409F46AC052
:1019300058F4803309F457C0883309F0E4C0809329
:1019400093030E94610CDFC0803509F44FC08835D5
:1019500009F45DC0883409F0D6C0D3C0883909F4D1
:10196000C4C0A8F4883709F467C038F4883609F48D
:1019700063C0803709F460C0C6C0883809F4B5C0B8
:10198000803909F45FC0803809F0BDC05BC0803B7E
:1019900009F483C038F4803A09F466C0883A09F43F
:1019A0007CC0B1C0803C09F4A4C0883C09F4A1C04B
:1019B000883B09F487C0A7C08091FF0310C09091B5
:1019C000D8038091D703981770F5E091D80381E090
:1019D0008E0F8093D803F0E0E752FC4F8081809314
:1019E000BB0085EC83C0809393038BC0E091D80348
:1019F00081E08E0F8093D8038091BB00F0E0E75226
:101A0000FC4F80839091D8038091D7036BC0E09105
:101A1000D80381E08E0F8093D8038091BB00F0E063
:101A2000E752FC4F80838091FE0381116AC081E000
:101A30008093FD0384EA5EC083E0809300041092EB
:101A40009403CFCF80919403803208F04EC0E09190
:101A5000940381E08E0F809394038091BB00F0E0AB
:101A6000EB56FC4F8083BDCF0E94610C80919403A4
:101A7000803230F4E0919403F0E0EB56FC4F10829A
:101A80006091940370E0E091F903F091FA0385E925
:101A900093E009951092940336C084E0809300048B
:101AA0001092B6031092B503E091FB03F091FC0392
:101AB00009958091B503811105C081E08093B5033C
:101AC0001092B703E091B60381E08E0F8093B603C6
:101AD000F0E0E954FC4F80818093BB009091B60305
:101AE0008091B503981708F47CCF85E88093BC00FB
:101AF0000AC085EC8093BC001092000404C01092D0
:101B000093030E94570CFF91EF91BF91AF919F916A
:101B10008F917F916F915F914F913F912F910F9096
:101B20000FBE0F901F9018950F931F93CF93DF93C5
:101B3000EC01662359F00E94561969837A838B83DE
:101B40009C83DF91CF911F910F9108950E945619A8
:101B500009811A812B813C81601B710B820B930BD5
:101B6000623371058105910530F763E070E080E034
:101B700090E00E948519EACF60E00C94940DCF921A
:101B8000DF92EF92FF920F931F93CF93DF9300D0DA
:101B900000D0CDB7DEB78C017B01FC0172AB61AB2D
:101BA0008BE1C82ED12CC70129833A834B835C83F8
:101BB0000E94B21B29813A814B815C81811113C043
:101BC000F1E0CF1AD10879F064E670E080E090E0AF
:101BD00029833A834B835C830E9485195C814B8106
:101BE0003A812981E0CFBA01A901F80181A992A91E
:101BF0000F900F900F900F90DF91CF911F910F9149
:101C0000FF90EF90DF90CF900C94AC1BFC0113AAD7
:101C100014AA15AA16AA11821282138214824115DF
:101C200051056105710521F0CB01BA010C948519AC
:101C300008951F93CF93DF93EC01162F69E072E0B4
:101C400089A99AA90E94081C4AE050E0612F89A93D
:101C50009AA90E94D51C60E172E089A99AA90E9404
:101C6000081C62E370E080E090E0DF91CF911F916B
:101C70000C9485191F93CF93DF93EC01162F8D8160
:101C8000882389F189A99AA9DC01ED91FC9104804E
:101C9000F581E02D0995892BA9F307C02637310579
:101CA00019F12835310509F41D8289A99AA9DC01A9
:101CB000ED91FC910480F581E02D09951816190627
:101CC00094F489A99AA9DC01ED91FC910680F78131
:101CD000E02D09959C01332723363105F9F6612F54
:101CE000CE010E94190E83E6DF91CF911F910895D6
:101CF0000F931F93CF93DF931F92CDB7DEB78C0165
:101D0000662349F081E0F801858360E0C8014983DA
:101D10000E943A0E4981F80145830F90DF91CF91DF
:101D20001F910F910895FC0183E090E090878783D5
:101D30001386128614860895EF92FF921F93CF9315
:101D4000DF931F92CDB7DEB77C01162FFC016185B2
:101D500081E493E049830E94F90A612F81E493E0D2
:101D60000E94B00A4981642F81E493E00E94B00A86
:101D700081E493E00E947A0BF70186830F90DF9154
:101D8000CF911F91FF90EF900895CF93DF93EC01D7
:101D90008F819885029729F440E069E3CE010E9483
:101DA0009C0E40E063E2CE010E949C0E4FE660E292
:101DB000CE01DF91CF910C949C0E9F92AF92BF9277
:101DC000CF92DF92EF92FF920F931F93CF93DF9307
:101DD000EC01698581E493E00E94F90AE0914103F6
:101DE000F09142030190F081E02D68EA81E493E0F4
:101DF000099581E493E00E947A0B46E0698581E4CD
:101E000093E00E94770B0E9456197B0181E493E0D6
:101E10000E94580A069784F48A859B85892BB1F322
:101E20000E9456196E197F098A859B858617970728
:101E300068F781E08C872CC081E493E00E94600AFF
:101E4000A82E81E493E00E94600A982E81E493E03A
:101E50000E94600AE82E81E493E00E94600AB82E96
:101E600081E493E00E94600AF82E81E493E00E94EE
:101E7000600AD92CC12CCA28D982C8821B2D00E047
:101E80000E291B830A83982F88278F299D838C8393
:101E9000DF91CF911F910F91FF90EF90DF90CF9046
:101EA000BF90AF909F9008951F93CF93DF931F92A1
:101EB000CDB7DEB7162F81E493E049830E94F90A7B
:101EC0004981642F81E493E00E94B00A81E493E0A9
:101ED0000E947A0B811114C041E0612F81E493E0EC
:101EE0000E94770B81E493E00E94580A892B41F00D
:101EF00081E493E00F90DF91CF911F910C94600AE1
:101F00008FEF9FEF0F90DF91CF911F910895EF9288
:101F1000FF920F931F93CF93DF937C01EB018A0114
:101F20006330710521F04230510509F051C0CE01F6
:101F30000197039758F50115110581F04FE050E026
:101F40006BE6C7010E94540F8F3F2FEF920719F0E5
:101F500001E010E013C00130110551F04FE050E0F6
:101F60006AE6C7010E94540F8F3FEFEF9E0721F4EE
:101F7000C330D10569F027C000E010E0C330D105BF
:101F800029F4873D9105F1F5C2E0D0E02097D9F41E
:101F90000115110561F04FE050E069E6C7010E94AC
:101FA000540F833D910589F10130110549F04FE04F
:101FB00050E068E6C7010E94540F833D910541F14E
:101FC000C330D10519F00230110511F480E025C0AD
:101FD000F701D087C783209759F0D7FD11C0239709
:101FE0007CF40130110511F48BE608C08AE606C0C6
:101FF0000130110511F489E601C088E6F7018187F7
:1020000081E00BC0C1E0D0E0C1CF01E010E002C030
:1020100000E010E0C0E0D0E0D6CFDF91CF911F917B
:102020000F91FF90EF900895CF93DF93EC0186E03E
:10203000E2E7F1E0DE01529601900D928A95E1F718
:1020400086E0E8E7F1E0DE011C9601900D928A95AA
:10205000E1F784E090E09A8F898F1CA61BA61DA64D
:10206000DF91CF910895EF92FF921F93CF93DF936B
:102070001F92CDB7DEB77C01162FFC01638D81E482
:1020800093E049830E94F90A612F81E493E00E9462
:10209000B00A4981642F81E493E00E94B00A81E490
:1020A00093E00E947A0BF701808F0F90DF91CF9120
:1020B0001F91FF90EF900895EF92FF921F93CF939F
:1020C000DF931F92CDB7DEB77C01162FFC01648D24
:1020D00081E493E049830E94F90A612F81E493E04F
:1020E0000E94B00A4981642F81E493E00E94B00A03
:1020F00081E493E00E947A0BF701808F0F90DF91CB
:10210000CF911F91FF90EF900895FC01218D328DAA
:102110002330310511F0603210F40C945C100C94F3
:102120003310CF93DF93EC01898D9A8D8330910525
:10213000D9F440E061E2CE010E94851047E560E2FB
:10214000CE010E94851044E664E2CE010E94851013
:1021500040E265E2CE010E94851040E066E2CE01D9
:10216000DF91CF910C948510029739F448E063E237
:10217000CE010E94331047E406C040E063E2CE0186
:102180000E94331047E260E2CE010E9433104CE01F
:1021900060E0CE010E945C1040E261E0CE010E944E
:1021A0005C1040E062E0CE01DF91CF910C945C10B6
:1021B0001F93CF93DF931F92CDB7DEB7162F81E425
:1021C00093E049830E94F90A4981642F81E493E0F6
:1021D0000E94B00A81E493E00E947A0B811114C03E
:1021E00041E0612F81E493E00E94770B81E493E06A
:1021F0000E94580A892B41F081E493E00F90DF910F
:10220000CF911F910C94600A8FEF9FEF0F90DF9199
:10221000CF911F910895EF92FF920F931F93CF9349
:10222000DF93EC018B017A016430710521F04230BB
:10223000510509F055C0C8010397029708F0CDC0B9
:10224000E114F10471F04FE050E06DE1CE010E9425
:10225000D8108934910509F4B8C081E0E816F1047A
:1022600051F04FE050E06EE1CE010E94D810893469
:10227000910509F4AEC00430110509F0D0C0E11495
:10228000F10469F040E250E069E1CE010E94D8100B
:10229000019679F421E0E216F10409F4A3C040E2CA
:1022A00050E068E1CE010E94D810019609F0A4C068
:1022B00099C00430110509F09BC04FE050E06EE179
:1022C000CE010E94D810EE24E394F12CCC9709F0B3
:1022D000A9C002E010E082E0E816F10409F486C02B
:1022E0001A8F098F0130110569F124F4012B09F4CB
:1022F00049C069C00230110541F10330110509F0F0
:1023000062C0EA94EF2811F48DE101C08EE18C8F58
:102310008B8F88E090E09AA389A389E090E098A34E
:102320008F8F8AE090E09EA38DA38BE090E09CA32A
:102330008BA38CE090E09AA789A78DE090E098A706
:102340008FA341C0EA94EF2811F489E101C088E12C
:102350008B8F8EE18C8F83E090E098A38F8F84E049
:1023600090E09AA389A387E090E09CA38BA388E0E8
:1023700090E09EA38DA385E090E098A78FA386E0D0
:1023800090E01FC0EA94EF2811F489E101C088E1D0
:102390008B8F8EE18C8F83E090E098A38F8F84E009
:1023A00090E09AA389A385E090E09CA38BA386E0AC
:1023B00090E09EA38DA387E090E098A78FA388E08C
:1023C00090E09AA789A781E030C0EE24E394F12C35
:1023D00002C0E12CF12C03E010E00330110508F4F9
:1023E0004ECF79CF0430110509F075CF80E01DC0C4
:1023F000EE24E394F12C6FCF0430110569F44FE023
:1024000050E06EE1CE010E94D81031E020E0CC9780
:1024100009F030E0032F122FE12CF12C5CCF03E008
:1024200010E059CF00E010E056CFDF91CF911F911F
:102430000F91FF90EF90089590913A04E0913E043F
:10244000F0913F04992311F0849101C080812FEB1A
:10245000280F2A3110F4805E0895803249F49F01DC
:102460002F5F3F4F30933F0420933E04EF2B31F713
:1024700008951F93CF93DF930E941C12C0E0D0E019
:102480001AE090ED980F9A30B8F49E01129FE00187
:10249000139FD00D1124C80FD11D87FDDA95E09749
:1024A00080913E0490913F04019690933F04809365
:1024B0003E040E941C12E5CFCE01DF91CF911F9107
:1024C0000895109272001092C00084E08093C100C1
:1024D00089E08093C20081E08093C300EFEBF0E0DD
:1024E00083E0808388EE8093D10010821092D20026
:1024F000579A789408952F923F924F925F926F92DD
:102500007F928F929F92AF92BF92CF92DF92EF9283
:10251000FF920F931F93CF93DF93CDB7DEB727972B
:102520000FB6F894DEBF0FBECDBF7C011B014D83FB
:1025300080914004811105C081E0809340040E9495
:10254000611210925301F7FE04C0E894F7F81AE004
:1025500001C011E088E2189F802D1124282F30E05F
:102560003F832E832E153F0510F4FF82EE8211303B
:1025700049F44E815F814131574220F0E0E1F7E2BA
:10258000FF83EE83812E912CA12CB12C8E819F8113
:10259000969587959C0140E050E029833A834B83D0
:1025A0005C834E815F812A01612C712CA50194010D
:1025B00060E072E18AE790E00E94C52529813A81B6
:1025C0004B815C81620F731F841F951FA3019201D1
:1025D0000E94172669017A01EE24FF2400E00F5FB4
:1025E000C11434E0D306E104F10408F120E032E143
:1025F0004AE750E0002E04C055954795379527953A
:102600000A94D2F7C501B4010E94C52529813A81F7
:102610004B815C81620F731F841F951FA301920180
:102620000E94172669017A01EE24FF24D8CF1A30C0
:1026300049F48E819F8105966AE070E00E94E12551
:102640007F836E834E815F81483E83E0580759F057
:102650009101DA010E943C2628EE33E040E050E090
:102660000E9417261901109272008091C100807F8C
:10267000802B8093C100BB27AF2D9E2D8D2D809385
:10268000BF00C092D1002D81203108F02FE080E101
:1026900090E0821B910904C0F694E794D794C79404
:1026A0008A95D2F78D2D99278093BF00C092D200D2
:1026B00030923D0420923C0489B38FEF89BB84E0C3
:1026C0008093720027960FB6F894DEBF0FBECDBF81
:1026D000DF91CF911F910F91FF90EF90DF90CF90FE
:1026E000BF90AF909F908F907F906F905F904F9032
:1026F0003F902F900895CF93DF93EB018F3F11F020
:10270000411105C040E0BE0188EE93E043C0813135
:1027100030F050EF580F503618F05FE501C050E030
:10272000852F6CE00E94D525682F74EF7603900109
:102730001124250F311D2C30310540F4F901EE0F25
:10274000FF1FEF59FD4F2081318102C020E030E0B2
:10275000873081F0082E02C0220F331F0A94E2F75F
:10276000823028F0C90105966AE070E00CC0C9010A
:1027700090580CC0C90136E0880F991F3A95E1F7CF
:10278000029665E070E00E94E125CB01403108F03F
:102790004FE0BE01DF91CF910C947B124F925F927C
:1027A0006F927F928F929F92AF92BF92CF92DF9261
:1027B000EF92FF920F931F93CF93DF9300D0CDB78B
:1027C000DEB79090520180913904882321F0609106
:1027D0003804611117C077247394B0ECAB2EBDE5BB
:1027E000BB2E1AE0612E04E0802E80EDC82E87E01B
:1027F000D82E94E0E92EF12C04EF11E02FE0422EC8
:10280000512C15C070E040E088EE93E00E947B12EE
:102810001092380429C18636D4F5813609F4A9C04E
:102820007CF58C3309F460C08E3381F493940E945C
:102830001C1220913E0430913F042F5F3F4F309394
:102840003F0420933E04853631F752C0813209F0AF
:102850008BC080925201D0925101C0925001F092EF
:102860004F01E0924E0110934D0100934C015092A4
:102870004B0140924A0110923904A4E09A2ED7CF1E
:102880008336A1F10CF478C010E082E077C08D3679
:10289000C1F194F4873691F174F18C3609F064C07B
:1028A0000E943912BC0190934F0180934E01809198
:1028B00050019091510151C08237C9F14CF48F36CB
:1028C00009F052C00E943912982E80935201AFCF66
:1028D000843781F1863709F047C00E9439129093FE
:1028E0004B0180934A01A3CF9A94A1CF10E020C05E
:1028F00010E084E043C010E085E040C010E087E0D5
:102900003DC00E941C128C3619F41092390404C088
:10291000709239041092380420913E0430913F04A3
:102920002F5F3F4F30933F0420933E0480CF11E050
:1029300080E024C00E943912BC01C5010E94E1253B
:10294000669EC001679E900D112490935101809363
:10295000500160914E0170914F010E94E1257093EA
:102960004D0160934C0163CF10923F0410923E04DE
:102970007BC010E089E002C010E08BE0082F9CE0F3
:10298000999E000D11240E941C12982F977F93325C
:1029900061F420913E0430913F042F5F3F4F30930C
:1029A0003F0420933E040F5FEECF8D3271F42091EF
:1029B0003E0430913F042F5F3F4F30933F042093FC
:1029C0003E0401500E941C12F0CF60914C017091A6
:1029D0004D018153883050F4E0905001F090510146
:1029E0000E943912BC01C7010E94E1257B01F694C7
:1029F000E79469837A830E941C1269817A818E32FE
:102A000069F420913E0430913F042F5F3F4F309393
:102A10003F0420933E046E0D7F1DE9CF8091390461
:102A2000882339F09B013695279520933804621B43
:102A3000710940914A01112311F08FEF01C0802FDD
:102A40000F900F90DF91CF911F910F91FF90EF901A
:102A5000DF90CF90BF90AF909F908F907F906F90BE
:102A60005F904F900C947B130F900F90DF91CF915C
:102A70001F910F91FF90EF90DF90CF90BF90AF909C
:102A80009F908F907F906F905F904F9008951F92CE
:102A90000F920FB60F9211242F933F934F935F9392
:102AA0006F937F938F939F93AF93BF93EF93FF9316
:102AB00080913C0490913D049C0121503109309358
:102AC0003D0420933C04892B11F5109272007894F8
:102AD0008091C100807F84608093C10083E08093F7
:102AE000BF0088EE8093D1001092BF001092D200F8
:102AF00081E08093530180913E0490913F04892BA3
:102B000031F080913B04811102C00E94CE13FF91ED
:102B1000EF91BF91AF919F918F917F916F915F9155
:102B20004F913F912F910F900FBE0F901F901895CE
:102B3000FC01138212828DE792E0918380831482DC
:102B400008951F93CF93DF93EC01162F64600E94CA
:102B50001B161E83DF91CF911F910895CF93DF93B2
:102B6000EC01E881F9810480F581E02D099563E0AD
:102B7000CE010E9417168FE991E40197F1F700C08A
:102B8000000063E0CE010E94171687E592E00197EE
:102B9000F1F700C0000063E0CE010E94171662E06A
:102BA000CE010E94171668E2CE010E941B1660E05B
:102BB000CE010E944D16CE010E941F1662E0CE018A
:102BC0000E94A11564E0CE01DF91CF910C944D16C7
:102BD0000F931F93CF93DF9300D01F92CDB7DEB733
:102BE0008C01DC0114968C91149781110CC081E04A
:102BF00014968C93C8012B834A8369830E94AE1577
:102C000069814A812B81D801ED91FC910680F78181
:102C1000E02DC8010995B5ECBA95F1F700000F90C9
:102C20000F900F90DF91CF911F910F91089521E0A8
:102C300040E00C94E81520E040E00C94E81561E0D9
:102C40000E941B168FE39FE10197F1F700C000007F
:102C50000895CF93DF9300D000D0CDB7DEB720E842
:102C6000298320EC2A8324E92B8324ED2C83443010
:102C700008F043E0FE01E40FF11D2181260F622FD1
:102C80000E941B1685EC8A95F1F700000F900F90BB
:102C90000F900F90DF91CF9108951F93CF93DF9303
:102CA000EC01162F68600E941B161D83DF91CF91E7
:102CB0001F91089520E041E00C94E8150E945A16F7
:102CC00081E090E00895CF92DF92EF92FF920F9310
:102CD0001F93CF93DF937C018A01EB016B01C40E3C
:102CE000D51ECC15DD0529F06991C7010E945A1641
:102CF000F8CFC801DF91CF911F910F91FF90EF9016
:102D0000DF90CF9008954FB141705CB156FB5527CD
:102D100050F9542780914704609148042091410460
:102D200030914204852790E06427861B9109820F29
:102D3000931F9093420480934104909148048091A2
:102D40004704591729F0481719F081E08093460489
:102D5000509348044093470408951F920F920FB672
:102D60000F9211242F933F934F935F936F938F9301
:102D70009F932CB130E03595279535952795422FB7
:102D8000417083B190E054E0959587955A95E1F7AD
:102D900082279327582F51708091490460914A04EB
:102DA0002091430430914404852790E06427861BDA
:102DB0009109820F931F9093440480934304909150
:102DC0004A0480914904591729F0481719F081E005
:102DD0008093460450934A04409349049F918F91F5
:102DE0006F915F914F913F912F910F900FBE0F9078
:102DF0001F90189524982C9A6A98729A6E98769AD1
:102E00008098889A81E08093680090E190936B00AD
:102E10008BBB41E050E063E876E184E00E94F91763
:102E20008CB182FB882780F981708093490493B12B
:102E30008091490492959170892780934A04109259
:102E4000440410924304109246048FB18170809321
:102E500047049CB18091470496FB992790F98927F4
:102E60008093480410924204109241041092450449
:102E700008958091A402811105C081E08093A4028D
:102E80000C94FA1608950E943917F894809143041F
:102E900090914404789408950E943917F894809191
:102EA000410490914204789408950E943917F8944F
:102EB000809143049091440410924404109243047E
:102EC000789408950E943917F89480914104909164
:102ED00042041092420410924104789408950E9492
:102EE0003917809146041092460408950E943917BC
:102EF000809145041092450408952E98269A2D98A5
:102F0000259A2A98229A2998219A80EA809380000B
:102F100081E18093810080E991E090938700809324
:102F20008600109289001092880010928B001092F7
:102F30008A00089580914B04811105C081E080933F
:102F40004B040C947D17089580934D04089580934D
:102F50004C040895CF93DF93EC010E949A17D7FF9A
:102F600005C0D195C195D10981E001C080E0C1398A
:102F700091E0D90714F0C0E9D1E0D0938B00C09361
:102F80008A0090914D04891711F02A9A01C02A985D
:102F9000229ADF91CF910895CF93DF93EC010E94A5
:102FA0009A17D7FF05C0D195C195D10981E001C01D
:102FB00080E0C13991E0D90714F0C0E9D1E0D093A5
:102FC0008900C093880090914C04891711F0299AC8
:102FD00001C02998219ADF91CF910895CF93DF9373
:102FE000EB010E94AA17CE01DF91CF910C94CC1770
:102FF0000895853008F04CC0E82FF0E0EE0FFF1F79
:10300000EC5AFE4F718360838230E1F018F4813016
:1030100069F004C0833019F1843071F18091690046
:103020008C7F842B80936900E89A089580916900D1
:10303000440F551F440F551F837F842B80936900D5
:10304000E99A08958091690034E0440F551F3A953C
:10305000E1F78F7C842B80936900EA9A0895809130
:10306000690026E0440F551F2A95E1F78F73842BE2
:1030700080936900EB9A089580916A0094E0440F70
:10308000551F9A95E1F78F7C842B80936A00EE9A06
:1030900008951F920F920FB60F9211242F933F9312
:1030A0004F935F936F937F938F939F93AF93BF9350
:1030B000EF93FF93E0915401F09155010995FF9131
:1030C000EF91BF91AF919F918F917F916F915F91A0
:1030D0004F913F912F910F900FBE0F901F90189519
:1030E0001F920F920FB60F9211242F933F934F937D
:1030F0005F936F937F938F939F93AF93BF93EF9360
:10310000FF93E0915601F09157010995FF91EF91DE
:10311000BF91AF919F918F917F916F915F914F91EF
:103120003F912F910F900FBE0F901F9018951F92F7
:103130000F920FB60F9211242F933F934F935F93EB
:103140006F937F938F939F93AF93BF93EF93FF936F
:10315000E0915801F09159010995FF91EF91BF91CC
:10316000AF919F918F917F916F915F914F913F911F
:103170002F910F900FBE0F901F9018951F920F92D6
:103180000FB60F9211242F933F934F935F936F933A
:103190007F938F939F93AF93BF93EF93FF93E091B0
:1031A0005A01F0915B010995FF91EF91BF91AF91A9
:1031B0009F918F917F916F915F914F913F912F914F
:1031C0000F900FBE0F901F9018951F920F920FB681
:1031D0000F9211242F933F934F935F936F937F939D
:1031E0008F939F93AF93BF93EF93FF93E0915C0115
:1031F000F0915D010995FF91EF91BF91AF919F9182
:103200008F917F916F915F914F913F912F910F908F
:103210000FBE0F901F9018951F920F920FB60F922E
:1032200011242F933F938F939F93AF93BF938091DC
:103230004F0490915004A0915104B09152043091E8
:103240004E0423E0230F2D3720F40196A11DB11D5C
:1032500005C026E8230F0296A11DB11D20934E0440
:1032600080934F0490935004A0935104B093520460
:103270008091530490915404A0915504B091560448
:103280000196A11DB11D8093530490935404A09303
:103290005504B0935604BF91AF919F918F913F9188
:1032A0002F910F900FBE0F901F9018952FB7F89485
:1032B00060914F0470915004809151049091520498
:1032C0002FBF08953FB7F894809153049091540410
:1032D000A0915504B091560426B5A89B05C02F3F78
:1032E00019F00196A11DB11D3FBF6627782F892FC8
:1032F0009A2F620F711D811D911D42E0660F771F8D
:10330000881F991F4A95D1F708958F929F92AF9287
:10331000BF92CF92DF92EF92FF926B017C010E94ED
:1033200062194B015C01C114D104E104F104F1F014
:103330000E9418220E946219681979098A099B095A
:10334000683E73408105910570F321E0C21AD108EF
:10335000E108F10888EE880E83E0981EA11CB11CDC
:10336000C114D104E104F10429F7DDCFFF90EF90FF
:10337000DF90CF90BF90AF909F908F9008957894FA
:1033800084B5826084BD84B5816084BD85B582606A
:1033900085BD85B5816085BDEEE6F0E08081816008
:1033A0008083E1E8F0E01082808182608083808108
:1033B00081608083E0E8F0E0808181608083E1E9E2
:1033C000F0E0808182608083808181608083E0E999
:1033D000F0E0808181608083E1ECF0E080818460B6
:1033E0008083808182608083808181608083E3EC40
:1033F000F0E0808181608083E0ECF0E08081826099
:103400008083E2ECF0E0808181608083EAE7F0E095
:1034100080818460808380818260808380818160FC
:1034200080838081806880830895823108F0825192
:10343000E82FF0E0EA5EFE4FE49180917B00E3FB31
:10344000222720F930E095E0220F331F9A95E1F70B
:103450008F7D822B80937B00E77080915E0120E45A
:10346000829FC0011124E82BE0937C0080917A00B8
:10347000806480937A0080917A0086FDFCCF8091F1
:1034800078002091790090E0922B089590E0FC0163
:103490003197EF30F105B0F5EA5AFF4F0C9436261C
:1034A000809180008F7703C0809180008F7D809312
:1034B0008000089580918000877FF9CF84B58F7751
:1034C00002C084B58F7D84BD0895809190008F7770
:1034D00007C0809190008F7D03C080919000877F0E
:1034E0008093900008958091C0008F7703C08091F1
:1034F000C0008F7D8093C00008958091C200877FB7
:103500008093C20008950F931F93CF93DF931F9270
:10351000CDB7DEB7282F30E0F901EE5DFE4F849184
:10352000F901EF5BFE4F1491F901E05AFE4F04914F
:103530000023C9F0882321F069830E94461A69811B
:10354000E02FF0E0EE0FFF1FE158FE4FA591B49180
:103550009FB7F8948C91611103C01095812301C02D
:10356000812B8C939FBF0F90DF91CF911F910F9173
:1035700008950E945626CF93DF931F92CDB7DEB7F2
:103580006983DC01ED91FC910280F381E02D41E043
:1035900050E0BE016F5F7F4F09950F90DF91CF9193
:1035A0000895CF93DF93EC018C859D8597FF05C02F
:1035B00082E00E94DA1E9D878C878C859D85DF9135
:1035C000CF91089583E00C946E21FC01848595854C
:1035D00097FD06C082E00E94821E90E00196089549
:1035E00082E00E94821E90E00895FC01848595850A
:1035F00097FD05C02FEF3FEF35872487089582E0C0
:103600000C94DA1ECF93DF93EC0180916A0188233A
:1036100031F083E00E940B1F1816190634F081E088
:1036200090E09B838A8380E090E0DF91CF910895C2
:10363000FC0120812E5F208342E450E06DE871E0C0
:1036400080E80C94A61FFC0121818081813A59F405
:10365000213209F04BC047E050E063E671E080E0C2
:103660000E94A61F5EC0813209F040C0233289F457
:10367000838190E0982F88273281832BA0E0B0E0EF
:1036800080935F0190936001A0936101B093620108
:103690000FC0203239F467E070E083E691E00E94C9
:1036A000D71F09C0223221F4828180936A0103C0AE
:1036B0002D7F2032B1F58091A704811103C0E0E095
:1036C000F8E002C0EEEFFAE08091630190916401AE
:1036D000A0916501B0916601803B9440A105B105C0
:1036E00011F580916A0180FF03C01DC080E008953C
:1036F000EE3F2AE0F20731F0808191819093FF0A3A
:103700008093FE0A87E797E7918380832BE088E127
:1037100090E00FB6F894A895809360000FBE2093B8
:10372000600081E0089588E10FB6F894809360000E
:10373000109260000FBEA895EE3F8AE0F80739F0BE
:103740008091FE0A9091FF0A91838083EACF1092C4
:10375000FF0A1092FE0AE5CF2FEF3FEFFC013587FD
:1037600024870895CF93C0916A016AE070E080E0F9
:1037700090E00E94851981E0C11101C080E0CF91E5
:10378000089510925A041092590488EE93E0A0E034
:10379000B0E080935B0490935C04A0935D04B093CD
:1037A0005E0489E892E090935804809357048FEF69
:1037B0009FEF9093640480936304089508950E949A
:1037C000BF190E94DE1B88EA94E00E94FB210E9440
:1037D000F908C0E0D0E00E9454092097E1F30E946C
:1037E0000000F9CF6115710581F0DB010D9000201B
:1037F000E9F7AD0141505109461B570BDC01ED9132
:10380000FC910280F381E02D099480E090E008951E
:103810000C94F21BDC01ED91FC910190F081E02D04
:10382000099466E172E00C94F21B0F931F93CF93FF
:10383000DF93EC010E94F21B8C01CE010E94111C4F
:10384000800F911FDF91CF911F910F9108958F925B
:103850009F92AF92BF92DF92EF92FF920F931F93CE
:10386000CF93DF93CDB7DEB7A1970FB6F894DEBF45
:103870000FBECDBF7C01F42FD52ECB0119A2223073
:1038800008F42AE08E010F5D1F4F822E912CA12C8F
:10389000B12C6F2F7D2DA50194010E94F525F22FEB
:1038A000D32ECA01015011096A3014F4E0E301C0BB
:1038B000E7E3E60FD801EC93232B242B252B49F7C4
:1038C000B801C7010E94F21BA1960FB6F894DEBFA3
:1038D0000FBECDBFDF91CF911F910F91FF90EF9061
:1038E000DF90BF90AF909F908F900895CF92DF921E
:1038F000EF92FF920F931F93CF93DF93EC016A0136
:103900007B012115310579F4E881F9810190F0817D
:10391000E02D642FDF91CF911F910F91FF90EF90D9
:10392000DF90CF9009942A303105E9F477FF1AC06F
:103930006DE20E940A1C8C0144275527BA014C19DC
:103940005D096E097F092AE0CE010E94271C800FC5
:10395000911FDF91CF911F910F91FF90EF90DF901A
:10396000CF9008952AE0B701A601CE01DF91CF9153
:103970001F910F91FF90EF90DF90CF900C94271C38
:103980009A01AB01662757FD6095762F0C94761C43
:103990002115310541F4DC01ED91FC910190F0819C
:1039A000E02D642F09940C94271C9A01462F50E0B7
:1039B00060E070E00C94C81C4F925F926F927F920F
:1039C0008F929F92AF92BF92CF92DF92EF92FF922F
:1039D0000F931F93CF93DF93EC016A017B01B22E0B
:1039E0009A01AB01C701B6010E94A225882319F0F4
:1039F00065E972E027C026013701E89477F82FEFD8
:103A00003FEF4FE75FE7C301B2010E94A22581119A
:103A10000DC02FEF3FEF4FE75FE7C301B2010E94F8
:103A20007B2318161CF469E972E00CC02FEF3FEFFE
:103A30004FE75FE4C701B6010E942B251816ACF4CE
:103A40006DE972E0CE01DF91CF911F910F91FF9050
:103A5000EF90DF90CF90BF90AF909F908F907F902E
:103A60006F905F904F900C94F21B2FEF3FEF4FE75A
:103A70005FECC701B6010E947B2387FDE1CF20E008
:103A800030E0A901C701B6010E947B2387FF0AC06D
:103A90006DE2CE010E940A1C8C01F7FAF094F7F84F
:103AA000F09402C000E010E0A12C60E070E080E043
:103AB0009FE3AB1441F020E030E040E251E40E948B
:103AC0008223A394F6CF9B01AC01C701B6010E94EB
:103AD000B5226B017C010E94EF232B013C010E9467
:103AE0001B249B01AC01C701B6010E94B4226B01EB
:103AF0007C012AE0B301A201CE010E94271C080F1D
:103B0000191FBB2039F061EA72E0CE010E94F21B5E
:103B1000080F191F7B2C772041F120E030E040E2B4
:103B200051E4C701B6010E9436256B017C010E9459
:103B3000EA234B01AA2497FCA094BA2C2AE030E097
:103B4000B501A401CE010E94761C080F191FC50102
:103B5000B4010E941D249B01AC01C701B6010E9463
:103B6000B4226B017C017A94D6CFC801DF91CF914A
:103B70001F910F91FF90EF90DF90CF90BF90AF908B
:103B80009F908F907F906F905F904F9008950C94CE
:103B9000DC1C615030F02091F100FC012083019683
:103BA000F8CF289884E68093B10408954091AC043E
:103BB0005091AD042091AA043091AB0442175307F1
:103BC000B4F49091E8009570E1F39091E80092FDD3
:103BD00019C08093F1008091AC049091AD040196DE
:103BE0008F739927892B19F48EEF8093E8008091C9
:103BF000AC049091AD0401969093AD048093AC0415
:103C000081E0089580E00895CF92DF92EF92FF92D5
:103C10000F931F93CF93DF931F92CDB7DEB7082F7B
:103C2000162FF42E862F880F8E5F99830E94D61D43
:103C300083E00E94D61DE02EC02E9981D92E8C2DB6
:103C40008E19811798F4F601F7FE02C0849101C025
:103C500080810E94D61D082F80E00E94D61D8023FF
:103C6000FFEFCF1ADF0A8111EACF01C081E00F9088
:103C7000DF91CF911F910F91FF90EF90DF90CF9048
:103C800008958091D70081608093D70080EA809367
:103C9000D80089B5806189BD89B5826089BD09B4C4
:103CA00000FEFDCF61E070E080E090E00E948519A9
:103CB0008091D8008F7C80618093D8008091E00053
:103CC000807F8093E0000895CF93DF931F92CDB75C
:103CD000DEB71982CE0101960E94181B0E94A02215
:103CE000BE016F5F7F4F0E94192289810F90DF9183
:103CF000CF9108952FB7FC012083F89467706093EB
:103D0000E9000895CF93DF931F92CDB7DEB7682FF8
:103D1000CE0101960E947A1E8091F20099819FBF88
:103D20000F90DF91CF910895FF920F931F93CF9340
:103D3000DF9300D0CDB7DEB7F62E8A019091B004A4
:103D4000992311F057FF03C08FEF9FEF2BC0682F0F
:103D5000CE0101967A830E947A1E8091F20090E053
:103D6000A8017A81801791070CF4AC01EF2DF72F91
:103D7000F40E84E6FE1639F028988093B1049091F1
:103D8000F1009193F7CF4115510521F08091F20098
:103D9000882321F089818FBFCA0104C08BE68093FC
:103DA000E800F8CF0F900F90DF91CF911F910F9106
:103DB000FF900895CF93DF931F92CDB7DEB741E018
:103DC00050E0BE016F5F7F4F0E94941E019719F46F
:103DD000898190E002C08FEF9FEF0F90DF91CF912C
:103DE0000895CF93DF931F92CDB7DEB7682FCE0132
:103DF00001960E947A1E9091E800892F807295FFAB
:103E000004C09091F20080E4891B99819FBF0F90BC
:103E1000DF91CF9108956F927F928F929F92AF9290
:103E2000BF92CF92DF92EF92FF920F931F93CF93A7
:103E3000DF931F92CDB7DEB7782E7B01C42EB52E4F
:103E40008091B004882369F0042F152F8AEFD82EB3
:103E5000872D8072982E9AE3A92E872D8074882E44
:103E600011C08FEF9FEF57C0872D0E94F11E682E63
:103E700081110CC0DA94A9F361E070E080E090E079
:103E80000E9485190115110579F73BC0282F30E0F4
:103E9000021713070CF4602E672DCE0101960E94C5
:103EA0007A1E8091E80085FF29C0262D30E0021B94
:103EB000130B992039F06A948FEF6816B1F01092C5
:103EC000F100F9CFF701862D77FE07C0815058F039
:103ED00094919093F1003196F9CF815020F0919117
:103EE0009093F100FACFE20EF31E8091E80085FF77
:103EF0000FC00115110511F481100AC089818FBF0F
:103F0000C1CF5D9884E68093B2048C2D9B2D03C0B5
:103F1000A092E800F3CF0F90DF91CF911F910F9106
:103F2000FF90EF90DF90CF90BF90AF909F908F90D9
:103F30007F906F9008951092E9001092AD04109256
:103F4000AC049093AB048093AA040895CF92DF92BF
:103F5000FF920F931F93CF93DF9300D0CDB7DEB7BF
:103F6000F82E8A016B0101151105B1F0F601F7FE7B
:103F700002C0849101C0808149835A830E94D61D6A
:103F800001501109FFEFCF1ADF0A49815A818111CF
:103F9000EACF8FEF9FEF01C0CA010F900F90DF9122
:103FA000CF911F910F91FF90DF90CF900895BF9216
:103FB000CF92DF92EF92FF920F931F93CF93DF93F5
:103FC0006C018B01EB013BEFB32E2097C1F07E011A
:103FD000C134D1051CF020E4E22EF12C8091E800E0
:103FE00082FFFCCFC8018C1B9D0B6E2D8C0D9D1D7F
:103FF0000E94C91DB092E800CE19DF09E6CFC801C2
:10400000DF91CF911F910F91FF90EF90DF90CF90B4
:10401000BF9008951F920F920FB60F921124DF9256
:10402000EF92FF920F931F932F933F934F935F93C2
:104030006F937F938F939F93AF93BF93EF93FF9370
:10404000CF93DF93CDB7DEB76C97DEBFCDBF1092B5
:10405000E9008091E80083FF23C168E0CE01459626
:104060000E94C91D82EF8093E8003D8937FF05C09B
:104070008091E80080FFFCCF03C08EEF8093E800C2
:10408000832F807609F0F0C02E894F89D88C2111BA
:104090000CC0303829F48091AF048093F10002C045
:1040A0001092F1001092F100F4C0842F90E09D294D
:1040B000213049F43111EDC0019709F0EAC0809137
:1040C000AF048D7F0AC0233059F43111E2C001974B
:1040D00009F0DFC08091AF0482608093AF04D9C043
:1040E000253041F48091E80080FFFCCF4068409388
:1040F000E300CFC0263009F08DC0EB8CFC8C22E0B1
:10410000D2122CC080E090E00E949B1F0E94641E8F
:1041100099E08E010F5F1F4FF801292F11922A9508
:10412000E9F79983DA8291E09E8390EA98879AEF83
:1041300099872091AC043091AD04275F3F4F3C83B9
:104140002B838D83C7010E949B1F49E050E0B8017B
:1041500080E00E94A61F0E94641E9BC0C7010E94AF
:104160009B1F0E94A022BE016B5E7F4F0E944222D5
:10417000009719F00CF08DC090C081E0D8120EC0ED
:104180008B8D9C8D089719F481E08093A904809110
:10419000A90481112FC061EE71E031C0E3E0DE12AD
:1041A0007CC08F89882349F1823029F440E862E19C
:1041B00086E092E01CC0813029F440E862E183EFA0
:1041C00091E015C0833009F068C00E94A0228E01E2
:1041D0000F5F1F4FB8010E946122F801019000207B
:1041E000E9F73197E01BF10B40E06E2FC8010E9408
:1041F000041E4DC06FEC71E002C069E172E0611510
:10420000710509F44AC0FB01449150E080E80E9426
:10421000A61F3FC0273009F440C0283021F481E0B8
:104220008093F10036C02930A1F53370B1F5ECE68A
:10423000F1E081E021E036E39081992361F0809301
:10424000E9002093EB0091919093EC003093ED0006
:104250008F5F873089F78EE78093EA001092EA003B
:104260008F898093B00415C08B8D9C8D0E949B1FFD
:10427000898D811105C0CE0145960E94231B07C080
:104280000E94A022BE016B5E7F4F0E948022882385
:1042900021F08EEF8093E80003C081E28093EB0071
:1042A0006C960FB6F894DEBF0FBECDBFDF91CF91F5
:1042B000FF91EF91BF91AF919F918F917F916F91FE
:1042C0005F914F913F912F911F910F91FF90EF9030
:1042D000DF900F900FBE0F901F9018958093E9000C
:1042E0008091F200882319F08AE38093E800089512
:1042F0001F920F920FB60F9211242F933F934F935B
:104300005F936F937F938F939F93AF93BF93CF935D
:10431000EF93FF93C091E1008091E100837F809350
:10432000E1008093E100C3FF0FC01092E90081E03B
:104330008093EB001092EC0082E38093ED001092EA
:10434000B00488E08093F000C2FF19C083E00E94AF
:104350006E218091B204882339F08091B20481509B
:104360008093B204882389F18091B104882339F0C5
:104370008091B10481508093B104882341F1C4FF3E
:1043800010C08091E2008E7E81608093E200809177
:10439000E1008F7E8093E1008091AE048E7E80618B
:1043A00011C0C0FF16C08091E2008E7E80618093B4
:1043B000E2008091E1008E7E8093E1008091AE0466
:1043C0008E7E81608093AE0404C05D9ACDCF289A22
:1043D000D6CFFF91EF91CF91BF91AF919F918F91E8
:1043E0007F916F915F914F913F912F910F900FBEF1
:1043F0000F901F9018951092B0041092AF04109275
:10440000AE040E94411E8091E1008E7E8093E10007
:104410008DE08093E200559A209AEEEFFFE78591B8
:1044200094918B3F9C4D19F481E08093A7040895EB
:104430000895EF92FF920F931F93CF93DF937B0129
:10444000FC01C281D38100E010E0209781F0E88177
:10445000F9810280F381E02DB701CE01099597FD26
:1044600008C0080F191F0884D985C02DEECFC801D8
:1044700002C08FEF9FEFDF91CF911F910F91FF90BF
:10448000EF9008950F931F93CF93DF938B01FC015F
:10449000C281D381209771F0E881F9810480F58190
:1044A000E02DB801CE010995009731F40884D98533
:1044B000C02DF0CF80E090E0DF91CF911F910F9160
:1044C00008950F931F93CF93DF938B01FC01C2815B
:1044D000D381209771F0E881F9810680F781E02D82
:1044E000B801CE010995080F111D0884D985C02D8A
:1044F000F0CFF8011082DF91CF911F910F910895B5
:104500000F931F93CF93DF938B01FC01C281D38163
:10451000209771F0E881F9810190F081E02DB801D8
:10452000CE010995811106C00884D985C02DF0CF30
:1045300080E001C081E0DF91CF911F910F9108953C
:104540008091B70481110DC082E08093B30484E0B0
:104550008093B4041092B6041092B50481E0809365
:10456000B70483EB94E008955058BB27AA270ED0D8
:1045700027C2F0D130F0F5D120F031F49F3F11F493
:104580001EF4C0C10EF4E095E7FBB6C1E92F3AD2A4
:1045900080F3BA17620773078407950718F071F460
:1045A0009EF552C20EF4E0950B2EBA2FA02D0B01F2
:1045B000B90190010C01CA01A0011124FF27591B68
:1045C00099F0593F50F4503E68F11A16F040A22F6E
:1045D000232F342F4427585FF3CF469537952795DF
:1045E000A795F0405395C9F77EF41F16BA0B620BDE
:1045F000730B840BBAF09150A1F0FF0FBB1F661F25
:10460000771F881FC2F70EC0BA0F621F731F841F67
:1046100048F4879577956795B795F7959E3F08F08D
:10462000B3CF9395880F08F09927EE0F979587954C
:10463000089590D158F080E891E009F49EEF91D16F
:1046400028F040E851E059F45EEF09C05BC1FCC1BD
:10465000E92FE078D7D168F3092E052AC1F3261790
:1046600037074807590738F00E2E07F8E02569F09C
:10467000E025E0640AC0EF6307F8009407FADB0165
:10468000B9019D01DC01CA01AD01EF934AD098D177
:104690000AD05F91552331F02BED3FE049E450FD06
:1046A00049EC63CF0895DF93DD27B92FBF7740E84A
:1046B0005FE31616170648075B0710F4D92FCFD112
:1046C0009F938F937F936F933AD2EAECF0E01DD1E2
:1046D00077D12F913F914F915F91D4D1DD2349F054
:1046E0009058A2EA2AED3FE049EC5FE3D0785D27DD
:1046F0004DDFDF9165C1DCD008F481E0089539D148
:10470000E3956FC10CD05CC12CD140F023D130F0C7
:1047100021F45F3F19F0F0C0511197C1F3C072D17D
:1047200098F39923C9F35523B1F3951B550BBB2778
:10473000AA2762177307840738F09F5F5F4F220F25
:10474000331F441FAA1FA9F333D00E2E3AF0E0E81E
:1047500030D091505040E695001CCAF729D0FE2F6A
:1047600027D0660F771F881FBB1F261737074807FC
:10477000AB07B0E809F0BB0B802DBF01FF279358B2
:104780005F4F2AF09E3F510568F0B6C05EC15F3FA3
:10479000ECF3983EDCF3869577956795B795F7959A
:1047A0009F5FC9F7880F911D9695879597F9089592
:1047B000E1E0660F771F881FBB1F6217730784072E
:1047C000BA0720F0621B730B840BBA0BEE1F88F73D
:1047D000E095089504D06894B11137C108951AD1B5
:1047E00088F09F5790F0B92F9927B751A0F0D1F0DA
:1047F000660F771F881F991F1AF0BA95C9F712C064
:10480000B13081F021D1B1E008951EC1672F782F1A
:104810008827B85F39F0B93FCCF3869577956795CF
:10482000B395D9F73EF490958095709561957F4F3B
:104830008F4F9F4F0895E89409C097FB3EF49095E1
:104840008095709561957F4F8F4F9F4F9923A9F069
:10485000F92F96E9BB279395F695879577956795F8
:10486000B795F111F8CFFAF4BB0F11F460FF1BC03C
:104870006F5F7F4F8F4F9F4F16C0882311F096E9CF
:1048800011C0772321F09EE8872F762F05C066237D
:1048900071F096E8862F70E060E02AF09A95660F36
:1048A000771F881FDAF7880F9695879597F90895EF
:1048B000990F0008550FAA0BE0E8FEEF1616170631
:1048C000E807F907C0F012161306E407F50798F099
:1048D000621B730B840B950B39F40A2661F0232BB2
:1048E000242B252B21F408950A2609F4A140A6952E
:1048F0008FEF811D811D089597F99F6780E870E013
:1049000060E008959FEF80EC0895DF93CF931F93AD
:104910000F93FF92EF92DF927B018C01689405C0A8
:10492000DA2EEF01AFD0FE01E894A59125913591E3
:1049300045915591AEF3EF0129DEFE019701A801E3
:10494000DA9479F7DF90EF90FF900F911F91CF915C
:10495000DF91089500240A94161617061806090612
:10496000089500240A9412161306140605060895E5
:10497000C9CF50D0E8F3E894E0E0BB279F57F0F0B0
:104980002AED3FE049EC06C0EE0FBB0F661F771F14
:10499000881F28F0B23A62077307840728F0B25ADA
:1049A000620B730B840BE3959A9572F7803830F4A1
:1049B0009A95BB0F661F771F881FD2F79048C8C013
:1049C000092E0394000C11F4882352F0BB0F40F41D
:1049D000BF2B11F460FF04C06F5F7F4F8F4F9F4F5D
:1049E0000895EF93E0FF06C0A2EA2AED3FE049EC0C
:1049F0005FEBCCDDE5DF0F90039401FC9058E7EF0F
:104A0000F0E0B2C057FD9058440F551F59F05F3F7A
:104A100071F04795880F97FB991F61F09F3F79F0E0
:104A200087950895121613061406551FF2CF469562
:104A3000F1DF08C0161617061806991FF1CF8695E4
:104A40007105610508940895E894BB2766277727C8
:104A5000CB0197F908952CDF08F48FEF08959B019F
:104A6000AC0160E070E080E89FE34CCE0BD0A8CFB3
:104A700071DF28F076DF18F0952309F03DCF42CFA3
:104A80001124E3CFBFDFA0F3959FD1F3950F50E042
:104A9000551F629FF001729FBB27F00DB11D639FF0
:104AA000AA27F00DB11DAA1F649F6627B00DA11D96
:104AB000661F829F2227B00DA11D621F739FB00D3C
:104AC000A11D621F839FA00D611D221F749F3327AC
:104AD000A00D611D231F849F600D211D822F762F45
:104AE0006A2F11249F5750408AF0E1F088234AF042
:104AF000EE0FFF1FBB1F661F771F881F915050408E
:104B0000A9F79E3F510570F0F7CE9FCF5F3FECF3C2
:104B1000983EDCF3869577956795B795F795E79579
:104B20009F5FC1F7FE2B880F911D9695879597F98A
:104B300008959F931EDF0F9007FCEE5F52CF9B01FD
:104B4000AC0194CFB5DE880B990B08959F3F31F0EF
:104B5000915020F4879577956795B795880F911DAB
:104B60009695879597F908959F938F937F936F9369
:104B7000FF93EF939B01AC0179DFEF91FF91C5DECD
:104B80002F913F914F915F9171CFDB018F939F9355
:104B90000E944B26BF91AF91A29F800D911DA39FB4
:104BA000900DB29F900D11240895991B79E004C0D7
:104BB000991F961708F0961B881F7A95C9F780955C
:104BC0000895AA1BBB1B51E107C0AA1FBB1FA61754
:104BD000B70710F0A61BB70B881F991F5A95A9F7A6
:104BE00080959095BC01CD010895A1E21A2EAA1BD3
:104BF000BB1BFD010DC0AA1FBB1FEE1FFF1FA2178D
:104C0000B307E407F50720F0A21BB30BE40BF50B89
:104C1000661F771F881F991F1A9469F76095709512
:104C2000809590959B01AC01BD01CF010895052EA3
:104C300097FB1EF400940E942E2657FD07D00E9479
:104C4000F52507FC03D04EF40C942E265095409584
:104C5000309521953F4F4F4F5F4F08959095809528
:104C6000709561957F4F8F4F9F4F0895EE0FFF1FF7
:104C70000590F491E02D0994A29FB001B39FC0016B
:104C8000A39F700D811D1124911DB29F700D811D78
:104C90001124911D08950E943C26A59F900DB49F5C
:104CA000900DA49F800D911D1124089581E090E046
:0A4CB000F8940C945B26F894FFCFF3
:104CBA000000BF0480000000C8420000C842000093
:104CCA00B0410000000000000000000000000000E9
:104CDA00B0C1DB0F494000000000000000000000E6
:104CEA0000000000000000000000000000000000BA
:104CFA00000000000000000000000F00F4010400A2
:104D0A00D0070401F817F817F817F817F81701FF72
:104D1A00FFFFFF00E100000000000000C1808100E9
:104D2A000000018001800180FF7FFF7FFF7F564DD9
:104D3A004450455F34007C005F564D4450450D0A8F
:104D4A0000564D4450455F3600564D4450455F3538
:104D5A000043616C6962726174696F6E204779728F
:104D6A006F20526561643A0052756E20233A0047FB
:104D7A0079726F204F666673657400564D445045CC
:104D8A005F3100564D4450455F3300564D445056EE
:104D9A005F317C315F564D4450560D0A00000000C9
:104DAA00005E1663163C01C20900000000B00A83C7
:104DBA000A580A600A730A820A564D4450435F0031
:104DCA005F564D4450430D0A004572726F723A2085
:104DDA00417474656D707420746F207365742061FA
:104DEA0020726561642D6F6E6C79207661726961DB
:104DFA00626C65206F7220646174612074797065D9
:104E0A00206E6F7420737570706F727465640D0A0A
:104E1A00009C01B501CF01EA010702260247026997
:104E2A00028E02B502DE020A03000000005E16636B
:104E3A0016B91AB91A00000000BB1A021BE51AF5C6
:104E4A001AD11AE21A6E616E00696E66006F766692
:044E5A00002E000026
:00000001FF
