:100000000C94FB000C94EB160C9412170C943917FB
:100010000C9460170C9423010C9423010C94871703
:100020000C9423010C944F150C941A200C94AC1EC4
:100030000C9423010C9423010C9423010C942301B0
:100040000C9423010C9423010C9423010C942301A0
:100050000C9423010C9423010C9423010C94AE17EF
:100060000C9423010C9423010C9423010C94230180
:100070000C9423010C9423010C9423010C94230170
:100080000C9423010C9423010C9423010C94230160
:100090000C94F9090C9423010C9423010C94230172
:1000A0000C9423010C940D140C94230100190319D2
:1000B000F218F618FC1824192419241907190B1919
:1000C0000F191519191924191F1905A84CCDB2D4E7
:1000D0004EB93836A9020C50B9918688083CA6AAB8
:1000E000AA2ABE000000803F070605040100080A96
:1000F0000B0C0D090000000200090F0000030401B1
:10010000000C0000000000000000000000000000E3
:100110000000000408020110408040102040804090
:10012000800802040180402010020110801020404D
:100130004020040404040403040502020202040330
:100140000202020206060606060604040202020471
:100150000400000000250028002B002E00310008BC
:100160000B0002020201000904000001020200006B
:1001700005240010010524010101042402060524C0
:100180000600010705810310004009040100020A6E
:10019000000000070502024000000705830240003E
:1001A0000012010002EF020140FB1F0023000101C9
:1001B0000203011201000200000040FB1F002300A7
:1001C0000101020301506F6C6F6C7520436F7270F8
:1001D0006F726174696F6E00506F6C6F6C75204147
:1001E0002D53746172203332553400040309040026
:1001F000D8070F09631A11241FBECFEFDAE0DEBF64
:10020000CDBF12E0A0E0B1E0E6E2F9E402C0059063
:100210000D92A036B107D9F724E0A0E6B2E001C004
:100220001D92AD37B207E1F711E0C6EFD1E004C08F
:100230002297FE010E946E24C03FD107C9F70E9499
:10024000811A0C9491240C9400005B98539A0895A1
:10025000FC01A2EEB0E08C9180831C92A9EEB0E08C
:100260008C9181831C92A0EFB0E08C9182831C92D0
:100270000895FC01A9EEB0E01C9282818093F00009
:1002800081818C9380818093E200089560FF02C099
:100290002B9A01C02B98239A61FF02C0289A01C0B3
:1002A0002898209A62FF02C0479A01C047983F9A57
:1002B00063FF02C05D9A01C05D98559A5B9A539A9C
:1002C00085E08A95F1F700005B98539A85E08A955E
:1002D000F1F7000008954F925F926F927F928F9294
:1002E0009F92AF92BF92CF92DF92EF92FF920F93C5
:1002F0001F93CF93DF9300D000D0CDB7DEB76983D3
:100300007A838B839C8329013A01C801B70124E1D8
:100310003EE643E654E40E946F234B015C012DE06E
:100320003FEE4AE850E469817A818B819C810E948A
:100330006F23A50194010E94C2216B017C012DE075
:100340003FEE4AE850E4C301B2010E946F23A501C9
:1003500094010E94C2214B015C019B01AC01C701C9
:10036000B6010E94572120E030E040E05FE30E94A8
:100370006F23609391027093920280939302909303
:100380009402C0929502D0929602E0929702F09267
:1003900098028092990290929A02A0929B02B09247
:1003A0009C02A5019401C701B6010E9456212BE4CD
:1003B0003AEC48E95EE30E946F2360939D027093DC
:1003C0009E0280939F029093A0020F900F900F9037
:1003D0000F90DF91CF911F910F91FF90EF90DF90E1
:1003E000CF90BF90AF909F908F907F906F905F90D5
:1003F0004F900895CF92DF92EF92FF92CF93DF93C9
:100400008BEE92E00E946F0C6091EF027091F0020F
:10041000882777FD8095982F0E945D2225E33AEF8B
:100420004EE85CE30E946F2320E030E04CE051E4B2
:100430000E946F2320E030E04AE754E40E94C2218A
:100440006B017C018FEB93E00E944E0BC0EFD3E079
:100450006AE371E0888199810E94AA1A62E471E0DE
:10046000888199810E94AA1A22E030E0B701A60192
:10047000888199810E94691C64E471E08881998176
:100480000E94AA1A65E070E080E090E00E942718C0
:10049000C701B601DF91CF91FF90EF90DF90CF9031
:1004A00008952F923F924F925F926F927F928F9218
:1004B0009F92AF92BF92CF92DF92EF92FF920F93F3
:1004C0001F93CF93DF9300D000D0CDB7DEB70E944B
:1004D000F8170E94F8170091710210917202209192
:1004E000730230917402601B710B820B930B60934B
:1004F00075027093760280937702909378020E943F
:10050000E5158C01BC01882777FD8095982F0E9406
:100510005D222B013C010E94EE151C01BC018827C5
:1005200077FD8095982F0E945D226B017C01609180
:10053000B9027091BA02882777FD8095982F0E94A2
:100540005D229B01AC01C301B2010E945621698367
:100550007A838B839C836091BB027091BC02882755
:1005600077FD8095982F0E945D229B01AC01C70109
:10057000B6010E9456214B015C013092BC022092D0
:10058000BB021093BA020093B9028FEB93E00E9472
:100590004E0B6DE471E08091F0039091F1030E94A5
:1005A000AA1A62E471E08091F0039091F1030E9435
:1005B000AA1A22E030E0B301A2018091F0039091E9
:1005C000F1030E94691C62E471E08091F003909154
:1005D000F1030E94AA1A22E030E0B701A60180913F
:1005E000F0039091F1030E94691C62E471E0809134
:1005F000F0039091F1030E94AA1A22E030E0B501C5
:10060000A4018091F0039091F1030E94691C62E4BF
:1006100071E08091F0039091F1030E94AA1A22E008
:1006200030E049815A816B817C818091F003909107
:10063000F1030E94691C64E471E08091F0039091E1
:10064000F1030E94AA1A65E070E080E090E00E9449
:1006500027186091750270917602809177029091CF
:1006600078020E945B227B018C0129813A814B81B7
:100670005C81C501B4010E946B018FEB93E00E9485
:100680004E0B65E571E08091F0039091F1030E94BB
:10069000AA1A62E471E08091F0039091F1030E9444
:1006A000AA1A409191025091920260919302709126
:1006B000940222E030E08091F0039091F1030E94D7
:1006C000691C62E471E08091F0039091F1030E9453
:1006D000AA1A4091950250919602609197027091EA
:1006E000980222E030E08091F0039091F1030E94A3
:1006F000691C62E471E08091F0039091F1030E9423
:10070000AA1A4091990250919A0260919B027091AD
:100710009C0222E030E08091F0039091F1030E946E
:10072000691C62E471E08091F0039091F1030E94F2
:10073000AA1A40919D0250919E0260919F02709171
:10074000A00222E030E08091F0039091F1030E943A
:10075000691C64E471E08091F0039091F1030E94C0
:10076000AA1A65E070E080E090E00E94271860918E
:1007700075027091760280917702909178020E94C2
:100780005B220E94FA010E94F8174B015C0164E1B0
:1007900070E080E090E00E9427180E94F8170E9405
:1007A0005B226B017C01C501B4010E945B229B01AD
:1007B000AC01C701B6010E9456216B017C0120915A
:1007C00091023091920240919302509194020E94C2
:1007D0006F234B015C019B01AC016091A102709100
:1007E000A2028091A3029091A4020E9457216093DB
:1007F000AD027093AE028093AF029093B00210925C
:10080000B1021092B2021092B3021092B40220917F
:100810009D0230919E0240919F025091A002C7011B
:10082000B6010E946F232091A9023091AA02409143
:10083000AB025091AC020E9457216B017C0120E079
:1008400030E0A9010E94BB2187FF0DC08BED9FE026
:10085000A9ECB0E48093B5029093B602A093B702DE
:10086000B093B8021BC02BED3FE049EC50E4C70148
:10087000B6010E946B2318164CF0C092B502D092BC
:10088000B602E092B702F092B80208C01092B50228
:100890001092B6021092B7021092B802C090B50240
:1008A000D090B602E090B702F090B802C701B6014E
:1008B0000E94BF219B01AC01C501B4010E946F23BE
:1008C0009B01AC016091790270917A0280917B0268
:1008D00090917C020E94572160938502709386025A
:1008E0008093870290938802C701B6010E94D223A9
:1008F0009B01AC01C501B4010E946F239B01AC01B7
:1009000060917D0270917E0280917F0290918002C1
:100910000E9457216093890270938A0280938B0210
:1009200090938C02C0928D02D0928E02E0928F0240
:10093000F09290028FEB93E00E944E0B6DE571E018
:100940008091F0039091F1030E94AA1A62E471E091
:100950008091F0039091F1030E94AA1A40918502C0
:1009600050918602609187027091880222E030E007
:100970008091F0039091F1030E94691C62E471E0A0
:100980008091F0039091F1030E94AA1A409189028C
:1009900050918A0260918B0270918C0222E030E0CB
:1009A0008091F0039091F1030E94691C62E471E070
:1009B0008091F0039091F1030E94AA1A40918D0258
:1009C00050918E0260918F027091900222E030E08F
:1009D0008091F0039091F1030E94691C62E471E040
:1009E0008091F0039091F1030E94AA1A4091AD0208
:1009F0005091AE026091AF027091B00222E030E0FF
:100A00008091F0039091F1030E94691C64E471E00D
:100A10008091F0039091F1030E94AA1A65E070E0C2
:100A200080E090E00E942718C0908D02D0908E0246
:100A3000E0908F02F090900220E030E0A901C70121
:100A4000B6010E94BB2187FF0DC08BED9FE0A9EC92
:100A5000B0E480938D0290938E02A0938F02B093A6
:100A6000900212C02BED3FE049EC50E4C701B60103
:100A70000E946B23181644F410928D0210928E027D
:100A800010928F021092900264E170E080E090E09A
:100A90000E9427180E94F8176093710270937202E7
:100AA0008093730290937402E5E8F2E049E752E024
:100AB0002DEA32E061EA72E0C190D190E190F190CC
:100AC000DA01CD92DD92ED92FD92AD01D901CD908A
:100AD000DD90ED90FD909D01DB01CD92DD92ED92D8
:100AE000FD92BD01B2E0E139FB0731F70F900F90A5
:100AF0000F900F90DF91CF911F910F91FF90EF908A
:100B0000DF90CF90BF90AF909F908F907F906F902D
:100B10005F904F903F902F900C94F817CF92DF92F8
:100B2000EF92FF92CF93DF9360E070E080E090E07F
:100B30000E949016CAEFD0E0C12CD12C76018BEE2A
:100B400092E00E946F0C6AE070E080E090E00E940A
:100B500027186091EF027091F002882777FD809549
:100B6000982F0E945D229B01AC01C701B6010E9433
:100B700057216B017C0165E671E085E194E00E94FC
:100B8000B71A22E030E0B701A60185E194E00E94A7
:100B9000691C6CE771E085E194E00E94B71A4AE0B5
:100BA00050E06AEF70E085E194E00E94621B64ED22
:100BB00071E085E194E00E94B71A219709F0BFCF58
:100BC00020E030E04AE753E4C701B6010E94C221A9
:100BD00060936D0270936E0280936F029093700227
:100BE00063E871E085E194E00E94B71A40916D02DC
:100BF00050916E0260916F027091700222E030E0BD
:100C000085E194E0DF91CF91FF90EF90DF90CF905E
:100C10000C94691C4F925F926F927F928F929F9279
:100C2000AF92BF92CF92DF92EF92FF92CF93DF937A
:100C3000C0E0D4E0C12CD12C760146015701260139
:100C400037018DEB92E00E94940F6AE070E080E043
:100C500090E00E9427186091BD027091BE02882723
:100C600077FD8095982F0E945D229B01AC01C30106
:100C7000B2010E9457212B013C016091BF0270918B
:100C8000C002882777FD8095982F0E945D229B01E6
:100C9000AC01C501B4010E9457214B015C01609178
:100CA000C1027091C202882777FD8095982F0E941B
:100CB0005D229B01AC01C701B6010E9457216B0167
:100CC0007C01219709F0BDCF20E030E040E85AE3F5
:100CD000C301B2010E946F236093690270936A029C
:100CE00080936B0290936C0220E030E040E85AE37E
:100CF000C501B4010E946F23609365027093660280
:100D0000809367029093680220E030E040E85AE365
:100D1000C701B6010E946F23609361027093620263
:100D20008093630290936402DF91CF91FF90EF90E4
:100D3000DF90CF90BF90AF909F908F907F906F90FB
:100D40005F904F90089540ED57E060E070E08FEBCA
:100D500093E00E94980B20E835E240E050E065E126
:100D600074E08FEB93E00E94510B8FEB93E00E94B5
:100D70004E0B67E971E08091F0039091F1030E94BE
:100D8000AA1A6AE070E080E090E00E94271841E033
:100D900060E08FEB93E00E940A0C40E855E260E0CF
:100DA00070E085E194E00E944E1A85E194E00E9493
:100DB000541A8823D1F38FEF92E00E94810880912A
:100DC0006002811105C081E0809360020E949C1541
:100DD00042E050E063E070E08BEE92E00E94190D7B
:100DE0008BEE92E00E94570C0E948E0542E050E08C
:100DF00064E070E08DEB92E00E94D10F8DEB92E009
:100E00000E942A0E0E940A060E94F7150E940416EC
:100E100081E00E94461681E00C944916CF93C8E009
:100E200083E10E94B718C150D9F70E9418160E949A
:100E3000111664E670E084E690E00E94901664E18A
:100E400070E080E090E00E942718CF910C9451024E
:100E500020E05D99216055992260FC01208308956E
:100E6000FC01208121FB0EF0559820FB0EF05D98CF
:100E70000EF45D9A21FB0EF4559A089520E028990E
:100E8000216020992260FC0120830895FC012081CB
:100E900021FB0EF0209820FB0EF028980EF4289AE3
:100EA00021FB0EF4209A0895FF920F931F93CF9386
:100EB000DF93CDB7DEB72A970FB6F894DEBF0FBE2B
:100EC000CDBF8C01F62ECE0101962A8749870E945C
:100ED000280130E05A993160529932603E8330E007
:100EE0002B993160239932603F83CE0105960E9491
:100EF0003E0730E0479931603F9932603887CE0134
:100F000004960E94280749852A85442311F05A9A9D
:100F100001C05A98529A21110AC06F2D70E084E0E6
:100F2000759567958A95E1F7C8010E9446016F2D76
:100F30006F70C8010E944601CE0104960E943007DE
:100F4000288521FB0EF03F9820FB0EF047980EF409
:100F5000479A21FB0EF43F9ACE0105960E94460760
:100F60003F8131FB0EF0239830FB0EF02B980EF4EE
:100F70002B9A31FB0EF4239A2E8121FB0EF052980E
:100F800020FB0EF05A980EF45A9A21FB0EF4529A56
:100F9000CE0101960E9439012A960FB6F894DEBF61
:100FA0000FBECDBFDF91CF911F910F91FF9008959C
:100FB00088EF92E00E945E148DEA91E09093F9022E
:100FC0008093F8028BEE92E00E94250C8DEB92E06C
:100FD0000C94AD0D80912F0390E020913003821B83
:100FE000910908952091300380912F03281750F420
:100FF000E22FF0E0EF5CFC4F808190E02F5F2093C8
:10100000300308958FEF9FEF0895E09130038091B2
:101010002F03E81730F4F0E0EF5CFC4F808190E0A4
:1010200008958FEF9FEF08950895CF92DF92EF928A
:10103000FF920F931F93CF93DF937C01CB018A0123
:1010400020910B03222389F0EB016B01C40ED51E06
:10105000CC15DD0569F06991D701ED91FC91019006
:10106000F081E02DC7010995F3CF642F0E94D009CC
:10107000C801DF91CF911F910F91FF90EF90DF900A
:10108000CF900895CF93DF931F92CDB7DEB76983DA
:1010900020910B032223D1F020910C03203240F049
:1010A00021E030E0FC013383228380E090E015C032
:1010B00080910D03E82FF0E0E25FFC4F998190836F
:1010C0008F5F80930D0380930C0305C061E0CE0118
:1010D00001960E94D00981E090E00F90DF91CF91BE
:1010E0000895FC011382128248EE53E060E070E044
:1010F000448355836683778389EB91E09183808372
:1011000008951092300310922F0310920D03109245
:101110000C030C94130981E080930B0360932E035E
:1011200010920D0310920C0308950F93062F21E0E7
:1011300040910C036EE073E080912E030E947909C8
:1011400010920D0310920C0310920B030F9108954F
:101150008F929F92AF92BF92CF92DF92EF92FF92C7
:101160000F931F93CF93DF93EC01F62ED42E4801FB
:101170005901EE2019F10E948B081E2D143008F041
:1011800013E01150B8F0E881F98128E0129FB00116
:101190001124A501940104C05695479537952795CC
:1011A0006A95D2F7CA01B9010190F081E02DCE0114
:1011B0000995E7CF60E0CE010E9495084D2D4132A0
:1011C00008F040E22C2D61E373E08F2D0E9431097D
:1011D0001092300380932F03DF91CF911F910F91D5
:1011E000FF90EF90DF90CF90BF90AF909F908F9047
:1011F0000895CF92EF920F931F93C22EE12C00E03F
:1012000010E098010E94A8081F910F91EF90CF90D5
:10121000089521E00C94F90861E00C9495088FEF93
:1012200092E00C9471081092BE0381E08093BC039D
:101230001092BB0361E082E00E94251961E083E027
:101240000E942519E9EBF0E080818E7F8083808108
:101250008D7F808388E48093B80085E48093BC0010
:101260000895413208F043C09091BE039111FCCF24
:1012700091E09093BE032093BC032FEF2093510382
:1012800010929603240F209395039093BD039091A1
:10129000BD03880F892B8093BD038091BB038130F0
:1012A00061F41092BB038091BD038093BB008091D9
:1012B000BC0083FDF8CF85EC01C085EE8093BC00B7
:1012C0008091BE038130E1F380919603841710F47E
:1012D0004091960327E933E0FB01D9018A2F821B55
:1012E000841718F48D918193F9CF842F089580E0AD
:1012F00008950F93413208F04AC09091BE039111B6
:10130000FCCF92E09093BE030093BC039FEF9093B9
:1013100051031092960340939503FB0167E973E034
:10132000DB019A2F961B941718F491919D93F9CF96
:101330001092BD039091BD03880F892B8093BD034C
:101340008091BB03813061F41092BB038091BD0397
:101350008093BB008091BC0083FDF8CF85EC01C079
:1013600085EE8093BC00222321F08091BE03823061
:10137000E1F3809151038F3F61F0809151038032FE
:1013800051F080915103803341F483E007C081E044
:1013900005C080E003C082E001C084E00F910895A1
:1013A000613298F42091BE03243089F46093730372
:1013B000FC0185E793E0DC012A2F281B261718F48F
:1013C00021912D93F9CF80E0089581E0089582E086
:1013D000089585ED8093BC008091BC0084FDFCCF16
:1013E0001092BE03089585EC8093BC001092BE035A
:1013F00008951F920F920FB60F9211242F933F93CF
:101400004F935F936F937F938F939F93AF93BF930C
:10141000EF93FF938091B900887F803609F49EC0D6
:1014200078F5883209F45DC090F4803109F456C033
:1014300038F4882309F4F5C0883009F44FC0F5C0AA
:10144000883109F44EC0803209F45FC0EEC08034A8
:1014500009F46AC058F4803309F457C0883309F09E
:10146000E4C0809351030E94F309DFC0803509F482
:101470004FC0883509F45DC0883409F0D6C0D3C0A8
:10148000883909F4C4C0A8F4883709F467C038F46F
:10149000883609F463C0803709F460C0C6C0883854
:1014A00009F4B5C0803909F45FC0803809F0BDC0C7
:1014B0005BC0803B09F483C038F4803A09F466C00D
:1014C000883A09F47CC0B1C0803C09F4A4C0883CCF
:1014D00009F4A1C0883B09F487C0A7C08091BD036F
:1014E00010C09091960380919503981770F5E09144
:1014F000960381E08E0F80939603F0E0E956FC4F4F
:1015000080818093BB0085EC83C0809351038BC0A6
:10151000E091960381E08E0F809396038091BB004B
:10152000F0E0E956FC4F80839091960380919503FB
:101530006BC0E091960381E08E0F809396038091BB
:10154000BB00F0E0E956FC4F80838091BC03811121
:101550006AC081E08093BB0384EA5EC083E080932D
:10156000BE0310925203CFCF80915203803208F015
:101570004EC0E091520381E08E0F80935203809120
:10158000BB00F0E0ED5AFC4F8083BDCF0E94F30911
:1015900080915203803230F4E0915203F0E0ED5A32
:1015A000FC4F10826091520370E0E091B703F0911C
:1015B000B80383E593E009951092520336C084E0A6
:1015C0008093BE031092740310927303E091B903E9
:1015D000F091BA03099580917303811105C081E0F0
:1015E0008093730310927503E091740381E08E0F72
:1015F00080937403F0E0EB58FC4F80818093BB0034
:101600009091740380917303981708F47CCF85E858
:101610008093BC000AC085EC8093BC001092BE038E
:1016200004C0109251030E94E909FF91EF91BF910C
:10163000AF919F918F917F916F915F914F913F916A
:101640002F910F900FBE0F901F9018950F931F931F
:10165000CF93DF93EC01662359F00E94F81769835A
:101660007A838B839C83DF91CF911F910F91089593
:101670000E94F81709811A812B813C81601B710B34
:10168000820B930B623371058105910530F763E09E
:1016900070E080E090E00E942718EACF60E00C94B0
:1016A000260BCF92DF92EF92FF920F931F93CF936F
:1016B000DF9300D000D0CDB7DEB78C017B01FC01F9
:1016C00072AB61AB8BE1C82ED12CC70129833A8361
:1016D0004B835C830E94541A29813A814B815C813F
:1016E000811113C0F1E0CF1AD10879F064E670E0FF
:1016F00080E090E029833A834B835C830E94271823
:101700005C814B813A812981E0CFBA01A901F801BE
:1017100081A992A90F900F900F900F90DF91CF9118
:101720001F910F91FF90EF90DF90CF900C944E1A85
:10173000FC0113AA14AA15AA16AA118212821382F6
:101740001482411551056105710521F0CB01BA01E3
:101750000C94271808951F93CF93DF93EC01162F55
:1017600065EC71E089A99AA90E94AA1A4AE050E0A2
:10177000612F89A99AA90E94771B6CEC71E089A955
:101780009AA90E94AA1A62E370E080E090E0DF91DB
:10179000CF911F910C9427181F93CF93DF93EC01E7
:1017A000162F8D81882389F189A99AA9DC01ED91F1
:1017B000FC910480F581E02D0995892BA9F307C0E0
:1017C0002637310519F12835310509F41D8289A91B
:1017D0009AA9DC01ED91FC910480F581E02D099539
:1017E0001816190694F489A99AA9DC01ED91FC91C7
:1017F0000680F781E02D09959C01332723363105BA
:10180000F9F6612FCE010E94AB0B83E6DF91CF91F9
:101810001F9108950F931F93CF93DF931F92CDB71E
:10182000DEB78C01662349F081E0F801858360E032
:10183000C80149830E94CC0B4981F80145830F9070
:10184000DF91CF911F910F910895FC0183E090E00B
:10185000908787831386128614860895EF92FF92ED
:101860001F93CF93DF931F92CDB7DEB77C01162F66
:10187000FC0161858FEF92E049830E948B08612F04
:101880008FEF92E00E9442084981642F8FEF92E02F
:101890000E9442088FEF92E00E940C09F7018683B4
:1018A0000F90DF91CF911F91FF90EF900895CF930C
:1018B000DF93EC018F819885029729F440E069E37A
:1018C000CE010E942E0C40E063E2CE010E942E0C5D
:1018D0004FE660E2CE01DF91CF910C942E0C9F92E7
:1018E000AF92BF92CF92DF92EF92FF920F931F932E
:1018F000CF93DF93EC0169858FEF92E00E948B0814
:10190000E091FF02F09100030190F081E02D68EA80
:101910008FEF92E009958FEF92E00E940C0946E06C
:1019200069858FEF92E00E9409090E94F8177B01F8
:101930008FEF92E00E94EA07069784F48A859B85E0
:10194000892BB1F30E94F8176E197F098A859B8550
:101950008617970768F781E08C872CC08FEF92E09D
:101960000E94F207A82E8FEF92E00E94F207982EB5
:101970008FEF92E00E94F207E82E8FEF92E00E9434
:10198000F207B82E8FEF92E00E94F207F82E8FEF49
:1019900092E00E94F207D92CC12CCA28D982C882B1
:1019A0001B2D00E00E291B830A83982F88278F297F
:1019B0009D838C83DF91CF911F910F91FF90EF90CA
:1019C000DF90CF90BF90AF909F9008951F93CF93DB
:1019D000DF931F92CDB7DEB7162F8FEF92E04983CA
:1019E0000E948B084981642F8FEF92E00E94420889
:1019F0008FEF92E00E940C09811114C041E0612F29
:101A00008FEF92E00E9409098FEF92E00E94EA07AF
:101A1000892B41F08FEF92E00F90DF91CF911F91D2
:101A20000C94F2078FEF9FEF0F90DF91CF911F91F2
:101A30000895EF92FF920F931F93CF93DF937C0152
:101A4000EB018A016330710521F04230510509F044
:101A500051C0CE010197039758F50115110581F08A
:101A60004FE050E06BE6C7010E94E60C8F3F2FEF7E
:101A7000920719F001E010E013C00130110551F098
:101A80004FE050E06AE6C7010E94E60C8F3FEFEF9F
:101A90009E0721F4C330D10569F027C000E010E0B3
:101AA000C330D10529F4873D9105F1F5C2E0D0E0BE
:101AB0002097D9F40115110561F04FE050E069E677
:101AC000C7010E94E60C833D910589F101301105A3
:101AD00049F04FE050E068E6C7010E94E60C833D04
:101AE000910541F1C330D10519F00230110511F40F
:101AF00080E025C0F701D087C783209759F0D7FD34
:101B000011C023977CF40130110511F48BE608C055
:101B10008AE606C00130110511F489E601C088E6A5
:101B2000F701818781E00BC0C1E0D0E0C1CF01E0C7
:101B300010E002C000E010E0C0E0D0E0D6CFDF91BE
:101B4000CF911F910F91FF90EF900895DC01ED91DF
:101B5000FC910190F081E02D0994CF93DF93EC018B
:101B600086E0EEE2F1E0DE01529601900D928A9558
:101B7000E1F786E0E4E3F1E0DE011C9601900D92CE
:101B80008A95E1F784E090E09A8F898F1CA61BA6C6
:101B90001DA6DF91CF910895EF92FF921F93CF93EF
:101BA000DF931F92CDB7DEB77C01162FFC01638D4A
:101BB0008FEF92E049830E948B08612F8FEF92E0B4
:101BC0000E9442084981642F8FEF92E00E944208F0
:101BD0008FEF92E00E940C09F701808F0F90DF9148
:101BE000CF911F91FF90EF900895EF92FF921F9376
:101BF000CF93DF931F92CDB7DEB77C01162FFC0188
:101C0000648D8FEF92E049830E948B08612F8FEFE4
:101C100092E00E9442084981642F8FEF92E00E9477
:101C200042088FEF92E00E940C09F701808F0F901D
:101C3000DF91CF911F91FF90EF900895FC01218DCE
:101C4000328D2330310511F0603210F40C94F50D13
:101C50000C94CC0DCF93DF93EC01898D9A8D83305A
:101C60009105D9F440E061E2CE010E941E0E47E5E5
:101C700060E2CE010E941E0E44E664E2CE010E94A4
:101C80001E0E40E265E2CE010E941E0E40E066E2BA
:101C9000CE01DF91CF910C941E0E029739F448E0EB
:101CA00063E2CE010E94CC0D47E406C040E063E24F
:101CB000CE010E94CC0D47E260E2CE010E94CC0D25
:101CC0004CE060E0CE010E94F50D40E261E0CE0103
:101CD0000E94F50D40E062E0CE01DF91CF910C94BF
:101CE000F50D9F92AF92BF92CF92DF92EF92FF924B
:101CF0000F931F93CF93DF93EC016B8D8FEF92E0E7
:101D00000E948B0868EA70E08FEF92E00E94A60DB7
:101D10008FEF92E00E940C09888F46E06B8D8FEF69
:101D200092E00E9409090E94F8176B018FEF92E080
:101D30000E94EA07069784F48BA59CA5892BB1F332
:101D40000E94F8176C197D098BA59CA5861797072B
:101D500068F781E08DA72CC08FEF92E00E94F20718
:101D6000A82E8FEF92E00E94F207982E8FEF92E05C
:101D70000E94F207C82E8FEF92E00E94F207B82E61
:101D80008FEF92E00E94F207D82E8FEF92E00E9430
:101D9000F207F92CE12CEA28F982E8821B2D00E0F9
:101DA0000C291B830A83982F88278D299D838C8378
:101DB000DF91CF911F910F91FF90EF90DF90CF9027
:101DC000BF90AF909F900895CF92DF92EF92FF92D5
:101DD0000F931F93CF93DF93EC016C8D8FEF92E005
:101DE0000E948B08898D9A8D039721F469A17AA1AD
:101DF000606802C06F8D78A18FEF92E00E94A60DFF
:101E00008FEF92E00E940C09888F46E06C8D8FEF77
:101E100092E00E9409090E94F8178B018FEF92E06F
:101E20000E94EA07069784F48BA59CA5892BB1F341
:101E30000E94F817601B710B8BA59CA5861797074E
:101E400068F781E08DA767C0898D9A8D0397F9F4B3
:101E50008FEF92E00E94F207C82E8FEF92E00E946F
:101E6000F207D82E8FEF92E00E94F207E82E8FEF54
:101E700092E00E94F207182F8FEF92E00E94F20783
:101E8000F82E8FEF92E00E94F207082F35C08FEFF7
:101E900092E00E94F207D82E8FEF92E00E94F207A4
:101EA000C82E298D3A8D8FEF92E0232B99F40E9452
:101EB000F207182F8FEF92E00E94F207E82E8FEFC3
:101EC00092E00E94F207082F8FEF92E00E94F20743
:101ED000F82E12C00E94F207082F8FEF92E00E94A6
:101EE000F207F82E8FEF92E00E94F207182F8FEF83
:101EF00092E00E94F207E82E6C2D70E07D297F832E
:101F00006E834E2D50E0512B598748872F2D30E09E
:101F1000302B3B872A87DF91CF911F910F91FF9044
:101F2000EF90DF90CF900895CF93DF93EC010E9464
:101F3000710ECE01DF91CF910C94E40E1F93CF93DD
:101F4000DF931F92CDB7DEB7162F8FEF92E0498354
:101F50000E948B084981642F8FEF92E00E94420813
:101F60008FEF92E00E940C09811114C041E0612FB3
:101F70008FEF92E00E9409098FEF92E00E94EA073A
:101F8000892B41F08FEF92E00F90DF91CF911F915D
:101F90000C94F2078FEF9FEF0F90DF91CF911F917D
:101FA0000895EF92FF920F931F93CF93DF93EC016D
:101FB0008B017A016430710521F04230510509F03E
:101FC00055C0C8010397029708F0CDC0E114F10491
:101FD00071F04FE050E06DE1CE010E949E0F893418
:101FE000910509F4B8C081E0E816F10451F04FE022
:101FF00050E06EE1CE010E949E0F8934910509F4F4
:10200000AEC00430110509F0D0C0E114F10469F04C
:1020100040E250E069E1CE010E949E0F019679F402
:1020200021E0E216F10409F4A3C040E250E068E1C7
:10203000CE010E949E0F019609F0A4C099C0043001
:10204000110509F09BC04FE050E06EE1CE010E9407
:102050009E0FEE24E394F12CCC9709F0A9C002E086
:1020600010E082E0E816F10409F486C01A8F098FA7
:102070000130110569F124F4012B09F449C069C04C
:102080000230110541F10330110509F062C0EA94F4
:10209000EF2811F48DE101C08EE18C8F8B8F88E0E9
:1020A00090E09AA389A389E090E098A38F8F8AE0BB
:1020B00090E09EA38DA38BE090E09CA38BA38CE08B
:1020C00090E09AA789A78DE090E098A78FA341C0E0
:1020D000EA94EF2811F489E101C088E18B8F8EE149
:1020E0008C8F83E090E098A38F8F84E090E09AA398
:1020F00089A387E090E09CA38BA388E090E09EA357
:102100008DA385E090E098A78FA386E090E01FC0A4
:10211000EA94EF2811F489E101C088E18B8F8EE108
:102120008C8F83E090E098A38F8F84E090E09AA357
:1021300089A385E090E09CA38BA386E090E09EA31A
:102140008DA387E090E098A78FA388E090E09AA7FE
:1021500089A781E030C0EE24E394F12C02C0E12C89
:10216000F12C03E010E00330110508F44ECF79CFD5
:102170000430110509F075CF80E01DC0EE24E39412
:10218000F12C6FCF0430110569F44FE050E06EE19F
:10219000CE010E949E0F31E020E0CC9709F030E0A4
:1021A000032F122FE12CF12C5CCF03E010E059CF6C
:1021B00000E010E056CFDF91CF911F910F91FF907B
:1021C000EF9008959091F803E091FC03F091FD03E6
:1021D000992311F0849101C080812FEB280F2A31BF
:1021E00010F4805E0895803249F49F012F5F3F4FC5
:1021F0003093FD032093FC03EF2B31F708951F93D9
:10220000CF93DF930E94E210C0E0D0E01AE090ED9F
:10221000980F9A30B8F49E01129FE001139FD00DE1
:102220001124C80FD11D87FDDA95E0978091FC033A
:102230009091FD0301969093FD038093FC030E940F
:10224000E210E5CFCE01DF91CF911F91089510925A
:1022500072001092C00084E08093C10089E08093F6
:10226000C20081E08093C300EFEBF0E083E0808365
:1022700088EE8093D10010821092D200579A789401
:1022800008952F923F924F925F926F927F928F921A
:102290009F92AF92BF92CF92DF92EF92FF920F93F5
:1022A0001F93CF93DF93CDB7DEB727970FB6F89480
:1022B000DEBF0FBECDBF7C011B014D838091FE03AD
:1022C000811105C081E08093FE030E9427111092C6
:1022D0000F01F7FE04C0E894F7F81AE001C011E01E
:1022E00088E2189F802D1124282F30E03F832E8311
:1022F0002E153F0510F4FF82EE82113049F44E8115
:102300005F814131574220F0E0E1F7E2FF83EE8345
:10231000812E912CA12CB12C8E819F819695879531
:102320009C0140E050E029833A834B835C834E81DB
:102330005F812A01612C712CA501940160E072E19A
:102340008AE790E00E94FB2329813A814B815C81DE
:10235000620F731F841F951FA30192010E944D24D9
:1023600069017A01EE24FF2400E00F5FC11434E01C
:10237000D306E104F10408F120E032E14AE750E03D
:10238000002E04C055954795379527950A94D2F7A6
:10239000C501B4010E94FB2329813A814B815C81F4
:1023A000620F731F841F951FA30192010E944D2489
:1023B00069017A01EE24FF24D8CF1A3049F48E81C6
:1023C0009F8105966AE070E00E9417247F836E83E8
:1023D0004E815F81483E83E0580759F09101DA0150
:1023E0000E94722428EE33E040E050E00E944D2429
:1023F0001901109272008091C100807F802B809320
:10240000C100BB27AF2D9E2D8D2D8093BF00C092A4
:10241000D1002D81203108F02FE080E190E0821B77
:10242000910904C0F694E794D794C7948A95D2F79B
:102430008D2D99278093BF00C092D2003092FB036C
:102440002092FA0389B38FEF89BB84E080937200F6
:1024500027960FB6F894DEBF0FBECDBFDF91CF91A8
:102460001F910F91FF90EF90DF90CF90BF90AF90B2
:102470009F908F907F906F905F904F903F902F90A4
:102480000895CF93DF93EB018F3F11F0411105C009
:1024900040E0BE0188EE93E043C0813130F050EF60
:1024A000580F503618F05FE501C050E0852F6CE002
:1024B0000E940B24682F74EF760390011124250FDE
:1024C000311D2C30310540F4F901EE0FFF1FE35EA2
:1024D000FD4F2081318102C020E030E0873081F063
:1024E000082E02C0220F331F0A94E2F7823028F030
:1024F000C90105966AE070E00CC0C90190580CC093
:10250000C90136E0880F991F3A95E1F7029665E018
:1025100070E00E941724CB01403108F04FE0BE016B
:10252000DF91CF910C9441114F925F926F927F9205
:102530008F929F92AF92BF92CF92DF92EF92FF92D3
:102540000F931F93CF93DF9300D0CDB7DEB790905A
:102550000E018091F703882321F06091F603611149
:1025600017C077247394B0ECAB2EBDE5BB2E1AE0F8
:10257000612E04E0802E80EDC82E87E0D82E94E0F6
:10258000E92EF12C04EF11E02FE0422E512C15C062
:1025900070E040E088EE93E00E9441111092F60353
:1025A00029C18636D4F5813609F4A9C07CF58C336F
:1025B00009F460C08E3381F493940E94E21020915C
:1025C000FC033091FD032F5F3F4F3093FD032093B9
:1025D000FC03853631F752C0813209F08BC08092FE
:1025E0000E01D0920D01C0920C01F0920B01E0920D
:1025F0000A011093090100930801509207014092CB
:1026000006011092F703A4E09A2ED7CF8336A1F1EA
:102610000CF478C010E082E077C08D36C1F194F4FC
:10262000873691F174F18C3609F064C00E94FF1076
:10263000BC0190930B0180930A0180910C01909151
:102640000D0151C08237C9F14CF48F3609F052C0E8
:102650000E94FF10982E80930E01AFCF843781F136
:10266000863709F047C00E94FF10909307018093BE
:102670000601A3CF9A94A1CF10E020C010E084E01F
:1026800043C010E085E040C010E087E03DC00E94FC
:10269000E2108C3619F41092F70304C07092F7031D
:1026A0001092F6032091FC033091FD032F5F3F4F02
:1026B0003093FD032093FC0380CF11E080E024C021
:1026C0000E94FF10BC01C5010E941724669EC00134
:1026D000679E900D112490930D0180930C016091E1
:1026E0000A0170910B010E941724709309016093F5
:1026F000080163CF1092FD031092FC037BC010E031
:1027000089E002C010E08BE0082F9CE0999E000D4C
:1027100011240E94E210982F977F933261F4209148
:10272000FC033091FD032F5F3F4F3093FD03209357
:10273000FC030F5FEECF8D3271F42091FC033091DA
:10274000FD032F5F3F4F3093FD032093FC030150A7
:102750000E94E210F0CF609108017091090181534D
:10276000883050F4E0900C01F0900D010E94FF10B1
:10277000BC01C7010E9417247B01F694E79469838A
:102780007A830E94E21069817A818E3269F4209105
:10279000FC033091FD032F5F3F4F3093FD032093E7
:1027A000FC036E0D7F1DE9CF8091F703882339F07C
:1027B0009B01369527952093F603621B7109409182
:1027C0000601112311F08FEF01C0802F0F900F90A1
:1027D000DF91CF911F910F91FF90EF90DF90CF90FD
:1027E000BF90AF909F908F907F906F905F904F9031
:1027F0000C9441120F900F90DF91CF911F910F9188
:10280000FF90EF90DF90CF90BF90AF909F908F9010
:102810007F906F905F904F9008951F920F920FB628
:102820000F9211242F933F934F935F936F937F9356
:102830008F939F93AF93BF93EF93FF938091FA038E
:102840009091FB039C01215031093093FB032093AD
:10285000FA03892B11F51092720078948091C100CF
:10286000807F84608093C10083E08093BF0088EE06
:102870008093D1001092BF001092D20081E080932B
:102880000F018091FC039091FD03892B31F0809121
:10289000F903811102C00E949412FF91EF91BF9140
:1028A000AF919F918F917F916F915F914F913F91E8
:1028B0002F910F900FBE0F901F901895FC0113825F
:1028C000128289E392E091838083148208951F939A
:1028D000CF93DF93EC01162F64600E94E1141E83F6
:1028E000DF91CF911F910895CF93DF93EC01E881A1
:1028F000F9810480F581E02D099563E0CE010E9405
:10290000DD148FE991E40197F1F700C0000063E066
:10291000CE010E94DD1487E592E00197F1F700C037
:10292000000063E0CE010E94DD1462E0CE010E944F
:10293000DD1468E2CE010E94E11460E0CE010E9445
:10294000EF14CE010E94E51462E0CE010E946714EC
:1029500064E0CE01DF91CF910C94EF140F931F939D
:10296000CF93DF9300D01F92CDB7DEB78C01DC018F
:1029700014968C91149781110CC081E014968C935D
:10298000C8012B834A8369830E94741469814A8138
:102990002B81D801ED91FC910680F781E02DC801D3
:1029A0000995B5ECBA95F1F700000F900F900F90D4
:1029B000DF91CF911F910F91089521E040E00C9499
:1029C000AE1420E040E00C94AE1461E00E94E114EB
:1029D0008FE39FE10197F1F700C0000008951F9376
:1029E000CF93DF93EC01162F68600E94E1141D83E2
:1029F000DF91CF911F91089520E041E00C94AE1437
:102A00000E94FC1481E090E00895CF92DF92EF9253
:102A1000FF920F931F93CF93DF937C018A01EB0109
:102A20006B01C40ED51ECC15DD0529F06991C701D7
:102A30000E94FC14F8CFC801DF91CF911F910F9134
:102A4000FF90EF90DF90CF9008954FB141705CB14F
:102A500056FB552750F954278091050460910604D0
:102A60002091FF0330910004852790E06427861BA6
:102A70009109820F931F909300048093FF0390911C
:102A8000060480910504591729F0481719F081E0D0
:102A900080930404509306044093050408951F9204
:102AA0000F920FB60F9211242F933F934F935F9382
:102AB0006F938F939F932CB130E035952795359583
:102AC0002795422F417083B190E054E0959587950A
:102AD0005A95E1F782279327582F51708091070468
:102AE000609108042091010430910204852790E050
:102AF0006427861B9109820F931F90930204809391
:102B000001049091080480910704591729F048178F
:102B100019F081E080930404509308044093070463
:102B20009F918F916F915F914F913F912F910F9056
:102B30000FBE0F901F90189524982C9A6A98729A3D
:102B40006E98769A8098889A81E08093680090E1E8
:102B500090936B008BBB41E050E065E275E184E04F
:102B60000E949B168CB182FB882780F9817080932C
:102B7000070493B1809107049295917089278093FF
:102B800008041092020410920104109204048FB100
:102B90008170809305049CB18091050496FB992770
:102BA00090F9892780930604109200041092FF0385
:102BB00010920304089580916002811105C081E0A4
:102BC000809360020C949C1508950E94DB15F89484
:102BD0008091010490910204789408950E94DB157D
:102BE000F8948091FF0390910004789408950E94D6
:102BF000DB15F89480910104909102041092020474
:102C000010920104789408950E94DB15F894809145
:102C1000FF0390910004109200041092FF03789437
:102C200008950E94DB158091040410920404089515
:102C30000E94DB15809103041092030408952E98DE
:102C4000269A2D98259A2A98229A2998219A80EADC
:102C50008093800081E18093810080E991E09093EE
:102C6000870080938600109289001092880010924D
:102C70008B0010928A00089580910904811105C08B
:102C800081E0809309040C941F16089580930B042F
:102C9000089580930A040895CF93DF93EC010E9476
:102CA0003C16D7FF05C0D195C195D10981E001C07F
:102CB00080E0C13991E0D90714F0C0E9D1E0D093A8
:102CC0008B00C0938A0090910B04891711F02A9A07
:102CD00001C02A98229ADF91CF910895CF93DF9374
:102CE000EC010E943C16D7FF05C0D195C195D109D2
:102CF00081E001C080E0C13991E0D90714F0C0E95A
:102D0000D1E0D0938900C093880090910A0489177C
:102D100011F0299A01C02998219ADF91CF91089545
:102D2000CF93DF93EB010E944C16CE01DF91CF9140
:102D30000C946E160895853008F04CC0E82FF0E032
:102D4000EE0FFF1FE05FFE4F718360838230E1F082
:102D500018F4813069F004C0833019F1843071F1C6
:102D6000809169008C7F842B80936900E89A089594
:102D700080916900440F551F440F551F837F842B9A
:102D800080936900E99A08958091690034E0440FC6
:102D9000551F3A95E1F78F7C842B80936900EA9A5E
:102DA00008958091690026E0440F551F2A95E1F7A8
:102DB0008F73842B80936900EB9A089580916A0049
:102DC00094E0440F551F9A95E1F78F7C842B8093F4
:102DD0006A00EE9A08951F920F920FB60F92112477
:102DE0002F933F934F935F936F937F938F939F9313
:102DF000AF93BF93EF93FF93E0911001F091110116
:102E00000995FF91EF91BF91AF919F918F917F9124
:102E10006F915F914F913F912F910F900FBE0F9047
:102E20001F9018951F920F920FB60F9211242F9397
:102E30003F934F935F936F937F938F939F93AF9342
:102E4000BF93EF93FF93E0911201F0911301099565
:102E5000FF91EF91BF91AF919F918F917F916F9172
:102E60005F914F913F912F910F900FBE0F901F9048
:102E700018951F920F920FB60F9211242F933F9324
:102E80004F935F936F937F938F939F93AF93BF9372
:102E9000EF93FF93E0911401F09115010995FF91D3
:102EA000EF91BF91AF919F918F917F916F915F91C2
:102EB0004F913F912F910F900FBE0F901F9018953B
:102EC0001F920F920FB60F9211242F933F934F939F
:102ED0005F936F937F938F939F93AF93BF93EF9382
:102EE000FF93E0911601F09117010995FF91EF9181
:102EF000BF91AF919F918F917F916F915F914F9112
:102F00003F912F910F900FBE0F901F9018951F9219
:102F10000F920FB60F9211242F933F934F935F930D
:102F20006F937F938F939F93AF93BF93EF93FF9391
:102F3000E0911801F09119010995FF91EF91BF916E
:102F4000AF919F918F917F916F915F914F913F9141
:102F50002F910F900FBE0F901F9018951F920F92F8
:102F60000FB60F9211242F933F938F939F93AF939C
:102F7000BF9380910D0490910E04A0910F04B09125
:102F8000100430910C0423E0230F2D3720F4019618
:102F9000A11DB11D05C026E8230F0296A11DB11D7C
:102FA00020930C0480930D0490930E04A0930F04BF
:102FB000B09310048091110490911204A091130415
:102FC000B09114040196A11DB11D8093110490933A
:102FD0001204A0931304B0931404BF91AF919F9176
:102FE0008F913F912F910F900FBE0F901F901895CA
:102FF0002FB7F89460910D0470910E0480910F0426
:10300000909110042FBF08953FB7F8948091110458
:1030100090911204A0911304B091140426B5A89BBA
:1030200005C02F3F19F00196A11DB11D3FBF6627B6
:10303000782F892F9A2F620F711D811D911D42E0FB
:10304000660F771F881F991F4A95D1F708958F92B1
:103050009F92AF92BF92CF92DF92EF92FF926B015D
:103060007C010E9404184B015C01C114D104E104ED
:10307000F104F1F00E94BA200E940418681979093D
:103080008A099B09683E73408105910570F321E030
:10309000C21AD108E108F10888EE880E83E0981E74
:1030A000A11CB11CC114D104E104F10429F7DDCF46
:1030B000FF90EF90DF90CF90BF90AF909F908F9058
:1030C0000895789484B5826084BD84B5816084BDA0
:1030D00085B5826085BD85B5816085BDEEE6F0E091
:1030E000808181608083E1E8F0E0108280818260ED
:1030F0008083808181608083E0E8F0E0808181606E
:103100008083E1E9F0E0808182608083808181605A
:103110008083E0E9F0E0808181608083E1ECF0E091
:1031200080818460808380818260808380818160EF
:103130008083E3ECF0E0808181608083E0ECF0E06C
:10314000808182608083E2ECF0E080818160808316
:10315000EAE7F0E080818460808380818260808300
:10316000808181608083808180688083089582313E
:1031700008F08251E82FF0E0E851FF4FE491809190
:103180007B00E3FB222720F930E095E0220F331F7C
:103190009A95E1F78F7D822B80937B00E770809179
:1031A0001A0120E4829FC0011124E82BE0937C00E7
:1031B00080917A00806480937A0080917A0086FD05
:1031C000FCCF809178002091790090E0922B0895B7
:1031D00090E0FC013197EF30F105B0F5EA5AFF4F6E
:1031E0000C946C24809180008F7703C080918000C4
:1031F0008F7D80938000089580918000877FF9CF34
:1032000084B58F7702C084B58F7D84BD0895809189
:1032100090008F7707C0809190008F7D03C08091D0
:103220009000877F8093900008958091C0008F77F1
:1032300003C08091C0008F7D8093C000089580916D
:10324000C200877F8093C20008950F931F93CF938E
:10325000DF931F92CDB7DEB7282F30E0F901EC5095
:10326000FF4F8491F901ED5EFE4F1491F901EE5C80
:10327000FE4F04910023C9F0882321F069830E9446
:10328000E8186981E02FF0E0EE0FFF1FEF5AFE4FC4
:10329000A591B4919FB7F8948C91611103C01095DA
:1032A000812301C0812B8C939FBF0F90DF91CF9121
:1032B0001F910F9108950E948C24CF93DF931F924A
:1032C000CDB7DEB76983DC01ED91FC910280F3811B
:1032D000E02D41E050E0BE016F5F7F4F09950F90F8
:1032E000DF91CF910895CF93DF93EC018C859D857D
:1032F00097FF05C082E00E947C1D9D878C878C858E
:103300009D85DF91CF91089583E00C941020FC01FE
:103310008485958597FD06C082E00E94241D90E07B
:103320000196089582E00E94241D90E00895FC011A
:103330008485958597FD05C02FEF3FEF358724875E
:10334000089582E00C947C1DCF93DF93EC01809173
:103350002601882331F083E00E94AD1D181619065E
:1033600034F081E090E09B838A8380E090E0DF91FD
:10337000CF910895FC0120812E5F208342E450E02C
:103380006FE571E080E80C94481EFC01218180818A
:10339000813A59F4213209F04BC047E050E06FE127
:1033A00071E080E00E94481E5EC0813209F040C09A
:1033B000233289F4838190E0982F88273281832BF0
:1033C000A0E0B0E080931B0190931C01A0931D012D
:1033D000B0931E010FC0203239F467E070E08FE136
:1033E00091E00E94791E09C0223221F482818093EB
:1033F000260103C02D7F2032B1F580916504811133
:1034000003C0E0E0F8E002C0EEEFFAE080911F01B7
:1034100090912001A0912101B0912201803B944024
:10342000A105B10511F58091260180FF03C01DC0E3
:1034300080E00895EE3F2AE0F20731F0808191812B
:103440009093FF0A8093FE0A87E797E79183808332
:103450002BE088E190E00FB6F894A8958093600087
:103460000FBE2093600081E0089588E10FB6F894C4
:1034700080936000109260000FBEA895EE3F8AE036
:10348000F80739F08091FE0A9091FF0A91838083BA
:10349000EACF1092FF0A1092FE0AE5CF2FEF3FEF1E
:1034A000FC01358724870895CF93C09126016AE0F7
:1034B00070E080E090E00E94271881E0C11101C017
:1034C00080E0CF910895109218041092170488EEAE
:1034D00093E0A0E0B0E08093190490931A04A093C5
:1034E0001B04B0931C0485E492E09093160480932F
:1034F00015048FEF9FEF9093220480932104089589
:1035000008950E9461180E94801A86E694E00E9445
:103510009D200E94A306C0E0D0E00E940E072097E5
:10352000E1F30E940000F9CF6115710581F0DB0124
:103530000D900020E9F7AD0141505109461B570B92
:10354000DC01ED91FC910280F381E02D099480E093
:1035500090E008950C94941ADC01ED91FC91019097
:10356000F081E02D099462ED71E00C94941A0F93B0
:103570001F93CF93DF93EC010E94941A8C01CE012C
:103580000E94B31A800F911FDF91CF911F910F916D
:1035900008958F929F92AF92BF92DF92EF92FF9227
:1035A0000F931F93CF93DF93CDB7DEB7A1970FB6DD
:1035B000F894DEBF0FBECDBF7C01F42FD52ECB011A
:1035C00019A2223008F42AE08E010F5D1F4F822ECF
:1035D000912CA12CB12C6F2F7D2DA50194010E945F
:1035E0002B24F22FD32ECA01015011096A3014F492
:1035F000E0E301C0E7E3E60FD801EC93232B242B93
:10360000252B49F7B801C7010E94941AA1960FB65D
:10361000F894DEBF0FBECDBFDF91CF911F910F9108
:10362000FF90EF90DF90BF90AF909F908F900895A4
:10363000CF92DF92EF92FF920F931F93CF93DF937E
:10364000EC016A017B012115310579F4E881F981EA
:103650000190F081E02D642FDF91CF911F910F91A8
:10366000FF90EF90DF90CF9009942A303105E9F474
:1036700077FF1AC06DE20E94AC1A8C0144275527CF
:10368000BA014C195D096E097F092AE0CE010E943A
:10369000C91A800F911FDF91CF911F910F91FF9059
:1036A000EF90DF90CF9008952AE0B701A601CE01F8
:1036B000DF91CF911F910F91FF90EF90DF90CF900E
:1036C0000C94C91A9A01AB01662757FD6095762FB5
:1036D0000C94181B2115310541F4DC01ED91FC918E
:1036E0000190F081E02D642F09940C94C91A9A017D
:1036F000462F50E060E070E00C946A1B4F925F929E
:103700006F927F928F929F92AF92BF92CF92DF92F1
:10371000EF92FF920F931F93CF93DF93EC016A0117
:103720007B01B22E9A01AB01C701B6010E94D823DA
:10373000882319F061E572E027C026013701E8947B
:1037400077F82FEF3FEF4FE75FE7C301B2010E9429
:10375000D82381110DC02FEF3FEF4FE75FE7C30183
:10376000B2010E94BB2118161CF465E572E00CC082
:103770002FEF3FEF4FE75FE4C701B6010E946B23D5
:103780001816ACF469E572E0CE01DF91CF911F917C
:103790000F91FF90EF90DF90CF90BF90AF909F90F0
:1037A0008F907F906F905F904F900C94941A2FEFB2
:1037B0003FEF4FE75FECC701B6010E94BB2187FDD9
:1037C000E1CF20E030E0A901C701B6010E94BB2192
:1037D00087FF0AC06DE2CE010E94AC1A8C01F7FA95
:1037E000F094F7F8F09402C000E010E0A12C60E043
:1037F00070E080E09FE3AB1441F020E030E040E275
:1038000051E40E94C221A394F6CF9B01AC01C701F1
:10381000B6010E9457216B017C010E942F222B01CF
:103820003C010E945B229B01AC01C701B6010E94D2
:1038300056216B017C012AE0B301A201CE010E9456
:10384000C91A080F191FBB2039F06DE572E0CE01CF
:103850000E94941A080F191F7B2C772041F120E059
:1038600030E040E251E4C701B6010E946F236B01D2
:103870007C010E942A224B01AA2497FCA094BA2C16
:103880002AE030E0B501A401CE010E94181B080F08
:10389000191FC501B4010E945D229B01AC01C70143
:1038A000B6010E9456216B017C017A94D6CFC801E3
:1038B000DF91CF911F910F91FF90EF90DF90CF900C
:1038C000BF90AF909F908F907F906F905F904F9040
:1038D00008950C947E1B615030F02091F100FC01A2
:1038E00020830196F8CF289884E680936F0408958A
:1038F00040916A0450916B042091680430916904EE
:1039000042175307B4F49091E8009570E1F3909159
:10391000E80092FD19C08093F10080916A049091B3
:103920006B0401968F739927892B19F48EEF80937E
:10393000E80080916A0490916B04019690936B0467
:1039400080936A0481E0089580E00895CF92DF9229
:10395000EF92FF920F931F93CF93DF931F92CDB7F8
:10396000DEB7082F162FF42E862F880F8E5F9983CF
:103970000E94781C83E00E94781CE02EC02E998162
:10398000D92E8C2D8E19811798F4F601F7FE02C0FE
:10399000849101C080810E94781C082F80E00E94E1
:1039A000781C8023FFEFCF1ADF0A8111EACF01C014
:1039B00081E00F90DF91CF911F910F91FF90EF90D9
:1039C000DF90CF9008958091D70081608093D700D9
:1039D00080EA8093D80089B5806189BD89B582600D
:1039E00089BD09B400FEFDCF61E070E080E090E0A9
:1039F0000E9427188091D8008F7C80618093D80026
:103A00008091E000807F8093E0000895CF93DF9362
:103A10001F92CDB7DEB71982CE0101960E94BA1966
:103A20000E944221BE016F5F7F4F0E94BB208981AF
:103A30000F90DF91CF9108952FB7FC012083F89468
:103A400067706093E9000895CF93DF931F92CDB71D
:103A5000DEB7682FCE0101960E941C1D8091F200F6
:103A600099819FBF0F90DF91CF910895FF920F939F
:103A70001F93CF93DF9300D0CDB7DEB7F62E8A0128
:103A800090916E04992311F057FF03C08FEF9FEFC1
:103A90002BC0682FCE0101967A830E941C1D809155
:103AA000F20090E0A8017A81801791070CF4AC0134
:103AB000EF2DF72FF40E84E6FE1639F02898809348
:103AC0006F049091F1009193F7CF4115510521F0CA
:103AD0008091F200882321F089818FBFCA0104C040
:103AE0008BE68093E800F8CF0F900F90DF91CF9195
:103AF0001F910F91FF900895CF93DF931F92CDB741
:103B0000DEB741E050E0BE016F5F7F4F0E94361D7F
:103B1000019719F4898190E002C08FEF9FEF0F9019
:103B2000DF91CF910895CF93DF931F92CDB7DEB78A
:103B3000682FCE0101960E941C1D9091E800892FEC
:103B4000807295FF04C09091F20080E4891B9981F6
:103B50009FBF0F90DF91CF9108956F927F928F92C8
:103B60009F92AF92BF92CF92DF92EF92FF920F930C
:103B70001F93CF93DF931F92CDB7DEB7782E7B01D3
:103B8000C42EB52E80916E04882369F0042F152F62
:103B90008AEFD82E872D8072982E9AE3A92E872D32
:103BA0008074882E11C08FEF9FEF57C0872D0E9421
:103BB000931D682E81110CC0DA94A9F361E070E0C6
:103BC00080E090E00E9427180115110579F73BC0AD
:103BD000282F30E0021713070CF4602E672DCE015A
:103BE00001960E941C1D8091E80085FF29C0262DAA
:103BF00030E0021B130B992039F06A948FEF68169E
:103C0000B1F01092F100F9CFF701862D77FE07C0D1
:103C1000815058F094919093F1003196F9CF8150F2
:103C200020F091919093F100FACFE20EF31E809173
:103C3000E80085FF0FC00115110511F481100AC0BD
:103C400089818FBFC1CF5D9884E6809370048C2DED
:103C50009B2D03C0A092E800F3CF0F90DF91CF918E
:103C60001F910F91FF90EF90DF90CF90BF90AF909A
:103C70009F908F907F906F9008951092E90010921E
:103C80006B0410926A049093690480936804089509
:103C9000CF92DF92FF920F931F93CF93DF9300D0C9
:103CA000CDB7DEB7F82E8A016B0101151105B1F011
:103CB000F601F7FE02C0849101C0808149835A83D6
:103CC0000E94781C01501109FFEFCF1ADF0A4981C9
:103CD0005A818111EACF8FEF9FEF01C0CA010F9087
:103CE0000F90DF91CF911F910F91FF90DF90CF90B8
:103CF0000895BF92CF92DF92EF92FF920F931F939E
:103D0000CF93DF936C018B01EB013BEFB32E209738
:103D1000C1F07E01C134D1051CF020E4E22EF12C6B
:103D20008091E80082FFFCCFC8018C1B9D0B6E2D9B
:103D30008C0D9D1D0E946B1CB092E800CE19DF090E
:103D4000E6CFC801DF91CF911F910F91FF90EF90C7
:103D5000DF90CF90BF9008951F920F920FB60F92F1
:103D60001124DF92EF92FF920F931F932F933F93B3
:103D70004F935F936F937F938F939F93AF93BF9373
:103D8000EF93FF93CF93DF93CDB7DEB76C97DEBF92
:103D9000CDBF1092E9008091E80083FF23C168E065
:103DA000CE0145960E946B1C82EF8093E8003D890E
:103DB00037FF05C08091E80080FFFCCF03C08EEF85
:103DC0008093E800832F807609F0F0C02E894F8918
:103DD000D88C21110CC0303829F480916D04809367
:103DE000F10002C01092F1001092F100F4C0842F93
:103DF00090E09D29213049F43111EDC0019709F07F
:103E0000EAC080916D048D7F0AC0233059F43111CE
:103E1000E2C0019709F0DFC080916D048260809359
:103E20006D04D9C0253041F48091E80080FFFCCFBB
:103E300040684093E300CFC0263009F08DC0EB8C82
:103E4000FC8C22E0D2122CC080E090E00E943D1E4B
:103E50000E94061D99E08E010F5F1F4FF801292F68
:103E600011922A95E9F79983DA8291E09E8390EA8C
:103E700098879AEF998720916A0430916B04275FA5
:103E80003F4F3C832B838D83C7010E943D1E49E039
:103E900050E0B80180E00E94481E0E94061D9BC0B1
:103EA000C7010E943D1E0E944221BE016B5E7F4FF2
:103EB0000E94E420009719F00CF08DC090C081E0C2
:103EC000D8120EC08B8D9C8D089719F481E08093D9
:103ED00067048091670481112FC063EB71E031C0EA
:103EE000E3E0DE127CC08F89882349F1823029F417
:103EF00040E862E188ED91E01CC0813029F440E89F
:103F000062E185EC91E015C0833009F068C00E9441
:103F100042218E010F5F1F4FB8010E940321F8015B
:103F200001900020E9F73197E01BF10B40E06E2F84
:103F3000C8010E94A61C4DC061EA71E002C06BEE90
:103F400071E06115710509F44AC0FB01449150E02C
:103F500080E80E94481E3FC0273009F440C0283046
:103F600021F481E08093F10036C02930A1F533704F
:103F7000B1F5E8E2F1E081E021E036E390819923B8
:103F800061F08093E9002093EB0091919093EC0015
:103F90003093ED008F5F873089F78EE78093EA00DA
:103FA0001092EA008F8980936E0415C08B8D9C8DD2
:103FB0000E943D1E898D811105C0CE0145960E944B
:103FC000C51907C00E944221BE016B5E7F4F0E944F
:103FD0002221882321F08EEF8093E80003C081E244
:103FE0008093EB006C960FB6F894DEBF0FBECDBF8A
:103FF000DF91CF91FF91EF91BF91AF919F918F9101
:104000007F916F915F914F913F912F911F910F91F0
:10401000FF90EF90DF900F900FBE0F901F901895BC
:104020008093E9008091F200882319F08AE380935D
:10403000E80008951F920F920FB60F9211242F934C
:104040003F934F935F936F937F938F939F93AF9320
:10405000BF93CF93EF93FF93C091E1008091E10074
:10406000837F8093E1008093E100C3FF0FC0109233
:10407000E90081E08093EB001092EC0082E38093F2
:10408000ED0010926E0488E08093F000C2FF19C02A
:1040900083E00E94102080917004882339F0809181
:1040A0007004815080937004882389F180916F049B
:1040B000882339F080916F04815080936F048823A6
:1040C00041F1C4FF10C08091E2008E7E8160809338
:1040D000E2008091E1008F7E8093E10080916C048A
:1040E0008E7E806111C0C0FF16C08091E2008E7E7E
:1040F00080618093E2008091E1008E7E8093E100F8
:1041000080916C048E7E816080936C0404C05D9A03
:10411000CDCF289AD6CFFF91EF91CF91BF91AF919C
:104120009F918F917F916F915F914F913F912F91CF
:104130000F900FBE0F901F90189510926E04109262
:104140006D0410926C040E94E31C8091E1008E7E4D
:104150008093E1008DE08093E200559A209AEEEF83
:10416000FFE7859194918B3F9C4D19F481E08093FA
:10417000650408950895EF92FF920F931F93CF93D4
:10418000DF937B01FC01C281D38100E010E0209726
:1041900081F0E881F9810280F381E02DB701CE0141
:1041A000099597FD08C0080F191F0884D985C02DEF
:1041B000EECFC80102C08FEF9FEFDF91CF911F912B
:1041C0000F91FF90EF9008950F931F93CF93DF937C
:1041D0008B01FC01C281D381209771F0E881F981C4
:1041E0000480F581E02DB801CE010995009731F4E6
:1041F0000884D985C02DF0CF80E090E0DF91CF9189
:104200001F910F9108950F931F93CF93DF938B010D
:10421000FC01C281D381209771F0E881F981068089
:10422000F781E02DB801CE010995080F111D088412
:10423000D985C02DF0CFF8011082DF91CF911F9169
:104240000F9108950F931F93CF93DF938B01FC0180
:10425000C281D381209771F0E881F9810190F081CA
:10426000E02DB801CE010995811106C00884D985D9
:10427000C02DF0CF80E001C081E0DF91CF911F9190
:104280000F9108958091750481110DC082E0809393
:10429000710484E080937204109274041092730489
:1042A00081E08093750481E794E008955058BB271E
:1042B000AA270ED0C5C18ED130F093D120F031F4B1
:1042C0009F3F11F41EF45EC10EF4E095E7FB54C16C
:1042D000E92FD8D180F3BA176207730784079507CF
:1042E00018F071F49EF5F0C10EF4E0950B2EBA2F84
:1042F000A02D0B01B90190010C01CA01A0011124EC
:10430000FF27591B99F0593F50F4503E68F11A1697
:10431000F040A22F232F342F4427585FF3CF469528
:1043200037952795A795F0405395C9F77EF41F164A
:10433000BA0B620B730B840BBAF09150A1F0FF0F14
:10434000BB1F661F771F881FC2F70EC0BA0F621F00
:10435000731F841F48F4879577956795B795F795F0
:104360009E3F08F0B3CF9395880F08F09927EE0F82
:10437000979587950895DCD008F481E0089539D1A8
:10438000E3956FC10CD05CC12CD140F023D130F04B
:1043900021F45F3F19F0F0C0511197C1F3C072D101
:1043A00098F39923C9F35523B1F3951B550BBB27FC
:1043B000AA2762177307840738F09F5F5F4F220FA9
:1043C000331F441FAA1FA9F333D00E2E3AF0E0E8A2
:1043D00030D091505040E695001CCAF729D0FE2FEE
:1043E00027D0660F771F881FBB1F26173707480780
:1043F000AB07B0E809F0BB0B802DBF01FF27935836
:104400005F4F2AF09E3F510568F0B6C05EC15F3F26
:10441000ECF3983EDCF3869577956795B795F7951D
:104420009F5FC9F7880F911D9695879597F9089515
:10443000E1E0660F771F881FBB1F621773078407B1
:10444000BA0720F0621B730B840BBA0BEE1F88F7C0
:10445000E095089504D06894B11137C108951AD138
:1044600088F09F5790F0B92F9927B751A0F0D1F05D
:10447000660F771F881F991F1AF0BA95C9F712C0E7
:10448000B13081F021D1B1E008951EC1672F782F9E
:104490008827B85F39F0B93FCCF386957795679553
:1044A000B395D9F73EF490958095709561957F4FBF
:1044B0008F4F9F4F0895E89409C097FB3EF4909565
:1044C0008095709561957F4F8F4F9F4F9923A9F0ED
:1044D000F92F96E9BB279395F6958795779567957C
:1044E000B795F111F8CFFAF4BB0F11F460FF1BC0C0
:1044F0006F5F7F4F8F4F9F4F16C0882311F096E953
:1045000011C0772321F09EE8872F762F05C0662300
:1045100071F096E8862F70E060E02AF09A95660FB9
:10452000771F881FDAF7880F9695879597F9089572
:10453000990F0008550FAA0BE0E8FEEF16161706B4
:10454000E807F907C0F012161306E407F50798F01C
:10455000621B730B840B950B39F40A2661F0232B35
:10456000242B252B21F408950A2609F4A140A695B1
:104570008FEF811D811D089597F99F6780E870E096
:1045800060E008959FEF80EC0895DF93CF931F9331
:104590000F93FF92EF92DF927B018C01689405C02C
:1045A000DA2EEF01A8D0FE01E894A591259135916E
:1045B00045915591AEF3EF018BDEFE019701A80105
:1045C000DA9479F7DF90EF90FF900F911F91CF91E0
:1045D000DF91089500240A94161617061806090696
:1045E000089500240A941216130614060506089569
:1045F000C9CF50D0E8F3E894E0E0BB279F57F0F034
:104600002AED3FE049EC06C0EE0FBB0F661F771F97
:10461000881F28F0B23A62077307840728F0B25A5D
:10462000620B730B840BE3959A9572F7803830F424
:104630009A95BB0F661F771F881FD2F79048BEC0A0
:10464000092E0394000C11F4882352F0BB0F40F4A0
:10465000BF2B11F460FF04C06F5F7F4F8F4F9F4FE0
:104660000895EF93E0FF06C0A2EA2AED3FE049EC8F
:104670005FEB2EDEE5DF0F90039401FC9058EAEC2F
:10468000F0E0A8C057FD9058440F551F59F05F3F08
:1046900071F04795880F97FB991F61F09F3F79F064
:1046A00087950895121613061406551FF2CF4695E6
:1046B000F1DF08C0161617061806991FF1CF869568
:1046C0007105610508940895E894BB27662777274C
:1046D000CB0197F908952CDF08F48FEF08950BD0E4
:1046E000AFCF78DF28F07DDF18F0952309F044CFB5
:1046F00049CF1124EACFC6DFA0F3959FD1F3950FE0
:1047000050E0551F629FF001729FBB27F00DB11D55
:10471000639FAA27F00DB11DAA1F649F6627B00DE5
:10472000A11D661F829F2227B00DA11D621F739FCE
:10473000B00DA11D621F839FA00D611D221F749FDC
:104740003327A00D611D231F849F600D211D822F23
:10475000762F6A2F11249F5750408AF0E1F088236A
:104760004AF0EE0FFF1FBB1F661F771F881F915077
:104770005040A9F79E3F510570F0FECEA6CF5F3F97
:10478000ECF3983EDCF3869577956795B795F795AA
:10479000E7959F5FC1F7FE2B880F911D9695879532
:1047A00097F908959F9325DF0F9007FCEE5F59CF8F
:1047B000BFDE880B990B08959F3F31F0915020F494
:1047C000879577956795B795880F911D96958795ED
:1047D00097F908959F938F937F936F93FF93EF9330
:1047E0009B01AC017CDFEF91FF91CFDE2F913F91D8
:1047F0004F915F9174CFDB018F939F930E9481242F
:10480000BF91AF91A29F800D911DA39F900DB29F6C
:10481000900D11240895991B79E004C0991F9617F3
:1048200008F0961B881F7A95C9F780950895AA1BF2
:10483000BB1B51E107C0AA1FBB1FA617B70710F08B
:10484000A61BB70B881F991F5A95A9F780959095BD
:10485000BC01CD010895A1E21A2EAA1BBB1BFD01CC
:104860000DC0AA1FBB1FEE1FFF1FA217B307E4074F
:10487000F50720F0A21BB30BE40BF50B661F771FA7
:10488000881F991F1A9469F7609570958095909587
:104890009B01AC01BD01CF010895052E97FB1EF4CD
:1048A00000940E94642457FD07D00E942B2407FC2B
:1048B00003D04EF40C946424509540953095219586
:1048C0003F4F4F4F5F4F089590958095709561953C
:1048D0007F4F8F4F9F4F0895EE0FFF1F0590F4916C
:1048E000E02D0994A29FB001B39FC001A39F700D5A
:1048F000811D1124911DB29F700D811D1124911DE8
:1049000008950E947224A59F900DB49F900DA49FBE
:10491000800D911D1124089581E090E0F8940C948D
:064920009124F894FFCF82
:1049260000007D0480000F00F4010400D00704019C
:104936009A169A169A169A169A1601FFFFFFFF0004
:10494600E100000000000000C1808100000001803D
:1049560001800180FF7FFF7FFF7F564D4450455FFA
:1049660031007C005F564D4450450D0A00564D44BB
:1049760050455F3400564D4450455F3500564D4412
:1049860050455F330043616C6962726174696F6E92
:10499600204779726F20526561643A0052756E2025
:1049A600233A004779726F204F6666736574005626
:1049B6004D4450455F3200564D4450565F317C3170
:1049C6005F564D4450560D0A0000000000001505C4
:1049D60015250154070000000042081508EA07F2F1
:1049E6000705081408564D4450435F005F564D4472
:1049F60050430D0A004572726F723A204174746515
:104A06006D707420746F2073657420612072656107
:104A1600642D6F6E6C79207661726961626C6520B7
:104A26006F7220646174612074797065206E6F7492
:104A360020737570706F727465640D0A009C01B501
:104A460001CF01EA0107022602470269028E02B57A
:104A560002DE020A0300000000001505155B195B63
:104A660019000000005D19A4198719971973198494
:104A7600196E616E00696E66006F7666002E000024
:00000001FF
