:100000000C940C010C9474150C949B150C94C21553
:100010000C94E9150C9434010C9434010C941016D2
:100020000C9434010C94EA130C94541E0C94E61CAA
:100030000C9434010C9434010C9434010C9434016C
:100040000C9434010C9434010C9434010C9434015C
:100050000C9434010C9434010C9434010C94371634
:100060000C9434010C9434010C9434010C9434013C
:100070000C9434010C9434010C9434010C9434012C
:100080000C9434010C9434010C9434010C9434011C
:100090000C94C8090C9434010C9434010C94340170
:1000A0000C9434010C94A8120C94340158175B176B
:1000B0004A174E1754177C177C177C175F17631766
:1000C00067176D1771177C177717084AD73B3BCE18
:1000D000016E84BCBFFDC12F3D6C74319ABD568347
:1000E0003DDA3D00C77F11BED9E4BB4C3E916BAAFF
:1000F000AABE000000803F05A84CCDB2D44EB9384E
:1001000036A9020C50B9918688083CA6AAAA2ABE34
:10011000000000803F000000000200090F00000303
:100120000401000C000000000000000000000000BE
:100130000000000000040802011040804010204030
:1001400080408008020401804020100201108010CD
:1001500020404020040404040403040502020202B7
:100160000403020202020606060606060404020250
:1001700002040400000000250028002B002E00319E
:1001800000080B0002020201000904000001020243
:1001900000000524001001052401010104240206C9
:1001A0000524060001070581031000400904010031
:1001B000020A000000070502024000000705830252
:1001C00040000012010002EF020140FB1F0023006B
:1001D00001010203011201000200000040FB1F00A8
:1001E00023000101020301506F6C6F6C7520436F97
:1001F00072706F726174696F6E00506F6C6F6C75A6
:1002000020412D53746172203332553400040309A8
:100210000400A707DE08BB1811241FBECFEFDAE0E9
:10022000DEBFCDBF12E0A0E0B1E0E4E0F7E402C041
:1002300005900D92A038B107D9F724E0A0E8B2E00C
:1002400001C01D92AD38B207E1F712E0C8E1D2E07B
:1002500004C02297FE010E945D23C231D107C9F775
:100260000E94D9180C9480230C9400005B98539A38
:100270000895FC01A2EEB0E08C9180831C92A9EE5F
:10028000B0E08C9181831C92A0EFB0E08C918283CE
:100290001C920895FC01A9EEB0E01C92828180932B
:1002A000F00081818C9380818093E200089560FF4B
:1002B00002C02B9A01C02B98239A61FF02C0289A92
:1002C00001C02898209A62FF02C0479A01C047984F
:1002D0003F9A63FF02C05D9A01C05D98559A5B9A90
:1002E000539A85E08A95F1F700005B98539A85E070
:1002F0008A95F1F7000008954F925F926F927F9276
:100300008F929F92AF92BF92CF92DF92EF92FF9225
:100310000F931F93CF93DF93CDB7DEB72C970FB614
:10032000F894DEBF0FBECDBF69837A838B839C8335
:1003300029013A01ED82FE820F83188724E13EE60F
:1003400043E654E4C801B7010E9412224B015C014C
:10035000A301920169817A818B819C810E94911F06
:1003600020E030E040E05FE30E9412222DE03FEE0B
:100370004AE850E40E941222A50194010E945E20E6
:1003800069877A878B879C872DE03FEE4AE850E4A7
:1003900069817A818B819C810E941222A50194013E
:1003A0000E945E206B017C012DE03FEE4AE850E4A4
:1003B000C301B2010E941222A50194010E945E2095
:1003C0004B015C019B01AC01C701B6010E94901F6B
:1003D0002BE43AEC48E95EE30E9412222B013C0137
:1003E00089859A85AB85BC858093A5029093A602EA
:1003F000A093A702B093A802C092A902D092AA0229
:10040000E092AB02F092AC028092AD029092AE020A
:10041000A092AF02B092B0024092B1025092B202EA
:100420006092B3027092B4028FEC93E00E941D0BB5
:1004300000E014E065E771E0D8018D919C910E9485
:1004400002196DE771E0F801808191810E94021923
:1004500022E030E049855A856B857C85D8018D91F5
:100460009C910E94A31A6DE771E0F801808191814F
:100470000E94021922E030E0B701A601D8018D9157
:100480009C910E94A31A6DE771E0F801808191812F
:100490000E94021922E030E0B501A401D8018D913B
:1004A0009C910E94A31A6DE771E0F801808191810F
:1004B0000E94021922E030E0B301A201D8018D911F
:1004C0009C910E94A31A6DE771E0F80180819181EF
:1004D0000E94021922E030E04D815E816F817885B3
:1004E000D8018D919C910E94A31A6FE771E0F801E9
:1004F000808191810E94021965E070E080E090E0C7
:100500002C960FB6F894DEBF0FBECDBFDF91CF9112
:100510001F910F91FF90EF90DF90CF90BF90AF9021
:100520009F908F907F906F905F904F900C94B0163B
:100530008BEF92E00E943E0C6091FF0270910003ED
:10054000882777FD8095982F0E94F92020918102BD
:100550003091820240918302509184020E94911F47
:1005600025E33AEF4EE85CE30E94122221EA3EE0E6
:100570004AEE5DE30E94122208954F925F926F92BD
:100580007F928F929F92AF92BF92CF92DF92EF9223
:10059000FF920F931F93CF93DF930E948116C09019
:1005A0008502D0908602E0908702F09088026C1954
:1005B0007D098E099F096093890270938A02809356
:1005C0008B0290938C020E948014BC01882777FDD7
:1005D0008095982F0E94F9202B013C010E948D14D8
:1005E000BC01882777FD8095982F0E94F9204B0148
:1005F0005C018FEC93E00E941D0B68E871E0809134
:100600000004909101040E9402196DE771E080914D
:100610000004909101040E94021922E030E0B3012D
:10062000A20180910004909101040E94A31A6DE739
:1006300071E080910004909101040E94021922E06F
:1006400030E0B501A40180910004909101040E9462
:10065000A31A6FE771E080910004909101040E9459
:10066000021965E070E080E090E00E94B0166091B1
:10067000890270918A0280918B0290918C020E9473
:10068000F7207B018C01A3019201C501B4010E94F6
:100690007C016091890270918A0280918B02909115
:1006A0008C020E94F7200E9498026B017C018FEC63
:1006B00093E00E941D0B60E971E08091000490912D
:1006C00001040E9402196DE771E08091000490918D
:1006D00001040E94021922E030E0B701A6018091D6
:1006E0000004909101040E94A31A6FE771E08091C9
:1006F0000004909101040E94021965E070E080E01E
:1007000090E00E94B0162091B1023091B202409167
:10071000B3025091B402C701B6010E94901F6B0151
:100720007C01E894F7F88FEC93E00E941D0B68E9D8
:1007300071E080910004909101040E9402196DE71C
:1007400071E080910004909101040E94021922E05E
:1007500030E0B701A60180910004909101040E944D
:10076000A31A6FE771E080910004909101040E9448
:10077000021965E070E080E090E00E94B0166091A0
:10078000890270918A0280918B0290918C020E9462
:10079000F7206B017C012091A5023091A6024091C7
:1007A000A7025091A8020E9412229B01AC01609105
:1007B000B5027091B6028091B7029091B8020E9482
:1007C000911F6093C1027093C2028093C302909301
:1007D000C4021092C5021092C6021092C702109273
:1007E000C8022091B1023091B2024091B3025091FF
:1007F000B402C701B6010E9412222091BD023091BD
:10080000BE024091BF025091C0020E94911F6B0135
:100810007C0120E030E0A9010E94572087FF0DC035
:100820008BED9FE0A9ECB0E48093C9029093CA02DB
:10083000A093CB02B093CC021BC02BED3FE049EC60
:1008400050E4C701B6010E94072218164CF0C0926E
:10085000C902D092CA02E092CB02F092CC0208C048
:100860001092C9021092CA021092CB021092CC02CE
:100870008FEC93E00E941D0B60EA71E08091000410
:10088000909101040E9402196DE771E080910004CB
:10089000909101040E9402194091C1025091C2023C
:1008A0006091C3027091C40222E030E080910004A4
:1008B000909101040E94A31A6DE771E080910004F9
:1008C000909101040E9402194091C5025091C60204
:1008D0006091C7027091C80222E030E0809100046C
:1008E000909101040E94A31A6DE771E080910004C9
:1008F000909101040E9402194091C9025091CA02CC
:100900006091CB027091CC0222E030E08091000433
:10091000909101040E94A31A6FE771E08091000496
:10092000909101040E94021965E070E080E090E07F
:100930000E94B0166091890270918A0280918B02A8
:1009400090918C020E94F7202091A5023091A6027E
:100950004091A7025091A8020E9412224B015C0113
:10096000C090C902D090CA02E090CB02F090CC02B5
:10097000C701B6010E945B209B01AC01C501B40117
:100980000E9412229B01AC0160918D0270918E0237
:1009900080918F02909190020E94911F6093990222
:1009A00070939A0280939B0290939C02C701B601B8
:1009B0000E9475229B01AC01C501B4010E94122264
:1009C0009B01AC016091910270919202809193021F
:1009D000909194020E94911F60939D0270939E02D9
:1009E00080939F029093A002C092A102D092A20293
:1009F000E092A302F092A4028FEC93E00E941D0B00
:100A000068EA71E080910004909101040E9402194B
:100A10006DE771E080910004909101040E94021939
:100A20004091990250919A0260919B0270919C02B0
:100A300022E030E080910004909101040E94A31A0A
:100A40006DE771E080910004909101040E94021909
:100A500040919D0250919E0260919F027091A00270
:100A600022E030E080910004909101040E94A31ADA
:100A70006DE771E080910004909101040E940219D9
:100A80004091A1025091A2026091A3027091A40230
:100A900022E030E080910004909101040E94A31AAA
:100AA0006FE771E080910004909101040E940219A7
:100AB00065E070E080E090E00E94B01664E170E0D4
:100AC00080E090E00E94B0160E948116609385023B
:100AD000709386028093870290938802E9E9F2E09E
:100AE0004DE852E021EC32E065EB72E081919191AA
:100AF000A191B191EA0189939993A993B993AE0118
:100B0000E90189919991A991B9919E01EB0189938C
:100B10009993A993B993BE01D2E0E53AFD0731F765
:100B2000DF91CF911F910F91FF90EF90DF90CF90C9
:100B3000BF90AF909F908F907F906F905F904F90FD
:100B4000089560E070E080E090E00E9419158BEF5E
:100B500092E00E943E0C6091FF0270910003882792
:100B600077FD8095982F0E94F9209B01AC0160E0F1
:100B700070E0CB010E94901F60938102709382020B
:100B8000809383029093840208954F925F926F92B4
:100B90007F928F929F92AF92BF92CF92DF92EF920D
:100BA000FF92CF93DF932CE0289FE001299FD00D87
:100BB0001124CA5FDE4F288139814A815B816091AF
:100BC000990270919A0280919B0290919C020E94DE
:100BD000901F4B015C012C813D814E815F816091B2
:100BE0009D0270919E0280919F029091A0020E94AE
:100BF000901F6B017C01A5019401C501B4010E9405
:100C000012220E947F229B01AC0160E070E0CB01C8
:100C10000E94911F2B013C01A7019601C701B6015B
:100C20000E9412220E947F229B01AC01C301B201EB
:100C30000E94911F2B013C01A7019601C501B4013F
:100C40000E9404202091A1023091A2024091A302AF
:100C50005091A4020E94911F4B015C018FEC93E024
:100C60000E941D0BC0E0D4E060EB71E088819981A7
:100C70000E9402196DE771E0888199810E94021932
:100C800022E030E0B701A601888199810E94A31A71
:100C90006DE771E0888199810E94021922E030E0BD
:100CA000B501A401888199810E94A31A6DE771E0C2
:100CB000888199810E94021922E030E0B301A201EB
:100CC000888199810E94A31A6FE771E088819981D8
:100CD0000E94021965E070E080E090E0DF91CF9122
:100CE000FF90EF90DF90CF90BF90AF909F908F904C
:100CF0007F906F905F904F900C94B01640ED57E04E
:100D000060E070E08FEC93E00E94670B20E835E232
:100D100040E050E065E274E08FEC93E00E94200B2D
:100D20008FEC93E00E941D0B68EB71E08091000452
:100D3000909101040E9402196AE070E080E090E066
:100D40000E94B01641E060E08FEC93E00E94D90B66
:100D500040E855E260E070E085E294E00E94A61869
:100D600085E294E00E94AC188823D1F38FE093E0F1
:100D70000E94500880918002811105C081E080931B
:100D800080020E94371442E050E063E070E08BEF95
:100D900092E00E94E80C8BEF92E00E94260C0E94E9
:100DA000A10542E050E064E070E08DEC92E00E942A
:100DB0006C0E8DEC92E00E94F20D0E9480140E9455
:100DC0008D1481E00E94CF1481E00C94D2140E9413
:100DD000A1140E949A140E94BD0280E090E00E943B
:100DE000C50564E170E080E090E00C94B01620E06E
:100DF0005D99216055992260FC0120830895FC01D2
:100E0000208121FB0EF0559820FB0EF05D980EF42A
:100E10005D9A21FB0EF4559A089520E028992160EF
:100E200020992260FC0120830895FC01208121FB90
:100E30000EF0209820FB0EF028980EF4289A21FB43
:100E40000EF4209A0895FF920F931F93CF93DF9390
:100E5000CDB7DEB72A970FB6F894DEBF0FBECDBF71
:100E60008C01F62ECE0101962A8749870E9439010E
:100E700030E05A993160529932603E8330E02B99CC
:100E80003160239932603F83CE0105960E940D07A1
:100E900030E0479931603F9932603887CE0104963F
:100EA0000E94F70649852A85442311F05A9A01C009
:100EB0005A98529A21110AC06F2D70E084E07595FE
:100EC00067958A95E1F7C8010E9457016F2D6F70F1
:100ED000C8010E945701CE0104960E94FF06288592
:100EE00021FB0EF03F9820FB0EF047980EF4479A36
:100EF00021FB0EF43F9ACE0105960E9415073F8113
:100F000031FB0EF0239830FB0EF02B980EF42B9A49
:100F100031FB0EF4239A2E8121FB0EF0529820FB18
:100F20000EF05A980EF45A9A21FB0EF4529ACE0102
:100F300001960E944A012A960FB6F894DEBF0FBEB2
:100F4000CDBFDF91CF911F910F91FF90089588E061
:100F500093E00E94F9128EEC91E090930903809344
:100F600008038BEF92E00E94F40B8DEC92E00C945E
:100F7000750D80913F0390E020914003821B910901
:100F800008952091400380913F03281750F4E22FE9
:100F9000F0E0EF5BFC4F808190E02F5F20934003F7
:100FA00008958FEF9FEF0895E091400380913F03F4
:100FB000E81730F4F0E0EF5BFC4F808190E008959B
:100FC0008FEF9FEF08950895CF92DF92EF92FF92F7
:100FD0000F931F93CF93DF937C01CB018A01209164
:100FE0001B03222389F0EB016B01C40ED51ECC1527
:100FF000DD0569F06991D701ED91FC910190F081D7
:10100000E02DC7010995F3CF642F0E949F09C80105
:10101000DF91CF911F910F91FF90EF90DF90CF90D4
:101020000895CF93DF931F92CDB7DEB769832091E8
:101030001B032223D1F020911C03203240F021E039
:1010400030E0FC013383228380E090E015C0809182
:101050001D03E82FF0E0E25EFC4F998190838F5FE3
:1010600080931D0380931C0305C061E0CE010196AF
:101070000E949F0981E090E00F90DF91CF91089549
:10108000FC011382128248EE53E060E070E044837A
:101090005583668377838AED91E0918380830895F9
:1010A0001092400310923F0310921D0310921C03F4
:1010B0000C94E20881E080931B0360933E0310923E
:1010C0001D0310921C0308950F93062F21E04091F9
:1010D0001C036EE173E080913E030E944809109268
:1010E0001D0310921C0310921B030F9108958F9201
:1010F0009F92AF92BF92CF92DF92EF92FF920F93A7
:101100001F93CF93DF93EC01F62ED42E48015901A3
:10111000EE2019F10E945A081E2D143008F013E039
:101120001150B8F0E881F98128E0129FB001112434
:10113000A501940104C056954795379527956A9562
:10114000D2F7CA01B9010190F081E02DCE010995D5
:10115000E7CF60E0CE010E9464084D2D413208F0D7
:1011600040E22C2D61E473E08F2D0E940009109263
:10117000400380933F03DF91CF911F910F91FF9028
:10118000EF90DF90CF90BF90AF909F908F90089599
:10119000CF92EF920F931F93C22EE12C00E010E04C
:1011A00098010E9477081F910F91EF90CF900895BA
:1011B00021E00C94C80861E00C9464088FE093E08F
:1011C0000C9440081092CE0381E08093CC031092DF
:1011D000CB0361E082E00E947D1761E083E00E9422
:1011E0007D17E9EBF0E080818E7F808380818D7FA9
:1011F000808388E48093B80085E48093BC000895E0
:10120000413208F043C09091CE039111FCCF91E0A0
:101210009093CE032093CC032FEF20936103109281
:10122000A603240F2093A5039093CD039091CD03A3
:10123000880F892B8093CD038091CB03813061F49B
:101240001092CB038091CD038093BB008091BC00B2
:1012500083FDF8CF85EC01C085EE8093BC008091C2
:10126000CE038130E1F38091A603841710F44091FE
:10127000A60327EA33E0FB01D9018A2F821B8417DA
:1012800018F48D918193F9CF842F089580E008950B
:101290000F93413208F04AC09091CE039111FCCFD8
:1012A00092E09093CE030093CC039FEF9093610361
:1012B0001092A6034093A503FB0167EA73E0DB01EC
:1012C0009A2F961B941718F491919D93F9CF109231
:1012D000CD039091CD03880F892B8093CD0380910E
:1012E000CB03813061F41092CB038091CD038093C6
:1012F000BB008091BC0083FDF8CF85EC01C085EE7A
:101300008093BC00222321F08091CE038230E1F350
:10131000809161038F3F61F080916103803251F0D1
:1013200080916103803341F483E007C081E005C010
:1013300080E003C082E001C084E00F910895613233
:1013400098F42091CE03243089F460938303FC0148
:1013500085E893E0DC012A2F281B261718F4219139
:101360002D93F9CF80E0089581E0089582E00895FB
:1013700085ED8093BC008091BC0084FDFCCF109271
:10138000CE03089585EC8093BC001092CE0308959F
:101390001F920F920FB60F9211242F933F934F93EA
:1013A0005F936F937F938F939F93AF93BF93EF93CD
:1013B000FF938091B900887F803609F49EC078F54C
:1013C000883209F45DC090F4803109F456C038F4D5
:1013D000882309F4F5C0883009F44FC0F5C088317E
:1013E00009F44EC0803209F45FC0EEC0803409F4C5
:1013F0006AC058F4803309F457C0883309F0E4C058
:10140000809361030E94C209DFC0803509F44FC098
:10141000883509F45DC0883409F0D6C0D3C0883956
:1014200009F4C4C0A8F4883709F467C038F48836D2
:1014300009F463C0803709F460C0C6C0883809F475
:10144000B5C0803909F45FC0803809F0BDC05BC009
:10145000803B09F483C038F4803A09F466C0883AC6
:1014600009F47CC0B1C0803C09F4A4C0883C09F4F4
:10147000A1C0883B09F487C0A7C08091CD0310C0EC
:101480009091A6038091A503981770F5E091A603AB
:1014900081E08E0F8093A603F0E0E955FC4F808138
:1014A0008093BB0085EC83C0809361038BC0E09187
:1014B000A60381E08E0F8093A6038091BB00F0E02D
:1014C000E955FC4F80839091A6038091A5036BC0E2
:1014D000E091A60381E08E0F8093A6038091BB006C
:1014E000F0E0E955FC4F80838091CC0381116AC004
:1014F00081E08093CB0384EA5EC083E08093CE03D7
:1015000010926203CFCF80916203803208F04EC008
:10151000E091620381E08E0F809362038091BB00B3
:10152000F0E0ED59FC4F8083BDCF0E94C20980914D
:101530006203803230F4E0916203F0E0ED59FC4F39
:1015400010826091620370E0E091C703F091C803DC
:1015500083E693E009951092620336C084E080939D
:10156000CE031092840310928303E091C903F0919B
:10157000CA03099580918303811105C081E080939E
:10158000830310928503E091840381E08E0F8093A2
:101590008403F0E0EB57FC4F80818093BB00909177
:1015A000840380918303981708F47CCF85E88093A7
:1015B000BC000AC085EC8093BC001092CE0304C02E
:1015C000109261030E94B809FF91EF91BF91AF9112
:1015D0009F918F917F916F915F914F913F912F914B
:1015E0000F900FBE0F901F9018950F931F93CF93DE
:1015F000DF93EC01662359F00E94811669837A8398
:101600008B839C83DF91CF911F910F9108950E944E
:10161000811609811A812B813C81601B710B820B21
:10162000930B623371058105910530F763E070E03B
:1016300080E090E00E94B016EACF60E00C94F50ADA
:10164000CF92DF92EF92FF920F931F93CF93DF938E
:1016500000D000D0CDB7DEB78C017B01FC0172ABAE
:1016600061AB8BE1C82ED12CC70129833A834B8310
:101670005C830E94AC1829813A814B815C81811185
:1016800013C0F1E0CF1AD10879F064E670E080E091
:1016900090E029833A834B835C830E94B0165C817F
:1016A0004B813A812981E0CFBA01A901F80181A9D2
:1016B00092A90F900F900F900F90DF91CF911F91F3
:1016C0000F91FF90EF90DF90CF900C94A618FC0143
:1016D00013AA14AA15AA16AA1182128213821482BE
:1016E000411551056105710521F0CB01BA010C943A
:1016F000B01608951F93CF93DF93EC01162F66EE7B
:1017000071E089A99AA90E9402194AE050E0612F6C
:1017100089A99AA90E94B1196DEE71E089A99AA9C7
:101720000E94021962E370E080E090E0DF91CF91C7
:101730001F910C94B0161F93CF93DF93EC01162FDB
:101740008D81882389F189A99AA9DC01ED91FC9109
:101750000480F581E02D0995892BA9F307C0263770
:10176000310519F12835310509F41D8289A99AA995
:10177000DC01ED91FC910480F581E02D09951816AE
:10178000190694F489A99AA9DC01ED91FC910680CF
:10179000F781E02D09959C01332723363105F9F6B1
:1017A000612FCE010E947A0B83E6DF91CF911F91CA
:1017B00008950F931F93CF93DF931F92CDB7DEB79A
:1017C0008C01662349F081E0F801858360E0C8015F
:1017D00049830E949B0B4981F80145830F90DF915B
:1017E000CF911F910F910895FC0183E090E09087C5
:1017F00087831386128614860895EF92FF921F93B3
:10180000CF93DF931F92CDB7DEB77C01162FFC017B
:1018100061858FE093E049830E945A08612F8FE031
:1018200093E00E9411084981642F8FE093E00E94A9
:1018300011088FE093E00E94DB08F70186830F9088
:10184000DF91CF911F91FF90EF900895CF93DF9399
:10185000EC018F819885029729F440E069E3CE017D
:101860000E94FD0B40E063E2CE010E94FD0B4FE6BB
:1018700060E2CE01DF91CF910C94FD0B9F92AF926D
:10188000BF92CF92DF92EF92FF920F931F93CF936D
:10189000DF93EC0169858FE093E00E945A08E091A4
:1018A0000F03F09110030190F081E02D68EA8FE0C2
:1018B00093E009958FE093E00E94DB0846E069859C
:1018C0008FE093E00E94D8080E9481167B018FE090
:1018D00093E00E94B907069784F48A859B85892B3B
:1018E000B1F30E9481166E197F098A859B85861740
:1018F000970768F781E08C872CC08FE093E00E9407
:10190000C107A82E8FE093E00E94C107982E8FE0B8
:1019100093E00E94C107E82E8FE093E00E94C10788
:10192000B82E8FE093E00E94C107F82E8FE093E07D
:101930000E94C107D92CC12CCA28D982C8821B2D6C
:1019400000E00E291B830A83982F88278F299D8307
:101950008C83DF91CF911F910F91FF90EF90DF90DB
:10196000CF90BF90AF909F9008951F93CF93DF9338
:101970001F92CDB7DEB7162F8FE093E049830E9408
:101980005A084981642F8FE093E00E9411088FE08C
:1019900093E00E94DB08811114C041E0612F8FE0C9
:1019A00093E00E94D8088FE093E00E94B907892B4A
:1019B00041F08FE093E00F90DF91CF911F910C9455
:1019C000C1078FEF9FEF0F90DF91CF911F91089587
:1019D000EF92FF920F931F93CF93DF937C01EB0164
:1019E0008A016330710521F04230510509F051C080
:1019F000CE010197039758F50115110581F04FE0CD
:101A000050E06BE6C7010E94B50C8F3F2FEF9207A5
:101A100019F001E010E013C00130110551F04FE062
:101A200050E06AE6C7010E94B50C8F3FEFEF9E07BA
:101A300021F4C330D10569F027C000E010E0C330C5
:101A4000D10529F4873D9105F1F5C2E0D0E020975A
:101A5000D9F40115110561F04FE050E069E6C701C6
:101A60000E94B50C833D910589F10130110549F0C3
:101A70004FE050E068E6C7010E94B50C833D910538
:101A800041F1C330D10519F00230110511F480E0A5
:101A900025C0F701D087C783209759F0D7FD11C023
:101AA00023977CF40130110511F48BE608C08AE617
:101AB00006C00130110511F489E601C088E6F7017E
:101AC000818781E00BC0C1E0D0E0C1CF01E010E030
:101AD00002C000E010E0C0E0D0E0D6CFDF91CF91AF
:101AE0001F910F91FF90EF900895CF93DF93EC013A
:101AF00086E0E9E6F1E0DE01529601900D928A95CA
:101B0000E1F786E0EFE6F1E0DE011C9601900D9230
:101B10008A95E1F784E090E09A8F898F1CA61BA636
:101B20001DA6DF91CF910895EF92FF921F93CF935F
:101B3000DF931F92CDB7DEB77C01162FFC01638DBA
:101B40008FE093E049830E945A08612F8FE093E071
:101B50000E9411084981642F8FE093E00E941108D0
:101B60008FE093E00E94DB08F701808F0F90DF91F8
:101B7000CF911F91FF90EF900895EF92FF921F93E6
:101B8000CF93DF931F92CDB7DEB77C01162FFC01F8
:101B9000648D8FE093E049830E945A08612F8FE0A3
:101BA00093E00E9411084981642F8FE093E00E9426
:101BB00011088FE093E00E94DB08F701808F0F90FF
:101BC000DF91CF911F91FF90EF900895FC01218D3F
:101BD000328D2330310511F0603210F40C94BD0DBC
:101BE0000C94940DCF93DF93EC01898D9A8D833003
:101BF0009105D9F440E061E2CE010E94E60D47E58F
:101C000060E2CE010E94E60D44E664E2CE010E944D
:101C1000E60D40E265E2CE010E94E60D40E066E29C
:101C2000CE01DF91CF910C94E60D029739F448E094
:101C300063E2CE010E94940D47E406C040E063E2F7
:101C4000CE010E94940D47E260E2CE010E94940D05
:101C50004CE060E0CE010E94BD0D40E261E0CE01AB
:101C60000E94BD0D40E062E0CE01DF91CF910C9467
:101C7000BD0D1F93CF93DF931F92CDB7DEB7162F05
:101C80008FE093E049830E945A084981642F8FE0D6
:101C900093E00E9411088FE093E00E94DB0881111D
:101CA00014C041E0612F8FE093E00E94D8088FE0DC
:101CB00093E00E94B907892B41F08FE093E00F90E9
:101CC000DF91CF911F910C94C1078FEF9FEF0F9081
:101CD000DF91CF911F910895EF92FF920F931F9381
:101CE000CF93DF93EC018B017A016430710521F011
:101CF0004230510509F055C0C8010397029708F01A
:101D0000CDC0E114F10471F04FE050E06DE1CE017F
:101D10000E94390E8934910509F4B8C081E0E816B3
:101D2000F10451F04FE050E06EE1CE010E94390E17
:101D30008934910509F4AEC00430110509F0D0C012
:101D4000E114F10469F040E250E069E1CE010E9443
:101D5000390E019679F421E0E216F10409F4A3C0EA
:101D600040E250E068E1CE010E94390E019609F090
:101D7000A4C099C00430110509F09BC04FE050E0A9
:101D80006EE1CE010E94390EEE24E394F12CCC9743
:101D900009F0A9C002E010E082E0E816F10409F4BD
:101DA00086C01A8F098F0130110569F124F4012BC7
:101DB00009F449C069C00230110541F10330110531
:101DC00009F062C0EA94EF2811F48DE101C08EE1C0
:101DD0008C8F8B8F88E090E09AA389A389E090E0B4
:101DE00098A38F8F8AE090E09EA38DA38BE090E074
:101DF0009CA38BA38CE090E09AA789A78DE090E04C
:101E000098A78FA341C0EA94EF2811F489E101C09B
:101E100088E18B8F8EE18C8F83E090E098A38F8F89
:101E200084E090E09AA389A387E090E09CA38BA331
:101E300088E090E09EA38DA385E090E098A78FA313
:101E400086E090E01FC0EA94EF2811F489E101C018
:101E500088E18B8F8EE18C8F83E090E098A38F8F49
:101E600084E090E09AA389A385E090E09CA38BA3F3
:101E700086E090E09EA38DA387E090E098A78FA3D3
:101E800088E090E09AA789A781E030C0EE24E3942F
:101E9000F12C02C0E12CF12C03E010E0033011051D
:101EA00008F44ECF79CF0430110509F075CF80E0EA
:101EB0001DC0EE24E394F12C6FCF0430110569F4BA
:101EC0004FE050E06EE1CE010E94390E31E020E09B
:101ED000CC9709F030E0032F122FE12CF12C5CCFCE
:101EE00003E010E059CF00E010E056CFDF91CF9132
:101EF0001F910F91FF90EF90089590910804E09149
:101F00000C04F0910D04992311F0849101C080819B
:101F10002FEB280F2A3110F4805E0895803249F4A7
:101F20009F012F5F3F4F30930D0420930C04EF2B44
:101F300031F708951F93CF93DF930E947D0FC0E088
:101F4000D0E01AE090ED980F9A30B8F49E01129FFD
:101F5000E001139FD00D1124C80FD11D87FDDA9524
:101F6000E09780910C0490910D04019690930D04DC
:101F700080930C040E947D0FE5CFCE01DF91CF91BD
:101F80001F910895109272001092C00084E0809317
:101F9000C10089E08093C20081E08093C300EFEB31
:101FA000F0E083E0808388EE8093D100108210926D
:101FB000D200579A789408952F923F924F925F9251
:101FC0006F927F928F929F92AF92BF92CF92DF9249
:101FD000EF92FF920F931F93CF93DF93CDB7DEB7AE
:101FE00027970FB6F894DEBF0FBECDBF7C011B0153
:101FF0004D8380910E04811105C081E080930E0411
:102000000E94C20F10924B01F7FE04C0E894F7F84B
:102010001AE001C011E088E2189F802D1124282FBA
:1020200030E03F832E832E153F0510F4FF82EE82B1
:10203000113049F44E815F814131574220F0E0E197
:10204000F7E2FF83EE83812E912CA12CB12C8E819F
:102050009F81969587959C0140E050E029833A83C3
:102060004B835C834E815F812A01612C712CA50119
:10207000940160E072E18AE790E00E94EA222981FF
:102080003A814B815C81620F731F841F951FA301EE
:1020900092010E943C2369017A01EE24FF2400E0B2
:1020A0000F5FC11434E0D306E104F10408F120E02D
:1020B00032E14AE750E0002E04C055954795379528
:1020C00027950A94D2F7C501B4010E94EA2229811A
:1020D0003A814B815C81620F731F841F951FA3019E
:1020E00092010E943C2369017A01EE24FF24D8CF9B
:1020F0001A3049F48E819F8105966AE070E00E9453
:1021000006237F836E834E815F81483E83E05807BC
:1021100059F09101DA010E94612328EE33E040E09A
:1021200050E00E943C231901109272008091C1007E
:10213000807F802B8093C100BB27AF2D9E2D8D2DDE
:102140008093BF00C092D1002D81203108F02FE094
:1021500080E190E0821B910904C0F694E794D79443
:10216000C7948A95D2F78D2D99278093BF00C0928E
:10217000D20030920B0420920A0489B38FEF89BBFE
:1021800084E08093720027960FB6F894DEBF0FBEEE
:10219000CDBFDF91CF911F910F91FF90EF90DF9016
:1021A000CF90BF90AF909F908F907F906F905F90F7
:1021B0004F903F902F900895CF93DF93EB018F3F87
:1021C00011F0411105C040E0BE0188EE93E043C02C
:1021D000813130F050EF580F503618F05FE501C0F4
:1021E00050E0852F6CE00E94FA22682F74EF76038E
:1021F00090011124250F311D2C30310540F4F901D7
:10220000EE0FFF1FE25CFD4F2081318102C020E014
:1022100030E0873081F0082E02C0220F331F0A946D
:10222000E2F7823028F0C90105966AE070E00CC040
:10223000C90190580CC0C90136E0880F991F3A9522
:10224000E1F7029665E070E00E940623CB01403181
:1022500008F04FE0BE01DF91CF910C94DC0F4F925C
:102260005F926F927F928F929F92AF92BF92CF9226
:10227000DF92EF92FF920F931F93CF93DF9300D0E3
:10228000CDB7DEB790904A0180910704882321F0F2
:1022900060910604611117C077247394B0ECAB2EE3
:1022A000BDE5BB2E1AE0612E04E0802E80EDC82E25
:1022B00087E0D82E94E0E92EF12C04EF11E02FE016
:1022C000422E512C15C070E040E088EE93E00E9451
:1022D000DC0F1092060429C18636D4F5813609F444
:1022E000A9C07CF58C3309F460C08E3381F49394DB
:1022F0000E947D0F20910C0430910D042F5F3F4F01
:1023000030930D0420930C04853631F752C081328E
:1023100009F08BC080924A01D0924901C0924801D5
:10232000F0924701E0924601109345010093440169
:10233000509243014092420110920704A4E09A2E69
:10234000D7CF8336A1F10CF478C010E082E077C0DB
:102350008D36C1F194F4873691F174F18C3609F021
:1023600064C00E949A0FBC0190934701809346017C
:10237000809148019091490151C08237C9F14CF4D4
:102380008F3609F052C00E949A0F982E80934A010E
:10239000AFCF843781F1863709F047C00E949A0F8A
:1023A0009093430180934201A3CF9A94A1CF10E070
:1023B00020C010E084E043C010E085E040C010E0A1
:1023C00087E03DC00E947D0F8C3619F410920704FF
:1023D00004C0709207041092060420910C043091FE
:1023E0000D042F5F3F4F30930D0420930C0480CFDA
:1023F00011E080E024C00E949A0FBC01C5010E9438
:102400000623669EC001679E900D1124909349019A
:102410008093480160914601709147010E94062314
:10242000709345016093440163CF10920D041092A4
:102430000C047BC010E089E002C010E08BE0082FA4
:102440009CE0999E000D11240E947D0F982F977F8C
:10245000933261F420910C0430910D042F5F3F4FB3
:1024600030930D0420930C040F5FEECF8D3271F486
:1024700020910C0430910D042F5F3F4F30930D04D9
:1024800020930C0401500E947D0FF0CF6091440115
:10249000709145018153883050F4E0904801F090EC
:1024A00049010E949A0FBC01C7010E9406237B01CB
:1024B000F694E79469837A830E947D0F69817A811B
:1024C0008E3269F420910C0430910D042F5F3F4F40
:1024D00030930D0420930C046E0D7F1DE9CF809185
:1024E0000704882339F09B0136952795209306042D
:1024F000621B710940914201112311F08FEF01C05D
:10250000802F0F900F90DF91CF911F910F91FF902F
:10251000EF90DF90CF90BF90AF909F908F907F9083
:102520006F905F904F900C94DC100F900F90DF91A4
:10253000CF911F910F91FF90EF90DF90CF90BF90C0
:10254000AF909F908F907F906F905F904F90089585
:102550001F920F920FB60F9211242F933F934F9318
:102560005F936F937F938F939F93AF93BF93EF93FB
:10257000FF9380910A0490910B049C012150310932
:1025800030930B0420930A04892B11F510927200EA
:1025900078948091C100807F84608093C10083E043
:1025A0008093BF0088EE8093D1001092BF001092FC
:1025B000D20081E080934B0180910C0490910D0436
:1025C000892B31F080910904811102C00E942F11E2
:1025D000FF91EF91BF91AF919F918F917F916F91FB
:1025E0005F914F913F912F910F900FBE0F901F90D1
:1025F0001895FC01138212828AE592E09183808310
:10260000148208951F93CF93DF93EC01162F64601B
:102610000E947C131E83DF91CF911F910895CF9369
:10262000DF93EC01E881F9810480F581E02D0995C3
:1026300063E0CE010E9478138FE991E40197F1F7EE
:1026400000C0000063E0CE010E94781387E592E0AD
:102650000197F1F700C0000063E0CE010E947813FB
:1026600062E0CE010E94781368E2CE010E947C13E2
:1026700060E0CE010E948A13CE010E94801362E0C6
:10268000CE010E94021364E0CE01DF91CF910C9441
:102690008A130F931F93CF93DF9300D01F92CDB770
:1026A000DEB78C01DC0114968C91149781110CC05B
:1026B00081E014968C93C8012B834A8369830E941E
:1026C0000F1369814A812B81D801ED91FC9106801D
:1026D000F781E02DC8010995B5ECBA95F1F7000036
:1026E0000F900F900F90DF91CF911F910F91089550
:1026F00021E040E00C94491320E040E00C944913A1
:1027000061E00E947C138FE39FE10197F1F700C025
:10271000000008951F93CF93DF93EC01162F68609C
:102720000E947C131D83DF91CF911F91089520E0BB
:1027300041E00C9449130E94971381E090E00895C2
:10274000CF92DF92EF92FF920F931F93CF93DF937D
:102750007C018A01EB016B01C40ED51ECC15DD0591
:1027600029F06991C7010E949713F8CFC801DF9142
:10277000CF911F910F91FF90EF90DF90CF90089530
:102780004FB141705CB156FB552750F954278091E9
:1027900015046091160420910F04309110048527D0
:1027A00090E06427861B9109820F931F9093100479
:1027B00080930F049091160480911504591729F005
:1027C000481719F081E08093140450931604409345
:1027D000150408951F920F920FB60F9211242F9394
:1027E0003F934F935F936F938F939F932CB130E000
:1027F0003595279535952795422F417083B190E007
:1028000054E0959587955A95E1F782279327582F9D
:102810005170809117046091180420911104309137
:102820001204852790E06427861B9109820F931F6D
:1028300090931204809311049091180480911704CE
:10284000591729F0481719F081E080931404509328
:102850001804409317049F918F916F915F914F914E
:102860003F912F910F900FBE0F901F9018952498B5
:102870002C9A6A98729A6E98769A8098889A81E0D3
:102880008093680090E190936B008BBB41E050E037
:1028900060EC73E184E00E9424158CB182FB8827F0
:1028A00080F981708093170493B1809117049295F9
:1028B00091708927809318041092120410921104C9
:1028C000109214048FB18170809315049CB1809193
:1028D000150496FB992790F9892780931604109286
:1028E000100410920F041092130408958091800236
:1028F000811105C081E0809380020C943714089503
:102900000E947614F8948091110490911204109210
:10291000120410921104789408950E947614F89489
:1029200080910F04909110041092100410920F04E3
:10293000789408950E9476148091140410921404DF
:1029400008950E9476148091130410921304089540
:102950002E98269A2D98259A2A98229A2998219A73
:1029600080EA8093800081E18093810080E991E09A
:1029700090938700809386001092890010928800BF
:1029800010928B0010928A00089580911904811191
:1029900005C081E0809319040C94A81408958093D5
:1029A0001B04089580931A040895CF93DF93EC01DC
:1029B0000E94C514D7FF05C0D195C195D10981E00A
:1029C00001C080E0C13991E0D90714F0C0E9D1E03D
:1029D000D0938B00C0938A0090911B04891711F04B
:1029E0002A9A01C02A98229ADF91CF910895CF9315
:1029F000DF93EC010E94C514D7FF05C0D195C195A6
:102A0000D10981E001C080E0C13991E0D90714F01B
:102A1000C0E9D1E0D0938900C093880090911A0456
:102A2000891711F0299A01C02998219ADF91CF9135
:102A30000895CF93DF93EB010E94D514CE01DF916F
:102A4000CF910C94F7140895853008F04CC0E82F0E
:102A5000F0E0EE0FFF1FE45BFE4F71836083823076
:102A6000E1F018F4813069F004C0833019F184304A
:102A700071F1809169008C7F842B80936900E89AC2
:102A8000089580916900440F551F440F551F837F9F
:102A9000842B80936900E99A08958091690034E05D
:102AA000440F551F3A95E1F78F7C842B8093690082
:102AB000EA9A08958091690026E0440F551F2A95EF
:102AC000E1F78F73842B80936900EB9A08958091CE
:102AD0006A0094E0440F551F9A95E1F78F7C842B90
:102AE00080936A00EE9A08951F920F920FB60F928C
:102AF00011242F933F934F935F936F937F938F9303
:102B00009F93AF93BF93EF93FF93E0914C01F091AC
:102B10004D010995FF91EF91BF91AF919F918F91D9
:102B20007F916F915F914F913F912F910F900FBEC9
:102B30000F901F9018951F920F920FB60F921124AD
:102B40002F933F934F935F936F937F938F939F93B5
:102B5000AF93BF93EF93FF93E0914E01F0914F013C
:102B60000995FF91EF91BF91AF919F918F917F91C7
:102B70006F915F914F913F912F910F900FBE0F90EA
:102B80001F9018951F920F920FB60F9211242F933A
:102B90003F934F935F936F937F938F939F93AF93E5
:102BA000BF93EF93FF93E0915001F091510109958C
:102BB000FF91EF91BF91AF919F918F917F916F9115
:102BC0005F914F913F912F910F900FBE0F901F90EB
:102BD00018951F920F920FB60F9211242F933F93C7
:102BE0004F935F936F937F938F939F93AF93BF9315
:102BF000EF93FF93E0915201F09153010995FF91FA
:102C0000EF91BF91AF919F918F917F916F915F9164
:102C10004F913F912F910F900FBE0F901F901895DD
:102C20001F920F920FB60F9211242F933F934F9341
:102C30005F936F937F938F939F93AF93BF93EF9324
:102C4000FF93E0915401F09155010995FF91EF91A7
:102C5000BF91AF919F918F917F916F915F914F91B4
:102C60003F912F910F900FBE0F901F9018951F92BC
:102C70000F920FB60F9211242F933F938F939F9330
:102C8000AF93BF9380911D0490911E04A0911F04E7
:102C9000B091200430911C0423E0230F2D3720F441
:102CA0000196A11DB11D05C026E8230F0296A11DA6
:102CB000B11D20931C0480931D0490931E04A093C7
:102CC0001F04B09320048091210490912204A091CC
:102CD0002304B09124040196A11DB11D8093210409
:102CE00090932204A0932304B0932404BF91AF9146
:102CF0009F918F913F912F910F900FBE0F901F903A
:102D000018952FB7F89460911D0470911E0480915E
:102D10001F04909120042FBF08953FB7F89480912D
:102D2000210490912204A0912304B091240426B59B
:102D3000A89B05C02F3F19F00196A11DB11D3FBFF3
:102D40006627782F892F9A2F620F711D811D911D83
:102D500042E0660F771F881F991F4A95D1F70895A3
:102D60008F929F92AF92BF92CF92DF92EF92FF929B
:102D70006B017C010E948D164B015C01C114D104D2
:102D8000E104F104F1F00E94F41E0E948D1668190E
:102D900079098A099B09683E73408105910570F3A2
:102DA00021E0C21AD108E108F10888EE880E83E01C
:102DB000981EA11CB11CC114D104E104F10429F72F
:102DC000DDCFFF90EF90DF90CF90BF90AF909F90BE
:102DD0008F900895789484B5826084BD84B58160B5
:102DE00084BD85B5826085BD85B5816085BDEEE613
:102DF000F0E0808181608083E1E8F0E010828081F2
:102E000082608083808181608083E0E8F0E080815F
:102E100081608083E1E9F0E080818260808380814D
:102E200081608083E0E9F0E0808181608083E1EC73
:102E3000F0E08081846080838081826080838081F3
:102E400081608083E3ECF0E0808181608083E0EC4E
:102E5000F0E0808182608083E2ECF0E0808181603C
:102E60008083EAE7F0E080818460808380818260F3
:102E700080838081816080838081806880830895E1
:102E800090E0FC013197EF30F105B0F5EA5AFF4FC1
:102E90000C945B23809180008F7703C08091800029
:102EA0008F7D80938000089580918000877FF9CF87
:102EB00084B58F7702C084B58F7D84BD08958091DD
:102EC00090008F7707C0809190008F7D03C0809124
:102ED0009000877F8093900008958091C0008F7745
:102EE00003C08091C0008F7D8093C00008958091C1
:102EF000C200877F8093C20008950F931F93CF93E2
:102F0000DF931F92CDB7DEB7282F30E0F901EA5EDC
:102F1000FE4F8491F901EB5CFE4F1491F901EC5ADC
:102F2000FE4F04910023C9F0882321F069830E9499
:102F300040176981E02FF0E0EE0FFF1FED58FE4FC4
:102F4000A591B4919FB7F8948C91611103C010952D
:102F5000812301C0812B8C939FBF0F90DF91CF9174
:102F60001F910F9108950E947B23CF93DF931F92AF
:102F7000CDB7DEB76983DC01ED91FC910280F3816E
:102F8000E02D41E050E0BE016F5F7F4F09950F904B
:102F9000DF91CF910895CF93DF93EC018C859D85D0
:102FA00097FF05C082E00E94B61B9D878C878C85A9
:102FB0009D85DF91CF91089583E00C944A1EFC011A
:102FC0008485958597FD06C082E00E945E1B90E097
:102FD0000196089582E00E945E1B90E00895FC0136
:102FE0008485958597FD05C02FEF3FEF35872487B2
:102FF000089582E00C94B61BCF93DF93EC0180918F
:103000006101882331F083E00E94E71B181619063E
:1030100034F081E090E09B838A8380E090E0DF9150
:10302000CF910895FC0120812E5F208342E450E07F
:1030300061E871E080E80C94821CFC0121818081B0
:10304000813A59F4213209F04BC047E050E06AE57B
:1030500071E080E00E94821C5EC0813209F040C0B5
:10306000233289F4838190E0982F88273281832B43
:10307000A0E0B0E08093560190935701A0935801CF
:10308000B09359010FC0203239F467E070E08AE54F
:1030900091E00E94B31C09C0223221F48281809306
:1030A000610103C02D7F2032B1F58091750481113B
:1030B00003C0E0E0F8E002C0EEEFFAE080915A01D0
:1030C00090915B01A0915C01B0915D01803B9440C7
:1030D000A105B10511F58091610180FF03C01DC0FC
:1030E00080E00895EE3F2AE0F20731F0808191817F
:1030F0009093FF0A8093FE0A87E797E79183808386
:103100002BE088E190E00FB6F894A89580936000DA
:103110000FBE2093600081E0089588E10FB6F89417
:1031200080936000109260000FBEA895EE3F8AE089
:10313000F80739F08091FE0A9091FF0A918380830D
:10314000EACF1092FF0A1092FE0AE5CF2FEF3FEF71
:10315000FC01358724870895CF93C09161016AE00F
:1031600070E080E090E00E94B01681E0C11101C0E3
:1031700080E0CF910895109228041092270488EEE1
:1031800093E0A0E0B0E08093290490932A04A093F8
:103190002B04B0932C0486E692E09093260480934F
:1031A00025048FEF9FEF90933204809331040895AC
:1031B00008950E94EA160E94D81886E794E00E94BB
:1031C000D71E0E947E06C0E0D0E00E94E70620974E
:1031D000E1F30E940000F9CF6115710581F0DB0178
:1031E0000D900020E9F7AD0141505109461B570BE6
:1031F000DC01ED91FC910280F381E02D099480E0E7
:1032000090E008950C94EC18DC01ED91FC91019094
:10321000F081E02D09948F929F92AF92BF92DF923E
:10322000EF92FF920F931F93CF93DF93CDB7DEB74B
:10323000A1970FB6F894DEBF0FBECDBF7C01F42F6F
:10324000D52ECB0119A2223008F42AE08E010F5DA1
:103250001F4F822E912CA12CB12C6F2F7D2DA501FB
:1032600094010E941A23F22FD32ECA010150110992
:103270006A3014F4E0E301C0E7E3E60FD801EC9311
:10328000232B242B252B49F7B801C7010E94EC18EA
:10329000A1960FB6F894DEBF0FBECDBFDF91CF91E0
:1032A0001F910F91FF90EF90DF90BF90AF909F9094
:1032B0008F900895CF92DF92EF92FF920F931F931A
:1032C000CF93DF93EC016A017B012115310579F47D
:1032D000E881F9810190F081E02D642FDF91CF9199
:1032E0001F910F91FF90EF90DF90CF9009942A30BB
:1032F0003105E9F477FF1AC06DE20E9404198C01D0
:1033000044275527BA014C195D096E097F092AE047
:10331000CE010E940B19800F911FDF91CF911F9159
:103320000F91FF90EF90DF90CF9008952AE0B701C2
:10333000A601CE01DF91CF911F910F91FF90EF90E9
:10334000DF90CF900C940B192115310541F4DC016D
:10335000ED91FC910190F081E02D642F09940C9483
:103360000B199A01462F50E060E070E00C94A4190C
:103370004F925F926F927F928F929F92AF92BF9285
:10338000CF92DF92EF92FF920F931F93CF93DF9331
:10339000EC016A017B01B22E9A01AB01C701B601B3
:1033A0000E94C022882319F062E772E027C026013C
:1033B0003701E89477F82FEF3FEF4FE75FE7C3015E
:1033C000B2010E94C02281110DC02FEF3FEF4FE7E5
:1033D0005FE7C301B2010E94572018161CF466E78C
:1033E00072E00CC02FEF3FEF4FE75FE4C701B6017B
:1033F0000E9407221816ACF46AE772E0CE01DF9152
:10340000CF911F910F91FF90EF90DF90CF90BF90E1
:10341000AF909F908F907F906F905F904F900C94A3
:10342000EC182FEF3FEF4FE75FECC701B6010E94AA
:10343000572087FDE1CF20E030E0A901C701B601A8
:103440000E94572087FF0AC06DE2CE010E94041936
:103450008C01F7FAF094F7F8F09402C000E010E065
:10346000A12C60E070E080E09FE3AB1441F020E02D
:1034700030E040E251E40E945E20A394F6CF9B012D
:10348000AC01C701B6010E94911F6B017C010E9433
:10349000CB202B013C010E94F7209B01AC01C7010E
:1034A000B6010E94901F6B017C012AE0B301A201CA
:1034B000CE010E940B19080F191FBB2039F06EE7CF
:1034C00072E0CE010E94EC18080F191F7B2C7720A8
:1034D00041F120E030E040E251E4C701B6010E9432
:1034E00012226B017C010E94C6204B01AA2497FC8A
:1034F000A094BA2C2AE030E0B501A401CE010E94CC
:103500005A19080F191FC501B4010E94F9209B0127
:10351000AC01C701B6010E94901F6B017C017A9437
:10352000D6CFC801DF91CF911F910F91FF90EF90FF
:10353000DF90CF90BF90AF909F908F907F906F90D3
:103540005F904F9008950C94B819615030F020911D
:10355000F100FC0120830196F8CF289884E680933F
:103560007F04089540917A0450917B04209178045F
:103570003091790442175307B4F49091E8009570A4
:10358000E1F39091E80092FD19C08093F1008091E1
:103590007A0490917B0401968F739927892B19F4F3
:1035A0008EEF8093E80080917A0490917B040196DD
:1035B00090937B0480937A0481E0089580E00895DD
:1035C000CF92DF92EF92FF920F931F93CF93DF93EF
:1035D0001F92CDB7DEB7082F162FF42E862F880F37
:1035E0008E5F99830E94B21A83E00E94B21AE02E85
:1035F000C02E9981D92E8C2D8E19811798F4F60141
:10360000F7FE02C0849101C080810E94B21A082F87
:1036100080E00E94B21A8023FFEFCF1ADF0A8111E7
:10362000EACF01C081E00F90DF91CF911F910F9100
:10363000FF90EF90DF90CF9008958091D700816048
:103640008093D70080EA8093D80089B5806189BDD6
:1036500089B5826089BD09B400FEFDCF61E070E0EC
:1036600080E090E00E94B0168091D8008F7C80614D
:103670008093D8008091E000807F8093E0000895DF
:10368000CF93DF931F92CDB7DEB71982CE0101969B
:103690000E9412180E947C1FBE016F5F7F4F0E9424
:1036A000F51E89810F90DF91CF9108952FB7FC010E
:1036B0002083F89467706093E9000895CF93DF93B7
:1036C0001F92CDB7DEB7682FCE0101960E94561B20
:1036D0008091F20099819FBF0F90DF91CF91089563
:1036E000FF920F931F93CF93DF9300D0CDB7DEB738
:1036F000F62E8A0190917E04992311F057FF03C0A2
:103700008FEF9FEF2BC0682FCE0101967A830E9426
:10371000561B8091F20090E0A8017A8180179107F2
:103720000CF4AC01EF2DF72FF40E84E6FE1639F001
:10373000289880937F049091F1009193F7CF4115E1
:10374000510521F08091F200882321F089818FBFFB
:10375000CA0104C08BE68093E800F8CF0F900F9069
:10376000DF91CF911F910F91FF900895CF93DF9339
:103770001F92CDB7DEB741E050E0BE016F5F7F4FD3
:103780000E94701B019719F4898190E002C08FEFAD
:103790009FEF0F90DF91CF910895CF93DF931F920A
:1037A000CDB7DEB7682FCE0101960E94561B9091CF
:1037B000E800892F807295FF04C09091F20080E4A8
:1037C000891B99819FBF0F90DF91CF9108956F92D0
:1037D0007F928F929F92AF92BF92CF92DF92EF92A1
:1037E000FF920F931F93CF93DF931F92CDB7DEB756
:1037F000782E7B01C42EB52E80917E04882369F03B
:10380000042F152F8AEFD82E872D8072982E9AE3D9
:10381000A92E872D8074882E11C08FEF9FEF57C07F
:10382000872D0E94CD1B682E81110CC0DA94A9F35C
:1038300061E070E080E090E00E94B0160115110593
:1038400079F73BC0282F30E0021713070CF4602EE5
:10385000672DCE0101960E94561B8091E80085FFDE
:1038600029C0262D30E0021B130B992039F06A94F1
:103870008FEF6816B1F01092F100F9CFF701862DA5
:1038800077FE07C0815058F094919093F1003196E3
:10389000F9CF815020F091919093F100FACFE20E90
:1038A000F31E8091E80085FF0FC00115110511F48A
:1038B00081100AC089818FBFC1CF5D9884E6809353
:1038C00080048C2D9B2D03C0A092E800F3CF0F90B5
:1038D000DF91CF911F910F91FF90EF90DF90CF90EC
:1038E000BF90AF909F908F907F906F9008951092AF
:1038F000E90010927B0410927A04909379048093EB
:1039000078040895CF92DF92FF920F931F93CF9385
:10391000DF9300D0CDB7DEB7F82E8A016B01011519
:103920001105B1F0F601F7FE02C0849101C080815B
:1039300049835A830E94B21A01501109FFEFCF1A2E
:10394000DF0A49815A818111EACF8FEF9FEF01C0D1
:10395000CA010F900F90DF91CF911F910F91FF90AF
:10396000DF90CF900895BF92CF92DF92EF92FF92B7
:103970000F931F93CF93DF936C018B01EB013BEF10
:10398000B32E2097C1F07E01C134D1051CF020E494
:10399000E22EF12C8091E80082FFFCCFC8018C1B45
:1039A0009D0B6E2D8C0D9D1D0E94A51AB092E800F6
:1039B000CE19DF09E6CFC801DF91CF911F910F919A
:1039C000FF90EF90DF90CF90BF9008951F920F92DD
:1039D0000FB60F921124DF92EF92FF920F931F9375
:1039E0002F933F934F935F936F937F938F939F9307
:1039F000AF93BF93EF93FF93CF93DF93CDB7DEB732
:103A00006C97DEBFCDBF1092E9008091E80083FF84
:103A100023C168E0CE0145960E94A51A82EF8093EB
:103A2000E8003D8937FF05C08091E80080FFFCCFAA
:103A300003C08EEF8093E800832F807609F0F0C0FA
:103A40002E894F89D88C21110CC0303829F48091EF
:103A50007D048093F10002C01092F1001092F100F9
:103A6000F4C0842F90E09D29213049F43111EDC03C
:103A7000019709F0EAC080917D048D7F0AC0233050
:103A800059F43111E2C0019709F0DFC080917D0443
:103A9000826080937D04D9C0253041F48091E80094
:103AA00080FFFCCF40684093E300CFC0263009F090
:103AB0008DC0EB8CFC8C22E0D2122CC080E090E018
:103AC0000E94771C0E94401B99E08E010F5F1F4FE0
:103AD000F801292F11922A95E9F79983DA8291E06A
:103AE0009E8390EA98879AEF998720917A04309183
:103AF0007B04275F3F4F3C832B838D83C7010E944C
:103B0000771C49E050E0B80180E00E94821C0E94CE
:103B1000401B9BC0C7010E94771C0E947C1FBE01F6
:103B20006B5E7F4F0E941E1F009719F00CF08DC036
:103B300090C081E0D8120EC08B8D9C8D089719F42F
:103B400081E0809377048091770481112FC065ED27
:103B500071E031C0E3E0DE127CC08F89882349F137
:103B6000823029F440E862E18AEF91E01CC08130A4
:103B700029F440E862E187EE91E015C0833009F056
:103B800068C00E947C1F8E010F5F1F4FB8010E940A
:103B90003D1FF80101900020E9F73197E01BF10B80
:103BA00040E06E2FC8010E94E01A4DC063EC71E046
:103BB00002C06DE072E06115710509F44AC0FB01B5
:103BC000449150E080E80E94821C3FC0273009F4F5
:103BD00040C0283021F481E08093F10036C02930C4
:103BE000A1F53370B1F5E3E6F1E081E021E036E3E1
:103BF0009081992361F08093E9002093EB009191EB
:103C00009093EC003093ED008F5F873089F78EE75B
:103C10008093EA001092EA008F8980937E0415C099
:103C20008B8D9C8D0E94771C898D811105C0CE01E2
:103C300045960E941D1807C00E947C1FBE016B5E46
:103C40007F4F0E945C1F882321F08EEF8093E80055
:103C500003C081E28093EB006C960FB6F894DEBF50
:103C60000FBECDBFDF91CF91FF91EF91BF91AF918B
:103C70009F918F917F916F915F914F913F912F9184
:103C80001F910F91FF90EF90DF900F900FBE0F905C
:103C90001F9018958093E9008091F200882319F015
:103CA0008AE38093E80008951F920F920FB60F9257
:103CB00011242F933F934F935F936F937F938F9331
:103CC0009F93AF93BF93CF93EF93FF93C091E10086
:103CD0008091E100837F8093E1008093E100C3FF46
:103CE0000FC01092E90081E08093EB001092EC008D
:103CF00082E38093ED0010927E0488E08093F000D0
:103D0000C2FF19C083E00E944A1E8091800488236C
:103D100039F080918004815080938004882389F158
:103D200080917F04882339F080917F0481508093B3
:103D30007F04882341F1C4FF10C08091E2008E7E91
:103D400081608093E2008091E1008F7E8093E100AA
:103D500080917C048E7E806111C0C0FF16C080916E
:103D6000E2008E7E80618093E2008091E1008E7E91
:103D70008093E10080917C048E7E816080937C043E
:103D800004C05D9ACDCF289AD6CFFF91EF91CF9105
:103D9000BF91AF919F918F917F916F915F914F9163
:103DA0003F912F910F900FBE0F901F90189510927A
:103DB0007E0410927D0410927C040E941D1B809151
:103DC000E1008E7E8093E1008DE08093E200559AC1
:103DD000209AEEEFFFE7859194918B3F9C4D19F46B
:103DE00081E08093750408950895EF92FF920F93F8
:103DF0001F93CF93DF937B01FC01C281D38100E04D
:103E000010E0209781F0E881F9810280F381E02DB4
:103E1000B701CE01099597FD08C0080F191F088446
:103E2000D985C02DEECFC80102C08FEF9FEFDF9183
:103E3000CF911F910F91FF90EF9008950F931F93D3
:103E4000CF93DF938B01FC01C281D381209771F066
:103E5000E881F9810480F581E02DB801CE01099552
:103E6000009731F40884D985C02DF0CF80E090E030
:103E7000DF91CF911F910F9108950F931F93CF93CF
:103E8000DF938B01FC01C281D381209771F0E8811F
:103E9000F9810680F781E02DB801CE010995080F60
:103EA000111D0884D985C02DF0CFF8011082DF9153
:103EB000CF911F910F9108950F931F93CF93DF938D
:103EC0008B01FC01C281D381209771F0E881F981D7
:103ED0000190F081E02DB801CE010995811106C055
:103EE0000884D985C02DF0CF80E001C081E0DF914A
:103EF000CF911F910F9108958091850481110DC07C
:103F000082E08093810484E0809382041092840490
:103F10001092830481E08093850481E894E0089501
:103F20005058BB27AA270ED027C2F0D130F0F5D1C8
:103F300020F031F49F3F11F41EF4C0C10EF4E0955F
:103F4000E7FBB6C1E92F3AD280F3BA1762077307CD
:103F50008407950718F071F49EF552C20EF4E095AF
:103F60000B2EBA2FA02D0B01B90190010C01CA0133
:103F7000A0011124FF27591B99F0593F50F4503EDE
:103F800068F11A16F040A22F232F342F4427585FD0
:103F9000F3CF469537952795A795F0405395C9F7E8
:103FA0007EF41F16BA0B620B730B840BBAF09150A0
:103FB000A1F0FF0FBB1F661F771F881FC2F70EC03F
:103FC000BA0F621F731F841F48F487957795679512
:103FD000B795F7959E3F08F0B3CF9395880F08F0FB
:103FE0009927EE0F97958795089590D158F080E81E
:103FF00091E009F49EEF91D128F040E851E059F4A6
:104000005EEF09C05BC1FCC1E92FE078D7D168F34E
:10401000092E052AC1F3261737074807590738F034
:104020000E2E07F8E02569F0E025E0640AC0EF6392
:1040300007F8009407FADB01B9019D01DC01CA0110
:10404000AD01EF934AD098D10AD05F91552331F05A
:104050002BED3FE049E450FD49EC63CF0895DF9339
:10406000DD27B92FBF7740E85FE31616170648072C
:104070005B0710F4D92FCFD19F938F937F936F93CA
:104080007CD2EAECF0E01DD177D12F913F914F9196
:104090005F91D4D1DD2349F09058A2EA2AED3FE0A8
:1040A00049EC5FE3D0785D274DDFDF9165C1DCD05F
:1040B00008F481E0089539D1E3956FC10CD05CC15B
:1040C0002CD140F023D130F021F45F3F19F0F0C043
:1040D000511197C1F3C072D198F39923C9F35523B5
:1040E000B1F3951B550BBB27AA27621773078407EB
:1040F00038F09F5F5F4F220F331F441FAA1FA9F3A1
:1041000033D00E2E3AF0E0E830D091505040E69592
:10411000001CCAF729D0FE2F27D0660F771F881FF3
:10412000BB1F261737074807AB07B0E809F0BB0BE2
:10413000802DBF01FF2793585F4F2AF09E3F510506
:1041400068F0B6C05EC15F3FECF3983EDCF3869545
:1041500077956795B795F7959F5FC9F7880F911D7C
:104160009695879597F90895E1E0660F771F881F68
:10417000BB1F621773078407BA0720F0621B730B1B
:10418000840BBA0BEE1F88F7E095089504D068946D
:10419000B11137C108951AD188F09F5790F0B92F07
:1041A0009927B751A0F0D1F0660F771F881F991F8C
:1041B0001AF0BA95C9F712C0B13081F021D1B1E03F
:1041C00008951EC1672F782F8827B85F39F0B93F4F
:1041D000CCF3869577956795B395D9F73EF490958E
:1041E0008095709561957F4F8F4F9F4F0895E8940C
:1041F00009C097FB3EF490958095709561957F4F2F
:104200008F4F9F4F9923A9F0F92F96E9BB279395DC
:10421000F695879577956795B795F111F8CFFAF4EC
:10422000BB0F11F460FF1BC06F5F7F4F8F4F9F4F1D
:1042300016C0882311F096E911C0772321F09EE87B
:10424000872F762F05C0662371F096E8862F70E0E1
:1042500060E02AF09A95660F771F881FDAF7880FBB
:104260009695879597F90895990F0008550FAA0B11
:10427000E0E8FEEF16161706E807F907C0F0121679
:104280001306E407F50798F0621B730B840B950B7C
:1042900039F40A2661F0232B242B252B21F40895D1
:1042A0000A2609F4A140A6958FEF811D811D08956E
:1042B00097F99F6780E870E060E008959FEF80ECD9
:1042C0000895DF93CF931F930F93FF92EF92DF92A6
:1042D0007B018C01689405C0DA2EEF01AFD0FE019E
:1042E000E894A5912591359145915591AEF3EF0153
:1042F00029DEFE019701A801DA9479F7DF90EF90AB
:10430000FF900F911F91CF91DF91089500240A949F
:104310001616170618060906089500240A941216A0
:104320001306140605060895C9CF50D0E8F3E894A3
:10433000E0E0BB279F57F0F02AED3FE049EC06C0D4
:10434000EE0FBB0F661F771F881F28F0B23A620777
:104350007307840728F0B25A620B730B840BE39542
:104360009A9572F7803830F49A95BB0F661F771FC5
:10437000881FD2F790480AC1092E0394000C11F44B
:10438000882352F0BB0F40F4BF2B11F460FF04C030
:104390006F5F7F4F8F4F9F4F0895EF93E0FF06C0F1
:1043A000A2EA2AED3FE049EC5FEBCCDDE5DF0F90C0
:1043B000039401FC9058E7EFF0E0FBC057FD9058E4
:1043C000440F551F59F05F3F71F04795880F97FBD9
:1043D000991F61F09F3F79F0879508951216130693
:1043E0001406551FF2CF4695F1DF08C016161706C2
:1043F0001806991FF1CF86957105610508940895F7
:10440000E894BB2766277727CB0197F908952CDF1F
:1044100008F48FEF08959B01AC0160E070E080E844
:104420009FE34CCE0BD0A8CF71DF28F076DF18F0D9
:10443000952309F03DCF42CF1124E3CFBFDFA0F396
:10444000959FD1F3950F50E0551F629FF001729F29
:10445000BB27F00DB11D639FAA27F00DB11DAA1F48
:10446000649F6627B00DA11D661F829F2227B00D95
:10447000A11D621F739FB00DA11D621F839FA00D20
:10448000611D221F749F3327A00D611D231F849F70
:10449000600D211D822F762F6A2F11249F575040C7
:1044A0008AF0E1F088234AF0EE0FFF1FBB1F661F62
:1044B000771F881F91505040A9F79E3F510570F01B
:1044C000F7CE9FCF5F3FECF3983EDCF38695779570
:1044D0006795B795F795E7959F5FC1F7FE2B880F16
:1044E000911D9695879597F908959F931EDF0F90DC
:1044F00007FCEE5F52CF11F40EF4E0CE45C066DF4C
:10450000D0F39923D9F3CEF39F57550B87FF4AD0A9
:104510000024A0E640EA900180585695979528F42B
:10452000805C660F771F881F20F026173707480723
:1045300030F4621B730B840B202931294A2BA6957A
:1045400017940794202531254A2758F7660F771FBF
:10455000881F20F026173707480730F4620B730BCB
:10456000840B200D311D411DA09581F7B901842FC9
:104570009158880F9695879508959B01AC0152CF6D
:1045800073DE880B990B08959F3F31F0915020F412
:10459000879577956795B795880F911D969587951F
:1045A00097F9089591505040660F771F881FD2F7F2
:1045B00008959F938F937F936F93FF93EF939B0146
:1045C000AC0130DFEF91FF917CDE2F913F914F9155
:1045D0005F9128CFDB018F939F930E947023BF913F
:1045E000AF91A29F800D911DA39F900DB29F900D42
:1045F00011240895991B79E004C0991F961708F0BB
:10460000961B881F7A95C9F780950895AA1BBB1B36
:1046100051E107C0AA1FBB1FA617B70710F0A61BC2
:10462000B70B881F991F5A95A9F780959095BC01E3
:10463000CD010895A1E21A2EAA1BBB1BFD010DC0DE
:10464000AA1FBB1FEE1FFF1FA217B307E407F50742
:1046500020F0A21BB30BE40BF50B661F771F881F1E
:10466000991F1A9469F760957095809590959B01B4
:10467000AC01BD01CF010895052E97FB1EF40094F7
:104680000E94532357FD07D00E941A2307FC03D032
:104690004EF40C94532350954095309521953F4FFF
:1046A0004F4F5F4F089590958095709561957F4F1E
:1046B0008F4F9F4F0895EE0FFF1F0590F491E02D4F
:1046C0000994A29FB001B39FC001A39F700D811DEB
:1046D0001124911DB29F700D811D1124911D08950B
:1046E0000E946123A59F900DB49F900DA49F800D03
:1046F000911D1124089581E090E0F8940C9480239A
:04470000F894FFCF5B
:1047040000008D0480000000B041000000000000A3
:104714000000000000000000000000000000000095
:104724000000000000000000000000000000000085
:104734000000000000000000000000000000000075
:1047440000000F00F4010400D00704012315231511
:10475400231523152315FFFFFFFF00E100000000D0
:10476400000000C18081000000018001800180FF01
:104774007FFF7FFF7F564D4450455F31007C005FD3
:10478400564D4450450D0A00564D4450455F320085
:10479400564D4450455F3300564D4450455F3400F8
:1047A400564D4450455F3600564D4450455F3700E2
:1047B400564D4450455F3500564D4450565F317C4C
:1047C400315F564D4450560D0A00000000009B1303
:1047D400A01336012307000000001108E407B907FD
:1047E400C107D407E307564D4450435F005F564D5D
:1047F4004450430D0A004572726F723A204174743A
:10480400656D707420746F20736574206120726507
:1048140061642D6F6E6C79207661726961626C657A
:10482400206F7220646174612074797065206E6FEA
:104834007420737570706F727465640D0A009C0146
:10484400B501CF01EA0107022602470269028E027E
:10485400B502DE020A03000000009B13A013B31785
:10486400B31700000000B517FC17DF17EF17CB17BD
:10487400DC176E616E00696E66006F7666002E004E
:00000001FF
