:100000000C94FB000C94BF150C94E6150C940D1683
:100010000C9434160C9423010C9423010C945B165D
:100020000C9423010C9435140C94D01E0C94621D76
:100030000C9423010C9423010C9423010C942301B0
:100040000C9423010C9423010C9423010C942301A0
:100050000C9423010C9423010C9423010C9482161C
:100060000C9423010C9423010C9423010C94230180
:100070000C9423010C9423010C9423010C94230170
:100080000C9423010C9423010C9423010C94230160
:100090000C94130A0C9423010C9423010C94230157
:1000A0000C9423010C94F3120C942301D417D7174A
:1000B000C617CA17D017F817F817F817DB17DF1786
:1000C000E317E917ED17F817F31705A84CCDB2D4CD
:1000D0004EB93836A9020C50B9918688083CA6AAB8
:1000E000AA2ABE000000803F070605040100080A96
:1000F0000B0C0D090000000200090F0000030401B1
:10010000000C0000000000000000000000000000E3
:100110000000000408020110408040102040804090
:10012000800802040180402010020110801020404D
:100130004020040404040403040502020202040330
:100140000202020206060606060604040202020471
:100150000400000000250028002B002E00310008BC
:100160000B0002020201000904000001020200006B
:1001700005240010010524010101042402060524C0
:100180000600010705810310004009040100020A6E
:10019000000000070502024000000705830240003E
:1001A0000012010002EF020140FB1F0023000101C9
:1001B0000203011201000200000040FB1F002300A7
:1001C0000101020301506F6C6F6C7520436F7270F8
:1001D0006F726174696F6E00506F6C6F6C75204147
:1001E0002D53746172203332553400040309040026
:1001F000F2072909371911241FBECFEFDAE0DEBF5D
:10020000CDBF12E0A0E0B1E0EAEBF6E402C0059059
:100210000D92AE34B107D9F724E0AEE4B2E001C0EC
:100220001D92AB35B207E1F711E0C6EFD1E004C093
:100230002297FE010E943823C03FD107C9F70E94D0
:1002400055190C945B230C9400005B98539A089505
:10025000FC01A2EEB0E08C9180831C92A9EEB0E08C
:100260008C9181831C92A0EFB0E08C9182831C92D0
:100270000895FC01A9EEB0E01C9282818093F00009
:1002800081818C9380818093E200089560FF02C099
:100290002B9A01C02B98239A61FF02C0289A01C0B3
:1002A0002898209A62FF02C0479A01C047983F9A57
:1002B00063FF02C05D9A01C05D98559A5B9A539A9C
:1002C00085E08A95F1F700005B98539A85E08A955E
:1002D000F1F7000008954F925F926F927F928F9294
:1002E0009F92AF92BF92CF92DF92EF92FF920F93C5
:1002F0001F93CF93DF93CDB7DEB72C970FB6F8944B
:10030000DEBF0FBECDBF69837A838B839C832901B7
:100310003A01ED82FE820F83188724E13EE643E630
:1003200054E4C801B7010E9425224B015C01A301DE
:10033000920169817A818B819C810E940D2020E04D
:1003400030E040E05FE30E9425222DE03FEE4AE8E6
:1003500050E40E942522A50194010E94782069871B
:100360007A878B879C872DE03FEE4AE850E46981CD
:100370007A818B819C810E942522A50194010E9493
:1003800078206B017C012DE03FEE4AE850E4C30188
:10039000B2010E942522A50194010E9478204B0100
:1003A0005C019B01AC01C701B6010E940C202BE44B
:1003B0003AEC48E15FE30E9425222B013C0189854C
:1003C0009A85AB85BC858093730290937402A09349
:1003D0007502B0937602C0927702D0927802E092D2
:1003E0007902F0927A0280927B0290927C02A09233
:1003F0007D02B0927E0240927F0250928002609213
:100400008102709282028DE993E00E94680B0EECEB
:1004100013E06AE371E0D8018D919C910E947E19EE
:1004200062E471E0F801808191810E947E1922E0EE
:1004300030E049855A856B857C85D8018D919C91EA
:100440000E941F1B62E471E0F801808191810E948B
:100450007E1922E030E0B701A601D8018D919C9170
:100460000E941F1B62E471E0F801808191810E946B
:100470007E1922E030E0B501A401D8018D919C9154
:100480000E941F1B62E471E0F801808191810E944B
:100490007E1922E030E0B301A201D8018D919C9138
:1004A0000E941F1B62E471E0F801808191810E942B
:1004B0007E1922E030E04D815E816F817885D80120
:1004C0008D919C910E941F1B64E471E0F801808172
:1004D00091810E947E1965E070E080E090E02C96AA
:1004E0000FB6F894DEBF0FBECDBFDF91CF911F9145
:1004F0000F91FF90EF90DF90CF90BF90AF909F90C3
:100500008F907F906F905F904F900C94FB168F921E
:100510009F92AF92BF92CF92DF92EF92FF92CF93D2
:10052000DF9389EC92E00E94890C6091CD0270917A
:10053000CE02882777FD8095982F0E941321209165
:100540004F023091500240915102509152020E944C
:100550000D204B015C0125E33AEF4EE85CE30E947D
:10056000252220E030E04CE051E40E94252220E0EA
:1005700030E04AE754E40E9478206B017C018DE969
:1005800093E00E94680BCEECD3E06DE471E08881CB
:1005900099810E947E1962E471E0888199810E94AC
:1005A0007E1922E030E0B701A601888199810E947E
:1005B0001F1B62E471E0888199810E947E1922E00C
:1005C00030E0B501A401888199810E941F1B64E479
:1005D00071E0888199810E947E1965E070E080E079
:1005E00090E00E94FB16C701B601DF91CF91FF900A
:1005F000EF90DF90CF90BF90AF909F908F90089535
:100600004F925F926F927F928F929F92AF92BF9222
:10061000CF92DF92EF92FF920F931F93CF93DF93CE
:100620000E94CC16C0905302D0905402E090550224
:10063000F09056026C197D098E099F09609357024C
:10064000709358028093590290935A020E94CB14DF
:10065000BC01882777FD8095982F0E9413212B01DC
:100660003C010E94D814BC01882777FD8095982F03
:100670000E9413214B015C018DE993E00E94680BFD
:1006800065E571E08091CE039091CF030E947E19C1
:1006900062E471E08091CE039091CF030E947E19B5
:1006A00022E030E0B301A2018091CE039091CF030C
:1006B0000E941F1B62E471E08091CE039091CF03F2
:1006C0000E947E1922E030E0B501A4018091CE03A2
:1006D0009091CF030E941F1B64E471E08091CE03D0
:1006E0009091CF030E947E1965E070E080E090E079
:1006F0000E94FB1660915702709158028091590236
:1007000090915A020E9411217B018C01A301920158
:10071000C501B4010E946B016091570270915802AB
:100720008091590290915A020E9411210E948702E1
:100730006B017C018DE993E00E94680B6DE571E02F
:100740008091CE039091CF030E947E1962E471E004
:100750008091CE039091CF030E947E1922E030E079
:10076000B701A6018091CE039091CF030E941F1B79
:1007700064E471E08091CE039091CF030E947E19D2
:1007800065E070E080E090E00E94FB1680907F02C0
:1007900090908002A0908102B0908202A701960101
:1007A000C501B4010E940D2020E030E040E05FE38D
:1007B0000E94252260937F027093800280938102C1
:1007C000909382028DE993E00E94680B65E671E0E8
:1007D0008091CE039091CF030E947E1962E471E074
:1007E0008091CE039091CF030E947E19A5019401C0
:1007F000C701B6010E940C20AB01BC017F7722E04B
:1008000030E08091CE039091CF030E941F1B64E4DF
:1008100071E08091CE039091CF030E947E1965E034
:1008200070E080E090E00E94FB16609157027091AA
:1008300058028091590290915A020E9411216B0135
:100840007C012091730230917402409175025091A5
:1008500076020E9425229B01AC0160918302709177
:10086000840280918502909186020E940D206093FF
:100870008F02709390028093910290939202109253
:100880009302109294021092950210929602209177
:100890007F02309180024091810250918202C70113
:1008A000B6010E9425229B01AC0160918B027091E0
:1008B0008C0280918D0290918E020E940D20609397
:1008C0009702709398028093990290939A028DE90F
:1008D00093E00E94680B6DE671E08091CE039091E9
:1008E000CF030E947E1962E471E08091CE03909163
:1008F000CF030E947E1940918F0250919002609127
:1009000091027091920222E030E08091CE039091AA
:10091000CF030E941F1B62E471E08091CE0390918F
:10092000CF030E947E1940919302509194026091EE
:1009300095027091960222E030E08091CE03909172
:10094000CF030E941F1B62E471E08091CE0390915F
:10095000CF030E947E1940919702509198026091B6
:10096000990270919A0222E030E08091CE0390913A
:10097000CF030E941F1B62E471E08091CE0390912F
:10098000CF030E947E1940918302509184026091AE
:1009900085027091860222E030E08091CE03909132
:1009A000CF030E941F1B62E471E08091CE039091FF
:1009B000CF030E947E1940918B0250918C0260916E
:1009C0008D0270918E0222E030E08091CE039091F2
:1009D000CF030E941F1B62E471E08091CE039091CF
:1009E000CF030E947E19409173025091740260916E
:1009F00075027091760222E030E08091CE039091F2
:100A0000CF030E941F1B62E471E08091CE0390919E
:100A1000CF030E947E1940917F0250918002609125
:100A200081027091820222E030E08091CE039091A9
:100A3000CF030E941F1B64E471E08091CE0390916C
:100A4000CF030E947E1965E070E080E090E00E9494
:100A5000FB16C0909702D0909802E0909902F09017
:100A60009A0220E030E0A901C701B6010E9471207E
:100A700087FF0DC08BED9FE0A9ECB0E48093970257
:100A800090939802A0939902B0939A0212C02BED12
:100A90003FE049EC50E4C701B6010E94212218163C
:100AA00044F41092970210929802109299021092B8
:100AB0009A02609157027091580280915902909168
:100AC0005A020E94112120917302309174024091C8
:100AD0007502509176020E9425224B015C01C09064
:100AE0009702D0909802E0909902F0909A02C70184
:100AF000B6010E9475209B01AC01C501B4010E94A2
:100B000025229B01AC0160915B0270915C02809197
:100B10005D0290915E020E940D20609367027093C7
:100B200068028093690290936A02C701B6010E942D
:100B300088229B01AC01C501B4010E9425229B01C2
:100B4000AC0160915F0270916002809161029091AE
:100B500062020E940D2060936B0270936C0280937E
:100B60006D0290936E02C0926F02D0927002E0927A
:100B70007102F09272028DE993E00E94680B65E7C2
:100B800071E08091CE039091CF030E947E1962E4C0
:100B900071E08091CE039091CF030E947E19409125
:100BA0006702509168026091690270916A0222E0C6
:100BB00030E08091CE039091CF030E941F1B62E42E
:100BC00071E08091CE039091CF030E947E194091F5
:100BD0006B0250916C0260916D0270916E0222E086
:100BE00030E08091CE039091CF030E941F1B62E4FE
:100BF00071E08091CE039091CF030E947E194091C5
:100C00006F0250917002609171027091720222E045
:100C100030E08091CE039091CF030E941F1B64E4CB
:100C200071E08091CE039091CF030E947E1965E020
:100C300070E080E090E00E94FB1664E170E080E0EC
:100C400090E00E94FB160E94CC16609353027093B2
:100C500054028093550290935602E7E6F2E04BE58A
:100C600052E02FE832E063E872E081919191A19126
:100C7000B191EA0189939993A993B993AE01E901DE
:100C800089919991A991B9919E01EB0189939993C9
:100C9000A993B993BE01D2E0E337FD0731F7DF91A5
:100CA000CF911F910F91FF90EF90DF90CF90BF9069
:100CB000AF909F908F907F906F905F904F9008952E
:100CC0008F929F92AF92BF92CF92DF92EF92FF925C
:100CD000CF93DF9360E070E080E090E00E946415C5
:100CE000C0E0D0E0C12CD12C7601460157012196FD
:100CF00089EC92E00E94890C8091CD029091CE0205
:100D0000BE010E94E122882777FD8095982F0E94DE
:100D100013219B01AC01C701B6010E940D206B019C
:100D20007C010E94CC160E9411219B01AC01C501DF
:100D3000B4010E940D204B015C0120E030E44CE93D
:100D400055E40E947120181694F620E030E0A901C5
:100D5000C701B6010E940D2060934F0270935002AC
:100D60008093510290935202DF91CF91FF90EF90C8
:100D7000DF90CF90BF90AF909F908F90089540EDFF
:100D800057E060E070E08DE993E00E94B20B20E84C
:100D900035E240E050E063EF73E08DE993E00E94BC
:100DA0006B0B8DE993E00E94680B65E871E0809120
:100DB000CE039091CF030E947E196AE070E080E03C
:100DC00090E00E94FB1641E060E08DE993E00E9414
:100DD000240C40E855E260E070E083EF93E00E946D
:100DE000221983EF93E00E9428198823D1F38DED17
:100DF00092E00E949B0880914E02811105C081E023
:100E000080934E020E94821442E050E063E070E062
:100E100089EC92E00E94330D89EC92E00E94710C03
:100E20000E94600642E050E064E070E08BE992E0EE
:100E30000E94B70E8BE992E00E943D0E0E94CB14F7
:100E40000E94D81481E00E941A1581E00C941D15AF
:100E5000CF93C8E083E10E948B17C150D9F70E945D
:100E6000EC140E94E51464E670E084E690E00E94D1
:100E700064150E94000364E170E080E090E0CF918F
:100E80000C94FB1620E05D99216055992260FC01CD
:100E900020830895FC01208121FB0EF0559820FB52
:100EA0000EF05D980EF45D9A21FB0EF4559A0895AC
:100EB00020E02899216020992260FC012083089578
:100EC000FC01208121FB0EF0209820FB0EF02898D9
:100ED0000EF4289A21FB0EF4209A0895FF920F93A6
:100EE0001F93CF93DF93CDB7DEB72A970FB6F89451
:100EF000DEBF0FBECDBF8C01F62ECE0101962A8734
:100F000049870E94280130E05A9931605299326035
:100F10003E8330E02B993160239932603F83CE01CC
:100F200005960E94580730E0479931603F9932603A
:100F30003887CE0104960E94420749852A854423BA
:100F400011F05A9A01C05A98529A21110AC06F2D75
:100F500070E084E0759567958A95E1F7C8010E9475
:100F600046016F2D6F70C8010E944601CE010496A4
:100F70000E944A07288521FB0EF03F9820FB0EF0C7
:100F800047980EF4479A21FB0EF43F9ACE0105963E
:100F90000E9460073F8131FB0EF0239830FB0EF07A
:100FA0002B980EF42B9A31FB0EF4239A2E8121FB01
:100FB0000EF0529820FB0EF05A980EF45A9A21FB2C
:100FC0000EF4529ACE0101960E9439012A960FB66C
:100FD000F894DEBF0FBECDBFDF91CF911F910F916F
:100FE000FF90089586ED92E00E9444138BE991E012
:100FF0009093D7028093D60289EC92E00E943F0C36
:101000008BE992E00C94C00D80910D0390E020914B
:101010000E03821B9109089520910E0380910D0308
:10102000281750F4E22FF0E0E15FFC4F808190E060
:101030002F5F20930E0308958FEF9FEF0895E091A7
:101040000E0380910D03E81730F4F0E0E15FFC4FF0
:10105000808190E008958FEF9FEF08950895CF92DB
:10106000DF92EF92FF920F931F93CF93DF937C0158
:10107000CB018A012091E902222389F0EB016B0167
:10108000C40ED51ECC15DD0569F06991D701ED912F
:10109000FC910190F081E02DC7010995F3CF642FF9
:1010A0000E94EA09C801DF91CF911F910F91FF9033
:1010B000EF90DF90CF900895CF93DF931F92CDB73D
:1010C000DEB769832091E9022223D1F02091EA0260
:1010D000203240F021E030E0FC013383228380E0C5
:1010E00090E015C08091EB02E82FF0E0E451FD4F55
:1010F000998190838F5F8093EB028093EA0205C011
:1011000061E0CE0101960E94EA0981E090E00F9033
:10111000DF91CF910895FC011382128248EE53E0D3
:1011200060E070E0448355836683778387EA91E0CB
:1011300091838083089510920E0310920D031092F4
:10114000EB021092EA020C942D0981E08093E902EF
:1011500060930C031092EB021092EA0208950F9331
:10116000062F21E04091EA026CEE72E080910C03C0
:101170000E9493091092EB021092EA021092E90287
:101180000F9108958F929F92AF92BF92CF92DF926C
:10119000EF92FF920F931F93CF93DF93EC01F62E04
:1011A000D42E48015901EE2019F10E94A5081E2DE8
:1011B000143008F013E01150B8F0E881F98128E00C
:1011C000129FB0011124A501940104C056954795C2
:1011D000379527956A95D2F7CA01B9010190F08138
:1011E000E02DCE010995E7CF60E0CE010E94AF0867
:1011F0004D2D413208F040E22C2D6FE073E08F2D31
:101200000E944B0910920E0380930D03DF91CF9142
:101210001F910F91FF90EF90DF90CF90BF90AF9014
:101220009F908F900895CF92EF920F931F93C22EAD
:10123000E12C00E010E098010E94C2081F910F917C
:10124000EF90CF90089521E00C94130961E00C9485
:10125000AF088DED92E00C948B0810929C0381E016
:1012600080939A031092990361E082E00E94F9173B
:1012700061E083E00E94F917E9EBF0E080818E7F66
:10128000808380818D7F808388E48093B80085E4AB
:101290008093BC000895413208F043C090919C03B4
:1012A0009111FCCF91E090939C0320939A032FEF30
:1012B00020932F0310927403240F209373039093B1
:1012C0009B0390919B03880F892B80939B038091B4
:1012D0009903813061F41092990380919B0380936C
:1012E000BB008091BC0083FDF8CF85EC01C085EE8A
:1012F0008093BC0080919C038130E1F38091740362
:10130000841710F44091740325E733E0FB01D90101
:101310008A2F821B841718F48D918193F9CF842F23
:10132000089580E008950F93413208F04AC09091EB
:101330009C039111FCCF92E090939C0300939A033D
:101340009FEF90932F031092740340937303FB015C
:1013500065E773E0DB019A2F961B941718F49191BF
:101360009D93F9CF10929B0390919B03880F892B3B
:1013700080939B0380919903813061F410929903CB
:1013800080919B038093BB008091BC0083FDF8CFCC
:1013900085EC01C085EE8093BC00222321F0809172
:1013A0009C038230E1F380912F038F3F61F08091A5
:1013B0002F03803251F080912F03803341F483E07A
:1013C00007C081E005C080E003C082E001C084E086
:1013D0000F910895613298F420919C03243089F490
:1013E00060935103FC0183E593E0DC012A2F281B65
:1013F000261718F421912D93F9CF80E0089581E00C
:10140000089582E0089585ED8093BC008091BC0032
:1014100084FDFCCF10929C03089585EC8093BC0062
:1014200010929C0308951F920F920FB60F921124F1
:101430002F933F934F935F936F937F938F939F93DC
:10144000AF93BF93EF93FF938091B900887F80366D
:1014500009F49EC078F5883209F45DC090F48031BB
:1014600009F456C038F4882309F4F5C0883009F42B
:101470004FC0F5C0883109F44EC0803209F45FC016
:10148000EEC0803409F46AC058F4803309F457C0C0
:10149000883309F0E4C080932F030E940D0ADFC057
:1014A000803509F44FC0883509F45DC0883409F0EF
:1014B000D6C0D3C0883909F4C4C0A8F4883709F469
:1014C00067C038F4883609F463C0803709F460C017
:1014D000C6C0883809F4B5C0803909F45FC08038C7
:1014E00009F0BDC05BC0803B09F483C038F4803A8A
:1014F00009F466C0883A09F47CC0B1C0803C09F4A4
:10150000A4C0883C09F4A1C0883B09F487C0A7C0E7
:1015100080919B0310C0909174038091730398177E
:1015200070F5E091740381E08E0F80937403F0E016
:10153000EB58FC4F80818093BB0085EC83C0809387
:101540002F038BC0E091740381E08E0F80937403AE
:101550008091BB00F0E0EB58FC4F808390917403C6
:10156000809173036BC0E091740381E08E0F8093D0
:1015700074038091BB00F0E0EB58FC4F80838091B6
:101580009A0381116AC081E08093990384EA5EC066
:1015900083E080939C0310923003CFCF809130037F
:1015A000803208F04EC0E091300381E08E0F8093CE
:1015B00030038091BB00F0E0EF5CFC4F8083BDCF37
:1015C0000E940D0A80913003803230F4E0913003A4
:1015D000F0E0EF5CFC4F10826091300370E0E0912E
:1015E0009503F091960381E393E0099510923003FF
:1015F00036C084E080939C031092520310925103F2
:10160000E0919703F091980309958091510381111E
:1016100005C081E08093510310925303E09152037F
:1016200081E08E0F80935203F0E0ED5AFC4F8081F1
:101630008093BB009091520380915103981708F456
:101640007CCF85E88093BC000AC085EC8093BC0009
:1016500010929C0304C010922F030E94030AFF9172
:10166000EF91BF91AF919F918F917F916F915F911A
:101670004F913F912F910F900FBE0F901F90189593
:101680000F931F93CF93DF93EC01662359F00E94D1
:10169000CC1669837A838B839C83DF91CF911F91D2
:1016A0000F9108950E94CC1609811A812B813C81EB
:1016B000601B710B820B930B6436710581059105DC
:1016C00030F763E070E080E090E00E94FB16EACF24
:1016D00060E00C94400BCF92DF92EF92FF920F9359
:1016E0001F93CF93DF9300D000D0CDB7DEB78C012E
:1016F0007B01FC0172AB61AB8BE1C82ED12CC70121
:1017000029833A834B835C830E94281929813A817B
:101710004B815C81811113C0F1E0CF1AD10879F0BF
:1017200064E670E080E090E029833A834B835C8339
:101730000E94FB165C814B813A812981E0CFBA017E
:10174000A901F80181A992A90F900F900F900F9015
:10175000DF91CF911F910F91FF90EF90DF90CF908D
:101760000C942219FC0113AA14AA15AA16AA118214
:10177000128213821482411551056105710521F011
:10178000CB01BA010C94FB1608951F93CF93DF93FE
:10179000EC01162F63EB71E089A99AA90E947E19CA
:1017A0004AE050E0612F89A99AA90E942D1A6AEB9C
:1017B00071E089A99AA90E947E1962E370E080E035
:1017C00090E0DF91CF911F910C94FB161F93CF9364
:1017D000DF93EC01162F8D81882389F189A99AA9BD
:1017E000DC01ED91FC910480F581E02D0995892BB8
:1017F000A9F307C02637310519F12835310509F459
:101800001D8289A99AA9DC01ED91FC910480F581E2
:10181000E02D09951816190694F489A99AA9DC01F6
:10182000ED91FC910680F781E02D09959C0133270D
:1018300023363105F9F6612FCE010E94C50B83E6F0
:10184000DF91CF911F9108950F931F93CF93DF9353
:101850001F92CDB7DEB78C01662349F081E0F80115
:10186000858360E0C80149830E94E60B4981F80145
:1018700045830F90DF91CF911F910F910895FC0147
:1018800083E090E0908787831386128614860895FC
:10189000EF92FF921F93CF93DF931F92CDB7DEB7E6
:1018A0007C01162FFC0161858DED92E049830E9439
:1018B000A508612F8DED92E00E945C084981642F9C
:1018C0008DED92E00E945C088DED92E00E94260969
:1018D000F70186830F90DF91CF911F91FF90EF90DA
:1018E0000895CF93DF93EC018F819885029729F4B7
:1018F00040E069E3CE010E94480C40E063E2CE0183
:101900000E94480C4FE660E2CE01DF91CF910C942B
:10191000480C9F92AF92BF92CF92DF92EF92FF92CC
:101920000F931F93CF93DF93EC0169858DED92E0C8
:101930000E94A508E091DD02F091DE020190F081A5
:10194000E02D68EA8DED92E009958DED92E00E9420
:10195000260946E069858DED92E00E9423090E94E8
:10196000CC167B018DED92E00E940408069784F46A
:101970008A859B85892BB1F30E94CC166E197F094D
:101980008A859B858617970768F781E08C872CC02E
:101990008DED92E00E940C08A82E8DED92E00E9441
:1019A0000C08982E8DED92E00E940C08E82E8DED2B
:1019B00092E00E940C08B82E8DED92E00E940C0877
:1019C000F82E8DED92E00E940C08D92CC12CCA286B
:1019D000D982C8821B2D00E00E291B830A83982F11
:1019E00088278F299D838C83DF91CF911F910F9141
:1019F000FF90EF90DF90CF90BF90AF909F900895B1
:101A00001F93CF93DF931F92CDB7DEB7162F8DEDC7
:101A100092E049830E94A5084981642F8DED92E0F0
:101A20000E945C088DED92E00E942609811114C08D
:101A300041E0612F8DED92E00E9423098DED92E04F
:101A40000E940408892B41F08DED92E00F90DF9108
:101A5000CF911F910C940C088FEF9FEF0F90DF91A7
:101A6000CF911F910895EF92FF920F931F93CF9301
:101A7000DF937C01EB018A016330710521F0423074
:101A8000510509F051C0CE010197039758F5011592
:101A9000110581F04FE050E06BE6C7010E94000D98
:101AA0008F3F2FEF920719F001E010E013C00130D3
:101AB000110551F04FE050E06AE6C7010E94000DA9
:101AC0008F3FEFEF9E0721F4C330D10569F027C0A7
:101AD00000E010E0C330D10529F4873D9105F1F510
:101AE000C2E0D0E02097D9F40115110561F04FE074
:101AF00050E069E6C7010E94000D833D910589F120
:101B00000130110549F04FE050E068E6C7010E943E
:101B1000000D833D910541F1C330D10519F002302C
:101B2000110511F480E025C0F701D087C783209705
:101B300059F0D7FD11C023977CF40130110511F441
:101B40008BE608C08AE606C00130110511F489E66B
:101B500001C088E6F701818781E00BC0C1E0D0E0D9
:101B6000C1CF01E010E002C000E010E0C0E0D0E032
:101B7000D6CFDF91CF911F910F91FF90EF900895F5
:101B8000CF93DF93EC0186E0EEE2F1E0DE015296C6
:101B900001900D928A95E1F786E0E4E3F1E0DE0141
:101BA0001C9601900D928A95E1F784E090E09A8F5F
:101BB000898F1CA61BA61DA6DF91CF910895EF92D9
:101BC000FF921F93CF93DF931F92CDB7DEB77C01B7
:101BD000162FFC01638D8DED92E049830E94A508CC
:101BE000612F8DED92E00E945C084981642F8DED9C
:101BF00092E00E945C088DED92E00E942609F701B8
:101C0000808F0F90DF91CF911F91FF90EF900895FB
:101C1000EF92FF921F93CF93DF931F92CDB7DEB762
:101C20007C01162FFC01648D8DED92E049830E94AA
:101C3000A508612F8DED92E00E945C084981642F18
:101C40008DED92E00E945C088DED92E00E942609E5
:101C5000F701808F0F90DF91CF911F91FF90EF9050
:101C60000895FC01218D328D2330310511F0603251
:101C700010F40C94080E0C94DF0DCF93DF93EC015D
:101C8000898D9A8D83309105D9F440E061E2CE01CF
:101C90000E94310E47E560E2CE010E94310E44E61B
:101CA00064E2CE010E94310E40E265E2CE010E9464
:101CB000310E40E066E2CE01DF91CF910C94310EFF
:101CC000029739F448E063E2CE010E94DF0D47E459
:101CD00006C040E063E2CE010E94DF0D47E260E211
:101CE000CE010E94DF0D4CE060E0CE010E94080EA4
:101CF00040E261E0CE010E94080E40E062E0CE01C9
:101D0000DF91CF910C94080E1F93CF93DF931F9216
:101D1000CDB7DEB7162F8DED92E049830E94A5085E
:101D20004981642F8DED92E00E945C088DED92E078
:101D30000E942609811114C041E0612F8DED92E0CF
:101D40000E9423098DED92E00E940408892B41F046
:101D50008DED92E00F90DF91CF911F910C940C08C4
:101D60008FEF9FEF0F90DF91CF911F910895EF922A
:101D7000FF920F931F93CF93DF93EC018B017A01B6
:101D80006430710521F04230510509F055C0C80199
:101D90000397029708F0CDC0E114F10471F04FE011
:101DA00050E06DE1CE010E94840E8934910509F462
:101DB000B8C081E0E816F10451F04FE050E06EE168
:101DC000CE010E94840E8934910509F4AEC004301E
:101DD000110509F0D0C0E114F10469F040E250E0CF
:101DE00069E1CE010E94840E019679F421E0E216A9
:101DF000F10409F4A3C040E250E068E1CE010E9482
:101E0000840E019609F0A4C099C00430110509F0B0
:101E10009BC04FE050E06EE1CE010E94840EEE24A4
:101E2000E394F12CCC9709F0A9C002E010E082E025
:101E3000E816F10409F486C01A8F098F01301105E4
:101E400069F124F4012B09F449C069C0023011057D
:101E500041F10330110509F062C0EA94EF2811F452
:101E60008DE101C08EE18C8F8B8F88E090E09AA38A
:101E700089A389E090E098A38F8F8AE090E09EA3E9
:101E80008DA38BE090E09CA38BA38CE090E09AA7BD
:101E900089A78DE090E098A78FA341C0EA94EF282E
:101EA00011F489E101C088E18B8F8EE18C8F83E092
:101EB00090E098A38F8F84E090E09AA389A387E0B5
:101EC00090E09CA38BA388E090E09EA38DA385E087
:101ED00090E098A78FA386E090E01FC0EA94EF28D7
:101EE00011F489E101C088E18B8F8EE18C8F83E052
:101EF00090E098A38F8F84E090E09AA389A385E077
:101F000090E09CA38BA386E090E09EA38DA387E046
:101F100090E098A78FA388E090E09AA789A781E036
:101F200030C0EE24E394F12C02C0E12CF12C03E04C
:101F300010E00330110508F44ECF79CF04301105BD
:101F400009F075CF80E01DC0EE24E394F12C6FCF33
:101F50000430110569F44FE050E06EE1CE010E94BB
:101F6000840E31E020E0CC9709F030E0032F122FEF
:101F7000E12CF12C5CCF03E010E059CF00E010E041
:101F800056CFDF91CF911F910F91FF90EF90089561
:101F90009091D603E091DA03F091DB03992311F0DD
:101FA000849101C080812FEB280F2A3110F4805ECC
:101FB0000895803249F49F012F5F3F4F3093DB0338
:101FC0002093DA03EF2B31F708951F93CF93DF931C
:101FD0000E94C80FC0E0D0E01AE090ED980F9A3050
:101FE000B8F49E01129FE001139FD00D1124C80F79
:101FF000D11D87FDDA95E0978091DA039091DB039C
:1020000001969093DB038093DA030E94C80FE5CF1B
:10201000CE01DF91CF911F9108951092720010921E
:10202000C00084E08093C10089E08093C20081E019
:102030008093C300EFEBF0E083E0808388EE809331
:10204000D10010821092D200579A789408952F925E
:102050003F924F925F926F927F928F929F92AF9238
:10206000BF92CF92DF92EF92FF920F931F93CF9385
:10207000DF93CDB7DEB727970FB6F894DEBF0FBE5C
:10208000CDBF7C011B014D838091DC03811105C014
:1020900081E08093DC030E940D1010920F01F7FE87
:1020A00004C0E894F7F81AE001C011E088E2189F34
:1020B000802D1124282F30E03F832E832E153F05DD
:1020C00010F4FF82EE82113049F44E815F8141317C
:1020D000574220F0E0E1F7E2FF83EE83812E912C5E
:1020E000A12CB12C8E819F81969587959C0140E013
:1020F00050E029833A834B835C834E815F812A01C0
:10210000612C712CA501940160E072E18AE790E0F6
:102110000E94B12229813A814B815C81620F731F39
:10212000841F951FA30192010E94172369017A0160
:10213000EE24FF2400E00F5FC11434E0D306E10475
:10214000F10408F120E032E14AE750E0002E04C03B
:1021500055954795379527950A94D2F7C501B4014F
:102160000E94B12229813A814B815C81620F731FE9
:10217000841F951FA30192010E94172369017A0110
:10218000EE24FF24D8CF1A3049F48E819F81059622
:102190006AE070E00E94CD227F836E834E815F8172
:1021A000483E83E0580759F09101DA010E943C2330
:1021B00028EE33E040E050E00E941723190110920E
:1021C00072008091C100807F802B8093C100BB276B
:1021D000AF2D9E2D8D2D8093BF00C092D1002D81FB
:1021E000203108F02FE080E190E0821B910904C0CB
:1021F000F694E794D794C7948A95D2F78D2D9927B2
:102200008093BF00C092D2003092D9032092D803AD
:1022100089B38FEF89BB84E08093720027960FB655
:10222000F894DEBF0FBECDBFDF91CF911F910F910C
:10223000FF90EF90DF90CF90BF90AF909F908F90E6
:102240007F906F905F904F903F902F900895CF9325
:10225000DF93EB018F3F11F0411105C040E0BE015B
:1022600088EE93E043C0813130F050EF580F503684
:1022700018F05FE501C050E0852F6CE00E94C1229C
:10228000682F74EF760390011124250F311D2C3037
:10229000310540F4F901EE0FFF1FE55FFD4F20818E
:1022A000318102C020E030E0873081F0082E02C08A
:1022B000220F331F0A94E2F7823028F0C9010596F5
:1022C0006AE070E00CC0C90190580CC0C90136E04A
:1022D000880F991F3A95E1F7029665E070E00E9439
:1022E000CD22CB01403108F04FE0BE01DF91CF910C
:1022F0000C9427104F925F926F927F928F929F92D1
:10230000AF92BF92CF92DF92EF92FF920F931F9303
:10231000CF93DF9300D0CDB7DEB790900E018091C0
:10232000D503882321F06091D403611117C077246D
:102330007394B0ECAB2EBDE5BB2E1AE0612E04E029
:10234000802E80EDC82E87E0D82E94E0E92EF12C67
:1023500004EF11E02FE0422E512C15C070E040E058
:1023600088EE93E00E9427101092D40329C186368C
:10237000D4F5813609F4A9C07CF58C3309F460C02A
:102380008E3381F493940E94C80F2091DA03309128
:10239000DB032F5F3F4F3093DB032093DA03853657
:1023A00031F752C0813209F08BC080920E01D09279
:1023B0000D01C0920C01F0920B01E0920A01109302
:1023C0000901009308015092070140920601109202
:1023D000D503A4E09A2ED7CF8336A1F10CF478C0B0
:1023E00010E082E077C08D36C1F194F4873691F128
:1023F00074F18C3609F064C00E94E50FBC01909323
:102400000B0180930A0180910C0190910D0151C044
:102410008237C9F14CF48F3609F052C00E94E50FA3
:10242000982E80930E01AFCF843781F1863709F063
:1024300047C00E94E50F9093070180930601A3CF48
:102440009A94A1CF10E020C010E084E043C010E0D7
:1024500085E040C010E087E03DC00E94C80F8C3688
:1024600019F41092D50304C07092D5031092D403CE
:102470002091DA033091DB032F5F3F4F3093DB0372
:102480002093DA0380CF11E080E024C00E94E50FA2
:10249000BC01C5010E94CD22669EC001679E900DC1
:1024A000112490930D0180930C0160910A017091A9
:1024B0000B010E94CD22709309016093080163CF44
:1024C0001092DB031092DA037BC010E089E002C0B7
:1024D00010E08BE0082F9CE0999E000D11240E94D3
:1024E000C80F982F977F933261F42091DA033091CF
:1024F000DB032F5F3F4F3093DB032093DA030F5F43
:10250000EECF8D3271F42091DA033091DB032F5F2F
:102510003F4F3093DB032093DA0301500E94C80F32
:10252000F0CF60910801709109018153883050F417
:10253000E0900C01F0900D010E94E50FBC01C70175
:102540000E94CD227B01F694E79469837A830E94EE
:10255000C80F69817A818E3269F42091DA03309153
:10256000DB032F5F3F4F3093DB032093DA036E0DC5
:102570007F1DE9CF8091D503882339F09B013695E3
:1025800027952093D403621B710940910601112302
:1025900011F08FEF01C0802F0F900F90DF91CF913E
:1025A0001F910F91FF90EF90DF90CF90BF90AF9071
:1025B0009F908F907F906F905F904F900C94271119
:1025C0000F900F90DF91CF911F910F91FF90EF909F
:1025D000DF90CF90BF90AF909F908F907F906F9043
:1025E0005F904F9008951F920F920FB60F92112493
:1025F0002F933F934F935F936F937F938F939F930B
:10260000AF93BF93EF93FF938091D8039091D90339
:102610009C01215031093093D9032093D803892B91
:1026200011F51092720078948091C100807F8460CF
:102630008093C10083E08093BF0088EE8093D10037
:102640001092BF001092D20081E080930F01809120
:10265000DA039091DB03892B31F08091D70381114C
:1026600002C00E947A11FF91EF91BF91AF919F91AB
:102670008F917F916F915F914F913F912F910F902B
:102680000FBE0F901F901895FC011382128287E2F3
:1026900092E091838083148208951F93CF93DF93F8
:1026A000EC01162F64600E94C7131E83DF91CF9147
:1026B0001F910895CF93DF93EC01E881F9810480A5
:1026C000F581E02D099563E0CE010E94C3138FE9E7
:1026D00091E40197F1F700C0000063E0CE010E9491
:1026E000C31387E592E00197F1F700C0000063E0B3
:1026F000CE010E94C31362E0CE010E94C31368E2C0
:10270000CE010E94C71360E0CE010E94D513CE0116
:102710000E94CB1362E0CE010E944D1364E0CE0113
:10272000DF91CF910C94D5130F931F93CF93DF9329
:1027300000D01F92CDB7DEB78C01DC0114968C91CE
:10274000149781110CC081E014968C93C8012B83DF
:102750004A8369830E945A1369814A812B81D80177
:10276000ED91FC910680F781E02DC8010995B5EC4B
:10277000BA95F1F700000F900F900F90DF91CF9175
:102780001F910F91089521E040E00C94941320E0F4
:1027900040E00C94941361E00E94C7138FE39FE123
:1027A0000197F1F700C0000008951F93CF93DF93C6
:1027B000EC01162F68600E94C7131D83DF91CF9133
:1027C0001F91089520E041E00C9494130E94E213BD
:1027D00081E090E00895CF92DF92EF92FF920F9305
:1027E0001F93CF93DF937C018A01EB016B01C40E31
:1027F000D51ECC15DD0529F06991C7010E94E213B1
:10280000F8CFC801DF91CF911F910F91FF90EF900A
:10281000DF90CF9008954FB141705CB156FB5527C2
:1028200050F954278091E3036091E4032091DD0384
:102830003091DE03852790E06427861B9109820F83
:10284000931F9093DE038093DD039091E4038091C6
:10285000E303591729F0481719F081E08093E20348
:102860005093E4034093E30308951F920F920FB631
:102870000F9211242F933F934F935F936F938F93F6
:102880009F932CB130E03595279535952795422FAC
:10289000417083B190E054E0959587955A95E1F7A2
:1028A00082279327582F51708091E5036091E603AA
:1028B0002091DF033091E003852790E06427861B99
:1028C0009109820F931F9093E0038093DF0390910F
:1028D000E6038091E503591729F0481719F081E0C4
:1028E0008093E2035093E6034093E5039F918F9119
:1028F0006F915F914F913F912F910F900FBE0F906D
:102900001F90189524982C9A6A98729A6E98769AC5
:102910008098889A81E08093680090E190936B00A2
:102920008BBB41E050E06BE074E184E00E946F15E6
:102930008CB182FB882780F981708093E50393B185
:102940008091E5039295917089278093E603109218
:10295000E0031092DF031092E2038FB18170809345
:10296000E3039CB18091E30396FB992790F98927B3
:102970008093E4031092DE031092DD031092E103D2
:10298000089580914E02811105C081E080934E022E
:102990000C94821408950E94C114F8948091DF036E
:1029A0009091E0031092E0031092DF037894089571
:1029B0000E94C114F8948091DD039091DE0310927F
:1029C000DE031092DD03789408950E94C114809173
:1029D000E2031092E20308950E94C1148091E10382
:1029E0001092E10308952E98269A2D98259A2A98F8
:1029F000229A2998219A80EA8093800081E180932D
:102A0000810080E991E09093870080938600109286
:102A100089001092880010928B0010928A0008950D
:102A20008091E703811105C081E08093E7030C9456
:102A3000F31408958093E90308958093E8030895BB
:102A4000CF93DF93EC010E941015D7FF05C0D195FD
:102A5000C195D10981E001C080E0C13991E0D90779
:102A600014F0C0E9D1E0D0938B00C0938A0090911C
:102A7000E903891711F02A9A01C02A98229ADF9156
:102A8000CF910895CF93DF93EC010E941015D7FFEB
:102A900005C0D195C195D10981E001C080E0C1395F
:102AA00091E0D90714F0C0E9D1E0D0938900C09338
:102AB00088009091E803891711F0299A01C029989C
:102AC000219ADF91CF910895CF93DF93EB010E947C
:102AD0002015CE01DF91CF910C94421508958530D9
:102AE00008F04CC0E82FF0E0EE0FFF1FE05FFE4F54
:102AF000718360838230E1F018F4813069F004C0A2
:102B0000833019F1843071F1809169008C7F842BBE
:102B100080936900E89A089580916900440F551FD9
:102B2000440F551F837F842B80936900E99A089591
:102B30008091690034E0440F551F3A95E1F78F7C8E
:102B4000842B80936900EA9A08958091690026E0B9
:102B5000440F551F2A95E1F78F73842B80936900EA
:102B6000EB9A089580916A0094E0440F551F9A955E
:102B7000E1F78F7C842B80936A00EE9A08951F9270
:102B80000F920FB60F9211242F933F934F935F93A1
:102B90006F937F938F939F93AF93BF93EF93FF9325
:102BA000E0911001F09111010995FF91EF91BF9112
:102BB000AF919F918F917F916F915F914F913F91D5
:102BC0002F910F900FBE0F901F9018951F920F928C
:102BD0000FB60F9211242F933F934F935F936F93F0
:102BE0007F938F939F93AF93BF93EF93FF93E09166
:102BF0001201F09113010995FF91EF91BF91AF91EF
:102C00009F918F917F916F915F914F913F912F9104
:102C10000F900FBE0F901F9018951F920F920FB636
:102C20000F9211242F933F934F935F936F937F9352
:102C30008F939F93AF93BF93EF93FF93E091140112
:102C4000F09115010995FF91EF91BF91AF919F917F
:102C50008F917F916F915F914F913F912F910F9045
:102C60000FBE0F901F9018951F920F920FB60F92E4
:102C700011242F933F934F935F936F937F938F9381
:102C80009F93AF93BF93EF93FF93E0911601F09161
:102C900017010995FF91EF91BF91AF919F918F918E
:102CA0007F916F915F914F913F912F910F900FBE48
:102CB0000F901F9018951F920F920FB60F9211242C
:102CC0002F933F934F935F936F937F938F939F9334
:102CD000AF93BF93EF93FF93E0911801F091190127
:102CE0000995FF91EF91BF91AF919F918F917F9146
:102CF0006F915F914F913F912F910F900FBE0F9069
:102D00001F9018951F920F920FB60F9211242F93B8
:102D10003F938F939F93AF93BF938091EB039091D9
:102D2000EC03A091ED03B091EE033091EA0323E0B0
:102D3000230F2D3720F40196A11DB11D05C026E8F3
:102D4000230F0296A11DB11D2093EA038093EB038C
:102D50009093EC03A093ED03B093EE038091EF0307
:102D60009091F003A091F103B091F2030196A11D9F
:102D7000B11D8093EF039093F003A093F103B09300
:102D8000F203BF91AF919F918F913F912F910F903F
:102D90000FBE0F901F9018952FB7F8946091EB031A
:102DA0007091EC038091ED039091EE032FBF089595
:102DB0003FB7F8948091EF039091F003A091F10355
:102DC000B091F20326B5A89B05C02F3F19F00196DC
:102DD000A11DB11D3FBF6627782F892F9A2F620F43
:102DE000711D811D911D42E0660F771F881F991F7D
:102DF0004A95D1F708958F929F92AF92BF92CF924A
:102E0000DF92EF92FF926B017C010E94D8164B017A
:102E10005C01C114D104E104F104F1F00E94701FBF
:102E20000E94D816681979098A099B09683E73407F
:102E30008105910570F321E0C21AD108E108F1087B
:102E400088EE880E83E0981EA11CB11CC114D10429
:102E5000E104F10429F7DDCFFF90EF90DF90CF90F0
:102E6000BF90AF909F908F900895789484B58260C2
:102E700084BD84B5816084BD85B5826085BD85B51E
:102E8000816085BDEEE6F0E0808181608083E1E8CD
:102E9000F0E0108280818260808380818160808305
:102EA000E0E8F0E0808181608083E1E9F0E080810A
:102EB00082608083808181608083E0E9F0E08081AE
:102EC00081608083E1ECF0E0808184608083808198
:102ED00082608083808181608083E3ECF0E0808188
:102EE00081608083E0ECF0E0808182608083E2ECAE
:102EF000F0E0808181608083EAE7F0E08081846097
:102F000080838081826080838081816080838081F2
:102F1000806880830895823108F08251E82FF0E0C4
:102F2000E851FF4FE49180917B00E3FB222720F9D9
:102F300030E095E0220F331F9A95E1F78F7D822BC9
:102F400080937B00E77080911A0120E4829FC0018A
:102F50001124E82BE0937C0080917A0080648093B8
:102F60007A0080917A0086FDFCCF809178002091D4
:102F7000790090E0922B089590E0FC013197EF30BA
:102F8000F105B0F5EA5AFF4F0C943623809180008A
:102F90008F7703C0809180008F7D8093800008959B
:102FA00080918000877FF9CF84B58F7702C084B588
:102FB0008F7D84BD0895809190008F7707C08091A8
:102FC00090008F7D03C080919000877F8093900058
:102FD00008958091C0008F7703C08091C0008F7DDD
:102FE0008093C00008958091C200877F8093C200C3
:102FF00008950F931F93CF93DF931F92CDB7DEB742
:10300000282F30E0F901EC50FF4F8491F901ED5E7B
:10301000FE4F1491F901EE5CFE4F04910023C9F0BC
:10302000882321F069830E94BC176981E02FF0E0BA
:10303000EE0FFF1FEF5AFE4FA591B4919FB7F89482
:103040008C91611103C01095812301C0812B8C9359
:103050009FBF0F90DF91CF911F910F9108950E9414
:103060005623CF93DF931F92CDB7DEB76983DC0180
:10307000ED91FC910280F381E02D41E050E0BE0132
:103080006F5F7F4F09950F90DF91CF910895CF9398
:10309000DF93EC018C859D8597FF05C082E00E943F
:1030A000321C9D878C878C859D85DF91CF910895FB
:1030B00083E00C94C61EFC018485958597FD06C0AF
:1030C00082E00E94DA1B90E00196089582E00E945F
:1030D000DA1B90E00895FC018485958597FD05C075
:1030E0002FEF3FEF35872487089582E00C94321C40
:1030F000CF93DF93EC0180912601882331F083E0A8
:103100000E94631C1816190634F081E090E09B833E
:103110008A8380E090E0DF91CF910895FC012081C7
:103120002E5F208342E450E06FE571E080E80C946C
:10313000FE1CFC0121818081813A59F4213209F081
:103140004BC047E050E06FE171E080E00E94FE1C60
:103150005EC0813209F040C0233289F4838190E05F
:10316000982F88273281832BA0E0B0E080931B0149
:1031700090931C01A0931D01B0931E010FC020323B
:1031800039F467E070E08FE191E00E942F1D09C0E3
:10319000223221F482818093260103C02D7F2032C8
:1031A000B1F580914304811103C0E0E0F8E002C072
:1031B000EEEFFAE080911F0190912001A091210192
:1031C000B0912201803B9440A105B10511F5809199
:1031D000260180FF03C01DC080E00895EE3F2AE075
:1031E000F20731F0808191819093FF0A8093FE0A6B
:1031F00087E797E7918380832BE088E190E00FB623
:10320000F894A895809360000FBE2093600081E041
:10321000089588E10FB6F8948093600010926000E2
:103220000FBEA895EE3F8AE0F80739F08091FE0ABC
:103230009091FF0A91838083EACF1092FF0A109247
:10324000FE0AE5CF2FEF3FEFFC0135872487089575
:10325000CF93C09126016AE070E080E090E00E9488
:10326000FB1681E0C11101C080E0CF91089510925A
:10327000F6031092F50388EE93E0A0E0B0E08093AF
:10328000F7039093F803A093F903B093FA0383E351
:1032900092E09093F4038093F3038FEF9FEF90936A
:1032A00000048093FF03089508950E9435170E943B
:1032B000541984E494E00E94531F0E94BF06C0E0AA
:1032C000D0E00E9428072097E1F30E940000F9CF88
:1032D0006115710581F0DB010D900020E9F7AD016A
:1032E00041505109461B570BDC01ED91FC910280C6
:1032F000F381E02D099480E090E008950C94681922
:10330000DC01ED91FC910190F081E02D09948F9208
:103310009F92AF92BF92DF92EF92FF920F931F9313
:10332000CF93DF93CDB7DEB7A1970FB6F894DEBF8A
:103330000FBECDBF7C01F42FD52ECB0119A22230B8
:1033400008F42AE08E010F5D1F4F822E912CA12CD4
:10335000B12C6F2F7D2DA50194010E94F522F22F33
:10336000D32ECA01015011096A3014F4E0E301C000
:10337000E7E3E60FD801EC93232B242B252B49F709
:10338000B801C7010E946819A1960FB6F894DEBF74
:103390000FBECDBFDF91CF911F910F91FF90EF90A6
:1033A000DF90BF90AF909F908F900895CF92DF9263
:1033B000EF92FF920F931F93CF93DF93EC016A017B
:1033C0007B012115310579F4E881F9810190F081C3
:1033D000E02D642FDF91CF911F910F91FF90EF901F
:1033E000DF90CF9009942A303105E9F477FF1AC0B5
:1033F0006DE20E9480198C0144275527BA014C19AF
:103400005D096E097F092AE0CE010E948719800FAD
:10341000911FDF91CF911F910F91FF90EF90DF905F
:10342000CF9008952AE0B701A601CE01DF91CF9198
:103430001F910F91FF90EF90DF90CF900C94871920
:103440002115310541F4DC01ED91FC910190F081F1
:10345000E02D642F09940C9487199A01462F50E0AF
:1034600060E070E00C94201A4F925F926F927F920E
:103470008F929F92AF92BF92CF92DF92EF92FF9284
:103480000F931F93CF93DF93EC016A017B01B22E60
:103490009A01AB01C701B6010E948E22882319F060
:1034A0006FE372E027C026013701E89477F82FEF29
:1034B0003FEF4FE75FE7C301B2010E948E22811107
:1034C0000DC02FEF3FEF4FE75FE7C301B2010E944E
:1034D000712018161CF463E472E00CC02FEF3FEF6C
:1034E0004FE75FE4C701B6010E9421221816ACF431
:1034F00067E472E0CE01DF91CF911F910F91FF90B1
:10350000EF90DF90CF90BF90AF909F908F907F9083
:103510006F905F904F900C9468192FEF3FEF4FE73B
:103520005FECC701B6010E94712087FDE1CF20E06A
:1035300030E0A901C701B6010E94712087FF0AC0CF
:103540006DE2CE010E9480198C01F7FAF094F7F831
:10355000F09402C000E010E0A12C60E070E080E098
:103560009FE3AB1441F020E030E040E251E40E94E0
:103570007820A394F6CF9B01AC01C701B6010E944D
:103580000D206B017C010E94E5202B013C010E9473
:1035900011219B01AC01C701B6010E940C206B01F7
:1035A0007C012AE0B301A201CE010E948719080F15
:1035B000191FBB2039F06BE472E0CE010E9468193C
:1035C000080F191F7B2C772041F120E030E040E20A
:1035D00051E4C701B6010E9425226B017C010E94C3
:1035E000E0204B01AA2497FCA094BA2C2AE030E0FA
:1035F000B501A401CE010E94D619080F191FC501FB
:10360000B4010E9413219B01AC01C701B6010E94C5
:103610000C206B017C017A94D6CFC801DF91CF9149
:103620001F910F91FF90EF90DF90CF90BF90AF90E0
:103630009F908F907F906F905F904F9008950C9423
:10364000341A615030F02091F100FC012083019682
:10365000F8CF289884E680934D040895409148045B
:103660005091490420914604309147044217530772
:10367000B4F49091E8009570E1F39091E80092FD28
:1036800019C08093F10080914804909149040196FB
:103690008F739927892B19F48EEF8093E80080911E
:1036A00048049091490401969093490480934804FA
:1036B00081E0089580E00895CF92DF92EF92FF922B
:1036C0000F931F93CF93DF931F92CDB7DEB7082FD1
:1036D000162FF42E862F880F8E5F99830E942E1B43
:1036E00083E00E942E1BE02EC02E9981D92E8C2DB6
:1036F0008E19811798F4F601F7FE02C0849101C07B
:1037000080810E942E1B082F80E00E942E1B8023A8
:10371000FFEFCF1ADF0A8111EACF01C081E00F90DD
:10372000DF91CF911F910F91FF90EF90DF90CF909D
:1037300008958091D70081608093D70080EA8093BC
:10374000D80089B5806189BD89B5826089BD09B419
:1037500000FEFDCF61E070E080E090E00E94FB168B
:103760008091D8008F7C80618093D8008091E000A8
:10377000807F8093E0000895CF93DF931F92CDB7B1
:10378000DEB71982CE0101960E948E180E94F81FA2
:10379000BE016F5F7F4F0E94711F89810F90DF9183
:1037A000CF9108952FB7FC012083F8946770609340
:1037B000E9000895CF93DF931F92CDB7DEB7682F4E
:1037C000CE0101960E94D21B8091F20099819FBF89
:1037D0000F90DF91CF910895FF920F931F93CF9396
:1037E000DF9300D0CDB7DEB7F62E8A0190914C045E
:1037F000992311F057FF03C08FEF9FEF2BC0682F65
:10380000CE0101967A830E94D21B8091F20090E053
:10381000A8017A81801791070CF4AC01EF2DF72FE6
:10382000F40E84E6FE1639F0289880934D049091AA
:10383000F1009193F7CF4115510521F08091F200ED
:10384000882321F089818FBFCA0104C08BE6809351
:10385000E800F8CF0F900F90DF91CF911F910F915B
:10386000FF900895CF93DF931F92CDB7DEB741E06D
:1038700050E0BE016F5F7F4F0E94EC1B019719F46F
:10388000898190E002C08FEF9FEF0F90DF91CF9181
:103890000895CF93DF931F92CDB7DEB7682FCE0187
:1038A00001960E94D21B9091E800892F807295FFAB
:1038B00004C09091F20080E4891B99819FBF0F9012
:1038C000DF91CF9108956F927F928F929F92AF92E6
:1038D000BF92CF92DF92EF92FF920F931F93CF93FD
:1038E000DF931F92CDB7DEB7782E7B01C42EB52EA5
:1038F00080914C04882369F0042F152F8AEFD82E6D
:10390000872D8072982E9AE3A92E872D8074882E99
:1039100011C08FEF9FEF57C0872D0E94491C682E62
:1039200081110CC0DA94A9F361E070E080E090E0CE
:103930000E94FB160115110579F73BC0282F30E0D6
:10394000021713070CF4602E672DCE0101960E941A
:10395000D21B8091E80085FF29C0262D30E0021B94
:10396000130B992039F06A948FEF6816B1F010921A
:10397000F100F9CFF701862D77FE07C0815058F08E
:1039800094919093F1003196F9CF815020F091916C
:103990009093F100FACFE20EF31E8091E80085FFCC
:1039A0000FC00115110511F481100AC089818FBF64
:1039B000C1CF5D9884E680934E048C2D9B2D03C06F
:1039C000A092E800F3CF0F90DF91CF911F910F915C
:1039D000FF90EF90DF90CF90BF90AF909F908F902F
:1039E0007F906F9008951092E90010924904109210
:1039F000480490934704809346040895CF92DF9241
:103A0000FF920F931F93CF93DF9300D0CDB7DEB714
:103A1000F82E8A016B0101151105B1F0F601F7FED0
:103A200002C0849101C0808149835A830E942E1B69
:103A300001501109FFEFCF1ADF0A49815A81811124
:103A4000EACF8FEF9FEF01C0CA010F900F90DF9177
:103A5000CF911F910F91FF90DF90CF900895BF926B
:103A6000CF92DF92EF92FF920F931F93CF93DF934A
:103A70006C018B01EB013BEFB32E2097C1F07E016F
:103A8000C134D1051CF020E4E22EF12C8091E80035
:103A900082FFFCCFC8018C1B9D0B6E2D8C0D9D1DD4
:103AA0000E94211BB092E800CE19DF09E6CFC801C1
:103AB000DF91CF911F910F91FF90EF90DF90CF900A
:103AC000BF9008951F920F920FB60F921124DF92AC
:103AD000EF92FF920F931F932F933F934F935F9318
:103AE0006F937F938F939F93AF93BF93EF93FF93C6
:103AF000CF93DF93CDB7DEB76C97DEBFCDBF10920B
:103B0000E9008091E80083FF23C168E0CE0145967B
:103B10000E94211B82EF8093E8003D8937FF05C09A
:103B20008091E80080FFFCCF03C08EEF8093E80017
:103B3000832F807609F0F0C02E894F89D88C21110F
:103B40000CC0303829F480914B048093F10002C0FE
:103B50001092F1001092F100F4C0842F90E09D29A2
:103B6000213049F43111EDC0019709F0EAC080918C
:103B70004B048D7F0AC0233059F43111E2C0019704
:103B800009F0DFC080914B04826080934B04D9C060
:103B9000253041F48091E80080FFFCCF40684093DD
:103BA000E300CFC0263009F08DC0EB8CFC8C22E006
:103BB000D2122CC080E090E00E94F31C0E94BC1B3B
:103BC00099E08E010F5F1F4FF801292F11922A955E
:103BD000E9F79983DA8291E09E8390EA98879AEFD9
:103BE00099872091480430914904275F3F4F3C83D7
:103BF0002B838D83C7010E94F31C49E050E0B8017C
:103C000080E00E94FE1C0E94BC1B9BC0C7010E945A
:103C1000F31C0E94F81FBE016B5E7F4F0E949A1F2B
:103C2000009719F00CF08DC090C081E0D8120EC042
:103C30008B8D9C8D089719F481E0809345048091C9
:103C4000450481112FC063EB71E031C0E3E0DE1267
:103C50007CC08F89882349F1823029F440E862E1F1
:103C600088ED91E01CC0813029F440E862E185ECE8
:103C700091E015C0833009F068C00E94F81F8E01E2
:103C80000F5F1F4FB8010E94B91FF801019000207B
:103C9000E9F73197E01BF10B40E06E2FC8010E945D
:103CA0005C1B4DC061EA71E002C06BEE71E0611512
:103CB000710509F44AC0FB01449150E080E80E947C
:103CC000FE1C3FC0273009F440C0283021F481E0B9
:103CD0008093F10036C02930A1F53370B1F5E8E2E8
:103CE000F1E081E021E036E39081992361F0809357
:103CF000E9002093EB0091919093EC003093ED005C
:103D00008F5F873089F78EE78093EA001092EA0090
:103D10008F8980934C0415C08B8D9C8D0E94F31C61
:103D2000898D811105C0CE0145960E94991807C062
:103D30000E94F81FBE016B5E7F4F0E94D81F882330
:103D400021F08EEF8093E80003C081E28093EB00C6
:103D50006C960FB6F894DEBF0FBECDBFDF91CF914A
:103D6000FF91EF91BF91AF919F918F917F916F9153
:103D70005F914F913F912F911F910F91FF90EF9085
:103D8000DF900F900FBE0F901F9018958093E90061
:103D90008091F200882319F08AE38093E800089567
:103DA0001F920F920FB60F9211242F933F934F93B0
:103DB0005F936F937F938F939F93AF93BF93CF93B3
:103DC000EF93FF93C091E1008091E100837F8093A6
:103DD000E1008093E100C3FF0FC01092E90081E091
:103DE0008093EB001092EC0082E38093ED00109240
:103DF0004C0488E08093F000C2FF19C083E00E9469
:103E0000C61E80914E04882339F080914E04815063
:103E100080934E04882389F180914D04882339F0E2
:103E200080914D04815080934D04882341F1C4FF5B
:103E300010C08091E2008E7E81608093E2008091CC
:103E4000E1008F7E8093E10080914A048E7E806144
:103E500011C0C0FF16C08091E2008E7E8061809309
:103E6000E2008091E1008E7E8093E10080914A041F
:103E70008E7E816080934A0404C05D9ACDCF289ADB
:103E8000D6CFFF91EF91CF91BF91AF919F918F913D
:103E90007F916F915F914F913F912F910F900FBE46
:103EA0000F901F90189510924C0410924B04109292
:103EB0004A040E94991B8091E1008E7E8093E1006C
:103EC0008DE08093E200559A209AEEEFFFE785910E
:103ED00094918B3F9C4D19F481E0809343040895A5
:103EE0000895EF92FF920F931F93CF93DF937B017F
:103EF000FC01C281D38100E010E0209781F0E881CD
:103F0000F9810280F381E02DB701CE01099597FD7B
:103F100008C0080F191F0884D985C02DEECFC8012D
:103F200002C08FEF9FEFDF91CF911F910F91FF9014
:103F3000EF9008950F931F93CF93DF938B01FC01B4
:103F4000C281D381209771F0E881F9810480F581E5
:103F5000E02DB801CE010995009731F40884D98588
:103F6000C02DF0CF80E090E0DF91CF911F910F91B5
:103F700008950F931F93CF93DF938B01FC01C281B0
:103F8000D381209771F0E881F9810680F781E02DD7
:103F9000B801CE010995080F111D0884D985C02DDF
:103FA000F0CFF8011082DF91CF911F910F9108950A
:103FB0000F931F93CF93DF938B01FC01C281D381B9
:103FC000209771F0E881F9810190F081E02DB8012E
:103FD000CE010995811106C00884D985C02DF0CF86
:103FE00080E001C081E0DF91CF911F910F91089592
:103FF0008091530481110DC082E080934F0484E0CE
:1040000080935004109252041092510481E08093E6
:1040100053048FE494E008955058BB27AA270ED08C
:10402000C5C18ED130F093D120F031F49F3F11F40F
:104030001EF45EC10EF4E095E7FB54C1E92FD8D120
:1040400080F3BA17620773078407950718F071F4B5
:104050009EF5F0C10EF4E0950B2EBA2FA02D0B01AA
:10406000B90190010C01CA01A0011124FF27591BBD
:1040700099F0593F50F4503E68F11A16F040A22FC3
:10408000232F342F4427585FF3CF46953795279534
:10409000A795F0405395C9F77EF41F16BA0B620B33
:1040A000730B840BBAF09150A1F0FF0FBB1F661F7A
:1040B000771F881FC2F70EC0BA0F621F731F841FBD
:1040C00048F4879577956795B795F7959E3F08F0E3
:1040D000B3CF9395880F08F09927EE0F97958795A2
:1040E0000895DCD008F481E0089539D1E3956FC1DB
:1040F0000CD05CC12CD140F023D130F021F45F3FD3
:1041000019F0F0C0511197C1F3C072D198F39923FF
:10411000C9F35523B1F3951B550BBB27AA2762178B
:104120007307840738F09F5F5F4F220F331F441FD0
:10413000AA1FA9F333D00E2E3AF0E0E830D0915008
:104140005040E695001CCAF729D0FE2F27D0660FF5
:10415000771F881FBB1F261737074807AB07B0E834
:1041600009F0BB0B802DBF01FF2793585F4F2AF04A
:104170009E3F510568F0B6C05EC15F3FECF3983ECC
:10418000DCF3869577956795B795F7959F5FC9F7A7
:10419000880F911D9695879597F90895E1E0660F30
:1041A000771F881FBB1F621773078407BA0720F0A9
:1041B000621B730B840BBA0BEE1F88F7E095089512
:1041C00004D06894B11137C108951AD188F09F576F
:1041D00090F0B92F9927B751A0F0D1F0660F771F53
:1041E000881F991F1AF0BA95C9F712C0B13081F033
:1041F00021D1B1E008951EC1672F782F8827B85FBD
:1042000039F0B93FCCF3869577956795B395D9F793
:104210003EF490958095709561957F4F8F4F9F4F9D
:104220000895E89409C097FB3EF4909580957095A9
:1042300061957F4F8F4F9F4F9923A9F0F92F96E9F2
:10424000BB279395F695879577956795B795F11167
:10425000F8CFFAF4BB0F11F460FF1BC06F5F7F4F04
:104260008F4F9F4F16C0882311F096E911C0772316
:1042700021F09EE8872F762F05C0662371F096E81F
:10428000862F70E060E02AF09A95660F771F881FEE
:10429000DAF7880F9695879597F90895990F000892
:1042A000550FAA0BE0E8FEEF16161706E807F90708
:1042B000C0F012161306E407F50798F0621B730BA3
:1042C000840B950B39F40A2661F0232B242B252B24
:1042D00021F408950A2609F4A140A6958FEF811DC7
:1042E000811D089597F99F6780E870E060E0089568
:1042F0009FEF80EC0895DF93CF931F930F93FF926E
:10430000EF92DF927B018C01689405C0DA2EEF01F9
:10431000A8D0FE01E894A59125913591459155913C
:10432000AEF3EF018BDEFE019701A801DA9479F775
:10433000DF90EF90FF900F911F91CF91DF91089543
:1043400000240A9416161706180609060895002474
:104350000A9412161306140605060895C9CF50D004
:10436000E8F3E894E0E0BB279F57F0F02AED3FE048
:1043700049EC06C0EE0FBB0F661F771F881F28F0A1
:10438000B23A62077307840728F0B25A620B730BC4
:10439000840BE3959A9572F7803830F49A95BB0FA9
:1043A000661F771F881FD2F79048BEC0092E03945E
:1043B000000C11F4882352F0BB0F40F4BF2B11F412
:1043C00060FF04C06F5F7F4F8F4F9F4F0895EF9343
:1043D000E0FF06C0A2EA2AED3FE049EC5FEB2EDEEB
:1043E000E5DF0F90039401FC9058EAECF0E0A8C0E0
:1043F00057FD9058440F551F59F05F3F71F0479596
:10440000880F97FB991F61F09F3F79F0879508957A
:10441000121613061406551FF2CF4695F1DF08C099
:10442000161617061806991FF1CF869571056105B6
:1044300008940895E894BB2766277727CB0197F95E
:1044400008952CDF08F48FEF08950BD0AFCF78DFFD
:1044500028F07DDF18F0952309F044CF49CF1124CF
:10446000EACFC6DFA0F3959FD1F3950F50E0551F1B
:10447000629FF001729FBB27F00DB11D639FAA27B9
:10448000F00DB11DAA1F649F6627B00DA11D661F08
:10449000829F2227B00DA11D621F739FB00DA11D29
:1044A000621F839FA00D611D221F749F3327A00DE3
:1044B000611D231F849F600D211D822F762F6A2F7F
:1044C00011249F5750408AF0E1F088234AF0EE0F04
:1044D000FF1FBB1F661F771F881F91505040A9F711
:1044E0009E3F510570F0FECEA6CF5F3FECF3983EA5
:1044F000DCF3869577956795B795F795E7959F5F78
:10450000C1F7FE2B880F911D9695879597F9089511
:104510009F9325DF0F9007FCEE5F59CFBFDE880B1E
:10452000990B08959F3F31F0915020F4879577952E
:104530006795B795880F911D9695879597F908957A
:104540009F938F937F936F93FF93EF939B01AC01A6
:104550007CDFEF91FF91CFDE2F913F914F915F91E3
:1045600074CFDB018F939F930E944B23BF91AF9138
:10457000A29F800D911DA39F900DB29F900D1124BD
:104580000895991B79E004C0991F961708F0961BAF
:10459000881F7A95C9F780950895AA1BBB1B51E126
:1045A00007C0AA1FBB1FA617B70710F0A61BB70BA3
:1045B000881F991F5A95A9F780959095BC01CD0148
:1045C000089597FB072E16F4009407D077FD09D0C5
:1045D0000E94CD2207FC05D03EF4909581959F4F17
:1045E0000895709561957F4F0895A1E21A2EAA1B38
:1045F000BB1BFD010DC0AA1FBB1FEE1FFF1FA21793
:10460000B307E407F50720F0A21BB30BE40BF50B8F
:10461000661F771F881F991F1A9469F76095709518
:10462000809590959B01AC01BD01CF010895052EA9
:1046300097FB1EF400940E942E2357FD07D00E9482
:10464000F52207FC03D04EF40C942E235095409590
:10465000309521953F4F4F4F5F4F0895909580952E
:10466000709561957F4F8F4F9F4F0895EE0FFF1FFD
:104670000590F491E02D0994A29FB001B39FC00171
:10468000A39F700D811D1124911DB29F700D811D7E
:104690001124911D08950E943C23A59F900DB49F65
:1046A000900DA49F800D911D1124089581E090E04C
:0A46B000F8940C945B23F894FFCFFC
:1046BA0000005B0480000F00F4010400D00704012D
:1046CA006E156E156E156E156E1501FFFFFFFF0054
:1046DA00E100000000000000C180810000000180AC
:1046EA0001800180FF7FFF7FFF7F564D4450455F69
:1046FA0031007C005F564D4450450D0A00564D442A
:10470A0050455F3800564D4450455F3200564D447F
:10471A0050455F3300564D4450455F3700564D446F
:10472A0050455F3500564D4450455F3600564D445E
:10473A0050455F3400564D4450565F317C315F56C8
:10474A004D4450560D0A0000000000E613EB1325F5
:10475A00016E07000000005C082F0804080C081FFF
:10476A00082E08564D4450435F005F564D4450434F
:10477A000D0A004572726F723A20417474656D7049
:10478A007420746F20736574206120726561642DD2
:10479A006F6E6C79207661726961626C65206F72E6
:1047AA0020646174612074797065206E6F7420735F
:1047BA007570706F727465640D0A009C01B501CF43
:1047CA0001EA0107022602470269028E02B502DEE9
:1047DA00020A0300000000E613EB132F182F18003B
:1047EA00000000311878185B186B18471858186EB3
:0E47FA00616E00696E66006F7666002E00002C
:00000001FF
