:100000000C940D010C9470150C9497150C94BE155E
:100010000C94E5150C9435010C9435010C940C16D8
:100020000C9435010C948B0E0C944E1E0C94E01C19
:100030000C9435010C9435010C9435010C94350168
:100040000C9435010C9435010C9435010C94350158
:100050000C9435010C9435010C9435010C94331635
:100060000C9435010C9435010C9435010C94350138
:100070000C9435010C9435010C9435010C94350128
:100080000C9435010C9435010C9435010C94350118
:100090000C94FC030C9435010C9435010C9435013F
:1000A0000C9435010C94100E0C943501541757170D
:1000B00046174A1750177817781778175B175F1786
:1000C000631769176D1778177317084AD73B3BCE2C
:1000D000016E84BCBFFDC12F3D6C74319ABD568347
:1000E0003DDA3D00C77F11BED9E4BB4C3E916BAAFF
:1000F000AABE000000803F05A84CCDB2D44EB9384E
:1001000036A9020C50B9918688083CA6AAAA2ABE34
:10011000000000803F000000000200090F00000303
:100120000401000C000000000000000000000000BE
:100130000000000000040802011040804010204030
:1001400080408008020401804020100201108010CD
:1001500020404020040404040403040502020202B7
:100160000403020202020606060606060404020250
:1001700002040400000000250028002B002E00319E
:1001800000080B0002020201000904000001020243
:1001900000000524001001052401010104240206C9
:1001A0000524060001070581031000400904010031
:1001B000020A000000070502024000000705830252
:1001C00040000012010002EF020140FB1F0023006B
:1001D00001010203011201000200000040FB1F00A8
:1001E00023000101020301506F6C6F6C7520436F97
:1001F00072706F726174696F6E00506F6C6F6C75A6
:1002000020412D53746172203332553400040309A8
:10021000040099011203E714B51811241FBECFEF93
:10022000DAE0DEBFCDBF12E0A0E0B1E0ECE5F6E43D
:1002300002C005900D92AE30B107D9F725E0AEE0CF
:10024000B2E001C01D92AE33B207E1F712E0CAE19D
:10025000D2E004C02297FE010E940E23C231D107D2
:10026000C9F70E94D3180C942C230C94000040ED85
:1002700057E060E070E085EB93E00E949B0520E88A
:1002800035E240E050E066ED74E085EB93E00E94DB
:10029000540585EB93E00E9451056BE371E080917A
:1002A000E6039091E7030E94FC186AE070E080E0AA
:1002B00090E00E94AC1641E060E085EB93E00E9484
:1002C0000D0640E855E260E070E086ED94E00E94A3
:1002D000A01861E089ED92E00E948A0F61E089ED4B
:1002E00092E00E94870F8EE092E00C948D0F60E008
:1002F00070E089ED92E00E94610F60E070E089EDAE
:1003000092E00E943B0F60910601709107018EE020
:1003100092E00E9499138EE092E00E94E3148EE036
:1003200092E00E94DF1466E970E080E090E00C94B7
:10033000AC162998219A2D98259A2A98229A2E98B7
:10034000269A80EA8093800081E18093810080E991
:1003500091E090938700809386001092890010921C
:10036000880010928B0010928A0089EC96E7A6E52F
:10037000B0E480930E0290930F02A0931002B0930A
:10038000110280E695EEA0E3BFE380931202909302
:100390001302A0931402B093150284E19EE6A3E633
:1003A000B4E48093160290931702A0931802B093BE
:1003B00019028DE09FEEAAE8B0E480931A029093B0
:1003C0001B02A0931C02B0931D0286E992E00E94DA
:1003D000280683EA92E00C94B0078091250390E010
:1003E00020912603821B9109089520912603809174
:1003F0002503281750F4E22FF0E0E95DFC4F8081DF
:1004000090E02F5F2093260308958FEF9FEF0895CC
:10041000E091260380912503E81730F4F0E0E95DD0
:10042000FC4F808190E008958FEF9FEF089508952D
:10043000CF92DF92EF92FF920F931F93CF93DF93B0
:100440007C01CB018A0120910103222389F0EB0179
:100450006B01C40ED51ECC15DD0569F06991D7017D
:10046000ED91FC910190F081E02DC7010995F3CF4A
:10047000642F0E94D303C801DF91CF911F910F9188
:10048000FF90EF90DF90CF900895CF93DF931F926E
:10049000CDB7DEB76983209101032223D1F02091EB
:1004A0000203203240F021E030E0FC01338322835C
:1004B00080E090E015C080910303E82FF0E0EC5F4E
:1004C000FC4F998190838F5F809303038093020395
:1004D00005C061E0CE0101960E94D30381E090E067
:1004E0000F90DF91CF910895FC011382128248EEA4
:1004F00053E060E070E0448355836683778381E551
:1005000091E0918380830895109226031092250331
:1005100010920303109202030C94160381E080935F
:1005200001036093240310920303109202030895C1
:100530000F93062F21E04091020364E073E0809165
:1005400024030E947C031092030310920203109272
:1005500001030F9108958F929F92AF92BF92CF9215
:10056000DF92EF92FF920F931F93CF93DF93EC01F3
:10057000F62ED42E48015901EE2019F10E948E0268
:100580001E2D143008F013E01150B8F0E881F98105
:1005900028E0129FB0011124A501940104C05695D2
:1005A0004795379527956A95D2F7CA01B901019009
:1005B000F081E02DCE010995E7CF60E0CE010E94E9
:1005C00098024D2D413208F040E22C2D67E273E095
:1005D0008F2D0E9434031092260380932503DF9110
:1005E000CF911F910F91FF90EF90DF90CF90BF9030
:1005F000AF909F908F900895CF92EF920F931F939B
:10060000C22EE12C00E010E098010E94AB021F9185
:100610000F91EF90CF90089521E00C94FC0261E0DF
:100620000C94980285EF92E00C9474021092B4033B
:1006300081E08093B2031092B10361E082E00E94F6
:10064000791761E083E00E947917E9EBF0E080819F
:100650008E7F808380818D7F808388E48093B80043
:1006600085E48093BC000895413208F043C0909126
:10067000B4039111FCCF91E09093B4032093B203A3
:100680002FEF2093470310928C03240F20938B03AA
:100690009093B3039091B303880F892B8093B30396
:1006A0008091B103813061F41092B1038091B30362
:1006B0008093BB008091BC0083FDF8CF85EC01C026
:1006C00085EE8093BC008091B4038130E1F380918A
:1006D0008C03841710F440918C032DE833E0FB0168
:1006E000D9018A2F821B841718F48D918193F9CF39
:1006F000842F089580E008950F93413208F04AC096
:100700009091B4039111FCCF92E09093B4030093C5
:10071000B2039FEF9093470310928C0340938B0397
:10072000FB016DE873E0DB019A2F961B941718F418
:1007300091919D93F9CF1092B3039091B303880FD9
:10074000892B8093B3038091B103813061F41092BF
:10075000B1038091B3038093BB008091BC0083FD03
:10076000F8CF85EC01C085EE8093BC00222321F0F8
:100770008091B4038230E1F3809147038F3F61F0B1
:1007800080914703803251F080914703803341F4D8
:1007900083E007C081E005C080E003C082E001C0C3
:1007A00084E00F910895613298F42091B4032430CD
:1007B00089F460936903FC018BE693E0DC012A2F46
:1007C000281B261718F421912D93F9CF80E0089566
:1007D00081E0089582E0089585ED8093BC008091CA
:1007E000BC0084FDFCCF1092B403089585EC809387
:1007F000BC001092B40308951F920F920FB60F928F
:1008000011242F933F934F935F936F937F938F9315
:100810009F93AF93BF93EF93FF938091B900887F2D
:10082000803609F49EC078F5883209F45DC090F4F2
:10083000803109F456C038F4882309F4F5C08830B3
:1008400009F44FC0F5C0883109F44EC0803209F474
:100850005FC0EEC0803409F46AC058F4803309F4F4
:1008600057C0883309F0E4C0809347030E94F60321
:10087000DFC0803509F44FC0883509F45DC0883485
:1008800009F0D6C0D3C0883909F4C4C0A8F48837A9
:1008900009F467C038F4883609F463C0803709F476
:1008A00060C0C6C0883809F4B5C0803909F45FC09B
:1008B000803809F0BDC05BC0803B09F483C038F4C8
:1008C000803A09F466C0883A09F47CC0B1C0803C23
:1008D00009F4A4C0883C09F4A1C0883B09F487C08E
:1008E000A7C08091B30310C090918C0380918B03BB
:1008F000981770F5E0918C0381E08E0F80938C0344
:10090000F0E0E357FC4F80818093BB0085EC83C00F
:10091000809347038BC0E0918C0381E08E0F80931E
:100920008C038091BB00F0E0E357FC4F80839091F3
:100930008C0380918B036BC0E0918C0381E08E0F60
:1009400080938C038091BB00F0E0E357FC4F8083E1
:100950008091B20381116AC081E08093B10384EA7F
:100960005EC083E08093B40310924803CFCF8091A0
:100970004803803208F04EC0E091480381E08E0FBA
:10098000809348038091BB00F0E0E75BFC4F8083DD
:10099000BDCF0E94F60380914803803230F4E0918D
:1009A0004803F0E0E75BFC4F10826091480370E081
:1009B000E091AD03F091AE0389E493E009951092C4
:1009C000480336C084E08093B40310926A03109207
:1009D0006903E091AF03F091B00309958091690339
:1009E000811105C081E08093690310926B03E0914F
:1009F0006A0381E08E0F80936A03F0E0E559FC4FB3
:100A000080818093BB0090916A038091690398175D
:100A100008F47CCF85E88093BC000AC085EC809305
:100A2000BC001092B40304C0109247030E94EC0370
:100A3000FF91EF91BF91AF919F918F917F916F91B6
:100A40005F914F913F912F910F900FBE0F901F908C
:100A500018950F931F93CF93DF93EC01662359F002
:100A60000E947D1669837A838B839C83DF91CF916B
:100A70001F910F9108950E947D1609811A812B8183
:100A80003C81601B710B820B930B613271058105F8
:100A9000910530F763E070E080E090E00E94AC16D2
:100AA000EACF60E00C942905CF92DF92EF92FF929B
:100AB0000F931F93CF93DF9300D000D0CDB7DEB755
:100AC0008C017B01FC0172AB61AB8BE1C82ED12C98
:100AD000C70129833A834B835C830E94A61829812E
:100AE0003A814B815C81811113C0F1E0CF1AD108AA
:100AF00079F064E670E080E090E029833A834B83EC
:100B00005C830E94AC165C814B813A812981E0CFE5
:100B1000BA01A901F80181A992A90F900F900F9035
:100B20000F90DF91CF911F910F91FF90EF90DF9089
:100B3000CF900C94A018FC0113AA14AA15AA16AA07
:100B400011821282138214824115510561057105CB
:100B500021F0CB01BA010C94AC1608951F93CF93EA
:100B6000DF93EC01162F6DE571E089A99AA90E9427
:100B7000FC184AE050E0612F89A99AA90E94AB199C
:100B800064E671E089A99AA90E94FC1862E370E00A
:100B900080E090E0DF91CF911F910C94AC161F93F1
:100BA000CF93DF93EC01162F8D81882389F189A9DA
:100BB0009AA9DC01ED91FC910480F581E02D099565
:100BC000892BA9F307C02637310519F128353105DE
:100BD00009F41D8289A99AA9DC01ED91FC91048098
:100BE000F581E02D09951816190694F489A99AA99A
:100BF000DC01ED91FC910680F781E02D09959C01C7
:100C0000332723363105F9F6612FCE010E94AE0558
:100C100083E6DF91CF911F9108950F931F93CF9398
:100C2000DF931F92CDB7DEB78C01662349F081E0D8
:100C3000F801858360E0C80149830E94CF0549819E
:100C4000F80145830F90DF91CF911F910F91089587
:100C5000FC0183E090E090878783138612861486D8
:100C60000895EF92FF921F93CF93DF931F92CDB71A
:100C7000DEB77C01162FFC01618585EF92E0498388
:100C80000E948E02612F85EF92E00E944502498109
:100C9000642F85EF92E00E94450285EF92E00E946A
:100CA0000F03F70186830F90DF91CF911F91FF9083
:100CB000EF900895CF93DF93EC018F819885029791
:100CC00029F440E069E3CE010E94310640E063E28E
:100CD000CE010E9431064FE660E2CE01DF91CF9156
:100CE0000C9431069F92AF92BF92CF92DF92EF9217
:100CF000FF920F931F93CF93DF93EC01698585EFEC
:100D000092E00E948E02E091F502F091F6020190CD
:100D1000F081E02D68EA85EF92E0099585EF92E099
:100D20000E940F0346E0698585EF92E00E940C0364
:100D30000E947D167B0185EF92E00E94ED010697EF
:100D400084F48A859B85892BB1F30E947D166E19E8
:100D50007F098A859B858617970768F781E08C87CE
:100D60002CC085EF92E00E94F501A82E85EF92E05D
:100D70000E94F501982E85EF92E00E94F501E82E81
:100D800085EF92E00E94F501B82E85EF92E00E9477
:100D9000F501F82E85EF92E00E94F501D92CC12CC7
:100DA000CA28D982C8821B2D00E00E291B830A8322
:100DB000982F88278F299D838C83DF91CF911F9156
:100DC0000F91FF90EF90DF90CF90BF90AF909F90EA
:100DD00008951F93CF93DF931F92CDB7DEB7162FE1
:100DE00085EF92E049830E948E024981642F85EF4E
:100DF00092E00E94450285EF92E00E940F0381116C
:100E000014C041E0612F85EF92E00E940C0385EF52
:100E100092E00E94ED01892B41F085EF92E00F9066
:100E2000DF91CF911F910C94F5018FEF9FEF0F9001
:100E3000DF91CF911F910895EF92FF920F931F932F
:100E4000CF93DF937C01EB018A016330710521F0C0
:100E50004230510509F051C0CE010197039758F572
:100E60000115110581F04FE050E06BE6C7010E94CB
:100E7000E9068F3F2FEF920719F001E010E013C051
:100E80000130110551F04FE050E06AE6C7010E94C1
:100E9000E9068F3FEFEF9E0721F4C330D10569F0DB
:100EA00027C000E010E0C330D10529F4873D91054B
:100EB000F1F5C2E0D0E02097D9F40115110561F0F9
:100EC0004FE050E069E6C7010E94E906833D9105C5
:100ED00089F10130110549F04FE050E068E6C701A3
:100EE0000E94E906833D910541F1C330D10519F017
:100EF0000230110511F480E025C0F701D087C783C7
:100F0000209759F0D7FD11C023977CF401301105CB
:100F100011F48BE608C08AE606C00130110511F411
:100F200089E601C088E6F701818781E00BC0C1E056
:100F3000D0E0C1CF01E010E002C000E010E0C0E06E
:100F4000D0E0D6CFDF91CF911F910F91FF90EF901E
:100F50000895DC01ED91FC910190F081E02D099460
:100F6000CF93DF93EC0186E0EFE2F1E0DE015296F1
:100F700001900D928A95E1F786E0E5E3F1E0DE016C
:100F80001C9601900D928A95E1F784E090E09A8F8B
:100F9000898F1CA61BA61DA6DF91CF910895EF9205
:100FA000FF921F93CF93DF931F92CDB7DEB77C01E3
:100FB000162FFC01638D85EF92E049830E948E021B
:100FC000612F85EF92E00E9445024981642F85EFF1
:100FD00092E00E94450285EF92E00E940F03F70124
:100FE000808F0F90DF91CF911F91FF90EF90089528
:100FF000EF92FF921F93CF93DF931F92CDB7DEB78F
:101000007C01162FFC01648D85EF92E049830E94DC
:101010008E02612F85EF92E00E9445024981642F84
:1010200085EF92E00E94450285EF92E00E940F0357
:10103000F701808F0F90DF91CF911F91FF90EF907C
:101040000895FC01218D328D2330310511F060327D
:1010500010F40C94F8070C94CF07CF93DF93EC01B6
:10106000898D9A8D83309105D9F440E061E2CE01FB
:101070000E94210847E560E2CE010E94210844E673
:1010800064E2CE010E94210840E265E2CE010E94A6
:10109000210840E066E2CE01DF91CF910C94210857
:1010A000029739F448E063E2CE010E94CF0747E49B
:1010B00006C040E063E2CE010E94CF0747E260E253
:1010C000CE010E94CF074CE060E0CE010E94F807FD
:1010D00040E261E0CE010E94F80740E062E0CE010C
:1010E000DF91CF910C94F8079F92AF92BF92CF926D
:1010F000DF92EF92FF920F931F93CF93DF93EC0158
:101100006B8D85EF92E00E948E0268EA70E085EFB9
:1011100092E00E94A90785EF92E00E940F03888F5A
:1011200046E06B8D85EF92E00E940C030E947D16D5
:101130006B0185EF92E00E94ED01069784F48BA588
:101140009CA5892BB1F30E947D166C197D098BA596
:101150009CA58617970768F781E08DA72CC085EFBF
:1011600092E00E94F501A82E85EF92E00E94F50121
:10117000982E85EF92E00E94F501C82E85EF92E04F
:101180000E94F501B82E85EF92E00E94F501D82E5D
:1011900085EF92E00E94F501F92CE12CEA28F98212
:1011A000E8821B2D00E00C291B830A83982F8827D7
:1011B0008D299D838C83DF91CF911F910F91FF909B
:1011C000EF90DF90CF90BF90AF909F900895CF9217
:1011D000DF92EF92FF920F931F93CF93DF93EC0177
:1011E0006C8D85EF92E00E948E02898D9A8D039717
:1011F00021F469A17AA1606802C06F8D78A185EFA2
:1012000092E00E94A90785EF92E00E940F03888F69
:1012100046E06C8D85EF92E00E940C030E947D16E3
:101220008B0185EF92E00E94ED01069784F48BA577
:101230009CA5892BB1F30E947D16601B710B8BA5B9
:101240009CA58617970768F781E08DA767C0898DF1
:101250009A8D0397F9F485EF92E00E94F501C82E6C
:1012600085EF92E00E94F501D82E85EF92E00E9472
:10127000F501E82E85EF92E00E94F501182F85EF29
:1012800092E00E94F501F82E85EF92E00E94F501B0
:10129000082F35C085EF92E00E94F501D82E85EF2A
:1012A00092E00E94F501C82E298D3A8D85EF92E0DB
:1012B000232B99F40E94F501182F85EF92E00E94EC
:1012C000F501E82E85EF92E00E94F501082F85EFE9
:1012D00092E00E94F501F82E12C00E94F501082F3D
:1012E00085EF92E00E94F501F82E85EF92E00E94D2
:1012F000F501182F85EF92E00E94F501E82E6C2D84
:1013000070E07D297F836E834E2D50E0512B5987ED
:1013100048872F2D30E0302B3B872A87DF91CF91F4
:101320001F910F91FF90EF90DF90CF900895CF9392
:10133000DF93EC010E947408CE01DF91CF910C94F1
:10134000E7081F93CF93DF931F92CDB7DEB7162F19
:1013500085EF92E049830E948E024981642F85EFD8
:1013600092E00E94450285EF92E00E940F038111F6
:1013700014C041E0612F85EF92E00E940C0385EFDD
:1013800092E00E94ED01892B41F085EF92E00F90F1
:10139000DF91CF911F910C94F5018FEF9FEF0F908C
:1013A000DF91CF911F910895EF92FF920F931F93BA
:1013B000CF93DF93EC018B017A016430710521F04A
:1013C0004230510509F055C0C8010397029708F053
:1013D000CDC0E114F10471F04FE050E06DE1CE01B9
:1013E0000E94A1098934910509F4B8C081E0E8168A
:1013F000F10451F04FE050E06EE1CE010E94A109EE
:101400008934910509F4AEC00430110509F0D0C04B
:10141000E114F10469F040E250E069E1CE010E947C
:10142000A109019679F421E0E216F10409F4A3C0C0
:1014300040E250E068E1CE010E94A109019609F066
:10144000A4C099C00430110509F09BC04FE050E0E2
:101450006EE1CE010E94A109EE24E394F12CCC9719
:1014600009F0A9C002E010E082E0E816F10409F4F6
:1014700086C01A8F098F0130110569F124F4012B00
:1014800009F449C069C00230110541F1033011056A
:1014900009F062C0EA94EF2811F48DE101C08EE1F9
:1014A0008C8F8B8F88E090E09AA389A389E090E0ED
:1014B00098A38F8F8AE090E09EA38DA38BE090E0AD
:1014C0009CA38BA38CE090E09AA789A78DE090E085
:1014D00098A78FA341C0EA94EF2811F489E101C0D5
:1014E00088E18B8F8EE18C8F83E090E098A38F8FC3
:1014F00084E090E09AA389A387E090E09CA38BA36B
:1015000088E090E09EA38DA385E090E098A78FA34C
:1015100086E090E01FC0EA94EF2811F489E101C051
:1015200088E18B8F8EE18C8F83E090E098A38F8F82
:1015300084E090E09AA389A385E090E09CA38BA32C
:1015400086E090E09EA38DA387E090E098A78FA30C
:1015500088E090E09AA789A781E030C0EE24E39468
:10156000F12C02C0E12CF12C03E010E00330110556
:1015700008F44ECF79CF0430110509F075CF80E023
:101580001DC0EE24E394F12C6FCF0430110569F4F3
:101590004FE050E06EE1CE010E94A10931E020E071
:1015A000CC9709F030E0032F122FE12CF12C5CCF07
:1015B00003E010E059CF00E010E056CFDF91CF916B
:1015C0001F910F91FF90EF9008959091EE03E0919D
:1015D000F203F091F303992311F0849101C080810B
:1015E0002FEB280F2A3110F4805E0895803249F4E1
:1015F0009F012F5F3F4F3093F3032093F203EF2BB4
:1016000031F708951F93CF93DF930E94E50AC0E05E
:10161000D0E01AE090ED980F9A30B8F49E01129F36
:10162000E001139FD00D1124C80FD11D87FDDA955D
:10163000E0978091F2039091F30301969093F30366
:101640008093F2030E94E50AE5CFCE01DF91CF91AE
:101650001F910895109272001092C00084E0809350
:10166000C10089E08093C20081E08093C300EFEB6A
:10167000F0E083E0808388EE8093D10010821092A6
:10168000D200579A789408952F923F924F925F928A
:101690006F927F928F929F92AF92BF92CF92DF9282
:1016A000EF92FF920F931F93CF93DF93CDB7DEB7E7
:1016B00027970FB6F894DEBF0FBECDBF7C011B018C
:1016C0004D838091F403811105C081E08093F40380
:1016D0000E942A0B10921101F7FE04C0E894F7F85B
:1016E0001AE001C011E088E2189F802D1124282FF4
:1016F00030E03F832E832E153F0510F4FF82EE82EB
:10170000113049F44E815F814131574220F0E0E1D0
:10171000F7E2FF83EE83812E912CA12CB12C8E81D8
:101720009F81969587959C0140E050E029833A83FC
:101730004B835C834E815F812A01612C712CA50152
:10174000940160E072E18AE790E00E949B22298187
:101750003A814B815C81620F731F841F951FA30127
:1017600092010E94ED2269017A01EE24FF2400E03B
:101770000F5FC11434E0D306E104F10408F120E066
:1017800032E14AE750E0002E04C055954795379561
:1017900027950A94D2F7C501B4010E949B222981A2
:1017A0003A814B815C81620F731F841F951FA301D7
:1017B00092010E94ED2269017A01EE24FF24D8CF24
:1017C0001A3049F48E819F8105966AE070E00E948C
:1017D000B7227F836E834E815F81483E83E0580746
:1017E00059F09101DA010E94122328EE33E040E023
:1017F00050E00E94ED221901109272008091C10008
:10180000807F802B8093C100BB27AF2D9E2D8D2D17
:101810008093BF00C092D1002D81203108F02FE0CD
:1018200080E190E0821B910904C0F694E794D7947C
:10183000C7948A95D2F78D2D99278093BF00C092C7
:10184000D2003092F1032092F00389B38FEF89BB6D
:1018500084E08093720027960FB6F894DEBF0FBE27
:10186000CDBFDF91CF911F910F91FF90EF90DF904F
:10187000CF90BF90AF909F908F907F906F905F9030
:101880004F903F902F900895CF93DF93EB018F3FC0
:1018900011F0411105C040E0BE0188EE93E043C065
:1018A000813130F050EF580F503618F05FE501C02D
:1018B00050E0852F6CE00E94AB22682F74EF760316
:1018C00090011124250F311D2C30310540F4F90110
:1018D000EE0FFF1FEB54FE4F2081318102C020E04C
:1018E00030E0873081F0082E02C0220F331F0A94A7
:1018F000E2F7823028F0C90105966AE070E00CC07A
:10190000C90190580CC0C90136E0880F991F3A955B
:10191000E1F7029665E070E00E94B722CB0140310A
:1019200008F04FE0BE01DF91CF910C94440B4F9231
:101930005F926F927F928F929F92AF92BF92CF925F
:10194000DF92EF92FF920F931F93CF93DF9300D01C
:10195000CDB7DEB7909010018091ED03882321F080
:101960006091EC03611117C077247394B0ECAB2E37
:10197000BDE5BB2E1AE0612E04E0802E80EDC82E5E
:1019800087E0D82E94E0E92EF12C04EF11E02FE04F
:10199000422E512C15C070E040E088EE93E00E948A
:1019A000440B1092EC0329C18636D4F5813609F434
:1019B000A9C07CF58C3309F460C08E3381F4939414
:1019C0000E94E50A2091F2033091F3032F5F3F4F0D
:1019D0003093F3032093F203853631F752C08132FE
:1019E00009F08BC080921001D0920F01C0920E01BD
:1019F000F0920D01E0920C0110930B0100930A018B
:101A000050920901409208011092ED03A4E09A2E31
:101A1000D7CF8336A1F10CF478C010E082E077C014
:101A20008D36C1F194F4873691F174F18C3609F05A
:101A300064C00E94020BBC0190930D0180930C01C5
:101A400080910E0190910F0151C08237C9F14CF481
:101A50008F3609F052C00E94020B982E809310011D
:101A6000AFCF843781F1863709F047C00E94020B5F
:101A70009093090180930801A3CF9A94A1CF10E01D
:101A800020C010E084E043C010E085E040C010E0DA
:101A900087E03DC00E94E50A8C3619F41092ED03F0
:101AA00004C07092ED031092EC032091F203309188
:101AB000F3032F5F3F4F3093F3032093F20380CF64
:101AC00011E080E024C00E94020BBC01C5010E940D
:101AD000B722669EC001679E900D112490930F015E
:101AE00080930E0160910C0170910D010E94B7224C
:101AF00070930B0160930A0163CF1092F30310926D
:101B0000F2037BC010E089E002C010E08BE0082FF8
:101B10009CE0999E000D11240E94E50A982F977F62
:101B2000933261F42091F2033091F3032F5F3F4F22
:101B30003093F3032093F2030F5FEECF8D3271F4F5
:101B40002091F2033091F3032F5F3F4F3093F30363
:101B50002093F20301500E94E50AF0CF60910A0140
:101B600070910B018153883050F4E0900E01F09099
:101B70000F010E94020BBC01C7010E94B7227B012A
:101B8000F694E79469837A830E94E50A69817A81F1
:101B90008E3269F42091F2033091F3032F5F3F4FAF
:101BA0003093F3032093F2036E0D7F1DE9CF8091F4
:101BB000ED03882339F09B01369527952093EC039C
:101BC000621B710940910801112311F08FEF01C0D0
:101BD000802F0F900F90DF91CF911F910F91FF9069
:101BE000EF90DF90CF90BF90AF909F908F907F90BD
:101BF0006F905F904F900C94440C0F900F90DF917A
:101C0000CF911F910F91FF90EF90DF90CF90BF90F9
:101C1000AF909F908F907F906F905F904F900895BE
:101C20001F920F920FB60F9211242F933F934F9351
:101C30005F936F937F938F939F93AF93BF93EF9334
:101C4000FF938091F0039091F1039C0121503109A1
:101C50003093F1032093F003892B11F51092720059
:101C600078948091C100807F84608093C10083E07C
:101C70008093BF0088EE8093D1001092BF00109235
:101C8000D20081E0809311018091F2039091F303DF
:101C9000892B31F08091EF03811102C00E94970CD3
:101CA000FF91EF91BF91AF919F918F917F916F9134
:101CB0005F914F913F912F910F900FBE0F901F900A
:101CC00018954FB141705CB156FB552750F9542718
:101CD0008091FC036091FD032091F6033091F7039E
:101CE000852790E06427861B9109820F931F9093AC
:101CF000F7038093F6039091FD038091FC0359173D
:101D000029F0481719F081E08093FB035093FD03FD
:101D10004093FC0308951F920F920FB60F92112467
:101D20002F933F934F935F936F938F939F932CB118
:101D300030E03595279535952795422F417083B131
:101D400090E054E0959587955A95E1F7822793277F
:101D5000582F51708091FE036091FF032091F8038A
:101D60003091F903852790E06427861B9109820F43
:101D7000931F9093F9038093F8039091FF03809150
:101D8000FE03591729F0481719F081E08093FB03EF
:101D90005093FF034093FE039F918F916F915F914A
:101DA0004F913F912F910F900FBE0F901F9018955C
:101DB00024982C9A6A98729A6E98769A8098889A43
:101DC00081E08093680090E190936B008BBB41E0D1
:101DD00050E061E67EE084E00E9420158CB182FB39
:101DE000882780F981708093FE0393B18091FE0370
:101DF0009295917089278093FF031092F9031092B6
:101E0000F8031092FB038FB181708093FC039CB1A7
:101E10008091FC0396FB992790F989278093FD0315
:101E20001092F7031092F6031092FA03089580912E
:101E3000F503811105C081E08093F5030C94D80E61
:101E400008950E94170FF8948091F8039091F90378
:101E50001092F9031092F803789408950E94170FD6
:101E6000F8948091F6039091F7031092F703109283
:101E7000F603789408959B0120573E4F213233405A
:101E800040F060377E4F1CF060E971E002C060E70F
:101E90007EEFFC01718F608F77FF05C071956195B2
:101EA000710981E001C080E070938B0060938A002B
:101EB00090910104891711F02A9A01C02A98229A58
:101EC00008959B0120573E4F2132334040F0603748
:101ED0007E4F1CF060E971E002C060E77EEFFC011C
:101EE000738F628F77FF05C071956195710981E0ED
:101EF00001C080E070938900609388009091000495
:101F0000891711F0299A01C02998219A08956093A0
:101F1000010408956093000408950F931F93CF93D5
:101F2000DF93EC01FC01E953FF4F10821182128212
:101F30001382349710821182128213821C8E1D8E9E
:101F40001E8E1F8E18A219A21AA21BA2188E198EFD
:101F50001A8E1B8E1C8A1D8A1E8A1F8A188A198A4D
:101F60001A8A1B8AEB56F10910821182128213829F
:101F7000349610821182128213823496108211825A
:101F80001282138234961082118212821382349646
:101F90001082118212821382349610821182128270
:101FA0001382349610821182128213823496108228
:101FB000118212821382349610821182128213824D
:101FC000349610821182128213823496108211820A
:101FD000128213823496108211821282138218A602
:101FE00019A61AA61BA61CA61DA61EA61FA618AAE1
:101FF00019AA1AAA1BAA1CAA1DAA1EAA1FAA18AEB1
:1020000019AE1AAE1BAE1CAE1DAE1EAE1FAEE45412
:10201000F109108211821282138234961082118289
:1020200012821382349610821182128213823496A5
:1020300010821182128213823496108211821282CF
:1020400013823496108211821282138285EF92E0FD
:102050000E9484028091F503811105C081E0809384
:10206000F5030E94D80E8E0108571F4F42E050E042
:1020700063E070E0C8010E941C07C8010E945A0674
:10208000CB56DF4F42E050E064E070E0CE010E94AA
:10209000D409CE01DF91CF911F910F910C942D089F
:1020A000EF92FF920F931F93CF93DF93EC017A018E
:1020B0008901FB0120813181428153816C897D89B5
:1020C0008E899F890E948B1F6C8B7D8B8E8B9F8B43
:1020D000F7012081318142815381688D798D8A8D0C
:1020E0009B8D0E948B1F688F798F8A8F9B8FF80141
:1020F0002081318142815381688979898A899B89CC
:102100000E948B1F688B798B8A8B9B8BDF91CF9181
:102110001F910F91FF90EF9008954F925F926F92F1
:102120007F928F929F92AF92BF92CF92DF92EF9267
:10213000FF920F931F93CF93DF93EC015C0184E632
:10214000A80EB11CFB012081318142815381F50130
:1021500060817181828193810E948B1F2B013C01E0
:10216000FE01E85AFF4F6083718382839383349624
:1021700010821182128213824E01FCE68F0E911C96
:10218000F8012081318142815381F40160817181A4
:10219000828193810E948B1F6B017C012BED3FE0BC
:1021A00049EC50E40E9401228E01005A1F4F18167C
:1021B0004CF42BED3FE049EC50E4C701B6010E941E
:1021C0008A1F17C020E030E0A901C701B6010E94B4
:1021D000512087FD06C0F801C082D182E282F382DD
:1021E0000DC02BED3FE049EC50E4C701B6010E9461
:1021F0008B1FF8016083718382839383F501408292
:10220000518262827382C859DF4F188219821A8202
:102210001B82F80180819181A281B381F4018083C6
:102220009183A283B383DF91CF911F910F91FF9090
:10223000EF90DF90CF90BF90AF909F908F907F9066
:102240006F905F904F9008954F925F926F927F9240
:102250008F929F92AF92BF92CF92DF92EF92FF92B6
:102260000F931F93CF93DF93EC018B01FC01E05A96
:10227000FF4F80809180A280B380C501B4010E948D
:1022800055206E0120E7C20ED11C3E01ECE76E0E18
:10229000711CF80120813181428153810E940C22FE
:1022A0009B01AC01F30160817181828193810E9465
:1022B0008B1FF6016083718382839383C501B40110
:1022C0000E946F227E01F4E7EF0EF11C2E0120E840
:1022D000420E511CF80120813181428153810E94BC
:1022E0000C229B01AC01F20160817181828193819A
:1022F0000E948B1FF70160837183828393838E0119
:1023000008581F4FF80180829182A282B38285EB28
:1023100093E00E94510586EEA82E83E0B82E6DEC66
:1023200071E0F501808191810E94FC1865ED71E0FA
:10233000F501808191810E94FC18F6014081518154
:102340006281738122E030E0F501808191810E94F9
:102350009D1A65ED71E0F501808191810E94FC1864
:10236000F701408151816281738122E030E0F50103
:10237000808191810E949D1A65ED71E0F501808157
:1023800091810E94FC18F801408151816281738122
:1023900022E030E0F501808191810E949D1A67ED75
:1023A00071E0F501808191810E94FC1862E070E08B
:1023B00080E090E00E94AC16F60180819181A281BC
:1023C000B381F30180839183A283B383F70180817A
:1023D0009181A281B381F20180839183A283B3832F
:1023E000CC57DF4FF80180819181A281B38188832E
:1023F0009983AA83BB83DF91CF911F910F91FF90A7
:10240000EF90DF90CF90BF90AF909F908F907F9094
:102410006F905F904F900895CF93DF93EC0129E781
:1024200032E240E259E368A579A58AA59BA50E94FE
:102430000C2268A779A78AA79BA729E732E240E286
:1024400059E36CA57DA58EA59FA50E940C226CA7C3
:102450007DA78EA79FA729E732E240E259E368A94A
:1024600079A98AA99BA90E940C2268AB79AB8AAB97
:102470009BABDF91CF9108950F931F93CF93DF9381
:10248000EC018C01005C1F4F21E43AED4FE758E36B
:10249000F80160817181828193810E940C22F80190
:1024A00060837183828393830C5F1F4F21E43AED35
:1024B0004FE758E3F80160817181828193810E9426
:1024C0000C22F8016083718382839383C85BDF4FA2
:1024D00021E43AED4FE758E3688179818A819B8155
:1024E0000E940C22688379838A839B83DF91CF913A
:1024F0001F910F910895EF92FF920F931F93CF9327
:10250000DF93EC018C0108571F4FC8010E9472062F
:102510007E0185E9E80EF11CC7010E949709F801C8
:1025200060817181882777FD8095982F0E94F32024
:1025300068A779A78AA79BA7FE01E657FF4F60818E
:102540007181882777FD8095982F0E94F3206CA7D2
:102550007DA78EA79FA7FE01E457FF4F6081718181
:10256000882777FD8095982F0E94F32068AB79AB80
:102570008AAB9BAB08541109F701608171818827F0
:1025800077FD8095982F0E94F320F8016083718376
:10259000828393830C5F1F4FE95AFF4F60817181E3
:1025A000882777FD8095982F0E94F320F80160839B
:1025B0007183828393830C5F1F4FEB5AFF4F6081BF
:1025C0007181882777FD8095982F0E94F320F8016C
:1025D0006083718382839383CE010E943C12CE017B
:1025E000DF91CF911F910F91FF90EF900C940C12FF
:1025F0004F925F926F927F928F929F92AF92BF9213
:10260000CF92DF92EF92FF920F931F93CF93DF93BE
:102610008C016A017B01FC01E05CFF4F208131816C
:1026200042815381349660817181828193810E94BD
:10263000FE1F4B015C01C701B6010E94F1206B0136
:102640007C01E801C05ADF4FF80120A931A942A955
:1026500053A90E940C22288139814A815B810E9402
:102660008B1F28E431EE4AE75FE30E940C222B0126
:102670003C0120E037ED43EA5CE3C501B4010E9470
:102680000C229B01AC01C301B2010E948B1F2B01E4
:102690003C0185EB93E00E945105C6EED3E060EE6D
:1026A00071E0888199810E94FC1865ED71E0888154
:1026B00099810E94FC1822E030E0B501A4018881D4
:1026C00099810E949D1A65ED71E0888199810E942F
:1026D000FC18F80120A931A942A953A9C701B601E4
:1026E0000E940C22AB01BC0122E030E0888199817C
:1026F0000E949D1A67ED71E0888199810E94FC1803
:1027000062E070E080E090E00E94AC16C301B2018C
:10271000DF91CF911F910F91FF90EF90DF90CF90BD
:10272000BF90AF909F908F907F906F905F904F90F1
:1027300008954F925F926F927F928F929F92AF9285
:10274000BF92CF92DF92EF92FF920F931F93CF939E
:10275000DF93CDB7DEB764970FB6F894DEBF0FBE38
:10276000CDBF5C010E947D1685010D531F4F4501B1
:1027700027EC820E911CD401CD90DD90ED90FC9061
:102780006C197D098E099F09F8016083718382832A
:1027900093830E94210FD50195969C938E939497D5
:1027A0000E942E0F7C01F50197A386A364A175A159
:1027B000882777FD8095982F0E94F3209B01AC011C
:1027C0000E947822882329F0D50195961C921E92AA
:1027D0009497B701882777FD8095982F0E94F32062
:1027E0009B01AC010E947822882319F0F50117A201
:1027F00016A2D5011C968D919D910D90BC91A02D96
:10280000898B9A8BAB8BBC8BF5014084518462849D
:10281000738464A175A1882777FD8095982F0E9405
:10282000F32029893A894B895C890E940C22A301F3
:1028300092010E9458206B017C016D877E878F87F3
:10284000988BD50196966D917C919797882777FD07
:102850008095982F0E94F32029893A894B895C89B9
:102860000E940C22A30192010E94582069877A8756
:102870008B879C87A70196010E948B1F20E030E088
:1028800040E05FE30E940C226D837E838F839887F4
:102890009E012B5F3F4FAE01475F5F4FBE01635FFD
:1028A0007F4FC5010E945010C5010E947B12F801A4
:1028B000C080D180E280F380C701B6010E94F12080
:1028C000D501D0962D913D914D915C91D3970E9469
:1028D0000C2220E030E04AE754E40E94582069834B
:1028E0007A838B839C83B701A601C5010E94F812ED
:1028F0006B017C0185EB93E00E94510568EE71E06D
:102900008091E6039091E7030E94FC1865ED71E069
:102910008091E6039091E7030E94FC1822E030E0EA
:10292000B701A6018091E6039091E7030E949D1AEA
:1029300067ED71E08091E6039091E7030E94FC1837
:1029400062E070E080E090E00E94AC168E010F5FC4
:102950001F4F9E01275F3F4FAE01435F5F4FBE0198
:102960006B5F7F4FC5010E948D109E01275F3F4F17
:10297000AE01435F5F4FBE016B5F7F4FC5010E9499
:1029800024110E947D16F4016083718382839383F6
:1029900064960FB6F894DEBF0FBECDBFDF91CF9126
:1029A0001F910F91FF90EF90DF90CF90BF90AF906D
:1029B0009F908F907F906F905F904F900895FC0153
:1029C00086A197A10895FC0184A195A1089589ECA1
:1029D00096E7A6E5B0E48093020490930304A093E5
:1029E0000404B093050480E695EEA0E3BFE3809372
:1029F000060490930704A0930804B093090484E1AB
:102A00009EE6A3E6B4E480930A0490930B04A0939B
:102A10000C04B0930D048DE09FEEAAE8B0E480931F
:102A20000E0490930F04A0931004B09311048AE84D
:102A300094E00E94280687E994E00C94B00708957A
:102A4000853008F04CC0E82FF0E0EE0FFF1FEE5E7F
:102A5000FE4F718360838230E1F018F4813069F0B9
:102A600004C0833019F1843071F1809169008C7F4A
:102A7000842B80936900E89A089580916900440F3F
:102A8000551F440F551F837F842B80936900E99A5B
:102A900008958091690034E0440F551F3A95E1F79D
:102AA0008F7C842B80936900EA9A08958091690055
:102AB00026E0440F551F2A95E1F78F73842B8093EE
:102AC0006900EB9A089580916A0094E0440F551FC5
:102AD0009A95E1F78F7C842B80936A00EE9A089593
:102AE0001F920F920FB60F9211242F933F934F9383
:102AF0005F936F937F938F939F93AF93BF93EF9366
:102B0000FF93E0911201F09113010995FF91EF916C
:102B1000BF91AF919F918F917F916F915F914F91F5
:102B20003F912F910F900FBE0F901F9018951F92FD
:102B30000F920FB60F9211242F933F934F935F93F1
:102B40006F937F938F939F93AF93BF93EF93FF9375
:102B5000E0911401F09115010995FF91EF91BF915A
:102B6000AF919F918F917F916F915F914F913F9125
:102B70002F910F900FBE0F901F9018951F920F92DC
:102B80000FB60F9211242F933F934F935F936F9340
:102B90007F938F939F93AF93BF93EF93FF93E091B6
:102BA0001601F09117010995FF91EF91BF91AF9137
:102BB0009F918F917F916F915F914F913F912F9155
:102BC0000F900FBE0F901F9018951F920F920FB687
:102BD0000F9211242F933F934F935F936F937F93A3
:102BE0008F939F93AF93BF93EF93FF93E09118015F
:102BF000F09119010995FF91EF91BF91AF919F91CC
:102C00008F917F916F915F914F913F912F910F9095
:102C10000FBE0F901F9018951F920F920FB60F9234
:102C200011242F933F934F935F936F937F938F93D1
:102C30009F93AF93BF93EF93FF93E0911A01F091AD
:102C40001B010995FF91EF91BF91AF919F918F91DA
:102C50007F916F915F914F913F912F910F900FBE98
:102C60000F901F9018951F920F920FB60F9211247C
:102C70002F933F938F939F93AF93BF938091CE04F5
:102C80009091CF04A091D004B091D1043091CD04A3
:102C900023E0230F2D3720F40196A11DB11D05C09F
:102CA00026E8230F0296A11DB11D2093CD04809329
:102CB000CE049093CF04A093D004B093D10480911C
:102CC000D2049091D304A091D404B091D50401967C
:102CD000A11DB11D8093D2049093D304A093D4047A
:102CE000B093D504BF91AF919F918F913F912F9158
:102CF0000F900FBE0F901F9018952FB7F89460910A
:102D0000CE047091CF048091D0049091D1042FBF54
:102D100008953FB7F8948091D2049091D304A09184
:102D2000D404B091D50426B5A89B05C02F3F19F057
:102D30000196A11DB11D3FBF6627782F892F9A2FBD
:102D4000620F711D811D911D42E0660F771F881F64
:102D5000991F4A95D1F708958F929F92AF92BF9293
:102D6000CF92DF92EF92FF926B017C010E94891655
:102D70004B015C01C114D104E104F104F1F00E94A3
:102D8000EE1E0E948916681979098A099B09683E16
:102D900073408105910570F321E0C21AD108E10862
:102DA000F10888EE880E83E0981EA11CB11CC114A6
:102DB000D104E104F10429F7DDCFFF90EF90DF901B
:102DC000CF90BF90AF909F908F900895789484B5E6
:102DD000826084BD84B5816084BD85B5826085BD17
:102DE00085B5816085BDEEE6F0E0808181608083FD
:102DF000E1E8F0E0108280818260808380818160E0
:102E00008083E0E8F0E0808181608083E1E9F0E0A8
:102E1000808182608083808181608083E0E9F0E04E
:102E2000808181608083E1ECF0E080818460808338
:102E3000808182608083808181608083E3ECF0E028
:102E4000808181608083E0ECF0E08081826080831B
:102E5000E2ECF0E0808181608083EAE7F0E080814D
:102E600084608083808182608083808181608083B0
:102E7000808180688083089590E0FC013197EF3075
:102E8000F105B0F5EA5AFF4F0C940C2380918000B5
:102E90008F7703C0809180008F7D8093800008959C
:102EA00080918000877FF9CF84B58F7702C084B589
:102EB0008F7D84BD0895809190008F7707C08091A9
:102EC00090008F7D03C080919000877F8093900059
:102ED00008958091C0008F7703C08091C0008F7DDE
:102EE0008093C00008958091C200877F8093C200C4
:102EF00008950F931F93CF93DF931F92CDB7DEB743
:102F0000282F30E0F901EA5EFE4F8491F901EB5C75
:102F1000FE4F1491F901EC5AFE4F04910023C9F0C1
:102F2000882321F069830E943C176981E02FF0E03B
:102F3000EE0FFF1FED58FE4FA591B4919FB7F89487
:102F40008C91611103C01095812301C0812B8C935A
:102F50009FBF0F90DF91CF911F910F910895CF9355
:102F6000DF931F92CDB7DEB76983DC01ED91FC9151
:102F70000280F381E02D41E050E0BE016F5F7F4FA2
:102F800009950F90DF91CF910895CF93DF93EC01D6
:102F90008C859D8597FF05C082E00E94B01B9D87B0
:102FA0008C878C859D85DF91CF91089583E00C946B
:102FB000441EFC018485958597FD06C082E00E9431
:102FC000581B90E00196089582E00E94581B90E003
:102FD0000895FC018485958597FD05C02FEF3FEF8F
:102FE00035872487089582E00C94B01BCF93DF933C
:102FF000EC0180912701882331F083E00E94E11BDE
:103000001816190634F081E090E09B838A8380E0F3
:1030100090E0DF91CF910895FC0120812E5F208305
:1030200042E450E061E871E080E80C947C1CFC0113
:1030300021818081813A59F4213209F04BC047E067
:1030400050E060E271E080E00E947C1C5EC0813252
:1030500009F040C0233289F4838190E0982F8827BB
:103060003281832BA0E0B0E080931C0190931D017E
:10307000A0931E01B0931F010FC0203239F467E006
:1030800070E080E291E00E94AD1C09C0223221F480
:1030900082818093270103C02D7F2032B1F580917A
:1030A0002605811103C0E0E0F8E002C0EEEFFAE08F
:1030B0008091200190912101A0912201B0912301E2
:1030C000803B9440A105B10511F58091270180FF57
:1030D00003C01DC080E00895EE3F2AE0F20731F002
:1030E000808191819093FF0A8093FE0A87E797E79A
:1030F000918380832BE088E190E00FB6F894A89547
:10310000809360000FBE2093600081E0089588E105
:103110000FB6F89480936000109260000FBEA895DF
:10312000EE3F8AE0F80739F08091FE0A9091FF0A9D
:1031300091838083EACF1092FF0A1092FE0AE5CFB6
:103140002FEF3FEFFC01358724870895CF93C0917F
:1031500027016AE070E080E090E00E94AC1681E018
:10316000C11101C080E0CF9108951092D90410924E
:10317000D80488EE93E0A0E0B0E08093DA04909366
:10318000DB04A093DC04B093DD0484EF91E0909322
:10319000D7048093D6048FEF9FEF9093E30480933E
:1031A000E204089508950E94E6160E94D21887E26C
:1031B00095E00E94D11E0E943701C0E0D0E00E943D
:1031C00077012097E1F30E940000F9CF61157105A6
:1031D00081F0DB010D900020E9F7AD01415051096C
:1031E000461B570BDC01ED91FC910280F381E02D31
:1031F000099480E090E008950C94E618DC01ED91CC
:10320000FC910190F081E02D09948F929F92AF92F2
:10321000BF92DF92EF92FF920F931F93CF93DF93B2
:10322000CDB7DEB7A1970FB6F894DEBF0FBECDBF06
:103230007C01F42FD52ECB0119A2223008F42AE00C
:103240008E010F5D1F4F822E912CA12CB12C6F2F60
:103250007D2DA50194010E94CB22F22FD32ECA010D
:10326000015011096A3014F4E0E301C0E7E3E60F0E
:10327000D801EC93232B242B252B49F7B801C70148
:103280000E94E618A1960FB6F894DEBF0FBECDBF20
:10329000DF91CF911F910F91FF90EF90DF90BF9042
:1032A000AF909F908F900895CF92DF92EF92FF9210
:1032B0000F931F93CF93DF93EC016A017B012115DC
:1032C000310579F4E881F9810190F081E02D642FD6
:1032D000DF91CF911F910F91FF90EF90DF90CF90F2
:1032E00009942A303105E9F477FF1AC06DE20E9493
:1032F000FE188C0144275527BA014C195D096E0947
:103300007F092AE0CE010E940519800F911FDF91ED
:10331000CF911F910F91FF90EF90DF90CF90089584
:103320002AE0B701A601CE01DF91CF911F910F9145
:10333000FF90EF90DF90CF900C9405192115310587
:1033400041F4DC01ED91FC910190F081E02D642FBE
:1033500009940C9405199A01462F50E060E070E042
:103360000C949E194F925F926F927F928F929F92D0
:10337000AF92BF92CF92DF92EF92FF920F931F9383
:10338000CF93DF93EC016A017B01B22E9A01AB016E
:10339000C701B6010E947822882319F060E072E02C
:1033A00027C026013701E89477F82FEF3FEF4FE76A
:1033B0005FE7C301B2010E94782281110DC02FEF97
:1033C0003FEF4FE75FE7C301B2010E94512018169B
:1033D0001CF464E072E00CC02FEF3FEF4FE75FE4B6
:1033E000C701B6010E9401221816ACF468E072E031
:1033F000CE01DF91CF911F910F91FF90EF90DF9061
:10340000CF90BF90AF909F908F907F906F905F9084
:103410004F900C94E6182FEF3FEF4FE75FECC7019A
:10342000B6010E94512087FDE1CF20E030E0A901E4
:10343000C701B6010E94512087FF0AC06DE2CE018C
:103440000E94FE188C01F7FAF094F7F8F09402C08D
:1034500000E010E0A12C60E070E080E09FE3AB149E
:1034600041F020E030E040E251E40E945820A39473
:10347000F6CF9B01AC01C701B6010E948B1F6B0107
:103480007C010E94C5202B013C010E94F1209B0180
:10349000AC01C701B6010E948A1F6B017C012AE0C2
:1034A000B301A201CE010E940519080F191FBB200C
:1034B00039F06CE072E0CE010E94E618080F191F87
:1034C0007B2C772041F120E030E040E251E4C7015D
:1034D000B6010E940C226B017C010E94C0204B01AE
:1034E000AA2497FCA094BA2C2AE030E0B501A401EC
:1034F000CE010E945419080F191FC501B4010E9482
:10350000F3209B01AC01C701B6010E948A1F6B0129
:103510007C017A94D6CFC801DF91CF911F910F9192
:10352000FF90EF90DF90CF90BF90AF909F908F90E3
:103530007F906F905F904F9008950C94B2196150F6
:1035400030F02091F100FC0120830196F8CF2898FB
:1035500084E680933005089540912B0550912C0509
:103560002091290530912A0542175307B4F4909110
:10357000E8009570E1F39091E80092FD19C0809306
:10358000F10080912B0590912C0501968F7399275E
:10359000892B19F48EEF8093E80080912B05909190
:1035A0002C05019690932C0580932B0581E00895BE
:1035B00080E00895CF92DF92EF92FF920F931F93D6
:1035C000CF93DF931F92CDB7DEB7082F162FF42EBF
:1035D000862F880F8E5F99830E94AC1A83E00E9429
:1035E000AC1AE02EC02E9981D92E8C2D8E19811700
:1035F00098F4F601F7FE02C0849101C080810E9418
:10360000AC1A082F80E00E94AC1A8023FFEFCF1A7B
:10361000DF0A8111EACF01C081E00F90DF91CF91E5
:103620001F910F91FF90EF90DF90CF9008958091C0
:10363000D70081608093D70080EA8093D80089B555
:10364000806189BD89B5826089BD09B400FEFDCF66
:1036500061E070E080E090E00E94AC168091D800BC
:103660008F7C80618093D8008091E000807F809380
:10367000E0000895CF93DF931F92CDB7DEB7198294
:10368000CE0101960E940C180E94761FBE016F5F4A
:103690007F4F0E94EF1E89810F90DF91CF91089597
:1036A0002FB7FC012083F89467706093E9000895B8
:1036B000CF93DF931F92CDB7DEB7682FCE0101966F
:1036C0000E94501B8091F20099819FBF0F90DF9163
:1036D000CF910895FF920F931F93CF93DF9300D064
:1036E000CDB7DEB7F62E8A0190912F05992311F000
:1036F00057FF03C08FEF9FEF2BC0682FCE010196BD
:103700007A830E94501B8091F20090E0A8017A8198
:10371000801791070CF4AC01EF2DF72FF40E84E61F
:10372000FE1639F02898809330059091F10091931E
:10373000F7CF4115510521F08091F200882321F047
:1037400089818FBFCA0104C08BE68093E800F8CF5F
:103750000F900F90DF91CF911F910F91FF900895DF
:10376000CF93DF931F92CDB7DEB741E050E0BE01AB
:103770006F5F7F4F0E946A1B019719F4898190E067
:1037800002C08FEF9FEF0F90DF91CF910895CF93FD
:10379000DF931F92CDB7DEB7682FCE0101960E944E
:1037A000501B9091E800892F807295FF04C0909182
:1037B000F20080E4891B99819FBF0F90DF91CF9128
:1037C00008956F927F928F929F92AF92BF92CF9205
:1037D000DF92EF92FF920F931F93CF93DF931F928D
:1037E000CDB7DEB7782E7B01C42EB52E80912F0584
:1037F000882369F0042F152F8AEFD82E872D807229
:10380000982E9AE3A92E872D8074882E11C08FEFF1
:103810009FEF57C0872D0E94C71B682E81110CC0D7
:10382000DA94A9F361E070E080E090E00E94AC16C9
:103830000115110579F73BC0282F30E00217130757
:103840000CF4602E672DCE0101960E94501B8091D2
:10385000E80085FF29C0262D30E0021B130B9920BC
:1038600039F06A948FEF6816B1F01092F100F9CF39
:10387000F701862D77FE07C0815058F09491909300
:10388000F1003196F9CF815020F091919093F100A1
:10389000FACFE20EF31E8091E80085FF0FC00115FC
:1038A000110511F481100AC089818FBFC1CF5D98C5
:1038B00084E6809331058C2D9B2D03C0A092E800F7
:1038C000F3CF0F90DF91CF911F910F91FF90EF9069
:1038D000DF90CF90BF90AF909F908F907F906F9030
:1038E00008951092E90010922C0510922B059093E8
:1038F0002A05809329050895CF92DF92FF920F93B6
:103900001F93CF93DF9300D0CDB7DEB7F82E8A0197
:103910006B0101151105B1F0F601F7FE02C08491AB
:1039200001C0808149835A830E94AC1A0150110959
:10393000FFEFCF1ADF0A49815A818111EACF8FEF59
:103940009FEF01C0CA010F900F90DF91CF911F919F
:103950000F91FF90DF90CF900895BF92CF92DF92AA
:10396000EF92FF920F931F93CF93DF936C018B0124
:10397000EB013BEFB32E2097C1F07E01C134D1059E
:103980001CF020E4E22EF12C8091E80082FFFCCFB5
:10399000C8018C1B9D0B6E2D8C0D9D1D0E949F1AC6
:1039A000B092E800CE19DF09E6CFC801DF91CF91D0
:1039B0001F910F91FF90EF90DF90CF90BF900895EF
:1039C0001F920F920FB60F921124DF92EF92FF9287
:1039D0000F931F932F933F934F935F936F937F9317
:1039E0008F939F93AF93BF93EF93FF93CF93DF9307
:1039F000CDB7DEB76C97DEBFCDBF1092E9008091E6
:103A0000E80083FF23C168E0CE0145960E949F1A1B
:103A100082EF8093E8003D8937FF05C08091E80080
:103A200080FFFCCF03C08EEF8093E800832F807669
:103A300009F0F0C02E894F89D88C21110CC0303884
:103A400029F480912E058093F10002C01092F100BC
:103A50001092F100F4C0842F90E09D29213049F4A8
:103A60003111EDC0019709F0EAC080912E058D7FDC
:103A70000AC0233059F43111E2C0019709F0DFC0C8
:103A800080912E05826080932E05D9C0253041F4A7
:103A90008091E80080FFFCCF40684093E300CFC0F6
:103AA000263009F08DC0EB8CFC8C22E0D2122CC0A9
:103AB00080E090E00E94711C0E943A1B99E08E0108
:103AC0000F5F1F4FF801292F11922A95E9F799836B
:103AD000DA8291E09E8390EA98879AEF9987209105
:103AE0002B0530912C05275F3F4F3C832B838D8323
:103AF000C7010E94711C49E050E0B80180E00E94BB
:103B00007C1C0E943A1B9BC0C7010E94711C0E9432
:103B1000761FBE016B5E7F4F0E94181F009719F041
:103B20000CF08DC090C081E0D8120EC08B8D9C8DA2
:103B3000089719F481E08093280580912805811168
:103B40002FC065ED71E031C0E3E0DE127CC08F89EB
:103B5000882349F1823029F440E862E18AEF91E05C
:103B60001CC0813029F440E862E187EE91E015C085
:103B7000833009F068C00E94761F8E010F5F1F4FCF
:103B8000B8010E94371FF80101900020E9F7319732
:103B9000E01BF10B40E06E2FC8010E94DA1A4DC005
:103BA00063EC71E002C06DE072E06115710509F42B
:103BB0004AC0FB01449150E080E80E947C1C3FC059
:103BC000273009F440C0283021F481E08093F100CF
:103BD00036C02930A1F53370B1F5E9E2F1E081E0BA
:103BE00021E036E39081992361F08093E9002093EE
:103BF000EB0091919093EC003093ED008F5F873054
:103C000089F78EE78093EA001092EA008F8980930B
:103C10002F0515C08B8D9C8D0E94711C898D811183
:103C200005C0CE0145960E94171807C00E94761F56
:103C3000BE016B5E7F4F0E94561F882321F08EEFDE
:103C40008093E80003C081E28093EB006C960FB68E
:103C5000F894DEBF0FBECDBFDF91CF91FF91EF9102
:103C6000BF91AF919F918F917F916F915F914F9194
:103C70003F912F911F910F91FF90EF90DF900F9048
:103C80000FBE0F901F9018958093E9008091F2006D
:103C9000882319F08AE38093E80008951F920F9219
:103CA0000FB60F9211242F933F934F935F936F930F
:103CB0007F938F939F93AF93BF93CF93EF93FF9394
:103CC000C091E1008091E100837F8093E1008093C7
:103CD000E100C3FF0FC01092E90081E08093EB0088
:103CE0001092EC0082E38093ED0010922F0588E0A3
:103CF0008093F000C2FF19C083E00E94441E8091AF
:103D00003105882339F08091310581508093310548
:103D1000882389F180913005882339F0809130051E
:103D2000815080933005882341F1C4FF10C08091F9
:103D3000E2008E7E81608093E2008091E1008F7EC0
:103D40008093E10080912D058E7E806111C0C0FFBF
:103D500016C08091E2008E7E80618093E2008091A7
:103D6000E1008E7E8093E10080912D058E7E816042
:103D700080932D0504C05D9ACDCF289AD6CFFF91B0
:103D8000EF91CF91BF91AF919F918F917F916F9163
:103D90005F914F913F912F910F900FBE0F901F9009
:103DA000189510922F0510922E0510922D050E9445
:103DB000171B8091E1008E7E8093E1008DE080935F
:103DC000E200559A209AEEEFFFE7859194918B3FA0
:103DD0009C4D19F481E08093260508950895EF9293
:103DE000FF920F931F93CF93DF937B01FC01C2815E
:103DF000D38100E010E0209781F0E881F981028012
:103E0000F381E02DB701CE01099597FD08C0080F99
:103E1000191F0884D985C02DEECFC80102C08FEFCD
:103E20009FEFDF91CF911F910F91FF90EF90089539
:103E30000F931F93CF93DF938B01FC01C281D3813A
:103E4000209771F0E881F9810480F581E02DB801B7
:103E5000CE010995009731F40884D985C02DF0CFA3
:103E600080E090E0DF91CF911F910F9108950F9323
:103E70001F93CF93DF938B01FC01C281D3812097E5
:103E800071F0E881F9810680F781E02DB801CE015B
:103E90000995080F111D0884D985C02DF0CFF801B0
:103EA0001082DF91CF911F910F9108950F931F936F
:103EB000CF93DF938B01FC01C281D381209771F0F6
:103EC000E881F9810190F081E02DB801CE010995DA
:103ED000811106C00884D985C02DF0CF80E001C0D3
:103EE00081E0DF91CF911F910F9108958091360568
:103EF00081110DC082E08093320584E08093330508
:103F0000109235051092340581E08093360582E3E6
:103F100095E008955058BB27AA270ED027C2F0D1AC
:103F200030F0F5D120F031F49F3F11F41EF4C0C100
:103F30000EF4E095E7FBB6C1E92F3AD280F3BA1749
:103F4000620773078407950718F071F49EF552C253
:103F50000EF4E0950B2EBA2FA02D0B01B9019001A4
:103F60000C01CA01A0011124FF27591B99F0593FE8
:103F700050F4503E68F11A16F040A22F232F342F30
:103F80004427585FF3CF469537952795A795F0407E
:103F90005395C9F77EF41F16BA0B620B730B840B93
:103FA000BAF09150A1F0FF0FBB1F661F771F881F4B
:103FB000C2F70EC0BA0F621F731F841F48F48795A3
:103FC00077956795B795F7959E3F08F0B3CF939592
:103FD000880F08F09927EE0F97958795089590D14F
:103FE00058F080E891E009F49EEF91D128F040E884
:103FF00051E059F45EEF09C05BC1FCC1E92FE078E4
:10400000D7D168F3092E052AC1F3261737074807C9
:10401000590738F00E2E07F8E02569F0E025E06436
:104020000AC0EF6307F8009407FADB01B9019D01AC
:10403000DC01CA01AD01EF934AD098D10AD05F915B
:10404000552331F02BED3FE049E450FD49EC63CFBF
:104050000895DF93DD27B92FBF7740E85FE3161699
:10406000170648075B0710F4D92FCFD19F938F9382
:104070007F936F933AD2EAECF0E01DD177D12F9184
:104080003F914F915F91D4D1DD2349F09058A2EA3E
:104090002AED3FE049EC5FE3D0785D274DDFDF910B
:1040A00065C1DCD008F481E0089539D1E3956FC192
:1040B0000CD05CC12CD140F023D130F021F45F3F13
:1040C00019F0F0C0511197C1F3C072D198F3992340
:1040D000C9F35523B1F3951B550BBB27AA276217CC
:1040E0007307840738F09F5F5F4F220F331F441F11
:1040F000AA1FA9F333D00E2E3AF0E0E830D0915049
:104100005040E695001CCAF729D0FE2F27D0660F35
:10411000771F881FBB1F261737074807AB07B0E874
:1041200009F0BB0B802DBF01FF2793585F4F2AF08A
:104130009E3F510568F0B6C05EC15F3FECF3983E0C
:10414000DCF3869577956795B795F7959F5FC9F7E7
:10415000880F911D9695879597F90895E1E0660F70
:10416000771F881FBB1F621773078407BA0720F0E9
:10417000621B730B840BBA0BEE1F88F7E095089552
:1041800004D06894B11137C108951AD188F09F57AF
:1041900090F0B92F9927B751A0F0D1F0660F771F93
:1041A000881F991F1AF0BA95C9F712C0B13081F073
:1041B00021D1B1E008951EC1672F782F8827B85FFD
:1041C00039F0B93FCCF3869577956795B395D9F7D4
:1041D0003EF490958095709561957F4F8F4F9F4FDE
:1041E0000895E89409C097FB3EF4909580957095EA
:1041F00061957F4F8F4F9F4F9923A9F0F92F96E933
:10420000BB279395F695879577956795B795F111A7
:10421000F8CFFAF4BB0F11F460FF1BC06F5F7F4F44
:104220008F4F9F4F16C0882311F096E911C0772356
:1042300021F09EE8872F762F05C0662371F096E85F
:10424000862F70E060E02AF09A95660F771F881F2E
:10425000DAF7880F9695879597F90895990F0008D2
:10426000550FAA0BE0E8FEEF16161706E807F90748
:10427000C0F012161306E407F50798F0621B730BE3
:10428000840B950B39F40A2661F0232B242B252B64
:1042900021F408950A2609F4A140A6958FEF811D07
:1042A000811D089597F99F6780E870E060E00895A8
:1042B0009FEF80EC0895DF93CF931F930F93FF92AE
:1042C000EF92DF927B018C01689405C0DA2EEF013A
:1042D000AFD0FE01E894A591259135914591559176
:1042E000AEF3EF0129DEFE019701A801DA9479F718
:1042F000DF90EF90FF900F911F91CF91DF91089584
:1043000000240A94161617061806090608950024B4
:104310000A9412161306140605060895C9CF50D044
:10432000E8F3E894E0E0BB279F57F0F02AED3FE088
:1043300049EC06C0EE0FBB0F661F771F881F28F0E1
:10434000B23A62077307840728F0B25A620B730B04
:10435000840BE3959A9572F7803830F49A95BB0FE9
:10436000661F771F881FD2F79048C8C0092E039494
:10437000000C11F4882352F0BB0F40F4BF2B11F452
:1043800060FF04C06F5F7F4F8F4F9F4F0895EF9383
:10439000E0FF06C0A2EA2AED3FE049EC5FEBCCDD8E
:1043A000E5DF0F90039401FC9058E7EFF0E0B2C016
:1043B00057FD9058440F551F59F05F3F71F04795D6
:1043C000880F97FB991F61F09F3F79F087950895BB
:1043D000121613061406551FF2CF4695F1DF08C0DA
:1043E000161617061806991FF1CF869571056105F7
:1043F00008940895E894BB2766277727CB0197F99F
:1044000008952CDF08F48FEF08959B01AC0160E064
:1044100070E080E89FE34CCE0BD0A8CF71DF28F08E
:1044200076DF18F0952309F03DCF42CF1124E3CF7A
:10443000BFDFA0F3959FD1F3950F50E0551F629F0A
:10444000F001729FBB27F00DB11D639FAA27F00DED
:10445000B11DAA1F649F6627B00DA11D661F829F14
:104460002227B00DA11D621F739FB00DA11D621FF9
:10447000839FA00D611D221F749F3327A00D611D16
:10448000231F849F600D211D822F762F6A2F1124F8
:104490009F5750408AF0E1F088234AF0EE0FFF1F4B
:1044A000BB1F661F771F881F91505040A9F79E3F82
:1044B000510570F0F7CE9FCF5F3FECF3983EDCF3F1
:1044C000869577956795B795F795E7959F5FC1F7BF
:1044D000FE2B880F911D9695879597F908959F93C8
:1044E0001EDF0F9007FCEE5F52CF9B01AC0194CF13
:1044F000B5DE880B990B08959F3F31F0915020F461
:10450000879577956795B795880F911D96958795AF
:1045100097F908959F938F937F936F93FF93EF93F2
:104520009B01AC0179DFEF91FF91C5DE2F913F91A7
:104530004F915F9171CFDB018F939F930E94212355
:10454000BF91AF91A29F800D911DA39F900DB29F2F
:10455000900D11240895991B79E004C0991F9617B6
:1045600008F0961B881F7A95C9F780950895AA1BB5
:10457000BB1B51E107C0AA1FBB1FA617B70710F04E
:10458000A61BB70B881F991F5A95A9F78095909580
:10459000BC01CD010895A1E21A2EAA1BBB1BFD018F
:1045A0000DC0AA1FBB1FEE1FFF1FA217B307E40712
:1045B000F50720F0A21BB30BE40BF50B661F771F6A
:1045C000881F991F1A9469F760957095809590954A
:1045D0009B01AC01BD01CF010895052E97FB1EF490
:1045E00000940E94042357FD07D00E94CB2207FCB1
:1045F00003D04EF40C9404235095409530952195AA
:104600003F4F4F4F5F4F08959095809570956195FE
:104610007F4F8F4F9F4F0895EE0FFF1F0590F4912E
:10462000E02D0994A29FB001B39FC001A39F700D1C
:10463000811D1124911DB29F700D811D1124911DAA
:1046400008950E941223A59F900DB49F900DA49FE2
:0C465000800D911D11240895F894FFCFF7
:10465C0000003E05800001000F00F4010400D007AB
:10466C0004011F151F151F151F151F15FFFFFFFF39
:10467C0000E100000000000000C18081000000018A
:10468C008001800180FF7FFF7FFF7F564D44505695
:10469C005F317C315F564D4450560D0A00000000CE
:1046AC000045021802ED01F50108021702564D44AF
:1046BC0050435F005F564D4450430D0A00457272E3
:1046CC006F723A20417474656D707420746F20732E
:1046DC006574206120726561642D6F6E6C79207633
:1046EC0061726961626C65206F7220646174612013
:1046FC0074797065206E6F7420737570706F72743E
:10470C0065640D0A009C01B501CF01EA0107022680
:10471C0002470269028E02B502DE020A03564D44BC
:10472C0050455F31007C005F564D4450450D0A00EA
:10473C00564D4450455F3300564D4450455F320052
:10474C0000000000AF17F617D917E917C517D617D1
:0E475C006E616E00696E66006F7666002E005C
:00000001FF
